:020000040000FA
:100000000C942A020C9452020C9452020C947B25FC
:100010000C947B250C947B250C9452020C94520278
:100020000C9452020C9452020C9452020C94520200
:100030000C9452020C9452020C9452020C945202F0
:100040000C9431250C9452020C9452020C945202DE
:100050000C9452020C9452020C9452020C945202D0
:100060000C94F3250C945202534F4E4753204445B1
:100070004D4F00564F4943452044454D4F00534F87
:100080004E4720434F554E540045564520534F4E42
:100090004720322054494D45004D4F5220534F4E7A
:1000A0004720322054494D450045564520534F4E78
:1000B000472031204E6F2E0045564520534F4E4766
:1000C00020312054494D45004D4F5220534F4E474B
:1000D0002031204E6F2E004D4F5220534F4E47205F
:1000E000312054494D4500504C41590053454C4531
:1000F00043542054494D4500504C595220455645D3
:100100002044555200504C595220455645204F4EE0
:100110002054494D00504C5952204D4F52204455C7
:100120005200504C5952204D4F52204F4E205449AE
:100130004D004C49474854204F46462054494D45B0
:10014000004C49474854204F4E2054494D45000F1C
:10015000D70000000014C80000000011B800000023
:100160000015A9000000001099000000001289008D
:10017000000000137E0000000000EA0100000053B0
:100180004F4E472053455454494E47000CEC000055
:1001900000000DE70000000000EA01000000504CE4
:1001A00041592044454D4F005343484F4F4C205A2E
:1001B0004F4E4500564F4C554D45004241434B4C28
:1001C000494748542044555200534C4F47414D2015
:1001D000434F554E5400454E442054494D4500531D
:1001E000544152542054494D45004241434B005321
:1001F00045542054494D45005345542044415445ED
:100200000005DF0100000006D6010000000B9E0182
:100210008C01030AA80100000000EA01000000436D
:100220004C4F434B2053455454494E470045584981
:10023000540052455345542053455454494E4700A9
:100240001B22010000001C15010000001D0501001B
:1002500000001EF80000000000EA01000000504C01
:10026000415945522053455454494E4700184101C5
:1002700000000019320100000000EA010000004CFB
:1002800049474854532053455454494E470005DFCD
:100290000100000006D60100000007C901000000AF
:1002A00008BB0100000009B4010000000AA8010019
:1002B00000000B9E018C01030E7F014F010800EA34
:1002C0000100000042454C4C2053455454494E47D0
:1002D0000002F80100000003EF0100000000EA0145
:1002E00000000053455420444154452054494D4595
:1002F0000020200020200020504C41594552204D24
:100300004F4445204F4E2000202052554E4E494E1E
:10031000472044454D4F202000207300000000215D
:100320006800000000002D02000000204155544FDD
:10033000204C49474854204F464620002041555400
:100340004F204C49474854204F4E20200020415513
:10035000544F20504C4159204F4646202000202029
:100360004155544F20504C4159204F4E2020000001
:10037000000000240027002A0000000008000201FD
:1003800000000304070000000000000000177F02C7
:100390006D02031A5E0240020501E302D102031F4F
:1003A0001F02010205002D0200000001E302D1023C
:1003B0000304C4028E0209177F026D02031A5E0253
:1003C000400205163202000000002D020000004528
:1003D00052522030330045525220303200455252A2
:1003E0002030310056657273696F6E203A20332ECB
:1003F00031004445564F54494F4E414C20434C4FD9
:10040000434B005154524F4E001F1C1F1E1F1E1FF6
:100410001F1E1F1E000000002300260029000000F0
:100420000000250028002B00040404040404040434
:10043000020202020202030303030303010204088F
:10044000102040800102040810200102040810203E
:100450001227B02B11241FBECFEFD8E0DEBFCDBFD7
:1004600013E0A0E0B1E0EEEBFFE502C005900D92D5
:10047000AA33B107D9F725E0AAE3B3E001C01D9282
:10048000AA3FB207E1F712E0C9E2D2E004C0219727
:10049000FE010E94B02DC832D107C9F70E9427285B
:1004A0000C94D22F0C94000080913505E091320518
:1004B000F091330596E0899FE00DF11D11243596EA
:1004C000E49181E0E11101C080E00895EFE2F5E000
:1004D00086810380F481E02D96E0899FE00DF11D77
:1004E000112484910895089508956091A005909134
:1004F0009F05492F50E08091A105282F30E0E9E0C9
:10050000F4E081E0861730F47491270F311D8F5F7E
:100510003196F8CF633020F0937011F42F5F3F4F86
:100520006DE671E0469FC001479F900D569F900D6C
:10053000112405964D5F5F4F569547955695479503
:10054000840F951F820F931F67E070E00E94882D33
:100550000895AF92BF92CF92DF92EF92FF920F93E6
:100560001F93CF93DF936C017B018B01040F151F49
:10057000EB015E01AE18BF08C017D10759F06991B1
:10058000D601ED91FC910190F081E02DC601099515
:10059000892B79F7C501DF91CF911F910F91FF90C2
:1005A000EF90DF90CF90BF90AF900895833081F0AF
:1005B00028F4813099F08230A9F008958730A9F0AD
:1005C0008830C9F08430B1F4809180008F7D03C001
:1005D000809180008F7780938000089584B58F7715
:1005E00084BD089584B58F7DFBCF8091B0008F7757
:1005F0008093B00008958091B0008F7DF9CFCF93A4
:10060000DF93282F30E0F901E758FC4F8491F9017E
:10061000E45CFB4FD491F901E85DFB4FC491CC231E
:10062000A1F081110E94D602EC2FF0E0EE0FFF1F27
:10063000EC5EFB4FA591B491EC91ED2381E090E04D
:1006400009F480E0DF91CF91089580E090E0FACF47
:100650001F93CF93DF93282F30E0F901E758FC4F29
:100660008491F901E45CFB4FD491F901E85DFB4F03
:10067000C491CC23A9F0162F81110E94D602EC2F31
:10068000F0E0EE0FFF1FE25EFB4FA591B4918FB734
:10069000F894EC91111108C0D095DE23DC938FBF44
:1006A000DF91CF911F910895DE2BF8CFCF93DF9389
:1006B00090E0FC01E45CFB4F2491885D9B4FFC01C2
:1006C00084918823C9F090E0880F991FFC01E159BB
:1006D000FC4FA591B491FC01E25EFB4FC591D49112
:1006E00061110DC09FB7F8948C91209582238C9353
:1006F0008881282328839FBFDF91CF91089562309E
:1007000051F49FB7F8943C91822F809583238C936A
:10071000E8812E2BEFCF8FB7F894EC912E2B2C93F2
:100720008FBFEACF3FB7F89480911B0490911C04CF
:10073000A0911D04B0911E0426B5A89B05C02F3FB3
:1007400019F00196A11DB11D3FBFBA2FA92F982FF7
:100750008827BC01CD01620F711D811D911D42E0F2
:10076000660F771F881F991F4A95D1F708958F92BA
:100770009F92AF92BF92CF92DF92EF92FF926B0166
:100780007C010E9492034B015C01C114D104E1047D
:10079000F104B9F00E949203681979098A099B094A
:1007A000683E73408105910580F321E0C21AD108AB
:1007B000E108F10888EE880E83E0981EA11CB11CA8
:1007C000E4CFFF90EF90DF90CF90BF90AF909F90DD
:1007D0008F9008952FB7F8946091170470911804C2
:1007E0008091190490911A042FBF08950F931F93BD
:1007F0008091B1059091B205DC01ED91FC910084EE
:10080000F185E02D0995892B09F4D7C060E070E0EF
:10081000CB010E94B7032091CF058091B105909143
:10082000B205DC01ED91FC910284F385E02D2111EC
:100830000BC009958093BB058E37D1F68091CF050B
:100840008F5F8093CF05D4CF09959091CF05E92F85
:10085000F0E0EF54FA4F82879230B9F09930D9F036
:100860009130A9F48F3F99F01092CF0581E08093E9
:10087000D1051092D4051092D3058093D50510921E
:10088000D60580E01F910F910895863069F79F5F2C
:100890009093CF05ADCF8F3E39F72091BD05809164
:1008A000BC05280F3327331FE091BE05C9018E0F09
:1008B000911D2091BF05280F392F311D4091C00592
:1008C00050E0240F351F8091C10590E06091C20572
:1008D00070E0762F6627F091C3056F0F711D280F0A
:1008E000391F3195219531096217730709F0BCCF83
:1008F0001092CF05E13419F41092D6052FC0E09381
:10090000D205542F4427840F951F9093D4058093CC
:10091000D305EA53E63108F046C0F0E0EE56FB4F4F
:100920000C94B02DBF04C704D104A804D104B104B1
:10093000CF04D304D104D104D104D104D104D1040F
:10094000D104D104D304D104D104D104D104D104FD
:1009500085E08093D10581E08093D5058091D50510
:1009600091CF80FF02C089E0F4CF81FF02C084E014
:10097000F0CF83709927892B89F38AE0EACF80FF33
:1009800002C087E0E6CF81FFE9CF82E0E2CF80FFBF
:1009900002C088E0DECF81FFE1CF83E0DACF86E0DE
:1009A000D8CF8BE0D6CF81E08093D1051092D405CB
:1009B0001092D3058093D5059FCF8091D6058823CB
:1009C00069F20E94EA030091B3051091B4052091E9
:1009D000B5053091B605601B710B820B930B00912E
:1009E000B7051091B8052091B9053091BA05601787
:1009F00071078207930708F4B1CF1092CF051092C8
:100A0000D1051092D4051092D30581E036CF8093A2
:100A1000C805272F30E07093CA056093CB0540913D
:100A2000C7059091C605490F5527551F840F952F6F
:100A3000911D4091C905840F911D820F931F680F6E
:100A4000792F711D7195619571097093CC05609333
:100A5000CD05442361F08091D605882341F060E004
:100A600070E0CB010E94B7030E94F603F4CF80919F
:100A7000B1059091B205DC01ED91FC910280F3810A
:100A8000E02D4AE050E065EC75E009950E94EA032C
:100A90006093B3057093B4058093B5059093B60544
:100AA0008091C90591E0811101C090E09093D60535
:100AB000811106C06AE070E080E090E00C94B7031A
:100AC0000895782F8FE00C94070508952091210454
:100AD000309122042817390771F490911F048091F6
:100AE0002004981741F0E0911F04F0E0EA52FC4F17
:100AF000808190E008958FEF9FEF08950895EF9221
:100B0000FF920F931F93CF93DF93DC015C96ED90E0
:100B1000FC905D97E114F10479F481E090E0139684
:100B20009C938E93129790E080E0DF91CF911F917C
:100B30000F91FF90EF9008955196ED91FC9152978F
:100B400050968C915097982F90950FB75E962C9158
:100B50005E97122F127021FD6095F8942081112369
:100B600019F1282B2083E7012197F1F728E0462F80
:100B700050E0308160FF1AC0382B3083E7012197A5
:100B8000F1F7BA0175956795215089F7112381F026
:100B90008081892380830FBF5C968D919C91019702
:100BA000F1F781E090E0C1CF2923DCCF3923E5CFF5
:100BB0009081892BEFCF20912104309122042817B6
:100BC000390761F48091200420911F0490E0805C3B
:100BD0009F4F821B91098F739927089590E080E0C1
:100BE0000895209121043091220428173907B9F47F
:100BF00090911F0480912004981789F0E0911F04C0
:100C0000F0E0EA52FC4F808120911F0430E02F5F1A
:100C10003F4F2F73332720931F0490E008958FEFE9
:100C20009FEF08952091B303260F3327331F2132FE
:100C30003105ECF420917404FC0190E080E0243054
:100C400069F082E00895A091B3032191AC014D5663
:100C50005C4FA40FB52FB11D2C930196861798F306
:100C60008091B303680F6093B30380E0089581E03F
:100C700008951092740481E08093730410924E04DE
:100C800061E082E10E94280361E083E10E94280381
:100C9000E9EBF0E080818E7F808380818D7F80838F
:100CA00088E48093B80085E48093BC000895109296
:100CB0002D0410922C0410927B0410929D040E942B
:100CC000390683E792E090932B0480932A0484E70B
:100CD00092E090932904809328040895CF93DF93A2
:100CE00091E0909392038823B9F0C091B800D0911D
:100CF000BA008091BC008A7B8093BC0060E082E1F6
:100D00000E94280360E083E10E9428030E943906C4
:100D1000D093BA00C093B800DF91CF910895CF92DD
:100D2000DF92EF92FF920F931F93CF93DF93D091B7
:100D30009D0481E0D13208F09CC0C0919C040E94C7
:100D400092036B017C018091740481116CC082E07C
:100D50008093740481E0809373048FEF8093720416
:100D600010927104D0937004ACE7B4E0E0E5F4E0D5
:100D700080E0D8138DC010924F0480914F04CC0FA7
:100D8000C82BC0934F0480914E04813009F084C079
:100D900010924E040E9492036B017C0180914F04DB
:100DA0008093BB008091760490917704A0917804A1
:100DB000B0917904892B8A2B8B2BA1F00E9492038E
:100DC0000091760410917704209178043091790491
:100DD0006C197D098E099F0906171707280739071F
:100DE00008F442C08091BC0083FDD8CF85EC80938D
:100DF000BC000E9492036B017C01809174048230DC
:100E000009F44CC0809172048F3F09F469C080914D
:100E10007204803209F466C080917204803309F450
:100E200063C084E026C08091760490917704A091FD
:100E30007804B0917904892B8A2B8B2B09F483CF0A
:100E40000E94920300917604109177042091780417
:100E5000309179046C197D098E099F0906171707CF
:100E60002807390708F06FCF809175040E946E063D
:100E700085E010927B0410929D0410927A04DF9119
:100E8000CF911F910F91FF90EF90DF90CF90089539
:100E90009D9191938F5F6DCF85EEA9CF8091760460
:100EA00090917704A0917804B0917904892B8A2BD2
:100EB0008B2B09F4A2CF0E9492030091760410912B
:100EC000770420917804309179046C197D098E099A
:100ED0009F09061717072807390708F08ECFC4CFD8
:100EE00080E0C7CF82E0C5CF83E0C3CFCF92DF924F
:100EF000EF92FF920F931F93CF93DF93D82FC62FBC
:100F0000613208F098C00E9492036B017C018091CD
:100F1000740481116BC081E0809374048093730426
:100F20009FEF90937204109271049C0F9093700441
:100F300080934F0480914F04DD0FD82BD0934F0442
:100F400080914E04813009F078C010924E040E94C6
:100F500092036B017C0180914F048093BB008091D0
:100F6000760490917704A0917804B0917904892B4C
:100F70008A2B8B2BA1F00E94920300917604109192
:100F8000770420917804309179046C197D098E09D9
:100F90009F09061717072807390708F448C08091EA
:100FA000BC0083FDD8CF85EC8093BC000E949203E7
:100FB0006B017C0180917404813009F440C0809100
:100FC00071048C1710F4C0917104E0E5F4E0AEE216
:100FD000B4E080E08C1355C08C2FDF91CF911F912E
:100FE0000F91FF90EF90DF90CF900895809176045D
:100FF00090917704A0917804B0917904892B8A2B81
:101000008B2B09F484CF0E949203009176041091F7
:10101000770420917804309179046C197D098E0948
:101020009F09061717072807390708F070CF809126
:1010300075040E946E06C0E0CFCF85EEB5CF8091DB
:10104000760490917704A0917804B0917904892B6B
:101050008A2B8B2B09F4AECF0E9492030091760469
:101060001091770420917804309179046C197D09EE
:101070008E099F09061717072807390708F09ACF26
:10108000D6CF91919D938F5FA5CFE0912D04809154
:101090002C04E81730F4F0E0E25DFB4F808190E033
:1010A00008958FEF9FEF089590912D0480912C0467
:1010B0002FEF3FEF981748F4E92FF0E0E25DFB4F88
:1010C000208130E09F5F90932D04C90108958091A5
:1010D0002C0490912D04891B990B0895CF92DF92D7
:1010E000EF92FF920F931F93CF93DF937C01CB017D
:1010F0008A0120917A04222389F0EB016B01C40E4E
:10110000D51ECC15DD0569F06991D701ED91FC91F3
:101110000190F081E02DC7010995F3CF642F0E9463
:101120001206C801DF91CF911F910F91FF90EF90B0
:10113000DF90CF900895CF93DF931F92CDB7DEB7A6
:10114000698320917A042223F9F020919D042032B2
:1011500058F021E030E0FC013383228390E080E00E
:101160000F90DF91CF91089580917B04E82FF0E0FC
:10117000E458FB4F998190838F5F80937B04809329
:101180009D0481E090E0ECCF61E0CE0101960E94E9
:101190001206F7CFFC01248131E030937A042093CA
:1011A0009C0410927B0410929D048385682B8BE431
:1011B00095E00E949B080C948F061F93CF93DF93BA
:1011C000EC0181E080937A0488E680939C0410927D
:1011D0007B0410929D0460E08BE495E00E949B08E4
:1011E0002D811AE0822F612F0E947C2D682F660FBF
:1011F000680F660F620F8BE495E00E949B082C81BC
:10120000822F612F0E947C2D682F660F680F660F5A
:10121000620F8BE495E00E949B082B81822F612F47
:101220000E947C2D682F660F680F660F620F8BE49B
:1012300095E00E949B0860E08BE495E00E949B088B
:101240002A81822F612F0E947C2D682F660F680FE4
:10125000660F620F8BE495E00E949B082981822F24
:10126000612F0E947C2D682F660F680F660F620F3A
:101270008BE495E00E949B082881822F612F0E94B9
:101280007C2D682F660F680F660F620F8BE495E068
:101290000E949B08DF91CF911F910C948F0690E0E4
:1012A00080E0089520919103253009F090F4909109
:1012B0009003E92FF0E0E557FC4F80832F5F2093E8
:1012C00091039F5F953018F49093900308951092C6
:1012D0009003089560E08CE00E94280370E060E0D5
:1012E00086E10C940705CF93DF93C82FD62F61E0DA
:1012F0008CE00E9428036D2F8C2F0E94610564EF03
:1013000071E080E090E0DF91CF910C94B703CF9231
:10131000DF92FF920F931F93CF93DF936C0181E0D5
:1013200080937A0488E680939C0410927B04109248
:101330009D0460E08BE495E00E949B080E948F066C
:1013400067E088E60E94760710922D0480932C04B3
:101350008BE495E00E9454088F77282F30E094E0CA
:10136000359527959A95E1F7922F990F990FC22FEE
:10137000C91BCC0FC80F8BE495E00E9454089C0158
:1013800044E0359527954A95E1F72F703327922F42
:10139000990F990FD22FD91BDD0FD80F8BE495E051
:1013A0000E9454089C0154E0359527955A95E1F721
:1013B0002F703327922F990F990F122F191B110F8E
:1013C000180F8BE495E00E9454088BE495E00E948E
:1013D00054089C0164E0359527956A95E1F72F70D4
:1013E0003327922F990F990F022F091B000F080F17
:1013F0008BE495E00E9454089C0174E03595279594
:101400007A95E1F72F703327922F990F990FF22ECB
:10141000F91AFF0CF80E8BE495E00E9454089C0129
:10142000E4E035952795EA95E1F72F703327922F61
:10143000990F990F291B220F820FF6018083F182E9
:1014400002831383D483C583C601DF91CF911F919B
:101450000F91FF90DF90CF9008950F931F93CF933C
:101460008C01C62F0E94CA086C2F6460C8010E94BC
:10147000CA086C2F6B7FC8010E94CA0883EC90E0F9
:101480000197F1F7CF911F910F9108950F931F933B
:10149000CF93DF938C01D62FC42F607F642B0E94E3
:1014A0002D0A80E1D89FB00111246C2BC801DF9177
:1014B000CF911F910F910C942D0ACF93DF93CDB74D
:1014C000DEB728970FB6F894DEBF0FBECDBF98E009
:1014D000E2E1F1E0DE01119601900D929A95E1F7BB
:1014E0009091AD05961708F46FEF262F30E0220F8C
:1014F000331F41E050E04C0F5D1F240F351FF901F1
:101500006081680F606840E085EA95E028960FB634
:10151000F894DEBF0FBECDBFDF91CF910C94460A89
:1015200040E061E085EA95E00E94460A8BE39FE196
:101530000197F1F708950F931F938091E60490911E
:10154000E704A091E804B091E9044091860350912A
:1015500087036091880370918903481759076A07C8
:101560007B071CF10091EA041091EB042091EC043C
:101570003091ED04800F911FA21FB31F84179507B0
:10158000A607B70794F0012B022B032B71F0809173
:101590008503811150C081E08093850385E08093AD
:1015A0008A031F910F910C94900A8091EE04909100
:1015B000EF04A091F004B091F104481759076A07AD
:1015C0007B07ECF00091F2041091F3042091F404F5
:1015D0003091F504800F911FA21FB31F8417950748
:1015E000A607B70764F0012B022B032B41F0809173
:1015F0008403811120C081E080938403CFCF809148
:101600008A038530C1F480918403813021F0809178
:101610008503813081F460E08CE00E94280360E063
:101620008AE00E94280310928503109284030E948E
:10163000900A10928A031F910F91089541E00E9431
:10164000460A81E090E008950F931F93CF93DF93B4
:101650008C01D0E0C0E0F801EC0FFD1F649166231F
:1016600039F041E085EA95E00E94460A2196F3CFE1
:10167000CE01DF91CF911F910F910895009769F0EE
:10168000FC0101900020E9F73197AF01481B590B8D
:10169000BC0185EA95E00C94A90290E080E00895F1
:1016A0000F931F93CF93DF93EC01CB01009759F475
:1016B00065E971E0CE010E94BC2FCE01DF91CF9190
:1016C0001F910F91089520E077FF06C02DE2288337
:1016D00091958195910921E0803137E293070CF5CE
:1016E000883E33E09307FCF432E0843691052CF415
:1016F00031E08A3091050CF430E0230FFE01E20F57
:10170000F11D11820AE010E0FE01E20FF11DB801A7
:101710000E949C2D805D8083CB0121500097A1F712
:10172000CCCF34E0EACF33E0E8CFCF93DF93BC01F6
:10173000EC0109900020E9F72197C81BD90BC031B3
:1017400008F58EE195E00E94BC2F80E18C1BEDE056
:10175000F5E090E020E2AF014D50554048175907A1
:1017600014F42193F8CF835F9A4FFC0110826DE04F
:1017700075E08EE195E00E94A82F8EE195E0DF9163
:10178000CF91089541E150E08EE195E00E94C32F92
:10179000F4CF0F931F93CF93DF93EC018B01FB01E9
:1017A00001900020E9F73197E61BF70BE03128F5AF
:1017B000E41718F54E1B413108F040E1EDE0F5E08B
:1017C00050E080E39F012D5035402417350714F475
:1017D0008193F8CF435F5A4FFA0110826DE075E0B4
:1017E000CE010E94BC2FB801CE010E94A82FCE01CD
:1017F000DF91CF911F910F91089550E04F5F5F4FA0
:10180000B801CE010E94C32FF2CF42E550E070E054
:1018100060E084EA94E00C94CA2CE0910301E1506A
:10182000E93008F045C1F0E0E85EF34F0C94B02DCC
:10183000210C360C490C5C0C6F0C840C580DB90C47
:101840003E0D84E00E94FF02892B09F431C170E053
:1018500060E082E10E94070568EE73E080E090E0BE
:101860000E94B70382E080930301089584E00E9400
:10187000FF02892B09F41CC16091A20581E00E943E
:10188000610568EE73E080E090E00E94B70383E0BA
:10189000EACF84E00E94FF02892B09F409C160911C
:1018A000A0058FE20E94610568EE73E080E090E0A1
:1018B0000E94B70384E0D7CF84E00E94FF02892B07
:1018C00009F4F6C06091A10580E30E94610568EE0D
:1018D00073E080E090E00E94B70385E0C4CF84E02D
:1018E0000E94FF02892B09F4E3C00E94750261E0A7
:1018F000680F81E30E94610568EE73E080E090E08C
:101900000E94B70386E0AFCF84E00E94FF02892BDC
:1019100009F4CEC08091A205863019F08D7F883001
:10192000C9F480919F0590E08053984F2091C604A0
:101930003091C7042817390779F48091A005609188
:10194000A1058E5C0E94610568EE73E080E090E086
:101950000E94B70388E087CF215031092817390743
:10196000C9F78091A0058C30A9F76091A10582E3A9
:10197000E9CF84E00E94FF02892B09F499C02091ED
:10198000CA043091CB048091A20590E02817390752
:1019900021F42330310509F040C02091CC0430916E
:1019A000CD048217930721F48330910509F041C0DB
:1019B0002091CE043091CF04A901445F5F4F84177A
:1019C000950719F42330310571F52091D004309139
:1019D000D104A901445F5F4F8417950739F16091E5
:1019E000BE047091BF0482E10E9407058091BE048D
:1019F0009091BF0401969093BF048093BE04209100
:101A0000C0043091C1042817390774F581E090E0D3
:101A10009093BF048093BE0427C06091D20482E0FB
:101A20000E94610523C06091D404F9CF23303105B1
:101A3000B1F26091C40484E00E9461058091C40405
:101A40009091C50401969093C5048093C40420919D
:101A5000C2043091C3042817390734F481E090E0C0
:101A60009093C5048093C4040E94050C68EE73E053
:101A700080E090E00E94B70389E0F5CE84E00E9408
:101A8000FF02892BA9F081E0809303010E94900A54
:101A900010928A030E94EA03609323047093240443
:101AA000809325049093260460E08CE00C94280336
:101AB00008950F931F93CF93DF93EC018881998151
:101AC000009759F02A813B812617370730F081E0D3
:101AD000DF91CF911F910F9108958B016F5F7F4F21
:101AE0000E94E22E009759F0998388831B830A8312
:101AF0002C813D81232B59F7FC011082E8CF80E037
:101B0000E7CFCF93DF93EC0188819981009711F0A3
:101B10000E94592E198218821D821C821B821A82F1
:101B2000DF91CF910895EF92FF920F931F93CF9380
:101B3000DF93EC01FB01E080F180E114F10411F18D
:101B40000481158101151105A9F08C819D81080F73
:101B5000191FB801CE010E94590D882399F02881E0
:101B600039818C819D81B701820F931F0E94BC2F08
:101B70001D830C83CE01DF91CF911F910F91FF90B8
:101B8000EF900895CE010E94810DF4CFEF92FF9265
:101B90000F931F93CF93DF93EC017B01198218827F
:101BA0001B821A821D821C82FB0101900020E9F732
:101BB00031978F01061B170BB8010E94590D811137
:101BC00009C0CE01DF91CF911F910F91FF90EF904F
:101BD0000C94810D1D830C83B70188819981DF915D
:101BE000CF911F910F91FF90EF900C94BC2FFC01AF
:101BF00080819181009711F00C94592E089585ED04
:101C00008093BC008091760490917704A091780431
:101C1000B09179040796A11DB11D23E0B695A79553
:101C2000979587952A95D1F72091BC0024FD03C094
:101C30001092740408954091760450917704609155
:101C4000780470917904452B462B472B69F3009754
:101C5000A105B10541F02AE22A95F1F700C00197EC
:101C6000A109B109E1CF809175040C946E066F92C1
:101C70007F928F929F92AF92BF92CF92DF92EF921C
:101C8000FF920F931F93CF93DF93CDB7DEB7E98811
:101C9000FA88FE017496D12CC12C712CAB88B12C22
:101CA00080E1682E872D90E0CA14DB042CF52FE02C
:101CB000271510F14F0122E0820E911C6081718185
:101CC000FB0101900020E9F731978F01061B170BEC
:101CD0009C01200F311D462D4719213131050CF48F
:101CE000402F50E08E0D9F1D0E94C32F700E8FEF6E
:101CF000C81AD80AF401D6CF8E0D9F1DFC011082A0
:101D0000C701DF91CF911F910F91FF90EF90DF906E
:101D1000CF90BF90AF909F908F907F906F900895DD
:101D2000CF92DF92EF92FF920F931F93CF93DF93A7
:101D3000CDB7DEB760970FB6F894DEBF0FBECDBF4C
:101D4000188A1F862AE32F872CE330E040E050E01A
:101D50000E94E22C6B01B901CE0101960E94500B4A
:101D60008E01045F1F4F42E0BE016F5F7F4FC801CD
:101D70000E94C90BB601CE0101960E94500B7E0154
:101D800089E0E80EF11C42E0BE016F5F7F4FC701A2
:101D90000E94C90BFF92EF92CE010F969F938F93F3
:101DA0001F930F9383E08F938CEF94E09F938F9317
:101DB0000E94370E0FB6F894DEBF0FBECDBF8CEF7A
:101DC00094E060960FB6F894DEBF0FBECDBFDF91F2
:101DD000CF911F910F91FF90EF90DF90CF900895DA
:101DE0008F929F92AF92BF92CF92DF92EF92FF922B
:101DF0000F931F93CF93DF93CDB7DEB760970FB6E6
:101E0000F894DEBF0FBECDBF188A1F862AE32F8746
:101E10002CE330E040E050E00E94E22C4B017901DD
:101E20002D30310514F02C503109B901CE01019645
:101E30000E94500B8E01045F1F4F42E0BE016F5F96
:101E40007F4FC8010E94C90BB401CE0101960E94C8
:101E5000500B6E0199E0C90ED11C42E0BE016F5FCC
:101E60007F4FC6010E94C90B8CE0E816F10474F59F
:101E700081EA91E09F938F93DF92CF92CE010F96EC
:101E80009F938F931F930F9384E08F938CEF94E035
:101E90009F938F930E94370E0FB6F894DEBF0FBE4C
:101EA000CDBF8CEF94E060960FB6F894DEBF0FBE06
:101EB000CDBFDF91CF911F910F91FF90EF90DF90F9
:101EC000CF90BF90AF909F908F9008958AE991E056
:101ED000D1CFCF92DF92EF92FF920F931F93CF93C8
:101EE000DF93CDB7DEB765970FB6F894DEBF0FBEB0
:101EF000CDBF8250803208F0F1C1E82FF0E0ED57FD
:101F0000F04F0C94B02DA30FF90F6E1120104C1050
:101F10006B1076108310B3106E118E10BD106E1101
:101F2000C610D310D810E610EB10F01012114F119C
:101F30006E11171120116E11291132113D11461128
:101F40006E11521162111D8A1C8A8FE28C8B609176
:101F5000A2047091A304CE0101960E94500B8E0141
:101F60000F5E1F4F42E0BE016F5F7F4FC8010E94AE
:101F7000C90B6091A0047091A104CE0101960E944A
:101F8000500B7E018EE0E80EF11C42E0BE016F5F57
:101F90007F4FC7010E94C90B60919E0470919F04FE
:101FA000CE0101960E94500B6E0199E0C90ED11C22
:101FB00044E0BE016F5F7F4FC6010E94C90BDF92F4
:101FC000CF92CE0144969F938F93FF92EF929F936F
:101FD0008F931F930F9385E08F938CEF94E09F93E3
:101FE0008F930E94370E0FB6F894DEBF0FBECDBFA1
:101FF00016C0A091FA04B091FB042CE330E00E94DB
:10200000B62D0091F8041091F904012E000C220B5A
:10201000330B600F711F821F931F0E94F00E8CEF15
:1020200094E065960FB6F894DEBF0FBECDBFDF918A
:10203000CF911F910F91FF90EF90DF90CF90089577
:102040006091B3047091B4046D30710514F06C505C
:102050007109CE0101960E94500B8E01075F1F4F40
:1020600042E0BE016F5F7F4FC8010E94C90B8091A3
:10207000B3049091B4040C975CF58EE991E09F93C2
:102080008F931F930F9382E08F938CEF94E09F9335
:102090008F930E94370EA7CF6091B5047091B6045C
:1020A0006D30710514F06C507109CE0101960E94DB
:1020B000500B8E01075F1F4F42E0BE016F5F7F4FE5
:1020C000C8010E94C90B8091B5049091B604D3CF8A
:1020D00087E991E0D4CF6091C0047091C104CE0132
:1020E00001960E94500B29EB32E00AC06091B704C0
:1020F0007091B804CE0101960E94500B29EA31E09C
:102100003F932F9340C06091B9047091BA04CE01FF
:1021100001960E94500B9F938F9376C00091060109
:1021200010910701B8010D30110514F06C507109C0
:10213000CE0101960E94500B7E0199E0E90EF11C40
:1021400042E0BE016F5F7F4FC7010E94C90B8EE95D
:1021500091E00C30110514F087E991E09F938F9383
:10216000FF92EF9290CF8091BD04882319F08FEDFC
:1021700091E0D1CF85EA91E0CECF82EB91E09F93C1
:102180008F938AEB91E09F938F937DCF6091CA04E8
:102190007091CB046330710509F0A7C02CEC31E0DD
:1021A00085EA91E0ADCF6091CC047091CD04F2CF7F
:1021B0006091CE047091CF046330710579F3CE0144
:1021C00001960E94500B2AE931E09ACF6091D00429
:1021D0007091D104F1CF6091C2047091C3047FCF9C
:1021E0006091D2047091D304CE0101960E94500BED
:1021F0008E01075F1F4F43E0BE016F5F7F4FC80135
:102200000E94C90B1F930F9381E08F938CEF94E092
:102210009F938F930E94370E0F900F900F900F9007
:102220000F90FDCE6091D4047091D504DDCF609104
:10223000D6047091D7048091D8049091D904EDCE42
:102240006091DA047091DB048091DC049091DD04EC
:10225000E4CE6091E6047091E7048091E8049091E7
:10226000E904DBCE6091EA047091EB048091EC0408
:102270009091ED040E94900ED2CE6091EE04709188
:10228000EF048091F0049091F104C7CE6091F204C4
:102290007091F3048091F4049091F504EBCF1092C7
:1022A000FC04BDCE87EB91E09F938F93E091F60401
:1022B000F091F704EE0FFF1FE95AFE4F81818F93D3
:1022C000808162CFE0910401F0910501EE0FFF1FC4
:1022D000E15CFE4F81818F9380811ECF69E371E0C5
:1022E0008CEF94E00E94BC2F9ACECE0101960E9402
:1022F000500B21EA31E004CF6F927F929F92AF9210
:10230000BF92CF92DF92EF92FF920F931F93CF93E2
:10231000DF93CDB7DEB7A3970FB6F894DEBF0FBE3D
:10232000CDBFCE0109960E9487096C85662309F40A
:10233000E4C06C3011F008F06C5070E0CE010196F2
:102340000E94500B8E01085E1F4F42E0BE016F5F7E
:102350007F4FC8010E94C90BCE0109960E948709D0
:102360006D8570E0CE0101960E94500B7E012BE13D
:10237000E20EF11C42E0BE016F5F7F4FC7010E9479
:10238000C90BCE0109960E9487096E8570E0CE01C7
:1023900001960E94500B6E013EE1C30ED11C42E03B
:1023A000BE016F5F7F4FC6010E94C90B60E080E0F5
:1023B0000E945D0ACE0109960E9487098C858C30A7
:1023C00008F09DC086EC91E09F938F93DF92CF92AF
:1023D0008DEC91E09F938F93FF92EF929F938F9359
:1023E0001F930F938AECE82E81E0F82EFF92EF9274
:1023F00097E0992E9F920EE115E01F930F930E9494
:10240000370E0E943E0BCE0109960E9487096B850C
:1024100070E0CE0101960E94500B6E0181E2C80E61
:10242000D11C42E0BE016F5F7F4FC6010E94C90B05
:10243000CE0109960E948709698570E06053784F44
:10244000CE0101960E94500B3E012FE0620E711CDE
:1024500044E0BE016F5F7F4FC3010E94C90BCE01F4
:1024600009960E9487098A858150990B26E0289F4A
:10247000F001299FF00D1124E95AFA4F6081718112
:102480005E0134E1A30EB11CC5010E94BC2F61E0C6
:1024900080E00E945D0A89EC91E09F938F937F9288
:1024A0006F928FEC91E09F938F93BF92AF929F9327
:1024B0008F93DF92CF92FF92EF929F921F930F9391
:1024C0000E94370E0FB6F894DEBF0FBECDBF0E943C
:1024D0003E0BA3960FB6F894DEBF0FBECDBFDF91C3
:1024E000CF911F910F91FF90EF90DF90CF90BF9011
:1024F000AF909F907F906F9008956CE01ECF8FEB10
:1025000091E062CF1F93CF93DF93CDB7DEB7619792
:102510000FB6F894DEBF0FBECDBF0E946602182F23
:1025200060E080E00E945D0A0E94540290913505AF
:10253000E0913205F0913305882349F186E0989FB8
:10254000E00DF11D1124319665917491CE01019633
:102550000E947E2C0E94950B8EE780932D058EE1C4
:1025600095E00E943E0B88EE810F823020F01B31F7
:1025700011F01D3131F561E080E00E945D0A8BECC5
:1025800091E00E943E0B812F0E94690F20C086E0DF
:10259000989FE00DF11D1124319665917491CE0143
:1025A00001960E947E2C0E94950B0E946602182FB5
:1025B00081111BC08FE780932D058EE195E00E946D
:1025C0003E0B61E080E00E945D0A89E291E00E949A
:1025D000950B0E943E0B61960FB6F894DEBF0FBEBE
:1025E000CDBFDF91CF911F9108958EE195E00E94BC
:1025F0003E0BC1CF4F925F926F927F928F929F92CC
:10260000AF92BF92CF92DF92EF92FF920F931F9300
:10261000CF93DF93CDB7DEB7EC970FB6F894DEBF5C
:102620000FBECDBF0E94EA030091670310916803BB
:102630002091690330916A03601B710B820B930B2D
:10264000643171058105910508F4A0C00E94EA0378
:1026500060936703709368038093690390936A03A0
:1026600085E00E94FF028C0186E00E94FF02772431
:102670007394892B31F081E0012B09F480E0782EEE
:10268000719487E00E94FF02892B11F442E0742EBE
:1026900088E00E94FF02892B11F433E0732E80E161
:1026A0000E94FF02892B11F424E0722E0AE3E02E2F
:1026B00003E0F02E0EE413E082E6882E83E0982EED
:1026C00094E2A92E91E0B92E640166246394412C12
:1026D00041102DC1F5018081871129C14424439403
:1026E00055245394F60181916F018515A9F0552069
:1026F00009F41FC1862D0E9452090E94EA03F801C5
:102700006083718382839383F70160837183828303
:102710009383F60131975082552061F10E94EA03BC
:10272000F8012081318142815381621B730B840B3C
:10273000950B613D774081059105E0F00E94EA0329
:10274000F7012081318142815381621B730B840B1D
:10275000950B6B3F71058105910560F08C2D8819F3
:1027600080680E9452090E94EA03F7016083718326
:10277000828393836394F4E0EF0EF11C0C5F1F4F90
:102780002FEFA21AB20A66E06612A2CF90919103CF
:1027900019160CF4E6C010928303809183038338EA
:1027A00019F580917E0381111FC08091BC048111B5
:1027B0003CC181E08093BC0461E080E00E945D0A3E
:1027C0008CE393E00E94240B6091BC048FE00E9494
:1027D000280368EE73E080E090E00E94B7030E9457
:1027E000050C81E080937E031091830300918A039E
:1027F0008EE3810F843008F021C110927E030E9485
:10280000EA03C0902304D0902404E0902504F090C3
:1028100026046C197D098E099F09653F7140810569
:10282000910540F010927D0310927C0310927A0380
:10283000109279030E94EA03C0907503D09076034A
:10284000E0907703F09078036C197D098E099F0959
:10285000653F71408105910508F44EC08091BC042C
:10286000882309F449C00E94EA03609375037093BA
:10287000760380937703909378038090D6049090AA
:10288000D704A090D804B090D90481149104A10475
:10289000B10491F1C090DA04D090DB04E090DC0444
:1028A000F090DD04C114D104E104F10429F1409158
:1028B000860350918703609188037091890380910A
:1028C0007B038C149D04AE04BF040CF0E7C04815D4
:1028D00059056A057B050CF4D7C04C155D056E05DE
:1028E0007F050CF0D1C0811107C061E08BE00E9430
:1028F000280381E080937B036091BC048FE00E94F9
:1029000028036091BB048EE00E942803083008F081
:102910004DC2E02FF0E0E157FB4E0C94B02D551561
:102920004C18951923180124A924ED168B17512C46
:10293000D9CE0E94EA03F80120813181428153817E
:10294000621B730B840B950B613D774081059105EC
:1029500028F0862D806C0E945209DBCE862D806483
:10296000FACF80916B03E82FF0E0E557FC4F108120
:102970009150909391038F5F853008F04AC0809307
:102980006B0310938303112309F42ECF0E94EA03F3
:102990006093230470932404809325049093260469
:1029A0000E94EA0360937F03709380038093810306
:1029B0009093820388E08093B00560E085EA95E01B
:1029C0000E94CA08123809F0E8CE80917E03811176
:1029D0000BCF8091BB0481111FC081E08093BB04A9
:1029E00061E080E00E945D0A8EE593E00E94240B86
:1029F0006091BB048EE00E94280368EE73E080E0E3
:102A000090E00E94B7030E94050C81E080937E0352
:102A1000C4CE10926B03B5CF1092BB0461E080E08E
:102A20000E945D0A8DE493E0E1CF1092BC0461E066
:102A300080E00E945D0A8BE293E0C4CE133009F07F
:102A4000DECE002319F0053009F0D9CE80917C0349
:102A500090917D03019690937D0380937C03029770
:102A60000CF4CDCE8BE00E94FF0261E0892B09F0CF
:102A700060E08BE00E94280381E090917B0391113C
:102A800080E080937B03BBCE813009F035CF60E0DE
:102A90008BE00E94280310927B032ECF4815590526
:102AA0006A057B050CF01FCF18CF60E08CE00E9418
:102AB000280360E08AE00E942803113819F52DE808
:102AC00033E03093300520932F0585E08093310566
:102AD00030933305209332058093340510923505E9
:102AE00010924A0581E080938A0383E00E9482125B
:102AF0000E94EA0360937F037093800380938103B5
:102B00009093820380918303813419F529E133E0A6
:102B10003093300520932F0583E080933105309367
:102B200033052093320580933405109235051092B9
:102B30004A0581E080938A0383E00E9482120E940A
:102B4000EA0360937F0370938003809381039093E3
:102B5000820380918303843019F5809179039091E9
:102B60007A03019690937A03809379030497C4F0D3
:102B7000CE0149960E9487098D8D8F3108F4EAC0F5
:102B8000CE0143960E9487098E8990E0019690932A
:102B900007018093060184E080938A030E94900AD3
:102BA000CE0143960E9487098F8981115DC0CE01B5
:102BB00001960E9487098E81811156C00E94EA0306
:102BC000AB01BC018091710390917203A0917303DA
:102BD000B0917403885B9141AF4FBF4F8417950745
:102BE000A607B70708F040C0CE0101960E948709EA
:102BF00086E0FE013196AFE9B5E001900D928A952D
:102C0000E1F78091A20590E02091B3043091B404E3
:102C1000821793074CF12091B5043091B604281720
:102C2000390714F18091BD04882309F49AC00E94E9
:102C30007502882309F495C08091A2058A508730D7
:102C400008F08FC00E94900A60E080E00E945D0A58
:102C500081ED91E00E943E0B68EE73E080E090E031
:102C60000E94B7030E94900A0E94EA0300916D033C
:102C700010916E0320916F0330917003601B710BF4
:102C8000820B930B693E73408105910570F10E94A0
:102C9000EA0360936D0370936E0380936F039093C8
:102CA00070030E947C11CE0143960E9487098E8991
:102CB0006CE3869F80011124CE0101960E94870952
:102CC0008D81800F912F911D092E000CAA0BBB0B3B
:102CD0008093860390938703A0938803B09389031E
:102CE0008091BB0481110E949B0A0E94EA0300911B
:102CF00023041091240420912504309126046B01B3
:102D00007C01C01AD10AE20AF30AA091B704B0917B
:102D1000B80428EE33E00E94B62D6C157D058E05B3
:102D20009F0538F41092B00560E085EA95E00E94B6
:102D3000CA0880918303853831F580917E03811123
:102D400035C085E080938A030E94900A81E08093D9
:102D50007E032CC0CE0101960E9487098C8190E0F1
:102D600016CF61E08CE00E9428030E94EA03609382
:102D7000710370937203809373039093740383E0E1
:102D800080938A036FCF843889F480917E03811108
:102D90000DC086E080938A030E94EA0360937F035C
:102DA000709380038093810390938203EC960FB617
:102DB000F894DEBF0FBECDBFDF91CF911F910F9171
:102DC000FF90EF90DF90CF90BF90AF909F908F904B
:102DD0007F906F905F904F9008950E94EA0300915A
:102DE0006D0310916E0320916F0330917003601B8F
:102DF000710B820B930B6D3271408105910598F038
:102E000080910201882309F458C00E947C1110921D
:102E100002010E94EA0360936D0370936E03809336
:102E20006F039093700310918303123009F051C027
:102E3000CE01C1960E948709FEA8CE018B960E9402
:102E40008709EFA4CE0185960E94870988A500E036
:102E5000883130F4CE014F960E9487090AA10F5F96
:102E6000CE0149960E948709DB8CCE0143960E94D1
:102E70008709CC88CE0101960E94870989818FAB92
:102E8000C8AED9AE0AAFEBAEFCAECE01C7960E947B
:102E9000DD080E94EA03C0907F03D0908003E09099
:102EA0008103F09082036C197D098E099F096131BD
:102EB00077428105910530F529C060E082E00E94EB
:102EC0005D0A8AEC91E00E943E0B81E08093020152
:102ED000A0CF1330A9F4CE01C1960E948709FEA8A5
:102EE000CE018B960E948709EFA4CE0185960E94A1
:102EF0008709CE014F960E9487090AA10150B0CFE1
:102F0000113039F610928A030E94900A143009F0A9
:102F10004DCF87E03FCF0E94EA0300916D031091EF
:102F20006E0320916F0330917003601B710B820B55
:102F3000930B6D3271408105910598F080910201EB
:102F4000882309F458C00E947C11109202010E944B
:102F5000EA0360936D0370936E0380936F03909305
:102F6000700380918303823009F051C0CE01C19675
:102F70000E9487090EA9CE018B960E9487098FA512
:102F800010E08C3330F4CE0185960E94870919A594
:102F90001F5FCE014F960E948709FAA0CE01499685
:102FA0000E948709EB8CCE0143960E948709DC883A
:102FB000CE0101960E94870989818FABD8AEE9AE18
:102FC000FAAE1BAF0CAFCE01C7960E94DD080E947F
:102FD000EA0300917F0310918003209181033091D7
:102FE0008203601B710B820B930B61317742810569
:102FF000910508F5DBCE60E085E00E945D0A8AEC71
:1030000091E00E943E0B81E080930201A0CF8330CB
:1030100081F4CE01C1960E9487090EA9CE018B963C
:103020000E948709CE0185960E94870919A5115033
:10303000B0CF813029F410928A030E94900AB6CE54
:103040008430C9F3C4CF88E08093B00560E085EA9E
:1030500095E00E94CA0861E080E00E945D0A82EE6D
:1030600091E00E943E0B0E94EA03AB01BC018091FB
:10307000710390917203A0917303B0917403885708
:103080009C4EAF4FBF4F481759076A077B0708F49C
:103090008DCE0E940D0C8ACE0E9466028A3108F005
:1030A0005AC0883108F05BC0823009F490C0833088
:1030B00009F455C0813009F455C01438A1F4809149
:1030C0002F059091300590933305809332058091C0
:1030D0003105809334051092350510924A051092FF
:1030E0008A030E94900A0E945402812F8F778230B7
:1030F00009F470C0833009F46FC0113009F46EC058
:10310000143409F46DC010E08DEF810F823008F0A7
:10311000EEC00E946602882309F464C0143009F4EA
:1031200061C00E9454028111A0C082E080938A0392
:103130000E946602882309F439CE61E080E00E9493
:103140005D0A8EE780931E0510921F058EE195E0C3
:103150000E943E0B2BCE8B51843008F0AECF1092E4
:103160006C03ABCFCE0101960E9487098B8190E062
:103170009093A3048093A204CE0101960E94870934
:103180008A8190E09093A1048093A004CE010196DF
:103190000E948709898190E08053984F90939F0403
:1031A00080939E04CE0101960E9487098C8190E055
:1031B0009093FB048093FA04CE0101960E94870944
:1031C0008D8190E09093F9048093F80476CF8093FA
:1031D0006C0373CF11E098CF12E096CF13E094CF39
:1031E00014E092CF80914A0581111AC080912F0579
:1031F000909130059093330580933205809131058D
:10320000809334051092350584E00E94FF02892BDB
:1032100011F40E946A090E94900A10928A03C6CD96
:10322000815080934A0590E0DC01AA0FBB1FAA0FD2
:10323000BB1FA15DBA4F19962D913C911A973093FF
:10324000330520933205880F991F880F991FFC01C1
:10325000E95CFA4F80818093340517968C918093B6
:10326000350582E00E948212A1CD0E94540288237B
:1032700009F43BC05091350580913205909133059A
:1032800040914A054530E8F460913405242F30E040
:10329000D901AA0FBB1FAA0FBB1FA15DBA4F17967A
:1032A0005C931797220F331F220F331FF901E95C3C
:1032B000FA4F60831A969C938E9319974F5F4093B1
:1032C0004A05F6E05F9F800D911D1124FC013596A3
:1032D000E491E0933405FC013396859194919093A9
:1032E0003305809332051092350583E0BBCF113052
:1032F00051F480913505882309F458CD815080938D
:10330000350580E0AFCF123009F050CD8091350502
:10331000209134052150330B821713060CF046CD53
:103320008F5F8093350581E09DCF0E946602F82E65
:10333000EEEFE80FE03210F00C941A23F0E0ED55B8
:10334000F64E0C94B02DC3199E1A1A23251B541B3C
:10335000801BA81BD51B0C1C1A23201C4F1C1A23D6
:10336000671CC31C951CF11C1F1D471D811D4E228F
:103370001A23B61D6B1E1A23191FC71F7520212182
:103380001A23CF210C22123009F059C080916C030E
:10339000823061F58091A2049091A304019680325D
:1033A000910514F081E090E09093A3048093A2042F
:1033B00010E000E080918303843421F0002311F4B5
:1033C0000C948A2361E081E00E945D0A8F2D0E94A7
:1033D000690F0E94950B0E943E0B81E080938A0347
:1033E00061E080E00E945D0A80E2ACCE833089F427
:1033F0008091A0049091A10401968D30910514F064
:1034000081E090E09093A1048093A00410E000E09C
:10341000D1CF10E000E0843069F680919E04909155
:103420009F040196833028E0920714F084EE97E021
:1034300090939F0480939E0410E000E0BBCF133074
:1034400009F03FC080916C03823089F48091A2041E
:103450009091A30401971816190614F08FE190E0DB
:103460009093A3048093A20410E000E0A3CF8330E4
:1034700089F48091A0049091A1040197181619066F
:1034800014F08CE090E09093A1048093A00410E0ED
:1034900000E090CF10E000E0843009F08BCF809105
:1034A0009E0490919F040197823068E0960714F47F
:1034B00084EE97E090939F0480939E0410E000E0D8
:1034C00079CF113011F00C941E2380916C0382305F
:1034D00031F483E080936C0310E000E06BCF833025
:1034E00031F484E080936C0310E000E063CF10E0DF
:1034F00000E0843009F05ECF2091F8043091FA04A6
:103500004091A2045091A00480919E0490919F0448
:10351000803DE7E09E0710F0805D974089835A83E5
:103520004B833C832D831E82CE0101960E94DD08D1
:1035300081E08093020101E010E03CCF123049F5B8
:1035400000916C03011110C08091FA049091FB046A
:1035500001968831910514F090E080E09093FB048F
:103560008093FA0410E026CF013011F00C9422234E
:103570008091F8049091F90401968C33910514F030
:1035800090E080E09093F9048093F80410E000E06C
:1035900011CF133039F500916C0301110FC08091E8
:1035A000FA049091FB04019797FF02C087E190E035
:1035B0009093FB048093FA0410E0FCCE013011F0EC
:1035C0000C9426238091F8049091F904019797FFB9
:1035D00002C08BE390E09093F9048093F80410E02C
:1035E00000E0E8CE113011F00C942A2300916C0316
:1035F000011106C081E080936C0310E000E0DACE98
:10360000013011F00C942E232091F8043091FA042B
:103610004091A2045091A00480919E0490919F0437
:10362000803DF7E09F0710F0805D974089835A83C3
:103630004B833C832D831E82CE0101960E94DD08C0
:1036400081E08093020110E0B5CE812F8F77823028
:1036500089F48091B3049091B40401968831910566
:1036600014F090E080E09093B4048093B30411E0F0
:1036700000E0A0CE833081F48091B3049091B40433
:10368000019797FF02C087E190E09093B404809384
:10369000B30411E000E08ECE113009F0E3C70E94C0
:1036A000050C11E001E086CE812F8F77823089F4FE
:1036B0008091B5049091B60401968831910514F07B
:1036C00090E080E09093B6048093B50411E000E0B0
:1036D00071CE833081F48091B5049091B604019746
:1036E00097FF02C087E190E09093B6048093B50401
:1036F00011E000E05FCE113091F210E000E05ACE10
:10370000812F8F77823061F48091C0049091C10441
:1037100001969093C1048093C00411E000E04ACE6A
:10372000833081F48091C0049091C104019797FF88
:1037300002C084E690E09093C1048093C00411E03D
:1037400000E038CE113009F4AACF10E000E032CE0C
:10375000812F8F77823089F48091B7049091B804DB
:1037600001968D33910514F090E080E09093B804B9
:103770008093B70411E000E01DCE833081F4809186
:10378000B7049091B804019797FF02C08CE390E0D2
:103790009093B8048093B70411E000E00BCE113091
:1037A00009F47DCF10E000E005CE812F8F778230C5
:1037B00089F48091B9049091BA0401968F319105F2
:1037C00014F081E090E09093BA048093B90411E082
:1037D00000E0F0CD833089F48091B9049091BA046F
:1037E00001971816190614F08EE190E09093BA0430
:1037F0008093B90411E000E0DDCD113009F036C747
:103800000E94050C6091B9047091BA04772786E094
:103810000E94070501E0CECD8EEF810F823050F47B
:1038200081E09091BD04911180E08093BD0411E08E
:1038300000E0C0CD113009F432CF10E000E0BACD85
:10384000812F8F77823089F4809106019091070152
:1038500001968831910514F084E090E0909307017F
:103860008093060111E000E0A5CD833089F48091BA
:1038700006019091070101978430910514F487E1C6
:1038800090E0909307018093060111E000E092CD53
:1038900001E0113009F48ECD10E000E08BCD809175
:1038A0002F059091300590933305809332058091D8
:1038B0003105809334051092350510924A0584E055
:1038C00080938A030E94900A10E000E073CD812F5C
:1038D0008F77823089F48091CA049091CB0401964D
:1038E0008930910514F083E090E09093CB048093AD
:1038F000CA0411E000E05ECD833089F48091CA04EF
:103900009091CB0401978330910514F488E090E006
:103910009093CB048093CA0411E000E04BCD1130AA
:1039200009F4BDCE10E000E045CD812F8F778230C5
:1039300089F48091CE049091CF040196893091054D
:1039400014F083E090E09093CF048093CE0411E0D4
:1039500000E030CD833089F48091CE049091CF0483
:1039600001978330910514F488E090E09093CF04A0
:103970008093CE0411E000E01DCD113009F48FCE0C
:1039800010E000E017CD812F8F77823089F480918D
:10399000CC049091CD0401968930910514F083E018
:1039A00090E09093CD048093CC0411E000E002CD30
:1039B000833089F48091CC049091CD0401978330B9
:1039C000910514F488E090E09093CD048093CC04AA
:1039D00011E000E0EFCC113009F461CE10E000E01E
:1039E000E9CC812F8F77823089F48091D004909137
:1039F000D10401968930910514F083E090E0909312
:103A0000D1048093D00411E000E0D4CC833089F459
:103A10008091D0049091D10401978330910514F4E2
:103A200088E090E09093D1048093D00411E000E00E
:103A3000C1CC113009F433CE10E000E0BBCC812FB3
:103A40008F77823061F48091C2049091C304019613
:103A50009093C3048093C20411E000E0ABCC8330A8
:103A600081F48091C2049091C304019797FF02C032
:103A700084E690E09093C3048093C20411E000E0D8
:103A800099CC113009F40BCE10E000E093CC812FDB
:103A90008F778230A9F46091D2047091D3046F5F64
:103AA0007F4F6531710514F061E070E07093D304CD
:103AB0006093D20482E00E94730911E000E07ACCA6
:103AC0008330A9F46091D2047091D30461507109DC
:103AD0001616170614F064E170E07093D304609337
:103AE000D20482E00E94730911E000E063CC11303F
:103AF00009F0C0C50E946A090E94050C11E001E0AE
:103B000059CC812F8F778230A9F46091D4047091C1
:103B1000D5046F5F7F4F6531710514F061E070E08F
:103B20007093D5046093D40482E00E94730911E07D
:103B300000E040CC8330A9F46091D4047091D504A6
:103B4000615071091616170614F064E170E0709365
:103B5000D5046093D40482E00E94730911E000E070
:103B600029CC113039F210E000E024CC123009F0F9
:103B70004CC000916C03011122C08091D604909139
:103B8000D704A091D804B091D904AC01BD01445C24
:103B90005F4F6F4F7F4F77FD08C0403A25E05207D7
:103BA0006105710514F4DB01CA018093D60490937A
:103BB000D704A093D804B093D90410E0FBCB013014
:103BC00009F05CC58091D6049091D704A091D804E7
:103BD000B091D904AC01BD014F5F5F4F6F4F7F4F74
:103BE00077FD08C0403AE5E05E076105710514F411
:103BF000DB01CA018093D6049093D704A093D80424
:103C0000B093D90410E000E0D5CB812F8F778330BB
:103C100009F04CC000916C03011122C08091D604C0
:103C20009091D704A091D804B091D904AC01BD0102
:103C30004C5351096109710977FD08C0403AF5E01C
:103C40005F076105710514F4DB01CA018093D60496
:103C50009093D704A093D804B093D90410E0AACBD2
:103C6000013009F00FC58091D6049091D704A0913E
:103C7000D804B091D904AC01BD014150510961098A
:103C8000710977FD08C0403A25E0520761057105CA
:103C900014F4DB01CA018093D6049093D704A09357
:103CA000D804B093D90410E000E084CB113009F0BF
:103CB000EDC480916C03882309F49CCC10E000E0F3
:103CC000813009F077CB0E94050C81E080930201DE
:103CD00010E001E06FCB123009F04CC000916C0392
:103CE000011122C08091DA049091DB04A091DC04E0
:103CF000B091DD04AC01BD01445C5F4F6F4F7F4F5D
:103D000077FD08C0403AE5E05E076105710514F4EF
:103D1000DB01CA018093DA049093DB04A093DC04F6
:103D2000B093DD0410E046CB013009F0B3C48091BC
:103D3000DA049091DB04A091DC04B091DD04AC01C5
:103D4000BD014F5F5F4F6F4F7F4F77FD08C0403A17
:103D5000F5E05F076105710514F4DB01CA0180938A
:103D6000DA049093DB04A093DC04B093DD0410E04C
:103D700000E020CB812F8F77833009F04CC0009179
:103D80006C03011122C08091DA049091DB04A091B0
:103D9000DC04B091DD04AC01BD014C535109610953
:103DA000710977FD08C0403A25E0520761057105A9
:103DB00014F4DB01CA018093DA049093DB04A0932E
:103DC000DC04B093DD0410E0F5CA013009F066C4EC
:103DD0008091DA049091DB04A091DC04B091DD04C1
:103DE000AC01BD01415051096109710977FD08C05D
:103DF000403AE5E05E076105710514F4DB01CA0194
:103E00008093DA049093DB04A093DC04B093DD0488
:103E100010E000E0CFCA113009F044C480916C0377
:103E2000882309F4E7CB10E000E0813009F0C2CA32
:103E30004ACF123009F04CC000916C03011122C02E
:103E40008091E6049091E704A091E804B091E90420
:103E5000AC01BD01445C5F4F6F4F7F4F77FD08C0E1
:103E6000403AF5E05F076105710514F4DB01CA0112
:103E70008093E6049093E704A093E804B093E904E8
:103E800010E098CA013009F011C48091E6049091C5
:103E9000E704A091E804B091E904AC01BD014F5FD3
:103EA0005F4F6F4F7F4F77FD08C0403A25E05207C4
:103EB0006105710514F4DB01CA018093E604909357
:103EC000E704A093E804B093E90410E000E072CAAC
:103ED000812F8F77833009F04CC000916C03011162
:103EE00022C08091E6049091E704A091E804B0918B
:103EF000E904AC01BD014C5351096109710977FD19
:103F000008C0403AE5E05E076105710514F4DB0185
:103F1000CA018093E6049093E704A093E804B09369
:103F2000E90410E047CA013009F0C4C38091E604F7
:103F30009091E704A091E804B091E904AC01BD01BF
:103F4000415051096109710977FD08C0403AF5E017
:103F50005F076105710514F4DB01CA018093E60473
:103F60009093E704A093E804B093E90410E000E024
:103F700021CA113009F0A2C380916C03882309F48F
:103F800039CB10E000E0813009F014CA9CCE123029
:103F900009F04CC000916C03011122C08091EA0429
:103FA0009091EB04A091EC04B091ED04AC01BD0143
:103FB000445C5F4F6F4F7F4F77FD08C0403A25E06C
:103FC00052076105710514F4DB01CA018093EA040C
:103FD0009093EB04A093EC04B093ED0410E0EAC9D5
:103FE000013009F06FC38091EA049091EB04A09135
:103FF000EC04B091ED04AC01BD014B5F5F4F6F4F1E
:104000007F4F77FD08C0403AE5E05E076105710526
:1040100014F4DB01CA018093EA049093EB04A093AB
:10402000EC04B093ED0410E000E0C4C9812F8F7759
:10403000833009F04CC000916C03011122C08091C3
:10404000EA049091EB04A091EC04B091ED04AC0172
:10405000BD014C5351096109710977FD08C0403A0F
:10406000F5E05F076105710514F4DB01CA01809377
:10407000EA049093EB04A093EC04B093ED0410E0F9
:1040800099C9013009F022C38091EA049091EB04B0
:10409000A091EC04B091ED04AC01BD014550510973
:1040A0006109710977FD08C0403A25E052076105B2
:1040B000710514F4DB01CA018093EA049093EB04C8
:1040C000A093EC04B093ED0410E000E073C911304C
:1040D00009F000C380916C03882309F48BCA10E0B7
:1040E00000E0813009F066C9EECD123009F04CC015
:1040F00000916C03011122C08091EE049091EF04B5
:10410000A091F004B091F104AC01BD01445C5F4F9B
:104110006F4F7F4F77FD08C0403AE5E05E076105CD
:10412000710514F4DB01CA018093EE049093EF044F
:10413000A093F004B093F10410E03CC9013009F001
:10414000CDC28091EE049091EF04A091F004B09163
:10415000F104AC01BD014F5F5F4F6F4F7F4F77FDA3
:1041600008C0403AF5E05F076105710514F4DB0112
:10417000CA018093EE049093EF04A093F004B093EF
:10418000F10410E000E016C9133009F04CC00091B2
:104190006C03011122C08091EE049091EF04A09174
:1041A000F004B091F104AC01BD014C535109610917
:1041B000710977FD08C0403A25E052076105710595
:1041C00014F4DB01CA018093EE049093EF04A093F2
:1041D000F004B093F10410E0EDC8013009F082C2A0
:1041E0008091EE049091EF04A091F004B091F1045D
:1041F000AC01BD01415051096109710977FD08C049
:10420000403AE5E05E076105710514F4DB01CA017F
:104210008093EE049093EF04A093F004B093F10424
:1042200010E000E0C7C8113009F060C280916C0353
:10423000882309F4DFC910E000E0813009F0BAC832
:1042400042CD123009F04CC000916C03011122C024
:104250008091F2049091F304A091F404B091F504DC
:10426000AC01BD01445C5F4F6F4F7F4F77FD08C0CD
:10427000403AF5E05F076105710514F4DB01CA01FE
:104280008093F2049093F304A093F404B093F504A4
:1042900010E090C8013009F02DC28091F204909195
:1042A000F304A091F404B091F504AC01BD014B5F9F
:1042B0005F4F6F4F7F4F77FD08C0403A25E05207B0
:1042C0006105710514F4DB01CA018093F204909337
:1042D000F304A093F404B093F50410E000E06AC87E
:1042E000812F8F77833009F04CC000916C0301114E
:1042F00022C08091F2049091F304A091F404B09153
:10430000F504AC01BD014C5351096109710977FDF8
:1043100008C0403AE5E05E076105710514F4DB0171
:10432000CA018093F2049093F304A093F404B09331
:10433000F50410E03FC8013009F0E0C18091F204BB
:104340009091F304A091F404B091F504AC01BD0187
:10435000455051096109710977FD08C0403AF5E0FF
:104360005F076105710514F4DB01CA018093F20453
:104370009093F304A093F404B093F50410E000E0EC
:1043800019C8113009F0BEC180916C03882309F46B
:1043900031C910E000E0813009F00CC894CC812FC5
:1043A0008F77823091F48091F6049091F704019612
:1043B0008730910514F090E080E09093F7048093AB
:1043C000F60411E000E00C94DA19833089F480914E
:1043D000F6049091F704019797FF02C086E090E001
:1043E0009093F7048093F60411E000E00C94DA193E
:1043F000113049F46091F6046F5F8AE00E947309FE
:1044000000E00C94DA19143009F080C10E946A09A6
:1044100011E000E00C94DA19812F8F77823091F44B
:10442000809104019091050101968C30910514F062
:1044300090E080E0909305018093040111E000E09A
:104440000C94DA19833089F480910401909105016C
:10445000019797FF02C08BE090E090930501809355
:10446000040111E000E00C94DA19113081F40E948B
:10447000262C24E130E040E050E00E94E22C8091C4
:104480000401855F0E94730900E00C94DA1914306E
:1044900009F4BCCF10E000E00C94DA19113809F0EF
:1044A000C2C06AE271E084EA94E00E94BC2F84E614
:1044B00090E09093C1048093C00485E090E09093D5
:1044C000B4048093B30486E190E09093B6048093A3
:1044D000B50484E190E09093B8048093B7048EE033
:1044E00090E09093BA048093B90421E030E03093D7
:1044F000BF042093BE048AE090E09093C3048093AD
:10450000C2043093C5042093C40483E090E09093E8
:10451000CB048093CA049093CD048093CC049093F1
:10452000D1048093D0049093CF048093CE04309331
:10453000D3042093D20482E090E09093D50480933A
:10454000D40487E394E0A0E0B0E08093D604909395
:10455000D704A093D804B093D90487E691E0A0E0F3
:10456000B0E08093DA049093DB04A093DC04B09372
:10457000DD041092DE041092DF041092E004109229
:10458000E1041092E2041092E3041092E404109209
:10459000E5048CE291E0A0E0B0E08093E604909323
:1045A000E704A093E804B093E90483E790E0A0E077
:1045B000B0E08093EA049093EB04A093EC04B093F2
:1045C000ED044CEF53E060E070E04093EE04509354
:1045D000EF046093F0047093F1048093F2049093DD
:1045E000F304A093F404B093F5041092BB0410926A
:1045F000BC041092BD048EEA90E09093C9048093AD
:10460000C80486EE97E09093C7048093C60461E0E7
:1046100081E00E945D0A83EF91E00E943E0B10E072
:1046200000E00C94DA1901E0113C09F000E010E020
:104630000C94DA1910E000E00C94DA1910E000E0B4
:104640000C94DA1910E000E00C94DA1910E000E0A4
:104650000C94DA1910E000E00C94DA1910E000E094
:104660000C94DA1910E000E00C94DA1910E000E084
:104670000C94DA1910E000E00C94DA1910E000E074
:104680000C94DA1910E000E00C94DA1910E000E064
:104690000C94DA1910E000E00C94DA1910E000E054
:1046A0000C94DA1910E000E00C94DA1910E000E044
:1046B0000C94DA1910E000E00C94DA1910E000E034
:1046C0000C94DA1910E000E00C94DA1910E000E024
:1046D0000C94DA1910E000E00C94DA1910E000E014
:1046E0000C94DA1910E000E00C94DA1910E000E004
:1046F0000C94DA1910E000E00C94DA1910E000E0F4
:104700000C94DA1910E000E00C94DA1910E000E0E3
:104710000C94DA19112359F061E081E00E945D0ADE
:104720008F2D0E94690F0E94950B0C94A8180E946F
:10473000EA0300916D0310916E0320916F03309195
:104740007003601B710B820B930B6D3271408105FE
:10475000910510F40C94D616809102018823C9F0BB
:1047600061E081E00E945D0A8F2D0E94690F0E9426
:10477000950B0E943E0B109202010E94EA03609387
:104780006D0370936E0380936F03909370030C948A
:10479000D61663E0F61641F088EE8F0D823020F0D9
:1047A00085EE8F0D8430A8F480916C0381110CC0CC
:1047B00061E081E00E945D0A84EF92E00E94240B98
:1047C00081E080930201D9CF8130B1F761E084E0CC
:1047D000F1CF82E0F812D1CF80916C03823039F4AE
:1047E00061E081E00E945D0A81EF92E0E7CF8330D3
:1047F00019F461E084E0F6CF8430B1F761E089E03C
:10480000F1CF60E080E00E945D0A88E093E00E94C2
:10481000240B61E080E00E945D0AE0900601F090C8
:1048200007016BE971E09CE0E916F10414F462EA17
:1048300071E0CE0149960E94C60DEDE0EE16F1043E
:104840001CF0FCE0EF1AF1081C8A1B8A1E8A1D8AE4
:10485000188E1F8A4AE08E010F5F1F4FB801C701F3
:104860000E94852CF80101900020E9F731977F0123
:10487000E01AF10AB701CE0143960E94590D811149
:1048800060C0CE0143960E94810D63E072E0C801D2
:104890000E94C60DBE016D5E7F4FC8010E94930D40
:1048A000BE01675E7F4F0E94930DFC0144815581DC
:1048B0006081718185EA95E00E94A902C8010E9489
:1048C000F70DCE0143960E94F70DCE0149960E9446
:1048D000F70D61E08CE00E94280368EE73E080E051
:1048E00090E00E94B703F0900601CE0149960E9425
:1048F0008709EB8CCE0143960E948709DC88C801AA
:104900000E948709898180939F05D092A005E0923B
:10491000A105F092A2051092A3051092A4050E9491
:104920000D0C80918303833011F00C94D61689E02E
:104930008093030170E060E086E10E9407050C941B
:10494000D616F88EEF8AB8018B899C890E94BC2FFD
:104950009CCF61E08CE00E94280361E08AE00E9425
:1049600028030E94EA0300916D0310916E032091C9
:104970006F0330917003601B710B820B930B693EC8
:1049800073408105910570F10E94EA0360936D0305
:1049900070936E0380936F03909370030E947C1159
:1049A000CE0143960E9487098E892CE3829F800165
:1049B0001124CE0101960E9487098D81800F912FCD
:1049C000911D092E000CAA0BBB0B809386039093BC
:1049D0008703A0938803B09389038091BB0481115E
:1049E0000E949B0A0E94EA03009123041091240470
:1049F00020912504309126046B017C01C01AD10A54
:104A0000E20AF30AA091B704B091B80428EE33E0AB
:104A10000E94B62D6C157D058E059F0538F4109209
:104A2000B00560E085EA95E00E94CA0861E080E098
:104A30000E945D0A87EF92E00E94240B809183031D
:104A4000853811F00C94D61680917E0381110C9458
:104A5000D61610928A0310928503109284030C9448
:104A6000A4161F920F920FB60F9211242F933F930B
:104A70008F939F93AF93BF938091170490911804E5
:104A8000A0911904B0911A043091160423E0230F69
:104A90002D3758F50196A11DB11D20931604809362
:104AA000170490931804A0931904B0931A048091EA
:104AB0001B0490911C04A0911D04B0911E0401964A
:104AC000A11DB11D80931B0490931C04A0931D0491
:104AD000B0931E04BF91AF919F918F913F912F9101
:104AE0000F900FBE0F901F90189526E8230F029687
:104AF000A11DB11DD2CF1F920F920FB60F9211249C
:104B00002F933F934F935F936F937F938F939F93D5
:104B1000AF93BF93EF93FF93E0912104F0912204B0
:104B2000309749F0A685B7858585968D91FF14C08D
:104B30009C918923A1F4FF91EF91BF91AF919F9137
:104B40008F917F916F915F914F913F912F910F9036
:104B50000FBE0F901F9018959C91892361F7A38930
:104B6000B4899C918589809589238C9386899789BE
:104B70000197F1F7608D718DA685B785558538E071
:104B800020E0CB010197F1F7822F90E09595879572
:104B9000282F4C91452309F02068315091F7868DDC
:104BA00081FD20958091200490E001968F739927D4
:104BB00030911F04381799F0A0912004B0E0AA5258
:104BC000BC4F2C9380932004828D938D0197F1F735
:104BD000A389B4898C919589892B8C93ACCF868DD0
:104BE0008160868FF1CF1F920F920FB60F92112422
:104BF0002F933F934F935F936F937F938F939F93E5
:104C0000AF93BF93EF93FF938091B900887F803675
:104C100009F44AC0F0F5883209F4A7C018F58031CC
:104C200009F49BC0B8F4882309F4F9C0883009F46A
:104C300094C0FF91EF91BF91AF919F918F917F9120
:104C40006F915F914F913F912F910F900FBE0F90F9
:104C50001F901895883109F488C0803251F78093ED
:104C6000720414C0803409F49DC040F48033B9F359
:104C70008833F9F68093720485ECB0C0803509F46E
:104C800085C0883509F496C0883499F60E94FF0DD6
:104C9000D0CF883909F48CC038F5883729F050F422
:104CA000883611F0803729F683E0809374041092DF
:104CB000D50357C0883809F47BC0803919F0803893
:104CC00009F0B7CF8091D503803208F071C0E09130
:104CD000D50381E08E0F8093D5038091BB00F0E077
:104CE000EB54FC4F80833DC0803B39F0E0F4803AC8
:104CF00009F479C0883A09F09CCF84E08093740469
:104D00001092B4031092B303E0912A04F0912B04A3
:104D100009958091B30381110FC081E08093B303A3
:104D20001092930309C0803C09F4A6CF883C09F493
:104D3000A3CF883B09F07DCFE091B40381E08E0FD3
:104D40008093B403F0E0ED56FC4F80818093BB006C
:104D50009091B4038091B30329C080914F04809354
:104D6000BB0085EC8093BC0064CF9091710480916E
:104D70007004981758F5E091710481E08E0F8093CC
:104D80007104F0E0E05BFB4F8081E9CFE0917104BA
:104D900081E08E0F809371048091BB00F0E0E05BB6
:104DA000FB4F808390917104809170049817C8F232
:104DB00085E8D8CFE091710481E08E0F8093710473
:104DC0008091BB00F0E0E05BFB4F80838091730437
:104DD00081115CCF81E080934E0484EA8093BC0013
:104DE0001092740426CF85EC8093BC00109274045A
:104DF0008091D503803230F4E091D503F0E0EB549C
:104E0000FC4F10826091D50370E0E0912804F0918E
:104E1000290485EB93E009951092D5030ACF1092EF
:104E2000720434CF10924E0510924D0588EE93E037
:104E3000A0E0B0E080934F0590935005A0935105FA
:104E4000B093520529E631E030934C0520934B0591
:104E50001092DA051092D9058093DB059093DC055A
:104E6000A093DD05B093DE0587E891E09093D80527
:104E70008093D7051092EE051092ED051092F00583
:104E80001092EF051092F2051092F1051092F405C0
:104E90001092F3056091F5056E7F6D7F6093F505C7
:104EA0006695617081E0682783E00E94280361E0D5
:104EB00083E00E945603EFE3F4E0E491E093E7051A
:104EC000EBE2F4E0E491F0E0EE0FFF1FE25EFB4F57
:104ED000859194919093E9058093E80560E082E0E4
:104EE0000E9456038091F50581FD04C061E082E0D7
:104EF0000E94280382E08093E305EEE3F4E0E4916E
:104F0000E093E405EAE2F4E0E491F0E0EE0FFF1F45
:104F1000EC5EFB4F259134913093E6052093E50537
:104F200044EF51E060E070E04093B7055093B8055E
:104F30006093B9057093BA059AE0EAE1F1E0A5EC57
:104F4000B5E001900D929A95E1F71092CF0580930C
:104F5000D0051092D5051092D6051092A805109292
:104F6000A7052BE731E03093A6052093A50597E22E
:104F70009093A90590E19093AE058093AF051092B0
:104F8000B0051092A4051092A3051092A2051092EC
:104F90009F05E9E0F4E081E08C3051F0949182309B
:104FA00009F49F5F21E0280F3196992309F44DC041
:104FB0008093A00581E08093A10560E172E087E520
:104FC00095E00E94C60D64E172E08DE595E00E94D7
:104FD000C60D68E172E083E695E00E94C60D6CE1C3
:104FE00072E089E695E00E94C60D60E272E08FE60D
:104FF00095E00E94C60D64E272E085E795E00E94AC
:10500000C60D68E272E08BE795E00E94C60D6CE287
:1050100072E081E895E00E94C60D60E372E087E8E7
:1050200095E00E94C60D64E372E08DE895E00E9471
:10503000C60D68E372E083E995E00E94C60D6CE35B
:1050400072E089E995E00C94C60D822FA5CFCF932D
:10505000DF9300D000D01F92CDB7DEB7789484B52F
:10506000826084BD84B5816084BD85B5826085BD64
:1050700085B5816085BD80916E00816080936E00F2
:1050800010928100809181008260809381008091E4
:105090008100816080938100809180008160809395
:1050A00080008091B10084608093B1008091B00055
:1050B00081608093B00080917A00846080937A0050
:1050C00080917A00826080937A0080917A0081607A
:1050D00080937A0080917A00806880937A001092A1
:1050E000C10061E08CE00E94560361E08AE00E940A
:1050F000560361E08FE00E94560361E08EE00E945B
:10510000560361E08BE00E94560362E084E00E9457
:10511000560362E085E00E94560362E086E00E944A
:10512000560362E087E00E94560362E088E00E9436
:10513000560362E080E10E9456030E94570642E552
:1051400050E070E060E084EA94E00E94BA2C6AE2E9
:1051500071E084EA94E00E94B32F892B09F4B6C071
:105160006AE271E084EA94E00E94BC2F84E690E059
:105170009093C1048093C00485E090E09093B404C0
:105180008093B30486E190E09093B6048093B504D5
:1051900084E190E09093B8048093B7048EE090E0AF
:1051A0009093BA048093B90421E030E03093BF04B7
:1051B0002093BE048AE090E09093C3048093C204DD
:1051C0003093C5042093C40483E090E09093CB0413
:1051D0008093CA049093CD048093CC049093D1041F
:1051E0008093D0049093CF048093CE043093D30463
:1051F0002093D20482E090E09093D5048093D4046D
:1052000087E394E0A0E0B0E08093D6049093D704C5
:10521000A093D804B093D90487E691E0A0E0B0E071
:105220008093DA049093DB04A093DC04B093DD0454
:105230001092DE041092DF041092E0041092E10458
:105240001092E2041092E3041092E4041092E50438
:105250008CE291E0A0E0B0E08093E6049093E70454
:10526000A093E804B093E90483E790E0A0E0B0E005
:105270008093EA049093EB04A093EC04B093ED04C4
:105280004CEF53E060E070E04093EE045093EF0485
:105290006093F0047093F1048093F2049093F3040C
:1052A000A093F404B093F5041092BB041092BC04D4
:1052B0001092BD048EEA90E09093C9048093C804D4
:1052C00086EE97E09093C7048093C6040E94570629
:1052D0001092AA058091AF05823018F098E0909363
:1052E000AA058093AD0562E370E080E090E00E9443
:1052F000B7036091B00585EA95E00E94CA0868EEA0
:1053000073E080E090E00E94B70360E385EA95E0F7
:105310000E942D0A0BE416E4C8010197F1F760E33F
:1053200085EA95E00E942D0AC8010197F1F760E334
:1053300085EA95E00E942D0A83E592E00197F1F756
:1053400060E285EA95E00E942D0A6091AA056062FC
:1053500040E085EA95E00E94460A84E08093AB0530
:1053600040E06CE085EA95E00E94460A0E94900ABF
:1053700082E08093AC0540E066E085EA95E00E941B
:10538000460A40E062E085EA95E00E94460A8BE327
:105390009FE10197F1F788E08093B00560E085EA2E
:1053A00095E00E94CA0860E085E00E945D0A83E003
:1053B00094E00E94240B61E080E00E945D0A82EF8D
:1053C00093E00E94240B60ED77E080E090E00E9483
:1053D000B7030E94900A60E080E00E945D0A84EEBC
:1053E00093E00E94240B61E080E00E945D0A6091DE
:1053F000C8047091C904CE0101960E94500B80E44C
:1054000092E09F938F9311E01F938EE195E09F931D
:105410008F930E94370E0E943E0B60ED77E080E094
:1054200090E00E94B7030E94900A60E083E00E942F
:105430005D0A8AE492E00E943E0B85E00E94FF0232
:105440000F900F900F900F900F90892B09F004C1CF
:1054500061E080E00E945D0A85E592E00E943E0BDB
:105460001093270411E008E60E94570610937A046F
:1054700000939C0410927B0410929D040E948F065E
:105480008111EDC010937A0410927B0410929D0458
:1054900060E08BE495E00E949B080E948F0661E02B
:1054A00088E60E94760710922D0480932C048BE4EA
:1054B00095E00E94540887FF0EC00E94900A86ED76
:1054C00093E00E94240B60ED77E080E090E00E9482
:1054D000B7031093270488E00E94FF02892B09F488
:1054E0000AC11092F2051092F1051092F005109287
:1054F000EF051092EE051092ED058DE991E0909385
:10550000F4058093F3059091E305963108F047C0C8
:105510002DEB30E03093EE052093ED052BE931E0E3
:105520003093F0052093EF052CE231E03093F20543
:105530002093F1052091680084E0983048F031E034
:105540009E3008F430E081E001C0880F3A95EAF718
:10555000822B809368002DE630E0983050F02BE6E7
:1055600030E09E3030F02CE630E0963110F030E044
:1055700020E03093EB052093EA05292F30E09830A6
:1055800008F074C081E001C0880F9A95EAF7809313
:10559000EC058091F3059091F4050197F1F7809166
:1055A000F1059091F205892B49F1E0912104F091E8
:1055B000220425E0E73DF20709F1309739F0A3898D
:1055C000B4899C918589809589238C938091F50578
:1055D0008E7F8093F5051092200410921F0487EDB2
:1055E00095E09093220480932104E091EA05F091E4
:1055F000EB0580819091EC05892B808364EF71E04D
:1056000080E090E00E94B70307ED15E0BB24B3945F
:105610001093B2050093B105B092C90570E060E047
:105620008CE00E9407050E94EA036B017C010E9446
:10563000F603811128C00E94EA036C197D098E09C6
:105640009F09613D774081059105E8F460E070E0D5
:10565000CB010E94B703EBCF1092270403CF0E9427
:10566000900A8DED93E00E94240BFECE9E3040F414
:105670002850310981E001C0880F2A95EAF787CFC9
:105680002E503109F7CF68EC70E080E090E00E9486
:10569000B7031092D5058091D105843069F0893027
:1056A00059F00E94900A60E080E00E945D0A8FEC51
:1056B00093E00E94240BACCF84EF91E0A0E0B0E037
:1056C0008093B7059093B805A093B905B093BA0538
:1056D0006091B9047091BA04772786E00E940705AB
:1056E00062E070E089E00E94070568EC70E080E00D
:1056F00090E00E94B7030E94900A0E94EA03609320
:1057000023047093240480932504909326048091AD
:1057100027048823E9F02BEA33E030933005209307
:105720002F0586E0809331053093330520933205B1
:10573000809334051092350510924A0500E010E080
:105740000E94FA1201151105D9F30E940000F8CF4A
:105750002DE833E03093300520932F0585E0E2CF2C
:10576000CF93DF93CFE9D5E02697CE010E94F70DC6
:1057700025E0C735D207C1F787E891E09093D805B7
:105780008093D7058091210490912204875D9540F4
:1057900071F4E091EA05F091EB0590818091EC05C0
:1057A0008095892380831092220410922104DF9136
:1057B000CF9108958F929F92AF92BF92CF92DF9236
:1057C000EF92FF92CF93DF93EC01688179818A8118
:1057D0009B81611571058105910521F464E279EDE4
:1057E0008BE597E02DE133EF41E050E00E94E22CA1
:1057F00049015A019B01AC01A7EAB1E40E94012DC5
:105800006B017C01ACEEB4EFA50194010E940F2D59
:10581000C60ED71EE81EF91EF7FE06C081E0C81AA4
:10582000D108E10880E8F80AC882D982EA82FB82BE
:10583000C701B6019F77DF91CF91FF90EF90DF9086
:10584000CF90BF90AF909F908F9008958F929F922E
:10585000AF92BF92CF92DF92EF92FF9260910801D8
:105860007091090180910A0190910B0161157105F8
:105870008105910521F464E279ED8BE597E02DE156
:1058800033EF41E050E00E94E22C49015A019B01B4
:10589000AC01A7EAB1E40E94012D6B017C01ACEEE2
:1058A000B4EFA50194010E940F2DC60ED71EE81E6D
:1058B000F91EF7FE06C081E0C81AD108E10880E8A9
:1058C000F80AC0920801D0920901E0920A01F09210
:1058D0000B01C701B6019F77FF90EF90DF90CF904B
:1058E000BF90AF909F908F90089560930801709340
:1058F000090180930A0190930B010895FB01DC01DB
:1059000005900D920020E1F70895BB274A3031F44D
:10591000992322F4BDE2909581959F4F0C94912C90
:10592000BB27FB015527AA27880F991FAA1FA41779
:1059300010F0A41B83955051B9F7A05DAA3308F06D
:10594000A95DA193009779F7B111B1931192CB01A1
:105950000C94AA2CDC01FC01672F71917723E1F7ED
:10596000329704C07C916D9370836291AE17BF072C
:10597000C8F30895DC01CB01FC01F999FECF06C004
:10598000F2BDE1BDF89A319600B40D9241505040FD
:10599000B8F70895DC01CB0103C02D910E94D52CEE
:1059A00041505040D0F70895262FF999FECF1FBAE5
:1059B00092BD81BD20BD0FB6F894FA9AF99A0FBE38
:1059C00001960895052E97FB1EF400940E94F92C71
:1059D00057FD07D00E944B2D07FC03D04EF40C94CA
:1059E000F92C50954095309521953F4F4F4F5F4F83
:1059F000089590958095709561957F4F8F4F9F4F3B
:105A000008950E946D2DA59F900DB49F900DA49FA9
:105A1000800D911D11240895B7FF0C94012D0E9453
:105A2000012D821B930B08952F923F924F925F920C
:105A30006F927F928F929F92AF92BF92CF92DF929E
:105A4000EF92FF920F931F93CF93DF93CDB7DEB703
:105A5000CA1BDB0B0FB6F894DEBF0FBECDBF099497
:105A60002A88398848885F846E847D848C849B84EE
:105A7000AA84B984C884DF80EE80FD800C811B81FC
:105A8000AA81B981CE0FD11D0FB6F894DEBF0FBE2B
:105A9000CDBFED010895A1E21A2EAA1BBB1BFD018B
:105AA0000DC0AA1FBB1FEE1FFF1FA217B307E407FD
:105AB000F50720F0A21BB30BE40BF50B661F771F55
:105AC000881F991F1A9469F7609570958095909535
:105AD0009B01AC01BD01CF010895A29FB001B39F0E
