:100000000C947E000C94A6000C94A6000C94DD09C0
:100010000C94DD090C94DD090C94A6000C94A60048
:100020000C94A6000C94A6000C94A6000C94A600B8
:100030000C94A6000C94A6000C94A6000C94A600A8
:100040000C9474080C94A6000C9442080C941C08A0
:100050000C94A6000C94A6000C94A6000C94A60088
:100060000C94BE080C94A600000000002400270099
:100070002A0000000008000201000003040700003D
:10008000000000000000204155544F204D4F4445D2
:10009000204F464600204155544F204D4F444520A7
:1000A0004F4E0054414E4B20554E4954204552521C
:1000B0000053454E534F522045525200000000005D
:1000C00023002600290000000000250028002B0046
:1000D00004040404040404040202020202020303EE
:1000E00003030303010204081020408001020408F6
:1000F0001020010204081020550A6A1211241FBEA4
:10010000CFEFD8E0DEBFCDBF24E0A4E4B2E001C071
:100110001D92AC36B207E1F712E0A0E0B1E0EEEAE2
:10012000FAE202C005900D92A434B107D9F710E0AD
:10013000CDE7D0E004C02197FE010E943E13CC37EA
:10014000D107C9F70E94640B0C944A150C94000067
:1001500008950895DB0114964D915C9115976D916A
:100160007C91DC01ED91FC910280F381E02D0994FA
:10017000AF92BF92CF92DF92EF92FF920F931F93B5
:10018000CF93DF936C017B018B01040F151FEB01F3
:100190005E01AE18BF08C017D10759F06991D601AA
:1001A000ED91FC910190F081E02DC6010995892B1C
:1001B00079F7C501DF91CF911F910F91FF90EF90DB
:1001C000DF90CF90BF90AF900895FC01538D448D88
:1001D000252F30E0842F90E0821B930B541710F0F2
:1001E000CF96089501970895FC01918D828D9817FF
:1001F00061F0A28DAE0FBF2FB11D5D968C91928DD7
:100200009F5F9F73928F90E008958FEF9FEF089507
:10021000FC01918D828D981731F0828DE80FF11DD0
:10022000858D90E008958FEF9FEF0895FC01918DEB
:10023000228D892F90E0805C9F4F821B91098F73E4
:10024000992708958EE693E00E94160121E0892BFC
:1002500009F420E0822F089580E090E0892B29F0B6
:100260000E94220181110C9400000895FC01A48DCC
:10027000A80FB92FB11DA35ABF4F2C91848D90E0C8
:1002800001968F739927848FA689B7892C93A089AB
:10029000B1898C91837080648C93938D848D981335
:1002A00006C00288F389E02D80818F7D80830895C8
:1002B000EF92FF920F931F93CF93DF93EC0181E0B6
:1002C000888F9B8D8C8D98131AC0E889F98980815D
:1002D00085FF15C09FB7F894EE89FF896083E88990
:1002E000F98980818370806480839FBF81E090E082
:1002F000DF91CF911F910F91FF90EF900895F62E0F
:100300000B8D10E00F5F1F4F0F731127E02E8C8DA8
:100310008E110CC00FB607FCFACFE889F9898081ED
:1003200085FFF5CFCE010E943601F1CFEB8DEC0FAA
:10033000FD2FF11DE35AFF4FF0829FB7F8940B8F0A
:10034000EA89FB8980818062CFCFCF93DF93EC0174
:10035000888D8823B9F0AA89BB89E889F9898C91AD
:1003600085FD03C0808186FD0DC00FB607FCF7CF69
:100370008C9185FFF2CF808185FFEDCFCE010E9469
:100380003601E9CFDF91CF910895833081F028F4D1
:10039000813099F08230A9F008958730A9F0883033
:1003A000C9F08430B1F4809180008F7D03C08091CA
:1003B00080008F7780938000089584B58F7784BD07
:1003C000089584B58F7DFBCF8091B0008F778093A7
:1003D000B00008958091B0008F7DF9CFCF93DF9367
:1003E000282F30E0F901EE58FF4F8491F901EC51CC
:1003F000FF4FD491F901E053FF4FC491CC23A1F0FA
:1004000081110E94C501EC2FF0E0EE0FFF1FE454B4
:10041000FF4FA591B491EC91ED2381E090E009F4B8
:1004200080E0DF91CF91089580E090E0FACF1F93B4
:10043000CF93DF93282F30E0F901EE58FF4F8491DE
:10044000F901EC51FF4FD491F901E053FF4FC491F2
:10045000CC23A9F0162F81110E94C501EC2FF0E0EA
:10046000EE0FFF1FEA53FF4FA591B4918FB7F89499
:10047000EC91111108C0D095DE23DC938FBFDF9182
:10048000CF911F910895DE2BF8CFCF93DF9390E0AB
:10049000FC01EC51FF4F249180539F4FFC0184914C
:1004A0008823C9F090E0880F991FFC01E859FF4F9D
:1004B000A591B491FC01EA53FF4FC591D49161110C
:1004C0000DC09FB7F8948C91209582238C938881DE
:1004D000282328839FBFDF91CF910895623051F484
:1004E0009FB7F8943C91822F809583238C93E88169
:1004F0002E2BEFCF8FB7F894EC912E2B2C938FBF30
:10050000EACF3FB7F89480913B0390913C03A091D0
:100510003D03B0913E0326B5A89B05C02F3F19F0BF
:100520000196A11DB11D3FBFBA2FA92F982F882773
:10053000BC01CD01620F711D811D911D42E0660F4E
:10054000771F881F991F4A95D1F708958F929F9220
:10055000AF92BF92CF92DF92EF92FF924B015C017C
:100560000E9481026B017C010E9481026C197D094D
:100570008E099F09683E734081059105A8F321E02B
:10058000821A9108A108B10888EEC80E83E0D81E2F
:10059000E11CF11C81149104A104B10429F7FF901E
:1005A000EF90DF90CF90BF90AF909F908F90089585
:1005B0002FB7F89460913703709138038091390315
:1005C00090913A032FBF089508952091C502260FF8
:1005D0003327331F21323105ECF420910E03FC0147
:1005E00090E080E0243069F082E00895A091C50297
:1005F0002191AC014B555D4FA40FB52FB11D2C932C
:100600000196861798F38091C502680F6093C50222
:1006100080E0089581E0089510920E0381E08093B8
:100620000D031092E80261E082E10E94170261E08E
:1006300083E10E941702E9EBF0E080818E7F8083E6
:1006400080818D7F808388E48093B80085E48093E7
:10065000BC000895CF93DF9391E09093A402882388
:10066000B9F0C091B800D091BA008091BC008A7BEB
:100670008093BC0060E082E10E94170260E083E1A9
:100680000E9417020E940C03D093BA00C093B800D6
:10069000DF91CF9108950895E0914A038091490335
:1006A000E81730F4F0E0EC57FD4F808190E00895BA
:1006B0008FEF9FEF089590914A03809149032FEFA8
:1006C0003FEF981748F4E92FF0E0EC57FD4F2081F9
:1006D00030E09F5F90934A03C901089580914903D8
:1006E00090914A03891B990B0895CF92DF92EF9264
:1006F000FF920F931F93CF93DF937C01CB018A016D
:1007000020911403222389F0EB016B01C40ED51E46
:10071000CC15DD0569F06991D701ED91FC9101904F
:10072000F081E02DC7010995F3CF642F0E94E50207
:10073000C801DF91CF911F910F91FF90EF90DF9053
:10074000CF900895CF93DF931F92CDB7DEB7698323
:10075000209114032223F9F020914703203258F00E
:1007600021E030E0FC013383228390E080E00F90B1
:10077000DF91CF91089580914803E82FF0E0EB5E80
:10078000FC4F998190838F5F809348038093470348
:1007900081E090E0ECCF61E0CE0101960E94E5029D
:1007A000F7CFCF92DF92EF92FF920F931F93CF93E9
:1007B000DF93FC01C48121E020931403C09335032F
:1007C00010924803109247038385682B8BE094E0D6
:1007D0000E94A203D0914703D13208F092C00E9438
:1007E00081026B017C0180910E03811165C082E062
:1007F00080930E0381E080930D038FEF80930C03B1
:1008000010920B03D0930A03A5E1B3E0EAEEF2E005
:1008100080E0D81385C01092E9028091E902CC0FE4
:10082000C82BC093E9028091E802813009F07CC0B6
:100830001092E8020E9481026B017C018091E90222
:100840008093BB008091100390911103A09112033B
:10085000B0911303892B8A2B8B2B99F00E94810274
:100860000091100310911103209112033091130392
:100870006C197D098E099F09061717072807390784
:10088000E0F18091BC0083FDD9CF85EC8093BC0062
:100890000E9481026B017C0180910E03823009F479
:1008A00045C080910C038F3F61F180910C03803231
:1008B00041F180910C0325C08091100390911103A8
:1008C000A0911203B0911303892B8A2B8B2B09F46F
:1008D0008ACF0E9481020091100310911103209190
:1008E0001203309113036C197D098E099F090617B5
:1008F00017072807390708F076CF80910F030E9469
:100900002A03109248031092470310921403DF91B8
:10091000CF911F910F91FF90EF90DF90CF900895AE
:100920009D9191938F5F75CF85EEB0CF809110032D
:1009300090911103A0911203B0911303892B8A2B7C
:100940008B2B09F4A9CF0E94810200911003109112
:10095000110320911203309113036C197D098E0944
:100960009F09061717072807390708F095CFC5CF45
:1009700020914103309142032817390771F4909177
:100980003F0380914003981741F0E0913F03F0E06E
:10099000EC5BFD4F808190E008958FEF9FEF08950D
:1009A000EF92FF920F931F93CF93DF93DC015C963E
:1009B000ED90FC905D97E114F10479F481E090E012
:1009C00013969C938E93129790E080E0DF91CF91E5
:1009D0001F910F91FF90EF9008955196ED91FC912A
:1009E000529750968C915097982F90950FB75E968E
:1009F0002C915E97122F127021FD6095F894208142
:100A0000112319F1282B2083E7012197F1F728E022
:100A1000462F50E0308160FF1AC0382B3083E70149
:100A20002197F1F7BA0175956795215089F7112340
:100A300081F08081892380830FBF5C968D919C918A
:100A40000197F1F781E090E0C1CF2923DCCF392372
:100A5000E5CF9081892BEFCF209141033091420364
:100A60002817390771F48091400320913F0390E0EB
:100A7000805C9F4F821B910960E470E00E94081324
:100A8000089590E080E00895209141033091420361
:100A900028173907B9F490913F03809140039817C4
:100AA00089F0E0913F03F0E0EC5BFD4F8081209105
:100AB0003F0330E02F5F3F4F2F73332720933F03D7
:100AC00090E008958FEF9FEF089590E080E0089503
:100AD0000F931F93CF93DF93EC0188810E94EE0167
:100AE0002C81892B41F5211108C081E08C830E9463
:100AF000D8026E837F83888799870E94D8020E81EF
:100B00001F8128853985601B710B820B930B0A8529
:100B10001B852C853D85061717072807390730F4F4
:100B20008D81811103C081E08D838A83DF91CF9114
:100B30001F910F9108952223C9F38D81882319F005
:100B40001D821C82F3CF81E08B83FBCF0F931F9319
:100B5000CF938C01C62F0E94D1036C2F6460C80113
:100B60000E94D1036C2F6B7FC8010E94D10383ECDC
:100B700090E00197F1F7CF911F910F9108950F9396
:100B80001F93CF93DF938C01D62FC42F607F642BEC
:100B90000E94A60580E1D89FB00111246C2BC801EA
:100BA000DF91CF911F910F910C94A60540E061E079
:100BB0008DE394E00E94BF058BE39FE10197F1F77D
:100BC000089541E00E94BF0581E090E008950F93F1
:100BD0001F93CF93DF938C01D0E0C0E0F801EC0FBE
:100BE000FD1F6491662339F041E08DE394E00E949B
:100BF000BF052196F3CFCE01DF91CF911F910F91C9
:100C00000895CF93DF93CDB7DEB728970FB6F8944A
:100C1000DEBF0FBECDBF98E0E0E1F1E0DE0111964E
:100C200001900D929A95E1F790914504961708F47A
:100C30006FEF262F30E0220F331F41E050E04C0FC2
:100C40005D1F240F351FF9016081680F606840E067
:100C50008DE394E028960FB6F894DEBF0FBECDBFAB
:100C6000DF91CF910C94BF05FB0101900020E9F7C3
:100C70003197AF01461B570BDC01ED91FC910280CF
:100C8000F381E02D09940F931F93CF93DF93EC0131
:100C90000E94AA008C016AE571E0CE010E94340630
:100CA000800F911FDF91CF911F910F910895809137
:100CB000630390916403892BB1F00E94D802609382
:100CC000690370936A0380936B0390936C0361E0F4
:100CD0008DE00E9417020E94D6056DE571E08DE35C
:100CE00094E00C943406089580916303909164031A
:100CF0000197B1F00E94D802609365037093660378
:100D0000809367039093680361E08CE00E94170270
:100D10000E94D6056CE671E08DE394E00C943406F5
:100D200008950F931F93CF93DF93EC0188819981EE
:100D3000009759F02A813B812617370730F081E070
:100D4000DF91CF911F910F9108958B016F5F7F4FBE
:100D50000E947D14009759F0998388831B830A832E
:100D60002C813D81232B59F7FC011082E8CF80E0D4
:100D7000E7CFEF92FF920F931F93CF93DF9361150D
:100D8000710541F480E0DF91CF911F910F91FF90A9
:100D9000EF90089541155105B1F07B01EC010C81F4
:100DA0001D81040F151FB8010E949106882351F37D
:100DB000288139818C819D81B701820F931F0E9408
:100DC00043151D830C8381E0DECFCF93DF93EC01CD
:100DD00088819981009711F00E94F413198218827A
:100DE0001D821C821B821A82DF91CF910895CF92BF
:100DF000DF92EF92FF920F931F93CF93DF93CDB7C4
:100E0000DEB762970FB6F894DEBF0FBECDBF8C0180
:100E1000CB01F80111821082138212821582148292
:100E20004AE09E012F5F3F4F6901B9010E9486127F
:100E3000F60101900020E9F731977F01EC18FD08D9
:100E4000B701C8010E949106811112C0C8010E9419
:100E5000E50662960FB6F894DEBF0FBECDBFDF91F8
:100E6000CF911F910F91FF90EF90DF90CF90089559
:100E7000F801F582E482B601808191810E944315D8
:100E8000E8CFCF93DF93EC01FB0101900020E9F75D
:100E90003197AF01461B570B0E94B906811103C061
:100EA000CE010E94E506CE01DF91CF910895CF9348
:100EB000DF93EC01FB0144815581608171810E94C7
:100EC000B906811103C0CE010E94E506CE01DF9173
:100ED000CF910895EF92FF920F931F93CF93DF93DB
:100EE000EC017B01198218821B821A821D821C82EE
:100EF000FB0101900020E9F731978F01061B170BCA
:100F0000B8010E949106811109C0CE01DF91CF91F5
:100F10001F910F91FF90EF900C94E5061D830C83B9
:100F2000B70188819981DF91CF911F910F91FF9037
:100F3000EF900C944315CF93DF93EC016B30710568
:100F4000A8F4FB01EA55F84F0C943E13B107BA0719
:100F5000BD07C007C307C607C907CC07CF07D2071D
:100F6000D5076CE571E0CE010E946A07CE01DF91E2
:100F7000CF91089564E871E0F6CF63E871E0F3CFB4
:100F800062E871E0F0CF61E871E0EDCF60E871E018
:100F9000EACF6FE771E0E7CF6EE771E0E4CF6DE78E
:100FA00071E0E1CF6CE771E0DECF6BE771E0DBCFA2
:100FB000FC0180819181009711F00C94F413089545
:100FC00085ED8093BC008091100390911103A09156
:100FD0001203B09113030796A11DB11D23E0B6952E
:100FE000A795979587952A95D1F72091BC0024FD68
:100FF00003C010920E030895409110035091110305
:101000006091120370911303452B462B472B69F314
:101010000097A105B10541F025E32A95F1F70000FD
:101020000197A109B109E1CF80910F030C942A0324
:101030000C94C3120C94BB121F920F920FB60F9216
:1010400011242F933F934F935F936F937F938F93CD
:101050009F93AF93BF93EF93FF938EE693E00E942D
:101060003601FF91EF91BF91AF919F918F917F9149
:101070006F915F914F913F912F910F900FBE0F9005
:101080001F9018951F920F920FB60F9211242F9355
:101090008F939F93EF93FF93E0917E03F0917F03F3
:1010A0008081E0918403F091850382FD1BC09081D3
:1010B000809187038F5F8F7320918803821741F09F
:1010C000E0918703F0E0E259FC4F958F809387030E
:1010D000FF91EF919F918F912F910F900FBE0F90E5
:1010E0001F9018958081F4CF1F920F920FB60F9228
:1010F00011242F933F938F939F93AF93BF9380912E
:10110000370390913803A0913903B0913A0330919D
:10111000360323E0230F2D3758F50196A11DB11D8D
:10112000209336038093370390933803A0933903B9
:10113000B0933A0380913B0390913C03A0913D030F
:10114000B0913E030196A11DB11D80933B03909386
:101150003C03A0933D03B0933E03BF91AF919F9199
:101160008F913F912F910F900FBE0F901F90189568
:1011700026E8230F0296A11DB11DD2CF1F920F9218
:101180000FB60F9211242F933F934F935F936F935A
:101190007F938F939F93AF93BF93EF93FF93809130
:1011A000B900887F803609F44AC0F0F5883209F426
:1011B000A7C018F5803109F49BC0B8F4882309F45E
:1011C000F9C0883009F494C0FF91EF91BF91AF91BD
:1011D0009F918F917F916F915F914F913F912F914F
:1011E0000F900FBE0F901F901895883109F488C09A
:1011F000803251F780930C0314C0803409F49DC0F1
:1012000040F48033B9F38833F9F680930C0385EC0E
:10121000B0C0803509F485C0883509F496C088349B
:1012200099F60E94E007D0CF883909F48CC038F5D0
:10123000883729F050F4883611F0803729F683E09A
:1012400080930E031092E70257C0883809F47BC0E0
:10125000803919F0803809F0B7CF8091E7028032E9
:1012600008F071C0E091E70281E08E0F8093E70201
:101270008091BB00F0E0E953FD4F80833DC0803B8F
:1012800039F0E0F4803A09F479C0883A09F09CCF4B
:1012900084E080930E031092C6021092C502E09182
:1012A0004503F091460309958091C50281110FC055
:1012B00081E08093C5021092A50209C0803C09F428
:1012C000A6CF883C09F4A3CF883B09F07DCFE091FD
:1012D000C60281E08E0F8093C602F0E0EB55FD4F11
:1012E00080818093BB009091C6028091C50229C085
:1012F0008091E9028093BB0085EC8093BC0064CFB1
:1013000090910B0380910A03981758F5E0910B0315
:1013100081E08E0F80930B03F0E0E651FD4F80815A
:10132000E9CFE0910B0381E08E0F80930B03809156
:10133000BB00F0E0E651FD4F808390910B0380915C
:101340000A039817C8F285E8D8CFE0910B0381E033
:101350008E0F80930B038091BB00F0E0E651FD4FB0
:10136000808380910D0381115CCF81E08093E8023E
:1013700084EA8093BC0010920E0326CF85EC809304
:10138000BC0010920E038091E702803230F4E091AD
:10139000E702F0E0E953FD4F10826091E70270E050
:1013A000E0914303F091440387EC92E00995109299
:1013B000E7020ACF10920C0334CF1F920F920FB6A0
:1013C0000F9211242F933F934F935F936F937F93CB
:1013D0008F939F93AF93BF93EF93FF93E09141035C
:1013E000F0914203309749F0A685B7858585968DA3
:1013F00091FF14C09C918923A1F4FF91EF91BF91BB
:10140000AF919F918F917F916F915F914F913F919C
:101410002F910F900FBE0F901F9018959C918923CC
:1014200061F7A389B4899C918589809589238C93E0
:10143000868997890197F1F7608D718DA685B785AB
:10144000558538E020E0CB010197F1F7822F90E03D
:1014500095958795282F4C91452309F020683150A8
:1014600091F7868D81FD20958091400390E0019653
:101470008F73992730913F03381799F0A09140035B
:10148000B0E0AC5BBD4F2C9380934003828D938D75
:101490000197F1F7A389B4898C919589892B8C9355
:1014A000ACCF868D8160868FF1CFCF92DF92EF92A5
:1014B000FF92109271031092700388EE93E0A0E007
:1014C000B0E08093720390937303A0937403B0937E
:1014D00075032CE131E030936F0320936E0325EC0C
:1014E00030E030937B0320937A0324EC30E0309398
:1014F0007D0320937C0320EC30E030937F03209326
:101500007E0321EC30E0309381032093800322ECB2
:1015100030E0309383032093820326EC30E0309355
:1015200085032093840310928703109288031092FE
:10153000890310928A0310920E0410920D04809376
:101540000F0490931004A0931104B09312042EE2A0
:1015500031E030930C0420930B0410924C04109251
:101560004B0480934D0490934E04A0934F04B0938A
:1015700050048CE491E090934A04809349041092C3
:10158000600410925F041092620410926104109241
:1015900064041092630410926604109265046091D2
:1015A00067046E7F6D7F609367046695617081E06C
:1015B000682782E00E94170261E082E00E944502F3
:1015C000E6EEF0E0E491E0935904E2EDF0E0E4911E
:1015D000F0E0EE0FFF1FEA53FF4F85919491909337
:1015E0005B0480935A0460E083E00E94450280918E
:1015F000670481FD04C061E083E00E94170283E07C
:1016000080935504E7EEF0E0E491E0935604E3EDB7
:10161000F0E0E491F0E0EE0FFF1FE454FF4F8591FE
:101620009491909358048093570410924004109220
:101630003F0480E491E090933E0480933D0487E270
:101640008093410484E18093460482E080934704C0
:101650001092480410922B0410922C0410922D0426
:1016600098EEC92E93E0D92EE12CF12CC0923404CF
:10167000D0923504E0923604F092370410923A0486
:10168000109239048EE080932A0462E00E944502A1
:10169000109218041092190410921A04C092210496
:1016A000D0922204E0922304F092240410922704A2
:1016B000109226048FE08093170462E0FF90EF9071
:1016C000DF90CF900C944502CF93DF93CDB7DEB778
:1016D000AD970FB6F894DEBF0FBECDBF789484B53A
:1016E000826084BD84B5816084BD85B5826085BD1E
:1016F00085B5816085BD80916E00816080936E00AC
:10170000109281008091810082608093810080919D
:10171000810081608093810080918000816080934E
:1017200080008091B10084608093B1008091B0000E
:1017300081608093B00080917A00846080937A0009
:1017400080917A00826080937A0080917A00816033
:1017500080937A0080917A00806880937A0010925A
:10176000C100E0917E03F0917F0382E08083E091ED
:101770007A03F0917B031082E0917C03F0917D036A
:101780008FEC808310928603E0918203F0918303B3
:1017900086E08083E0918003F09181038081806105
:1017A0008083E0918003F091810380818860808351
:1017B000E0918003F0918103808180688083E091D3
:1017C0008003F091810380818F7D808361E086E0DA
:1017D0000E94450261E08DE00E94450261E08CE0DC
:1017E0000E94450262E08EE00E94450262E08FE0C6
:1017F0000E94450262E08AE00E94450261E084E0C6
:101800000E944502109264041092630410926204D4
:10181000109261041092600410925F048DE991E0CF
:10182000909366048093650490915504963108F076
:1018300047C02DEB30E03093600420935F042BE928
:1018400031E030936204209361042CE231E0309364
:101850006404209363042091680084E0983048F089
:1018600031E09E3008F430E081E001C0880F3A9505
:10187000EAF7822B809368002DE630E0983050F034
:101880002BE630E09E3030F02CE630E0963110F060
:1018900030E020E030935D0420935C04292F30E099
:1018A000983008F00FC281E001C0880F9A95EAF7DE
:1018B00080935E0480916504909166040197F1F72E
:1018C0008091630490916404892B49F1E091410374
:1018D000F091420324E0E934F20709F1309739F03E
:1018E000A389B4899C918589809589238C93809163
:1018F00067048E7F809367041092400310923F0329
:1019000089E494E09093420380934103E0915C0466
:10191000F0915D04808190915E04892B80838FEF2C
:1019200093E00E941A08843509F0D9C181E090E063
:101930000E941A0890E090935A038093590382E022
:1019400090E00E941A0890E09093640380936303F0
:1019500083E090E00E941A0890E0909356038093F1
:10196000550384E090E00E941A0890E090930901EA
:101970008093080110924A03109249031092480381
:10198000109247030E940C0388EA90E0909346036C
:101990008093450389EA90E0909344038093430346
:1019A0001092420480914704823018F098E090939E
:1019B00042048093450462E370E080E090E00E947E
:1019C000A602609148048DE394E00E94D10368EE82
:1019D00073E080E090E00E94A60260E38DE394E073
:1019E0000E94A6050BE416E4C8010197F1F760E335
:1019F0008DE394E00E94A605C8010197F1F760E32A
:101A00008DE394E00E94A60583E592E00197F1F74B
:101A100060E28DE394E00E94A6056091420460625A
:101A200040E08DE394E00E94BF0584E0809343048E
:101A300040E06CE08DE394E00E94BF050E94D60573
:101A400082E08093440440E066E08DE394E00E94ED
:101A5000BF0540E062E08DE394E00E94BF058BE3A8
:101A60009FE10197F1F788E08093480460E08DE3FF
:101A700094E00E94D10340E060E48DE394E00E9492
:101A8000BF0500E011E0E8E0EE2EE1E0FE2EF801F7
:101A900061918F018DE394E00E94E105E016F1066B
:101AA000B1F760E085E00E94010660E971E08DE336
:101AB00094E00E94340660ED77E080E090E00E94C0
:101AC000A6020E94D60560E080E00E9401066091B7
:101AD000590370915A03CE0101960E94F70666E9F8
:101AE00071E0CE0182960E946A07BE016F5F7F4F50
:101AF000CE0182960E94570762EA71E00E94410778
:101B0000BC018DE394E00E944306CE0182960E94C0
:101B1000D807CE0101960E94D80761E080E00E94BC
:101B200001066091080170910901CE0101960E94A1
:101B3000F70665EA71E0CE0182960E946A07BE014F
:101B40006F5F7F4FCE0182960E94570761EB71E075
:101B50000E944107BC018DE394E00E944306CE0140
:101B600082960E94D807CE0101960E94D80768EE9F
:101B700073E080E090E00E94A6020E94D60560E03B
:101B800080E00E940106809155039091560366E81B
:101B900071E0019711F06BE871E0CE0188960E9428
:101BA0006A0766EB71E0CE0101960E946A07BE01EA
:101BB000685D7F4FCE0101960E945707BC018DE3FF
:101BC00094E00E944306CE0101960E94D80768EE79
:101BD00073E080E090E00E94A6028EE00E94EE0199
:101BE000892B09F0FBC00E94D6050AE010E060E0F6
:101BF00080E00E94010663EC71E08DE394E00E94B6
:101C0000340661E083E00E940106609159037091FF
:101C10005A03CE0101960E94F70663ED71E0CE01F2
:101C200082960E946A07BE016F5F7F4FCE01829647
:101C30000E94570766ED71E00E944107BC018DE3E9
:101C400094E00E94AA00CE0182960E94D807CE019D
:101C500001960E94D8078AE294E00E94680580916C
:101C60002D04882309F46BC010922D0410922B04CC
:101C700010922C048091590390915A0305979093E8
:101C80005A03809359030B9724F410935A0300933B
:101C9000590387E194E00E94680580911A04882323
:101CA00009F4A5CF10921A04109218041092190486
:101CB0008091590390915A03059690935A0380930B
:101CC000590395CF9E3040F42850310981E001C07E
:101CD000880F2A95EAF7ECCD2E503109F7CF88EC22
:101CE00090E090935A038093590368EC81E090E070
:101CF0000E94180801E010E010936403009363034E
:101D000061E082E090E00E9418081093560300936F
:101D1000550361E083E090E00E9418088AE090E0BB
:101D200090930901809308016AE084E090E00E94AA
:101D3000180864E58FEF93E00E9418081BCE80918D
:101D40002C04882309F4A5CFC0905903D0905A03DE
:101D50000D2C000CEE08FF08F7FE9CC26DE28EE62B
:101D600093E00E94580122273327A9012C193D092D
:101D70004E095F0919A28E010F5D1F4F7AE0C72E31
:101D8000D12CE12CF12CCA01B901A70196010E94C6
:101D90001C13605DF80162938F0121153105410527
:101DA000510589F70115110529F0B8018EE693E078
:101DB0000E9434066AE571E08EE693E00E943406E4
:101DC0006091590381E090E00E9418080E94D605B6
:101DD0006DED71E08DE394E00E94340660E084E0F4
:101DE0000E9417028091630390916403892B09F08C
:101DF0006CC281E080936D0310922D0410922B042D
:101E000010922C04CE0188960E94D80793E6292EC2
:101E100093E0392E0AE010E026EFC22EDD24DA949A
:101E200030E5432E512C66246394712C80916D0310
:101E3000882359F00E94D80261367A4E81059105B7
:101E400020F010926D030E9457060E94D802AB0149
:101E5000BC018091690390916A03A0916B03B091DA
:101E60006C0388519C4FAF4FBF4F84179507A6074F
:101E7000B70720F460E08DE00E9417020E94D802AC
:101E8000AB01BC018091650390916603A09167034B
:101E9000B091680388519C4FAF4FBF4F841795078F
:101EA000A607B70720F460E08CE00E9417028AE0E2
:101EB0000E94EE01892B09F00BC21092640310926C
:101EC000630360E082E090E00E9418088AE294E0F8
:101ED0000E94680580912C04882309F449C210925D
:101EE0002D0410922B0410922C040E94D6050E94FF
:101EF000D80260934B0370934C0380934D039093EF
:101F00004E030E94D80280904B0390904C03A09007
:101F10004D03B0904E03681979098A099B09613114
:101F200077428105910508F051C060E080E00E9491
:101F300001066EEE71E08DE394E00E94340661E0EC
:101F400083E00E9401066091080170910901CE01B1
:101F500001960E94F7066CEF71E0CE0182960E9416
:101F60006A07BE016F5F7F4FCE0182960E945707BE
:101F700060E072E00E944107BC018DE394E00E94A2
:101F8000AA00CE0182960E94D807CE0101960E9437
:101F9000D8078AE294E00E94680580912C04882387
:101FA00009F4A3C110922D0410922B0410922C045A
:101FB0006091080184E090E00E9418080E94D60514
:101FC00068E072E08DE394E00E94340687E194E0DB
:101FD0000E94680580911904882309F4E3C11092D6
:101FE0001A041092180410921904809155039091CC
:101FF0005603019709F0C8C1109256031092550379
:1020000060E083E090E00E9418080E94D60586E810
:1020100090E00E94E70568EE73E080E090E00E94A7
:10202000A60289E494E00E942C05892B09F45DC086
:1020300061E086E00E9417028FE5E82E83E0F82E2B
:102040000E94D80260935104709352048093530409
:102050009093540489E494E00E94440597FF32C2AF
:102060000E94D8028090510490905204A090530492
:10207000B0905404681979098A099B0980904D042D
:1020800090904E04A0904F04B090500468157905CC
:102090008A059B05F8F280915F036091600370E010
:1020A0004FEF849F600D711D11246F507109709363
:1020B0005E0360935D038091620390E090935C0304
:1020C00080935B03CE0101960E94F706BE016F5F0D
:1020D0007F4F8EE693E00E944306CE0101960E9458
:1020E000D80760E086E00E94170260915903709162
:1020F0005A0320915D0330915E03261B370B4CE998
:102100004203C001439F900D11240E940813709355
:1021100058036093570380915B0390915C0384366E
:10212000910509F04BC16436710544F08091550367
:1021300090915603019711F40E9474062091570361
:1021400030915803809108019091090182179307FB
:1021500044F08091550390915603019711F40E9429
:1021600057068091630390916403009709F035C18D
:102170000E94D802AB01BC0180915103909152039F
:10218000A0915303B091540388539F4FAF4FBF4F5B
:1021900084179507A607B70708F056C00E94D80213
:1021A00060935103709352038093530390935403AD
:1021B000E0905703F0905803C701B8010E9408133C
:1021C000CB0120914F0330915003260F371F2B3046
:1021D0003105E4F01092500310924F0361E00E9429
:1021E0000106C701B6010E940813665F7F4FCE014A
:1021F00001960E949B07BE016F5F7F4F8DE394E0C5
:102200000E94AA00CE0101960E94D807E0904F03D9
:10221000F09050038091570390915803B8010E94A9
:102220000813862F9FEF9E0D61E0890F0E94010623
:1022300060E08DE394E00E94E1058FEFE81AF80A70
:10224000F0925003E0924F0360E080E00E940106AC
:102250006CE172E08DE394E00E943406A090570395
:10226000B0905803C501B8010E9408134B01F12C2E
:10227000E12C61E08E149F040CF4D8C08E2D0E94D6
:10228000010660E08DE394E00E94E1059FEFE91A0A
:10229000F90AEFCFA701960119A28E010F5D1F4F1A
:1022A0006AE0C62ED12CE12CF12CCA01B901A7019C
:1022B00096010E941C13605DF80162938F01211545
:1022C00031054105510589F76DCD10926D0394CD0F
:1022D0008AE00E94EE018130910509F0F7CD9093DC
:1022E00064038093630361E0EDCD80912D04882326
:1022F000C9F010922D0410922B0480910801909146
:1023000009010A9797FD2AC090930901809308015B
:102310000E94D80260934B0370934C0380934D034B
:1023200090934E0387E194E00E94680580911A041F
:10233000882309F4E6CD10921A0410921804109222
:10234000190480910801909109010A96813591053F
:1023500054F49093090180930801C9CD509209016A
:1023600040920801D5CF1092090110920801BFCD0B
:1023700080912D04882309F429CE10922D04109207
:102380002B040E94570622CE70925603609255038A
:1023900061E083E090E00E9418080E94D60585E97C
:1023A00090E037CE80911A04882309F43ACE109237
:1023B0001A04109218040E94740633CE85369105D3
:1023C00039F40E94D60581EB90E00E94E705C9CE62
:1023D0000E94D60583EA90E0F8CF019709F034CF48
:1023E0001092500310924F03E0905703F09058035F
:1023F000C701B8010E940813862F61E00E94010600
:10240000C701B6010E940813665F7F4FCE01019697
:102410000E949B07BE016F5F7F4F8DE394E00E9497
:10242000AA00CE0101960E94D8070ECF8AE00E9432
:102430000106B501CE0101960E94F7066DE272E039
:10244000CE0182960E946A07BE016F5F7F4FCE0168
:1024500082960E94570760E372E00E944107BC0128
:102460008DE394E00E94AA00CE0182960E94D807D4
:10247000CE0101960E94D8078091670480FF15C0A5
:102480008E7F8093670463E372E08EE693E00E94A0
:1024900034066AE571E08EE693E00E94340689E432
:1024A00094E00E94440597FFFACFE0E0F0E0EF2BC4
:1024B00009F4BCCC0E942201882309F4B7CC0E9405
:1024C0000000B4CCF70181937F012E163F0609F07E
:1024D000B7CDE1CD8CE491E090934A048093490418
:1024E00080914103909142038954944071F4E091AA
:1024F0005C04F0915D04908180915E048095892355
:10250000808310924203109241030895BB274A3002
:1025100031F4992322F4BDE2909581959F4F0C945C
:102520009212BB27FB015527AA27880F991FAA1FC4
:10253000A41710F0A41B83955051B9F7A05DAA33DE
:1025400008F0A95DA193009779F7B111B1931192A9
:10255000CB010C94AB12DC01FC01672F7191772346
:10256000E1F7329704C07C916D9370836291AE174E
:10257000BF07C8F30895F999FECF92BD81BDF89ABF
:10258000992780B50895262FF999FECF1FBA92BDDD
:1025900081BD20BD0FB6F894FA9AF99A0FBE019644
:1025A00008952F923F924F925F926F927F928F92F7
:1025B0009F92AF92BF92CF92DF92EF92FF920F93D2
:1025C0001F93CF93DF93CDB7DEB7CA1BDB0B0FB6DC
:1025D000F894DEBF0FBECDBF09942A883988488899
:1025E0005F846E847D848C849B84AA84B984C8842F
:1025F000DF80EE80FD800C811B81AA81B981CE0F26
:10260000D11D0FB6F894DEBF0FBECDBFED0108950A
:1026100097FB072E16F4009407D077FD09D00E948F
:10262000441307FC05D03EF4909581959F4F089583
:10263000709561957F4F0895A1E21A2EAA1BBB1BCE
:10264000FD010DC0AA1FBB1FEE1FFF1FA217B3077E
:10265000E407F50720F0A21BB30BE40BF50B661F94
:10266000771F881F991F1A9469F760957095809558
:1026700090959B01AC01BD01CF010895EE0FFF1FA6
:102680000590F491E02D0994AA1BBB1B51E107C0F2
:10269000AA1FBB1FA617B70710F0A61BB70B881FF2
:1026A000991F5A95A9F780959095BC01CD01089581
:1026B0000F931F93CF93DF938230910510F482E044
:1026C00090E0E0916A04F0916B0430E020E0B0E02B
:1026D000A0E0309799F42115310509F44AC0281B70
:1026E000390B24303105D8F58A819B81611571053C
:1026F00089F1FB0193838283FE0111C040815181E6
:102700000281138148175907E0F04817590799F4D7
:10271000109761F012960C93129713961C933296B1
:10272000CF01DF91CF911F910F91089500936A041B
:1027300010936B04F4CF2115310551F04217530764
:1027400038F0A901DB019A01BD01DF01F801C1CF19
:10275000EF01F9CF90936B0480936A04CDCFFE0113
:10276000E20FF31F8193919322503109398328831B
:10277000D7CF2091680430916904232B41F4209134
:102780000C0130910D01309369042093680420916D
:102790000A0130910B012115310541F42DB73EB7E7
:1027A00040910E0150910F01241B350BE0916804FC
:1027B000F0916904E217F307A0F42E1B3F0B2817D2
:1027C000390778F0AC014E5F5F4F2417350748F0AA
:1027D0004E0F5F1F50936904409368048193919357
:1027E0009FCFF0E0E0E09CCFCF93DF930097E9F03C
:1027F000FC01329713821282A0916A04B0916B049B
:10280000ED0130E020E01097A1F420813181820FAA
:10281000931F20916804309169042817390709F043
:1028200061C0F0936904E0936804DF91CF9108954B
:10283000EA01CE17DF07E8F54A815B819E01411569
:102840005105B1F7E901FB83EA8349915991C40F1E
:10285000D51FEC17FD0761F4808191810296840FEA
:10286000951FE90199838883828193819B838A8361
:10287000F0E0E0E012968D919C9113970097B9F5E6
:102880002D913C911197CD010296820F931F2091BB
:102890006804309169042817390739F6309751F5E3
:1028A00010926B0410926A04B0936904A0936804B8
:1028B000BCCFD383C28340815181840F951FC81739
:1028C000D90761F44E5F5F4F88819981480F591F86
:1028D000518340838A819B819383828321153105B3
:1028E00009F0B0CFF0936B04E0936A049ECFFD0132
:1028F000DC01C0CF13821282D7CFB0E0A0E0E3E8C2
:10290000F4E10C94D3128C01009751F4CB010E9496
:1029100058138C01C801CDB7DEB7E0E10C94EF127B
:10292000FC01E60FF71F9C0122503109E217F30763
:1029300008F49DC0D901CD91DC911197C617D70736
:1029400098F0C530D10530F3CE010497861797076C
:1029500008F3C61BD70B2297C193D1936D937C9339
:10296000CF010E94F413D6CF5B01AC1ABD0A4C0113
:102970008C0E9D1EA0916A04B0916B04512C412CC9
:10298000F12CE12C109731F5809168049091690445
:102990008815990509F05CC04616570608F058C01E
:1029A00080910A0190910B01009741F48DB79EB779
:1029B00040910E0150910F01841B950BE817F90708
:1029C00008F055C0F0936904E0936804F90171833D
:1029D0006083A0CF8D919C91119712966C90129765
:1029E00013967C901397A815B90559F56C0142E030
:1029F000C40ED11CCA14DB0420F1AC014A195B09D6
:102A0000DA011296159780F06282738251834083B7
:102A1000D9016D937C93E114F10471F0D701139601
:102A2000FC93EE93129776CF22968C0F9D1FF9019F
:102A300091838083F301EFCFF0936B04E0936A04FA
:102A400069CF4816590608F42C017D01D3019ACFAD
:102A5000CB010E9458137C01009749F0AE01B801E8
:102A60000E943A15C8010E94F413870153CF10E069
:102A700000E050CFFB01DC0102C001900D924150FB
:102A80005040D8F70895FB01DC0101900D92002021
:102A9000E1F7089510E0CDE7D0E004C0FE010E9408
:0E2AA0003E132196CE37D107C9F7F894FFCF29
:102AAE001F1F1F1F1F1F1F1F0A0000006C04800026
:102ABE000000400014005400000000005801B8004F
:102ACE00E500A5011601F400080100000000A203B4
:102ADE00750365054B036E035B034C03000000009A
:102AEE00E105B8006505E40200000000D004B8005E
:102AFE0065054B032C054405B8040D0A00204D4F07
:102B0E00544F5220535441525445440020204D4FAF
:102B1E00544F522053544F50454400202020202023
:102B2E002020202020004F4E2020004F464620001F
:102B3E005154524F4E0054414E4B20487420203A6F
:102B4E002000434D004C4F57204C4556454C3A20E3
:102B5E000025202020004155544F204D4F44452044
:102B6E003A20005345542054414E4B204845494786
:102B7E004854003C2000434D203E2020004865690B
:102B8E006768742053746F7265642E2E2E00534541
:102B9E0054204C4F57204C4556454C003C202000AD
:102BAE00252020203E2020004C6F77204C65766536
:102BBE006C2053746F7265642E2E2E00574154454F
:102BCE0052204C4556454C2020202020003E3E00F1
:102BDE0025200053657269616C204F766572666CB4
:042BEE006F770000FD
:00000001FF
