:100000000C9469000C9491000C9491000C94910054
:100010000C9491000C9491000C9491000C9491001C
:100020000C9491000C9491000C9491000C9491000C
:100030000C9491000C9491000C9491000C949100FC
:100040000C94A8080C9491000C9491000C949100CD
:100050000C9491000C9491000C9491000C949100DC
:100060000C94F2080C94910000000000240027007A
:100070002A0000000000250028002B0000000000DE
:1000800023002600290004040404040404040202DA
:100090000202020203030303030301020408102007
:1000A0004080010204081020010204081020000012
:1000B0000008000201000003040700000000000027
:1000C00000005154524F4E0057454C434F4D450090
:1000D000110A11241FBECFEFD8E0DEBFCDBF22E052
:1000E000AEE8B1E001C01D92A93DB207E1F711E011
:1000F000A0E0B1E0E6ECF3E202C005900D92AE386C
:10010000B107D9F710E0C9E6D0E004C02197FE019D
:100110000E948411C836D107C9F70E94310A0C9495
:10012000E1110C94000008950895AF92BF92CF9210
:10013000DF92EF92FF920F931F93CF93DF936C01A7
:100140007B018B01040F151FEB015E01AE18BF0888
:10015000C017D10759F06991D601ED91FC9101903A
:10016000F081E02DC6010995892B79F7C501DF9152
:10017000CF911F910F91FF90EF90DF90CF90BF90A4
:10018000AF900895833081F028F4813099F0823067
:10019000A9F008958730A9F08830C9F08430B1F40F
:1001A000809180008F7D03C0809180008F77809345
:1001B0008000089584B58F7784BD089584B58F7DC0
:1001C000FBCF8091B0008F778093B000089580912D
:1001D000B0008F7DF9CFCF93DF93282F30E0F90166
:1001E000E255FF4F8491F901E656FF4FD491F90192
:1001F000EA57FF4FC491CC23A1F081110E94C200A5
:10020000EC2FF0E0EE0FFF1FE458FF4FA591B491E3
:10021000EC91ED2381E090E009F480E0DF91CF9153
:10022000089580E090E0FACF1F93CF93DF93282FBB
:1002300030E0F901E255FF4F8491F901E656FF4F96
:10024000D491F901EA57FF4FC491CC23A9F0162F9E
:1002500081110E94C200EC2FF0E0EE0FFF1FEE585C
:10026000FF4FA591B4918FB7F894EC91111108C08C
:10027000D095DE23DC938FBFDF91CF911F9108953E
:10028000DE2BF8CFCF93DF9390E0FC01E656FF4FD3
:1002900024918A579F4FFC0184918823D1F090E0EC
:1002A000880F991FFC01E859FF4FA591B491FC01FB
:1002B000EE58FF4FC591D491623071F49FB7F89416
:1002C0003C91822F809583238C93E8812E2B288369
:1002D0009FBFDF91CF9108958FB7F894EC912E2BAB
:1002E0002C938FBFF6CF3FB7F8948091D8019091AF
:1002F000D901A091DA01B091DB0126B5A89B05C018
:100300002F3F19F00196A11DB11D3FBFBA2FA92F94
:10031000982F8827BC01CD01620F711D811D911D91
:1003200042E0660F771F881F991F4A95D1F70895FD
:100330008F929F92AF92BF92CF92DF92EF92FF92F5
:100340004B015C010E9473016B017C010E947301EF
:100350006C197D098E099F09683E734081059105DE
:10036000A8F321E0821A9108A108B10888EEC80E0E
:1003700083E0D81EE11CF11C81149104A104B10496
:1003800029F7FF90EF90DF90CF90BF90AF909F90B4
:100390008F9008952FB7F8946091D4017091D50192
:1003A0008091D6019091D7012FBF08950895209193
:1003B000B001260F3327331F21323105ECF4209191
:1003C0007502FC0190E080E0243069F082E008953D
:1003D000A091B0012191AC0140575E4FA40FB52F01
:1003E000B11D2C930196861798F38091B001680F88
:1003F0006093B00180E0089581E008951092750245
:1004000081E08093740210924F0261E082E10E94C9
:10041000140161E083E10E941401E9EBF0E08081C6
:100420008E7F808380818D7F808388E48093B80075
:1004300085E48093BC000895CF93DF9391E090937F
:100440008F018823B9F0C091B800D091BA00809193
:10045000BC008A7B8093BC0060E082E10E941401B2
:1004600060E083E10E9414010E94FE01D093BA0073
:10047000C093B800DF91CF910895CF92DF92EF92B1
:10048000FF920F931F93CF93DF93D0919E0281E051
:10049000D13208F09CC0C0919D020E9473016B0193
:1004A0007C018091750281116CC082E0809375029D
:1004B00081E0809374028FEF809373021092720236
:1004C000D0937102ADE7B2E0E1E5F2E080E0D8134D
:1004D0008DC01092500280915002CC0FC82BC09357
:1004E000500280914F02813009F084C010924F0277
:1004F0000E9473016B017C01809150028093BB00CC
:100500008091770290917802A0917902B0917A025D
:10051000892B8A2B8B2BA1F00E947301009177020B
:10052000109178022091790230917A026C197D093C
:100530008E099F09061717072807390708F442C0D4
:100540008091BC0083FDD8CF85EC8093BC000E94D5
:1005500073016B017C0180917502823009F44CC0FB
:10056000809173028F3F09F469C0809173028032D9
:1005700009F466C080917302803309F463C084E09B
:1005800026C08091770290917802A0917902B09173
:100590007A02892B8A2B8B2B09F483CF0E9473015B
:1005A00000917702109178022091790230917A02BD
:1005B0006C197D098E099F09061717072807390747
:1005C00008F06FCF809176020E941C0285E01092A5
:1005D0007C0210929E0210927B02DF91CF911F91BC
:1005E0000F91FF90EF90DF90CF9008959D919193A0
:1005F0008F5F6DCF85EEA9CF8091770290917802C1
:10060000A0917902B0917A02892B8A2B8B2B09F465
:10061000A2CF0E947301009177021091780220917D
:10062000790230917A026C197D098E099F090617AB
:1006300017072807390708F08ECFC4CF80E0C7CF4F
:1006400082E0C5CF83E0C3CFCF92DF92EF92FF92DB
:100650000F931F93CF93DF93D82FC62F613208F0EB
:1006600098C00E9473016B017C0180917502811119
:100670006BC081E080937502809374029FEF90932A
:100680007302109272029C0F909371028093500239
:1006900080915002DD0FD82BD093500280914F02F1
:1006A000813009F078C010924F020E9473016B01F3
:1006B0007C01809150028093BB00809177029091E1
:1006C0007802A0917902B0917A02892B8A2B8B2B28
:1006D000A1F00E947301009177021091780220919D
:1006E000790230917A026C197D098E099F090617EB
:1006F00017072807390708F448C08091BC0083FD1C
:10070000D8CF85EC8093BC000E9473016B017C0103
:1007100080917502813009F440C0809172028C177B
:1007200010F4C0917202E1E5F2E0AFE2B2E080E0E5
:100730008C1355C08C2FDF91CF911F910F91FF909B
:10074000EF90DF90CF90089580917702909178029A
:10075000A0917902B0917A02892B8A2B8B2B09F414
:1007600084CF0E947301009177021091780220914A
:10077000790230917A026C197D098E099F0906175A
:1007800017072807390708F070CF809176020E947A
:100790001C02C0E0CFCF85EEB5CF8091770290915B
:1007A0007802A0917902B0917A02892B8A2B8B2B47
:1007B00009F4AECF0E947301009177021091780284
:1007C0002091790230917A026C197D098E099F0976
:1007D000061717072807390708F09ACFD6CF919147
:1007E0009D938F5FA5CF0895E091E1018091E00195
:1007F000E81730F4F0E0E15DFD4F808190E008956E
:100800008FEF9FEF08959091E1018091E0012FEF2C
:100810003FEF981748F4E92FF0E0E15DFD4F2081AC
:1008200030E09F5F9093E101C90108958091E0015C
:100830009091E101891B990B0895CF92DF92EF927D
:10084000FF920F931F93CF93DF937C01CB018A011B
:1008500020917B02222389F0EB016B01C40ED51E8F
:10086000CC15DD0569F06991D701ED91FC910190FE
:10087000F081E02DC7010995F3CF642F0E94D701C5
:10088000C801DF91CF911F910F91FF90EF90DF9002
:10089000CF900895CF93DF931F92CDB7DEB76983D2
:1008A00020917B022223F9F020919E02203258F001
:1008B00021E030E0FC013383228390E080E00F9060
:1008C000DF91CF91089580917C02E82FF0E0E3580A
:1008D000FD4F998190838F5F80937C0280939E026D
:1008E00081E090E0ECCF61E0CE0101960E94D7015B
:1008F000F7CFFC01248131E030937B0220939D02ED
:1009000010927C0210929E028385682B81EC92E00B
:100910000E944A040C943D021F93CF93DF93EC0195
:1009200081E080937B0288E680939D0210927C0296
:1009300010929E0260E081EC92E00E944A042D81B8
:100940001AE0822F612F0E944511682F660F680FF1
:10095000660F620F81EC92E00E944A042C81822F84
:10096000612F0E944511682F660F680F660F620F96
:1009700081EC92E00E944A042B81822F612F0E9419
:100980004511682F660F680F660F620F81EC92E0C9
:100990000E944A0460E081EC92E00E944A042A81AD
:1009A000822F612F0E944511682F660F680F660F16
:1009B000620F81EC92E00E944A042981822F612F0C
:1009C0000E944511682F660F680F660F620F81EC59
:1009D00092E00E944A042881822F612F0E944511D3
:1009E000682F660F680F660F620F81EC92E00E941D
:1009F0004A04DF91CF911F910C943D0290E080E07A
:100A0000089520911902253009F090F490918E01FB
:100A1000E92FF0E0ED5EFD4F80832F5F20931902F8
:100A20009F5F953018F490938E01089510928E0177
:100A30000895009769F0FC0101900020E9F73197D3
:100A4000AF01481B590BBC018DEC92E00C94950052
:100A500090E080E008950F931F93CF93DF93EC0114
:100A6000CB01009759F46EE271E0CE010E94CB11E8
:100A7000CE01DF91CF911F910F91089520E077FF74
:100A800006C02DE2288391958195910921E080315E
:100A900037E293070CF5883E33E09307FCF432E02D
:100AA000843691052CF431E08A3091050CF430E065
:100AB000230FFE01E20FF11D11820AE010E0FE019A
:100AC000E20FF11DB8010E945111805D8083CB01BE
:100AD00021500097A1F7CCCF34E0EACF33E0E8CF44
:100AE000CF93DF93BC01EC0109900020E9F7219737
:100AF000C81BD90BC03108F580EB92E00E94CB11E6
:100B000080E18C1BEFE9F2E090E020E2AF014F5969
:100B100052404817590714F42193F8CF81569D4F3E
:100B2000FC0110826FE972E080EB92E00E94C0113C
:100B300080EB92E0DF91CF91089541E150E080EBAE
:100B400092E00E94D211F4CF0F931F93CF93DF93C3
:100B5000EC018B01FB0101900020E9F73197E61BC6
:100B6000F70BE23008F582E08E1BEFE9F2E090E04F
:100B700020E3AF014F5952404817590714F421930D
:100B8000F8CF81569D4FFC0110826FE972E0CE01D3
:100B90000E94CB11B801CE010E94C011CE01DF919D
:100BA000CF911F910F91089543E050E00E94D21120
:100BB000F5CFCF92DF92FF920F931F93CF93DF93E6
:100BC0006C0181E080937B0288E680939D02109205
:100BD0007C0210929E0260E081EC92E00E944A0446
:100BE0000E943D0267E088E60E9424031092E10122
:100BF0008093E00181EC92E00E9403048F77282F1C
:100C000030E094E0359527959A95E1F7922F990F6A
:100C1000990FC22FC91BCC0FC80F81EC92E00E9424
:100C200003049C0144E0359527954A95E1F72F7020
:100C30003327922F990F990FD22FD91BDD0FD80F81
:100C400081EC92E00E9403049C0154E035952795C5
:100C50005A95E1F72F703327922F990F990F122F82
:100C6000191B110F180F81EC92E00E94030481EC14
:100C700092E00E9403049C0164E0359527956A95F3
:100C8000E1F72F703327922F990F990F022F091B2D
:100C9000000F080F81EC92E00E9403049C0174E0B5
:100CA000359527957A95E1F72F703327922F990F75
:100CB000990FF22EF91AFF0CF80E81EC92E00E94C7
:100CC00003049C01E4E035952795EA95E1F72F7040
:100CD0003327922F990F990F291B220F820FF601AC
:100CE0008083F18202831383D483C583C601DF919D
:100CF000CF911F910F91FF90DF90CF9008950F93A8
:100D00001F93CF938C01C62F0E9479046C2F6460CF
:100D1000C8010E9479046C2F6B7FC8010E9479047E
:100D200083EC90E00197F1F7CF911F910F91089517
:100D30000F931F93CF93DF938C01D62FC42F607F27
:100D4000642B0E947F0680E1D89FB00111246C2B98
:100D5000C801DF91CF911F910F910C947F0640E065
:100D600061E08DEC92E00E9498068BE39FE1019791
:100D7000F1F70895CF93DF93CDB7DEB728970FB67D
:100D8000F894DEBF0FBECDBF98E0E3E0F1E0DE01F6
:100D9000119601900D929A95E1F79091D5029617D0
:100DA00008F46FEF262F30E0220F331F41E050E0B0
:100DB0004C0F5D1F240F351FF9016081680F6068BB
:100DC00040E08DEC92E028960FB6F894DEBF0FBE9F
:100DD000CDBFDF91CF910C94980641E00E94980618
:100DE00081E090E008950F931F93CF93DF938C01E0
:100DF000D0E0C0E0F801EC0FFD1F6491662339F0EC
:100E000041E08DEC92E00E9498062196F3CFCE014E
:100E1000DF91CF911F910F91089585ED8093BC00D4
:100E20008091770290917802A0917902B0917A0234
:100E30000796A11DB11D23E0B695A79597958795B7
:100E40002A95D1F72091BC0024FD03C010927502B1
:100E500008954091770250917802609179027091E3
:100E60007A02452B462B472B69F30097A105B10564
:100E700041F025E32A95F1F700000197A109B10996
:100E8000E1CF809176020C941C026F927F928F9238
:100E90009F92AF92BF92CF92DF92EF92FF920F9309
:100EA0001F93CF93DF93CDB7DEB7E988FA88FE01B1
:100EB0007496D12CC12C712CAB88B12C80E1682E9A
:100EC000872D90E0CA14DB042CF52FE0271510F1D4
:100ED0004F0122E0820E911C60817181FB01019023
:100EE0000020E9F731978F01061B170B9C01200F9B
:100EF000311D462D4719213131050CF4402F50E0AA
:100F00008E0D9F1D0E94D211700E8FEFC81AD80A45
:100F1000F401D6CF8E0D9F1DFC011082C701DF9119
:100F2000CF911F910F91FF90EF90DF90CF90BF90E6
:100F3000AF909F908F907F906F9008958F929F9227
:100F4000AF92BF92CF92DF92EF92FF920F931F93D7
:100F5000CF93DF93CDB7DEB760970FB6F894DEBFBF
:100F60000FBECDBF4C01188A1F868AE38F87CB0145
:100F7000BA012CE330E040E050E00E9465116B01C3
:100F800089012D30310514F02C503109B901CE0101
:100F900001960E942B055E018CE0A80EB11CBE01DB
:100FA0006F5F7F4FC5010E94A405B601CE01019677
:100FB0000E942B057E0199E0E90EF11CBE016F5FD6
:100FC0007F4FC7010E94A40584E391E00C30110516
:100FD00014F080E391E09F938F93FF92EF92CE0104
:100FE0000F969F938F93BF92AF9284E08F939F92BF
:100FF0008F920E9445070FB6F894DEBF0FBECDBF9B
:10100000C40160960FB6F894DEBF0FBECDBFDF916E
:10101000CF911F910F91FF90EF90DF90CF90BF90F5
:10102000AF909F908F900895CF92DF92EF92FF92B2
:101030000F931F93CF93DF93CDB7DEB767970FB6AC
:10104000F894DEBF0FBECDBFCE0109960E94D90530
:101050006C85662309F477C06C3011F008F06C5091
:1010600070E0CE0101960E942B058E01015F1F4F9B
:10107000BE016F5F7F4FC8010E94A405CE01099693
:101080000E94D9056D8570E0CE0101960E942B0566
:101090007E0182E1E80EF11CBE016F5F7F4FC70148
:1010A0000E94A405CE0109960E94D9056E8570E0C4
:1010B000CE0101960E942B056E0195E1C90ED11C4F
:1010C000BE016F5F7F4FC6010E94A40560E080E013
:1010D0000E94BA06CE0109960E94D9058C858C30F3
:1010E000A0F58FE391E09F938F93DF92CF928CE8EE
:1010F00091E09F938F93FF92EF929F938F931F9313
:101100000F9383E491E09F938F9387E08F9380EB1D
:1011100092E09F938F930E9445070E9419050FB696
:10112000F894DEBF0FBECDBF67960FB6F894DEBF52
:101130000FBECDBFDF91CF911F910F91FF90EF9028
:10114000DF90CF9008956CE08BCF88E391E0CBCF18
:101150001F920F920FB60F9211242F933F938F93EC
:101160009F93AF93BF938091D4019091D501A091AB
:10117000D601B091D7013091D30123E0230F2D3751
:1011800058F50196A11DB11D2093D3018093D40180
:101190009093D501A093D601B093D7018091D80147
:1011A0009091D901A091DA01B091DB010196A11DC6
:1011B000B11D8093D8019093D901A093DA01B09327
:1011C000DB01BF91AF919F918F913F912F910F9034
:1011D0000FBE0F901F90189526E8230F0296A11DB1
:1011E000B11DD2CF1F920F920FB60F9211242F93E1
:1011F0003F934F935F936F937F938F939F93AF939F
:10120000BF93EF93FF938091B900887F803609F4F4
:101210004AC0F0F5883209F4A7C018F5803109F406
:101220009BC0B8F4882309F4F9C0883009F494C04D
:10123000FF91EF91BF91AF919F918F917F916F91AE
:101240005F914F913F912F910F900FBE0F901F9084
:101250001895883109F488C0803251F78093730261
:1012600014C0803409F49DC040F48033B9F388334E
:10127000F9F68093730285ECB0C0803509F485C01F
:10128000883509F496C0883499F60E940D07D0CFAE
:10129000883909F48CC038F5883729F050F488363D
:1012A00011F0803729F683E0809375021092D20105
:1012B00057C0883809F47BC0803919F0803809F0AC
:1012C000B7CF8091D201803208F071C0E091D20195
:1012D00081E08E0F8093D2018091BB00F0E0EE544C
:1012E000FE4F80833DC0803B39F0E0F4803A09F442
:1012F00079C0883A09F09CCF84E0809375021092FF
:10130000B1011092B001E091DC01F091DD0109958D
:101310008091B00181110FC081E08093B0011092E3
:10132000900109C0803C09F4A6CF883C09F4A3CF02
:10133000883B09F07DCFE091B10181E08E0F809371
:10134000B101F0E0E057FE4F80818093BB009091A7
:10135000B1018091B00129C0809150028093BB00FF
:1013600085EC8093BC0064CF9091720280917102F1
:10137000981758F5E091720281E08E0F8093720207
:10138000F0E0EF5AFD4F8081E9CFE091720281E0F9
:101390008E0F809372028091BB00F0E0EF5AFD4FF8
:1013A000808390917202809171029817C8F285E84B
:1013B000D8CFE091720281E08E0F8093720280910B
:1013C000BB00F0E0EF5AFD4F8083809174028111E1
:1013D0005CCF81E080934F0284EA8093BC0010923E
:1013E000750226CF85EC8093BC0010927502809127
:1013F000D201803230F4E091D201F0E0EE54FE4FA1
:1014000010826091D20170E0E091DE01F091DF0185
:1014100082EB91E009951092D2010ACF10927302EB
:1014200034CFE1ECF2E01382128288EE93E0A0E088
:10143000B0E084839583A683B78384E191E09183B0
:101440008083EDECF2E01382128286E291E09183D8
:10145000808387E2848380E1818782E082871386AC
:101460000895CF93DF93CDB7DEB7E2970FB6F89428
:10147000DEBF0FBECDBF789484B5826084BD84B5D5
:10148000816084BD85B5826085BD85B5816085BD7F
:1014900080916E00816080936E0010928100809137
:1014A00081008260809381008091810081608093BF
:1014B0008100809180008160809380008091B100E4
:1014C00084608093B1008091B00081608093B0000F
:1014D00080917A00846080937A0080917A008260A3
:1014E00080937A0080917A00816080937A00809165
:1014F0007A00806880937A001092C10061E081E1F7
:101500000E94420162E086E00E94420162E087E0C0
:101510000E94420162E088E00E94420162E089E0AC
:101520000E9442011092E1011092E00110927C02AF
:1015300010929E020E94FE0183E990E09093DD01EB
:101540008093DC0184E990E09093DF018093DE01D9
:101550001092D2028091D702823018F098E09093D6
:10156000D2028093D50262E370E080E090E00E94B6
:1015700098016091D8028DEC92E00E94790468EEA7
:1015800073E080E090E00E94980160E38DEC92E0CF
:101590000E947F060BE416E4C8010197F1F760E3AF
:1015A0008DEC92E00E947F06C8010197F1F760E39D
:1015B0008DEC92E00E947F0683E592E00197F1F7BF
:1015C00060E28DEC92E00E947F066091D202606240
:1015D00040E08DEC92E00E94980684E08093D30274
:1015E00040E06CE08DEC92E00E9498060E94AF060D
:1015F00082E08093D40240E066E08DEC92E00E94AD
:10160000980640E062E08DEC92E00E9498068BE341
:101610009FE10197F1F788E08093D80260E08DECBC
:1016200092E00E94790460E085E00E94BA0688ECAE
:1016300090E00E94F30661E086E00E94BA0682EC28
:1016400090E00E94F30660ED77E080E090E00E9479
:1016500098010E94AF0660E083E00E94BA0686E42B
:1016600091E00E9419058FEF93E00E942F118435BD
:1016700009F024C1ABE1EA2EA2E0FA2E10E000E06E
:10168000C8010E942F11F70181937F010F5F1F4F47
:1016900008301105A9F773E9E72E70E0F72EE4E9A9
:1016A000CE2EE0E0DE2E11E008E61092E10110926D
:1016B000E00110927C0210929E020E94FE01F092C4
:1016C000DD01E092DC01D092DF01C092DE011093D7
:1016D0007B0200939D020E943D02811124C1109360
:1016E0007B0210927C0210929E0260E081EC92E0FC
:1016F0000E944A040E943D0261E088E60E942403A1
:101700008093E00181EC92E00E94030487FF0CC00B
:101710000E94AF0688E591E00E94190560ED77E030
:1017200080E090E00E9498010E94AF060E94CA01EA
:101730006AE0662E62E0762E0E94CA01C0900F0217
:10174000D0901002E0901102F09012026C197D0905
:101750008E099F09643171058105910508F495C0D2
:101760000E94CA0160930F027093100280931102CD
:101770009093120286E00E94EB007C0187E00E94B9
:10178000EB0001E0892B21F0EF2809F400E001953E
:1017900088E00E94EB00892B09F402E089E00E94B6
:1017A000EB00892B09F403E022EEC22E21E0D22EB9
:1017B00036EFE32E31E0F32E4BE0842E41E0942E01
:1017C0005AE0A52E52E0B52E11E0412C4110B2C0D6
:1017D000F40180818013AEC0442443945524539473
:1017E000F50181915F018515A9F0552009F4A4C088
:1017F000812F0E9401050E94CA01F7016083718355
:1018000082839383F6016083718382839383F501DE
:1018100031975082552061F10E94CA01F701208161
:10182000318142815381621B730B840B950B613DA7
:10183000774081059105E0F00E94CA01F601208100
:10184000318142815381621B730B840B950B6B3F7B
:1018500071058105910560F08A2D861980680E94C6
:1018600001050E94CA01F60160837183828393831C
:101870001F5FF4E0CF0ED11C24E0E20EF11C8FEFCD
:10188000881A980A163009F0A1CF909119021916FA
:101890000CF46AC010922E0210E0E0912902E730A9
:1018A00008F0FFC0F0E0E95AF34F0C948411E00C0B
:1018B000C10D640EF90E930F1510AD1088E394E07E
:1018C000A0E0B0E080931B0290931C02A0931D0245
:1018D000B0931E0288E691E0A0E0B0E080931F0282
:1018E00090932002A0932102B0932202FBE1EF2EFD
:1018F000F2E0FF2E10E000E0F701D1907F01C80177
:101900000E942F11D81621F06D2DC8010E943711A9
:101910000F5F1F4F0830110579F764E58FEF93E0F3
:101920000E943711B8CE0E94AF0681E591E00E9477
:101930001905BBCE512C54CF0E94CA01F70120815A
:10194000318142815381621B730B840B950B613D86
:1019500077408105910528F0812F806C0E94010558
:1019600056CF812F8064FACF80911802E82FF0E0E3
:10197000ED5EFD4F10819150909319028F5F85307D
:10198000E0F48093180210932E02112309F485CFFE
:101990000E94CA010E94CA0160932A0270932B021E
:1019A00080932C0290932D0288E08093D80260E00F
:1019B0008DEC92E00E94790470CF10921802E3CF70
:1019C00081E0113821F0123809F073C083E0809370
:1019D00029020E94AF060E94CA01C0902502D09041
:1019E0002602E0902702F09028026C197D098E09EA
:1019F0009F09693E73408105910508F452C00E9419
:101A0000CA01609325027093260280932702909367
:101A100028020E941408CE0101960E94D9058C81EB
:101A20002CE3829F70011124CE0109960E94D905F2
:101A30008D858E0D9F2D911D9093240280932302FE
:101A400040911F0250912002609121027091220268
:101A5000C0901B02D0901C02E0901D02F0901E026C
:101A6000092E000CAA0BBB0B20911A02C416D50636
:101A7000E606F7060CF07EC08C159D05AE05BF0589
:101A80000CF46EC084179507A607B7070CF068C062
:101A9000211107C061E081E10E94140181E080937F
:101AA0001A0280E090E0892B09F446CE0E940000E3
:101AB0003FCE85E0133809F48ACF113009F08BCF7F
:101AC0000E94AF0660E080E00E94BA0640911B02CF
:101AD00050911C0260911D0270911E02CE01019670
:101AE0000E949E079F938F938FE591E09F938F9322
:101AF00082E0D82EDF9290EBE92E92E0F92EFF9251
:101B0000EF920E9445070E94190561E080E00E9463
:101B1000BA0640911F0250912002609121027091FB
:101B20002202CE0101960E949E079F938F9388E622
:101B300091E09F938F93DF92FF92EF920E9445076F
:101B40000E94190560ED77E080E090E00E94980126
:101B50000E94AF060FB6F894DEBF0FBECDBF3BCFDD
:101B6000213009F09ECF60E081E10E9414011092C3
:101B70001A0297CF8C159D05AE05BF050CF088CFD6
:101B800081CF0E94CA01C0902502D0902602E09029
:101B90002702F09028026C197D098E099F096D3289
:101BA00071408105910598F080910201882309F424
:101BB00058C00E941408109202010E94CA0160934A
:101BC0002502709326028093270290932802809129
:101BD0002E02823009F051C0CE0109960E94D9052B
:101BE000EE84CE010F960E94D905DB88CE01459682
:101BF0000E94D905888DF12C883130F4CE014B96A6
:101C00000E94D905FE8CF394CE0181960E94D905DD
:101C1000CBA0CE0187960E94D905B8A4CE018D969F
:101C20000E94D9058DA58983BA82CB82FC82DD8290
:101C3000EE82CE0101960E948C040E94CA01C090DF
:101C40002A02D0902B02E0902C02F0902D026C1909
:101C50007D098E099F09613177428105910530F533
:101C600020CF60E082E00E94BA0683E491E00E9407
:101C7000190581E080930201A0CF8330A9F4CE0141
:101C800009960E94D905EE84CE010F960E94D905CF
:101C9000DB88CE0145960E94D905CE014B960E9465
:101CA000D905FE8CFA94B0CF813039F682E080936A
:101CB00029020E94CA0160932A0270932B0280932A
:101CC0002C0290932D02EDCE0E94CA01C0902502F5
:101CD000D0902602E0902702F09028026C197D092E
:101CE0008E099F096D3271408105910598F08091B0
:101CF0000201882309F458C00E94140810920201BE
:101D00000E94CA01609325027093260280932702E5
:101D10009093280280912E02823009F051C0CE01AA
:101D200009960E94D905EE84CE010F960E94D9052E
:101D30008B89F12C8C3330F4CE0145960E94D90565
:101D4000F98CF394CE014B960E94D905DE8CCE011E
:101D500081960E94D905CBA0CE0187960E94D90515
:101D6000B8A4CE018D960E94D9058DA58983BA822B
:101D7000CB82DC82FD82EE82CE0101960E948C0431
:101D80000E94CA01C0902A02D0902B02E0902C023F
:101D9000F0902D026C197D098E099F0961317742FF
:101DA0008105910508F57DCE60E085E00E94BA06C8
:101DB00083E491E00E94190581E080930201A0CFA5
:101DC000833081F4CE0109960E94D905EE84CE01BC
:101DD0000F960E94D905CE0145960E94D905F98C2F
:101DE000FA94B0CF813061F6109229020E94AF06BA
:101DF00058CE0E94CA01C0902502D0902602E090E1
:101E00002702F09028026C197D098E099F096D3216
:101E100071408105910568F180910201882309F4E0
:101E20005CC060E080E00E94BA0681E791E00E9419
:101E3000190561E080E00E94BA0640911B025091B2
:101E40001C0260911D0270911E0280EB92E00E94C4
:101E50009E070E9470050E941905109202010E94BF
:101E6000CA01609325027093260280932702909303
:101E7000280280912E028230E1F580911B02909120
:101E80001C02A0911D02B0911E02CC96A11DB11D95
:101E9000803A25E09207A105B1051CF080E090E0B2
:101EA000DC0180931B0290931C02A0931D02B0934F
:101EB0001E020E94CA01C0902A02D0902B02E0901C
:101EC0002C02F0902D026C197D098E099F09613159
:101ED00077428105910518F5E4CD61E080E00E942C
:101EE000BA0683E491E00E94190581E08093020123
:101EF000B6CF833091F480911B0290911C02A09187
:101F00001D02B0911E02CC97A109B109B7FFC9CF3C
:101F10008FE995E0A0E0B0E0C4CF813051F684E0D5
:101F200080932902BECD0E94CA01C0902502D090A4
:101F30002602E0902702F09028026C197D098E0994
:101F40009F096D3271408105910568F18091020110
:101F5000882309F449C060E080E00E94BA0681E766
:101F600091E00E94190561E080E00E94BA0640916C
:101F70001B0250911C0260911D0270911E0280EBA9
:101F800092E00E949E070E9470050E94190510921F
:101F900002010E94CA016093250270932602809379
:101FA00027029093280280912E02823049F5809179
:101FB0001B0290911C02A0911D02B0911E0201967D
:101FC000A11DB11D803A25E09207A105B1051CF0C5
:101FD00080E090E0DC0180931B0290931C02A093B0
:101FE0001D02B0931E02CCCE61E083E00E94BA06CF
:101FF00083E491E00E94190581E080930201C9CF3A
:10200000833009F0EFCE80911B0290911C02A091C9
:102010001D02B0911E020197A109B109B7FFDBCFE4
:102020008FE995E0A0E0B0E0D6CF0E94CA01C09051
:102030002502D0902602E0902702F09028026C1929
:102040007D098E099F096D3271408105910568F106
:1020500080910201882309F45CC060E080E00E9466
:10206000BA068FE791E00E94190561E080E00E94C6
:10207000BA0640911F025091200260912102709196
:10208000220280EB92E00E949E070E9470050E944F
:102090001905109202010E94CA01609325027093F3
:1020A0002602809327029093280280912E0282308C
:1020B000E1F580911F0290912002A0912102B09140
:1020C0002202CC96A11DB11D803A25E09207A10500
:1020D000B1051CF080E090E0DC0180931F0290933A
:1020E0002002A0932102B09322020E94CA01C09054
:1020F0002A02D0902B02E0902C02F0902D026C1955
:102100007D098E099F09613177428105910518F596
:10211000C8CC61E080E00E94BA0683E491E00E94AE
:10212000190581E080930201B6CF833091F480914C
:102130001F0290912002A0912102B0912202CC971F
:10214000A109B109B7FFC9CF8FE995E0A0E0B0E0E0
:10215000C4CF813051F686E0E3CE0E94CA01C09020
:102160002502D0902602E0902702F09028026C19F8
:102170007D098E099F096D3271408105910568F1D5
:1021800080910201882309F449C060E080E00E9448
:10219000BA068FE791E00E94190561E080E00E9495
:1021A000BA0640911F025091200260912102709165
:1021B000220280EB92E00E949E070E9470050E941E
:1021C0001905109202010E94CA01609325027093C2
:1021D0002602809327029093280280912E0282305B
:1021E00049F580911F0290912002A0912102B091A7
:1021F00022020196A11DB11D803A25E09207A1059A
:10220000B1051CF080E090E0DC0180931F02909308
:102210002002A0932102B0932202B2CD61E083E0BC
:102220000E94BA0683E491E00E94190581E0809340
:102230000201C9CF833009F0D5CD80911F02909162
:102240002002A0912102B09122020197A109B109B7
:10225000B7FFDBCF8FE995E0A0E0B0E0D6CFF999EA
:10226000FECF92BD81BDF89A992780B50895262F9B
:10227000F999FECF1FBA92BD81BD20BD0FB6F8946B
:10228000FA9AF99A0FBE01960895991B79E004C055
:10229000991F961708F0961B881F7A95C9F78095A5
:1022A000089597FB072E16F4009407D077FD09D008
:1022B0000E948A1107FC05D03EF4909581959F4FAE
:1022C0000895709561957F4F0895052E97FB1EF434
:1022D00000940E947C1157FD07D00E949E1107FCBC
:1022E00003D04EF40C947C11509540953095219577
:1022F0003F4F4F4F5F4F0895909580957095619532
:102300007F4F8F4F9F4F0895EE0FFF1F0590F49161
:10231000E02D0994AA1BBB1B51E107C0AA1FBB1FDC
:10232000A617B70710F0A61BB70B881F991F5A9561
:10233000A9F780959095BC01CD010895A1E21A2ED0
:10234000AA1BBB1BFD010DC0AA1FBB1FEE1FFF1F59
:10235000A217B307E407F50720F0A21BB30BE40BA9
:10236000F50B661F771F881F991F1A9469F76095F0
:102370007095809590959B01AC01BD01CF010895AA
:10238000FB01DC010D900020E9F7119701900D92FF
:102390000020E1F70895FB01DC0101900D9200207F
:1023A000E1F70895FB01DC014150504048F00190F5
:1023B0000D920020C9F701C01D9241505040E0F736
:0623C0000895F894FFCF20
:1023C6000301010000400014005400000102030450
:1023D600000000004A041D04FE04F303160403046F
:1023E600F40300000000ED069500FE04D60130005F
:1023F60020504D0020414D0020504D20202000202F
:10240600414D202020004C6F6164696E672E2E2E90
:102416000045525220303100455252203032004F92
:102426004E2054494D203A004F46462054494D3AD5
:1024360000534554204F4E2054494D45203A0053F1
:0E2446004554204F46462054494D45203A004B
:00000001FF
