:020000040000FA
:100000000C9463000C948B000C948B000C9475176B
:100010000C9475170C9475170C948B000C948B0032
:100020000C940C190C948B000C948B000C948B008A
:100030000C948B000C948B000C948B000C948B0014
:100040000C942B170C948B000C94F9160C94D3166B
:100050000C948B000C948B000C948B000C948B00F4
:100060000C94ED170C948B00000000002400270076
:100070002A0000000008000201000003040700003D
:1000800000000000000000000000230026002900FE
:1000900000000000250028002B00040404040404D0
:1000A0000404020202020202030303030303010227
:1000B00004081020408001020408102001020408F6
:1000C0001020BF19321D11241FBECFEFD8E0DEBFB4
:1000D000CDBF11E0A0E0B1E0EEECFFE302C005907F
:1000E0000D92A63FB107D9F725E0A6EFB1E001C018
:1000F0001D92A336B207E1F710E0C2E6D0E004C0DB
:100100002197FE010E94AF1EC136D107C9F70E9498
:10011000B61A0C94DA1F0C940000A7EEB3E0119607
:100120008C93119790E0FC01E255FF4FE4911496F7
:10013000EC931497FC01E656FF4FE491F0E0EE0FCC
:10014000FF1FEA57FF4F8591949113969C938E93CE
:10015000129708950F931F93CF93DF93E091E704D5
:10016000F091E8044091C902808510E0481708F03A
:1001700064C0142F11700091C80201114FC0842F68
:1001800090E0880F991FE80FF91F0184F285E02D98
:100190002CEE3FEF112311F024E130E0C091C602B4
:1001A000D091C7022C0F3D1FC90163E470E00E948B
:1001B000871EE617F70760F0C90168E270E00E9449
:1001C000871E6F5F7F4F81E090E06E177F0710F50D
:1001D0002C0F3D1FC90163E470E00E94871EE617E3
:1001E000F70750F0C90168E270E00E94871E6F5F58
:1001F0007F4F6E177F0760F42C0F3D1FC90163E42A
:1002000070E00E94871EE617F707E8F41FEF15C09D
:1002100082E090E09093C5028093C4020F5F009348
:10022000C8028091C4029091C5020817190628F0EF
:100230001092C8024F5F4093C902812FDF91CF9186
:100240001F910F910895C90168E270E00E94871E16
:100250006F5F7F4F6E177F07C8F283E090E0DACFC1
:1002600008950895FC01538D448D252F30E0842F8F
:1002700090E0821B930B541710F0CF9608950197CE
:100280000895FC01918D828D981761F0A28DAE0FBB
:10029000BF2FB11D5D968C91928D9F5F9F73928F42
:1002A00090E008958FEF9FEF0895FC01918D828D6E
:1002B000981731F0828DE80FF11D858D90E008953B
:1002C0008FEF9FEF0895FC01918D228D892F90E093
:1002D000805C9F4F821B91098F7399270895FC01C1
:1002E000A48DA80FB92FB11DA35ABF4F2C91848D97
:1002F00090E001968F739927848FA689B7892C93F4
:10030000A089B1898C91837080648C93938D848D46
:10031000981306C00288F389E02D80818F7D808349
:100320000895EF92FF920F931F93CF93DF93EC0109
:1003300081E0888F9B8D8C8D98131AC0E889F9898C
:10034000808185FF15C09FB7F894EE89FF8960838F
:10035000E889F98980818370806480839FBF81E010
:1003600090E0DF91CF911F910F91FF90EF90089552
:10037000F62E0B8D10E00F5F1F4F0F731127E02E2D
:100380008C8D8E110CC00FB607FCFACFE889F98965
:10039000808185FFF5CFCE010E946F01F1CFEB8DFB
:1003A000EC0FFD2FF11DE35AFF4FF0829FB7F89439
:1003B0000B8FEA89FB8980818062CFCFCF93DF9357
:1003C000EC01888D8823B9F0AA89BB89E889F9896D
:1003D0008C9185FD03C0808186FD0DC00FB607FCA2
:1003E000F7CF8C9185FFF2CF808185FFEDCFCE01D5
:1003F0000E946F01E9CFDF91CF9108958EE393E0E2
:100400000E94630121E0892B09F420E0822F0895E6
:1004100080E090E0892B29F00E94FE0181110C946C
:1004200000000895AF92BF92CF92DF92EF92FF92B9
:100430000F931F93CF93DF936C017B018B01040F0C
:10044000151FEB015E01AE18BF08C017D10759F0A8
:100450006991D601ED91FC910190F081E02DC601EA
:100460000995892B79F7C501DF91CF911F910F91E4
:10047000FF90EF90DF90CF90BF90AF9008958330C2
:1004800081F028F4813099F08230A9F00895873006
:10049000A9F08830C9F08430B1F4809180008F7D5C
:1004A00003C0809180008F7780938000089584B589
:1004B0008F7784BD089584B58F7DFBCF8091B00088
:1004C0008F778093B00008958091B0008F7DF9CF31
:1004D000CF93DF93E7E7F0E08491E3EBF0E0D49192
:1004E000EFE9F0E0C491CC23A1F081110E943F021A
:1004F000EC2FF0E0EE0FFF1FEA57FF4FA591B491EC
:10050000EC91ED2381E090E009F480E0DF91CF9160
:10051000089580E090E0FACF1F93CF93DF93282FC8
:1005200030E0F901EE58FF4F8491F901E255FF4F99
:10053000D491F901E656FF4FC491CC23A9F0162FB0
:1005400081110E943F02EC2FF0E0EE0FFF1FE057F9
:10055000FF4FA591B4918FB7F894EC91111108C099
:10056000D095DE23DC938FBFDF91CF911F9108954B
:10057000DE2BF8CFCF93DF9390E0FC01E255FF4FE5
:10058000249186569F4FFC0184918823C9F090E006
:10059000880F991FFC01E859FF4FA591B491FC0108
:1005A000E057FF4FC591D49161110DC09FB7F894EA
:1005B0008C91209582238C938881282328839FBF48
:1005C000DF91CF910895623051F49FB7F8943C9138
:1005D000822F809583238C93E8812E2BEFCF8FB7CA
:1005E000F894EC912E2B2C938FBFEACF3FB7F89461
:1005F0008091A0029091A102A091A202B091A302C9
:1006000026B5A89B05C02F3F19F00196A11DB11D6D
:100610003FBFBA2FA92F982F8827BC01CD01620FA9
:10062000711D811D911D42E0660F771F881F991F64
:100630004A95D1F708958F929F92AF92BF92CF9231
:10064000DF92EF92FF926B017C010E94F6024B0158
:100650005C01C114D104E104F104B9F00E94F60276
:10066000681979098A099B09683E734081059105DB
:1006700080F321E0C21AD108E108F10888EE880E63
:1006800083E0981EA11CB11CE4CFFF90EF90DF9097
:10069000CF90BF90AF909F908F9008952FB7F89410
:1006A00060919C0270919D0280919E0290919F02A8
:1006B0002FBF08950F931F938091F4049091F50438
:1006C000DC01ED91FC910084F185E02D0995892BE9
:1006D00009F4D7C060E070E0CB010E941B032091B9
:1006E00012058091F4049091F504DC01ED91FC91E8
:1006F0000284F385E02D21110BC009958093FE043F
:100700008E37D1F6809112058F5F80931205D4CF7A
:10071000099590911205E92FF0E0EC50FB4F82878C
:100720009230B9F09930D9F09130A9F48F3F99F017
:100730001092120581E08093140510921705109213
:100740001605809318051092190580E01F910F91EE
:100750000895863069F79F5F90931205ADCF8F3E65
:1007600039F7209100058091FF04280F3327331FAC
:10077000E0910105C9018E0F911D20910205280FFE
:10078000392F311D4091030550E0240F351F809112
:10079000040590E06091050570E0762F6627F091E2
:1007A00006056F0F711D280F391F319521953109ED
:1007B0006217730709F0BCCF10921205E13419F4E7
:1007C000109219052FC0E0931505542F4427840F6C
:1007D000951F9093170580931605EA53E63108F0AC
:1007E00046C0F0E0EA50FC4F0C94AF1E23042B04EB
:1007F00035040C043504150433043704350435047A
:10080000350435043504350435043504370435041E
:10081000350435043504350485E08093140581E002
:10082000809318058091180591CF80FF02C089E060
:10083000F4CF81FF02C084E0F0CF83709927892B29
:1008400089F38AE0EACF80FF02C087E0E6CF81FF2C
:10085000E9CF82E0E2CF80FF02C088E0DECF81FFF7
:10086000E1CF83E0DACF86E0D8CF8BE0D6CF81E04E
:1008700080931405109217051092160580931805A1
:100880009FCF80911905882369F20E944E03009141
:10089000F6041091F7042091F8043091F904601BDC
:1008A000710B820B930B0091FA041091FB042091C1
:1008B000FC043091FD04601771078207930708F468
:1008C000B1CF1092120510921405109217051092D4
:1008D000160581E036CF80930B05272F30E070930B
:1008E0000D0560930E0540910A0590910905490F89
:1008F0005527551F840F952F911D40910C05840F8E
:10090000911D820F931F680F792F711D719561954D
:10091000710970930F0560931005442361F0809175
:100920001905882341F060E070E0CB010E941B03B1
:100930000E945A03F4CF8091F4049091F504DC01F5
:10094000ED91FC910280F381E02D4AE050E068E0F7
:1009500075E009950E944E036093F6047093F704C6
:100960008093F8049093F90480910C0591E0811133
:1009700001C090E090931905811106C06AE070E013
:1009800080E090E00C941B030895782F8FE00C9486
:100990006B0470E060E086E10C946B042091A60289
:1009A0003091A7022817390771F49091A402809121
:1009B000A502981741F0E091A402F0E0E55AFD4F3E
:1009C000808190E008958FEF9FEF08950895EF9252
:1009D000FF920F931F93CF93DF93DC015C96ED9012
:1009E000FC905D97E114F10479F481E090E01396B6
:1009F0009C938E93129790E080E0DF91CF911F91AE
:100A00000F91FF90EF9008955196ED91FC915297C0
:100A100050968C915097982F90950FB75E962C9189
:100A20005E97122F127021FD6095F894208111239A
:100A300019F1282B2083E7012197F1F728E0462FB1
:100A400050E0308160FF1AC0382B3083E7012197D6
:100A5000F1F7BA0175956795215089F7112381F057
:100A60008081892380830FBF5C968D919C91019733
:100A7000F1F781E090E0C1CF2923DCCF3923E5CF26
:100A80009081892BEFCF2091A6023091A7022817E1
:100A9000390761F48091A5022091A40290E0805C66
:100AA0009F4F821B91098F739927089590E080E0F2
:100AB00008952091A6023091A70228173907B9F4AA
:100AC0009091A4028091A502981789F0E091A40268
:100AD000F0E0E55AFD4F80812091A40230E02F5FC5
:100AE0003F4F2F7333272093A40290E008958FEF98
:100AF0009FEF0895FC018381882329F08C3021F039
:100B000018F08C5008958CE0089520913802260F3B
:100B10003327331F21323105ECF420911403FC01FB
:100B200090E080E0243069F082E00895A0913802DE
:100B30002191AC01485E5D4FA40FB52FB11D2C93E0
:100B40000196861798F380913802680F60933802F7
:100B500080E0089581E008951092140381E080936D
:100B600013031092EE0261E082E10E948C0261E0C8
:100B700083E10E948C02E9EBF0E080818E7F80832C
:100B800080818D7F808388E48093B80085E48093A2
:100B9000BC0008951092CD021092CC0210921B035B
:100BA00010923D030E94AC0580E391E09093AF0268
:100BB0008093AE0281E391E09093AD028093AC020A
:100BC0000895CF93DF9391E0909317028823B9F0B3
:100BD000C091B800D091BA008091BC008A7B80930C
:100BE000BC0060E082E10E948C0260E083E10E9430
:100BF0008C020E94AC05D093BA00C093B800DF917C
:100C0000CF9108958F929F92AF92BF92CF92DF9231
:100C1000EF92FF920F931F93CF93DF93D0913D03F9
:100C2000D13208F0D7C0182FC0913C030E94F602C1
:100C30006B017C018091140381116BC082E0809371
:100C40001403109313038FEF809312031092110378
:100C5000D0931003ACE1B3E0E0EFF2E080E0D81312
:100C600091C01092EF028091EF02CC0FC82BC0937D
:100C7000EF028091EE02813009F088C01092EE02FE
:100C80000E94F6026B017C018091EF028093BB0011
:100C90008091160390911703A0911803B091190346
:100CA000892B8A2B8B2BA1F00E94F6020091160350
:100CB0001091170320911803309119036C197D09C5
:100CC0008E099F09061717072807390708F442C03D
:100CD0008091BC0083FDD8CF85EC8093BC000E943E
:100CE000F6026B017C0180911403823009F450C03C
:100CF000809112038F3F09F46FC0809112038032FC
:100D000009F46CC080911203803309F469C084E057
:100D100026C08091160390911703A0911803B091FB
:100D20001903892B8A2B8B2B09F484CF0E94F6029E
:100D30008090160390901703A0901803B0901903A9
:100D40006C197D098E099F0986169706A806B906B3
:100D500008F070CF809115030E94E10585E01092A4
:100D60001B0310923D0310921A03DF91CF911F9144
:100D70000F91FF90EF90DF90CF90BF90AF909F903A
:100D80008F9008959D9191938F5F69CF85EEA5CF48
:100D90008091160390911703A0911803B091190345
:100DA000892B8A2B8B2B09F49ECF0E94F60200918F
:100DB00016031091170320911803309119036C1931
:100DC0007D098E099F09061717072807390708F0BC
:100DD0008ACFC0CF81E0C3CF80E0C1CF82E0BFCF58
:100DE00083E0BDCF1F93CF93DF93EA01122FDC0185
:100DF00011968D919C91DC01ED91FC910280F38123
:100E0000E02D0995C817D90729F4812F0E94020601
:100E100091E0811190E0892FDF91CF911F9108958A
:100E2000CF93DF93EC018B818823A1F0888191E03F
:100E300090931A0380933C0310921B0310923D037E
:100E400081E00E94020691E0811190E0892FDF91FC
:100E5000CF9108950E94CA0581E08B83CE010E9444
:100E60001007982F8111E2CFF1CFE091CD02809150
:100E7000CC02E81730F4F0E0E253FD4F808190E0BF
:100E800008958FEF9FEF08959091CD028091CC024D
:100E90002FEF3FEF981748F4E92FF0E0E253FD4FB2
:100EA000208130E09F5F9093CD02C9010895809129
:100EB000CC029091CD02891B990B0895CF92DF92BD
:100EC000EF92FF920F931F93CF93DF937C01CB019F
:100ED0008A0120911A03222389F0EB016B01C40ED1
:100EE000D51ECC15DD0569F06991D701ED91FC9116
:100EF0000190F081E02DC7010995F3CF642F0E9486
:100F00008505C801DF91CF911F910F91FF90EF9060
:100F1000DF90CF900895CF93DF931F92CDB7DEB7C8
:100F2000698320911A032223F9F020913D03203296
:100F300058F021E030E0FC013383228390E080E030
:100F40000F90DF91CF91089580911B03E82FF0E07F
:100F5000E45EFC4F998190838F5F80931B038093A5
:100F60003D0381E090E0ECCF61E0CE0101960E946C
:100F70008505F7CF90E080E008952F923F924F9241
:100F80005F926F927F928F929F92AF92BF92CF9219
:100F9000DF92EF92FF920F931F93CF93DF935C0149
:100FA0001B016A01F12CE12CD50114968D919C91C5
:100FB00086010E191F098017910708F48C01F501AD
:100FC000D0810E94F6022B013C0180911403811113
:100FD00072C0C02F013208F0C0E2F1E0F0931403B8
:100FE00021E0C601801B910BE816F90608F420E009
:100FF000209313038FEF80931203109211038C0F31
:1010000080931003A1E0A093EF028091EF02DD0F27
:10101000D82BD093EF028091EE02813009F090C07E
:101020001092EE020E94F6022B013C018091EF0229
:101030008093BB008091160390911703A091180331
:10104000B0911903892B8A2B8B2BA1F00E94F602F9
:101050002091160330911703409118035091190302
:10106000641975098609970926173707480759072C
:1010700008F442C08091BC0083FDD8CFB5ECB0939A
:10108000BC000E94F6022B013C01809114038130C8
:1010900009F45AC0809111038C1710F4C091110308
:1010A000A0EFB2E0EEECF2E080E08C1751F19D9100
:1010B00091938F5FFACF8091160390911703A091BF
:1010C0001803B0911903892B8A2B8B2B09F47DCF40
:1010D0000E94F602209116033091170340911803E5
:1010E000509119036419750986099709261737075E
:1010F0004807590708F069CF809115030E94E10560
:10110000C0E01092CD02C093CC02C017110609F0C6
:1011100057C041018E0C9F1CE401CE01881999092A
:101120008017910798F5D50111968D919C91DC015E
:10113000ED91FC910284F385E02D09958993EDCF23
:10114000E5EEE093BC009DCF8091160390911703CC
:10115000A0911803B0911903892B8A2B8B2B09F4CA
:1011600094CF0E94F602209116033091170340910C
:1011700018035091190364197509860997092617F0
:1011800037074807590708F080CFB6CFE00EF11EA9
:10119000EC14FD0408F408CF81E0DF91CF911F919A
:1011A0000F91FF90EF90DF90CF90BF90AF909F9006
:1011B0008F907F906F905F904F903F902F90089509
:1011C00080E0EBCF0F931F93CF93DF93CDB7DEB7C4
:1011D00028970FB6F894DEBF0FBECDBFDC018E019D
:1011E0000F5F1F4F86E0F80111928A95E9F7159677
:1011F0003C9115972AE0832F622F0E947B1E982F27
:10120000880F890F880F830F8A8314963C91149757
:10121000832F0E947B1E982F880F890F880F830FC2
:101220008B8313963C911397832F0E947B1E982FDC
:10123000880F890F880F830F8C8312963C91129729
:10124000832F0E947B1E982F880F890F880F830F92
:101250008E8311963C911197832F0E947B1E982FAD
:10126000880F890F880F830F8F833C91832F0E94F3
:101270007B1E982F880F890F880F830F8887809196
:10128000CA029091CB02FC012481358128303105BE
:1012900080F0208131E030931A0320933C031092B8
:1012A0001B0310923D0321E048E050E0B8010E948A
:1012B000F20628960FB6F894DEBF0FBECDBFDF91C1
:1012C000CF911F910F910895EF92FF920F931F936B
:1012D000CF93DF9300D000D000D01F92CDB7DEB700
:1012E0008C011982E090CA02F090CB02D7011496CB
:1012F0008D919C911597892BE9F08C9191E09093B9
:101300001A0380933C0310921B0310923D0320E0CC
:1013100041E050E0BE016F5F7F4FC7010E94F206BF
:10132000882341F047E050E0BE016F5F7F4FC70167
:101330000E94BD07E981EF77FA81FB804D815E81D4
:101340008F81282F30E094E0359527959A95E1F725
:10135000922F990F990F291B220F280FD8012C9338
:10136000852F90E024E0959587952A95E1F7982FB1
:10137000990F990F891B880F850F11968C931197E0
:10138000642F70E034E0759567953A95E1F7862F04
:10139000880F880F681B660F640F12966C93129764
:1013A0004F2D50E064E0559547956A95E1F7842FFD
:1013B000880F880F481B440F4F0D13964C931397BB
:1013C0002F2F30E074E0359527957A95E1F7822F3D
:1013D000880F880F281B220F2F0F14962C93149719
:1013E0008E2F90E0F4E095958795FA95E1F7982F88
:1013F000990F990F891B880F8E0F15968C93C80132
:1014000027960FB6F894DEBF0FBECDBFDF91CF9108
:101410001F910F91FF90EF9008950F931F93CF931B
:10142000DF93CDB7DEB72C970FB6F894DEBF0FBEB3
:10143000CDBF0E944E030091120210911302209121
:10144000140230911502601B710B820B930B653FE8
:1014500071408105910508F463C00E944E036093BA
:101460001202709313028093140290931502CE011E
:1014700007960E946409CE0107960E947A058A3079
:1014800008F459C0CE0101960E946409CE0101966C
:101490000E947A056AE00E947B1EE82FF0E0E95E78
:1014A000FE4F80818093AB02CE0101960E946409B9
:1014B000CE0101960E947A051AE0612F0E947B1EE0
:1014C000E92FF0E0E95EFE4F80818093AA02CE0111
:1014D00001960E9464098D81612F0E947B1EE82F76
:1014E000F0E0E95EFE4F80818093A902CE01019673
:1014F0000E9464098D81612F0E947B1EE92FF0E01C
:10150000E95EFE4F80818093A802809101018823CB
:10151000A1F08091AB028F778093AB021092010112
:101520002C960FB6F894DEBF0FBECDBFDF91CF91E2
:101530001F910F9108958FEFB5CFCE0107960E94AE
:101540006409CE0107960E947A058A30B0F0CE0178
:1015500001960E946409CE0101960E947A05612FCE
:101560000E947B1EE82FF0E0E95EFE4F80818093B1
:10157000AB0281E080930101D3CF8FEFF8CF7F9250
:101580008F929F92AF92BF92CF92DF92EF92FF9293
:101590000F931F93CF93DF93782EEA01E091E70436
:1015A000F091E8043F968B010C5E1F4F43E4C42E7C
:1015B000D12CC801B6010E94871E5B0158E2E52EBE
:1015C000F12CC801B7010E94871E8B010F5F1F4FCE
:1015D0006497CE01B6010E94871E4B01CE01B70170
:1015E0000E94871EEB01219624513109C901B601E1
:1015F0000E94871E6B01C901B7010E94871E6F5FA1
:101600007F4F20E030E0A901A0E0808191818A1520
:101610009B0570F10817190758F18281938188158D
:10162000990518F1C817D90728F1220F331F441F55
:10163000551F21603496AF5F7A12E7CF2093DB0409
:101640003093DC044093DD045093DE0481E0DF91AD
:10165000CF911F910F91FF90EF90DF90CF90BF90AF
:10166000AF909F908F907F9008958C159D0510F4FA
:1016700080E0EDCF68177907D8F3220F331F441F9E
:10168000551FD8CFCF93DF93D82FC8E06D2F661F9B
:101690006627661F88E00E948C02DD0F61E086E00D
:1016A0000E948C0260E086E00E948C02C15071F7BB
:1016B000DF91CF91089560E087E00E948C028091D5
:1016C000A8020E94420B8091A9020E94420B8091C5
:1016D000AA020E94420B8091AB020E94420B61E081
:1016E00087E00C948C02FF920F931F93CF93DF93AC
:1016F00000EB12E0D0E0C0E0F801F1908F01CE01E4
:101700000E94F21DF81621F06F2DCE010E94FA1DE5
:101710002196C431D10581F780EB92E0DF91CF9122
:101720001F910F91FF90089585ED8093BC008091EB
:10173000160390911703A0911803B091190307960F
:10174000A11DB11D23E0B695A795979587952A957C
:10175000D1F72091BC0024FD03C01092140308951A
:10176000409116035091170360911803709119036B
:10177000452B462B472B69F30097A105B10541F096
:101780002AE22A95F1F700C00197A109B109E1CF3A
:10179000809115030C94E105CF92DF92EF92FF92B6
:1017A0007C0180910201823099F138F48130C1F0DE
:1017B000FF90EF90DF90CF9008958330C9F189308A
:1017C000B9F70E946802892B99F381E080930201A6
:1017D00010921602FF90EF90DF90CF900C944E0382
:1017E0000E946802892B21F36091B8027091B902BE
:1017F0006115710549F083E00E94C50468EE73E04D
:1018000080E090E00E941B0382E080930201D0CF31
:101810000E946802892B61F26E2D81E00E94C5044E
:1018200068EE73E080E090E00E941B0383E0EDCF60
:101830000E946802892B09F4BBCF8091B00290917D
:10184000B1028E159F05F1F40397E1F06091B402A7
:101850007091B5026115710549F5C090BE02D09036
:10186000BF020D2C000CEE08FF0860E01C141D04E4
:101870001E041F04DCF40E949A1DA70196010E9419
:101880003A1E14C08091B2029091B3029C01245F71
:101890003F4F2E153F0599F4039789F08091B402CC
:1018A0009091B5026091B602892BB9F282E00E9454
:1018B000C50468EE73E080E090E00E941B0389E0BD
:1018C000A4CFBF92CF92DF92EF92FF920F931F931C
:1018D000CF93DF93CDB7DEB7E0970FB6F894DEBFB6
:1018E0000FBECDBF0E945B0B10911102112351F06E
:1018F0000E944E0360930D0270930E0280930F02BC
:101900009093100280911602823009F4D8C108F039
:1019100082C0882309F46AC1813009F4FCC21092A4
:1019200011028091E703833011F00C9479168091B5
:10193000F601811113C04BE950E067E571E08EE3D9
:1019400093E00E94120242E050E063EF71E08EE308
:1019500093E00E94120281E08093F60180EF93E011
:1019600090930402809303028091EF038093050219
:101970009091EE03992321F01092EE031092EF0361
:101980009091EE03909306021092FB011092FC01DD
:101990001092FD011092FE0190E89093DA042091DC
:1019A000F2033091F303265831092C35310590F4B8
:1019B000843009F0D0C58091F4039091F5038197AC
:1019C000489740F48091F6039091F70308970897A1
:1019D00008F4FFC5209105022A3108F430C6E091D1
:1019E0000302F0910402808191810A9708F008C6F1
:1019F0001092FF018FEF9FEFDC018093FB0190932A
:101A0000FC01A093FD01B093FE0181E08093DA0414
:101A100082E190E0F0C5843009F466C108F424C581
:101A2000853009F07CCF0E944E0300911202109184
:101A300013022091140230911502601B710B820B6E
:101A4000930B6D3271408105910508F45FC0809160
:101A50000001882309F43EC2CE0107960E94640962
:101A6000CE0107960E947A058A3008F431C2CE0171
:101A700001960E946409CE0101960E947A056AE0EF
:101A80000E947B1EE82FF0E0E95EFE4F808180938C
:101A9000AB02CE0101960E946409CE0101960E941C
:101AA0007A051AE0612F0E947B1EE92FF0E0E95EC3
:101AB000FE4F80818093AA02CE0101960E946409A4
:101AC0008D81612F0E947B1EE82FF0E0E95EFE4FC2
:101AD00080818093A902CE0101960E9464098D81C4
:101AE000612F0E947B1EE92FF0E0E95EFE4F8081AE
:101AF0008093A802109200010E944E03609312028C
:101B00007093130280931402909315028091110236
:101B1000853089F5CE0185960E9464090AA5CE011B
:101B20004F960E9464098BA110E08C3330F4CE01F3
:101B300049960E9464091D8D1F5FCE0143960E9445
:101B40006409FE88CE010D960E946409EF84CE01DF
:101B500007960E946409D884CE0101960E94640908
:101B600089818BA7DCA6EDA6FEA61FA708ABCE0138
:101B70008B960E94E20880911102863079F5CE01A1
:101B800001960E9464090D810150110B0F3F10074F
:101B900011F40BE310E0CE0149960E9464091E8DFA
:101BA000CE0143960E946409FE88CE010D960E94E4
:101BB0006409EF84CE0107960E946409D884CE019F
:101BC00001960E94640989818F8FD8A2E9A2FAA2A6
:101BD0000BA31CA3CE014F960E94E2088091110234
:101BE000873009F080C11092160299CE0E940D0A2A
:101BF00080911102813009F057C084E08093160271
:101C00000E944E0360930D0270930E0280930F02A8
:101C100090931002CE0107960E9464098B85811172
:101C20007ECECE0101960E9464098E81811177CE0D
:101C30000E944E03AB01BC018091090290910A02FF
:101C4000A0910B02B0910C02885B9141AF4FBF4F46
:101C500084179507A607B70708F061CECE01019655
:101C60000E9464098C8190E02091BA023091BB02FD
:101C7000821793070CF453CE2091BC023091BD0221
:101C8000245F3F4F281739070CF449CE0E944E03BA
:101C90006093090270930A0280930B0290930C02E6
:101CA00082E0809316023BCE823011F481E0A6CF11
:101CB000873009F0AFCF83E080931602ABCF0E944C
:101CC0000D0ACE0101960E9464098C8190E00E9469
:101CD000CC0B80911102883009F021CE89E08093ED
:101CE00002010E94C9041BCE0E944E030091120201
:101CF000109113022091140230911502601B710B98
:101D0000820B930B6D3271408105910508F44EC032
:101D100080910001882309F4BEC0CE0107960E947D
:101D20006409CE0107960E947A058A3008F4AFC094
:101D3000CE0101960E946409CE0101960E947A05A7
:101D40006AE00E947B1EE82FF0E0E95EFE4F808192
:101D50008093AB02CE0101960E946409CE010196E8
:101D60000E947A056AE00E947B1EE92FF0E0E95E9E
:101D7000FE4F80818093AA02CE0101960E946409E1
:101D80008C818C3008F485C08CE88093A9028FEF99
:101D90008093A802109200010E944E0360931202E9
:101DA0007093130280931402909315028091110294
:101DB000853089F5CE0185960E9464090AA5CE0179
:101DC0004F960E946409FBA0CE0149960E946409C7
:101DD0008C8D10E0883130F4CE0143960E94640966
:101DE0001E891F5FCE010D960E946409EF84CE010B
:101DF00007960E946409D884CE0101960E94640966
:101E000089818BA7DCA6EDA61EA7FFA608ABCE0195
:101E10008B960E94E20880911102863069F5CE010E
:101E200085960E9464090AA5CE014F960E94640916
:101E3000FBA0CE0149960E946409CE0143960E9400
:101E400064091E891150CE010D960E946409EF8429
:101E5000CE0107960E946409D884CE0101960E94A3
:101E6000640989818BA7DCA6EDA61EA7FFA608AB97
:101E7000CE018B960E94E208109111021130A1F45C
:101E800010921602173009F04ACD85E00ACF8FEF85
:101E90005FCF88E87ACF8FEF8093AB028093AA025E
:101EA00081E08093000178CF0E944E03C0900D0224
:101EB000D0900E02E0900F02F09010026C197D0994
:101EC0008E099F096131774281059105C8F6DACF05
:101ED0008FEFDDCD8FEF8093A9028093A80281E080
:101EE0008093000109CE813009F47DCE0E944E031B
:101EF00000910D0210910E0220910F0230911002FC
:101F0000601B710B820B930B613177428105910548
:101F100008F069CE04CDE0910702F0910802E930A3
:101F2000F10508F082C0E956F04F0C94AF1EA00FE7
:101F3000F50F6E10B010ED102B117211B911EC11DC
:101F40008EE88093AB0299EF9093AA022091B002A1
:101F50003091B1022330310551F490EC9093A902F5
:101F60008093A802153061F524E030E023C08FEFA4
:101F70002A3031054CF0C9016AE070E00E949B1ED6
:101F8000FB01E95EFE4F80818093A902C9016AE0EE
:101F900070E00E949B1EFC01E95EFE4F80818093F1
:101FA000A802153069F42F5F3F4F2B30310514F034
:101FB00023E030E03093B1022093B0020E94730B13
:101FC00080911102863089F58091B0029091B10222
:101FD00001978330910514F48AE090E09093B10268
:101FE0008093B0020E94730B20C08EE88093AB02F6
:101FF00084EA8093AA022091B4023091B502C9010B
:102000006AE070E00E949B1E695E7E4FFB0140818A
:102010004093A902FC01E95EFE4F80818093A802F3
:102020001530B1F1163009F450C08091110284309E
:1020300081F40E94C90480910702909108020196E0
:102040008930910514F090E080E09093080280932D
:10205000070280911102833079F40E94C9048091B3
:10206000070290910802019797FF02C088E090E074
:10207000909308028093070280911102823009F048
:10208000DEC110921602109208021092070229CEA9
:102090002F5F3F4F8091BE029091BF02821793073E
:1020A00014F430E020E03093B5022093B4020E9493
:1020B000730B6091B40282E00E94C50464EF71E08A
:1020C00080E090E00E941B03B0CF2150310937FF20
:1020D000EACF2091BE023091BF02E5CF2EE82093D7
:1020E000AB0280EB8093AA028091B2029091B3027E
:1020F0008330910551F480EC8093A9022093A802CB
:102100001530D1F484E090E011C02FEF2093A902A4
:10211000FC01E95EFE4F20812093A802153061F496
:1021200001968A30910514F083E090E09093B30219
:102130008093B2020E94730B80911102863009F0E5
:1021400074CF8091B2029091B302019783309105D0
:1021500014F489E090E09093B3028093B20242CFEE
:102160008EE88093AB0289E98093AA022091B6029F
:102170003091B702C9016AE070E00E949B1E695E5F
:102180007E4FFB0140814093A902FC01E95EFE4FB6
:1021900080818093A802153061F0163009F045CF98
:1021A0002150310937FF10C02091BE023091BF028B
:1021B0000BC02F5F3F4F8091BE029091BF028217EC
:1021C000930714F430E020E03093B7022093B60276
:1021D0000E94730B6091B6026ECF8EE88093AB02C3
:1021E00082E98093AA022091B8023091B902C90114
:1021F0006AE070E00E949B1E695E7E4FFB01408199
:102200004093A902FC01E95EFE4F80818093A80201
:10221000153061F0163009F008CF2150310937FF31
:1022200010C02091C0023091C1020BC02F5F3F4F00
:102230008091C0029091C1028217930714F430E09C
:1022400020E03093B9022093B8020E94730B609192
:10225000B80283E031CF8EE88093AB0282E88093AE
:10226000AA022091BA023091BB028FEF2A303105C9
:102270004CF0C9016AE070E00E949B1EFB01E95E20
:10228000FE4F80818093A902C9016AE070E00E943C
:102290009B1EFC01E95EFE4F80818093A8021530F1
:1022A00069F42F5F3F4F2B30310514F024E030E00C
:1022B0003093BB022093BA020E94730B80911102EB
:1022C000863009F0B2CE8091BA029091BB0201979C
:1022D0008430910514F48AE090E09093BB028093DF
:1022E000BA0280CE8EE88093AB0288EF8093AA0278
:1022F0002091BC023091BD028FEF2A3031054CF0A5
:10230000C9016AE070E00E949B1EFB01E95EFE4F7E
:1023100080818093A902C9016AE070E00E949B1E3F
:10232000FC01E95EFE4F80818093A802153069F4BC
:102330002F5F3F4F2B30310514F025E030E0309314
:10234000BD022093BC020E94730B80911102863063
:1023500009F06BCE8091BC029091BD02019785304F
:10236000910514F48AE090E09093BD028093BC0242
:1023700039CE8EE88093AB0280E88093AA02209148
:10238000C0023091C102C9016AE070E00E949B1E48
:10239000695E7E4FFB0140814093A902FC01E95E2A
:1023A000FE4F80818093A802153051F0163009F05D
:1023B0003CCE2150310937FF0AC023E630E007C088
:1023C0002F5F3F4F2436310514F030E020E030938A
:1023D000C1022093C00206CE8EE88093AB0288E94A
:1023E0008093AA022091BE023091BF02C9016AE027
:1023F00070E00E949B1E695E7E4FFB01408140930E
:10240000A902FC01E95EFE4F80818093A80215308D
:1024100051F0163009F009CE2150310937FF0AC0BA
:1024200023E630E007C02F5F3F4F2436310514F01C
:1024300030E020E03093BF022093BE02D3CD0E9453
:102440004E0300910D0210910E0220910F02309167
:102450001002601B710B820B930B61337547810572
:10246000910508F00ECE5BCA0E940D0ACE010196BE
:102470000E9464098C8190E00E94CC0B8091110233
:10248000873029F489E0809302010E94C904809179
:102490001102853069F56091C2027091C3026F5FCD
:1024A0007F4F6F31710514F061E070E07093C302EB
:1024B0006093C202772786E00E946B0481EC8093D0
:1024C000AB0287EC8093AA028091C2029091C30272
:1024D0006AE070E00E949B1E695E7E4FFB012081D6
:1024E0002093A902FC01E95EFE4F80818093A8023F
:1024F00080911102863009F012CA6091C202709177
:10250000C302615071091616170614F06EE170E0EF
:102510007093C3026093C202772786E00E946B0427
:1025200081EC8093AB0287EC8093AA028091C20277
:102530009091C3026AE070E00E949B1E695E7E4F2C
:10254000FB0120812093A902FC01E95EFE4F8081FE
:102550008093A802E4C9843409F03CCA8091F40352
:102560009091F503825491098F9708F033CA20E3C4
:1025700032E040E956E060E372E080E20E94BF0A88
:10258000882309F427CAE0910302F0910402EA5774
:10259000FF4F808191810897089708F01BCA8091AE
:1025A000DB049091DC04A091DD04B091DE04809303
:1025B000FB019093FC01A093FD01B093FE0180E22A
:1025C0008093FF0187E090E09093F8018093F701FA
:1025D00012C01092FF018FEF9FEFDC018093FB018F
:1025E0009093FC01A093FD01B093FE0181E88093DC
:1025F000DA0487E090E09093D1048093D004CAC0BD
:102600008281938184974A97D0F463E070E010E070
:1026100080E090E0DC0130E06217730708F054C0FE
:1026200044815581485051094830510540F4468154
:1026300057814231510598F140325105D8F181E07E
:102640008093C90289E793E09093C7028093C60202
:102650001092C8020E94AA00813009F0BFC0C12CAC
:10266000D12C760110E0E091E704F091E804908528
:102670008091C902891708F03EC00E94AA00082F65
:102680000E94AA0001112DC0813009F0A7C0CC0C16
:10269000DD1CEE1CFF1C6894C0F81F5FE4CF4930BE
:1026A000510568F24131510550F6880F991FAA1F54
:1026B000BB1F05C0880F991FAA1FBB1F81601F5F2A
:1026C0006E5F7F4F3496A8CF1093FF018093FB017C
:1026D0009093FC01A093FD01B093FE0182E190E094
:1026E00073CF013009F07AC0811178C0CC0CDD1CA9
:1026F000EE1CFF1CD2CF812F90E09093D9048093E1
:10270000D804C092DB04D092DC04E092DD04F092A5
:10271000DE048C2D8F7390E09093D5048093D404C5
:10272000960146E0369527954A95E1F72F713327B4
:102730003093D3042093D204960122273071232BA7
:1027400031F4805C9F4F9093D5048093D40480E84B
:10275000D3FC88E88093DA04818592858F3C994088
:1027600028F48091DA0481608093DA048EE090E0AE
:102770009093D1048093D0041093FF01C092FB0189
:10278000D092FC01E092FD01F092FE019093F801DD
:102790008093F7018091FB019091FC01A091FD01D4
:1027A000B091FE01853B2AE492072FEFA207B10505
:1027B00009F4D6C208F0ADC28D3FF2E09F07FFEFEB
:1027C000AF07B10509F4CAC208F076C20097A04C61
:1027D000B10509F4C7C2109211027FC2E091E7046B
:1027E000F091E8048385948588974D9708F046C05A
:1027F000858596850C970B9708F040C083E0809301
:10280000C9028CEB91E09093C7028093C6021092AC
:10281000C8020E94AA00813089F50E94AA00811195
:102820002DC0C12CD12C760110E0E091E704F0918D
:10283000E80490858091C902891708F066C00E945B
:10284000AA00B82E1330B1F00E94AA00082F13304E
:1028500021F40E94AA00081311C021E0B2124BC05B
:1028600001110CC0CC0CDD1CEE1CFF1C6894C0F8E0
:102870001F5FDBCF0E94AA00B81631F380910502DA
:10288000823608F487C0E0910302F091040282814D
:102890009381C397859708F07DC0848195814A977D
:1028A000439708F077C020EB31E040E155E060EB62
:1028B00071E08CE20E94BF0A882309F46BC080E3B8
:1028C0008093FF018091DB049091DC04A091DD04F2
:1028D000B091DE048093FB019093FC01A093FD0175
:1028E000B093FE0182E090E29093FA018093F901A7
:1028F00088E090E069CEB110C1CF013009F0BECFC1
:10290000CC0CDD1CEE1CFF1CB3CF812F90E090930C
:10291000D9048093D804C092DB04D092DC04E09206
:10292000DD04F092DE048D2D2C2D30E01432F8F40D
:1029300080E88093DA043093D5042093D4048D2D5D
:1029400090E09093D3048093D204E0FE03C088E823
:102950008093DA048185928583379A4028F48091A8
:10296000DA0481608093DA048FE090E001CF90E890
:102970009093DA04D7FE03C098E89093DA0430937A
:10298000D5042093D4048F7790E09093D304809360
:10299000D204E0CF809105028C33E1F5E09103028F
:1029A000F091040282819381865891098D359105B9
:1029B00088F584819581CE978C9760F526E232E088
:1029C0004CE256E064EF71E08CE10E94BF0A88237C
:1029D00009F1E0910302F0910402EA58FF4F80816F
:1029E000918107970897B0F48091DB049091DC0403
:1029F000A091DD04B091DE048093FB019093FC0173
:102A0000A093FD01B093FE018CE18093FF0185E06E
:102A100090E0DACD40910502E0910302F0910402CA
:102A200082819381423289F49C01285031092730F8
:102A3000310558F4DF01AE5BBF4F2D913C9128501A
:102A400031092730310508F45AC08D57910987356F
:102A5000910508F467C0E0910302F09104028281BD
:102A60009381835491098F9780F48091050284307B
:102A700009F08FC0848195818197489730F48681D1
:102A800097810897089708F4B0C0E091E704F091A7
:102A9000E8048085823209F0BBC0E0910302F09126
:102AA0000402828193810497059708F0B1C0848164
:102AB00095810B970A9708F0ABC02CE033E04CE10E
:102AC00057E064E071E08FE00E94BF0A882309F4B8
:102AD0009FC08091DB049091DC04A091DD04B09153
:102AE000DE048093FB019093FC01A093FD01B09361
:102AF000FE018FE08093FF0182E090E065CD1092AF
:102B0000FF018FEF9FEFDC018093FB019093FC01AD
:102B1000A093FD01B093FE0181E08093DA0484E08C
:102B200090E069CD443208F496CF84819581CE97A8
:102B30008C9708F090CF2EE032E04AE256E06EE04B
:102B400072E080E10E94BF0A882309F484CFE091FB
:102B50000302F0910402EA5BFF4F808191810897A4
:102B6000079708F078CF8091DB049091DC04A09166
:102B7000DD04B091DE048093FB019093FC01A093EF
:102B8000FD01B093FE0180E18093FF0184E090E0BD
:102B90001BCD843408F479CF8481958182549109C6
:102BA0008F9708F072CF20E332E040E956E060E30F
:102BB00072E080E20E94BF0A882309F466CF809108
:102BC000DB049091DC04A091DD04B091DE048093DD
:102BD000FB019093FC01A093FD01B093FE0180E204
:102BE0008093FF0180E190E0EFCC1092FF018FEF26
:102BF0009FEFDC018093FB019093FC01A093FD010A
:102C0000B093FE0181E08093DA0480E190E0F3CCA0
:102C1000F0900502F5E0FF1508F065C0E0910302B1
:102C2000F0910402329625EC3DE94CE151E813E0C5
:102C30008AE0E82E8481958161917191E89E60011E
:102C4000E99ED00C1124DB0103E0AA0FBB1F0A95FB
:102C5000E1F700E0CA16DB0678F0E69ED001E79EB9
:102C6000B00D112463E0880F991F6A95E1F702E027
:102C7000A817B90708F001E063E971E080E091E08E
:102C80000E94081E9B01AC0120271F5FF112D2CFCA
:102C90002093FB013093FC014093FD015093FE0112
:102CA00080E28093FF011092F8011092F7011092D8
:102CB000D1041092D0046ECD8D3DF2E29F07FFEF5C
:102CC000AF07B10509F444C08D3B9244AF4FB10545
:102CD00009F081CD81E08093110264E670E080E02C
:102CE00090E00E941B038091E703833011F410925F
:102CF000E703E0960FB6F894DEBF0FBECDBFDF91BD
:102D0000CF911F910F91FF90EF90DF90CF90BF90E8
:102D100008958D39E2E69E07EFEFAE07B105D1F0D9
:102D200040F48D3A9245AF4FB10509F054CD82E0A1
:102D3000D2CF8735E8EA9E07EFEFAE07B10561F025
:102D40008D33924CAF4FB10509F045CD84E0C3CF30
:102D500083E0C1CF85E0BFCF86E0BDCF87E0BBCFAA
:102D600088E0B9CFCE0143960E9464091E89CE0146
:102D70000D960E9464090F85CE0107960E94640992
:102D8000F884CE0101960E9464098981898FFA8EA8
:102D90000B8F1C8F8BE38D8F87E38E8FCE0149962F
:102DA0000E94E20818CD1F920F920FB60F921124C5
:102DB0002F933F934F935F936F937F938F939F9343
:102DC000AF93BF93EF93FF938EE393E00E946F0165
:102DD000FF91EF91BF91AF919F918F917F916F91F3
:102DE0005F914F913F912F910F900FBE0F901F90C9
:102DF00018951F920F920FB60F9211242F938F9355
:102E00009F93EF93FF93E0914E03F0914F038081E6
:102E1000E0915403F091550382FD1BC09081809195
:102E200057038F5F8F7320915803821741F0E09111
:102E30005703F0E0E25CFC4F958F80935703FF91BE
:102E4000EF919F918F912F910F900FBE0F901F9038
:102E500018958081F4CF1F920F920FB60F92112414
:102E60002F933F938F939F93AF93BF9380919C0237
:102E700090919D02A0919E02B0919F0230919B0281
:102E800023E0230F2D3758F50196A11DB11D209386
:102E90009B0280939C0290939D02A0939E02B0930C
:102EA0009F028091A0029091A102A091A202B091F4
:102EB000A3020196A11DB11D8093A0029093A102CF
:102EC000A093A202B093A302BF91AF919F918F9163
:102ED0003F912F910F900FBE0F901F90189526E8ED
:102EE000230F0296A11DB11DD2CF1F920F920FB6D4
:102EF0000F9211242F933F934F935F936F937F9380
:102F00008F939F93AF93BF93EF93FF93E091A602AC
:102F1000F091A702309749F0A685B7858585968DF3
:102F200091FF14C09C918923A1F4FF91EF91BF916F
:102F3000AF919F918F917F916F915F914F913F9151
:102F40002F910F900FBE0F901F9018959C91892381
:102F500061F7A389B4899C918589809589238C9395
:102F6000868997890197F1F7608D718DA685B78560
:102F7000558538E020E0CB010197F1F7822F90E0F2
:102F800095958795282F4C91452309F0206831505D
:102F900091F7868D81FD20958091A50290E00196A4
:102FA0008F7399273091A402381799F0A091A50248
:102FB000B0E0A55ABD4F2C938093A502828D938DCE
:102FC0000197F1F7A389B4898C919589892B8C930A
:102FD000ACCF868D8160868FF1CF1F920F920FB696
:102FE0000F9211242F933F934F935F936F937F938F
:102FF0008F939F93AF93BF93EF93FF938091B9000B
:10300000887F803609F44AC0F0F5883209F4A7C0F9
:1030100018F5803109F49BC0B8F4882309F4F9C08D
:10302000883009F494C0FF91EF91BF91AF919F91C7
:103030008F917F916F915F914F913F912F910F9061
:103040000FBE0F901F901895883109F488C0803208
:1030500051F78093120314C0803409F49DC040F4EA
:103060008033B9F38833F9F68093120385ECB0C04E
:10307000803509F485C0883509F496C0883499F6FE
:103080000E94940BD0CF883909F48CC038F588376A
:1030900029F050F4883611F0803729F683E08093C8
:1030A000140310925A0257C0883809F47BC0803943
:1030B00019F0803809F0B7CF80915A02803208F0B9
:1030C00071C0E0915A0281E08E0F80935A02809184
:1030D000BB00F0E0E65CFD4F80833DC0803B39F0F3
:1030E000E0F4803A09F479C0883A09F09CCF84E092
:1030F000809314031092390210923802E091AE02CC
:10310000F091AF0209958091380281110FC081E0E2
:10311000809338021092180209C0803C09F4A6CFAF
:10312000883C09F4A3CF883B09F07DCFE0913902B8
:1031300081E08E0F80933902F0E0E85EFD4F8081E0
:103140008093BB00909139028091380229C0809110
:10315000EF028093BB0085EC8093BC0064CF90911C
:10316000110380911003981758F5E091110381E045
:103170008E0F80931103F0E0E051FD4F8081E9CF85
:10318000E091110381E08E0F809311038091BB00C9
:10319000F0E0E051FD4F8083909111038091100386
:1031A0009817C8F285E8D8CFE091110381E08E0F1F
:1031B000809311038091BB00F0E0E051FD4F8083CC
:1031C0008091130381115CCF81E08093EE0284EA49
:1031D0008093BC001092140326CF85EC8093BC0032
:1031E0001092140380915A02803230F4E0915A0216
:1031F000F0E0E65CFD4F108260915A0270E0E091D1
:10320000AC02F091AD028AE392E0099510925A0265
:103210000ACF1092120334CF1F920F920FB60F9263
:1032200011242F933F934F935F936F937F938F93CB
:103230009F93AF93BF93EF93FF93E091E903F091D6
:10324000EA0390818091EB0398232091EC03309165
:10325000ED032F3F320731F02F5F3F4F3093ED03E7
:103260002093EC038091E703811135C0911116C0C2
:103270002091EC033091ED032536310558F0109282
:10328000EE033093F1032093F00381E08093EF038A
:103290008093E7031092ED031092EC0380913A05BE
:1032A000813041F480913905911161C061E0811153
:1032B00061C02D9AFF91EF91BF91AF919F918F9136
:1032C0007F916F915F914F913F912F910F900FBE22
:1032D0000F901F9018958091E7038130A1F49923F6
:1032E000E9F2E091EF038E0F8093EF03F0E0EE0F31
:1032F000FF1FE951FC4F2091EC033091ED03328721
:10330000218782E0C5CF8091E703823039F59111A2
:1033100019C0E091EF0381E0E03720F08093EE03E5
:1033200083E0B6CF8E0F8093EF03F0E0EE0FFF1F28
:10333000E951FC4F2091EC033091ED033287218756
:1033400081E0A6CF2091EC033091ED0325363105C5
:1033500008F4A4CF83E08093E703A0CF8091E70334
:10336000833009F09BCF992309F494CF97CF88231A
:1033700021F060E00E948C029DCF2D989BCFCF92D0
:10338000DF92EF92FF92109241031092400328EED9
:10339000C22E23E0D22EE12CF12CC0924203D09217
:1033A0004303E0924403F092450385E291E0909359
:1033B0003F0380933E0385EC90E090934B03809312
:1033C0004A0384EC90E090934D0380934C0380EC8F
:1033D00090E090934F0380934E0381EC90E09093A4
:1033E00051038093500382EC90E0909353038093B9
:1033F000520386EC90E0909355038093540310920F
:103400005703109258031092590310925A031092C6
:10341000DE031092DD03C092DF03D092E003E0925E
:10342000E103F092E20387E391E09093DC03809361
:10343000DB0387EE93E0909353058093520580E081
:103440000E948D001092390510921D0510921C05E6
:10345000C0921E05D0921F05E0922005F092210532
:1034600089E491E090931B0580931A051092310531
:1034700010923005109233051092320510923505E6
:103480001092340510923705109236056091380578
:103490006E7F6D7F609338056695617081E0682767
:1034A00083E00E948C0261E083E00E94BA02E1EBBB
:1034B000F0E0E491E0932A05EDE9F0E0E491F0E03A
:1034C000EE0FFF1FE057FF4F8591949190932C05CD
:1034D00080932B0560E082E00E94BA02809138055B
:1034E00081FD04C061E082E00E948C0282E0809352
:1034F0002605E0EBF0E0E491E0932705ECE9F0E04D
:10350000E491F0E0EE0FFF1FEA57FF4F2591349151
:10351000309329052093280544EF51E060E070E0E6
:103520004093FA045093FB046093FC047093FD04F1
:103530009AE0EDE0F1E0A8E0B5E001900D929A95F7
:10354000E1F710921205809313051092180510925E
:10355000190587EE93E09093E8048093E70489E0EF
:10356000FF90EF90DF90CF900C948D00CF93DF937E
:1035700000D0CDB7DEB7789484B5826084BD84B5C1
:10358000816084BD85B5826085BD85B5816085BD5E
:1035900080916E00816080936E0010928100809116
:1035A000810082608093810080918100816080939E
:1035B0008100809180008160809380008091B100C3
:1035C00084608093B1008091B00081608093B000EE
:1035D00080917A00846080937A0080917A00826082
:1035E00080937A0080917A00816080937A00809144
:1035F0007A00806880937A001092C10080E4809302
:103600007C0080917A00806480937A0080917A00B7
:1036100086FDFCCF6091780070917900072E000C38
:10362000880B990B611571058105910511F00E94B8
:10363000E91D62E085E00E94BA0261E087E00E9435
:10364000BA0261E086E00E94BA0261E088E00E946E
:10365000BA020E94CA0582E48093AB0280EC809398
:10366000AA028CE88093A90281EC8093A8020E94B0
:103670005B0B60ED77E080E090E00E941B038FEF32
:1036800093E00E94F21D843609F04EC0B0EBEB2EA1
:10369000B2E0FB2E10E000E0C8010E94F21DF7012D
:1036A00081937F010F5F1F4F04311105A9F748E691
:1036B000642E5BEDC52E53E0D52E60E2A62EB12C14
:1036C000FF24F39476E8772EEBEB8E2EF0EC9F2E12
:1036D000A9EFEA2E8091CA029091CB02009711F0D7
:1036E0000E94511F86E090E00E94B51E8C01FC01F3
:1036F0006082D282C1821382B582A4829093CB026F
:103700008093CA020E94CA05F801F382C8010E9490
:103710001007811145C07092AB028092AA0290926C
:10372000A902E092A802D6CF26E030E03093B102A1
:103730002093B00281E090E09093B5028093B402B0
:103740003093B3022093B20222E030E03093B7020C
:103750002093B6029093B9028093B80285E090E07E
:103760009093BB028093BA022AE030E03093BD020E
:103770002093BC023093BF022093BE029093C102FB
:103780008093C00284E190E09093C3028093C202D0
:103790000E94730B64E68FEF93E00E94FA1D87CFBF
:1037A00019828091CA029091CB02FC01248135815B
:1037B000232B89F02081F0921A0320933C0310926E
:1037C0001B0310923D0321E041E050E0BE016F5F1A
:1037D0007F4F0E94F20641E050E0BE016E5F7F4FD6
:1037E0008091CA029091CB020E94BD078A8190E02D
:1037F000880F892F881F990B892B61F086E88093A9
:10380000AB028BEB8093AA0280EC8093A90284EA3E
:103810008093A8021092350510923405109233055A
:103820001092320510923105109230058DE991E029
:10383000909337058093360590912605963108F0D0
:1038400047C02DEB30E030933105209330052BE954
:1038500031E030933305209332052CE231E0309390
:103860003505209334052091680084E0983048F0B5
:1038700031E09E3008F430E081E001C0880F3A95D5
:10388000EAF7822B809368002DE630E0983050F004
:103890002BE630E09E3030F02CE630E0963110F030
:1038A00030E020E030932E0520932D05292F30E0C5
:1038B000983008F072C081E001C0880F9A95EAF74D
:1038C00080932F0580913605909137050197F1F788
:1038D0008091340590913505892B49F1E091A6023C
:1038E000F091A70225E0EA31F20709F1309739F0AB
:1038F000A389B4899C918589809589238C93809133
:1039000038058E7F809338051092A5021092A4028C
:103910008AE195E09093A7028093A602E0912D059D
:10392000F0912E05808190912F05892B808364EF83
:1039300071E080E090E00E941B038AE1E82E85E0C0
:10394000F82E7724739496E8C92E2BEBD22E00EC38
:1039500010EBF092F504E092F40470920C0570E024
:1039600060E08CE00E946B040E944E034B015C01FE
:103970000E945A0381111EC00E944E0368197909E2
:103980008A099B09613D77408105910598F460E0C3
:1039900070E0CB010E941B03EBCF9E3040F4285017
:1039A000310981E001C0880F2A95EAF789CF2E50AE
:1039B0003109F7CF68EC70E080E090E00E941B03D3
:1039C0001092180580911405843069F0893059F0FF
:1039D000C092AB02D092AA020093A9021093A8024F
:1039E0000E945B0BB6CF84EF91E0A0E0B0E0809343
:1039F000FA049093FB04A093FC04B093FD0464E1EB
:103A000070E086E00E946B0462E070E089E00E9452
:103A10006B0468EC70E080E090E00E941B0382E0A1
:103A20008093B0008093B10084E68093B3008093CC
:103A3000B4001092B2008091E703833011F4109229
:103A4000E70384E08093700000E010E00E94610CC6
:103A500001151105D9F30E94FE018823B9F30E94D4
:103A60000000F4CF89E491E090931B0580931A0540
:103A70008091A6029091A7028A51954071F4E0913D
:103A80002D05F0912E05908180912F058095892339
:103A900080831092A7021092A60208958F929F929F
:103AA000AF92BF92CF92DF92EF92FF92CF93DF93CC
:103AB000EC01688179818A819B816115710581059D
:103AC000910521F464E279ED8BE597E02DE133EF88
:103AD00041E050E00E943A1E49015A019B01AC01AD
:103AE000A7EAB1E40E94591E6B017C01ACEEB4EF71
:103AF000A50194010E94671EC60ED71EE81EF91E7E
:103B0000F7FE06C081E0C81AD108E10880E8F80A8B
:103B1000C882D982EA82FB82C701B6019F77DF9112
:103B2000CF91FF90EF90DF90CF90BF90AF909F909C
:103B30008F9008958F929F92AF92BF92CF92DF9213
:103B4000EF92FF9260910301709104018091050151
:103B500090910601611571058105910521F464E2DA
:103B600079ED8BE597E02DE133EF41E050E00E94E5
:103B70003A1E49015A019B01AC01A7EAB1E40E9437
:103B8000591E6B017C01ACEEB4EFA50194010E94BB
:103B9000671EC60ED71EE81EF91EF7FE06C081E09E
:103BA000C81AD108E10880E8F80AC0920301D0924F
:103BB0000401E0920501F0920601C701B6019F776A
:103BC000FF90EF90DF90CF90BF90AF909F908F903D
:103BD000089560930301709304018093050190930D
:103BE00006010895F999FECF92BD81BDF89A9927F3
:103BF00080B50895262FF999FECF1FBA92BD81BDD9
:103C000020BD0FB6F894FA9AF99A0FBE019608955E
:103C1000DB018F939F930E94591EBF91AF91A29F8A
:103C2000800D911DA39F900DB29F900D11240895BA
:103C3000A1E21A2EAA1BBB1BFD010DC0AA1FBB1FB0
:103C4000EE1FFF1FA217B307E407F50720F0A21B22
:103C5000B30BE40BF50B661F771F881F991F1A948F
:103C600069F760957095809590959B01AC01BD01B9
:103C7000CF010895052E97FB1EF400940E94511E5B
:103C800057FD07D00E94181E07FC03D04EF40C9479
:103C9000511E50954095309521953F4F4F4F5F4FA6
:103CA000089590958095709561957F4F8F4F9F4FA8
:103CB00008950E946C1EA59F900DB49F900DA49F27
:103CC000800D911D11240895B7FF0C94591E0E9478
:103CD000591E821B930B0895A29FB001B39FC00190
:103CE000A39F700D811D1124911DB29F700D811D28
:103CF0001124911D0895991B79E004C0991F96170E
:103D000008F0961B881F7A95C9F780950895AA1B1D
:103D1000BB1B51E107C0AA1FBB1FA617B70710F0B6
:103D2000A61BB70B881F991F5A95A9F780959095E8
:103D3000BC01CD01089597FB072E16F4009407D01F
:103D400077FD09D00E94871E07FC05D03EF49095B0
:103D500081959F4F0895709561957F4F0895EE0F5F
:103D6000FF1F0590F491E02D09940F931F93CF93BB
:103D7000DF938230910510F482E090E0E0916105DC
:103D8000F091620530E020E0B0E0A0E0309799F4D7
:103D90002115310509F44AC0281B390B243031059F
:103DA000D8F58A819B816115710589F1FB019383A7
:103DB0008283FE0111C04081518102811381481725
:103DC0005907E0F04817590799F4109761F01296D7
:103DD0000C93129713961C933296CF01DF91CF91DB
:103DE0001F910F9108950093610510936205F4CF20
:103DF0002115310551F04217530738F0A901DB01B5
:103E00009A01BD01DF01F801C1CFEF01F9CF909315
:103E1000620580936105CDCFFE01E20FF31F819310
:103E200091932250310939832883D7CF20915F05A0
:103E300030916005232B41F42091090130910A0152
:103E40003093600520935F052091070130910801B0
:103E50002115310541F42DB73EB740910B0150912A
:103E60000C01241B350BE0915F05F0916005E21712
:103E7000F307A0F42E1B3F0B2817390778F0AC018D
:103E80004E5F5F4F2417350748F04E0F5F1F50936A
:103E9000600540935F05819391939FCFF0E0E0E050
:103EA0009CCFCF93DF930097E9F0FC013297138208
:103EB0001282A0916105B0916205ED0130E020E031
:103EC0001097A1F420813181820F931F20915F050B
:103ED000309160052817390709F061C0F09360053B
:103EE000E0935F05DF91CF910895EA01CE17DF07D8
:103EF000E8F54A815B819E0141155105B1F7E90161
:103F0000FB83EA8349915991C40FD51FEC17FD0734
:103F100061F4808191810296840F951FE901998354
:103F20008883828193819B838A83F0E0E0E012960C
:103F30008D919C9113970097B9F52D913C91119714
:103F4000CD010296820F931F20915F05309160058D
:103F50002817390739F6309751F5109262051092FB
:103F60006105B0936005A0935F05BCCFD383C28386
:103F700040815181840F951FC817D90761F44E5FA6
:103F80005F4F88819981480F591F518340838A81EF
:103F90009B81938382832115310509F0B0CFF09383
:103FA0006205E09361059ECFFD01DC01C0CF138265
:103FB0001282D7CF10E0C2E6D0E004C0FE010E941A
:103FC000AF1E2196C336D107C9F7F894FFCF010180
:103FD00001010000000000630580007EFF06000173
:103FE00000000000EFC0F9A4B0999282F880900020
:103FF000000000910112023201DE0163014101550E
:1040000001000000008B075E07BA07E6045707446B
:1040100007350700000000E7041202BA07E6044370
:10402000055905CE045468652066756E6374696F22
:104030006E206465636F64652826726573756C74A1
:1040400073292920697320646570726563617465E2
:104050006420616E64206D6179206E6F7420776FCB
:10406000726B2061732065787065637465642120CC
:104070004A75737420757365206465636F64652881
:104080002920776974686F7574206120706172618E
:104090006D6574657220616E642049725265636556
:1040A000697665722E6465636F6465644952446124
:1040B00074612E3C6669656C646E616D653E202E90
:0440C000000D0A00E5
:107E0000112484B714BE81FFF0D085E080938100F7
:107E100082E08093C00088E18093C10086E0809377
:107E2000C20080E18093C4008EE0C9D0259A86E02C
:107E300020E33CEF91E0309385002093840096BBD3
:107E4000B09BFECF1D9AA8958150A9F7CC24DD24C4
:107E500088248394B5E0AB2EA1E19A2EF3E0BF2EE7
:107E6000A2D0813461F49FD0082FAFD0023811F036
:107E7000013811F484E001C083E08DD089C08234E0
:107E800011F484E103C0853419F485E0A6D080C0E4
:107E9000853579F488D0E82EFF2485D0082F10E0AE
:107EA000102F00270E291F29000F111F8ED06801E7
:107EB0006FC0863521F484E090D080E0DECF843638
:107EC00009F040C070D06FD0082F6DD080E0C81688
:107ED00080E7D80618F4F601B7BEE895C0E0D1E017
:107EE00062D089930C17E1F7F0E0CF16F0E7DF06D8
:107EF00018F0F601B7BEE89568D007B600FCFDCFD4
:107F0000A601A0E0B1E02C9130E011968C91119780
:107F100090E0982F8827822B932B1296FA010C0160
:107F200087BEE89511244E5F5F4FF1E0A038BF0790
:107F300051F7F601A7BEE89507B600FCFDCF97BE46
:107F4000E89526C08437B1F42ED02DD0F82E2BD052
:107F50003CD0F601EF2C8F010F5F1F4F84911BD097
:107F6000EA94F801C1F70894C11CD11CFA94CF0C13
:107F7000D11C0EC0853739F428D08EE10CD085E9AC
:107F80000AD08FE07ACF813511F488E018D01DD067
:107F900080E101D065CF982F8091C00085FFFCCF94
:107FA0009093C60008958091C00087FFFCCF809118
:107FB000C00084FD01C0A8958091C6000895E0E648
:107FC000F0E098E1908380830895EDDF803219F02E
:107FD00088E0F5DFFFCF84E1DECF1F93182FE3DFCA
:107FE0001150E9F7F2DF1F91089580E0E8DFEE27F6
:047FF000FF270994CA
:027FFE00040479
:00000001FF
