:020000040000FA
:100000000C9439020C9461020C9461020C94C71395
:100010000C94C7130C94C7130C9461020C946102E6
:100020000C9461020C9461020C9461020C946102C4
:100030000C9461020C9461020C9461020C946102B4
:100040000C947D130C9461020C944B130C942513A7
:100050000C9461020C9461020C9461020C94610294
:100060000C943F140C946102534F4E4720434F555C
:100070004E540045564520534F4E47203220544998
:100080004D45004D4F5220534F4E4720322054498A
:100090004D450045564520534F4E472031204E6F69
:1000A0002E0045564520534F4E4720312054494D90
:1000B00045004D4F5220534F4E472031204E6F2E5A
:1000C000004D4F5220534F4E4720312054494D454B
:1000D00000504C41590053454C4543542054494D20
:1000E0004500504C59522045564520445552002C4D
:1000F00067020000002D5E020000000059020000AF
:1001000000504C595220455645204F4E2054494DE1
:1001100000504C5952204D4F5220445552002867F0
:1001200002000000295E02000000005902000000E9
:10013000504C5952204D4F52204F4E2054494D00A3
:10014000246702000000255E020000000059020042
:1001500000004C494748542032204F46462054491D
:100160004D4500216702000000225E0200000000F1
:1001700059020000004C494748542032204F4E207D
:1001800054494D45001E67020000001F5E0200003A
:10019000000059020000004C494748542031204FCC
:1001A00046462054494D45001B67020000001C5E76
:1001B000020000000059020000004C49474854204A
:1001C00031204F4E2054494D450011C10000000020
:1001D00016B20000000013A20000000017930000F8
:1001E0000000128300000000147300000000156876
:1001F00000000000005902000000534F4E472053FA
:10020000455454494E47000ED6000000000FD1005F
:10021000000000005902000000504C4159204445A4
:100220004D4F00564F4C554D45004241434B4C49B4
:100230004748542044555200534C4F47414D2043AA
:100240004F554E5400454E442054494D450053549B
:100250004152542054494D45004241434B005345BF
:1002600054204D494E530053455420485253005397
:100270004554205945415200534554204D4F4E544A
:1002800048005345542044415445004558495400C2
:1002900052455345542053455454494E4700273046
:1002A000011E01032A11010000002B0101EF0003D0
:1002B0002EE200000000005902000000504C41599D
:1002C00045522053455454494E47001ABA01A801DB
:1002D000031D97018501032075016301032352016A
:1002E0004001030059020000004C49474854532084
:1002F00053455454494E4700084E0200000009453A
:10030000020000000A38020000000B2A0200000070
:100310000C23020000000D190207020310FA01CAA3
:10032000010800590200000042454C4C205345543E
:1003300054494E4700028202000000037802000088
:1003400000046F02000000056702000000065E0264
:10035000000000005902000000534554204441545D
:10036000452054494D450000000000240027002A84
:100370000000000008000201000003040700000064
:1003800000000000004552522030330045525220F8
:10039000303200455252203031005154524F4E00FD
:1003A00057454C434F4D450020504C415945522034
:1003B0004D4F4445204F4E2000202052554E4E496F
:1003C0004E472044454D4F202000204155544F209A
:1003D0004C49474854204F46462000204155544F31
:1003E000204C49474854204F4E202000204155546E
:1003F0004F20504C4159204F46462020002020419C
:1004000055544F20504C4159204F4E2020000000A1
:10041000000023002600290000000000250028001D
:100420002B00040404040404040402020202020275
:1004300003030303030301020408102040800102A8
:100440000408102001020408102001590335030696
:10045000072803F8020819E902CB020519BC029E1D
:100460000205189002000000008B020000005E15DB
:10047000602611241FBECFEFD8E0DEBFCDBF25E040
:10048000AAE2B2E001C01D92A537B207E1F712E07F
:10049000A0E0B1E0E0EBF3E502C005900D92AA32D6
:1004A000B107D9F712E0C8E3D2E004C02197FE01FA
:1004B0000E947327C733D107C9F70E94A6160C9470
:1004C000CB290C94000080910A05E0910705F0917A
:1004D000080596E0899FE00DF11D11243596E49101
:1004E00081E0E11101C080E00895E4E0F5E086815B
:1004F0000380F481E02D96E0899FE00DF11D112429
:100500008491089508950895FC01538D448D252FFD
:1005100030E0842F90E0821B930B541710F0CF969D
:10052000089501970895FC01918D828D981761F0CF
:10053000A28DAE0FBF2FB11D5D968C91928D9F5FE6
:100540009F73928F90E008958FEF9FEF0895FC01C5
:10055000918D828D981731F0828DE80FF11D858D78
:1005600090E008958FEF9FEF0895FC01918D228D0B
:10057000892F90E0805C9F4F821B91098F73992790
:100580000895FC01A48DA80FB92FB11DA35ABF4F28
:100590002C91848D90E001968F739927848FA68982
:1005A000B7892C93A089B1898C91837080648C93D6
:1005B000938D848D981306C00288F389E02D808185
:1005C0008F7D80830895EF92FF920F931F93CF93B7
:1005D000DF93EC0181E0888F9B8D8C8D98131AC07E
:1005E000E889F989808185FF15C09FB7F894EE8965
:1005F000FF896083E889F9898081837080648083C2
:100600009FBF81E090E0DF91CF911F910F91FF900C
:10061000EF900895F62E0B8D10E00F5F1F4F0F73B4
:100620001127E02E8C8D8E110CC00FB607FCFACF6F
:10063000E889F989808185FFF5CFCE010E94C1024A
:10064000F1CFEB8DEC0FFD2FF11DE35AFF4FF08240
:100650009FB7F8940B8FEA89FB8980818062CFCFA6
:10066000CF93DF93EC01888D8823B9F0AA89BB89E9
:10067000E889F9898C9185FD03C0808186FD0DC0D4
:100680000FB607FCF7CF8C9185FFF2CF808185FFF5
:10069000EDCFCE010E94C102E9CFDF91CF91089545
:1006A00083E194E00E94B50221E0892B09F420E067
:1006B000822F089580E090E0892B29F00E9450035A
:1006C00081110C9400000895AF92BF92CF92DF92F7
:1006D000EF92FF920F931F93CF93DF936C017B01F7
:1006E0008B01040F151FEB015E01AE18BF08C01788
:1006F000D10759F06991D601ED91FC910190F081FB
:10070000E02DC6010995892B79F7C501DF91CF91BD
:100710001F910F91FF90EF90DF90CF90BF90AF901F
:100720000895833081F028F4813099F08230A9F067
:1007300008958730A9F08830C9F08430B1F48091F1
:1007400080008F7D03C0809180008F778093800030
:10075000089584B58F7784BD089584B58F7DFBCFD0
:100760008091B0008F778093B00008958091B000A1
:100770008F7DF9CFCF93DF93282F30E0F901EF5829
:10078000FC4F8491F901EA5CFB4FD491F901EE5DD5
:10079000FB4FC491CC23A1F081110E949103EC2F57
:1007A000F0E0EE0FFF1FE25FFB4FA591B491EC91DB
:1007B000ED2381E090E009F480E0DF91CF9108958E
:1007C00080E090E0FACF1F93CF93DF93282F30E0A3
:1007D000F901EF58FC4F8491F901EA5CFB4FD49189
:1007E000F901EE5DFB4FC491CC23A9F0162F8111C6
:1007F0000E949103EC2FF0E0EE0FFF1FE85EFB4F2D
:10080000A591B4918FB7F894EC91111108C0D095CF
:10081000DE23DC938FBFDF91CF911F910895DE2BF4
:10082000F8CFCF93DF9390E0FC01EA5CFB4F24917B
:100830008E5D9B4FFC0184918823C9F090E0880F66
:10084000991FFC01E959FC4FA591B491FC01E85EA8
:10085000FB4FC591D49161110DC09FB7F8948C9155
:10086000209582238C938881282328839FBFDF9142
:10087000CF910895623051F49FB7F8943C91822F44
:10088000809583238C93E8812E2BEFCF8FB7F8943C
:10089000EC912E2B2C938FBFEACF3FB7F894809129
:1008A000B6029091B702A091B802B091B90226B5F4
:1008B000A89B05C02F3F19F00196A11DB11D3FBF98
:1008C000BA2FA92F982F8827BC01CD01620F711D67
:1008D000811D911D42E0660F771F881F991F4A9561
:1008E000D1F708958F929F92AF92BF92CF92DF92ED
:1008F000EF92FF926B017C010E944D044B015C0161
:10090000C114D104E104F104B9F00E944D04681946
:1009100079098A099B09683E73408105910580F336
:1009200021E0C21AD108E108F10888EE880E83E0C0
:10093000981EA11CB11CE4CFFF90EF90DF90CF90E8
:10094000BF90AF909F908F9008952FB7F8946091CB
:10095000B2027091B3028091B4029091B5022FBFA0
:1009600008950F931F9380912C0590912D05DC0124
:10097000ED91FC910084F185E02D0995892B09F416
:10098000D7C060E070E0CB010E94720420914A055C
:1009900080912C0590912D05DC01ED91FC91028454
:1009A000F385E02D21110BC00995809336058E3714
:1009B000D1F680914A058F5F80934A05D4CF09957F
:1009C00090914A05E92FF0E0E45DFA4F828792307A
:1009D000B9F09930D9F09130A9F48F3F99F0109285
:1009E0004A0581E080934C0510924F0510924E0508
:1009F000809350051092510580E01F910F9108954A
:100A0000863069F79F5F90934A05ADCF8F3E39F7E7
:100A10002091380580913705280F3327331FE09147
:100A20003905C9018E0F911D20913A05280F392FE4
:100A3000311D40913B0550E0240F351F80913C054E
:100A400090E060913D0570E0762F6627F0913E05BD
:100A50006F0F711D280F391F3195219531096217CC
:100A6000730709F0BCCF10924A05E13419F41092D3
:100A700051052FC0E0934D05542F4427840F951F37
:100A800090934F0580934E05EA53E63108F046C037
:100A9000F0E0E35BFA4F0C9473277A0582058C052E
:100AA00063058C056C058A058E058C058C058C0507
:100AB0008C058C058C058C058C058E058C058C05AC
:100AC0008C058C058C0585E080934C0581E0809336
:100AD00050058091500591CF80FF02C089E0F4CF8E
:100AE00081FF02C084E0F0CF83709927892B89F3BE
:100AF0008AE0EACF80FF02C087E0E6CF81FFE9CF3E
:100B000082E0E2CF80FF02C088E0DECF81FFE1CF4C
:100B100083E0DACF86E0D8CF8BE0D6CF81E0809338
:100B20004C0510924F0510924E05809350059FCFB3
:100B300080915105882369F20E94A50400912E0539
:100B400010912F052091300530913105601B710BFC
:100B5000820B930B009132051091330520913405DF
:100B600030913505601771078207930708F4B1CFFC
:100B700010924A0510924C0510924F0510924E05A6
:100B800081E036CF80934305272F30E070934505F1
:100B9000609346054091420590914105490F5527C4
:100BA000551F840F952F911D40914405840F911D71
:100BB000820F931F680F792F711D719561957109CF
:100BC0007093470560934805442361F08091510577
:100BD000882341F060E070E0CB010E9472040E9423
:100BE000B104F4CF80912C0590912D05DC01ED919D
:100BF000FC910280F381E02D4AE050E060E475E072
:100C000009950E94A50460932E0570932F0580938B
:100C10003005909331058091440591E0811101C028
:100C200090E090935105811106C06AE070E080E089
:100C300090E00C947204089508952091BC023091C4
:100C4000BD022817390771F49091BA028091BB0256
:100C5000981741F0E091BA02F0E0EF58FD4F808123
:100C600090E008958FEF9FEF08950895EF92FF921F
:100C70000F931F93CF93DF93DC015C96ED90FC9074
:100C80005D97E114F10479F481E090E013969C9370
:100C90008E93129790E080E0DF91CF911F910F919A
:100CA000FF90EF9008955196ED91FC9152975096D8
:100CB0008C915097982F90950FB75E962C915E97D8
:100CC000122F127021FD6095F8942081112319F1E3
:100CD000282B2083E7012197F1F728E0462F50E0E9
:100CE000308160FF1AC0382B3083E7012197F1F77C
:100CF000BA0175956795215089F7112381F080819C
:100D0000892380830FBF5C968D919C910197F1F7A9
:100D100081E090E0C1CF2923DCCF3923E5CF90815A
:100D2000892BEFCF2091BC023091BD0228173907E3
:100D300071F48091BB022091BA0290E0805C9F4FD9
:100D4000821B910960E470E00E944027089590E0C2
:100D500080E008952091BC023091BD022817390728
:100D6000B9F49091BA028091BB02981789F0E09192
:100D7000BA02F0E0EF58FD4F80812091BA0230E0D6
:100D80002F5F3F4F2F7333272093BA0290E00895CF
:100D90008FEF9FEF089520914E02260F3327331FC8
:100DA00021323105ECF420915F03FC0190E080E0FA
:100DB000243069F082E00895A0914E022191AC01A7
:100DC000425D5D4FA40FB52FB11D2C930196861780
:100DD00098F380914E02680F60934E0280E0089570
:100DE00081E0089510925F0381E080935E0310928A
:100DF000390361E082E10E94E30361E083E10E9444
:100E0000E303E9EBF0E080818E7F808380818D7F3A
:100E1000808388E48093B80085E48093BC000895C3
:100E20001092180310921703109266031092880311
:100E30000E94F20682E892E09093160380931503D5
:100E400083E892E090931403809313030895CF9363
:100E5000DF9391E090932D028823B9F0C091B80000
:100E6000D091BA008091BC008A7B8093BC0060E086
:100E700082E10E94E30360E083E10E94E3030E94B9
:100E8000F206D093BA00C093B800DF91CF910895D5
:100E9000CF92DF92EF92FF920F931F93CF93DF9346
:100EA000D091880381E0D13208F09CC0C0918703C3
:100EB0000E944D046B017C0180915F0381116CC025
:100EC00082E080935F0381E080935E038FEF8093E5
:100ED0005D0310925C03D0935B03A7E6B3E0EBE302
:100EE000F3E080E0D8138DC010923A0380913A036A
:100EF000CC0FC82BC0933A0380913903813009F09D
:100F000084C0109239030E944D046B017C018091D2
:100F10003A038093BB008091610390916203A0919A
:100F20006303B0916403892B8A2B8B2BA1F00E9461
:100F30004D0400916103109162032091630330918D
:100F400064036C197D098E099F0906171707280786
:100F5000390708F442C08091BC0083FDD8CF85ECEE
:100F60008093BC000E944D046B017C0180915F0363
:100F7000823009F44CC080915D038F3F09F469C051
:100F800080915D03803209F466C080915D038033F7
:100F900009F463C084E026C08091610390916203EC
:100FA000A0916303B0916403892B8A2B8B2B09F4E6
:100FB00083CF0E944D040091610310916203209140
:100FC0006303309164036C197D098E099F0906172C
:100FD00017072807390708F06FCF809160030E9438
:100FE000270785E01092660310928803109265032C
:100FF000DF91CF911F910F91FF90EF90DF90CF90F5
:1010000008959D9191938F5F6DCF85EEA9CF8091CB
:10101000610390916203A0916303B0916403892BF3
:101020008A2B8B2B09F4A2CF0E944D0400916103FF
:101030001091620320916303309164036C197D0960
:101040008E099F09061717072807390708F08ECF62
:10105000C4CF80E0C7CF82E0C5CF83E0C3CFCF92BB
:10106000DF92EF92FF920F931F93CF93DF93D82FCE
:10107000C62F613208F098C00E944D046B017C01BC
:1010800080915F0381116BC081E080935F03809347
:101090005E039FEF90935D0310925C039C0F90930F
:1010A0005B0380933A0380913A03DD0FD82BD093F2
:1010B0003A0380913903813009F078C010923903E6
:1010C0000E944D046B017C0180913A038093BB0028
:1010D0008091610390916203A0916303B0916403D6
:1010E000892B8A2B8B2BA1F00E944D040091610368
:1010F0001091620320916303309164036C197D09A0
:101100008E099F09061717072807390708F448C0F2
:101110008091BC0083FDD8CF85EC8093BC000E94F9
:101120004D046B017C0180915F03813009F440C064
:1011300080915C038C1710F4C0915C03EBE3F3E047
:10114000A9E1B3E080E08C1355C08C2FDF91CF91E3
:101150001F910F91FF90EF90DF90CF9008958091B5
:10116000610390916203A0916303B0916403892BA2
:101170008A2B8B2B09F484CF0E944D0400916103CC
:101180001091620320916303309164036C197D090F
:101190008E099F09061717072807390708F070CF2F
:1011A000809160030E942707C0E0CFCF85EEB5CFC6
:1011B0008091610390916203A0916303B0916403F5
:1011C000892B8A2B8B2B09F4AECF0E944D04009102
:1011D00061031091620320916303309164036C19E1
:1011E0007D098E099F09061717072807390708F098
:1011F0009ACFD6CF91919D938F5FA5CFE0911803A1
:1012000080911703E81730F4F0E0E75EFC4F80812F
:1012100090E008958FEF9FEF0895909118038091CB
:1012200017032FEF3FEF981748F4E92FF0E0E75E40
:10123000FC4F208130E09F5F90931803C90108950F
:101240008091170390911803891B990B0895CF92F1
:10125000DF92EF92FF920F931F93CF93DF937C0166
:10126000CB018A0120916503222389F0EB016B01F8
:10127000C40ED51ECC15DD0569F06991D701ED913D
:10128000FC910190F081E02DC7010995F3CF642F07
:101290000E94CB06C801DF91CF911F910F91FF9063
:1012A000EF90DF90CF900895CF93DF931F92CDB74B
:1012B000DEB76983209165032223F9F0209188032A
:1012C000203258F021E030E0FC013383228390E0AB
:1012D00080E00F90DF91CF91089580916603E82F11
:1012E000F0E0E959FC4F998190838F5F809366030A
:1012F0008093880381E090E0ECCF61E0CE0101961D
:101300000E94CB06F7CFFC01248131E030936503C6
:101310002093870310926603109288038385682BBD
:1013200080EB94E00E9454090C9448071F93CF93DC
:10133000DF93EC0181E08093650388E68093870367
:10134000109266031092880360E080EB94E00E94A4
:1013500054092D811AE0822F612F0E943427682FB3
:10136000660F680F660F620F80EB94E00E945409CD
:101370002C81822F612F0E943427682F660F680FFF
:10138000660F620F80EB94E00E9454092B81822F3C
:10139000612F0E943427682F660F680F660F620F57
:1013A00080EB94E00E94540960E080EB94E00E949E
:1013B00054092A81822F612F0E943427682F660FDB
:1013C000680F660F620F80EB94E00E945409298138
:1013D000822F612F0E943427682F660F680F660FD7
:1013E000620F80EB94E00E9454092881822F612FC4
:1013F0000E943427682F660F680F660F620F80EB1C
:1014000094E00E945409DF91CF911F910C944807FA
:1014100090E080E008952091F502253009F090F4E5
:1014200090912C02E92FF0E0E151FD4F80832F5F76
:101430002093F5029F5F953018F490932C02089545
:1014400010922C020895CF92DF92FF920F931F9378
:10145000CF93DF936C0181E08093650388E68093EE
:101460008703109266031092880360E080EB94E09B
:101470000E9454090E94480767E088E60E942F08EE
:10148000109218038093170380EB94E00E940D09DB
:101490008F77282F30E094E0359527959A95E1F7DE
:1014A000922F990F990FC22FC91BCC0FC80F80EB39
:1014B00094E00E940D099C0144E0359527954A95DA
:1014C000E1F72F703327922F990F990FD22FD91B45
:1014D000DD0FD80F80EB94E00E940D099C0154E0D1
:1014E000359527955A95E1F72F703327922F990F4D
:1014F000990F122F191B110F180F80EB94E00E9407
:101500000D0980EB94E00E940D099C0164E0359583
:1015100027956A95E1F72F703327922F990F990F2E
:10152000022F091B000F080F80EB94E00E940D09A9
:101530009C0174E0359527957A95E1F72F70332754
:10154000922F990F990FF22EF91AFF0CF80E80EBDB
:1015500094E00E940D099C01E4E035952795EA95F9
:10156000E1F72F703327922F990F990F291B220F24
:10157000820FF6018083F18202831383D483C583B3
:10158000C601DF91CF911F910F91FF90DF90CF9017
:1015900008950F931F93CF938C01C62F0E94830948
:1015A0006C2F6460C8010E9483096C2F6B7FC80197
:1015B0000E94830983EC90E00197F1F7CF911F918E
:1015C0000F9108950F931F93CF93DF938C01D62F24
:1015D000C42F607F642B0E94C90A80E1D89FB001AC
:1015E00011246C2BC801DF91CF911F910F910C94A6
:1015F000C90ACF93DF93CDB7DEB728970FB6F8941B
:10160000DEBF0FBECDBF98E0EBE0F1E0DE0111964A
:1016100001900D929A95E1F790912805961708F49C
:101620006FEF262F30E0220F331F41E050E04C0FC8
:101630005D1F240F351FF9016081680F606840E06D
:1016400080E295E028960FB6F894DEBF0FBECDBFBE
:10165000DF91CF910C94E20A40E061E080E295E0F6
:101660000E94E20A8BE39FE10197F1F708950F933F
:101670001F938091CC039091CD03A091CE03B091A4
:10168000CF034091F8025091F9026091FA027091F3
:10169000FB02481759076A077B07FCF00091D0034B
:1016A0001091D1032091D2033091D303800F911F69
:1016B000A21FB31F481759076A077B0774F480916C
:1016C0002B0281114CC081E080932B0285E0809336
:1016D00004031F910F910C942C0B8091D4039091D3
:1016E000D503A091D603B091D703481759076A07CD
:1016F0007B07CCF00091D8031091D9032091DA0335
:101700003091DB03800F911FA21FB31F48175907A9
:101710006A077B0744F480912A02811120C081E08E
:1017200080932A02D3CF809104038530C1F4809145
:101730002A02813021F080912B02813081F460E017
:1017400081E10E94E30360E08DE00E94E3031092D8
:101750002B0210922A020E942C0B109204031F915C
:101760000F91089541E00E94E20A81E090E008951F
:101770000F931F93CF93DF938C01D0E0C0E0F8016B
:10178000EC0FFD1F6491662339F041E080E295E0A3
:101790000E94E20A2196F3CFCE01DF91CF911F91F3
:1017A0000F910895FB0101900020E9F73197AF01F7
:1017B000461B570BDC01ED91FC910280F381E02D7B
:1017C0000994009729F0BC0180E295E00C94D20BBB
:1017D00090E080E00895CF93DF93BC0183E194E033
:1017E0000E94D20BEC016AE771E083E194E00E9471
:1017F000D20B8C0F9D1FDF91CF9108950F931F93F4
:10180000CF93DF93EC01CB01009759F46DE771E0C2
:10181000CE010E94B529CE01DF91CF911F910F918A
:10182000089520E077FF06C02DE2288391958195E9
:10183000910921E0803137E293070CF5883E33E0CF
:101840009307FCF432E0843691052CF431E08A30C1
:1018500091050CF430E0230FFE01E20FF11D11821F
:101860000AE010E0FE01E20FF11DB8010E944027DE
:10187000805D8083CB0121500097A1F7CCCF34E06D
:10188000EACF33E0E8CFCF93DF93BC01EC010990BE
:101890000020E9F72197C81BD90BC03108F582E079
:1018A00094E00E94B52980E18C1BE1EFF3E090E029
:1018B00020E2AF01415F53404817590714F42193C8
:1018C000F8CF8F509C4FFC01108261EF73E082E0F3
:1018D00094E00E94A12982E094E0DF91CF910895E5
:1018E00041E150E082E094E00E94BC29F4CF0F93E4
:1018F0001F93CF93DF93EC018B01FB01019000203C
:10190000E9F73197E61BF70BE03128F5E41718F5F6
:101910004E1B413108F040E1E1EFF3E050E080E39D
:101920009F01215F33402417350714F48193F8CFCA
:101930004F505C4FFA01108261EF73E0CE010E94BC
:10194000B529B801CE010E94A129CE01DF91CF9126
:101950001F910F91089550E04F5F5F4FB801CE0186
:101960000E94BC29F2CF4DE450E070E060E08FE8C7
:1019700093E00C94D626CF93DF93EC018091020183
:101980008230D9F128F4813021F1DF91CF9108958F
:10199000833009F445C08930C1F785E00E94BA035D
:1019A000892B99F381E0809302010E942C0B109205
:1019B00004030E94A50460930E0370930F038093A9
:1019C00010039093110360E081E1DF91CF910C94BB
:1019D000E30385E00E94BA03892BB9F270E060E06E
:1019E00082E10E94C20568EE73E080E090E00E9410
:1019F000720482E080930201C8CF85E00E94BA039E
:101A0000892B19F2BE01772771608FE00E94C20511
:101A100068EE73E080E090E00E94720483E0EACF19
:101A200085E00E94BA03892B09F4AFCF8091B003FF
:101A30009091B1038C179D0739F46091B8037091B0
:101A4000B903039709F043C08091B2039091B303A7
:101A50008C179D0761F5C330D10549F16091AE0344
:101A60007091AF03772774608FE00E94C205809168
:101A7000AE039091AF0301969093AF038093AE03B2
:101A80002091AC033091AD032817390734F481E07D
:101A900090E09093AF038093AE030E94B30C68EE86
:101AA00073E080E090E00E94720489E0A3CF80910F
:101AB000B4039091B5039C01245F3F4F2C173D0761
:101AC00061F4039751F06091BA037091BB037727DB
:101AD00072608FE00E94C205E2CF8091B6039091C0
:101AE000B7039C01245F3F4F2C173D0719F4039760
:101AF00009F0B4CF6091A8037091A90382E10E941C
:101B0000C2058091A8039091A90301969093A9031F
:101B10008093A8032091AA033091AB0328173907BB
:101B20000CF0BBCF81E090E09093A9038093A803D1
:101B3000B4CF0F931F93CF93DF93EC0188819981EA
:101B4000009759F02A813B812617370730F081E052
:101B5000DF91CF911F910F9108958B016F5F7F4FA0
:101B60000E94DB28009759F0998388831B830A839E
:101B70002C813D81232B59F7FC011082E8CF80E0B6
:101B8000E7CFCF93DF93EC0188819981009711F023
:101B90000E945228198218821D821C821B821A827E
:101BA000DF91CF910895EF92FF920F931F93CF9300
:101BB000DF93EC01FB01E080F180E114F10411F10D
:101BC0000481158101151105A9F08C819D81080FF3
:101BD000191FB801CE010E94990D882399F0288120
:101BE00039818C819D81B701820F931F0E94B52995
:101BF0001D830C83CE01DF91CF911F910F91FF9038
:101C0000EF900895CE010E94C10DF4CFEF92FF92A4
:101C10000F931F93CF93DF93EC017B0119821882FE
:101C20001B821A821D821C82FB0101900020E9F7B1
:101C300031978F01061B170BB8010E94990D811176
:101C400009C0CE01DF91CF911F910F91FF90EF90CE
:101C50000C94C10D1D830C83B70188819981DF919C
:101C6000CF911F910F91FF90EF900C94B529FC013B
:101C700080819181009711F00C945228089585ED90
:101C80008093BC008091610390916203A0916303F3
:101C9000B09164030796A11DB11D23E0B695A795E9
:101CA000979587952A95D1F72091BC0024FD03C014
:101CB00010925F0308954091610350916203609117
:101CC000630370916403452B462B472B69F3009700
:101CD000A105B10541F025E32A95F1F70000019730
:101CE000A109B109E1CF809160030C9427076F929D
:101CF0007F928F929F92AF92BF92CF92DF92EF929C
:101D0000FF920F931F93CF93DF93CDB7DEB7E98890
:101D1000FA88FE017496D12CC12C712CAB88B12CA1
:101D200080E1682E872D90E0CA14DB042CF52FE0AB
:101D3000271510F14F0122E0820E911C6081718104
:101D4000FB0101900020E9F731978F01061B170B6B
:101D50009C01200F311D462D4719213131050CF40E
:101D6000402F50E08E0D9F1D0E94BC29700E8FEFFA
:101D7000C81AD80AF401D6CF8E0D9F1DFC0110821F
:101D8000C701DF91CF911F910F91FF90EF90DF90EE
:101D9000CF90BF90AF909F908F907F906F9008955D
:101DA000CF92DF92EF92FF920F931F93CF93DF9327
:101DB000CDB7DEB760970FB6F894DEBF0FBECDBFCC
:101DC000188A1F862AE32F872CE330E040E050E09A
:101DD0000E9454276B01B901CE0101960E94FE0BAF
:101DE0008E01045F1F4F42E0BE016F5F7F4FC8014D
:101DF0000E94770CB601CE0101960E94FE0B7E0177
:101E000089E0E80EF11C42E0BE016F5F7F4FC70121
:101E10000E94770CFF92EF92CE010F969F938F93C3
:101E20001F930F9383E08F9380EE93E09F938F93A4
:101E30000E94770E0FB6F894DEBF0FBECDBF80EEC6
:101E400093E060960FB6F894DEBF0FBECDBFDF9172
:101E5000CF911F910F91FF90EF90DF90CF90089559
:101E60008F929F92AF92BF92CF92DF92EF92FF92AA
:101E70000F931F93CF93DF93CDB7DEB760970FB665
:101E8000F894DEBF0FBECDBF188A1F862AE32F87C6
:101E90002CE330E040E050E00E9454274B017901F0
:101EA0002D30310514F02C503109B901CE010196C5
:101EB0000E94FE0B8E01045F1F4F42E0BE016F5F68
:101EC0007F4FC8010E94770CB401CE0101960E9499
:101ED000FE0B6E0199E0C90ED11C42E0BE016F5F9E
:101EE0007F4FC6010E94770C8CE0E816F10474F570
:101EF00089E891E09F938F93DF92CF92CE010F9666
:101F00009F938F931F930F9384E08F9380EE93E0C2
:101F10009F938F930E94770E0FB6F894DEBF0FBE8B
:101F2000CDBF80EE93E060960FB6F894DEBF0FBE93
:101F3000CDBFDF91CF911F910F91FF90EF90DF9078
:101F4000CF90BF90AF909F908F90089582E891E0DE
:101F5000D1CFCF92DF92EF92FF920F931F93CF9347
:101F6000DF93CDB7DEB765970FB6F894DEBF0FBE2F
:101F7000CDBF82508D3208F0EAC1E82FF0E0ED537A
:101F8000F04F0C947327F00FF00FF00F561056100F
:101F9000A7116D109C10B810C310D010A711E81035
:101FA0000D11A71116112311281136113B114011E3
:101FB0005511A411A7115A115A115A116311631125
:101FC00063116C116C116C11751175117511A711DC
:101FD0007E117E117E1187119211921192119B1127
:101FE0001D8A1C8A8FE28C8B60918D0370918E0309
:101FF000CE0101960E94FE0B8E010F5E1F4F42E044
:10200000BE016F5F7F4FC8010E94770C60918B0308
:1020100070918C03CE0101960E94FE0B7E018EE032
:10202000E80EF11C42E0BE016F5F7F4FC7010E94C6
:10203000770C6091890370918A03CE0101960E940A
:10204000FE0B6E0199E0C90ED11C44E0BE016F5F2A
:102050007F4FC6010E94770CDF92CF92CE0144964B
:102060009F938F93FF92EF929F938F931F930F9362
:1020700085E08F9380EE93E09F938F930E94770E7D
:102080000FB6F894DEBF0FBECDBF80EE93E065962D
:102090000FB6F894DEBF0FBECDBFDF91CF911F9179
:1020A0000F91FF90EF90DF90CF900895A091DE0305
:1020B000B091DF032CE330E00E9479270091DC032C
:1020C0001091DD03012E000C220B330B600F711FEA
:1020D000821F931F0E94300FD8CF60919E03709192
:1020E0009F036D30710514F06C507109CE0101969B
:1020F0000E94FE0B8E01075F1F4F42E0BE016F5F23
:102100007F4FC8010E94770C80919E0390919F039E
:102110000C971CF486E891E002C08FE791E09F9352
:102120008F931F930F9382E08F9380EE93E09F93A2
:102130008F930E94770EA4CF6091A0037091A103AA
:102140006D30710514F06C507109CE0101960E943A
:10215000FE0B8E01075F1F4F42E0BE016F5F7F4F96
:10216000C8010E94770C8091A0039091A103D0CF69
:102170006091AA037091AB03CE0101960E94FE0B01
:102180002DE831E00AC06091A2037091A303CE0153
:1021900001960E94FE0B24E931E03F932F9343C048
:1021A0006091A4037091A503CE0101960E94FE0BDD
:1021B0009F938F9381E08F9380EE93E09F938F9313
:1021C0000E94770E0F900F900F900F900F905DCFA1
:1021D0000091030110910401B8010D30110514F0B4
:1021E0006C507109CE0101960E94FE0B7E0199E0B0
:1021F000E90EF11C42E0BE016F5F7F4FC7010E94F4
:10220000770C86E891E00C30110514F08FE791E02F
:102210009F938F93FF92EF9286CF8DE991E09F93EA
:102220008F9385EA91E09F938F937DCF6091B00368
:102230007091B1036330710509F090C02CE731E073
:1022400088EF91E0AACF6091B2037091B303F2CF0F
:102250006091B4037091B5036330710579F3CE01D9
:1022600001960E94FE0B22E831E097CF6091B60301
:102270007091B703F1CF6091AC037091AD037CCF47
:102280006091B8037091B903CE0101960E94FE0BD4
:102290008E01075F1F4F43E0BE016F5F7F4FC80194
:1022A0000E94770C1F930F9385CF6091BA037091B2
:1022B000BB03EACF6091BC037091BD038091BE0364
:1022C0009091BF0307CF6091C0037091C1038091CB
:1022D000C2039091C303FECE6091C4037091C50305
:1022E0008091C6039091C703F5CE6091C8037091A9
:1022F000C9038091CA039091CB03ECCE6091CC03CB
:102300007091CD038091CE039091CF03E3CE609185
:10231000D0037091D1038091D2039091D3030E9496
:10232000D00EB3CE6091D4037091D5038091D603C3
:102330009091D703CFCE6091D8037091D90380914B
:10234000DA039091DB03EBCF1092E0039ECE62E3C1
:1023500071E080EE93E00E94B52997CECE01019600
:102360000E94FE0B29E831E018CFAF92BF92CF92C6
:10237000DF92EF92FF920F931F93CF93DF93CDB72E
:10238000DEB7A3970FB6F894DEBF0FBECDBFCE0168
:1023900009960E94230A6C85662309F4D5C06C3027
:1023A00011F008F06C5070E0CE0101960E94FE0B17
:1023B0008E01085E1F4F42E0BE016F5F7F4FC80174
:1023C0000E94770CCE0109960E94230A6D8570E069
:1023D000CE0101960E94FE0B7E018BE1E80EF11CFE
:1023E00042E0BE016F5F7F4FC7010E94770CCE01B4
:1023F00009960E94230A6E8570E0CE0101960E9424
:10240000FE0B6E019EE1C90ED11C42E0BE016F5F62
:102410007F4FC6010E94770C60E082E00E94F90ABB
:10242000CE0109960E94230A8C858C3008F08EC05C
:1024300089E891E09F938F93DF92CF928AEA91E0AF
:102440009F938F93FF92EF929F938F931F930F937E
:1024500086E0D82EDF9202E014E01F930F930E94D3
:10246000770E0E94E10BCE0109960E94230A6B852C
:1024700070E0CE0101960E94FE0B7E0181E2E80E23
:10248000F11C42E0BE016F5F7F4FC7010E94770CD5
:10249000CE0109960E94230A698570E06053784F47
:1024A000CE0101960E94FE0B5E019FE0A90EB11CB9
:1024B00044E0BE016F5F7F4FC5010E94770CCE01E3
:1024C00009960E94230A8A858150990BD89EF001B3
:1024D000D99EF00D1124E454FB4F608171816E018F
:1024E00084E1C80ED11CC6010E94B52961E082E0DA
:1024F0000E94F90ABF92AF928CEA91E09F938F936A
:10250000DF92CF929F938F93FF92EF9285E08F930C
:102510001F930F930E94770E0E94E10B0FB6F89461
:10252000DEBF0FBECDBFA3960FB6F894DEBF0FBEC1
:10253000CDBFDF91CF911F910F91FF90EF90DF9072
:10254000CF90BF90AF9008956CE02DCF82E891E0DE
:1025500071CF1F93CF93DF93CDB7DEB761970FB6DF
:10256000F894DEBF0FBECDBF0E947502182F60E049
:1025700080E00E94F90A0E94630290910A05E091AE
:102580000705F0910805882369F186E0989FE00D22
:10259000F11D1124319665917491CE0101960E942E
:1025A0008A260E94430C8EE78093110482E094E017
:1025B0000E94E10B1A3151F01D3141F0103231F01F
:1025C000812F8B7F833211F01B3231F561E080E087
:1025D0000E94F90A88E292E00E94E10B812F0E949A
:1025E000A90F20C086E0989FE00DF11D11243196BF
:1025F00065917491CE0101960E948A260E94430C37
:102600000E947502182F81111BC08FE7809311045F
:1026100082E094E00E94E10B61E080E00E94F90A10
:102620008DE191E00E94430C0E94E10B61960FB690
:10263000F894DEBF0FBECDBFDF91CF911F910895FB
:1026400082E094E00E94E10BC1CF1F920F920FB67F
:102650000F9211242F933F934F935F936F937F9328
:102660008F939F93AF93BF93EF93FF9383E194E096
:102670000E94C102FF91EF91BF91AF919F918F9105
:102680007F916F915F914F913F912F910F900FBE6E
:102690000F901F9018951F920F920FB60F92112452
:1026A0002F938F939F93EF93FF93E0912304F091E7
:1026B00024048081E0912904F0912A0482FD1BC04A
:1026C000908180912C048F5F8F7320912D0482174D
:1026D00041F0E0912C04F0E0ED5EFB4F958F80938C
:1026E0002C04FF91EF919F918F912F910F900FBE2E
:1026F0000F901F9018958081F4CF1F920F920FB604
:102700000F9211242F933F938F939F93AF93BF9377
:102710008091B2029091B302A091B402B091B5023F
:102720003091B10223E0230F2D3758F50196A11DFA
:10273000B11D2093B1028093B2029093B302A09393
:10274000B402B093B5028091B6029091B702A09105
:10275000B802B091B9020196A11DB11D8093B602D5
:102760009093B702A093B802B093B902BF91AF9112
:102770009F918F913F912F910F900FBE0F901F90BF
:10278000189526E8230F0296A11DB11DD2CF1F92E6
:102790000F920FB60F9211242F933F934F935F9395
:1027A0006F937F938F939F93AF93BF93EF93FF9319
:1027B000E091BC02F091BD02309749F0A685B78543
:1027C0008585968D91FF14C09C918923A1F4FF917A
:1027D000EF91BF91AF919F918F917F916F915F9199
:1027E0004F913F912F910F900FBE0F901F90189512
:1027F0009C91892361F7A389B4899C9185898095EF
:1028000089238C93868997890197F1F7608D718D63
:10281000A685B785558538E020E0CB010197F1F713
:10282000822F90E095958795282F4C91452309F0AC
:102830002068315091F7868D81FD20958091BB02F3
:1028400090E001968F7399273091BA02381799F06A
:10285000A091BB02B0E0AF58BD4F2C938093BB0258
:10286000828D938D0197F1F7A389B4898C91958915
:10287000892B8C93ACCF868D8160868FF1CF1F9290
:102880000F920FB60F9211242F933F934F935F93A4
:102890006F937F938F939F93AF93BF93EF93FF9328
:1028A0008091B900887F803609F44AC0F0F58832FB
:1028B00009F4A7C018F5803109F49BC0B8F4882347
:1028C00009F4F9C0883009F494C0FF91EF91BF91E9
:1028D000AF919F918F917F916F915F914F913F91B8
:1028E0002F910F900FBE0F901F901895883109F40B
:1028F00088C0803251F780935D0314C0803409F49E
:102900009DC040F48033B9F38833F9F680935D03BA
:1029100085ECB0C0803509F485C0883509F496C0CF
:10292000883499F60E943F0ED0CF883909F48CC0C4
:1029300038F5883729F050F4883611F0803729F6B9
:1029400083E080935F031092700257C0883809F4C7
:102950007BC0803919F0803809F0B7CF80917002C0
:10296000803208F071C0E091700281E08E0F809398
:1029700070028091BB00F0E0E05BFD4F80833DC0C2
:10298000803B39F0E0F4803A09F479C0883A09F0E4
:102990009CCF84E080935F0310924F0210924E020E
:1029A000E0911503F0911603099580914E02811173
:1029B0000FC081E080934E0210922E0209C0803C2D
:1029C00009F4A6CF883C09F4A3CF883B09F07DCF5A
:1029D000E0914F0281E08E0F80934F02F0E0E25DC4
:1029E000FD4F80818093BB0090914F0280914E02F9
:1029F00029C080913A038093BB0085EC8093BC0092
:102A000064CF90915C0380915B03981758F5E09137
:102A10005C0381E08E0F80935C03F0E0E55CFC4F8B
:102A20008081E9CFE0915C0381E08E0F80935C03AD
:102A30008091BB00F0E0E55CFC4F808390915C03EB
:102A400080915B039817C8F285E8D8CFE0915C03CA
:102A500081E08E0F80935C038091BB00F0E0E55C29
:102A6000FC4F808380915E0381115CCF81E0809375
:102A7000390384EA8093BC0010925F0326CF85EC73
:102A80008093BC0010925F0380917002803230F41A
:102A9000E0917002F0E0E05BFD4F10826091700207
:102AA00070E0E0911303F091140380E592E0099542
:102AB000109270020ACF10925D0334CF1092160468
:102AC0001092150488EE93E0A0E0B0E08093170424
:102AD00090931804A0931904B0931A042CE331E0E6
:102AE000309314042093130425EC30E03093200439
:102AF00020931F0424EC30E030932204209321041F
:102B000020EC30E0309324042093230421EC30E0C7
:102B1000309326042093250422EC30E030932804DF
:102B20002093270426EC30E030932A0420932904D4
:102B300010922C0410922D0410922E0410922F0447
:102B40001092B3041092B2048093B4049093B5042D
:102B5000A093B604B093B7042EE431E03093B104EF
:102B60002093B00410925505109254058093560599
:102B700090935705A0935805B09359058CE691E0C2
:102B80009093530580935205109269051092680541
:102B900010926B0510926A0510926D0510926C05EB
:102BA00010926F0510926E05609170056E7F6D7FBB
:102BB000609370056695617081E0682783E00E94EC
:102BC000E30361E083E00E941104E9E3F4E0E491AF
:102BD000E0936205E5E2F4E0E491F0E0EE0FFF1F20
:102BE000E85EFB4F85919491909364058093630513
:102BF00060E082E00E9411048091700581FD04C0B4
:102C000061E082E00E94E30382E080935E05E8E3F6
:102C1000F4E0E491E0935F05E4E2F4E0E491F0E0B5
:102C2000EE0FFF1FE25FFB4F25913491309361055A
:102C30002093600544EF51E060E070E0409332057E
:102C40005093330560933405709335059AE0E3E1C2
:102C5000F1E0A0E4B5E001900D929A95E1F71092B1
:102C60004A0580934B051092500510925105109221
:102C700023051092220520E631E0309321052093B0
:102C8000200597E29093240590E190932905809385
:102C90002A0510922B052AE434E030930505209391
:102CA000040586E080930605309308052093070508
:102CB0008093090510920A0510921F056EEA71E0D3
:102CC0008CEB94E00E94060E62EB71E082EC94E0E3
:102CD0000E94060E66EB71E088EC94E00E94060EFE
:102CE0006AEB71E08EEC94E00E94060E6EEB71E0F0
:102CF00084ED94E00E94060E62EC71E08AED94E0AF
:102D00000E94060E66EC71E080EE94E00E94060ED2
:102D10006AEC71E086EE94E00E94060E6EEC71E0C3
:102D20008CEE94E00E94060E62ED71E082EF94E07A
:102D30000E94060E66ED71E088EF94E00E94060E98
:102D40006AED71E08EEF94E00C94060ECF93DF9362
:102D5000CDB7DEB76F970FB6F894DEBF0FBECDBF0D
:102D6000789484B5826084BD84B5816084BD85B566
:102D7000826085BD85B5816085BD80916E00816072
:102D800080936E0010928100809181008260809318
:102D9000810080918100816080938100809180001A
:102DA0008160809380008091B10084608093B10045
:102DB0008091B00081608093B00080917A0084603F
:102DC00080937A0080917A00826080937A0080916B
:102DD0007A00816080937A0080917A008068809385
:102DE0007A001092C10061E081E10E94110461E06B
:102DF0008DE00E94110461E08EE00E94110461E008
:102E00008FE00E94110461E08AE00E94110461E0F9
:102E10008BE00E94110461E08CE00E94110462E0EA
:102E200085E00E94110462E086E00E94110462E0E5
:102E300087E00E94110462E088E00E94110462E0D1
:102E400089E00E9411040E9410070E94100710924E
:102E5000250580912A05823018F098E09093250589
:102E60008093280562E370E080E090E00E947204A5
:102E700060912B0580E295E00E94830968EE73E083
:102E800080E090E00E94720460E380E295E00E949E
:102E9000C90A0BE416E4C8010197F1F760E380E288
:102EA00095E00E94C90AC8010197F1F760E380E24A
:102EB00095E00E94C90A83E592E00197F1F760E28C
:102EC00080E295E00E94C90A60912505606240E0B9
:102ED00080E295E00E94E20A84E08093260540E0CB
:102EE0006CE080E295E00E94E20A0E942C0B82E0F6
:102EF0008093270540E066E080E295E00E94E20AC8
:102F000040E062E080E295E00E94E20A8BE39FE10C
:102F10000197F1F788E080932B0560E080E295E06F
:102F20000E94830960E085E00E94F90A80EA93E04C
:102F30000E94B80B61E086E00E94F90A8AE993E0FA
:102F40000E94B80B60ED77E080E090E00E94720490
:102F50000E942C0B60E083E00E94F90A8EED91E064
:102F60000E94E10B4DE450E070E060E08FE893E0F8
:102F70000E94C62663E271E08FE893E00E94AC29CC
:102F8000892B09F494C063E271E08FE893E00E941A
:102F9000B52982E390E09093AB038093AA0385E088
:102FA00090E090939F0380939E0386E190E090933E
:102FB000A1038093A00384E190E09093A303809306
:102FC000A2038EE090E09093A5038093A40321E0F8
:102FD00030E03093A9032093A8038AE090E0909317
:102FE000AD038093AC033093AF032093AE0383E033
:102FF00090E09093B1038093B0039093B3038093D8
:10300000B2039093B7038093B6039093B503809374
:10301000B4033093B9032093B80382E090E0909317
:10302000BB038093BA031092BC031092BD031092AD
:10303000BE031092BF031092C0031092C1031092FE
:10304000C2031092C3031092C4031092C5031092DE
:10305000C6031092C7031092C8031092C9031092BE
:10306000CA031092CB031092CC031092CD0310929E
:10307000CE031092CF031092D0031092D10310927E
:10308000D2031092D3031092D4031092D50310925E
:10309000D6031092D7031092D8031092D90310923E
:1030A000DA031092DB031092A6031092A70311E03B
:1030B00008E60E941007109365030093870310929F
:1030C0006603109288030E9448078111E2C01093A2
:1030D0006503109266031092880360E080EB94E031
:1030E0000E9454090E94480761E088E60E942F0868
:1030F000109218038093170380EB94E00E940D094F
:1031000087FF0CC00E942C0B8CE893E00E94B80B48
:1031100060ED77E080E090E00E94720410926D050F
:1031200010926C0510926B0510926A051092690559
:10313000109268058DE991E090936F0580936E057C
:1031400090915E05963108F047C02DEB30E030934A
:103150006905209368052BE931E030936B052093D6
:103160006A052CE231E030936D0520936C052091C7
:10317000680084E0983048F031E09E3008F430E098
:1031800081E001C0880F3A95EAF7822B80936800AE
:103190002DE630E0983050F02BE630E09E3030F0F5
:1031A0002CE630E0963110F030E020E030936605F8
:1031B00020936505292F30E0983008F071C081E038
:1031C00001C0880F9A95EAF78093670580916E0594
:1031D00090916F050197F1F780916C0590916D05C5
:1031E000892B49F1E091BC02F091BD0225E0E23566
:1031F000F20709F1309739F0A389B4899C91858948
:10320000809589238C93809170058E7F80937005C3
:103210001092BB021092BA0282E595E09093BD0233
:103220008093BC02E0916505F091660580819091E4
:103230006705892B808364EF71E080E090E00E9455
:10324000720402E515E0BB24B39410932D0500939E
:103250002C05B092440570E060E08CE00E94C2054D
:103260000E94A5046B017C010E94B104811125C05C
:103270000E94A5046C197D098E099F09613D774064
:1032800081059105D0F460E070E0CB010E947204EA
:10329000EBCF0E942C0B83E993E00E94B80B09CF7F
:1032A0009E3040F42850310981E001C0880F2A95F2
:1032B000EAF78ACF2E503109F7CF68EC70E080E052
:1032C00090E00E9472041092500580914C05843069
:1032D00059F0893049F060E080E00E94F90A85E801
:1032E00093E00E94B80BB1CF84EF91E0A0E0B0E092
:1032F0008093320590933305A0933405B093350540
:103300006091A4037091A503772786E00E94C2050F
:1033100062E070E089E00E94C20568EC70E080E045
:1033200090E00E9472040E942C0B0E94A5046093FE
:103330000E0370930F0380931003909311038E017B
:103340000F5F1F4F86E1282E312C772473940E9443
:10335000A504C090EB02D090EC02E090ED02F0905A
:10336000EE026C197D098E099F0964317105810592
:10337000910508F49EC00E94A5046093EB0270932F
:10338000EC028093ED029093EE0286E00E94BA0375
:103390007C0187E00E94BA0366246394892B31F094
:1033A00081E0EF2809F480E0682E619488E00E94B3
:1033B000BA03892B11F4B2E06B2E89E00E94BA03A4
:1033C000892B11F4A3E06A2E6EEBC62E62E0D62E96
:1033D00072EDE72E72E0F72EEEE18E2EE1E09E2EEA
:1033E000F6EEAF2EF2E0BF2E552453941F8E4F8D74
:1033F000411146C1F4018081861142C1F1E0FF8F85
:1034000044244394F50181915F018415A9F044207F
:1034100009F438C1852D0E940B0A0E94A504F7010A
:103420006083718382839383F601608371838283D7
:103430009383F50131974082442071F10E94A504E5
:10344000F7012081318142815381621B730B840B10
:10345000950B693B7B4081059105F0F00E94A50426
:10346000F6012081318142815381621B730B840BF1
:10347000950B6B3F71058105910570F08A2D26EE45
:1034800032E0821B80680E940B0A0E94A504F601AC
:1034900060837183828393835394F4E0CF0ED11CB5
:1034A00024E0E20EF11C3FEF831A930A46E0541227
:1034B0009ECF9091F50219160CF4FCC010921203E5
:1034C00080911203833811F58091090381111EC088
:1034D0008091A703811151C17092A70361E00E94FE
:1034E000F90A8BED93E00E94B80B6091A7038EE080
:1034F0000E94E30368EE73E080E090E00E947204B3
:103500000E942C0B0E94B30C70920903809112034D
:10351000825C833010F4109209030E94A504C090CD
:103520000503D0900603E0900703F09008036C19A0
:103530007D098E099F09693E73408105910508F454
:103540007BC00E94A50460930503709306038093DB
:103550000703909308038091A703882309F46CC0A4
:103560004091C0035091C1036091C2037091C303A5
:10357000C090BC03D090BD03E090BE03F090BF03A9
:103580008091F8029091F902A091FA02B091FB02A9
:103590002091F702C416D506E606F7060CF004C122
:1035A0008C159D05AE05BF050CF4F0C0841795077A
:1035B000A607B7070CF0EAC021110AC089EE91E016
:1035C0000E94EB0B61E08AE00E94E3037092F70235
:1035D0004091C8035091C9036091CA037091CB0315
:1035E000C090C403D090C503E090C603F090C70319
:1035F0008091F8029091F902A091FA02B091FB0239
:103600002091F602C416D506E606F7060CF0DDC0DA
:103610008C159D05AE05BF050CF4CDC0841795072C
:10362000A607B7070CF0C7C0211106C061E08BE008
:103630000E94E3037092F6026091A7038EE00E945D
:10364000E3036091A6038FE00E94E30380910403EB
:10365000823009F4A6C308F0BFC0882309F447C12B
:10366000813009F44CC280E090E0892B09F46FCEE0
:103670000E945003882309F468CE0E94000062CEA5
:10368000412CC0CE0E94A504F701208131814281E6
:103690005381621B730B840B950B693B7B40810547
:1036A000910528F0852D806C0E940B0AC2CE852DD5
:1036B0008064FACF8091F402E82FF0E0E151FD4FF1
:1036C000F08091509093F5028F5F853008F049C0EB
:1036D0008093F402F0921203FF2009F417CF0E94A6
:1036E000A50460930E0370930F03809310039093CF
:1036F00011030E94A50460930A0370930B03809347
:103700000C0390930D0388E080932B0560E080E22A
:1037100095E00E94830952E8F512D2CE8091090308
:103720008111F4CE8091A60381111EC07092A60370
:1037300061E00E94F90A8DEF93E00E94B80B60915E
:10374000A6038FE00E94E30368EE73E080E090E060
:103750000E9472040E942C0B0E94B30C7092090309
:10376000AFCE1092F402B6CF1092A60361E080E0D3
:103770000E94F90A8CEE93E0E0CF1092A70361E07B
:1037800080E00E94F90A8AEC93E0ADCE213009F086
:103790001FCF82EF91E00E94EB0B60E08AE00E9475
:1037A000E3031092F70214CF8C159D05AE05BF05FB
:1037B0000CF002CFFBCE213009F03ECF60E08BE071
:1037C0000E94E3031092F60237CF8C159D05AE05DB
:1037D000BF050CF029CF22CF843011F40C94D325EF
:1037E00008F45FC1853009F03ECF61E081E10E94BD
:1037F000E30361E08DE00E94E3030E94A504C09012
:10380000FC02D090FD02E090FE02F090FF026C19E5
:103810007D098E099F09693E73408105910568F114
:103820000E94A5046093FC027093FD028093FE0247
:103830009093FF020E94B511C8010E94230AEC80F8
:103840002CE3E29E70011124CE0143960E94230ACC
:103850008F898E0D9F2D911D092E000CAA0BBB0B7D
:103860008093F8029093F902A093FA02B093FB02BE
:103870008091A60381110E94370B0E94A504C0907D
:103880000E03D0900F03E0901003F09011039B0102
:10389000AC012C193D094E095F0969017A01A0911B
:1038A000A203B091A30328EE33E00E9479276C15A0
:1038B0007D058E059F0538F410922B0560E080E2AF
:1038C00095E00E94830961E080E00E94F90A88EA9D
:1038D00093E00E94B80B80911203843809F0C3CEA4
:1038E000809109038111BFCE10920403D5C060E01E
:1038F00081E10E94E30360E08DE00E94E303809198
:103900001203813879F47092040383E00E94A912B3
:103910000E94A50460930A0370930B0380930C0329
:1039200090930D03C8010E94230A8D81811142C02A
:10393000CE0143960E94230A888D81113BC00E94CC
:10394000A504AB01BC018091000390910103A091FB
:103950000203B0910303885B9141AF4FBF4F8417BF
:103960009507A607B70730F5C8010E94230A8C8186
:1039700090E020919E0330919F0382179307D4F02B
:103980002091A0033091A103281739079CF061E032
:1039900081E10E94E3030E94A504609300037093F9
:1039A0000103809302039093030383E08093040355
:1039B0000E942C0B0E94A504C090FC02D090FD0236
:1039C000E090FE02F090FF026C197D098E099F09BC
:1039D000693E73408105910568F10E94A5046093DA
:1039E000FC027093FD028093FE029093FF020E94FE
:1039F000B511C8010E94230AEC802CE3E29E7001FD
:103A00001124CE0143960E94230A8F898E0D9F2D8B
:103A1000911D092E000CAA0BBB0B8093F80290930A
:103A2000F902A093FA02B093FB028091A6038111E0
:103A30000E94370B0E94A504C0900E03D0900F0384
:103A4000E0901003F09011039B01AC012C193D098B
:103A50004E095F0969017A01A091A203B091A30305
:103A600028EE33E00E9479276C157D058E059F05B1
:103A700038F410922B0560E080E295E00E94830903
:103A800080911203843809F0EECD809109038111F1
:103A9000EACD85E0809304030E942C0B7092090309
:103AA000E2CD88E080932B0560E080E295E00E9403
:103AB000830961E080E00E94F90A8CEF91E00E94A6
:103AC000E10B0E94A504AB01BC0180910003909121
:103AD0000103A0910203B091030388579C4EAF4F9E
:103AE000BF4F481759076A077B0708F4BCCDC801C8
:103AF0000E94230A8C8190E00E94BB0CB4CD0E94EE
:103B0000A504C0900A03D0900B03E0900C03F09042
:103B10000D036C197D098E099F096131774281057A
:103B20009105A0F0809104059091050590930805FA
:103B300080930705809106058093090510920A0578
:103B400010921F05109204030E942C0B0E94750214
:103B5000813079F5C8010E94230A8B8190E090930F
:103B60008E0380938D03C8010E94230A8A8190E00E
:103B700090938C0380938B03C8010E94230A898150
:103B800090E08053984F90938A0380938903C801F3
:103B90000E94230A8C8190E09093DF038093DE03E0
:103BA000C8010E94230A8D8190E09093DD038093E9
:103BB000DC03F090120344E8F41214C08091040571
:103BC000909105059093080580930705809106055F
:103BD0008093090510920A0510921F0510920403A4
:103BE0000E942C0B0E9463028F2D8F77823079F117
:103BF000833081F151E0F51681F164E4F61681F12C
:103C0000F12C8DEF8F0D823008F0ACC00E94750250
:103C1000882349F184E0F81631F10E946302811192
:103C20005EC082E0809304030E947502882309F439
:103C30001ACD61E080E00E94F90A8EE780930204C9
:103C40001092030482E094E00E94E10B0CCDFF246B
:103C5000F394D7CF52E0F52ED4CF43E0F42ED1CF5A
:103C600034E0F32ECECF80911F05811113C08091D7
:103C700004059091050590930805809307058091B0
:103C800006058093090510920A050E942C0B1092DC
:103C90000403E9CC815080931F0590E0DC01AA0F5A
:103CA000BB1FAA0FBB1FAC5FBA4F19962D913C9159
:103CB0001A973093080520930705880F991F880FDE
:103CC000991FFC01E45FFA4F8081809309051796E4
:103CD0008C9180930A0582E00E94A912C4CC0E94B4
:103CE0006302882309F43CC030910A0560910705FE
:103CF0007091080520911F052530E8F440910905D1
:103D0000822F90E0DC01AA0FBB1FAA0FBB1FAC5F84
:103D1000BA4F17963C931797880F991F880F991FD2
:103D2000845F9A4FFC0140831A967C936E93199797
:103D30002F5F20931F05CB01F6E03F9F800D911D63
:103D40001124FC013596E491E0930905FC013396BA
:103D500085919491909308058093070510920A0528
:103D600083E0BACF21E0F2120AC080910A058823CD
:103D700009F479CC815080930A0580E0ADCF32E020
:103D8000F31271CC80910A05209109052150330B63
:103D9000821713060CF067CC8F5F80930A0581E0D1
:103DA0009BCF0E947502E82E80911203FF24F394AA
:103DB000813009F0F12CEEEFEE0DED3208F004C287
:103DC000F0E0EB51F14E0C947327121F3C1F5D1F66
:103DD000941FD01FE4200420292048206220822044
:103DE000E420B020CF20E42016215821372179216A
:103DF0009A21B521D6212D25E420E420F721362271
:103E0000E4206B22AA22E420DF221E23E420532395
:103E10009223E420E420C72306243B24E4207A24D0
:103E2000B924EE24982F9F779230C1F480918D03AE
:103E300090918E0301968032910514F081E090E01C
:103E400090938E0380938D0361E081E00E94F90AD4
:103E50008E2D0E94A90F0E94430C9AC6933009F040
:103E60004DC080918D0390918E030197181619060D
:103E70003CF38FE190E0E4CF982F9F77923079F474
:103E800080918B0390918C0301968D30910514F0F5
:103E900081E090E090938C0380938B03D5CF933097
:103EA00009F061C080918B0390918C0301971816E3
:103EB000190684F38CE090E0EDCF982F9F77923035
:103EC00081F48091890390918A0301968330F8E010
:103ED0009F0714F081E090E090938A038093890318
:103EE000B3CF933059F48091890390918A0301975D
:103EF000181619068CF384EE97E0EECF813009F0A6
:103F000050C62091DC033091DE0340918D03509127
:103F10008B038091890390918A03803D67E0960727
:103F2000A8F1805D974032C0982F9F77923079F446
:103F30008091DE039091DF0301968831910514F0A2
:103F400090E080E09093DF038093DE037DCF933099
:103F500051F48091DE039091DF03019797FFF2CF38
:103F600087E190E0EFCF813009F01BC62091DC03A0
:103F70003091DE0340918D0350918B038091890332
:103F800090918A03803DE7E09E0758F689835A8323
:103F90004B833C832D831E82C8010E94960954CF17
:103FA000982F9F77923079F48091DC039091DD0314
:103FB00001968C33910514F090E080E09093DD033E
:103FC0008093DC0341CF933051F48091DC039091D6
:103FD000DD03019797FFF2CF8BE390E0EFCF8130C5
:103FE00009F0DFC52091DC033091DE0340918D03A1
:103FF00050918B038091890390918A03803DF7E073
:104000009F0708F08ECFC2CF982F9F77923079F418
:1040100080919E0390919F0301968831910514F041
:1040200090E080E090939F0380939E030DCF9330A8
:1040300051F480919E0390919F03019797FFF2CFD7
:1040400087E190E0EFCF813009F0ABC50E94B30C5F
:10405000FBCE982F9F77923079F48091A0039091B6
:10406000A10301968831910514F090E080E09093CF
:10407000A1038093A003E8CE933029F78091A00399
:104080009091A103019797FFF2CF87E190E0EFCFE6
:10409000982F9F77923051F48091AA039091AB03AF
:1040A00001969093AB038093AA03CECE933059F63A
:1040B0008091AA039091AB03019797FFF2CF84E61A
:1040C00090E0EFCF982F9F77923079F48091A20300
:1040D0009091A30301968D33910514F090E080E058
:1040E0009093A3038093A203AFCE933009F0ABCF9C
:1040F0008091A2039091A303019797FFF1CF8CE3E6
:1041000090E0EECF982F9F77923079F48091A403BE
:104110009091A50301968F31910514F081E090E014
:104120009093A5038093A4038FCE933059F480918C
:10413000A4039091A5030197181619068CF38EE13C
:1041400090E0EECF813009F02CC50E94B30C609155
:10415000A4037091A503772786E00E94C20574CE60
:104160008F77823079F48091030190910401019658
:104170008831910514F084E090E0909304018093DD
:10418000030162CE833001F5809103019091040117
:104190000197843091058CF787E190E0EECF809114
:1041A000040590910505909308058093070580917B
:1041B00006058093090510920A0510921F0584E0F8
:1041C000809304030E942C0B0E94A50480900A0394
:1041D00090900B03A0900C03B0900D03681979091F
:1041E0008A099B096131774281059105A0F0809190
:1041F000040590910505909308058093070580912B
:1042000006058093090510920A0510921F05109269
:1042100004030E942C0BFF2009F425CA70920403AA
:1042200061E080E00E94F90A80E208CD982F9F7734
:10423000923079F48091B0039091B1030196893066
:10424000910514F083E090E09093B1038093B00364
:10425000FBCD933009F0F7CE8091B0039091B1037C
:1042600001978330910584F788E090E0EDCF982F97
:104270009F77923079F48091B4039091B5030196C1
:104280008930910514F083E090E09093B50380931A
:10429000B403DACD933009F0D6CE8091B403909177
:1042A000B50301978330910584F788E090E0EDCF66
:1042B000982F9F77923079F48091B2039091B30355
:1042C00001968930910514F083E090E09093B30358
:1042D0008093B203B9CD933009F0B5CE8091B2038B
:1042E0009091B30301978330910584F788E090E0C3
:1042F000EDCF982F9F77923079F48091B60390910B
:10430000B70301968930910514F083E090E0909313
:10431000B7038093B60398CD933009F094CE809183
:10432000B6039091B70301978330910584F788E035
:1043300090E0EDCF982F9F77923051F48091AC03AD
:104340009091AD0301969093AD038093AC037CCD27
:10435000933009F078CE8091AC039091AD03019732
:1043600097FFF1CF84E690E0EECF982F9F779230C1
:1043700079F48091B8039091B90301968531910544
:1043800014F081E090E09093B9038093B8035CCD82
:10439000933009F058CE8091B8039091B9030197FA
:1043A0001816190684F384E190E0EDCF982F9F77DB
:1043B000923079F48091BA039091BB0301968531D4
:1043C000910514F081E090E09093BB038093BA03D1
:1043D0003BCD933009F037CE8091BA039091BB0367
:1043E00001971816190684F384E190E0EDCF982F19
:1043F0009F779230C9F48091BC039091BD03A09146
:10440000BE03B091BF03AC01BD01445C5F4F6F4F71
:104410007F4F77FD22C0403A25E0520761057105C4
:10442000E4F4DB01CA0119C0933009F00CCE80918D
:10443000BC039091BD03A091BE03B091BF03AC013A
:10444000BD014C5351096109710977FD06C0403A1D
:1044500035E053076105710524F38093BC03909305
:10446000BD03A093BE03B093BF03EECC982F9F77FC
:104470009230B9F48091BC039091BD03A091BE032A
:10448000B091BF03AC01BD014F5F5F4F6F4F7F4FD6
:1044900077FDE3CF403AE5E05E0761057105ECF694
:1044A000C0CF933009F0CFCD8091BC039091BD0374
:1044B000A091BE03B091BF03AC01BD0141505109B1
:1044C0006109710977FDC9CF403AF5E05F076105E1
:1044D00071051CF6A6CF982F9F779230C9F4809172
:1044E000C0039091C103A091C203B091C303AC017A
:1044F000BD01445C5F4F6F4F7F4F77FD22C0403A54
:1045000025E0520761057105E4F4DB01CA0119C019
:10451000933009F098CD8091C0039091C103A09190
:10452000C203B091C303AC01BD014C5351096109F1
:10453000710977FD06C0403A35E053076105710502
:1045400024F38093C0039093C103A093C203B0935C
:10455000C3037ACC982F9F779230B9F48091C0032F
:104560009091C103A091C203B091C303AC01BD01FE
:104570004F5F5F4F6F4F7F4F77FDE3CF403AE5E0EE
:104580005E0761057105ECF6C0CF933009F05BCD95
:104590008091C0039091C103A091C203B091C30365
:1045A000AC01BD01415051096109710977FDC9CFC5
:1045B000403AF5E05F07610571051CF6A6CF982F1C
:1045C0009F779230C9F48091C4039091C503A09164
:1045D000C603B091C703AC01BD01445C5F4F6F4F90
:1045E0007F4F77FD22C0403A25E0520761057105F3
:1045F000E4F4DB01CA0119C0933009F024CD8091A5
:10460000C4039091C503A091C603B091C703AC0148
:10461000BD014C5351096109710977FD06C0403A4B
:1046200035E053076105710524F38093C40390932B
:10463000C503A093C603B093C70306CC982F9F77FA
:104640009230B9F48091C4039091C503A091C60340
:10465000B091C703AC01BD014F5F5F4F6F4F7F4FFC
:1046600077FDE3CF403AE5E05E0761057105ECF6C2
:10467000C0CF933009F0E7CC8091C4039091C5037B
:10468000A091C603B091C703AC01BD0141505109CF
:104690006109710977FDC9CF403AF5E05F0761050F
:1046A00071051CF6A6CF982F9F779230C9F48091A0
:1046B000C8039091C903A091CA03B091CB03AC0188
:1046C000BD01445C5F4F6F4F7F4F77FD22C0403A82
:1046D00025E0520761057105E4F4DB01CA0119C048
:1046E000933009F0B0CC8091C8039091C903A09198
:1046F000CA03B091CB03AC01BD014C535109610910
:10470000710977FD06C0403A35E053076105710530
:1047100024F38093C8039093C903A093CA03B09372
:10472000CB0392CB982F9F779230B9F48091C80336
:104730009091C903A091CA03B091CB03AC01BD0114
:104740004F5F5F4F6F4F7F4F77FDE3CF403AE5E01C
:104750005E0761057105ECF6C0CF933009F073CCAC
:104760008091C8039091C903A091CA03B091CB0373
:10477000AC01BD01415051096109710977FDC9CFF3
:10478000403AF5E05F07610571051CF6A6CF982F4A
:104790009F779230C9F48091CC039091CD03A09182
:1047A000CE03B091CF03AC01BD01445C5F4F6F4FAE
:1047B0007F4F77FD22C0403A25E052076105710521
:1047C000E4F4DB01CA0119C0933009F03CCC8091BC
:1047D000CC039091CD03A091CE03B091CF03AC0157
:1047E000BD014C5351096109710977FD06C0403A7A
:1047F00035E053076105710524F38093CC03909352
:10480000CD03A093CE03B093CF031ECB982F9F77F9
:104810009230B9F48091CC039091CD03A091CE0356
:10482000B091CF03AC01BD014F5F5F4F6F4F7F4F22
:1048300077FDE3CF403AE5E05E0761057105ECF6F0
:10484000C0CF933009F0FFCB8091CC039091CD0382
:10485000A091CE03B091CF03AC01BD0141505109ED
:104860006109710977FDC9CF403AF5E05F0761053D
:1048700071051CF6A6CF982F9F779230C9F48091CE
:10488000D0039091D103A091D203B091D303AC0196
:10489000BD014B5F5F4F6F4F7F4F77FD22C0403AA6
:1048A00025E0520761057105E4F4DB01CA0119C076
:1048B000933009F0C8CB8091D0039091D103A0919F
:1048C000D203B091D303AC01BD0145505109610938
:1048D000710977FD06C0403A35E05307610571055F
:1048E00024F38093D0039093D103A093D203B09389
:1048F000D303AACA982F9F779230C9F48091D4032A
:104900009091D503A091D603B091D703AC01BD011E
:10491000445C5F4F6F4F7F4F77FD22C0403AE5E028
:104920005E0761057105E4F4DB01CA0119C093302B
:1049300009F089CB8091D4039091D503A091D6033F
:10494000B091D703AC01BD014C5351096109710904
:1049500077FD06C0403AF5E05F076105710524F375
:104960008093D4039093D503A093D603B093D70339
:104970006BCA982F9F779230B9F48091D4039091AD
:10498000D503A091D603B091D703AC01BD014F5F11
:104990005F4F6F4F7F4F77FDE3CF403A25E05207DF
:1049A00061057105ECF6C0CF933009F04CCB8091D6
:1049B000D4039091D503A091D603B091D703AC0155
:1049C000BD01415051096109710977FDC9CF403AD4
:1049D00035E05307610571051CF6A6CF982F9F7728
:1049E0009230C9F48091D8039091D903A091DA0351
:1049F000B091DB03AC01BD014B5F5F4F6F4F7F4F49
:104A000077FD22C0403AE5E05E0761057105E4F4F8
:104A1000DB01CA0119C0933009F015CB8091D8038E
:104A20009091D903A091DA03B091DB03AC01BD01F1
:104A3000455051096109710977FD06C0403AF5E01A
:104A40005F076105710524F38093D8039093D90320
:104A5000A093DA03B093DB03F7C9813809F09BC058
:104A600063E271E08FE893E00E94B52922E330E031
:104A70003093AB032093AA0345E050E050939F038B
:104A800040939E033092A1032092A00384E190E022
:104A90009093A3038093A203EEE0F0E0F093A503CC
:104AA000E093A40321E030E03093A9032093A8030E
:104AB0008AE090E09093AD038093AC033093AF0312
:104AC0002093AE0383E090E09093B1038093B00312
:104AD0009093B3038093B2039093B7038093B6038C
:104AE0009093B5038093B4033093B9032093B80334
:104AF00082E090E09093BB038093BA031092BC03D2
:104B00001092BD031092BE031092BF031092C00317
:104B10001092C1031092C2031092C3031092C403F7
:104B20001092C5031092C6031092C7031092C803D7
:104B30001092C9031092CA031092CB031092CC03B7
:104B40001092CD031092CE031092CF031092D00397
:104B50001092D1031092D2031092D3031092D40377
:104B60001092D5031092D6031092D7031092D80357
:104B70001092D9031092DA031092DB031092A6036D
:104B80001092A70361E081E00E94F90A8DE092E0B3
:104B90000E94E10B19CB813C09F016CBFF24F39462
:104BA00013CBF12C11CB60E080E00E94F90A89EB75
:104BB00093E00E94B80B61E080E00E94F90AE09067
:104BC0000301F090040163E871E02CE0E216F104C7
:104BD00014F46AE871E0CE0143960E94060E3DE0AF
:104BE000E316F1041CF04CE0E41AF1081A8E198E59
:104BF0001C8E1B8E1E8E1D8E4AE0B801C7010E94BE
:104C00009126F80101900020E9F731977F01E01A21
:104C1000F10AB701CE0149960E94990D811148C051
:104C2000CE0149960E94C10D6DE172E0C8010E945B
:104C3000060EBE01675E7F4FC8010E94D30DBE0104
:104C40006D5E7F4F0E94D30DFC01448155816081D0
:104C5000718180E295E00E946403C8010E94370ED2
:104C6000CE0149960E94370ECE0143960E94370E20
:104C700061E081E10E94E30368EE73E080E090E090
:104C80000E94720480910301909104010E94BB0C68
:104C900080911203833011F00C94331B89E08093D0
:104CA000020170E060E086E10E94C2050C94331BB3
:104CB000FE8EED8EB801898D9A8D0E94B529B4CFF4
:104CC000CF93DF93C4E0D5E02697CE010E94370E44
:104CD00024E0CC3BD207C1F78CE691E090935305DA
:104CE000809352058091BC029091BD0282559540FF
:104CF00071F4E0916505F0916605908180916705FA
:104D00008095892380831092BD021092BC02DF91AE
:104D1000CF910895FB01DC0105900D920020E1F791
:104D20000895BB274A3031F4992322F4BDE29095CF
:104D300081959F4F0C949D26BB27FB015527AA27E1
:104D4000880F991FAA1FA41710F0A41B8395505118
:104D5000B9F7A05DAA3308F0A95DA193009779F790
:104D6000B111B1931192CB010C94B626DC01FC0178
:104D7000672F71917723E1F7329704C07C916D938F
:104D800070836291AE17BF07C8F30895DC01CB01B1
:104D9000FC01F999FECF06C0F2BDE1BDF89A31964B
:104DA00000B40D9241505040B8F70895DC01CB019A
:104DB00003C02D910E94E12641505040D0F7089544
:104DC000262FF999FECF1FBA92BD81BD20BD0FB627
:104DD000F894FA9AF99A0FBE019608952F923F928D
:104DE0004F925F926F927F928F929F92AF92BF92FB
:104DF000CF92DF92EF92FF920F931F93CF93DF93A7
:104E0000CDB7DEB7CA1BDB0B0FB6F894DEBF0FBE03
:104E1000CDBF09942A88398848885F846E847D8450
:104E20008C849B84AA84B984C884DF80EE80FD8052
:104E30000C811B81AA81B981CE0FD11D0FB6F894C8
:104E4000DEBF0FBECDBFED010895A29FB001B39F9D
:104E5000C001A39F700D811D1124911DB29F700D83
:104E6000811D1124911D0895991B79E004C0991F9B
:104E7000961708F0961B881F7A95C9F780950895B4
:104E800097FB072E16F4009407D077FD09D00E94F7
:104E9000802707FC05D03EF4909581959F4F08959B
:104EA000709561957F4F0895052E97FB1EF4009431
:104EB0000E946B2757FD07D00E94942707FC03D060
:104EC0004EF40C946B2750954095309521953F4FAB
:104ED0004F4F5F4F089590958095709561957F4FE6
:104EE0008F4F9F4F0895EE0FFF1F0590F491E02D17
:104EF00009940E942527B7FF0895821B930B0895FC
:104F0000AA1BBB1B51E107C0AA1FBB1FA617B707EF
:104F100010F0A61BB70B881F991F5A95A9F780950B
:104F20009095BC01CD010895A1E21A2EAA1BBB1BCE
:104F3000FD010DC0AA1FBB1FEE1FFF1FA217B30765
:104F4000E407F50720F0A21BB30BE40BF50B661F7B
:104F5000771F881F991F1A9469F76095709580953F
:104F600090959B01AC01BD01CF0108950F931F9354
:104F7000CF93DF938230910510F482E090E0E091CE
:104F80007305F091740530E020E0B0E0A0E03097C8
:104F900099F42115310509F44AC0281B390B243036
:104FA0003105D8F58A819B816115710589F1FB0175
:104FB00093838283FE0111C040815181028113815C
:104FC00048175907E0F04817590799F4109761F00E
:104FD00012960C93129713961C933296CF01DF9181
:104FE000CF911F910F91089500937305109374054D
:104FF000F4CF2115310551F04217530738F0A901BC
:10500000DB019A01BD01DF01F801C1CFEF01F9CF4A
:105010009093740580937305CDCFFE01E20FF31FCB
:10502000819391932250310939832883D7CF2091DE
:10503000710530917205232B41F4209107013091C5
:10504000080130937205209371052091050130917C
:1050500006012115310541F42DB73EB740910901F4
:1050600050910A01241B350BE0917105F0917205F6
:10507000E217F307A0F42E1B3F0B2817390778F02F
:10508000AC014E5F5F4F2417350748F04E0F5F1F8E
:105090005093720540937105819391939FCFF0E0F7
:1050A000E0E09CCFCF93DF930097E9F0FC013297CB
:1050B00013821282A0917305B0917405ED0130E066
:1050C00020E01097A1F420813181820F931F20915D
:1050D0007105309172052817390709F061C0F09306
:1050E0007205E0937105DF91CF910895EA01CE1723
:1050F000DF07E8F54A815B819E0141155105B1F753
:10510000E901FB83EA8349915991C40FD51FEC173C
:10511000FD0761F4808191810296840F951FE9015A
:1051200099838883828193819B838A83F0E0E0E086
:1051300012968D919C9113970097B9F52D913C9102
:105140001197CD010296820F931F20917105309126
:1051500072052817390739F6309751F51092740502
:1051600010927305B0937205A0937105BCCFD383E1
:10517000C28340815181840F951FC817D90761F4FC
:105180004E5F5F4F88819981480F591F518340833B
:105190008A819B81938382832115310509F0B0CFE9
:1051A000F0937405E09373059ECFFD01DC01C0CF41
:1051B00013821282D7CFB0E0A0E0E1EEF8E20C94C7
:1051C000F0268C01009751F4CB010E94B6278C0188
:1051D000C801CDB7DEB7E0E10C940C27FC01E60F67
:1051E000F71F9C0122503109E217F30708F49DC014
:1051F000D901CD91DC911197C617D70798F0C5302A
:10520000D10530F3CE0104978617970708F3C61B24
:10521000D70B2297C193D1936D937C93CF010E94BA
:105220005228D6CF5B01AC1ABD0A4C018C0E9D1ED4
:10523000A0917305B0917405512C412CF12CE12CF7
:10524000109731F580917105909172058815990537
:1052500009F05CC04616570608F058C08091050159
:1052600090910601009741F48DB79EB740910901D6
:1052700050910A01841B950BE817F90708F055C0F7
:10528000F0937205E0937105F90171836083A0CFFB
:105290008D919C91119712966C90129713967C9019
:1052A0001397A815B90559F56C0142E0C40ED11C3D
:1052B000CA14DB0420F1AC014A195B09DA01129629
:1052C000159780F06282738251834083D9016D9378
:1052D0007C93E114F10471F0D7011396FC93EE93E3
:1052E000129776CF22968C0F9D1FF90191838083B0
:1052F000F301EFCFF0937405E093730569CF48167F
:10530000590608F42C017D01D3019ACFCB010E94EC
:10531000B6277C01009749F0AE01B8010E94982998
:10532000C8010E945228870153CF10E000E050CFFF
:10533000FB01DC0102C001900D9241505040D8F7B2
:105340000895FB01DC010D900020E9F71197019011
:105350000D920020E1F70895FB01DC018D91019091
:1053600080190110D9F3990B0895FB01DC0101901C
:105370000D920020E1F70895FB01DC0141505040FF
:1053800048F001900D920020C9F701C01D924150D4
:105390005040E0F7089512E0C8E3D2E004C0FE01F7
:1053A0000E9473272196C933D107C9F7F894FFCF1C
:1053B0000301010500000075058000000040001495
:1053C0000054007EFF06000100000000EF00000115
:1053D0000203044368616E7442656C6C2056322E81
:1053E00031002D2D2D2D2D0000000000E30264035F
:1053F00084023003B5029302A702000000005409A2
:105400002709080A350620090D09FE0800000000DA
:10541000B20B6403080A1C06000000003606640391
:10542000080A35069206AA061D060D0A0030003A43
:10543000303020504D003A303020414D0020536F25
:105440006E677300205365636F6E6473002044655C
:105450006D6F203E00506C6179003A002D004A616A
:105460006E00466562004D617200417072004D61D0
:1054700079004A756E004A756C0041756700536586
:1054800070004F6374004E6F7600446563004C6F8C
:105490006164696E672E2E2E004C69676874204F18
:1054A0004E004C69676874204F4646004348414EA1
:1054B0005420504C4159494E472E2E2E00446566CB
:1054C00061756C7473206C6F616465640044454D54
:0A54D0004F2054494D45203A2000BA
:107E0000112484B714BE81FFF0D085E080938100F7
:107E100082E08093C00088E18093C10086E0809377
:107E2000C20080E18093C4008EE0C9D0259A86E02C
:107E300020E33CEF91E0309385002093840096BBD3
:107E4000B09BFECF1D9AA8958150A9F7CC24DD24C4
:107E500088248394B5E0AB2EA1E19A2EF3E0BF2EE7
:107E6000A2D0813461F49FD0082FAFD0023811F036
:107E7000013811F484E001C083E08DD089C08234E0
:107E800011F484E103C0853419F485E0A6D080C0E4
:107E9000853579F488D0E82EFF2485D0082F10E0AE
:107EA000102F00270E291F29000F111F8ED06801E7
:107EB0006FC0863521F484E090D080E0DECF843638
:107EC00009F040C070D06FD0082F6DD080E0C81688
:107ED00080E7D80618F4F601B7BEE895C0E0D1E017
:107EE00062D089930C17E1F7F0E0CF16F0E7DF06D8
:107EF00018F0F601B7BEE89568D007B600FCFDCFD4
:107F0000A601A0E0B1E02C9130E011968C91119780
:107F100090E0982F8827822B932B1296FA010C0160
:107F200087BEE89511244E5F5F4FF1E0A038BF0790
:107F300051F7F601A7BEE89507B600FCFDCF97BE46
:107F4000E89526C08437B1F42ED02DD0F82E2BD052
:107F50003CD0F601EF2C8F010F5F1F4F84911BD097
:107F6000EA94F801C1F70894C11CD11CFA94CF0C13
:107F7000D11C0EC0853739F428D08EE10CD085E9AC
:107F80000AD08FE07ACF813511F488E018D01DD067
:107F900080E101D065CF982F8091C00085FFFCCF94
:107FA0009093C60008958091C00087FFFCCF809118
:107FB000C00084FD01C0A8958091C6000895E0E648
:107FC000F0E098E1908380830895EDDF803219F02E
:107FD00088E0F5DFFFCF84E1DECF1F93182FE3DFCA
:107FE0001150E9F7F2DF1F91089580E0E8DFEE27F6
:047FF000FF270994CA
:027FFE00040479
:00000001FF
