:020000040000FA
:100000000C9479010C94A1010C94A1010C94B518E5
:100010000C94B5180C94B5180C94A1010C94A10182
:100020000C94A1010C94A1010C94A1010C94A101C8
:100030000C94A1010C94A1010C94A1010C94A101B8
:100040000C946B180C94A1010C94A1010C94A101C7
:100050000C94A1010C94A1010C94A1010C94A10198
:100060000C942D190C94A101534F4E4720434F552A
:100070004E540045564520534F4E47203220544998
:100080004D45004D4F5220534F4E4720322054498A
:100090004D450045564520534F4E472031204E6F69
:1000A0002E0045564520534F4E4720312054494D90
:1000B00045004D4F5220534F4E472031204E6F2E5A
:1000C000004D4F5220534F4E4720312054494D454B
:1000D000003220504C415900312053454C45435487
:1000E0002054494D4500382052455345542053452E
:1000F0005454494E470011C10000000016B20000E0
:10010000000013A2000000001793000000001283FB
:1001100000000000147300000000156800000000DB
:100120000093010000003720534F4E4720534554A1
:1001300054494E47000ED8000000000FD1000000C7
:10014000000093010000003620504C4159204445E6
:100150004D4F003520564F4C554D450034204241FF
:10016000434B4C4947485420445552003320534C8C
:100170004F47414D20434F554E54003220454E4489
:100180002054494D45003120535441525420544984
:100190004D45004241434B003520534554204D49C5
:1001A0004E530034205345542048525300332053BB
:1001B00045542059454152003220534554204D4F5B
:1001C0004E54480031205345542044415445004585
:1001D00058495400088601000000097B0100000016
:1001E0000A6C010000000B5C010000000C530100D0
:1001F00000000D4701350103102601F6000818E63E
:1002000000000000009301000000322042454C4CE9
:100210002053455454494E470002C40100000003D6
:10022000B80100000004AD0100000005A3010000BA
:1002300000069801000000009301000000312053E7
:10024000455420444154452054494D4500202052F6
:10025000554E4E494E472044454D4F20200000004A
:100260000000240027002A0000000008000201000E
:100270000003040700000000000000004552522067
:100280003033004552522030320045525220303136
:10029000005154524F4E0057454C434F4D450000BE
:1002A000000000230026002900000000002500288F
:1002B000002B0004040404040404040202020202E9
:1002C000020303030303030102040810204080011A
:1002D0000204081020010204081020013D02190246
:1002E00006070A02D4010900CF01000000004C1AE1
:1002F000081E11241FBECFEFD8E0DEBFCDBF24E023
:10030000A8E1B2E001C01D92A839B207E1F712E0FE
:10031000A0E0B1E0E0E0F3E402C005900D92A83166
:10032000B107D9F711E0C8E7D1E004C02197FE0179
:100330000E941B1FC737D107C9F70E94561B0C9498
:1003400073210C94000080912D04E0912A04F09117
:100350002B0496E0899FE00DF11D11243596E49160
:1003600081E0E11101C080E00895E7E2F4E08681D8
:100370000380F481E02D96E0899FE00DF11D1124AA
:100380008491089508950895AF92BF92CF92DF921D
:10039000EF92FF920F931F93CF93DF936C017B013A
:1003A0008B01040F151FEB015E01AE18BF08C017CB
:1003B000D10759F06991D601ED91FC910190F0813E
:1003C000E02DC6010995892B79F7C501DF91CF9101
:1003D0001F910F91FF90EF90DF90CF90BF90AF9063
:1003E0000895833081F028F4813099F08230A9F0AB
:1003F00008958730A9F08830C9F08430B1F4809135
:1004000080008F7D03C0809180008F778093800073
:10041000089584B58F7784BD089584B58F7DFBCF13
:100420008091B0008F778093B00008958091B000E4
:100430008F7DF9CFCF93DF93282F30E0F901E85972
:10044000FD4F8491F901E953FD4FD491F901ED5429
:10045000FD4FC491CC23A1F081110E94F101EC2F3A
:10046000F0E0EE0FFF1FE156FD4FA591B491EC9126
:10047000ED2381E090E009F480E0DF91CF910895D1
:1004800080E090E0FACF1F93CF93DF93282F30E0E6
:10049000F901E859FD4F8491F901E953FD4FD491D9
:1004A000F901ED54FD4FC491CC23A9F0162F811111
:1004B0000E94F101EC2FF0E0EE0FFF1FE755FD4F1A
:1004C000A591B4918FB7F894EC91111108C0D09513
:1004D000DE23DC938FBFDF91CF911F910895DE2B38
:1004E000F8CFCF93DF9390E0FC01E953FD4F2491C7
:1004F0008D549D4FFC0184918823C9F090E0880FB2
:10050000991FFC01E25AFD4FA591B491FC01E755FA
:10051000FD4FC591D49161110DC09FB7F8948C9196
:10052000209582238C938881282328839FBFDF9185
:10053000CF910895623051F49FB7F8943C91822F87
:10054000809583238C93E8812E2BEFCF8FB7F8947F
:10055000EC912E2B2C938FBFEACF3FB7F89480916C
:10056000E8029091E902A091EA02B091EB0226B56F
:10057000A89B05C02F3F19F00196A11DB11D3FBFDB
:10058000BA2FA92F982F8827BC01CD01620F711DAA
:10059000811D911D42E0660F771F881F991F4A95A4
:1005A000D1F708958F929F92AF92BF92CF92DF9230
:1005B000EF92FF926B017C010E94AD024B015C0146
:1005C000C114D104E104F104B9F00E94AD0268192C
:1005D00079098A099B09683E73408105910580F37A
:1005E00021E0C21AD108E108F10888EE880E83E004
:1005F000981EA11CB11CE4CFFF90EF90DF90CF902C
:10060000BF90AF909F908F9008952FB7F89460910E
:10061000E4027091E5028091E6029091E7022FBF1B
:1006200008950F931F9380914F0490915004DC0123
:10063000ED91FC910084F185E02D0995892B09F459
:10064000D7C060E070E0CB010E94D20220916D041F
:1006500080914F0490915004DC01ED91FC91028453
:10066000F385E02D21110BC00995809359048E3735
:10067000D1F680916D048F5F80936D04D4CF09957E
:1006800090916D04E92FF0E0E15BFB4F828792309F
:10069000B9F09930D9F09130A9F48F3F99F01092C8
:1006A0006D0481E080936F041092720410927104C3
:1006B000809373041092740480E01F910F91089549
:1006C000863069F79F5F90936D04ADCF8F3E39F709
:1006D00020915B0480915A04280F3327331FE09147
:1006E0005C04C9018E0F911D20915D04280F392FE4
:1006F000311D40915E0450E0240F351F80915F044E
:1007000090E06091600470E0762F6627F0916104BC
:100710006F0F711D280F391F31952195310962170F
:10072000730709F0BCCF10926D04E13419F41092F4
:1007300074042FC0E0937004542F4427840F951F36
:100740009093720480937104EA53E63108F046C036
:10075000F0E0E355FC4F0C941B1FDA03E203EC03BB
:10076000C303EC03CC03EA03EE03EC03EC03EC035A
:10077000EC03EC03EC03EC03EC03EE03EC03EC03FF
:10078000EC03EC03EC0385E080936F0481E080933D
:1007900073048091730491CF80FF02C089E0F4CF8D
:1007A00081FF02C084E0F0CF83709927892B89F301
:1007B0008AE0EACF80FF02C087E0E6CF81FFE9CF81
:1007C00082E0E2CF80FF02C088E0DECF81FFE1CF90
:1007D00083E0DACF86E0D8CF8BE0D6CF81E080937C
:1007E0006F041092720410927104809373049FCF6F
:1007F00080917404882369F20E94050300915104DA
:10080000109152042091530430915404601B710BD9
:10081000820B930B009155041091560420915704BC
:1008200030915804601771078207930708F4B1CF1D
:1008300010926D0410926F04109272041092710461
:1008400081E036CF80936604272F30E070936804F0
:10085000609369044091650490916404490F5527A1
:10086000551F840F952F911D40916704840F911D92
:10087000820F931F680F792F711D71956195710912
:1008800070936A0460936B04442361F08091740454
:10089000882341F060E070E0CB010E94D2020E9408
:1008A0001103F4CF80914F0490915004DC01ED913D
:1008B000FC910280F381E02D4AE050E063E674E0B1
:1008C00009950E940503609351047093520480932C
:1008D0005304909354048091670491E0811101C006
:1008E00090E090937404811106C06AE070E080E0AB
:1008F00090E00C94D202089508952091EE02309178
:10090000EF022817390771F49091EC028091ED0203
:10091000981741F0E091EC02F0E0ED55FD4F808139
:1009200090E008958FEF9FEF08950895EF92FF9262
:100930000F931F93CF93DF93DC015C96ED90FC90B7
:100940005D97E114F10479F481E090E013969C93B3
:100950008E93129790E080E0DF91CF911F910F91DD
:10096000FF90EF9008955196ED91FC91529750961B
:100970008C915097982F90950FB75E962C915E971B
:10098000122F127021FD6095F8942081112319F126
:10099000282B2083E7012197F1F728E0462F50E02C
:1009A000308160FF1AC0382B3083E7012197F1F7BF
:1009B000BA0175956795215089F7112381F08081DF
:1009C000892380830FBF5C968D919C910197F1F7ED
:1009D00081E090E0C1CF2923DCCF3923E5CF90819E
:1009E000892BEFCF2091EE023091EF0228173907C3
:1009F00071F48091ED022091EC0290E0805C9F4FB9
:100A0000821B910960E470E00E94E81E089590E066
:100A100080E008952091EE023091EF022817390707
:100A2000B9F49091EC028091ED02981789F0E09171
:100A3000EC02F0E0ED55FD4F80812091EC0230E0BA
:100A40002F5F3F4F2F7333272093EC0290E00895E0
:100A50008FEF9FEF089520918002260F3327331FD9
:100A600021323105ECF420918703FC0190E080E015
:100A7000243069F082E00895A09180022191AC01B8
:100A8000405A5D4FA40FB52FB11D2C9301968617C8
:100A900098F380918002680F6093800280E008954F
:100AA00081E008951092870381E08093860310927D
:100AB000610361E082E10E94430261E083E10E9400
:100AC0004302E9EBF0E080818E7F808380818D7F1F
:100AD000808388E48093B80085E48093BC00089507
:100AE0001092FA021092F90210928E031092B00343
:100AF0000E94520582EC91E09093F8028093F702F5
:100B000083EC91E09093F6028093F5020895CF93E1
:100B1000DF9391E090935F028823B9F0C091B80011
:100B2000D091BA008091BC008A7B8093BC0060E0C9
:100B300082E10E94430260E083E10E9443020E943E
:100B40005205D093BA00C093B800DF91CF910895B9
:100B5000CF92DF92EF92FF920F931F93CF93DF9389
:100B6000D091B00381E0D13208F09CC0C091AF03B6
:100B70000E94AD026B017C018091870381116CC0E2
:100B800082E08093870381E0809386038FEF8093D8
:100B9000850310928403D0938303AFE8B3E0E3E6C8
:100BA000F3E080E0D8138DC010926203809162035D
:100BB000CC0FC82BC093620380916103813009F090
:100BC00084C0109261030E94AD026B017C01809190
:100BD00062038093BB008091890390918A03A09166
:100BE0008B03B0918C03892B8A2B8B2BA1F00E9455
:100BF000AD020091890310918A0320918B033091FB
:100C00008C036C197D098E099F09061717072807A1
:100C1000390708F442C08091BC0083FDD8CF85EC31
:100C20008093BC000E94AD026B017C018091870320
:100C3000823009F44CC0809185038F3F09F469C06C
:100C400080918503803209F466C0809185038033EA
:100C500009F463C084E026C08091890390918A03DF
:100C6000A0918B03B0918C03892B8A2B8B2B09F4D9
:100C700083CF0E94AD020091890310918A032091D5
:100C80008B0330918C036C197D098E099F0906171F
:100C900017072807390708F06FCF809188030E9453
:100CA000870585E010928E031092B00310928D0399
:100CB000DF91CF911F910F91FF90EF90DF90CF9038
:100CC00008959D9191938F5F6DCF85EEA9CF80910F
:100CD000890390918A03A0918B03B0918C03892B97
:100CE0008A2B8B2B09F4A2CF0E94AD0200918903BD
:100CF00010918A0320918B0330918C036C197D092C
:100D00008E099F09061717072807390708F08ECFA5
:100D1000C4CF80E0C7CF82E0C5CF83E0C3CFCF92FE
:100D2000DF92EF92FF920F931F93CF93DF93D82F11
:100D3000C62F613208F098C00E94AD026B017C01A1
:100D40008091870381116BC081E08093870380933A
:100D500086039FEF90938503109284039C0F9093DA
:100D600083038093620380916203DD0FD82BD093BD
:100D7000620380916103813009F078C010926103B1
:100D80000E94AD026B017C01809162038093BB00E5
:100D90008091890390918A03A0918B03B0918C0379
:100DA000892B8A2B8B2BA1F00E94AD020091890325
:100DB00010918A0320918B0330918C036C197D096B
:100DC0008E099F09061717072807390708F448C036
:100DD0008091BC0083FDD8CF85EC8093BC000E943D
:100DE000AD026B017C0180918703813009F440C022
:100DF000809184038C1710F4C0918403E3E6F3E040
:100E0000ABEFB2E080E08C1355C08C2FDF91CF9117
:100E10001F910F91FF90EF90DF90CF9008958091F8
:100E2000890390918A03A0918B03B0918C03892B45
:100E30008A2B8B2B09F484CF0E94AD020091890389
:100E400010918A0320918B0330918C036C197D09DA
:100E50008E099F09061717072807390708F070CF72
:100E6000809188030E948705C0E0CFCF85EEB5CF83
:100E70008091890390918A03A0918B03B0918C0398
:100E8000892B8A2B8B2B09F4AECF0E94AD020091E7
:100E9000890310918A0320918B0330918C036C1984
:100EA0007D098E099F09061717072807390708F0DB
:100EB0009ACFD6CF91919D938F5FA5CFE091FA0203
:100EC0008091F902E81730F4F0E0E550FD4F8081A1
:100ED00090E008958FEF9FEF08959091FA0280912E
:100EE000F9022FEF3FEF981748F4E92FF0E0E550B3
:100EF000FD4F208130E09F5F9093FA02C901089571
:100F00008091F9029091FA02891B990B0895CF9272
:100F1000DF92EF92FF920F931F93CF93DF937C01A9
:100F2000CB018A0120918D03222389F0EB016B0113
:100F3000C40ED51ECC15DD0569F06991D701ED9180
:100F4000FC910190F081E02DC7010995F3CF642F4A
:100F50000E942B05C801DF91CF911F910F91FF9047
:100F6000EF90DF90CF900895CF93DF931F92CDB78E
:100F7000DEB7698320918D032223F9F02091B0031D
:100F8000203258F021E030E0FC013383228390E0EE
:100F900080E00F90DF91CF91089580918E03E82F2C
:100FA000F0E0E157FC4F998190838F5F80938E032F
:100FB0008093B00381E090E0ECCF61E0CE01019638
:100FC0000E942B05F7CFFC01248131E030938D0383
:100FD0002093AF0310928E031092B0038385682B89
:100FE00083ED93E00E94B4070C94A8051F93CF9360
:100FF000DF93EC0181E080938D0388E68093AF035B
:1010000010928E031092B00360E083ED93E00E9493
:10101000B4072D811AE0822F612F0E94DC1E682FF9
:10102000660F680F660F620F83ED93E00E94B407AE
:101030002C81822F612F0E94DC1E682F660F680FA3
:10104000660F620F83ED93E00E94B4072B81822F1D
:10105000612F0E94DC1E682F660F680F660F620FFB
:1010600083ED93E00E94B40760E083ED93E00E947B
:10107000B4072A81822F612F0E94DC1E682F660F21
:10108000680F660F620F83ED93E00E94B407298119
:10109000822F612F0E94DC1E682F660F680F660F7B
:1010A000620F83ED93E00E94B4072881822F612FA5
:1010B0000E94DC1E682F660F680F660F620F83EDBB
:1010C00093E00E94B407DF91CF911F910C94A80583
:1010D00090E080E0089520915E02253009F090F4C0
:1010E00090915D02E92FF0E0E85AFD4F80832F5F79
:1010F00020935E029F5F953018F490935D020895EF
:1011000010925D020895CF92DF92FF920F931F938A
:10111000CF93DF936C0181E080938D0388E6809309
:10112000AF0310928E031092B00360E083ED93E062
:101130000E94B4070E94A80567E088E60E948F0617
:101140001092FA028093F90283ED93E00E946D07FA
:101150008F77282F30E094E0359527959A95E1F721
:10116000922F990F990FC22FC91BCC0FC80F83ED77
:1011700093E00E946D079C0144E0359527954A95C0
:10118000E1F72F703327922F990F990FD22FD91B88
:10119000DD0FD80F83ED93E00E946D079C0154E0B2
:1011A000359527955A95E1F72F703327922F990F90
:1011B000990F122F191B110F180F83ED93E00E9446
:1011C0006D0783ED93E00E946D079C0164E0359507
:1011D00027956A95E1F72F703327922F990F990F72
:1011E000022F091B000F080F83ED93E00E946D078B
:1011F0009C0174E0359527957A95E1F72F70332798
:10120000922F990F990FF22EF91AFF0CF80E83ED19
:1012100093E00E946D079C01E4E035952795EA95DF
:10122000E1F72F703327922F990F990F291B220F67
:10123000820FF6018083F18202831383D483C583F6
:10124000C601DF91CF911F910F91FF90DF90CF905A
:1012500008950F931F93CF938C01C62F0E94E3072D
:101260006C2F6460C8010E94E3076C2F6B7FC8017C
:101270000E94E30783EC90E00197F1F7CF911F9173
:101280000F9108950F931F93CF93DF938C01D62F67
:10129000C42F607F642B0E94290980E1D89FB00190
:1012A00011246C2BC801DF91CF911F910F910C94E9
:1012B0002909CF93DF93CDB7DEB728970FB6F894FF
:1012C000DEBF0FBECDBF98E0ECE0F1E0DE0111968D
:1012D00001900D929A95E1F790914B04961708F4BE
:1012E0006FEF262F30E0220F331F41E050E04C0F0C
:1012F0005D1F240F351FF9016081680F606840E0B1
:1013000083E494E028960FB6F894DEBF0FBECDBFFD
:10131000DF91CF910C94420940E061E083E494E0D6
:101320000E9442098BE39FE10197F1F7089541E0A4
:101330000E94420981E090E008950F931F93CF939C
:10134000DF938C01D0E0C0E0F801EC0FFD1F649149
:10135000662339F041E083E494E00E94420921963B
:10136000F3CFCE01DF91CF911F910F910895009798
:1013700069F0FC0101900020E9F73197AF01481BAB
:10138000590BBC0183E494E00C94C40190E080E02C
:1013900008950F931F93CF93DF93EC01CB01009738
:1013A00059F469E671E0CE010E945D21CE01DF9122
:1013B000CF911F910F91089520E077FF06C02DE295
:1013C000288391958195910921E0803137E2930737
:1013D0000CF5883E33E09307FCF432E08436910547
:1013E0002CF431E08A3091050CF430E0230FFE013B
:1013F000E20FF11D11820AE010E0FE01E20FF11D83
:10140000B8010E94E81E805D8083CB0121500097C7
:10141000A1F7CCCF34E0EACF33E0E8CFCF93DF932E
:10142000BC01EC0109900020E9F72197C81BD90BFA
:10143000C03108F582EC93E00E945D2180E18C1BB5
:10144000E1EBF3E090E020E2AF01415B534048174D
:10145000590714F42193F8CF8F549C4FFC0110824C
:1014600061EB73E082EC93E00E94492182EC93E00F
:10147000DF91CF91089541E150E082EC93E00E942A
:101480006421F4CF0F931F93CF93DF93EC018B0173
:10149000FB0101900020E9F73197E61BF70BE031E3
:1014A00028F5E41718F54E1B413108F040E1E1EB57
:1014B000F3E050E080E39F01215B334024173507C0
:1014C00014F48193F8CF4F545C4FFA01108261EB12
:1014D00073E0CE010E945D21B801CE010E94492136
:1014E000CE01DF91CF911F910F91089550E04F5F92
:1014F0005F4FB801CE010E946421F2CF4BE250E071
:1015000070E060E081E293E00C947E1ECF93DF9365
:10151000EC01809103018230D9F128F4813021F16E
:10152000DF91CF910895833009F445C08930C1F728
:1015300085E00E941A02892B99F381E080930301D0
:101540000E948C09109257020E9405036093F002DA
:101550007093F1028093F2029093F30260E081E1D4
:10156000DF91CF910C94430285E00E941A02892BEF
:10157000B9F270E060E082E10E94220468EE73E05C
:1015800080E090E00E94D20282E080930301C8CF05
:1015900085E00E941A02892B19F2BE01772771603B
:1015A0008FE00E94220468EE73E080E090E00E94E9
:1015B000D20283E0EACF85E00E941A02892B09F467
:1015C000AFCF80914003909141038C179D0739F470
:1015D0006091480370914903039709F043C08091DB
:1015E0004203909143038C179D0761F5C330D105E9
:1015F00049F160913E0370913F03772774608FE05B
:101600000E94220480913E0390913F0301969093A3
:101610003F0380933E0320913C0330913D03281704
:10162000390734F481E090E090933F0380933E03C8
:101630000E947E0A68EE73E080E090E00E94D20291
:1016400089E0A3CF80914403909145039C01245FDE
:101650003F4F2C173D0761F4039751F060914A0307
:1016600070914B03772772608FE00E942204E2CFD3
:1016700080914603909147039C01245F3F4F2C17B4
:101680003D0719F4039709F0B4CF609138037091C6
:10169000390382E10E94220480913803909139033A
:1016A0000196909339038093380320913A03309147
:1016B0003B03281739070CF0BBCF81E090E09093F3
:1016C000390380933803B4CF0F931F93CF93DF93E5
:1016D000EC0188819981009759F02A813B81261776
:1016E000370730F081E0DF91CF911F910F9108957E
:1016F0008B016F5F7F4F0E948320009759F0998381
:1017000088831B830A832C813D81232B59F7FC019D
:101710001082E8CF80E0E7CFCF93DF93EC018881A0
:101720009981009711F00E94FA1F198218821D8278
:101730001C821B821A82DF91CF910895EF92FF9253
:101740000F931F93CF93DF93EC01FB01E080F180B7
:10175000E114F10411F10481158101151105A9F0BD
:101760008C819D81080F191FB801CE010E94640B66
:10177000882399F0288139818C819D81B701820F5E
:10178000931F0E945D211D830C83CE01DF91CF91B9
:101790001F910F91FF90EF900895CE010E948C0B46
:1017A000F4CFEF92FF920F931F93CF93DF93EC014F
:1017B0007B01198218821B821A821D821C82FB0106
:1017C00001900020E9F731978F01061B170BB80134
:1017D0000E94640B811109C0CE01DF91CF911F914E
:1017E0000F91FF90EF900C948C0B1D830C83B7012D
:1017F00088819981DF91CF911F910F91FF90EF9098
:101800000C945D21FC0180819181009711F00C9472
:10181000FA1F089585ED8093BC0080918903909113
:101820008A03A0918B03B0918C030796A11DB11D73
:1018300023E0B695A795979587952A95D1F720919E
:10184000BC0024FD03C010928703089540918903D2
:1018500050918A0360918B0370918C03452B462B2A
:10186000472B69F30097A105B10541F025E32A95BF
:10187000F1F700000197A109B109E1CF8091880338
:101880000C9487056F927F928F929F92AF92BF9236
:10189000CF92DF92EF92FF920F931F93CF93DF933C
:1018A000CDB7DEB7E988FA88FE017496D12CC12C39
:1018B000712CAB88B12C80E1682E872D90E0CA1482
:1018C000DB042CF52FE0271510F14F0122E0820EEA
:1018D000911C60817181FB0101900020E9F7319733
:1018E0008F01061B170B9C01200F311D462D471938
:1018F000213131050CF4402F50E08E0D9F1D0E94C8
:101900006421700E8FEFC81AD80AF401D6CF8E0D5D
:101910009F1DFC011082C701DF91CF911F910F9194
:10192000FF90EF90DF90CF90BF90AF909F908F90FF
:101930007F906F9008958F929F92AF92BF92CF92B7
:10194000DF92EF92FF920F931F93CF93DF93CDB768
:10195000DEB765970FB6F894DEBF0FBECDBF8250DD
:10196000873108F0D7C1E82FF0E0E754F34F0C942B
:101970001B1FD00CD00CD00C3A0D3A0D8A0E9A0DCC
:10198000C60DE50DF00DFD0D8A0E150E3A0E8A0EF0
:10199000430E500E550E630E680E6D0E820E870EAE
:1019A0001D8A1C8A8FE28C8B60911F03709120032B
:1019B000CE0101960E94C9098E010F5E1F4F42E0C1
:1019C000BE016F5F7F4FC8010E94420A60911D03F4
:1019D00070911E03CE0101960E94C9097E018EE01E
:1019E000E80EF11C42E0BE016F5F7F4FC7010E940D
:1019F000420A60911B0370911C03CE0101960E9464
:101A0000C9096E0199E0C90ED11C44E0BE016F5FA7
:101A10007F4FC6010E94420ADF92CF92CE014496C8
:101A20009F938F93FF92EF929F938F931F930F93A8
:101A300085E08F9380E593E09F938F930E94420C03
:101A40000FB6F894DEBF0FBECDBF80E593E065967C
:101A50000FB6F894DEBF0FBECDBFDF91CF911F91BF
:101A60000F91FF90EF90DF90CF90BF90AF909F903D
:101A70008F900895A0914E03B0914F032CE330E076
:101A80000E94211F00914C0310914D03012E000C68
:101A9000220B330B600F711F821F931F1A8A198A42
:101AA0002AE3298B2CE330E040E050E00E94FC1E4A
:101AB0004B0179012D30310514F02C503109B90159
:101AC000CE0101960E94C9098E01025F1F4F42E0BC
:101AD000BE016F5F7F4FC8010E94420AB401CE0170
:101AE00001960E94C9096E0189E0C80ED11C42E02E
:101AF000BE016F5F7F4FC6010E94420A9CE0E9165B
:101B0000F104ACF485E791E09F938F93DF92CF923D
:101B1000CE0141969F938F931F930F9384E08F93F1
:101B200080E593E09F938F930E94420C89CF8EE6CD
:101B300091E0EACF60913003709131036D3071050F
:101B400014F06C507109CE0101960E94C9098E01F2
:101B5000075F1F4F42E0BE016F5F7F4FC8010E94C9
:101B6000420A80913003909131030C975CF582E733
:101B700091E09F938F931F930F9382E08F9380E563
:101B800093E09F938F930E94420C5ACF609132034F
:101B9000709133036D30710514F06C507109CE01F2
:101BA00001960E94C9098E01075F1F4F42E0BE01E6
:101BB0006F5F7F4FC8010E94420A8091320390916B
:101BC0003303D3CF8BE691E0D4CF60913A03709189
:101BD0003B03CE0101960E94C9092DE731E00AC0FE
:101BE0006091340370913503CE0101960E94C909BA
:101BF00024E831E03F932F9343C060913603709106
:101C00003703CE0101960E94C9099F938F9381E00B
:101C10008F9380E593E09F938F930E94420C0F90E7
:101C20000F900F900F900F9010CF00910401109122
:101C30000501B8010D30110514F06C507109CE0189
:101C400001960E94C9097E0199E0E90EF11C42E06B
:101C5000BE016F5F7F4FC7010E94420A82E791E099
:101C60000C30110514F08BE691E09F938F93FF9257
:101C7000EF9283CF8DE891E09F938F9385E991E078
:101C80009F938F937ACF60914003709141036330AB
:101C9000710509F046C020EA31E089E791E0AACF5A
:101CA0006091420370914303F2CF609144037091BD
:101CB00045036330710579F3CE0101960E94C9098D
:101CC0002EE631E097CF6091460370914703F1CF44
:101CD00060913C0370913D037CCF6091480370910B
:101CE0004903CE0101960E94C9098E01075F1F4F6B
:101CF00043E0BE016F5F7F4FC8010E94420A1F93FD
:101D00000F9385CF60914A0370914B03EACF1092F5
:101D100050039BCE63E371E080E593E00E945D2178
:101D200094CECE0101960E94C90925E731E062CF29
:101D3000AF92BF92CF92DF92EF92FF920F931F93D9
:101D4000CF93DF93CDB7DEB7A3970FB6F894DEBF7E
:101D50000FBECDBFCE0109960E9483086C85662315
:101D600009F4D5C06C3011F008F06C5070E0CE0171
:101D700001960E94C9098E01085E1F4F42E0BE0114
:101D80006F5F7F4FC8010E94420ACE0109960E94F0
:101D900083086D8570E0CE0101960E94C9097E011D
:101DA0008BE1E80EF11C42E0BE016F5F7F4FC7017F
:101DB0000E94420ACE0109960E9483086E8570E057
:101DC000CE0101960E94C9096E019EE1C90ED11C87
:101DD00042E0BE016F5F7F4FC6010E94420A60E091
:101DE00082E00E945909CE0109960E9483088C85E1
:101DF0008C3008F08EC085E791E09F938F93DF923F
:101E0000CF928AE991E09F938F93FF92EF929F93F5
:101E10008F931F930F9386E0D82EDF9202EC13E08E
:101E20001F930F930E94420C0E94B709CE0109969E
:101E30000E9483086B8570E0CE0101960E94C9095B
:101E40007E0181E2E80EF11C42E0BE016F5F7F4F30
:101E5000C7010E94420ACE0109960E948308698543
:101E600070E06053784FCE0101960E94C9095E016F
:101E70009FE0A90EB11C44E0BE016F5F7F4FC5011A
:101E80000E94420ACE0109960E9483088A858150E9
:101E9000990BD89EF001D99EF00D1124E152FC4F10
:101EA000608171816E0184E1C80ED11CC6010E945F
:101EB0005D2161E082E00E945909BF92AF928CE9F6
:101EC00091E09F938F93DF92CF929F938F93FF9296
:101ED000EF9285E08F931F930F930E94420C0E9414
:101EE000B7090FB6F894DEBF0FBECDBFA3960FB6ED
:101EF000F894DEBF0FBECDBFDF91CF911F910F9140
:101F0000FF90EF90DF90CF90BF90AF9008956CE07E
:101F10002DCF8EE691E071CF1F93CF93DF93CDB796
:101F2000DEB761970FB6F894DEBF0FBECDBF60E09D
:101F300080E00E9459090E94A30190912D04E09134
:101F40002A04F0912B04882349F186E0989FE00D44
:101F5000F11D1124319665917491CE0101960E9474
:101F6000321E0E940E0A8EE78093D10382EC93E02A
:101F70000E94B70961E080E00E94590983E291E084
:101F80000E940E0A0E94B70961960FB6F894DEBF50
:101F90000FBECDBFDF91CF911F91089586E0989F2E
:101FA000E00DF11D1124319665917491CE010196D9
:101FB0000E94321E0E940E0A0E94B501182F811144
:101FC00002C08FE7D1CF82EC93E00E94B70961E0B5
:101FD00080E00E9459098FE991E00E94B709812FA2
:101FE0000E949B0CCDCF4F925F926F927F928F9207
:101FF0009F92AF92BF92CF92DF92EF92FF920F9398
:102000001F93CF93DF93CDB7DEB7E6970FB6F89463
:10201000DEBF0FBECDBF0E940503009145021091A7
:1020200046022091470230914802601B710B820BDF
:10203000930B643171058105910508F499C00E94E4
:102040000503609345027093460280934702909384
:10205000480289E00E941A028C018AE00E941A025A
:1020600077247394892B31F081E0012B09F480E00F
:10207000782E71948BE00E941A02892B11F432E0C1
:10208000732E8CE00E941A02892B11F423E0722E29
:1020900008E1E02E02E0F02E0CE212E080E4882E4F
:1020A00082E0982E9EE1A92E91E0B92E640166246B
:1020B0006394412C411074C0F5018081871170C078
:1020C0004424439455245394F60181916F0185155E
:1020D000A9F0552009F466C0862D0E946B080E9465
:1020E0000503F8016083718382839383F701608322
:1020F000718382839383F60131975082552061F179
:102100000E940503F8012081318142815381621BC5
:10211000730B840B950B693B7B4081059105E0F0C7
:102120000E940503F7012081318142815381621BA6
:10213000730B840B950B6B3F71058105910560F066
:102140008C2D881980680E946B080E940503F70196
:1021500060837183828393836394F4E0EF0EF11CB8
:102160000C5F1F4F2FEFA21AB20A66E06612A2CFD1
:1021700090915E02191674F11092560210E0E091EF
:102180005702E73008F0FEC0F0E0E753FF4E0C9432
:102190001B1F1E1127136B14F812DB17E3117112AA
:1021A000512C92CF0E940503F80120813181428198
:1021B0005381621B730B840B950B693B7B4081053C
:1021C000910528F0862D806C0E946B0894CF862D97
:1021D0008064FACF80914902E82FF0E0E85AFD4F81
:1021E0001081915090935E028F5F853020F580932F
:1021F000490210935602112309F4C1CF0E9405032E
:102200006093F0027093F1028093F2029093F302D4
:102210000E9405036093520270935302809354020C
:102220009093550288E080934E0460E083E494E04C
:102230000E94E307A4CF10924902DBCF113809F0C6
:10224000B8C08091F402882381F081E08093570226
:1022500083E00E948C0F0E940503609352027093EA
:1022600053028093540290935502CE0143960E94EC
:1022700083088F89811143C0CE0101960E94830893
:102280008E8181113CC00E940503AB01BC0180918D
:102290004E0290914F02A0915002B0915102885B82
:1022A0009141AF4FBF4F84179507A607B70738F581
:1022B000CE0101960E9483088C8190E0209130032A
:1022C0003091310382179307D4F02091320330917B
:1022D0003303281739079CF061E081E10E94430233
:1022E0000E94050360934E0270934F028093500248
:1022F0009093510283E0809357020E948C090E94C0
:10230000050300914A0210914B0220914C0230913A
:102310004D02601B710B820B930B693E734081056C
:10232000910560F00E94050360934A0270934B028E
:1023300080934C0290934D020E94980E0E940503D8
:102340000091F0021091F1022091F2023091F3021B
:102350006B017C01C01AD10AE20AF30AA09134038E
:10236000B091350328EE33E00E94211F6C157D05E6
:102370008E059F0538F410924E0460E083E494E0EB
:102380000E94E307E6960FB6F894DEBF0FBECDBFFE
:10239000DF91CF911F910F91FF90EF90DF90CF9041
:1023A000BF90AF909F908F907F906F905F904F9075
:1023B000089585E0123821F0133809F056CF86E0F1
:1023C0008093570248CF0E94050300914A02109162
:1023D0004B0220914C0230914D02601B710B820B1D
:1023E000930B6D3271408105910598F08091020147
:1023F000882309F450C00E94980E109202010E9496
:10240000050360934A0270934B0280934C029093B1
:102410004D0280915602823009F049C0CE018B9660
:102420000E94830808A9CE0185960E948308F9A41A
:10243000CE014F960E9483081AA11F5FCE014996D4
:102440000E948308EB8CCE0143960E948308DC88AF
:10245000CE0101960E948308898189ABDAAAEBAA92
:102460001CABFDAA0EABCE01C1960E94F6070E94DE
:1024700005030091520210915302209154023091B1
:102480005502601B710B820B930B61317742810502
:10249000910510F577CF60E082E00E9459098EE93E
:1024A00091E00E94B70981E080930201A8CF8330B8
:1024B00089F4CE018B960E94830808A9CE018596E7
:1024C0000E948308F9A4CE014F960E9483081AA1A6
:1024D0001150B4CF813059F6109257020E948C09E6
:1024E00051CF0E94050300914A0210914B022091A6
:1024F0004C0230914D02601B710B820B930B6D32BD
:1025000071408105910598F080910201882309F4BA
:1025100051C00E94980E109202010E940503609320
:102520004A0270934B0280934C0290934D0280912B
:102530005602823009F04AC0CE018B960E94830871
:1025400008A9CE0185960E94830819A51F5FCE01B8
:102550004F960E948308FAA0CE0149960E948308F4
:10256000EB8CCE0143960E948308DC88CE01019655
:102570000E948308898189ABDAAAEBAAFCAA1DAB69
:102580000EABCE01C1960E94F6070E940503009192
:102590005202109153022091540230915502601B57
:1025A000710B820B930B613177428105910508F025
:1025B00093CFE8CE60E085E00E9459098EE991E072
:1025C0000E94B70981E080930201A7CF833061F4B4
:1025D000CE018B960E94830808A9CE0185960E94A1
:1025E000830819A51150B3CF813009F475CFCDCF31
:1025F00088E080934E0460E083E494E00E94E30767
:1026000061E080E00E94590981EA91E00E94B709E7
:102610000E940503AB01BC0180914E0290914F02D4
:10262000A0915002B091510288579C4EAF4FBF4FBE
:10263000481759076A077B0708F4A4CECE01019614
:102640000E9483088C8190E00E94860A9BCE0E94A3
:102650000503C0905202D0905302E0905402F090D3
:1026600055026C197D098E099F09613177428105F8
:102670009105A0F0809127049091280490932B0459
:1026800080932A048091290480932C0410922D04B5
:1026900010924204109257020E948C090E94B501C8
:1026A0008130A1F5CE0101960E9483088B8190E0D4
:1026B0009093200380931F03CE0101960E9483080C
:1026C0008A8190E090931E0380931D03CE010196B2
:1026D0000E948308898190E08053984F90931C0357
:1026E00080931B03CE0101960E9483088C8190E0A9
:1026F00090934F0380934E03CE0101960E9483086E
:102700008D8190E090934D0380934C031438A1F495
:10271000809127049091280490932B0480932A049D
:102720008091290480932C0410922D04109242046D
:10273000109257020E948C090E94A301812F8F776B
:10274000823039F0833049F180E0113019F483E0B0
:1027500001C081E09DEF980F923008F09EC00E946A
:10276000B5018823E1F00E94A301811154C082E0E9
:10277000809357020E94B501882309F403CE61E0DB
:1027800080E00E9459098EE78093C2031092C30330
:1027900082EC93E00E94B709F5CD82E0DBCF809117
:1027A0004204811113C080912704909128049093D2
:1027B0002B0480932A048091290480932C04109286
:1027C0002D040E948C0910925702DCCD8150809319
:1027D000420490E0DC01AA0FBB1FAA0FBB1FA95D3A
:1027E000BB4F19962D913C911A9730932B0420934F
:1027F0002A04880F991F880F991FFC01E15DFB4F88
:10280000808180932C0417968C9180932D0482E014
:102810000E948C0FB7CD0E94A301882309F43BC00E
:1028200050912D0480912A0490912B0440914204F0
:102830004530E8F460912C04242F30E0D901AA0F30
:10284000BB1FAA0FBB1FA95DBB4F17965C931797C1
:10285000220F331F220F331FF901E15DFB4F60830D
:102860001A969C938E9319974F5F4093420466E0AB
:10287000569F800D911D1124FC013596E491E09343
:102880002C04FC0133968591949190932B048093B2
:102890002A0410922D0483E0BBCF813051F4809143
:1028A0002D04882309F46ECD815080932D0480E09F
:1028B000AFCF823009F066CD80912D0420912C0499
:1028C0002150330B821713060CF05CCD8F5F809381
:1028D0002D0481E09DCF0E94B501F82E01E011305A
:1028E00009F000E0EEEFEF0DE73108F0EFC1F0E0A6
:1028F000E458FB4E0C941B1F9314BD14DE141515E5
:10290000521566168615AB15CA15E415041666161B
:102910003216511666169916DB16BA16FC161D17D6
:10292000381759177A17812F8F778230C1F4809129
:102930001F039091200301968032910514F081E0ED
:1029400090E09093200380931F0361E081E00E9458
:1029500059098F2D0E949B0C0E940E0A22C38330BE
:1029600009F082C080911F039091200301971816EF
:1029700019063CF38FE190E0E4CF812F8F7782300E
:1029800079F480911D0390911E0301968D3091057D
:1029900014F081E090E090931E0380931D03D5CF47
:1029A000833009F09EC080911D0390911E03019712
:1029B0001816190684F38CE090E0EDCF812F8F7705
:1029C000823081F480911B0390911C030196833027
:1029D00028E0920714F081E090E090931C0380932C
:1029E0001B03B3CF833059F480911B0390911C03D8
:1029F0000197181619068CF384EE97E0EECF11308C
:102A000009F0D7C220914C0330914E0340911F032F
:102A100050911D0380911B0390911C03803D67E042
:102A20009607A8F1805D974032C0812F8F77823062
:102A300079F480914E0390914F030196883191056E
:102A400014F090E080E090934F0380934E037DCF8D
:102A5000833051F480914E0390914F03019797FF7B
:102A6000F2CF87E190E0EFCF113009F0A2C22091C0
:102A70004C0330914E0340911F0350911D038091F0
:102A80001B0390911C03803DE7E09E0758F6898365
:102A90005A834B833C832D831E82CE0101960E9474
:102AA000F60753CF812F8F77823079F480914C03D2
:102AB00090914D0301968C33910514F090E080E0E5
:102AC00090934D0380934C0340CF833051F4809119
:102AD0004C0390914D03019797FFF2CF8BE390E069
:102AE000EFCF113009F065C220914C0330914E03B5
:102AF00040911F0350911D0380911B0390911C0373
:102B0000803DF7E09F0708F08DCFC1CF812F8F77F1
:102B1000823079F4809130039091310301968831AD
:102B2000910514F090E080E090933103809330039E
:102B30000CCF833051F48091300390913103019791
:102B400097FFF2CF87E190E0EFCF113009F031C26B
:102B50000E947E0AFACE812F8F77823079F480919D
:102B600032039091330301968831910514F090E07F
:102B700080E09093330380933203E7CE833029F7CC
:102B80008091320390913303019797FFF2CF87E151
:102B900090E0EFCF812F8F77823051F480913A030C
:102BA00090913B03019690933B0380933A03CDCEE3
:102BB000833059F680913A0390913B03019797FF38
:102BC000F2CF84E690E0EFCF812F8F77823079F4D7
:102BD000809134039091350301968D33910514F063
:102BE00090E080E09093350380933403AECE833041
:102BF00009F0ABCF8091340390913503019797FF93
:102C0000F1CF8CE390E0EECF812F8F77823079F493
:102C1000809136039091370301968F31910514F01E
:102C200081E090E090933703809336038ECE83301B
:102C300059F48091360390913703019718161906BD
:102C40008CF38EE190E0EECF113009F0B2C10E941A
:102C50007E0A6091360370913703772786E00E94E1
:102C6000220473CE1F77123079F480910401909181
:102C7000050101968831910514F084E090E090936D
:102C800005018093040161CE133001F580910401A8
:102C9000909105010197843091058CF787E190E0D0
:102CA000EECF809127049091280490932B04809379
:102CB0002A048091290480932C0410922D041092F0
:102CC000420484E0809357020E948C090E9405030D
:102CD000C0905202D0905302E0905402F0905502FE
:102CE0006C197D098E099F09613177428105910533
:102CF000A0F0809127049091280490932B04809356
:102D00002A048091290480932C0410922D0410929F
:102D10004204109257020E948C09002309F432CB1E
:102D200081E08093570261E080E00E94590980E2CF
:102D30002BCD812F8F77823079F480914003909151
:102D4000410301968930910514F083E090E090935F
:102D5000410380934003F9CD833009F0F6CE809192
:102D600040039091410301978330910584F788E0F7
:102D700090E0EDCF812F8F77823079F480914403FA
:102D80009091450301968930910514F083E090E01D
:102D90009093450380934403D8CD833009F0D5CE7A
:102DA000809144039091450301978330910584F706
:102DB00088E090E0EDCF812F8F77823079F4809199
:102DC00042039091430301968930910514F083E00A
:102DD00090E09093430380934203B7CD833009F092
:102DE000B4CE8091420390914303019783309105C3
:102DF00084F788E090E0EDCF812F8F77823079F4EF
:102E0000809146039091470301968930910514F013
:102E100083E090E0909347038093460396CD833000
:102E200009F093CE80914603909147030197833038
:102E3000910584F788E090E0EDCF812F8F77823085
:102E400051F480913C0390913D03019690933D0392
:102E500080933C037ACD833009F077CE80913C0398
:102E600090913D03019797FFF1CF84E690E0EECF7C
:102E7000812F8F77823079F48091480390914903B4
:102E800001968531910514F081E090E0909349031B
:102E9000809348035ACD833009F057CE8091480380
:102EA0009091490301971816190684F384E190E084
:102EB000EDCF812F8F77823079F480914A03909102
:102EC0004B0301968531910514F081E090E09093D9
:102ED0004B0380934A0339CD833009F036CE80917D
:102EE0004A0390914B0301971816190684F384E165
:102EF00090E0EDCF113809F057C064E271E081E253
:102F000093E00E945D2184E690E090933B038093E0
:102F10003A0385E090E0909331038093300386E19B
:102F200090E0909333038093320384E190E0909398
:102F3000350380933403909337038093360321E065
:102F400030E030933903209338038AE090E0909387
:102F50003D0380933C0330933F0320933E0383E083
:102F600090E09093410380934003909343038093B8
:102F700042039093470380934603909345038093C5
:102F80004403309349032093480382E090E09093F8
:102F90004B0380934A0361E081E00E94590982EB70
:102FA00091E00E94B70992CE113C09F08FCE01E06A
:102FB0008DCE00E08BCE60E080E00E9459098DE468
:102FC00092E00E949D0961E080E00E945909E09032
:102FD0000401F09005016CE0E616F1040CF470C0F9
:102FE0006FE671E0CE0149960E94D10B8DE0E816A4
:102FF000F1041CF0ECE0EE1AF1081C8A1B8A1E8A10
:103000001D8A188E1F8A4AE08E010F5F1F4FB8017C
:10301000C7010E94391EF80101900020E9F731979D
:103020007F01E01AF10AB701CE0143960E94640BBA
:10303000811149C0CE0143960E948C0B62EC71E075
:10304000C8010E94D10BBE016D5E7F4FC8010E9476
:103050009E0BBE01675E7F4F0E949E0BFC01448168
:1030600055816081718183E494E00E94C401C801AC
:103070000E94020CCE0143960E94020CCE0149969A
:103080000E94020C61E081E10E94430268EE73E05D
:1030900080E090E00E94D2028091040190910501AD
:1030A0000E94860A80915602833009F06BC989E03C
:1030B0008093030170E060E086E10E94220462C90F
:1030C00066E771E08FCFF88EEF8AB8018B899C8913
:1030D0000E945D21B3CF1F920F920FB60F92112461
:1030E0002F933F938F939F93AF93BF938091E4026D
:1030F0009091E502A091E602B091E7023091E302DF
:1031000023E0230F2D3758F50196A11DB11D209303
:10311000E3028093E4029093E502A093E602B09369
:10312000E7028091E8029091E902A091EA02B09151
:10313000EB020196A11DB11D8093E8029093E90274
:10314000A093EA02B093EB02BF91AF919F918F9150
:103150003F912F910F900FBE0F901F90189526E86A
:10316000230F0296A11DB11DD2CF1F920F920FB651
:103170000F9211242F933F934F935F936F937F93FD
:103180008F939F93AF93BF93EF93FF93E091EE02E2
:10319000F091EF02309749F0A685B7858585968D29
:1031A00091FF14C09C918923A1F4FF91EF91BF91ED
:1031B000AF919F918F917F916F915F914F913F91CF
:1031C0002F910F900FBE0F901F9018959C918923FF
:1031D00061F7A389B4899C918589809589238C9313
:1031E000868997890197F1F7608D718DA685B785DE
:1031F000558538E020E0CB010197F1F7822F90E070
:1032000095958795282F4C91452309F020683150DA
:1032100091F7868D81FD20958091ED0290E00196D9
:103220008F7399273091EC02381799F0A091ED0235
:10323000B0E0AD55BD4F2C938093ED02828D938D00
:103240000197F1F7A389B4898C919589892B8C9387
:10325000ACCF868D8160868FF1CF1F920F920FB613
:103260000F9211242F933F934F935F936F937F930C
:103270008F939F93AF93BF93EF93FF938091B90088
:10328000887F803609F44AC0F0F5883209F4A7C077
:1032900018F5803109F49BC0B8F4882309F4F9C00B
:1032A000883009F494C0FF91EF91BF91AF919F9145
:1032B0008F917F916F915F914F913F912F910F90DF
:1032C0000FBE0F901F901895883109F488C0803286
:1032D00051F78093850314C0803409F49DC040F4F5
:1032E0008033B9F38833F9F68093850385ECB0C059
:1032F000803509F485C0883509F496C0883499F67C
:103300000E940A0CD0CF883909F48CC038F5883770
:1033100029F050F4883611F0803729F683E0809345
:1033200087031092A20257C0883809F47BC0803905
:1033300019F0803809F0B7CF8091A202803208F0EE
:1033400071C0E091A20281E08E0F8093A202809171
:10335000BB00F0E0EE57FD4F80833DC0803B39F06D
:10336000E0F4803A09F479C0883A09F09CCF84E00F
:10337000809387031092810210928002E091F702FD
:10338000F091F80209958091800281110FC081E0CF
:10339000809380021092600209C0803C09F4A6CF9D
:1033A000883C09F4A3CF883B09F07DCFE0918102EE
:1033B00081E08E0F80938102F0E0E05AFD4F808122
:1033C0008093BB00909181028091800229C08091FE
:1033D00062038093BB0085EC8093BC0064CF909126
:1033E000840380918303981758F5E091840381E06A
:1033F0008E0F80938403F0E0ED59FC4F8081E9CF7C
:10340000E091840381E08E0F809384038091BB0060
:10341000F0E0ED59FC4F8083909184038091830309
:103420009817C8F285E8D8CFE091840381E08E0F29
:10343000809384038091BB00F0E0ED59FC4F8083C2
:103440008091860381115CCF81E08093610384EADF
:103450008093BC001092870326CF85EC8093BC003C
:10346000109287038091A202803230F4E091A20290
:10347000F0E0EE57FD4F10826091A20270E0E09103
:10348000F502F091F60282E892E009951092A2020C
:103490000ACF1092850334CF1092D6031092D50331
:1034A00088EE93E0A0E0B0E08093D7039093D80338
:1034B000A093D903B093DA032DE331E03093D40322
:1034C0002093D303109278041092770480937904A8
:1034D00090937A04A0937B04B0937C048BE591E0F5
:1034E000909376048093750410928C0410928B0450
:1034F00010928E0410928D041092900410928F04FA
:103500001092920410929104609193046E7F6D7FEB
:10351000609393046695617081E0682783E00E9460
:10352000430261E083E00E947102EAECF2E0E49180
:10353000E0938504E6EBF2E0E491F0E0EE0FFF1F8C
:10354000E755FD4F8591949190938704809386046D
:1035500060E082E00E9471028091930481FD04C0CA
:1035600061E082E00E94430282E080938104E9EC02
:10357000F2E0E491E0938204E5EBF2E0E491F0E024
:10358000EE0FFF1FE156FD4F2591349130938404D7
:103590002093830444EF51E060E070E040935504D1
:1035A0005093560460935704709358049AE0E4E1F2
:1035B000F1E0A3E6B4E001900D929A95E1F7109244
:1035C0006D0480936E041092730410927404109230
:1035D0004604109245042FE431E0309344042093D4
:1035E000430497E29093470490E190934C048093B6
:1035F0004D0410924E042BED32E0309328042093BA
:10360000270483E08093290430932B0420932A0419
:1036100080932C0410922D04109242046FEC71E000
:103620008FED93E00E94D10B63ED71E085EE93E0A6
:103630000E94D10B67ED71E08BEE93E00E94D10BFD
:103640006BED71E081EF93E00E94D10B6FED71E0C3
:1036500087EF93E00E94D10B63EE71E08DEF93E072
:103660000E94D10B67EE71E083E094E00E94D10BE1
:103670006BEE71E089E094E00E94D10B6FEE71E097
:103680008FE094E00E94D10B63EF71E085E194E05C
:103690000E94D10B67EF71E08BE194E00E94D10BA7
:1036A0006BEF71E081E294E00C94D10B789484B5D7
:1036B000826084BD84B5816084BD85B5826085BD2E
:1036C00085B5816085BD80916E00816080936E00BC
:1036D00010928100809181008260809381008091AE
:1036E000810081608093810080918000816080935F
:1036F00080008091B10084608093B1008091B0001F
:1037000081608093B00080917A00846080937A0019
:1037100080917A00826080937A0080917A00816043
:1037200080937A0080917A00806880937A0010926A
:10373000C10061E081E10E94710262E085E00E94C7
:10374000710262E089E00E94710262E08AE00E94F8
:10375000710262E08BE00E94710262E08CE00E94E4
:1037600071020E9470050E947005109248048091B9
:103770004D04823018F098E09093480480934B04F5
:1037800062E370E080E090E00E94D20260914E041B
:1037900083E494E00E94E30768EE73E080E090E049
:1037A0000E94D20260E383E494E00E942909CBE402
:1037B000D6E4CE010197F1F760E383E494E00E9440
:1037C00029092197F1F760E383E494E00E94290935
:1037D00083E592E00197F1F760E283E494E00E94D0
:1037E000290960914804606240E083E494E00E940B
:1037F000420984E08093490440E06CE083E494E073
:103800000E9442090E948C0982E080934A0440E0B1
:1038100066E083E494E00E94420940E062E083E4D1
:1038200094E00E9442098BE39FE10197F1F788E061
:1038300080934E0460E083E494E00E94E30760E03C
:1038400085E00E94590987E992E00E949D0961E0A4
:1038500086E00E94590981E992E00E949D0960ED8D
:1038600077E080E090E00E94D2020E948C0960E044
:1038700083E00E9459098FEF91E00E94B7094BE263
:1038800050E070E060E081E293E00E946E1E64E22E
:1038900071E081E293E00E945421892B09F44EC02B
:1038A00064E271E081E293E00E945D2184E690E0B1
:1038B00090933B0380933A0385E090E0909331032B
:1038C0008093300386E190E090933303809332033A
:1038D00084E190E090933503809334039093370311
:1038E0008093360321E030E030933903209338038E
:1038F0008AE090E090933D0380933C0330933F0334
:1039000020933E0383E090E0909341038093400333
:10391000909343038093420390934703809346031D
:1039200090934503809344033093490320934803C5
:1039300082E090E090934B0380934A0389E00E94D9
:103940001A02892B09F002C161E080E00E94590946
:103950008AE092E00E94B70981E08093F402C1E01E
:10396000D8E60E947005C0938D03D093AF031092E8
:103970008E031092B0030E94A8058111EAC0C09383
:103980008D0310928E031092B00360E083ED93E0FC
:103990000E94B4070E94A80561E088E60E948F0695
:1039A0001092FA028093F90283ED93E00E946D0772
:1039B00087FF0CC00E948C0983E892E00E949D0959
:1039C00060ED77E080E090E00E94D2028CE00E94FF
:1039D0001A02892B09F407C11092900410928F04E7
:1039E00010928E0410928D0410928C0410928B040D
:1039F0008DE991E0909392048093910490918104D9
:103A0000963108F047C02DEB30E030938C042093C2
:103A10008B042BE931E030938E0420938D042CE24B
:103A200031E03093900420938F042091680084E06B
:103A3000983048F031E09E3008F430E081E001C079
:103A4000880F3A95EAF7822B809368002DE630E0E4
:103A5000983050F02BE630E09E3030F02CE630E02D
:103A6000963110F030E020E03093890420938804F0
:103A7000292F30E0983008F073C081E001C0880F32
:103A80009A95EAF780938A04809191049091920428
:103A90000197F1F780918F0490919004892B49F15F
:103AA000E091EE02F091EF0224E0E537F20709F130
:103AB000309739F0A389B4899C91858980958923B1
:103AC0008C93809193048E7F809393041092ED02E7
:103AD0001092EC0285E794E09093EF028093EE025F
:103AE000E0918804F0918904808190918A04892B67
:103AF000808364EF71E080E090E00E94D202C5E72D
:103B0000D4E011E0D0935004C0934F0410936704A5
:103B100070E060E08CE00E9422040E9405036B01CB
:103B20007C010E941103811128C00E9405036C19B9
:103B30007D098E099F09613D774081059105E8F473
:103B400060E070E0CB010E94D202EBCF1092F40251
:103B500006CF0E948C098AE892E00E949D0901CF5D
:103B60009E3040F42850310981E001C0880F2A9529
:103B7000EAF788CF2E503109F7CF68EC70E080E08B
:103B800090E00E94D2021092730480916F048430FE
:103B900059F0893049F060E080E00E9459098CE7D3
:103BA00092E00E949D09AECF84EF91E0A0E0B0E0EA
:103BB0008093550490935604A0935704B0935804EF
:103BC0006091360370913703772786E00E942204C4
:103BD00062E070E089E00E94220468EC70E080E01E
:103BE00090E00E94D2020E948C090E94050360931B
:103BF000F0027093F1028093F2029093F302C0E01E
:103C0000D0E00E94F30F2097E1F30E940000F9CF6B
:103C1000CF93DF93C7E2D4E02697CE010E94020C37
:103C200023E0CF3DD207C1F78BE591E09093760476
:103C3000809375048091EE029091EF028557944035
:103C400071F4E0918804F0918904908180918A0454
:103C50008095892380831092EF021092EE02DF910B
:103C6000CF910895FB01DC0105900D920020E1F752
:103C70000895BB274A3031F4992322F4BDE2909590
:103C800081959F4F0C94451EBB27FB015527AA2702
:103C9000880F991FAA1FA41710F0A41B83955051D9
:103CA000B9F7A05DAA3308F0A95DA193009779F751
:103CB000B111B1931192CB010C945E1EDC01FC0199
:103CC000672F71917723E1F7329704C07C916D9350
:103CD00070836291AE17BF07C8F30895DC01CB0172
:103CE000FC01F999FECF06C0F2BDE1BDF89A31960C
:103CF00000B40D9241505040B8F70895DC01CB015B
:103D000003C02D910E94891E41505040D0F7089564
:103D1000262FF999FECF1FBA92BD81BD20BD0FB6E7
:103D2000F894FA9AF99A0FBE019608952F923F924D
:103D30004F925F926F927F928F929F92AF92BF92BB
:103D4000CF92DF92EF92FF920F931F93CF93DF9367
:103D5000CDB7DEB7CA1BDB0B0FB6F894DEBF0FBEC4
:103D6000CDBF09942A88398848885F846E847D8411
:103D70008C849B84AA84B984C884DF80EE80FD8013
:103D80000C811B81AA81B981CE0FD11D0FB6F89489
:103D9000DEBF0FBECDBFED010895A29FB001B39F5E
:103DA000C001A39F700D811D1124911DB29F700D44
:103DB000811D1124911D0895991B79E004C0991F5C
:103DC000961708F0961B881F7A95C9F78095089575
:103DD00097FB072E16F4009407D077FD09D00E94B8
:103DE000281F07FC05D03EF4909581959F4F0895BC
:103DF000709561957F4F0895052E97FB1EF40094F2
:103E00000E94131F57FD07D00E943C1F07FC03D0E0
:103E10004EF40C94131F50954095309521953F4FCB
:103E20004F4F5F4F089590958095709561957F4FA6
:103E30008F4F9F4F0895EE0FFF1F0590F491E02DD7
:103E400009940E94CD1EB7FF0895821B930B08951D
:103E5000AA1BBB1B51E107C0AA1FBB1FA617B707B0
:103E600010F0A61BB70B881F991F5A95A9F78095CC
:103E70009095BC01CD010895A1E21A2EAA1BBB1B8F
:103E8000FD010DC0AA1FBB1FEE1FFF1FA217B30726
:103E9000E407F50720F0A21BB30BE40BF50B661F3C
:103EA000771F881F991F1A9469F760957095809500
:103EB00090959B01AC01BD01CF0108950F931F9315
:103EC000CF93DF938230910510F482E090E0E0918F
:103ED0009604F091970430E020E0B0E0A0E0309745
:103EE00099F42115310509F44AC0281B390B2430F7
:103EF0003105D8F58A819B816115710589F1FB0136
:103F000093838283FE0111C040815181028113811C
:103F100048175907E0F04817590799F4109761F0CE
:103F200012960C93129713961C933296CF01DF9141
:103F3000CF911F910F9108950093960410939704C9
:103F4000F4CF2115310551F04217530738F0A9017C
:103F5000DB019A01BD01DF01F801C1CFEF01F9CF0B
:103F60009093970480939604CDCFFE01E20FF31F48
:103F7000819391932250310939832883D7CF20919F
:103F8000940430919504232B41F420910801309141
:103F900009013093950420939404209106013091F7
:103FA00007012115310541F42DB73EB740910A01B3
:103FB00050910B01241B350BE0919404F091950472
:103FC000E217F307A0F42E1B3F0B2817390778F0F0
:103FD000AC014E5F5F4F2417350748F04E0F5F1F4F
:103FE0005093950440939404819391939FCFF0E074
:103FF000E0E09CCFCF93DF930097E9F0FC0132978C
:1040000013821282A0919604B0919704ED0130E0E2
:1040100020E01097A1F420813181820F931F20911D
:104020009404309195042817390709F061C0F09382
:104030009504E0939404DF91CF910895EA01CE179F
:10404000DF07E8F54A815B819E0141155105B1F713
:10405000E901FB83EA8349915991C40FD51FEC17FD
:10406000FD0761F4808191810296840F951FE9011B
:1040700099838883828193819B838A83F0E0E0E047
:1040800012968D919C9113970097B9F52D913C91C3
:104090001197CD010296820F931F209194043091C5
:1040A00095042817390739F6309751F5109297047F
:1040B00010929604B0939504A0939404BCCFD3833C
:1040C000C28340815181840F951FC817D90761F4BD
:1040D0004E5F5F4F88819981480F591F51834083FC
:1040E0008A819B81938382832115310509F0B0CFAA
:1040F000F0939704E09396049ECFFD01DC01C0CFBE
:1041000013821282D7CFB0E0A0E0E9E8F0E20C948D
:10411000981E8C01009751F4CB010E945E1F8C0108
:10412000C801CDB7DEB7E0E10C94B41EFC01E60F88
:10413000F71F9C0122503109E217F30708F49DC0D4
:10414000D901CD91DC911197C617D70798F0C530EA
:10415000D10530F3CE0104978617970708F3C61BE5
:10416000D70B2297C193D1936D937C93CF010E947B
:10417000FA1FD6CF5B01AC1ABD0A4C018C0E9D1EF6
:10418000A0919604B0919704512C412CF12CE12C74
:10419000109731F5809194049091950488159905B4
:1041A00009F05CC04616570608F058C08091060119
:1041B00090910701009741F48DB79EB740910A0195
:1041C00050910B01841B950BE817F90708F055C0B7
:1041D000F0939504E0939404F90171836083A0CF78
:1041E0008D919C91119712966C90129713967C90DA
:1041F0001397A815B90559F56C0142E0C40ED11CFE
:10420000CA14DB0420F1AC014A195B09DA011296E9
:10421000159780F06282738251834083D9016D9338
:104220007C93E114F10471F0D7011396FC93EE93A3
:10423000129776CF22968C0F9D1FF9019183808370
:10424000F301EFCFF0939704E093960469CF4816FB
:10425000590608F42C017D01D3019ACFCB010E94AD
:104260005E1F7C01009749F0AE01B8010E94402119
:10427000C8010E94FA1F870153CF10E000E050CF21
:10428000FB01DC0102C001900D9241505040D8F773
:104290000895FB01DC010D900020E9F711970190D2
:1042A0000D920020E1F70895FB01DC018D91019052
:1042B00080190110D9F3990B0895FB01DC010190DD
:1042C0000D920020E1F70895FB01DC0141505040C0
:1042D00048F001900D920020C9F701C01D92415095
:1042E0005040E0F7089511E0C8E7D1E004C0FE01B6
:1042F0000E941B1F2196C937D107C9F7F894FFCF39
:104300000301010105000000980480000000400046
:10431000140054007EFF06000100000000EF0001C1
:10432000020304004368616E7442656C6C2056326F
:104330002E31002D2D2D2D2D0000000000B40787FB
:10434000076808950480076D075E07000000009766
:1043500009C40168087C04000000009604C40168D8
:10436000089504F2040A057D0430003A30302050EC
:104370004D003A303020414D004F46460020536FEB
:104380006E677300205365636F6E6473002044652D
:104390006D6F203E00506C6179003A002D002020A6
:1043A000004348414E5420504C4159494E472E2E0F
:1043B0002E0044656661756C7473206C6F61646572
:1043C000640044454D4F2054494D45203A20004A51
:1043D000616E00466562004D617200417072004D71
:1043E0006179004A756E004A756C0041756700532B
:1043F0006570004F6374004E6F7600446563004C37
:104400006F6164696E672E2E2E0053657276696344
:0844100065204D6F646500009A
:107E0000112484B714BE81FFF0D085E080938100F7
:107E100082E08093C00088E18093C10086E0809377
:107E2000C20080E18093C4008EE0C9D0259A86E02C
:107E300020E33CEF91E0309385002093840096BBD3
:107E4000B09BFECF1D9AA8958150A9F7CC24DD24C4
:107E500088248394B5E0AB2EA1E19A2EF3E0BF2EE7
:107E6000A2D0813461F49FD0082FAFD0023811F036
:107E7000013811F484E001C083E08DD089C08234E0
:107E800011F484E103C0853419F485E0A6D080C0E4
:107E9000853579F488D0E82EFF2485D0082F10E0AE
:107EA000102F00270E291F29000F111F8ED06801E7
:107EB0006FC0863521F484E090D080E0DECF843638
:107EC00009F040C070D06FD0082F6DD080E0C81688
:107ED00080E7D80618F4F601B7BEE895C0E0D1E017
:107EE00062D089930C17E1F7F0E0CF16F0E7DF06D8
:107EF00018F0F601B7BEE89568D007B600FCFDCFD4
:107F0000A601A0E0B1E02C9130E011968C91119780
:107F100090E0982F8827822B932B1296FA010C0160
:107F200087BEE89511244E5F5F4FF1E0A038BF0790
:107F300051F7F601A7BEE89507B600FCFDCF97BE46
:107F4000E89526C08437B1F42ED02DD0F82E2BD052
:107F50003CD0F601EF2C8F010F5F1F4F84911BD097
:107F6000EA94F801C1F70894C11CD11CFA94CF0C13
:107F7000D11C0EC0853739F428D08EE10CD085E9AC
:107F80000AD08FE07ACF813511F488E018D01DD067
:107F900080E101D065CF982F8091C00085FFFCCF94
:107FA0009093C60008958091C00087FFFCCF809118
:107FB000C00084FD01C0A8958091C6000895E0E648
:107FC000F0E098E1908380830895EDDF803219F02E
:107FD00088E0F5DFFFCF84E1DECF1F93182FE3DFCA
:107FE0001150E9F7F2DF1F91089580E0E8DFEE27F6
:047FF000FF270994CA
:027FFE00040479
:00000001FF
