:020000040000FA
:100000000C947E010C94A6010C94A6010C94C219C8
:100010000C94C2190C94C2190C94A6010C94A6015C
:100020000C94A6010C94A6010C94A6010C94A601B4
:100030000C94A6010C94A6010C94A6010C94A601A4
:100040000C9478190C94A6010C94A6010C94A601AA
:100050000C94A6010C94A6010C94A6010C94A60184
:100060000C943A1A0C94A601534F4E4720434F5517
:100070004E540045564520534F4E47203220544998
:100080004D45004D4F5220534F4E4720322054498A
:100090004D450045564520534F4E472031204E6F69
:1000A0002E0045564520534F4E4720312054494D90
:1000B00045004D4F5220534F4E472031204E6F2E5A
:1000C000004D4F5220534F4E4720312054494D454B
:1000D000003220504C415900312053454C45435487
:1000E0002054494D4500382052455345542053452E
:1000F0005454494E470011C10000000016B20000E0
:10010000000013A2000000001793000000001283FB
:1001100000000000147300000000156800000000DB
:100120000093010000003720534F4E4720534554A1
:1001300054494E47000ED8000000000FD1000000C7
:10014000000093010000003620504C4159204445E6
:100150004D4F003520564F4C554D450034204241FF
:10016000434B4C4947485420445552003320534C8C
:100170004F47414D20434F554E54003220454E4489
:100180002054494D45003120535441525420544984
:100190004D45004241434B003520534554204D49C5
:1001A0004E530034205345542048525300332053BB
:1001B00045542059454152003220534554204D4F5B
:1001C0004E54480031205345542044415445004585
:1001D00058495400088601000000097B0100000016
:1001E0000A6C010000000B5C010000000C530100D0
:1001F00000000D4701350103102601F6000818E63E
:1002000000000000009301000000322042454C4CE9
:100210002053455454494E470002C40100000003D6
:10022000B80100000004AD0100000005A3010000BA
:1002300000069801000000009301000000312053E7
:10024000455420444154452054494D4500202052F6
:10025000554E4E494E472044454D4F20200000004A
:100260000000240027002A0000000008000201000E
:100270000003040700000000000000004552522067
:100280003033004552522030320045525220303136
:10029000005154524F4E0057454C434F4D45001F9F
:1002A0001C1F1E1F1E1F1F1E1F1E000000002300FC
:1002B0002600290000000000250028002B0004046F
:1002C00004040404040402020202020203030303FE
:1002D00003030102040810204080010204081020DA
:1002E000010204081020013D02190206070A02D487
:1002F000010900CF01000000591B3B1F11241FBE44
:10030000CFEFD8E0DEBFCDBF24E0A8E1B2E001C06E
:100310001D92A23AB207E1F712E0A0E0B1E0E6E6F2
:10032000F5E402C005900D92A831B107D9F711E0AC
:10033000CDE7D1E004C02197FE010E946220CC37B6
:10034000D107C9F70E94811C0C94A6220C940000CE
:1003500080913104E0912E04F0912F0496E0899F62
:10036000E00DF11D11243596E49181E0E11101C009
:1003700080E00895EBE2F4E086810380F481E02DD3
:1003800096E0899FE00DF11D112484910895089550
:100390000895AF92BF92CF92DF92EF92FF920F93A8
:1003A0001F93CF93DF936C017B018B01040F151F0B
:1003B000EB015E01AE18BF08C017D10759F0699173
:1003C000D601ED91FC910190F081E02DC6010995D7
:1003D000892B79F7C501DF91CF911F910F91FF9084
:1003E000EF90DF90CF90BF90AF900895833081F071
:1003F00028F4813099F08230A9F008958730A9F06F
:100400008830C9F08430B1F4809180008F7D03C0C2
:10041000809180008F7780938000089584B58F77D6
:1004200084BD089584B58F7DFBCF8091B0008F7718
:100430008093B00008958091B0008F7DF9CFCF9365
:10044000DF93282F30E0F901E859FD4F8491F9013D
:10045000EE52FD4FD491F901E254FD4FC491CC23EB
:10046000A1F081110E94F601EC2FF0E0EE0FFF1FCA
:10047000E655FD4FA591B491EC91ED2381E090E01C
:1004800009F480E0DF91CF91089580E090E0FACF09
:100490001F93CF93DF93282F30E0F901E859FD4FE8
:1004A0008491F901EE52FD4FD491F901E254FD4FD0
:1004B000C491CC23A9F0162F81110E94F601EC2FD4
:1004C000F0E0EE0FFF1FEC54FD4FA591B4918FB7F4
:1004D000F894EC91111108C0D095DE23DC938FBF06
:1004E000DF91CF911F910895DE2BF8CFCF93DF934B
:1004F00090E0FC01EE52FD4F249182549D4FFC018F
:1005000084918823C9F090E0880F991FFC01E25A7A
:10051000FD4FA591B491FC01EC54FD4FC591D491D0
:1005200061110DC09FB7F8948C91209582238C9314
:100530008881282328839FBFDF91CF91089562305F
:1005400051F49FB7F8943C91822F809583238C932C
:10055000E8812E2BEFCF8FB7F894EC912E2B2C93B4
:100560008FBFEACF3FB7F8948091EA029091EB02F7
:10057000A091EC02B091ED0226B5A89B05C02F3FDB
:1005800019F00196A11DB11D3FBFBA2FA92F982FB9
:100590008827BC01CD01620F711D811D911D42E0B4
:1005A000660F771F881F991F4A95D1F708958F927C
:1005B0009F92AF92BF92CF92DF92EF92FF926B0128
:1005C0007C010E94B2024B015C01C114D104E10420
:1005D000F104B9F00E94B202681979098A099B09ED
:1005E000683E73408105910580F321E0C21AD1086D
:1005F000E108F10888EE880E83E0981EA11CB11C6A
:10060000E4CFFF90EF90DF90CF90BF90AF909F909E
:100610008F9008952FB7F8946091E6027091E702E9
:100620008091E8029091E9022FBF08950F931F93E4
:100630008091590490915A04DC01ED91FC91008461
:10064000F185E02D0995892B09F4D7C060E070E0B1
:10065000CB010E94D7022091770480915904909198
:100660005A04DC01ED91FC910284F385E02D211107
:100670000BC00995809363048E37D1F6809177047F
:100680008F5F80937704D4CF099590917704E92FF9
:10069000F0E0E75AFB4F82879230B9F09930D9F0F9
:1006A0009130A9F48F3F99F01092770481E0809304
:1006B000790410927C0410927B0480937D04109244
:1006C0007E0480E01F910F910895863069F79F5F47
:1006D00090937704ADCF8F3E39F7209165048091D8
:1006E0006404280F3327331FE0916604C9018E0F7D
:1006F000911D20916704280F392F311D4091680406
:1007000050E0240F351F8091690490E060916A04E5
:1007100070E0762F6627F0916B046F0F711D280F24
:10072000391F3195219531096217730709F0BCCF44
:1007300010927704E13419F410927E042FC0E093F4
:100740007A04542F4427840F951F90937C04809340
:100750007B04EA53E63108F046C0F0E0EE54FC4F6B
:100760000C946220DF03E703F103C803F103D10314
:10077000EF03F303F103F103F103F103F103F103D9
:10078000F103F103F303F103F103F103F103F103C7
:1007900085E08093790481E080937D0480917D04DD
:1007A00091CF80FF02C089E0F4CF81FF02C084E0D6
:1007B000F0CF83709927892B89F38AE0EACF80FFF5
:1007C00002C087E0E6CF81FFE9CF82E0E2CF80FF81
:1007D00002C088E0DECF81FFE1CF83E0DACF86E0A0
:1007E000D8CF8BE0D6CF81E08093790410927C043F
:1007F00010927B0480937D049FCF80917E04882398
:1008000069F20E940A0300915B0410915C0420913C
:100810005D0430915E04601B710B820B930B0091A1
:100820005F041091600420916104309162046017AC
:1008300071078207930708F4B1CF109277041092E2
:10084000790410927C0410927B0481E036CF80936F
:100850007004272F30E0709372046093730440910A
:100860006F0490916E04490F5527551F840F952FE3
:10087000911D40917104840F911D820F931F680F89
:10088000792F711D7195619571097093740460934E
:100890007504442361F080917E04882341F060E078
:1008A00070E0CB010E94D7020E941603F4CF809122
:1008B000590490915A04DC01ED91FC910280F3817E
:1008C000E02D4AE050E06DE674E009950E940A03CD
:1008D00060935B0470935C0480935D0490935E046A
:1008E0008091710491E0811101C090E090937E04A9
:1008F000811106C06AE070E080E090E00C94D702BD
:100900000895782F8FE00C94270408952091F00229
:100910003091F1022817390771F49091EE0280911D
:10092000EF02981741F0E091EE02F0E0EB55FD4F39
:10093000808190E008958FEF9FEF08950895EF92E2
:10094000FF920F931F93CF93DF93DC015C96ED90A2
:10095000FC905D97E114F10479F481E090E0139646
:100960009C938E93129790E080E0DF91CF911F913E
:100970000F91FF90EF9008955196ED91FC91529751
:1009800050968C915097982F90950FB75E962C911A
:100990005E97122F127021FD6095F894208111232B
:1009A00019F1282B2083E7012197F1F728E0462F42
:1009B00050E0308160FF1AC0382B3083E701219767
:1009C000F1F7BA0175956795215089F7112381F0E8
:1009D0008081892380830FBF5C968D919C910197C4
:1009E000F1F781E090E0C1CF2923DCCF3923E5CFB7
:1009F0009081892BEFCF2091F0023091F1022817DE
:100A0000390761F48091EF022091EE0290E0805C62
:100A10009F4F821B91098F739927089590E080E082
:100A200008952091F0023091F10228173907B9F4A6
:100A30009091EE028091EF02981789F0E091EE021A
:100A4000F0E0EB55FD4F80812091EE0230E02F5F0A
:100A50003F4F2F7333272093EE0290E008958FEFDE
:100A60009FEF089520918202260F3327331F2132F2
:100A70003105ECF420918B03FC0190E080E0243000
:100A800069F082E00895A09182022191AC014E5953
:100A90005D4FA40FB52FB11D2C930196861798F3C7
:100AA00080918202680F6093820280E0089581E065
:100AB000089510928B0381E080938A03109265035E
:100AC00061E082E10E94480261E083E10E94480205
:100AD000E9EBF0E080818E7F808380818D7F808351
:100AE00088E48093B80085E48093BC000895109258
:100AF000FC021092FB02109292031092B4030E9427
:100B0000590587EC91E09093FA028093F90288EC02
:100B100091E09093F8028093F7020895CF93DF93CA
:100B200091E0909361028823B9F0C091B800D09110
:100B3000BA008091BC008A7B8093BC0060E082E1B7
:100B40000E94480260E083E10E9448020E94590529
:100B5000D093BA00C093B800DF91CF910895CF929F
:100B6000DF92EF92FF920F931F93CF93DF93D09179
:100B7000B40381E0D13208F09CC0C091B3030E945D
:100B8000B2026B017C0180918B0381116CC082E009
:100B900080938B0381E080938A038FEF8093890396
:100BA00010928803D0938703A3E9B3E0E7E6F3E06C
:100BB00080E0D8138DC01092660380916603CC0F3D
:100BC000C82BC093660380916503813009F084C00F
:100BD000109265030E94B2026B017C018091660352
:100BE0008093BB0080918D0390918E03A0918F0321
:100BF000B0919003892B8A2B8B2BA1F00E94B2021B
:100C000000918D0310918E0320918F0330919003FA
:100C10006C197D098E099F090617170728073907E0
:100C200008F442C08091BC0083FDD8CF85EC80934E
:100C3000BC000E94B2026B017C0180918B03823068
:100C400009F44CC0809189038F3F09F469C08091F9
:100C50008903803209F466C080918903803309F4E6
:100C600063C084E026C080918D0390918E03A09193
:100C70008F03B0919003892B8A2B8B2B09F483CFA0
:100C80000E94B20200918D0310918E0320918F0378
:100C9000309190036C197D098E099F09061717077B
:100CA0002807390708F06FCF80918C030E948E05CA
:100CB00085E0109292031092B40310929103DF9199
:100CC000CF911F910F91FF90EF90DF90CF900895FB
:100CD0009D9191938F5F6DCF85EEA9CF80918D030C
:100CE00090918E03A0918F03B0919003892B8A2B52
:100CF0008B2B09F4A2CF0E94B20200918D031091B8
:100D00008E0320918F03309190036C197D098E0919
:100D10009F09061717072807390708F08ECFC4CF99
:100D200080E0C7CF82E0C5CF83E0C3CFCF92DF9210
:100D3000EF92FF920F931F93CF93DF93D82FC62F7D
:100D4000613208F098C00E94B2026B017C01809170
:100D50008B0381116BC081E080938B0380938A03A6
:100D60009FEF90938903109288039C0F90938703C1
:100D70008093660380916603DD0FD82BD0936603C2
:100D800080916503813009F078C0109265030E945C
:100D9000B2026B017C01809166038093BB0080915D
:100DA0008D0390918E03A0918F03B0919003892BB6
:100DB0008A2B8B2BA1F00E94B20200918D0310911F
:100DC0008E0320918F03309190036C197D098E0959
:100DD0009F09061717072807390708F448C08091AC
:100DE000BC0083FDD8CF85EC8093BC000E94B2028A
:100DF0006B017C0180918B03813009F440C08091AC
:100E000088038C1710F4C0918803E7E6F3E0ADEF98
:100E1000B2E080E08C1355C08C2FDF91CF911F91F1
:100E20000F91FF90EF90DF90CF90089580918D0308
:100E300090918E03A0918F03B0919003892B8A2B00
:100E40008B2B09F484CF0E94B20200918D03109184
:100E50008E0320918F03309190036C197D098E09C8
:100E60009F09061717072807390708F070CF8091E8
:100E70008C030E948E05C0E0CFCF85EEB5CF809168
:100E80008D0390918E03A0918F03B0919003892BD5
:100E90008A2B8B2B09F4AECF0E94B20200918D03F6
:100EA00010918E0320918F03309190036C197D096E
:100EB0008E099F09061717072807390708F09ACFE8
:100EC000D6CF91919D938F5FA5CFE091FC02809149
:100ED000FB02E81730F4F0E0E350FD4F808190E032
:100EE00008958FEF9FEF08959091FC028091FB028F
:100EF0002FEF3FEF981748F4E92FF0E0E350FD4F54
:100F0000208130E09F5F9093FC02C9010895809199
:100F1000FB029091FC02891B990B0895CF92DF92FE
:100F2000EF92FF920F931F93CF93DF937C01CB013E
:100F30008A0120919103222389F0EB016B01C40EF9
:100F4000D51ECC15DD0569F06991D701ED91FC91B5
:100F50000190F081E02DC7010995F3CF642F0E9425
:100F60003205C801DF91CF911F910F91FF90EF9053
:100F7000DF90CF900895CF93DF931F92CDB7DEB768
:100F80006983209191032223F9F02091B403203248
:100F900058F021E030E0FC013383228390E080E0D0
:100FA0000F90DF91CF91089580919203E82FF0E0A8
:100FB000ED56FC4F998190838F5F809392038093CD
:100FC000B40381E090E0ECCF61E0CE0101960E9495
:100FD0003205F7CFFC01248131E030939103209357
:100FE000B303109292031092B4038385682B87EDAC
:100FF00093E00E94BB070C94AF051F93CF93DF9340
:10100000EC0181E08093910388E68093B303109212
:1010100092031092B40360E087ED93E00E94BB0757
:101020002D811AE0822F612F0E940F20682F660FFA
:10103000680F660F620F87ED93E00E94BB072C815B
:10104000822F612F0E940F20682F660F680F660F96
:10105000620F87ED93E00E94BB072B81822F612FE7
:101060000E940F20682F660F680F660F620F87EDD2
:1010700093E00E94BB0760E087ED93E00E94BB070E
:101080002A81822F612F0E940F20682F660F680F20
:10109000660F620F87ED93E00E94BB072981822FC4
:1010A000612F0E940F20682F660F680F660F620F76
:1010B00087ED93E00E94BB072881822F612F0E9459
:1010C0000F20682F660F680F660F620F87ED93E0A1
:1010D0000E94BB07DF91CF911F910C94AF0590E068
:1010E00080E0089520916002253009F090F49091FD
:1010F0005F02E92FF0E0E65AFD4F80832F5F2093D7
:1011000060029F5F953018F490935F0208951092EB
:101110005F020895CF92DF92FF920F931F93CF93B8
:10112000DF936C0181E08093910388E68093B303A1
:10113000109292031092B40360E087ED93E00E9456
:10114000BB070E94AF0567E088E60E9496061092F2
:10115000FC028093FB0287ED93E00E9474078F7777
:10116000282F30E094E0359527959A95E1F7922F56
:10117000990F990FC22FC91BCC0FC80F87ED93E0B1
:101180000E9474079C0144E0359527954A95E1F744
:101190002F703327922F990F990FD22FD91BDD0F64
:1011A000D80F87ED93E00E9474079C0154E03595B9
:1011B00027955A95E1F72F703327922F990F990FA2
:1011C000122F191B110F180F87ED93E00E9474075F
:1011D00087ED93E00E9474079C0164E035952795A4
:1011E0006A95E1F72F703327922F990F990F022FED
:1011F000091B000F080F87ED93E00E9474079C0104
:1012000074E0359527957A95E1F72F703327922F63
:10121000990F990FF22EF91AFF0CF80E87ED93E053
:101220000E9474079C01E4E035952795EA95E1F763
:101230002F703327922F990F990F291B220F820F9E
:10124000F6018083F18202831383D483C583C601B0
:10125000DF91CF911F910F91FF90DF90CF90089574
:101260000F931F93CF938C01C62F0E94EA076C2F18
:101270006460C8010E94EA076C2F6B7FC8010E945E
:10128000EA0783EC90E00197F1F7CF911F910F915E
:1012900008950F931F93CF93DF938C01D62FC42F04
:1012A000607F642B0E94300980E1D89FB001112437
:1012B0006C2BC801DF91CF911F910F910C943009D5
:1012C000CF93DF93CDB7DEB728970FB6F894DEBF84
:1012D0000FBECDBF98E0ECE0F1E0DE011196019089
:1012E0000D929A95E1F790915504961708F46FEFD7
:1012F000262F30E0220F331F41E050E04C0F5D1FDE
:10130000240F351FF9016081680F606840E08DE4AB
:1013100094E028960FB6F894DEBF0FBECDBFDF91E4
:10132000CF910C94490940E061E08DE494E00E9483
:1013300049098BE39FE10197F1F7089541E00E948D
:10134000490981E090E008950F931F93CF93DF93B5
:101350008C01D0E0C0E0F801EC0FFD1F6491662322
:1013600039F041E08DE494E00E9449092196F3CFE1
:10137000CE01DF91CF911F910F910895009769F0F1
:10138000FC0101900020E9F73197AF01481B590B90
:10139000BC018DE494E00C94C90190E080E00895D4
:1013A0000F931F93CF93DF93EC01CB01009759F478
:1013B00069E671E0CE010E949022CE01DF91CF91CB
:1013C0001F910F91089520E077FF06C02DE228833A
:1013D00091958195910921E0803137E293070CF5D1
:1013E000883E33E09307FCF432E0843691052CF418
:1013F00031E08A3091050CF430E0230FFE01E20F5A
:10140000F11D11820AE010E0FE01E20FF11DB801AA
:101410000E942F20805D8083CB0121500097A1F78F
:10142000CCCF34E0EACF33E0E8CFCF93DF93BC01F9
:10143000EC0109900020E9F72197C81BD90BC031B6
:1014400008F586EC93E00E94902280E18C1BE5EB8E
:10145000F3E090E020E2AF01455B534048175907A5
:1014600014F42193F8CF8B549C4FFC01108265EB50
:1014700073E086EC93E00E947C2286EC93E0DF919F
:10148000CF91089541E150E086EC93E00E949722CD
:10149000F4CF0F931F93CF93DF93EC018B01FB01EC
:1014A00001900020E9F73197E61BF70BE03128F5B2
:1014B000E41718F54E1B413108F040E1E5EBF3E08D
:1014C00050E080E39F01255B33402417350714F477
:1014D0008193F8CF4B545C4FFA01108265EB73E0B7
:1014E000CE010E949022B801CE010E947C22CE0142
:1014F000DF91CF911F910F91089550E04F5F5F4FA3
:10150000B801CE010E949722F2CF4DE250E070E088
:1015100060E083E293E00C94B11FE0910301E1509D
:10152000E93008F076C1F0E0E856F54F0C946220FF
:10153000A10AB60AC90ADC0AEF0A350B090C6A0BC4
:10154000EF0B85E00E941F02892B09F462C170E055
:1015500060E082E10E94270468EE73E080E090E0A2
:101560000E94D70282E080930301089585E00E94E3
:101570001F02892B09F44DC160914A0481E00E9449
:10158000810468EE73E080E090E00E94D70283E07F
:10159000EACF85E00E941F02892B09F43AC16091CD
:1015A00048048FE20E94810468EE73E080E090E0DE
:1015B0000E94D70284E0D7CF85E00E941F02892BCA
:1015C00009F427C16091490480E30E94810468EE18
:1015D00073E080E090E00E94D70285E0C4CF85E010
:1015E0000E941F02892B09F414C160914804909154
:1015F0004704492F50E080914904282F30E0EFE95B
:10160000F2E081E0861730F47491270F311D8F5F6F
:101610003196F8CF633020F0937011F42F5F3F4F75
:101620006DE671E0469FC001479F900D569F900D5B
:10163000112405964D5F5F4F5695479556954795F2
:10164000840F951F820F931F67E070E00E941B209C
:1016500061E0680F81E30E94810468EE73E080E03E
:1016600090E00E94D70286E07ECF85E00E941F02B4
:10167000892B09F4CEC080914A04863019F08D7F01
:101680008830C9F48091470490E08053984F2091AE
:101690004203309143032817390779F480914804B5
:1016A000609149048E5C0E94810468EE73E080E0E2
:1016B00090E00E94D70288E056CF215031092817C8
:1016C0003907C9F7809148048C30A9F76091490423
:1016D00082E3E9CF85E00E941F02892B09F499C0BB
:1016E000209144033091450380914A0490E02817EB
:1016F000390721F42330310509F040C02091460319
:10170000309147038217930721F48330910509F044
:1017100041C02091480330914903A901445F5F4FC4
:101720008417950719F42330310571F520914A0388
:1017300030914B03A901445F5F4F8417950739F13E
:1017400060913A0370913B0382E10E9427048091EB
:101750003A0390913B03019690933B0380933A03A5
:1017600020913C0330913D032817390774F581E03F
:1017700090E090933B0380933A0327C060914C0321
:1017800082E00E94810423C060914E03F9CF233090
:101790003105B1F26091400384E00E9481048091A0
:1017A000400390914103019690934103809340033D
:1017B00020913E0330913F032817390734F481E02C
:1017C00090E090934103809340030E94850A68EE65
:1017D00073E080E090E00E94D70289E0C4CE85E00B
:1017E0000E941F02892BA9F081E0809303010E94CF
:1017F0009309109259020E940A036093F2027093B7
:10180000F3028093F4029093F50260E081E10C947E
:10181000480208950F931F93CF93DF93EC018881C3
:101820009981009759F02A813B812617370730F0BC
:1018300081E0DF91CF911F910F9108958B016F5F30
:101840007F4F0E94B621009759F0998388831B83AC
:101850000A832C813D81232B59F7FC011082E8CFAC
:1018600080E0E7CFCF93DF93EC01888199810097E7
:1018700011F00E942D21198218821D821C821B8268
:101880001A82DF91CF910895EF92FF920F931F93E9
:10189000CF93DF93EC01FB01E080F180E114F104D0
:1018A00011F10481158101151105A9F08C819D812B
:1018B000080F191FB801CE010E940A0C882399F065
:1018C000288139818C819D81B701820F931F0E94ED
:1018D00090221D830C83CE01DF91CF911F910F9138
:1018E000FF90EF900895CE010E94320CF4CFEF925A
:1018F000FF920F931F93CF93DF93EC017B0119822B
:1019000018821B821A821D821C82FB01019000201A
:10191000E9F731978F01061B170BB8010E940A0CDB
:10192000811109C0CE01DF91CF911F910F91FF90DE
:10193000EF900C94320C1D830C83B7018881998140
:10194000DF91CF911F910F91FF90EF900C94902217
:10195000FC0180819181009711F00C942D21089554
:1019600085ED8093BC0080918D0390918E03A091B2
:101970008F03B09190030796A11DB11D23E0B6958A
:10198000A795979587952A95D1F72091BC0024FDBE
:1019900003C010928B03089540918D0350918E03E4
:1019A00060918F0370919003452B462B472B69F371
:1019B0000097A105B10541F02AE22A95F1F700C090
:1019C0000197A109B109E1CF80918C030C948E0598
:1019D0006F927F928F929F92AF92BF92CF92DF923F
:1019E000EF92FF920F931F93CF93DF93CDB7DEB7A4
:1019F000E988FA88FE017496D12CC12C712CAB8831
:101A0000B12C80E1682E872D90E0CA14DB042CF500
:101A10002FE0271510F14F0122E0820E911C60810A
:101A20007181FB0101900020E9F731978F01061BBE
:101A3000170B9C01200F311D462D4719213131050F
:101A40000CF4402F50E08E0D9F1D0E949722700EC7
:101A50008FEFC81AD80AF401D6CF8E0D9F1DFC0156
:101A60001082C701DF91CF911F910F91FF90EF90EE
:101A7000DF90CF90BF90AF909F908F907F906F90AE
:101A800008958F929F92AF92BF92CF92DF92EF9282
:101A9000FF920F931F93CF93DF93CDB7DEB7659778
:101AA0000FB6F894DEBF0FBECDBF8250873108F06D
:101AB000D7C1E82FF0E0E15AF24F0C946220760D86
:101AC000760D760DE00DE00D300F400E6C0E8B0E96
:101AD000960EA30E300FBB0EE00E300FE90EF60E81
:101AE000FB0E090F0E0F130F280F2D0F1D8A1C8AD6
:101AF0008FE28C8B6091210370912203CE010196BD
:101B00000E94D0098E010F5E1F4F42E0BE016F5F41
:101B10007F4FC8010E94490A60911F037091200302
:101B2000CE0101960E94D0097E018EE0E80EF11CE4
:101B300042E0BE016F5F7F4FC7010E94490A60917A
:101B40001D0370911E03CE0101960E94D0096E0103
:101B500099E0C90ED11C44E0BE016F5F7F4FC60102
:101B60000E94490ADF92CF92CE0144969F938F93B1
:101B7000FF92EF929F938F931F930F9385E08F9324
:101B800084E593E09F938F930E94E80C0FB6F8943E
:101B9000DEBF0FBECDBF84E593E065960FB6F89427
:101BA000DEBF0FBECDBFDF91CF911F910F91FF9090
:101BB000EF90DF90CF90BF90AF909F908F9008955F
:101BC000A0915203B09153032CE330E00E946820AF
:101BD0000091500310915103012E000C220B330B86
:101BE000600F711F821F931F1A8A198A2AE3298B9B
:101BF0002CE330E040E050E00E9443204B017901AB
:101C00002D30310514F02C503109B901CE01019667
:101C10000E94D0098E01025F1F4F42E0BE016F5F3C
:101C20007F4FC8010E94490AB401CE0101960E946B
:101C3000D0096E0189E0C80ED11C42E0BE016F5F81
:101C40007F4FC6010E94490A9CE0E916F104ACF4FA
:101C500085E791E09F938F93DF92CF92CE014196DB
:101C60009F938F931F930F9384E08F9384E593E06A
:101C70009F938F930E94E80C89CF8EE691E0EACF84
:101C800060913203709133036D30710514F06C5024
:101C90007109CE0101960E94D0098E01075F1F4F86
:101CA00042E0BE016F5F7F4FC8010E94490A8091E8
:101CB0003203909133030C975CF582E791E09F9398
:101CC0008F931F930F9382E08F9384E593E09F930C
:101CD0008F930E94E80C5ACF6091340370913503C2
:101CE0006D30710514F06C507109CE0101960E949F
:101CF000D0098E01075F1F4F42E0BE016F5F7F4F2B
:101D0000C8010E94490A8091340390913503D3CFD2
:101D10008BE691E0D4CF60913C0370913D03CE01FE
:101D200001960E94D0092DE731E00AC06091360388
:101D300070913703CE0101960E94D00924E831E06A
:101D40003F932F9343C06091380370913903CE01C4
:101D500001960E94D0099F938F9381E08F9384E531
:101D600093E09F938F930E94E80C0F900F900F9039
:101D70000F900F9010CF0091040110910501B80150
:101D80000D30110514F06C507109CE0101960E94BE
:101D9000D0097E0199E0E90EF11C42E0BE016F5FBF
:101DA0007F4FC7010E94490A82E791E00C3011057C
:101DB00014F08BE691E09F938F93FF92EF9283CF85
:101DC0008DE891E09F938F9385E991E09F938F93A6
:101DD0007ACF60914403709145036330710509F037
:101DE00046C020EA31E089E791E0AACF609146033E
:101DF00070914703F2CF60914803709149036330BB
:101E0000710579F3CE0101960E94D0092EE631E0EA
:101E100097CF60914A0370914B03F1CF60913E03DD
:101E200070913F037CCF60914C0370914D03CE01C4
:101E300001960E94D0098E01075F1F4F43E0BE014B
:101E40006F5F7F4FC8010E94490A1F930F9385CF90
:101E500060914E0370914F03EACF109254039BCED2
:101E600063E371E084E593E00E94902294CECE017A
:101E700001960E94D00925E731E062CFAF92BF9270
:101E8000CF92DF92EF92FF920F931F93CF93DF9346
:101E9000CDB7DEB7A3970FB6F894DEBF0FBECDBFA8
:101EA000CE0109960E948A086C85662309F4D5C084
:101EB0006C3011F008F06C5070E0CE0101960E9479
:101EC000D0098E01085E1F4F42E0BE016F5F7F4F59
:101ED000C8010E94490ACE0109960E948A086D85B0
:101EE00070E0CE0101960E94D0097E018BE1E80EE0
:101EF000F11C42E0BE016F5F7F4FC7010E94490A9B
:101F0000CE0109960E948A086E8570E0CE01019686
:101F10000E94D0096E019EE1C90ED11C42E0BE01B3
:101F20006F5F7F4FC6010E94490A60E082E00E9415
:101F30006009CE0109960E948A088C858C3008F0D1
:101F40008EC085E791E09F938F93DF92CF928AE9CD
:101F500091E09F938F93FF92EF929F938F931F93A4
:101F60000F9386E0D82EDF9206EC13E01F930F93B9
:101F70000E94E80C0E94BE09CE0109960E948A08C0
:101F80006B8570E0CE0101960E94D0097E0181E24E
:101F9000E80EF11C42E0BE016F5F7F4FC7010E9457
:101FA000490ACE0109960E948A08698570E060534B
:101FB000784FCE0101960E94D0095E019FE0A90EE4
:101FC000B11C44E0BE016F5F7F4FC5010E94490A0A
:101FD000CE0109960E948A088A858150990BD89E65
:101FE000F001D99EF00D1124ED51FC4F60817181FB
:101FF0006E0184E1C80ED11CC6010E94902261E0EE
:1020000082E00E946009BF92AF928CE991E09F93B9
:102010008F93DF92CF929F938F93FF92EF9285E001
:102020008F931F930F930E94E80C0E94BE090FB676
:10203000F894DEBF0FBECDBFA3960FB6F894DEBFF7
:102040000FBECDBFDF91CF911F910F91FF90EF9009
:10205000DF90CF90BF90AF9008956CE02DCF8EE6CB
:1020600091E071CF1F93CF93DF93CDB7DEB7619728
:102070000FB6F894DEBF0FBECDBF60E080E00E94D7
:1020800060090E94A80190913104E0912E04F09122
:102090002F04882349F186E0989FE00DF11D11245B
:1020A000319665917491CE0101960E94651F0E9440
:1020B000150A8EE78093D50386EC93E00E94BE0953
:1020C00061E080E00E94600983E291E00E94150ACD
:1020D0000E94BE0961960FB6F894DEBF0FBECDBF59
:1020E000DF91CF911F91089586E0989FE00DF11D3B
:1020F0001124319665917491CE0101960E94651F5D
:102100000E94150A0E94BA01182F811102C08FE7A0
:10211000D1CF86EC93E00E94BE0961E080E00E948E
:1021200060098FE991E00E94BE09812F0E94410D54
:10213000CDCF4F925F926F927F928F929F92AF928C
:10214000BF92CF92DF92EF92FF920F931F93CF93A4
:10215000DF93CDB7DEB7E6970FB6F894DEBF0FBEBC
:10216000CDBF0E940A0300914502109146022091C2
:10217000470230914802601B710B820B930B643154
:1021800071058105910508F499C00E940A036093C6
:10219000450270934602809347029093480289E07B
:1021A0000E941F028C018AE00E941F027724739410
:1021B000892B31F081E0012B09F480E0782E7194B5
:1021C0008BE00E941F02892B11F432E0732E8CE009
:1021D0000E941F02892B11F423E0722E08E1E02EE9
:1021E00002E0F02E0CE212E080E4882E82E0982ECD
:1021F0009EE1A92E91E0B92E640166246394412CDE
:1022000041108CC0F5018081871188C0442443941B
:1022100055245394F60181916F018515A9F055203D
:1022200009F47EC0862D0E9472080E940A03F801FC
:102230006083718382839383F701608371838283D8
:102240009383F60131975082552061F10E940A0371
:10225000F8012081318142815381621B730B840B11
:10226000950B693B7B4081059105E0F00E940A03D4
:10227000F7012081318142815381621B730B840BF2
:10228000950B6B3F71058105910560F08C2D8819C8
:1022900080680E9472080E940A03F70160837183BC
:1022A000828393836394F4E0EF0EF11C0C5F1F4F65
:1022B0002FEFA21AB20A66E06612A2CF90916002D6
:1022C00019160CF445C01092580210E00E940A033F
:1022D000C090F202D090F302E090F402F090F50288
:1022E0006C197D098E099F096D3271408105910538
:1022F00020F01092530210925202E0915902E730FE
:1023000008F02EC1F0E0E957FE4E0C946220DC117B
:1023100016145A15ED13D018D8126613512C7ACF13
:102320000E940A03F8012081318142815381621B9E
:10233000730B840B950B693B7B408105910528F05D
:10234000862D806C0E9472087CCF862D8064FACF27
:1023500080914902E82FF0E0E65AFD4F108191503C
:10236000909360028F5F853020F58093490210932F
:102370005802112309F4AACF0E940A036093F202C3
:102380007093F3028093F4029093F5020E940A0383
:1023900060935402709355028093560290935702B3
:1023A00088E08093580460E08DE494E00E94EA079E
:1023B0008DCF10924902DBCF1138A9F48091F6023B
:1023C0008823B9F181E08093590283E00E943210A2
:1023D0000E940A0360935402709355028093560240
:1023E0009093570226C0113009F0D8C08091520254
:1023F0009091530201969093530280935202049756
:10240000C4F0CE0149960E948A088D8D8F3108F460
:10241000BEC0CE0143960E948A088E8990E0019644
:10242000909305018093040184E0809359020E94F7
:102430009309CE0143960E948A088F8981114DC06D
:10244000CE0101960E948A088E81811146C00E94A9
:102450000A03AB01BC0180914E0290914F02A09102
:102460005002B0915102885B9141AF4FBF4F84172A
:102470009507A607B70788F5CE0101960E948A083E
:1024800086E0FE013196A7E4B4E001900D928A95B2
:10249000E1F780914A0490E02091320330913303B8
:1024A00082179307D4F02091340330913503281715
:1024B00039079CF061E081E10E9448020E940A0312
:1024C00060934E0270934F0280935002909351029A
:1024D00083E0809359020E9493090E940A030091AD
:1024E0004A0210914B0220914C0230914D02601B28
:1024F000710B820B930B693E73408105910560F06F
:102500000E940A0360934A0270934B0280934C022C
:1025100090934D020E943E0F0E940A030091F20226
:102520001091F3022091F4023091F5026B017C01CD
:10253000C01AD10AE20AF30AA0913603B091370318
:1025400028EE33E00E9468206C157D058E059F05FE
:1025500038F41092580460E08DE494E00E94EA0799
:10256000E6960FB6F894DEBF0FBECDBFDF91CF91D8
:102570001F910F91FF90EF90DF90CF90BF90AF90A1
:102580009F908F907F906F905F904F900895CE01B5
:1025900001960E948A088C8190E042CF85E0123833
:1025A00021F0133809F045CF86E08093590210CF0F
:1025B0000E940A0300914A0210914B0220914C02A2
:1025C00030914D02601B710B820B930B6D32714089
:1025D0008105910598F080910201882309F450C08B
:1025E0000E943E0F109202010E940A0360934A0269
:1025F00070934B0280934C0290934D02809158024D
:10260000823009F049C0CE018B960E948A0808A941
:10261000CE0185960E948A08F9A4CE014F960E94A9
:102620008A081AA11F5FCE0149960E948A08EB8C86
:10263000CE0143960E948A08DC88CE0101960E9452
:102640008A08898189ABDAAAEBAA1CABFDAA0EAB7A
:10265000CE01C1960E94FD070E940A030091540218
:10266000109155022091560230915702601B710B58
:10267000820B930B613177428105910510F570CF84
:1026800060E082E00E9460098EE991E00E94BE094C
:1026900081E080930201A8CF833089F4CE018B962C
:1026A0000E948A0808A9CE0185960E948A08F9A48A
:1026B000CE014F960E948A081AA11150B4CF8130E2
:1026C00059F6109259020E9493094ACF0E940A03B8
:1026D00000914A0210914B0220914C0230914D0220
:1026E000601B710B820B930B6D327140810591055C
:1026F00098F080910201882309F451C00E943E0F96
:10270000109202010E940A0360934A0270934B02E6
:1027100080934C0290934D0280915802823009F0D0
:102720004AC0CE018B960E948A0808A9CE018596E0
:102730000E948A0819A51F5FCE014F960E948A0841
:10274000FAA0CE0149960E948A08EB8CCE014396EE
:102750000E948A08DC88CE0101960E948A0889813D
:1027600089ABDAAAEBAAFCAA1DAB0EABCE01C196CF
:102770000E94FD070E940A03009154021091550225
:102780002091560230915702601B710B820B930B04
:10279000613177428105910508F093CFE1CE60E089
:1027A00085E00E9460098EE991E00E94BE0981E007
:1027B00080930201A7CF833061F4CE018B960E94F3
:1027C0008A0808A9CE0185960E948A0819A5115089
:1027D000B3CF813009F475CFCDCF88E08093580412
:1027E00060E08DE494E00E94EA0761E080E00E94EE
:1027F000600981EA91E00E94BE090E940A03AB01D0
:10280000BC0180914E0290914F02A0915002B09174
:10281000510288579C4EAF4FBF4F481759076A0760
:102820007B0708F49DCE0E948D0A9ACE0E940A036F
:10283000C0905402D0905502E0905602F09057029A
:102840006C197D098E099F096131774281059105D7
:10285000A0F080912B0490912C0490932F048093EE
:102860002E0480912D048093300410923104109234
:102870004604109259020E9493090E94BA018130C5
:10288000A1F5CE0101960E948A088B8190E0909379
:10289000220380932103CE0101960E948A088A8137
:1028A00090E09093200380931F03CE0101960E9435
:1028B0008A08898190E08053984F90931E038093FB
:1028C0001D03CE0101960E948A088C8190E09093AE
:1028D000530380935203CE0101960E948A088D8192
:1028E00090E090935103809350031438A1F48091A9
:1028F0002B0490912C0490932F0480932E048091AC
:102900002D048093300410923104109246041092EA
:1029100059020E9493090E94A801812F8F7782306B
:1029200039F0833049F180E0113019F483E001C0BF
:1029300081E09DEF980F923008F09EC00E94BA018E
:102940008823E1F00E94A801811154C082E08093A5
:1029500059020E94BA01882309F402CE61E080E0A6
:102960000E9460098EE78093C6031092C70386EC2D
:1029700093E00E94BE09F4CD82E0DBCF8091460453
:10298000811113C080912B0490912C0490932F04FB
:1029900080932E0480912D04809330041092310492
:1029A0000E94930910925902DBCD81508093460416
:1029B00090E0DC01AA0FBB1FAA0FBB1FA55DBB4F98
:1029C00019962D913C911A9730932F0420932E0441
:1029D000880F991F880F991FFC01ED5CFB4F8081C8
:1029E0008093300417968C918093310482E00E948A
:1029F0003210B6CD0E94A801882309F43BC0509143
:102A0000310480912E0490912F044091460445306A
:102A1000E8F460913004242F30E0D901AA0FBB1FE5
:102A2000AA0FBB1FA55DBB4F17965C931797220F8C
:102A3000331F220F331FF901ED5CFB4F60831A96A1
:102A40009C938E9319974F5F40934604F6E05F9FE7
:102A5000800D911D1124FC013596E491E093300422
:102A6000FC0133968591949190932F0480932E04CA
:102A70001092310483E0BBCF813051F48091310456
:102A8000882309F46DCD81508093310480E0AFCF6D
:102A9000823009F065CD80913104209130042150BD
:102AA000330B821713060CF05BCD8F5F80933104DC
:102AB00081E09DCF0E94BA01F82E01E0113009F0AB
:102AC00000E0EEEFEF0DE73108F0EFC1F0E0E5597F
:102AD000FA4E0C9462208215AC15CD1504164116E1
:102AE000551775169A16B916D316F31655172117DA
:102AF000401755178817CA17A917EB170C1827186E
:102B000048186918812F8F778230C1F48091210392
:102B10009091220301968032910514F081E090E0BB
:102B2000909322038093210361E081E00E94600979
:102B30008F2D0E94410D0E94150A28C3833009F091
:102B40004DC0809121039091220301971816190618
:102B50003CF38FE190E0E4CF812F8F77823079F4DE
:102B600080911F039091200301968D30910514F000
:102B700081E090E09093200380931F03D5CF8330B2
:102B800009F061C080911F039091200301971816EE
:102B9000190684F38CE090E0EDCF812F8F7782309F
:102BA00081F480911D0390911E0301968330F8E01B
:102BB0009F0714F081E090E090931E0380931D0323
:102BC000B3CF833059F480911D0390911E03019778
:102BD000181619068CF384EE97E0EECF113009F049
:102BE000DDC2209150033091520340912103509156
:102BF0001F0380911D0390911E03803D67E096079F
:102C0000A8F1805D974032C0812F8F77823079F4B0
:102C1000809152039091530301968831910514F0ED
:102C200090E080E090935303809352037DCF8330F4
:102C300051F48091520390915303019797FFF2CF83
:102C400087E190E0EFCF113009F0A8C22091500346
:102C5000309152034091210350911F0380911D0335
:102C600090911E03803DE7E09E0758F689835A83C2
:102C70004B833C832D831E82CE0101960E94FD076B
:102C800053CF812F8F77823079F4809150039091C8
:102C9000510301968C33910514F090E080E09093FD
:102CA00051038093500340CF833051F480915003FF
:102CB00090915103019797FFF2CF8BE390E0EFCF14
:102CC000113009F06BC220915003309152034091B2
:102CD000210350911F0380911D0390911E03803D9D
:102CE000F7E09F0708F08DCFC1CF812F8F7782301B
:102CF00079F48091320390913303019688319105E4
:102D000014F090E080E090933303809332030CCF73
:102D1000833051F48091320390913303019797FFF0
:102D2000F2CF87E190E0EFCF113009F037C20E9477
:102D3000850AFACE812F8F77823079F4809134031F
:102D40009091350301968831910514F090E080E070
:102D50009093350380933403E7CE833029F7809135
:102D6000340390913503019797FFF2CF87E190E00C
:102D7000EFCF812F8F77823051F480913C03909177
:102D80003D03019690933D0380933C03CDCE833069
:102D900059F680913C0390913D03019797FFF2CF44
:102DA00084E690E0EFCF812F8F77823079F48091A5
:102DB00036039091370301968D33910514F090E01E
:102DC00080E09093370380933603AECE833009F0D2
:102DD000ABCF8091360390913703019797FFF1CFE6
:102DE0008CE390E0EECF812F8F77823079F4809161
:102DF00038039091390301968F31910514F081E0E9
:102E000090E090933903809338038ECE833059F449
:102E100080913803909139030197181619068CF3A5
:102E20008EE190E0EECF113009F0B8C10E94850A22
:102E30006091380370913903772786E00E94270458
:102E400073CE1F77123079F48091040190910501BF
:102E500001968831910514F084E090E0909305018B
:102E60008093040161CE133001F5809104019091AB
:102E700005010197843091058CF787E190E0EECF52
:102E800080912B0490912C0490932F0480932E0416
:102E900080912D04809330041092310410924604E6
:102EA00084E0809359020E9493090E940A03C09013
:102EB0005402D0905502E0905602F09057026C19DF
:102EC0007D098E099F096133754781059105A0F041
:102ED00080912B0490912C0490932F0480932E04C6
:102EE00080912D0480933004109231041092460496
:102EF000109259020E949309002309F431CB81E01A
:102F00008093590261E080E00E94600980E22BCD4D
:102F1000812F8F77823079F480914403909145031B
:102F200001968930910514F083E090E09093450379
:102F300080934403F9CD833009F0F6CE80914403A9
:102F40009091450301978330910584F788E090E0E4
:102F5000EDCF812F8F77823079F480914803909163
:102F6000490301968930910514F083E090E0909335
:102F7000490380934803D8CD833009F0D5CE8091A2
:102F800048039091490301978330910584F788E0C5
:102F900090E0EDCF812F8F77823079F480914603D6
:102FA0009091470301968930910514F083E090E0F9
:102FB0009093470380934603B7CD833009F0B4CE96
:102FC000809146039091470301978330910584F7E0
:102FD00088E090E0EDCF812F8F77823079F4809177
:102FE0004A0390914B0301968930910514F083E0D8
:102FF00090E090934B0380934A0396CD833009F081
:1030000093CE80914A0390914B03019783309105B1
:1030100084F788E090E0EDCF812F8F77823051F4F4
:1030200080913E0390913F03019690933F038093DC
:103030003E037ACD833009F077CE80913E039091A4
:103040003F03019797FFF1CF84E690E0EECF812F09
:103050008F77823079F480914C0390914D030196E3
:103060008531910514F081E090E090934D038093B9
:103070004C035ACD833009F057CE80914C03909188
:103080004D0301971816190684F384E190E0EDCF03
:10309000812F8F77823079F480914E0390914F0386
:1030A00001968531910514F081E090E090934F03F3
:1030B00080934E0339CD833009F036CE80914E0394
:1030C00090914F0301971816190684F384E190E05C
:1030D000EDCF113809F05DC064E271E083E293E066
:1030E0000E94902284E690E090933D0380933C03FD
:1030F00085E090E0909333038093320386E190E083
:10310000909335038093340384E190E090933703E8
:1031100080933603909339038093380321E030E0A5
:1031200030933B0320933A038AE090E090933F036F
:1031300080933E03309341032093400383E090E06B
:1031400090934503809344039093470380934603F1
:1031500090934B0380934A039093490380934803D1
:1031600030934D0320934C0382E090E090934F0303
:1031700080934E0386EE97E090934303809342033F
:1031800061E081E00E94600982EB91E00E94BE094B
:103190008CCE113C09F089CE01E087CE00E085CECF
:1031A00060E080E00E9460098DE492E00E94A40942
:1031B00061E080E00E946009E0900401F090050168
:1031C0006CE0E616F1040CF488C06FE671E0CE0105
:1031D00049960E94770C8DE0E816F1041CF0ECE0B3
:1031E000EE1AF1081C8A1B8A1E8A1D8A188E1F8AF5
:1031F0004AE08E010F5F1F4FB801C7010E946C1F8C
:10320000F80101900020E9F731977F01E01AF10AF7
:10321000B701CE0143960E940A0C811161C0CE0114
:1032200043960E94320C62EC71E0C8010E94770C58
:10323000BE016D5E7F4FC8010E94440CBE01675EF7
:103240007F4F0E94440CFC01448155816081718153
:103250008DE494E00E94C901C8010E94A80CCE012F
:1032600043960E94A80CCE0149960E94A80C61E0EA
:1032700081E10E94480268EE73E080E090E00E94E5
:10328000D702F0900401CE0149960E948A08EB8C87
:10329000CE0143960E948A08DC88C8010E948A08F1
:1032A000898180934704D0924804E0924904F092C7
:1032B0004A0410924B0410924C040E948D0A809193
:1032C0005802833009F04CC989E08093030170E013
:1032D00060E086E10E94270443C966E771E077CF8A
:1032E000F88EEF8AB8018B899C890E9490229BCF2F
:1032F0001F920F920FB60F9211242F933F938F932B
:103300009F93AF93BF938091E6029091E702A091C3
:10331000E802B091E9023091E50223E0230F2D3756
:1033200058F50196A11DB11D2093E5028093E60298
:103330009093E702A093E802B093E9028091EA0239
:103340009091EB02A091EC02B091ED020196A11DCB
:10335000B11D8093EA029093EB02A093EC02B0932C
:10336000ED02BF91AF919F918F913F912F910F905F
:103370000FBE0F901F90189526E8230F0296A11DEF
:10338000B11DD2CF1F920F920FB60F9211242F931F
:103390003F934F935F936F937F938F939F93AF93DD
:1033A000BF93EF93FF93E091F002F091F102309719
:1033B00049F0A685B7858585968D91FF14C09C91AF
:1033C0008923A1F4FF91EF91BF91AF919F918F91CC
:1033D0007F916F915F914F913F912F910F900FBE11
:1033E0000F901F9018959C91892361F7A389B48948
:1033F0009C918589809589238C93868997890197EB
:10340000F1F7608D718DA685B785558538E020E090
:10341000CB010197F1F7822F90E095958795282FA2
:103420004C91452309F02068315091F7868D81FD3C
:1034300020958091EF0290E001968F73992730914B
:10344000EE02381799F0A091EF02B0E0AB55BD4FF6
:103450002C938093EF02828D938D0197F1F7A389CE
:10346000B4898C919589892B8C93ACCF868D8160A2
:10347000868FF1CF1F920F920FB60F9211242F93C8
:103480003F934F935F936F937F938F939F93AF93EC
:10349000BF93EF93FF938091B900887F803609F442
:1034A0004AC0F0F5883209F4A7C018F5803109F454
:1034B0009BC0B8F4882309F4F9C0883009F494C09B
:1034C000FF91EF91BF91AF919F918F917F916F91FC
:1034D0005F914F913F912F910F900FBE0F901F90D2
:1034E0001895883109F488C0803251F78093890398
:1034F00014C0803409F49DC040F48033B9F388339C
:10350000F9F68093890385ECB0C0803509F485C055
:10351000883509F496C0883499F60E94B00CD0CF53
:10352000883909F48CC038F5883729F050F488368A
:1035300011F0803729F683E080938B031092A40268
:1035400057C0883809F47BC0803919F0803809F0F9
:10355000B7CF8091A402803208F071C0E091A4023C
:1035600081E08E0F8093A4028091BB00F0E0EC57C5
:10357000FD4F80833DC0803B39F0E0F4803A09F490
:1035800079C0883A09F09CCF84E080938B03109235
:10359000830210928202E091F902F091FA020995F9
:1035A0008091820281110FC081E08093820210928B
:1035B000620209C0803C09F4A6CF883C09F4A3CF7D
:1035C000883B09F07DCFE091830281E08E0F8093EC
:1035D0008302F0E0EE59FD4F80818093BB00909113
:1035E00083028091820229C0809166038093BB0090
:1035F00085EC8093BC0064CF909188038091870311
:10360000981758F5E091880381E08E0F8093880326
:10361000F0E0E959FC4F8081E9CFE091880381E037
:103620008E0F809388038091BB00F0E0E959FC4F36
:10363000808390918803809187039817C8F285E86A
:10364000D8CFE091880381E08E0F8093880380912A
:10365000BB00F0E0E959FC4F808380918A0381111F
:103660005CCF81E08093650384EA8093BC00109274
:103670008B0326CF85EC8093BC0010928B03809146
:10368000A402803230F4E091A402F0E0EC57FD4F48
:1036900010826091A40270E0E091F702F091F802CC
:1036A00084E892E009951092A4020ACF109289034F
:1036B00034CF1092DA031092D90388EE93E0A0E0A1
:1036C000B0E08093DB039093DC03A093DD03B09321
:1036D000DE032DE331E03093D8032093D70310921B
:1036E0008204109281048093830490938404A093B5
:1036F0008504B09386048BE591E0909380048093D9
:103700007F041092960410929504109298041092DF
:10371000970410929A041092990410929C041092AB
:103720009B0460919D046E7F6D7F60939D04669500
:10373000617081E0682783E00E94480261E083E0D5
:103740000E947602E5EDF2E0E491E0938F04E1EC73
:10375000F2E0E491F0E0EE0FFF1FEC54FD4F859195
:103760009491909391048093900460E082E00E9491
:10377000760280919D0481FD04C061E082E00E9498
:10378000480282E080938B04E4EDF2E0E491E09360
:103790008C04E0ECF2E0E491F0E0EE0FFF1FE65560
:1037A000FD4F2591349130938E0420938D0444EF86
:1037B00051E060E070E040935F04509360046093D8
:1037C0006104709362049AE0E4E1F1E0ADE6B4E0F4
:1037D00001900D929A95E1F7109277048093780406
:1037E00010927D0410927E041092500410924F04A7
:1037F0002FE431E030934E0420934D0497E29093F0
:10380000510490E190935604809357041092580409
:1038100010924C0410924B0410924A0410924704E8
:10382000EFE9F2E081E08C3051F09491823009F4BC
:103830009F5F21E0280F3196992309F460C080939F
:10384000480481E08093490426EE32E030932C0452
:1038500020932B0483E080932D0430932F04209336
:103860002E048093300410923104109246046FECC1
:1038700071E083EE93E00E94770C63ED71E089EED6
:1038800093E00E94770C67ED71E08FEE93E00E9469
:10389000770C6BED71E085EF93E00E94770C6FED94
:1038A00071E08BEF93E00E94770C63EE71E081E0B2
:1038B00094E00E94770C67EE71E087E094E00E944C
:1038C000770C6BEE71E08DE094E00E94770C6FEE68
:1038D00071E083E194E00E94770C63EF71E089E18D
:1038E00094E00E94770C67EF71E08FE194E00E9412
:1038F000770C6BEF71E085E294E00C94770C822FEB
:1039000092CF789484B5826084BD84B5816084BD93
:1039100085B5826085BD85B5816085BD80916E006D
:10392000816080936E00109281008091810082609E
:1039300080938100809181008160809381008091DB
:1039400080008160809380008091B10084608093CA
:10395000B1008091B00081608093B00080917A00C6
:10396000846080937A0080917A00826080937A00EC
:1039700080917A00816080937A0080917A008068DB
:1039800080937A001092C10061E081E10E9476028A
:1039900062E085E00E94760262E089E00E947602A1
:1039A00062E08AE00E94760262E08BE00E9476028A
:1039B00062E08CE00E9476020E9477050E94770503
:1039C0001092520480915704823018F098E090933E
:1039D00052048093550462E370E080E090E00E941E
:1039E000D702609158048DE494E00E94EA0768EEE3
:1039F00073E080E090E00E94D70260E38DE494E001
:103A00000E943009CBE4D6E4CE010197F1F760E3E0
:103A10008DE494E00E9430092197F1F760E38DE492
:103A200094E00E94300983E592E00197F1F760E2AB
:103A30008DE494E00E94300960915204606240E09D
:103A40008DE494E00E94490984E08093530440E0AF
:103A50006CE08DE494E00E9449090E94930982E0A1
:103A60008093540440E066E08DE494E00E944909AC
:103A700040E062E08DE494E00E9449098BE39FE11D
:103A80000197F1F788E08093580460E08DE494E0BA
:103A90000E94EA0760E085E00E94600987E992E001
:103AA0000E94A40961E086E00E94600981E992E039
:103AB0000E94A40960ED77E080E090E00E94D702C8
:103AC0000E94930960E083E00E9460098FEF91E01B
:103AD0000E94BE094DE250E070E060E083E293E0B6
:103AE0000E94A11F64E271E083E293E00E948722BA
:103AF000892B09F454C064E271E083E293E00E94F0
:103B0000902284E690E090933D0380933C0385E00F
:103B100090E0909333038093320386E190E090939A
:103B200035038093340384E190E0909337038093CE
:103B30003603909339038093380321E030E03093CB
:103B40003B0320933A038AE090E090933F038093F5
:103B50003E03309341032093400383E090E0909331
:103B600045038093440390934703809346039093C7
:103B70004B0380934A039093490380934803309307
:103B80004D0320934C0382E090E090934F03809389
:103B90004E0386EE97E0909343038093420389E0BF
:103BA0000E941F02892B09F004C161E080E00E949D
:103BB00060098AE092E00E94BE0981E08093F602EB
:103BC000C1E0D8E60E947705C0939103D093B30378
:103BD000109292031092B4030E94AF058111ECC0C1
:103BE000C0939103109292031092B40360E087EDAA
:103BF00093E00E94BB070E94AF0561E088E60E9447
:103C000096061092FC028093FB0287ED93E00E94DF
:103C1000740787FF0EC00E94930983E892E00E9418
:103C2000A40960ED77E080E090E00E94D702C093A5
:103C3000F6028CE00E941F02892B09F407C1109242
:103C40009A0410929904109298041092970410927A
:103C50009604109295048DE991E090939C048093D2
:103C60009B0490918B04963108F047C02DEB30E017
:103C700030939604209395042BE931E03093980417
:103C8000209397042CE231E030939A042093990416
:103C90002091680084E0983048F031E09E3008F4CC
:103CA00030E081E001C0880F3A95EAF7822B8093DB
:103CB00068002DE630E0983050F02BE630E09E3082
:103CC00030F02CE630E0963110F030E020E0309318
:103CD000930420939204292F30E0983008F073C0A9
:103CE00081E001C0880F9A95EAF78093940480914F
:103CF0009B0490919C040197F1F780919904909115
:103D00009A04892B49F1E091F002F091F10224E04C
:103D1000EF37F20709F1309739F0A389B4899C9104
:103D20008589809589238C9380919D048E7F8093D3
:103D30009D041092EF021092EE028FE794E09093B0
:103D4000F1028093F002E0919204F091930480815B
:103D500090919404892B808364EF71E080E090E07F
:103D60000E94D702CFE7D4E011E0D0935A04C09369
:103D700059041093710470E060E08CE00E94270405
:103D80000E940A036B017C010E941603811128C066
:103D90000E940A036C197D098E099F09613D7740D5
:103DA00081059105E8F460E070E0CB010E94D70244
:103DB000EBCF1092F60204CF0E9493098AE892E0BA
:103DC0000E94A409FFCE9E3040F42850310981E0C2
:103DD00001C0880F2A95EAF788CF2E503109F7CF16
:103DE00068EC70E080E090E00E94D70210927D04C1
:103DF00080917904843059F0893049F060E080E0A6
:103E00000E9460098CE792E00E94A409AECF84EF83
:103E100091E0A0E0B0E080935F0490936004A093F1
:103E20006104B0936204609138037091390377277D
:103E300086E00E94270462E070E089E00E94270487
:103E400068EC70E080E090E00E94D7020E94930945
:103E50000E940A036093F2027093F3028093F402CB
:103E60009093F502C0E0D0E00E9499102097E1F312
:103E70000E940000F9CFCF93DF93CBE2D4E02697E6
:103E8000CE010E94A80C23E0C33ED207C1F78BE508
:103E900091E09093800480937F048091F002909150
:103EA000F1028F57944071F4E0919204F0919304E1
:103EB0009081809194048095892380831092F102EF
:103EC0001092F002DF91CF910895FB01DC01059083
:103ED0000D920020E1F70895BB274A3031F4992371
:103EE00022F4BDE2909581959F4F0C94781FBB27DB
:103EF000FB015527AA27880F991FAA1FA41710F0A6
:103F0000A41B83955051B9F7A05DAA3308F0A95DB1
:103F1000A193009779F7B111B1931192CB010C9451
:103F2000911FDC01FC01672F71917723E1F7329734
:103F300004C07C916D9370836291AE17BF07C8F384
:103F40000895DC01CB01FC01F999FECF06C0F2BD5A
:103F5000E1BDF89A319600B40D9241505040B8F747
:103F60000895DC01CB0103C02D910E94BC1F41507C
:103F70005040D0F70895262FF999FECF1FBA92BD71
:103F800081BD20BD0FB6F894FA9AF99A0FBE01963A
:103F900008952F923F924F925F926F927F928F92ED
:103FA0009F92AF92BF92CF92DF92EF92FF920F93C8
:103FB0001F93CF93DF93CDB7DEB7CA1BDB0B0FB6D2
:103FC000F894DEBF0FBECDBF09942A88398848888F
:103FD0005F846E847D848C849B84AA84B984C88425
:103FE000DF80EE80FD800C811B81AA81B981CE0F1C
:103FF000D11D0FB6F894DEBF0FBECDBFED01089501
:10400000A29FB001B39FC001A39F700D811D112419
:10401000911DB29F700D811D1124911D0895991B52
:1040200079E004C0991F961708F0961B881F7A95AF
:10403000C9F780950895AA1BBB1B51E107C0AA1FB1
:10404000BB1FA617B70710F0A61BB70B881F991F39
:104050005A95A9F780959095BC01CD01089597FBDD
:10406000072E16F4009407D077FD09D00E941B207C
:1040700007FC05D03EF4909581959F4F089570956B
:1040800061957F4F0895052E97FB1EF400940E94C2
:104090005A2057FD07D00E946F2007FC03D04EF432
:1040A0000C945A2050954095309521953F4F4F4F95
:1040B0005F4F089590958095709561957F4F8F4FD4
:1040C0009F4F0895EE0FFF1F0590F491E02D099486
:1040D0000E940020B7FF0895821B930B0895A1E270
:1040E0001A2EAA1BBB1BFD010DC0AA1FBB1FEE1F72
:1040F000FF1FA217B307E407F50720F0A21BB30BBD
:10410000E40BF50B661F771F881F991F1A9469F738
:1041100060957095809590959B01AC01BD01CF0194
:1041200008950F931F93CF93DF938230910510F47E
:1041300082E090E0E091A004F091A10430E020E062
:10414000B0E0A0E0309799F42115310509F44AC098
:10415000281B390B24303105D8F58A819B816115E4
:10416000710589F1FB0193838283FE0111C04081B7
:1041700051810281138148175907E0F04817590708
:1041800099F4109761F012960C93129713961C9362
:104190003296CF01DF91CF911F910F910895009337
:1041A000A0041093A104F4CF2115310551F042175A
:1041B000530738F0A901DB019A01BD01DF01F801C5
:1041C000C1CFEF01F9CF9093A1048093A004CDCF8C
:1041D000FE01E20FF31F819391932250310939833D
:1041E0002883D7CF20919E0430919F04232B41F444
:1041F000209108013091090130939F0420939E047F
:1042000020910601309107012115310541F42DB7A8
:104210003EB740910A0150910B01241B350BE091F0
:104220009E04F0919F04E217F307A0F42E1B3F0BAE
:104230002817390778F0AC014E5F5F4F2417350718
:1042400048F04E0F5F1F50939F0440939E0481934C
:1042500091939FCFF0E0E0E09CCFCF93DF93009766
:10426000E9F0FC01329713821282A091A004B09170
:10427000A104ED0130E020E01097A1F4208131810C
:10428000820F931F20919E0430919F0428173907B5
:1042900009F061C0F0939F04E0939E04DF91CF91F9
:1042A0000895EA01CE17DF07E8F54A815B819E0198
:1042B00041155105B1F7E901FB83EA834991599111
:1042C000C40FD51FEC17FD0761F480819181029620
:1042D000840F951FE90199838883828193819B8351
:1042E0008A83F0E0E0E012968D919C9113970097FD
:1042F000B9F52D913C911197CD010296820F931F34
:1043000020919E0430919F042817390739F6309781
:1043100051F51092A1041092A004B0939F04A093B1
:104320009E04BCCFD383C28340815181840F951FEB
:10433000C817D90761F44E5F5F4F88819981480F94
:10434000591F518340838A819B81938382832115E6
:10435000310509F0B0CFF093A104E093A0049ECF03
:10436000FD01DC01C0CF13821282D7CFB0E0A0E004
:10437000ECEBF1E20C94CB1F8C01009751F4CB01D4
:104380000E9491208C01C801CDB7DEB7E0E10C940A
:10439000E71FFC01E60FF71F9C0122503109E217CD
:1043A000F30708F49DC0D901CD91DC911197C61790
:1043B000D70798F0C530D10530F3CE0104978617A2
:1043C000970708F3C61BD70B2297C193D1936D9320
:1043D0007C93CF010E942D21D6CF5B01AC1ABD0A80
:1043E0004C018C0E9D1EA091A004B091A104512CF3
:1043F000412CF12CE12C109731F580919E04909185
:104400009F048815990509F05CC04616570608F008
:1044100058C08091060190910701009741F48DB733
:104420009EB740910A0150910B01841B950BE81730
:10443000F90708F055C0F0939F04E0939E04F9013A
:1044400071836083A0CF8D919C91119712966C908F
:10445000129713967C901397A815B90559F56C011E
:1044600042E0C40ED11CCA14DB0420F1AC014A198D
:104470005B09DA011296159780F06282738251838C
:104480004083D9016D937C93E114F10471F0D7015D
:104490001396FC93EE93129776CF22968C0F9D1F66
:1044A000F90191838083F301EFCFF093A104E093AE
:1044B000A00469CF4816590608F42C017D01D301E8
:1044C0009ACFCB010E9491207C01009749F0AE0168
:1044D000B8010E947322C8010E942D21870153CF89
:1044E00010E000E050CFFB01DC0102C001900D9212
:1044F00041505040D8F70895FB01DC010D90002099
:10450000E9F7119701900D920020E1F70895FB0162
:10451000DC018D91019080190110D9F3990B089558
:10452000FB01DC0101900D920020E1F70895FB01F1
:10453000DC014150504048F001900D920020C9F735
:1045400001C01D9241505040E0F7089511E0CDE7C1
:10455000D1E004C0FE010E9462202196CE37D1072F
:10456000C9F7F894FFCF0301010105000000A20480
:10457000800000004000140054007EFF060001008F
:10458000000000EF0001020304004368616E744202
:10459000656C6C2056322E31002D2D2D2D2D0000F6
:1045A000000000BB078E076F089E0487077407652D
:1045B00007000000009E09C9016F08850400000083
:1045C000009F04C9016F089E04FB04110586043096
:1045D000003A303020504D003A303020414D004FED
:1045E00046460020536F6E677300205365636F6EFD
:1045F0006473002044656D6F203E00506C6179004B
:104600003A002D002020004348414E5420504C4198
:1046100059494E472E2E2E0044656661756C7473A1
:10462000206C6F616465640044454D4F2054494DD2
:1046300045203A20004A616E00466562004D617275
:1046400000417072004D6179004A756E004A756CC8
:104650000041756700536570004F6374004E6F76BC
:1046600000446563004C6F6164696E672E2E2E00F6
:0E46700053657276696365204D6F64650000C6
:107E0000112484B714BE81FFF0D085E080938100F7
:107E100082E08093C00088E18093C10086E0809377
:107E2000C20080E18093C4008EE0C9D0259A86E02C
:107E300020E33CEF91E0309385002093840096BBD3
:107E4000B09BFECF1D9AA8958150A9F7CC24DD24C4
:107E500088248394B5E0AB2EA1E19A2EF3E0BF2EE7
:107E6000A2D0813461F49FD0082FAFD0023811F036
:107E7000013811F484E001C083E08DD089C08234E0
:107E800011F484E103C0853419F485E0A6D080C0E4
:107E9000853579F488D0E82EFF2485D0082F10E0AE
:107EA000102F00270E291F29000F111F8ED06801E7
:107EB0006FC0863521F484E090D080E0DECF843638
:107EC00009F040C070D06FD0082F6DD080E0C81688
:107ED00080E7D80618F4F601B7BEE895C0E0D1E017
:107EE00062D089930C17E1F7F0E0CF16F0E7DF06D8
:107EF00018F0F601B7BEE89568D007B600FCFDCFD4
:107F0000A601A0E0B1E02C9130E011968C91119780
:107F100090E0982F8827822B932B1296FA010C0160
:107F200087BEE89511244E5F5F4FF1E0A038BF0790
:107F300051F7F601A7BEE89507B600FCFDCF97BE46
:107F4000E89526C08437B1F42ED02DD0F82E2BD052
:107F50003CD0F601EF2C8F010F5F1F4F84911BD097
:107F6000EA94F801C1F70894C11CD11CFA94CF0C13
:107F7000D11C0EC0853739F428D08EE10CD085E9AC
:107F80000AD08FE07ACF813511F488E018D01DD067
:107F900080E101D065CF982F8091C00085FFFCCF94
:107FA0009093C60008958091C00087FFFCCF809118
:107FB000C00084FD01C0A8958091C6000895E0E648
:107FC000F0E098E1908380830895EDDF803219F02E
:107FD00088E0F5DFFFCF84E1DECF1F93182FE3DFCA
:107FE0001150E9F7F2DF1F91089580E0E8DFEE27F6
:047FF000FF270994CA
:027FFE00040479
:00000001FF
