:020000040000FA
:100000000C9479000C94A1000C94A1000C94EB09C1
:100010000C94EB090C94EB090C94A1000C94A10036
:100020000C94A1000C94A1000C94A1000C94A100CC
:100030000C94A1000C94A1000C94A1000C94A100BC
:100040000C9482080C94A1000C9450080C942A087B
:100050000C94A1000C94A1000C94A1000C94A1009C
:100060000C94CC080C94A100000000002400270090
:100070002A0000000008000201000003040700003D
:10008000000000000000204155544F204D4F4445D2
:10009000204F464600204155544F204D4F444520A7
:1000A0004F4E0054414E4B20554E4954204552521C
:1000B00000000000002300260029000000000025A9
:1000C0000028002B000404040404040404020202B7
:1000D0000202020303030303030102040810204089
:1000E0008001020408102001020408102000630AA5
:1000F0003B1111241FBECFEFD8E0DEBFCDBF24E0FF
:10010000A6E2B2E001C01D92AA34B207E1F712E004
:10011000A0E0B1E0ECE0F8E202C005900D92A6325A
:10012000B107D9F710E0C8E7D0E004C02197FE017D
:100130000E94ED11C737D107C9F70E94860B0C94B6
:10014000F9130C94000008950895DB0114964D9165
:100150005C9115976D917C91DC01ED91FC91028091
:10016000F381E02D0994AF92BF92CF92DF92EF928C
:10017000FF920F931F93CF93DF936C017B018B0151
:10018000040F151FEB015E01AE18BF08C017D107A1
:1001900059F06991D601ED91FC910190F081E02D2B
:1001A000C6010995892B79F7C501DF91CF911F9180
:1001B0000F91FF90EF90DF90CF90BF90AF90089598
:1001C000FC01538D448D252F30E0842F90E0821B5D
:1001D000930B541710F0CF96089501970895FC01E2
:1001E000918D828D981761F0A28DAE0FBF2FB11D3A
:1001F0005D968C91928D9F5F9F73928F90E0089592
:100200008FEF9FEF0895FC01918D828D981731F04B
:10021000828DE80FF11D858D90E008958FEF9FEF9F
:100220000895FC01918D228D892F90E0805C9F4F75
:10023000821B91098F739927089588E593E00E94A6
:10024000110121E0892B09F420E0822F089580E03C
:1002500090E0892B29F00E941D0181110C9400006F
:100260000895FC01A48DA80FB92FB11DA35ABF4F4B
:100270002C91848D90E001968F739927848FA689A5
:10028000B7892C93A089B1898C91837080648C93F9
:10029000938D848D981306C00288F389E02D8081A8
:1002A0008F7D80830895EF92FF920F931F93CF93DA
:1002B000DF93EC0181E0888F9B8D8C8D98131AC0A1
:1002C000E889F989808185FF15C09FB7F894EE8988
:1002D000FF896083E889F9898081837080648083E5
:1002E0009FBF81E090E0DF91CF911F910F91FF9030
:1002F000EF900895F62E0B8D10E00F5F1F4F0F73D8
:100300001127E02E8C8D8E110CC00FB607FCFACF92
:10031000E889F989808185FFF5CFCE010E943101FE
:10032000F1CFEB8DEC0FFD2FF11DE35AFF4FF08263
:100330009FB7F8940B8FEA89FB8980818062CFCFC9
:10034000CF93DF93EC01888D8823B9F0AA89BB890C
:10035000E889F9898C9185FD03C0808186FD0DC0F7
:100360000FB607FCF7CF8C9185FFF2CF808185FF18
:10037000EDCFCE010E943101E9CFDF91CF910895F9
:10038000833081F028F4813099F08230A9F008950B
:100390008730A9F08830C9F08430B1F480918000B2
:1003A0008F7D03C0809180008F77809380000895B7
:1003B00084B58F7784BD089584B58F7DFBCF809100
:1003C000B0008F778093B00008958091B0008F7D4A
:1003D000F9CFCF93DF93282F30E0F901EE58FF4F8C
:1003E0008491F901E752FF4FD491F901EB53FF4F8C
:1003F000C491CC23A1F081110E94C001EC2FF0E048
:10040000EE0FFF1FEF54FF4FA591B491EC91ED2338
:1004100081E090E009F480E0DF91CF91089580E0E1
:1004200090E0FACF1F93CF93DF93282F30E0F901AC
:10043000EE58FF4F8491F901E752FF4FD491F90133
:10044000EB53FF4FC491CC23A9F0162F81110E94CA
:10045000C001EC2FF0E0EE0FFF1FE554FF4FA59118
:10046000B4918FB7F894EC91111108C0D095DE23A8
:10047000DC938FBFDF91CF911F910895DE2BF8CFD2
:10048000CF93DF9390E0FC01E752FF4F24918B5311
:100490009F4FFC0184918823C9F090E0880F991F39
:1004A000FC01E859FF4FA591B491FC01E554FF4FC1
:1004B000C591D49161110DC09FB7F8948C9120958E
:1004C00082238C938881282328839FBFDF91CF913B
:1004D0000895623051F49FB7F8943C91822F809533
:1004E00083238C93E8812E2BEFCF8FB7F894EC9178
:1004F0002E2B2C938FBFEACF3FB7F89480911D032A
:1005000090911E03A0911F03B091200326B5A89BD4
:1005100005C02F3F19F00196A11DB11D3FBFBA2F95
:10052000A92F982F8827BC01CD01620F711D811D55
:10053000911D42E0660F771F881F991F4A95D1F7DA
:1005400008958F929F92AF92BF92CF92DF92EF92D7
:10055000FF924B015C010E947C026B017C010E94B6
:100560007C026C197D098E099F09683E73408105E4
:100570009105A8F321E0821A9108A108B10888EE3C
:10058000C80E83E0D81EE11CF11C81149104A10463
:10059000B10429F7FF90EF90DF90CF90BF90AF901C
:1005A0009F908F9008952FB7F894609119037091E0
:1005B0001A0380911B0390911C032FBF0895089587
:1005C0002091A702260F3327331F21323105ECF487
:1005D0002091F002FC0190E080E0243069F082E09C
:1005E0000895A091A7022191AC0149575D4FA40F36
:1005F000B52FB11D2C930196861798F38091A70211
:10060000680F6093A70280E0089581E0089510923A
:10061000F00281E08093EF021092CA0261E082E171
:100620000E94120261E083E10E941202E9EBF0E015
:1006300080818E7F808380818D7F808388E480931A
:10064000B80085E48093BC000895CF93DF9391E0D8
:10065000909386028823B9F0C091B800D091BA0077
:100660008091BC008A7B8093BC0060E082E10E94A4
:10067000120260E083E10E9412020E940703D093FD
:10068000BA00C093B800DF91CF9108950895E0912A
:100690002C0380912B03E81730F4F0E0EA59FD4F6A
:1006A000808190E008958FEF9FEF089590912C0343
:1006B00080912B032FEF3FEF981748F4E92FF0E0DC
:1006C000EA59FD4F208130E09F5F90932C03C901D0
:1006D000089580912B0390912C03891B990B089509
:1006E000CF92DF92EF92FF920F931F93CF93DF93FE
:1006F0007C01CB018A012091F602222389F0EB01D3
:100700006B01C40ED51ECC15DD0569F06991D701CA
:10071000ED91FC910190F081E02DC7010995F3CF97
:10072000642F0E94E002C801DF91CF911F910F91C9
:10073000FF90EF90DF90CF900895CF93DF931F92BB
:10074000CDB7DEB769832091F6022223F9F020911C
:100750002903203258F021E030E0FC01338322836A
:1007600090E080E00F90DF91CF91089580912A036F
:10077000E82FF0E0E950FD4F998190838F5F8093DF
:100780002A038093290381E090E0ECCF61E0CE0161
:1007900001960E94E002F7CFCF92DF92EF92FF9294
:1007A0000F931F93CF93DF93FC01C48121E020932B
:1007B000F602C093170310922A031092290383852F
:1007C000682B8CE493E00E949D03D0912903D132E1
:1007D00008F092C00E947C026B017C018091F002C3
:1007E000811165C082E08093F00281E08093EF0286
:1007F0008FEF8093EE021092ED02D093EC02A7EF00
:10080000B2E0ECECF2E080E0D81385C01092CB02AD
:100810008091CB02CC0FC82BC093CB028091CA022F
:10082000813009F07CC01092CA020E947C026B01E8
:100830007C018091CB028093BB008091F202909169
:10084000F302A091F402B091F502892B8A2B8B2B35
:1008500099F00E947C020091F2021091F302209123
:10086000F4023091F5026C197D098E099F09061773
:10087000170728073907E0F18091BC0083FDD9CF25
:1008800085EC8093BC000E947C026B017C0180910E
:10089000F002823009F445C08091EE028F3F61F191
:1008A0008091EE02803241F18091EE0225C080916C
:1008B000F2029091F302A091F402B091F502892B1B
:1008C0008A2B8B2B09F48ACF0E947C020091F202C2
:1008D0001091F3022091F4023091F5026C197D0918
:1008E0008E099F09061717072807390708F076CFE2
:1008F0008091F1020E94250310922A03109229038D
:100900001092F602DF91CF911F910F91FF90EF901F
:10091000DF90CF9008959D9191938F5F75CF85EE75
:10092000B0CF8091F2029091F302A091F402B091C5
:10093000F502892B8A2B8B2B09F4A9CF0E947C020C
:100940000091F2021091F3022091F4023091F5022D
:100950006C197D098E099F090617170728073907A3
:1009600008F095CFC5CF2091230330912403281799
:10097000390771F49091210380912203981741F077
:10098000E0912103F0E0EA5DFD4F808190E0089561
:100990008FEF9FEF0895EF92FF920F931F93CF93E6
:1009A000DF93DC015C96ED90FC905D97E114F1041F
:1009B00079F481E090E013969C938E93129790E0E7
:1009C00080E0DF91CF911F910F91FF90EF900895FC
:1009D0005196ED91FC91529750968C915097982F8B
:1009E00090950FB75E962C915E97122F127021FD95
:1009F0006095F8942081112319F1282B2083E701B9
:100A00002197F1F728E0462F50E0308160FF1AC0AF
:100A1000382B3083E7012197F1F7BA017595679577
:100A2000215089F7112381F08081892380830FBFB2
:100A30005C968D919C910197F1F781E090E0C1CF98
:100A40002923DCCF3923E5CF9081892BEFCF20916B
:100A50002303309124032817390771F4809122036E
:100A60002091210390E0805C9F4F821B910960E4FC
:100A700070E00E94D911089590E080E008952091DF
:100A800023033091240328173907B9F490912103E7
:100A900080912203981789F0E0912103F0E0EA5D4C
:100AA000FD4F80812091210330E02F5F3F4F2F7356
:100AB00033272093210390E008958FEF9FEF08954F
:100AC00090E080E008950F931F93CF93DF93EC01A4
:100AD00088810E94E9012C81892B41F5211108C0F0
:100AE00081E08C830E94D3026E837F8388879987FD
:100AF0000E94D3020E811F8128853985601B710BEE
:100B0000820B930B0A851B852C853D8506171707DD
:100B10002807390730F48D81811103C081E08D836E
:100B20008A83DF91CF911F910F9108952223C9F3FA
:100B30008D81882319F01D821C82F3CF81E08B8385
:100B4000FBCF0F931F93CF938C01C62F0E94CC0332
:100B50006C2F6460C8010E94CC036C2F6B7FC801AE
:100B60000E94CC0383EC90E00197F1F7CF911F91A5
:100B70000F9108950F931F93CF93DF938C01D62F7E
:100B8000C42F607F642B0E94A10580E1D89FB00133
:100B900011246C2BC801DF91CF911F910F910C9400
:100BA000A10540E061E08BE194E00E94BA058BE38F
:100BB0009FE10197F1F7089541E00E94BA0581E0B5
:100BC00090E008950F931F93CF93DF938C01D0E0B3
:100BD000C0E0F801EC0FFD1F6491662339F041E09D
:100BE0008BE194E00E94BA052196F3CFCE01DF910C
:100BF000CF911F910F910895CF93DF93CDB7DEB7BB
:100C000028970FB6F894DEBF0FBECDBF98E0E0E1A5
:100C1000F1E0DE01119601900D929A95E1F7909125
:100C20002304961708F46FEF262F30E0220F331FAE
:100C300041E050E04C0F5D1F240F351FF90160812A
:100C4000680F606840E08BE194E028960FB6F89456
:100C5000DEBF0FBECDBFDF91CF910C94BA05FB0173
:100C600001900020E9F73197AF01461B570BDC01DB
:100C7000ED91FC910280F381E02D09940F931F9375
:100C8000CF93DF93EC010E94A5008C016AE571E02F
:100C9000CE010E942F06800F911FDF91CF911F91EF
:100CA0000F910895CF93DF93BC0188E593E00E94F4
:100CB0002F06EC016AE571E088E593E00E942F06BB
:100CC0008C0F9D1FDF91CF910895809141039091EA
:100CD0004203892BB1F00E94D302609347037093C3
:100CE00048038093490390934A0361E08DE00E949A
:100CF00012020E94D1056DE571E08BE194E00C9445
:100D00002F06089580914103909142030197B1F01D
:100D10000E94D3026093430370934403809345037E
:100D20009093460361E08CE00E9412020E94D1057C
:100D30006CE671E08BE194E00C942F0608950F931C
:100D40001F93CF93DF93EC0188819981009759F02D
:100D50002A813B812617370730F081E0DF91CF9160
:100D60001F910F9108958B016F5F7F4F0E942C138D
:100D7000009759F0998388831B830A832C813D81D6
:100D8000232B59F7FC011082E8CF80E0E7CFEF92E8
:100D9000FF920F931F93CF93DF936115710541F479
:100DA00080E0DF91CF911F910F91FF90EF90089518
:100DB00041155105B1F07B01EC010C811D81040F3F
:100DC000151FB8010E949F06882351F3288139819D
:100DD0008C819D81B701820F931F0E94F2131D83A6
:100DE0000C8381E0DECFCF93DF93EC018881998182
:100DF000009711F00E94A312198218821D821C8292
:100E00001B821A82DF91CF910895CF92DF92EF92E9
:100E1000FF920F931F93CF93DF93CDB7DEB7629707
:100E20000FB6F894DEBF0FBECDBF8C01CB01F80129
:100E30001182108213821282158214824AE09E016E
:100E40002F5F3F4F6901B9010E945711F6010190D0
:100E50000020E9F731977F01EC18FD08B701C801C0
:100E60000E949F06811112C0C8010E94F30662967B
:100E70000FB6F894DEBF0FBECDBFDF91CF911F91AB
:100E80000F91FF90EF90DF90CF900895F801F582D9
:100E9000E482B601808191810E94F213E8CFCF9362
:100EA000DF93EC01FB0101900020E9F73197AF01DE
:100EB000461B570B0E94C706811103C0CE010E943A
:100EC000F306CE01DF91CF910895CF93DF93EC012C
:100ED000FB0144815581608171810E94C7068111A7
:100EE00003C0CE010E94F306CE01DF91CF91089599
:100EF000EF92FF920F931F93CF93DF93EC017B014F
:100F0000198218821B821A821D821C82FB010190A9
:100F10000020E9F731978F01061B170BB8010E94DB
:100F20009F06811109C0CE01DF91CF911F910F91D2
:100F3000FF90EF900C94F3061D830C83B70188811A
:100F40009981DF91CF911F910F91FF90EF900C94B9
:100F5000F213CF93DF93EC016B307105A8F4FB0122
:100F6000EC54F84F0C94ED11BF07C807CB07CE0720
:100F7000D107D407D707DA07DD07E007E3076CE5F9
:100F800071E0CE010E947807CE01DF91CF910895E4
:100F900064E871E0F6CF63E871E0F3CF62E871E0F6
:100FA000F0CF61E871E0EDCF60E871E0EACF6FE784
:100FB00071E0E7CF6EE771E0E4CF6DE771E0E1CF7C
:100FC0006CE771E0DECF6BE771E0DBCFFC01808185
:100FD0009181009711F00C94A312089585ED8093F0
:100FE000BC008091F2029091F302A091F402B091C2
:100FF000F5020796A11DB11D23E0B695A79597951B
:1010000087952A95D1F72091BC0024FD03C010924A
:10101000F00208954091F2025091F3026091F402BF
:101020007091F502452B462B472B69F30097A105DC
:10103000B10541F025E32A95F1F700000197A109D8
:10104000B109E1CF8091F1020C9425030C94941125
:101050000C948C111F920F920FB60F9211242F93A4
:101060003F934F935F936F937F938F939F93AF9330
:10107000BF93EF93FF9388E593E00E943101FF91C6
:10108000EF91BF91AF919F918F917F916F915F9100
:101090004F913F912F910F900FBE0F901F90189579
:1010A0001F920F920FB60F9211242F938F939F933D
:1010B000EF93FF93E0916803F09169038081E091E1
:1010C0006E03F0916F0382FD1BC0908180917103CC
:1010D0008F5F8F7320917203821741F0E09171034B
:1010E000F0E0E85AFC4F958F80937103FF91EF91E8
:1010F0009F918F912F910F900FBE0F901F90189579
:101100008081F4CF1F920F920FB60F9211242F936C
:101110003F938F939F93AF93BF93809119039091C7
:101120001A03A0911B03B0911C033091180323E014
:10113000230F2D3758F50196A11DB11D20931803DB
:101140008093190390931A03A0931B03B0931C037D
:1011500080911D0390911E03A0911F03B091200365
:101160000196A11DB11D80931D0390931E03A093B2
:101170001F03B0932003BF91AF919F918F913F9137
:101180002F910F900FBE0F901F90189526E8230FF8
:101190000296A11DB11DD2CF1F920F920FB60F92D2
:1011A00011242F933F934F935F936F937F938F936C
:1011B0009F93AF93BF93EF93FF938091B900887F84
:1011C000803609F44AC0F0F5883209F4A7C018F552
:1011D000803109F49BC0B8F4882309F4F9C0883041
:1011E00009F494C0FF91EF91BF91AF919F918F91BE
:1011F0007F916F915F914F913F912F910F900FBE13
:101200000F901F901895883109F488C0803251F7EB
:101210008093EE0214C0803409F49DC040F4803302
:10122000B9F38833F9F68093EE0285ECB0C08035CF
:1012300009F485C0883509F496C0883499F60E946F
:10124000EE07D0CF883909F48CC038F5883729F0FB
:1012500050F4883611F0803729F683E08093F0024D
:101260001092C90257C0883809F47BC0803919F040
:10127000803809F0B7CF8091C902803208F071C080
:10128000E091C90281E08E0F8093C9028091BB007A
:10129000F0E0E755FD4F80833DC0803B39F0E0F43E
:1012A000803A09F479C0883A09F09CCF84E08093B1
:1012B000F0021092A8021092A702E0912703F09189
:1012C000280309958091A70281110FC081E08093C6
:1012D000A7021092870209C0803C09F4A6CF883C7F
:1012E00009F4A3CF883B09F07DCFE091A80281E00B
:1012F0008E0F8093A802F0E0E957FD4F8081809324
:10130000BB009091A8028091A70229C08091CB02D6
:101310008093BB0085EC8093BC0064CF9091ED027C
:101320008091EC02981758F5E091ED0281E08E0F64
:101330008093ED02F0E0E453FD4F8081E9CFE0912E
:10134000ED0281E08E0F8093ED028091BB00F0E012
:10135000E453FD4F80839091ED028091EC02981749
:10136000C8F285E8D8CFE091ED0281E08E0F80933E
:10137000ED028091BB00F0E0E453FD4F808380914B
:10138000EF0281115CCF81E08093CA0284EA8093EE
:10139000BC001092F00226CF85EC8093BC00109226
:1013A000F0028091C902803230F4E091C902F0E08D
:1013B000E755FD4F10826091C90270E0E09125036E
:1013C000F091260389EA92E009951092C9020ACFAA
:1013D0001092EE0234CF1F920F920FB60F9211248B
:1013E0002F933F934F935F936F937F938F939F932D
:1013F000AF93BF93EF93FF93E0912303F091240306
:10140000309749F0A685B7858585968D91FF14C0E4
:101410009C918923A1F4FF91EF91BF91AF919F918E
:101420008F917F916F915F914F913F912F910F908D
:101430000FBE0F901F9018959C91892361F7A38987
:10144000B4899C918589809589238C938689978915
:101450000197F1F7608D718DA685B785558538E0C8
:1014600020E0CB010197F1F7822F90E095958795C9
:10147000282F4C91452309F02068315091F7868D33
:1014800081FD20958091220390E001968F7399272A
:1014900030912103381799F0A0912203B0E0AA5DA2
:1014A000BD4F2C9380932203828D938D0197F1F78A
:1014B000A389B4898C919589892B8C93ACCF868D27
:1014C0008160868FF1CFCF92DF92EF92FF921092E0
:1014D0005B0310925A0388EE93E0A0E0B0E08093A3
:1014E0005C0390935D03A0935E03B0935F032CE1D4
:1014F00031E0309359032093580325EC30E03093CA
:1015000065032093640324EC30E030936703209359
:10151000660320EC30E0309369032093680321ECEC
:1015200030E030936B0320936A0322EC30E0309379
:101530006D0320936C0326EC30E030936F0320930F
:101540006E03109271031092720310927303109243
:10155000740310924F0310924E03809350039093A4
:101560005103A0935203B09353032EE231E0309322
:101570004D0320934C0310922A0410922904809367
:101580002B0490932C04A0932D04B0932E048CE490
:1015900091E0909328048093270410923E041092C7
:1015A0003D041092400410923F04109242041092A5
:1015B00041041092440410924304609145046E7FEC
:1015C0006D7F609345046695617081E0682782E0D5
:1015D0000E94120261E082E00E944002EBEDF0E026
:1015E000E491E0933704E7ECF0E0E491F0E0EE0FF3
:1015F000FF1FE554FF4F8591949190933904809398
:10160000380460E083E00E9440028091450481FD3F
:1016100004C061E083E00E94120283E080933304FF
:10162000ECEDF0E0E491E0933404E8ECF0E0E491D8
:10163000F0E0EE0FFF1FEF54FF4F859194919093D0
:1016400036048093350410921E0410921D0480E429
:1016500091E090931C0480931B0487E280931F0405
:1016600084E18093240482E0809325041092260470
:101670001092090410920A0410920B0498EEC92EDD
:1016800093E0D92EE12CF12CC0921204D0921304D5
:10169000E0921404F09215041092180410921704AA
:1016A0008EE08093080486E891E00E94520662E092
:1016B000809108040E94400282E991E00E94520653
:1016C0001092F6031092F7031092F803C092FF03F2
:1016D000D0920004E0920104F092020410920504FA
:1016E000109204048FE08093F50386E891E00E9455
:1016F000520662E08091F5030E94400282E991E087
:10170000FF90EF90DF90CF900C945206CF93DF9331
:10171000CDB7DEB762970FB6F894DEBF0FBECDBF70
:10172000789484B5826084BD84B5816084BD85B5BC
:10173000826085BD85B5816085BD80916E008160C8
:1017400080936E001092810080918100826080936E
:101750008100809181008160809381008091800070
:101760008160809380008091B10084608093B1009B
:101770008091B00081608093B00080917A00846095
:1017800080937A0080917A00826080937A008091C1
:101790007A00816080937A0080917A0080688093DB
:1017A0007A001092C100E0916803F091690382E031
:1017B0008083E0916403F09165031082E0916603F9
:1017C000F09167038FEC808310927003E0916C03BB
:1017D000F0916D0386E08083E0916A03F0916B03E2
:1017E000808180618083E0916A03F0916B03808146
:1017F00088608083E0916A03F0916B038081806848
:101800008083E0916A03F0916B0380818F7D8083F8
:1018100061E086E00E94400261E08DE00E944002AB
:1018200061E08CE00E94400262E08EE00E94400293
:1018300062E08FE00E94400262E08AE00E94400283
:1018400061E084E00E944002109242041092410440
:101850001092400410923F0410923E0410923D04F6
:101860008DE991E090934404809343049091330474
:10187000963108F047C02DEB30E030933E042093C2
:101880003D042BE931E03093400420933F042CE2E7
:1018900031E030934204209341042091680084E0B9
:1018A000983048F031E09E3008F430E081E001C02B
:1018B000880F3A95EAF7822B809368002DE630E096
:1018C000983050F02BE630E09E3030F02CE630E0DF
:1018D000963110F030E020E030933B0420933A043E
:1018E000292F30E0983008F09AC381E001C0880FBA
:1018F0009A95EAF780933C048091430490914404C4
:101900000197F1F78091410490914204892B49F1AC
:10191000E0912303F091240324E0E732F20709F178
:10192000309739F0A389B4899C9185898095892362
:101930008C93809145048E7F8093450410922203FE
:101940001092210387E294E0909324038093230371
:10195000E0913A04F0913B04808190913C04892B02
:1019600080838FEF93E00E942808843509F064C3D8
:1019700082E090E00E94280890E0909342038093D8
:10198000410383E090E00E94280890E090933803A0
:101990008093370384E090E00E94280890E09093C1
:1019A00009018093080110922C0310922B031092CE
:1019B0002A03109229030E94070383EA90E0909380
:1019C00028038093270384EA90E090932603809372
:1019D00025031092200480912504823018F098E0AD
:1019E000909320048093230462E370E080E090E011
:1019F0000E94A102609126048BE194E00E94CC0336
:101A000068EE73E080E090E00E94A10260E38BE169
:101A100094E00E94A1050BE416E4C8010197F1F7D8
:101A200060E38BE194E00E94A105C8010197F1F702
:101A300060E38BE194E00E94A10583E592E00197C9
:101A4000F1F760E28BE194E00E94A105609120042F
:101A5000606240E08BE194E00E94BA0584E08093EC
:101A6000210440E06CE08BE194E00E94BA050E9402
:101A7000D10582E08093220440E066E08BE194E0AF
:101A80000E94BA0540E062E08BE194E00E94BA0552
:101A90008BE39FE10197F1F788E08093260460E0F3
:101AA0008BE194E00E94CC0340E060E48BE194E0A1
:101AB0000E94BA0500E011E058E0E52E51E0F52E55
:101AC000F80161918F018BE194E00E94DC05E01642
:101AD000F106B1F760E085E00E94FC056CEA71E078
:101AE0008BE194E00E942F0660ED77E080E090E0CB
:101AF0000E94A1020E94D10560E080E00E94FC05E6
:101B0000809137039091380362EA71E0019711F0F8
:101B100067EA71E0CE010D960E94780762EB71E0F2
:101B2000CE0101960E947807BE01635F7F4FCE0110
:101B300001960E946507BC018BE194E00E943E067D
:101B4000CE0101960E94E60761E080E00E94FC055C
:101B50006091080170910901CE0101960E9405076C
:101B60006FEB71E0CE0107960E947807BE016F5FB0
:101B70007F4FCE0107960E9465076BEC71E00E94D3
:101B80004F07BC018BE194E00E943E06CE01079610
:101B90000E94E607CE0101960E94E60768EE73E018
:101BA00080E090E00E94A10260E084E00E941202C6
:101BB0008091410390914203892B09F067C281E033
:101BC00080934B03CE010D960E94E60791E4292EE7
:101BD00093E0392E0AE010E026EFC22EDD24DA94DD
:101BE00030E5432E512C66246394712C80914B0375
:101BF000882359F00E94D30261367A4E81059105FF
:101C000020F010924B030E9465060E94D302AB01A4
:101C1000BC018091470390914803A0914903B09182
:101C20004A0388519C4FAF4FBF4F84179507A607B3
:101C3000B70720F460E08DE00E9412020E94D302F8
:101C4000AB01BC018091430390914403A0914503F3
:101C5000B091460388519C4FAF4FBF4F84179507F3
:101C6000A607B70720F460E08CE00E9412028AE029
:101C70000E94E901892B09F00CC2109242031092D4
:101C8000410360E082E090E00E94260888E094E052
:101C90000E94630580910A04882309F44AC21092C5
:101CA0000B041092090410920A040E94D1050E94AC
:101CB000D30260932D0370932E0380932F03909390
:101CC00030030E94D30280902D0390902E03A090A9
:101CD0002F03B0903003681979098A099B09613193
:101CE00077428105910508F051C060E080E00E94D4
:101CF000FC0560ED71E08BE194E00E942F0661E04D
:101D000083E00E94FC056091080170910901CE01F9
:101D100001960E9405076EED71E0CE0107960E94C4
:101D20007807BE016F5F7F4FCE0107960E9465075F
:101D300062EE71E00E944F07BC018BE194E00E94CB
:101D4000A500CE0107960E94E607CE0101960E94EB
:101D5000E60788E094E00E94630580910A048823E6
:101D600009F4A4C110920B041092090410920A0401
:101D70006091080184E090E00E9426080E94D1054D
:101D80006AEE71E08BE194E00E942F0685EF93E00C
:101D90000E9463058091F703882309F4E4C110923F
:101DA000F8031092F6031092F70380913703909195
:101DB0003803019709F0C9C1109238031092370314
:101DC00060E083E090E00E9426080E94D10586E84A
:101DD00090E00E94E20568EE73E080E090E00E94EF
:101DE000A10287E294E00E942705892B09F454C0E0
:101DF00061E086E00E9412028DE3E82E83E0F82E77
:101E00000E94D30260932F047093300480933104B6
:101E10009093320487E294E00E943F0597FF23C22B
:101E20000E94D30280902F0490903004A09031043F
:101E3000B0903204681979098A099B0980902B04B3
:101E400090902C04A0902D04B0902E046815790574
:101E50008A059B05F8F260913D0370E070933C03A6
:101E600060933B038091400390E090933A0380930A
:101E70003903CE0101960E940507BE016F5F7F4FB7
:101E800088E593E00E943E06CE0101960E94E60797
:101E900060E086E00E9412028091390390913A033B
:101EA0008436910509F06BC180913B0390913C030E
:101EB0008436910544F0809137039091380301975F
:101EC00011F40E94820620913B0330913C038091E3
:101ED0000801909109018217930744F0809137031C
:101EE00090913803019711F40E9465068091410397
:101EF00090914203009709F049C10E94D302AB01BF
:101F0000BC018091330390913403A0913503B091CB
:101F1000360388539F4FAF4FBF4F84179507A607CF
:101F2000B70708F056C00E94D30260933303709342
:101F300034038093350390933603E0903B03F09095
:101F40003C03C701B8010E94D911CB012091310394
:101F500030913203260F371F2B303105E4F01092F9
:101F600032031092310361E00E94FC05C701B60103
:101F70000E94D911665F7F4FCE0101960E94A9078A
:101F8000BE016F5F7F4F8BE194E00E94A500CE0100
:101F900001960E94E607E0903103F09032038091B1
:101FA0003B0390913C03B8010E94D911862F9FEF0B
:101FB0009E0D61E0890F0E94FC0560E08BE194E0DA
:101FC0000E94DC058FEFE81AF80AF0923203E092E3
:101FD000310360E080E00E94FC056EEF71E08BE170
:101FE00094E00E942F06A0903B03B0903C03C501F3
:101FF000B8010E94D9114B01F12CE12C61E0E814E9
:10200000F9040CF0ECC08E2D0E94FC0560E08BE121
:1020100094E00E94DC059FEFE91AF90AEFCF9E30A9
:1020200040F42850310981E001C0880F2A95EAF771
:1020300061CC2E503109F7CF68EC81E090E00E942E
:10204000260801E010E0109342030093410361E091
:1020500082E090E00E942608109338030093370333
:1020600061E083E090E00E9426088AE090E090938F
:102070000901809308016AE084E090E00E9426084C
:1020800064E58FEF93E00E9426088DCC10924B03FD
:1020900099CD8AE00E94E9018130910509F0F6CDE1
:1020A000909342038093410361E0ECCD80910B0457
:1020B0008823C9F010920B04109209048091080142
:1020C000909109010A9797FD2AC090930901809386
:1020D00008010E94D30260932D0370932E03809316
:1020E0002F039093300385EF93E00E946305809166
:1020F000F803882309F4E5CD1092F8031092F60353
:102100001092F70380910801909109010A96813598
:10211000910554F49093090180930801C8CD509221
:10212000090140920801D5CF1092090110920801CF
:10213000BECD80910B04882309F428CE10920B04A5
:10214000109209040E94650621CE709238036092B5
:10215000370361E083E090E00E9426080E94D105E9
:1021600085E990E036CE8091F803882309F439CED2
:102170001092F8031092F6030E94820632CE0E945B
:10218000D10583EA90E00E94E205B0CE019709F004
:1021900020CF1092320310923103E0903B03F09075
:1021A0003C03C701B8010E94D911862F61E00E944B
:1021B000FC05C701B6010E94D911665F7F4FCE01B1
:1021C00001960E94A907BE016F5F7F4F8BE194E0EB
:1021D0000E94A500CE0101960E94E607FACE8AE091
:1021E0000E94FC05B501CE0101960E9405076FE033
:1021F00072E0CE0107960E947807BE016F5F7F4FA5
:10220000CE0107960E94650762E172E00E944F07C7
:10221000BC018BE194E00E94A500CE0107960E94CC
:10222000E607CE0101960E94E6078091450480FFF3
:102230000DC08E7F8093450485E192E00E94520696
:1022400087E294E00E943F0597FFFACFE0E0F0E0DC
:10225000EF2B09F4CBCC0E941D01882309F4C6CCD6
:102260000E940000C3CCF70181937F012E163F0628
:1022700009F0C6CDF0CD8CE491E0909328048093D2
:10228000270480912303909124038752944071F492
:10229000E0913A04F0913B04908180913C04809558
:1022A0008923808310922403109223030895BB276F
:1022B0004A3031F4992322F4BDE2909581959F4FE5
:1022C0000C946311BB27FB015527AA27880F991F80
:1022D000AA1FA41710F0A41B83955051B9F7A05D55
:1022E000AA3308F0A95DA193009779F7B111B193D2
:1022F0001192CB010C947C11DC01FC01672F7191D0
:102300007723E1F7329704C07C916D9370836291DB
:10231000AE17BF07C8F30895F999FECF92BD81BDEE
:10232000F89A992780B50895262FF999FECF1FBAFC
:1023300092BD81BD20BD0FB6F894FA9AF99A0FBEEE
:10234000019608952F923F924F925F926F927F92E3
:102350008F929F92AF92BF92CF92DF92EF92FF92B5
:102360000F931F93CF93DF93CDB7DEB7CA1BDB0B61
:102370000FB6F894DEBF0FBECDBF09942A88398806
:1023800048885F846E847D848C849B84AA84B9840D
:10239000C884DF80EE80FD800C811B81AA81B98119
:1023A000CE0FD11D0FB6F894DEBF0FBECDBFED012D
:1023B000089597FB072E16F4009407D077FD09D0F7
:1023C0000E94F31107FC05D03EF4909581959F4F34
:1023D0000895709561957F4F0895EE0FFF1F05904A
:1023E000F491E02D0994AA1BBB1B51E107C0AA1F61
:1023F000BB1FA617B70710F0A61BB70B881F991FA6
:102400005A95A9F780959095BC01CD0108950F9339
:102410001F93CF93DF938230910510F482E090E018
:10242000E0914804F091490430E020E0B0E0A0E001
:10243000309799F42115310509F44AC0281B390B4E
:1024400024303105D8F58A819B816115710589F1A8
:10245000FB0193838283FE0111C04081518102817F
:10246000138148175907E0F04817590799F4109756
:1024700061F012960C93129713961C933296CF012B
:10248000DF91CF911F910F9108950093480410930D
:102490004904F4CF2115310551F04217530738F0A4
:1024A000A901DB019A01BD01DF01F801C1CFEF01F4
:1024B000F9CF9093490480934804CDCFFE01E20FF9
:1024C000F31F819391932250310939832883D7CF09
:1024D0002091460430914704232B41F420910C01B4
:1024E00030910D01309347042093460420910A0156
:1024F00030910B012115310541F42DB73EB74091C4
:102500000E0150910F01241B350BE0914604F09110
:102510004704E217F307A0F42E1B3F0B28173907D7
:1025200078F0AC014E5F5F4F2417350748F04E0F2F
:102530005F1F5093470440934604819391939FCF2C
:10254000F0E0E0E09CCFCF93DF930097E9F0FC014F
:10255000329713821282A0914804B0914904ED0190
:1025600030E020E01097A1F420813181820F931F89
:1025700020914604309147042817390709F061C0BB
:10258000F0934704E0934604DF91CF910895EA0168
:10259000CE17DF07E8F54A815B819E0141155105A1
:1025A000B1F7E901FB83EA8349915991C40FD51F23
:1025B000EC17FD0761F4808191810296840F951FCD
:1025C000E90199838883828193819B838A83F0E0E8
:1025D000E0E012968D919C9113970097B9F52D919B
:1025E0003C911197CD010296820F931F20914604D2
:1025F000309147042817390739F6309751F5109272
:10260000490410924804B0934704A0934604BCCFF9
:10261000D383C28340815181840F951FC817D90786
:1026200061F44E5F5F4F88819981480F591F518334
:1026300040838A819B81938382832115310509F030
:10264000B0CFF0934904E09348049ECFFD01DC0134
:10265000C0CF13821282D7CFB0E0A0E0E2E3F3E173
:102660000C94A4118C01009751F4CB010E94071225
:102670008C01C801CDB7DEB7E0E10C94C011FC01BC
:10268000E60FF71F9C0122503109E217F30708F407
:102690009DC0D901CD91DC911197C617D70798F04D
:1026A000C530D10530F3CE0104978617970708F39C
:1026B000C61BD70B2297C193D1936D937C93CF0107
:1026C0000E94A312D6CF5B01AC1ABD0A4C018C0E3E
:1026D0009D1EA0914804B0914904512C412CF12C2D
:1026E000E12C109731F580914604909147048815AC
:1026F000990509F05CC04616570608F058C080914D
:102700000A0190910B01009741F48DB79EB740915B
:102710000E0150910F01841B950BE817F90708F083
:1027200055C0F0934704E0934604F9017183608338
:10273000A0CF8D919C91119712966C901297139641
:102740007C901397A815B90559F56C0142E0C40EA9
:10275000D11CCA14DB0420F1AC014A195B09DA016F
:102760001296159780F06282738251834083D9015B
:102770006D937C93E114F10471F0D7011396FC93EF
:10278000EE93129776CF22968C0F9D1FF9019183BD
:102790008083F301EFCFF0934904E093480469CFBD
:1027A0004816590608F42C017D01D3019ACFCB01BC
:1027B0000E9407127C01009749F0AE01B8010E9407
:1027C000E913C8010E94A312870153CF10E000E073
:1027D00050CFFB01DC0102C001900D9241505040EE
:1027E000D8F70895FB01DC0101900D920020E1F77C
:1027F000089510E0C8E7D0E004C0FE010E94ED118A
:102800002196C937D107C9F7F894FFCF1F1F1F1FA3
:102810001F1F1F1F0A0000004A0480000000400024
:1028200014005400000000005301B300E000A001B8
:102830001101EF000301000000009D03700360051B
:10284000460369035603470300000000DC05B3009C
:102850006005DF0200000000CB04B3006005460302
:1028600027053F05B3040D0A00204D4F544F522059
:10287000535441525445440020204D4F544F522050
:1028800053544F5045440020202020202020202059
:10289000200053776974636820496E697400537728
:1028A0006974636820496E697432323232004F4E67
:1028B0002020004F464620005154524F4E004155B3
:1028C000544F204D4F4445203A20004C4F57204C48
:1028D0004556454C3A2000252020200053455420E1
:1028E0004C4F57204C4556454C003C20200025209D
:1028F00020203E2020004C6F77204C6576656C20B0
:1029000053746F7265642E2E2E0057415445522029
:102910004C4556454C2020202020003E3E002520DE
:102920000053657269616C204F766572666C6F77D3
:022930000000A5
:107E0000112484B714BE81FFF0D085E080938100F7
:107E100082E08093C00088E18093C10086E0809377
:107E2000C20080E18093C4008EE0C9D0259A86E02C
:107E300020E33CEF91E0309385002093840096BBD3
:107E4000B09BFECF1D9AA8958150A9F7CC24DD24C4
:107E500088248394B5E0AB2EA1E19A2EF3E0BF2EE7
:107E6000A2D0813461F49FD0082FAFD0023811F036
:107E7000013811F484E001C083E08DD089C08234E0
:107E800011F484E103C0853419F485E0A6D080C0E4
:107E9000853579F488D0E82EFF2485D0082F10E0AE
:107EA000102F00270E291F29000F111F8ED06801E7
:107EB0006FC0863521F484E090D080E0DECF843638
:107EC00009F040C070D06FD0082F6DD080E0C81688
:107ED00080E7D80618F4F601B7BEE895C0E0D1E017
:107EE00062D089930C17E1F7F0E0CF16F0E7DF06D8
:107EF00018F0F601B7BEE89568D007B600FCFDCFD4
:107F0000A601A0E0B1E02C9130E011968C91119780
:107F100090E0982F8827822B932B1296FA010C0160
:107F200087BEE89511244E5F5F4FF1E0A038BF0790
:107F300051F7F601A7BEE89507B600FCFDCF97BE46
:107F4000E89526C08437B1F42ED02DD0F82E2BD052
:107F50003CD0F601EF2C8F010F5F1F4F84911BD097
:107F6000EA94F801C1F70894C11CD11CFA94CF0C13
:107F7000D11C0EC0853739F428D08EE10CD085E9AC
:107F80000AD08FE07ACF813511F488E018D01DD067
:107F900080E101D065CF982F8091C00085FFFCCF94
:107FA0009093C60008958091C00087FFFCCF809118
:107FB000C00084FD01C0A8958091C6000895E0E648
:107FC000F0E098E1908380830895EDDF803219F02E
:107FD00088E0F5DFFFCF84E1DECF1F93182FE3DFCA
:107FE0001150E9F7F2DF1F91089580E0E8DFEE27F6
:047FF000FF270994CA
:027FFE00040479
:00000001FF
