:100000000C9425020C944D020C944D020C946E2518
:100010000C946E250C946E250C944D020C944D029C
:100020000C944D020C944D020C944D020C944D0214
:100030000C944D020C944D020C944D020C944D0204
:100040000C9424250C944D020C944D020C944D02FA
:100050000C944D020C944D020C944D020C944D02E4
:100060000C94E6250C944D02534F4E4720434F55B8
:100070004E540045564520534F4E47203220544998
:100080004D45004D4F5220534F4E4720322054498A
:100090004D450045564520534F4E472031204E6F69
:1000A0002E0045564520534F4E4720312054494D90
:1000B00045004D4F5220534F4E472031204E6F2E5A
:1000C000004D4F5220534F4E4720312054494D454B
:1000D00000504C41590053454C4543542054494D20
:1000E0004500504C59522045564520445552005029
:1000F0004C595220455645204F4E2054494D0050F2
:100100004C5952204D4F522044555200504C595298
:10011000204D4F52204F4E2054494D004C494748E6
:1001200054204F46462054494D45004C49474854B9
:10013000204F4E2054494D45000FC10000000014CF
:10014000B20000000011A2000000001593000000A2
:10015000001083000000001273000000001368000C
:1001600000000000D401000000534F4E47205345CB
:100170005454494E47000CD6000000000DD1000039
:10018000000000D401000000504C41592044454D6E
:100190004F005343484F4F4C205A4F4E4500564F47
:1001A0004C554D45004241434B4C4947485420442F
:1001B000555200534C4F47414D20434F554E54002C
:1001C000454E442054494D45005354415254205407
:1001D000494D45004241434B005345542054494D3D
:1001E000450053455420444154450053455420593B
:1001F000454152005345542053455249414C000556
:10020000C90100000006C0010000000B8801760152
:1002100003099E010000000A920100000000D401C1
:10022000000000434C4F434B2053455454494E4724
:1002300000455849540052455345542053455454A1
:10024000494E47001B0C010000001CFF000000008D
:100250001DEF000000001EE20000000000D40100BD
:100260000000504C415945522053455454494E4783
:1002700000182B01000000191C0100000000D4012F
:100280000000004C49474854532053455454494EAC
:10029000470005C90100000006C00100000007B3C7
:1002A0000100000008A501000000099E01000000F7
:1002B0000A92010000000B88017601030E690139E2
:1002C000010800D40100000042454C4C2053455425
:1002D00054494E470002E20100000003D90100002A
:1002E0000000D401000000534554204441544520EF
:1002F00054494D450020200020200020504C4159F9
:100300004552204D4F4445204F4E2000202052554D
:100310004E4E494E472044454D4F20200020415528
:10032000544F204C49474854204F46462000204116
:1003300055544F204C49474854204F4E2020002010
:100340004155544F20504C4159204F4646202000E3
:1003500020204155544F20504C4159204F4E2020D1
:100360000000000000240027002A00000000080010
:10037000020100000304070000000000000000214B
:10038000F40100000020EB01000000003102000039
:10039000001783027102031A620244020501E70298
:1003A000D502031F2302FF010600310200000001F5
:1003B000E702D5020304C802920209178302710200
:1003C000031A6202440205163602000000003102E0
:1003D0000000004552522030330045525220303246
:1003E00000455252203031004445564F54494F4E3B
:1003F000414C20434C4F434B005154524F4E001F31
:100400001C1F1E1F1E1F1F1E1F1E0000000023009A
:100410002600290000000000250028002B0004040D
:10042000040404040404020202020202030303039C
:100430000303010204081020408001020408102078
:100440000102040810200527DD2B11241FBECFEF69
:10045000D8E0DEBFCDBF25E0AAE4B2E001C01D9226
:10046000A830B207E1F712E0A0E0B1E0EAEAFEE569
:1004700002C005900D92AA34B107D9F712E0C4E288
:10048000D2E004C02197FE010E94042DC332D1079F
:10049000C9F70E941A280C94482F0C9400008091F0
:1004A0004304E0914004F091410496E0899FE00DFF
:1004B000F11D11243596E49181E0E11101C080E045
:1004C0000895EDE3F4E086810380F481E02D96E069
:1004D000899FE00DF11D11248491089508950895D8
:1004E0006091AE049091AD04492F50E08091AF042B
:1004F000282F30E0EFEFF3E081E0861730F47491BD
:10050000270F311D8F5F3196F8CF633020F0937045
:1005100011F42F5F3F4F6DE671E0469FC001479F8A
:10052000900D569F900D112405964D5F5F4F569587
:10053000479556954795840F951F820F931F67E047
:1005400070E00E94BD2C0895AF92BF92CF92DF92CF
:10055000EF92FF920F931F93CF93DF936C017B0178
:100560008B01040F151FEB015E01AE18BF08C01709
:10057000D10759F06991D601ED91FC910190F0817C
:10058000E02DC6010995892B79F7C501DF91CF913F
:100590001F910F91FF90EF90DF90CF90BF90AF90A1
:1005A0000895833081F028F4813099F08230A9F0E9
:1005B00008958730A9F08830C9F08430B1F4809173
:1005C00080008F7D03C0809180008F7780938000B2
:1005D000089584B58F7784BD089584B58F7DFBCF52
:1005E0008091B0008F778093B00008958091B00023
:1005F0008F7DF9CFCF93DF93282F30E0F901E559B4
:10060000FC4F8491F901EE5CFB4FD491F901E25E5D
:10061000FB4FC491CC23A1F081110E94D102EC2F99
:10062000F0E0EE0FFF1FE65FFB4FA591B491EC9158
:10063000ED2381E090E009F480E0DF91CF9108950F
:1006400080E090E0FACF1F93CF93DF93282F30E024
:10065000F901E559FC4F8491F901EE5CFB4FD4910F
:10066000F901E25EFB4FC491CC23A9F0162F811152
:100670000E94D102EC2FF0E0EE0FFF1FEC5EFB4F6B
:10068000A591B4918FB7F894EC91111108C0D09551
:10069000DE23DC938FBFDF91CF911F910895DE2B76
:1006A000F8CFCF93DF9390E0FC01EE5CFB4F2491F9
:1006B000825E9B4FFC0184918823C9F090E0880FF3
:1006C000991FFC01EF59FC4FA591B491FC01EC5E20
:1006D000FB4FC591D49161110DC09FB7F8948C91D7
:1006E000209582238C938881282328839FBFDF91C4
:1006F000CF910895623051F49FB7F8943C91822FC6
:10070000809583238C93E8812E2BEFCF8FB7F894BD
:10071000EC912E2B2C938FBFEACF3FB7F8948091AA
:100720002A0390912B03A0912C03B0912D0326B5A1
:10073000A89B05C02F3F19F00196A11DB11D3FBF19
:10074000BA2FA92F982F8827BC01CD01620F711DE8
:10075000811D911D42E0660F771F881F991F4A95E2
:10076000D1F708958F929F92AF92BF92CF92DF926E
:10077000EF92FF926B017C010E948D034B015C01A3
:10078000C114D104E104F104B9F00E948D03681989
:1007900079098A099B09683E73408105910580F3B8
:1007A00021E0C21AD108E108F10888EE880E83E042
:1007B000981EA11CB11CE4CFFF90EF90DF90CF906A
:1007C000BF90AF909F908F9008952FB7F89460914D
:1007D00026037091270380912803909129032FBF4E
:1007E00008950F931F938091BF049091C004DC0182
:1007F000ED91FC910084F185E02D0995892B09F498
:10080000D7C060E070E0CB010E94B2032091DD040C
:100810008091BF049091C004DC01ED91FC910284B1
:10082000F385E02D21110BC009958093C9048E3703
:10083000D1F68091DD048F5F8093DD04D4CF0995DC
:100840009091DD04E92FF0E0E154FB4F8287923074
:10085000B9F09930D9F09130A9F48F3F99F0109206
:10086000DD0481E08093DF041092E2041092E10441
:100870008093E3041092E40480E01F910F910895A7
:10088000863069F79F5F9093DD04ADCF8F3E39F7D7
:100890002091CB048091CA04280F3327331FE091A5
:1008A000CC04C9018E0F911D2091CD04280F392F42
:1008B000311D4091CE0450E0240F351F8091CF04AC
:1008C00090E06091D00470E0762F6627F091D1041B
:1008D0006F0F711D280F391F31952195310962174E
:1008E000730709F0BCCF1092DD04E13419F41092C3
:1008F000E4042FC0E093E004542F4427840F951F95
:100900009093E2048093E104EA53E63108F046C094
:10091000F0E0E357FB4F0C94042DBA04C204CC045E
:10092000A304CC04AC04CA04CE04CC04CC04CC0490
:10093000CC04CC04CC04CC04CC04CE04CC04CC0435
:10094000CC04CC04CC0485E08093DF0481E0809368
:10095000E3048091E30491CF80FF02C089E0F4CFEB
:1009600081FF02C084E0F0CF83709927892B89F33F
:100970008AE0EACF80FF02C087E0E6CF81FFE9CFBF
:1009800082E0E2CF80FF02C088E0DECF81FFE1CFCE
:1009900083E0DACF86E0D8CF8BE0D6CF81E08093BA
:1009A000DF041092E2041092E1048093E3049FCFED
:1009B0008091E404882369F20E94E5030091C10458
:1009C0001091C2042091C3043091C404601B710BC8
:1009D000820B930B0091C5041091C6042091C704AB
:1009E0003091C804601771078207930708F4B1CFEC
:1009F0001092DD041092DF041092E2041092E104E0
:100A000081E036CF8093D604272F30E07093D8044E
:100A10006093D9044091D5049091D404490F55278F
:100A2000551F840F952F911D4091D704840F911D60
:100A3000820F931F680F792F711D71956195710950
:100A40007093DA046093DB04442361F08091E40442
:100A5000882341F060E070E0CB010E94B2030E9465
:100A6000F103F4CF8091BF049091C004DC01ED91BB
:100A7000FC910280F381E02D4AE050E063ED74E0E8
:100A800009950E94E5036093C1047093C2048093AA
:100A9000C3049093C4048091D70491E0811101C0F4
:100AA00090E09093E404811106C06AE070E080E079
:100AB00090E00C94B2030895782F8FE00C94020517
:100AC000CF93C82F61E08CE00E9423036C2F82E05B
:100AD0000E945C0564EF71E080E090E0CF910C949F
:100AE000B20308952091300330913103281739075C
:100AF00071F490912E0380912F03981741F0E091AB
:100B00002E03F0E0EB51FD4F808190E008958FEFD0
:100B10009FEF08950895EF92FF920F931F93CF9345
:100B2000DF93DC015C96ED90FC905D97E114F1049D
:100B300079F481E090E013969C938E93129790E065
:100B400080E0DF91CF911F910F91FF90EF9008957A
:100B50005196ED91FC91529750968C915097982F09
:100B600090950FB75E962C915E97122F127021FD13
:100B70006095F8942081112319F1282B2083E70137
:100B80002197F1F728E0462F50E0308160FF1AC02E
:100B9000382B3083E7012197F1F7BA0175956795F6
:100BA000215089F7112381F08081892380830FBF31
:100BB0005C968D919C910197F1F781E090E0C1CF17
:100BC0002923DCCF3923E5CF9081892BEFCF2091EA
:100BD0003003309131032817390761F480912F03D6
:100BE00020912E0390E0805C9F4F821B91098F73B0
:100BF0009927089590E080E0089520913003309186
:100C0000310328173907B9F490912E0380912F03EF
:100C1000981789F0E0912E03F0E0EB51FD4F8081B1
:100C200020912E0330E02F5F3F4F2F733327209307
:100C30002E0390E008958FEF9FEF08952091C20258
:100C4000260F3327331F21323105ECF42091840322
:100C5000FC0190E080E0243069F082E00895A091EA
:100C6000C2022191AC014E555D4FA40FB52FB11DAD
:100C70002C930196861798F38091C202680F6093B7
:100C8000C20280E0089581E008951092840381E01B
:100C90008093830310925E0361E082E10E9423034C
:100CA00061E083E10E942303E9EBF0E080818E7F25
:100CB000808380818D7F808388E48093B80085E481
:100CC0008093BC00089510923D0310923C03109253
:100CD0008B031092AD030E9445068EE692E090933E
:100CE0003B0380933A038FE692E09093390380931D
:100CF00038030895CF93DF9391E09093A102882366
:100D0000B9F0C091B800D091BA008091BC008A7B44
:100D10008093BC0060E082E10E94230360E083E1F5
:100D20000E9423030E944506D093BA00C093B800E6
:100D3000DF91CF910895CF92DF92EF92FF920F93C0
:100D40001F93CF93DF93D091AD0381E0D13208F0B0
:100D50009CC0C091AC030E948D036B017C0180910B
:100D6000840381116CC082E08093840381E08093CE
:100D700083038FEF8093820310928103D0938003CB
:100D8000ACE8B3E0E0E6F3E080E0D8138DC0109269
:100D90005F0380915F03CC0FC82BC0935F038091EA
:100DA0005E03813009F084C010925E030E948D03BF
:100DB0006B017C0180915F038093BB00809186036F
:100DC00090918703A0918803B0918903892B8A2B86
:100DD0008B2BA1F00E948D03009186031091870355
:100DE00020918803309189036C197D098E099F0930
:100DF000061717072807390708F442C08091BC007E
:100E000083FDD8CF85EC8093BC000E948D036B01DD
:100E10007C0180918403823009F44CC0809182036C
:100E20008F3F09F469C080918203803209F466C063
:100E300080918203803309F463C084E026C08091EE
:100E4000860390918703A0918803B0918903892B31
:100E50008A2B8B2B09F483CF0E948D03009186038C
:100E60001091870320918803309189036C197D09C3
:100E70008E099F09061717072807390708F06FCF53
:100E8000809185030E947A0685E010928B03109270
:100E9000AD0310928A03DF91CF911F910F91FF90C4
:100EA000EF90DF90CF9008959D9191938F5F6DCFDC
:100EB00085EEA9CF8091860390918703A091880346
:100EC000B0918903892B8A2B8B2B09F4A2CF0E9426
:100ED0008D03009186031091870320918803309140
:100EE00089036C197D098E099F09061717072807C2
:100EF000390708F08ECFC4CF80E0C7CF82E0C5CFDE
:100F000083E0C3CFCF92DF92EF92FF920F931F93B4
:100F1000CF93DF93D82FC62F613208F098C00E947C
:100F20008D036B017C018091840381116BC081E092
:100F300080938403809383039FEF909382031092A6
:100F400081039C0F9093800380935F0380915F03E4
:100F5000DD0FD82BD0935F0380915E03813009F0C1
:100F600078C010925E030E948D036B017C0180911A
:100F70005F038093BB008091860390918703A091CB
:100F80008803B0918903892B8A2B8B2BA1F00E94B7
:100F90008D0300918603109187032091880330917F
:100FA00089036C197D098E099F0906171707280701
:100FB000390708F448C08091BC0083FDD8CF85EC88
:100FC0008093BC000E948D036B017C01809184039F
:100FD000813009F440C0809181038C1710F4C091D6
:100FE0008103E0E6F3E0AEE3B3E080E08C1355C0AC
:100FF0008C2FDF91CF911F910F91FF90EF90DF9099
:10100000CF9008958091860390918703A0918803E3
:10101000B0918903892B8A2B8B2B09F484CF0E94F2
:101020008D030091860310918703209188033091EE
:1010300089036C197D098E099F0906171707280770
:10104000390708F070CF809185030E947A06C0E0CE
:10105000CFCF85EEB5CF8091860390918703A09185
:101060008803B0918903892B8A2B8B2B09F4AECF8F
:101070000E948D03009186031091870320918803BD
:10108000309189036C197D098E099F09061717078E
:101090002807390708F09ACFD6CF91919D938F5F9B
:1010A000A5CFE0913D0380913C03E81730F4F0E0D8
:1010B000E25CFC4F808190E008958FEF9FEF0895F0
:1010C00090913D0380913C032FEF3FEF981748F438
:1010D000E92FF0E0E25CFC4F208130E09F5F9093CD
:1010E0003D03C901089580913C0390913D03891B04
:1010F000990B0895CF92DF92EF92FF920F931F9377
:10110000CF93DF937C01CB018A0120918A032223B4
:1011100089F0EB016B01C40ED51ECC15DD0569F01D
:101120006991D701ED91FC910190F081E02DC7010B
:101130000995F3CF642F0E941E06C801DF91CF915D
:101140001F910F91FF90EF90DF90CF900895CF9374
:10115000DF931F92CDB7DEB7698320918A032223E4
:10116000F9F02091AD03203258F021E030E0FC018D
:101170003383228390E080E00F90DF91CF91089538
:1011800080918B03E82FF0E0E457FC4F9981908326
:101190008F5F80938B038093AD0381E090E0ECCF71
:1011A00061E0CE0101960E941E06F7CFFC0124816A
:1011B00031E030938A032093AC0310928B0310929A
:1011C000AD038385682B89E594E00E94A7080C9401
:1011D0009B061F93CF93DF93EC0181E080938A03FA
:1011E00088E68093AC0310928B031092AD0360E00D
:1011F00089E594E00E94A7082D811AE0822F612FD3
:101200000E94B12C682F660F680F660F620F89E588
:1012100094E00E94A7082C81822F612F0E94B12C9C
:10122000682F660F680F660F620F89E594E00E94D1
:10123000A7082B81822F612F0E94B12C682F660F87
:10124000680F660F620F89E594E00E94A70860E0CE
:1012500089E594E00E94A7082A81822F612F0E94CD
:10126000B12C682F660F680F660F620F89E594E056
:101270000E94A7082981822F612F0E94B12C682F1C
:10128000660F680F660F620F89E594E00E94A70859
:101290002881822F612F0E94B12C682F660F680F62
:1012A000660F620F89E594E00E94A708DF91CF9155
:1012B0001F910C949B0690E080E008952091A0027D
:1012C000253009F090F490919F02E92FF0E0E65666
:1012D000FD4F80832F5F2093A0029F5F953018F40D
:1012E00090939F02089510929F02089560E08CE011
:1012F0000E94230370E060E086E10C940205CF9227
:10130000DF92FF920F931F93CF93DF936C0181E0E5
:1013100080938A0388E68093AC0310928B0310922B
:10132000AD0360E089E594E00E94A7080E949B0657
:1013300067E088E60E94820710923D0380933C0399
:1013400089E594E00E9460088F77282F30E094E0D0
:10135000359527959A95E1F7922F990F990FC22FFE
:10136000C91BCC0FC80F89E594E00E9460089C015E
:1013700044E0359527954A95E1F72F703327922F52
:10138000990F990FD22FD91BDD0FD80F89E594E063
:101390000E9460089C0154E0359527955A95E1F725
:1013A0002F703327922F990F990F122F191B110F9E
:1013B000180F89E594E00E94600889E594E00E9496
:1013C00060089C0164E0359527956A95E1F72F70D8
:1013D0003327922F990F990F022F091B000F080F27
:1013E00089E594E00E9460089C0174E0359527959A
:1013F0007A95E1F72F703327922F990F990FF22EDC
:10140000F91AFF0CF80E89E594E00E9460089C012F
:10141000E4E035952795EA95E1F72F703327922F71
:10142000990F990F291B220F820FF6018083F182F9
:1014300002831383D483C583C601DF91CF911F91AB
:101440000F91FF90DF90CF9008950F931F93CF934C
:101450008C01C62F0E94D6086C2F6460C8010E94C0
:10146000D6086C2F6B7FC8010E94D60883EC90E0F1
:101470000197F1F7CF911F910F9108950F931F934B
:10148000CF93DF938C01D62FC42F607F642B0E94F3
:10149000250A80E1D89FB00111246C2BC801DF918F
:1014A000CF911F910F910C94250ACF93DF93CDB765
:1014B000DEB728970FB6F894DEBF0FBECDBF98E019
:1014C000ECE0F1E0DE01119601900D929A95E1F7C2
:1014D0009091BB04961708F46FEF262F30E0220F8F
:1014E000331F41E050E04C0F5D1F240F351FF90101
:1014F0006081680F606840E083EB94E028960FB647
:10150000F894DEBF0FBECDBFDF91CF910C943E0AA1
:1015100040E061E083EB94E00E943E0A8BE39FE1B0
:101520000197F1F708950F931F938091F60390911F
:10153000F703A091F803B091F903409196025091FE
:1015400097026091980270919902481759076A07AB
:101550007B071CF10091FA031091FB032091FC031F
:101560003091FD03800F911FA21FB31F84179507B1
:10157000A607B70794F0012B022B032B71F0809183
:101580009502811150C081E08093950285E080939F
:1015900032031F910F910C94880A8091FE03909161
:1015A000FF03A0910004B0910104481759076A078E
:1015B0007B07ECF0009102041091030420910404D5
:1015C00030910504800F911FA21FB31F8417950748
:1015D000A607B70764F0012B022B032B41F0809183
:1015E0009402811120C081E080939402CFCF80913A
:1015F00032038530C1F480919402813021F08091D2
:101600009502813081F460E08CE00E94230360E069
:101610008AE00E94230310929502109294020E9485
:10162000880A109232031F910F91089541E00E94A1
:101630003E0A81E090E008950F931F93CF93DF93CC
:101640008C01D0E0C0E0F801EC0FFD1F649166232F
:1016500039F041E083EB94E00E943E0A2196F3CFFB
:10166000CE01DF91CF911F910F910895009769F0FE
:10167000FC0101900020E9F73197AF01481B590B9D
:10168000BC0183EB94E00C94A40290E080E0089508
:101690000F931F93CF93DF93EC01CB01009759F485
:1016A00060E372E0CE010E94322FCE01DF91CF9134
:1016B0001F910F91089520E077FF06C02DE2288347
:1016C00091958195910921E0803137E293070CF5DE
:1016D000883E33E09307FCF432E0843691052CF425
:1016E00031E08A3091050CF430E0230FFE01E20F67
:1016F000F11D11820AE010E0FE01E20FF11DB801B8
:101700000E94D12C805D8083CB0121500097A1F7EE
:10171000CCCF34E0EACF33E0E8CFCF93DF93BC0106
:10172000EC0109900020E9F72197C81BD90BC031C3
:1017300008F58CE294E00E94322F80E18C1BEBE1F3
:10174000F4E090E020E2AF014B51544048175907B4
:1017500014F42193F8CF855E9B4FFC0110826BE15E
:1017600074E08CE294E00E941E2F8CE294E0DF9102
:10177000CF91089541E150E08CE294E00E94392F2E
:10178000F4CF0F931F93CF93DF93EC018B01FB01F9
:1017900001900020E9F73197E61BF70BE03128F5BF
:1017A000E41718F54E1B413108F040E1EBE1F4E09D
:1017B00050E080E39F012B5134402417350714F487
:1017C0008193F8CF455E5B4FFA0110826BE174E0C4
:1017D000CE010E94322FB801CE010E941E2FCE01F1
:1017E000DF91CF911F910F91089550E04F5F5F4FB0
:1017F000B801CE010E94392FF2CF42E550E070E0EF
:1018000060E084EB93E00C94532CE0910301E150F1
:10181000E93008F045C1F0E0E05FF34F0C94042D8F
:10182000190C2E0C410C540C670C7C0C500DB10C97
:10183000360D84E00E94FA02892B09F431C170E070
:1018400060E082E10E94020568EE73E080E090E0D3
:101850000E94B20382E080930301089584E00E9415
:10186000FA02892B09F41CC16091B00481E00E9446
:101870005C0568EE73E080E090E00E94B20383E0D4
:10188000EACF84E00E94FA02892B09F409C1609131
:10189000AE048FE20E945C0568EE73E080E090E0A9
:1018A0000E94B20384E0D7CF84E00E94FA02892B21
:1018B00009F4F6C06091AF0480E30E945C0568EE15
:1018C00073E080E090E00E94B20385E0C4CF84E042
:1018D0000E94FA02892B09F4E3C00E94700261E0C1
:1018E000680F81E30E945C0568EE73E080E090E0A1
:1018F0000E94B20386E0AFCF84E00E94FA02892BF7
:1019000009F4CEC08091B004863019F08D7F883004
:10191000C9F48091AD0490E08053984F2091D60394
:101920003091D7032817390779F48091AE0460917C
:10193000AF048E5C0E945C0568EE73E080E090E08E
:101940000E94B20388E087CF215031092817390758
:10195000C9F78091AE048C30A9F76091AF0482E39F
:10196000E9CF84E00E94FA02892B09F499C0209102
:10197000DA033091DB038091B00490E02817390737
:1019800021F42330310509F040C02091DC0330916F
:10199000DD038217930721F48330910509F041C0DC
:1019A0002091DE033091DF03A901445F5F4F84176C
:1019B000950719F42330310571F52091E00330913A
:1019C000E103A901445F5F4F8417950739F16091E6
:1019D000CE037091CF0382E10E9402058091CE0375
:1019E0009091CF0301969093CF038093CE032091E3
:1019F000D0033091D1032817390774F581E090E0C6
:101A00009093CF038093CE0327C06091E20382E0DE
:101A10000E945C0523C06091E403F9CF23303105B7
:101A2000B1F26091D40384E00E945C058091D403FC
:101A30009091D50301969093D5038093D403209180
:101A4000D2033091D3032817390734F481E090E0B2
:101A50009093D5038093D4030E94FD0B68EE73E04E
:101A600080E090E00E94B20389E0F5CE84E00E941D
:101A7000FA02892BA9F081E0809303010E94880A71
:101A8000109232030E94E503609333037093340392
:101A9000809335039093360360E08CE00C9423032D
:101AA00008950F931F93CF93DF93EC018881998161
:101AB000009759F02A813B812617370730F081E0E3
:101AC000DF91CF911F910F9108958B016F5F7F4F31
:101AD0000E94582E009759F0998388831B830A83AC
:101AE0002C813D81232B59F7FC011082E8CF80E047
:101AF000E7CFCF93DF93EC0188819981009711F0B4
:101B00000E94CF2D198218821D821C821B821A828C
:101B1000DF91CF910895EF92FF920F931F93CF9390
:101B2000DF93EC01FB01E080F180E114F10411F19D
:101B30000481158101151105A9F08C819D81080F83
:101B4000191FB801CE010E94510D882399F02881F8
:101B500039818C819D81B701820F931F0E94322FA2
:101B60001D830C83CE01DF91CF911F910F91FF90C8
:101B7000EF900895CE010E94790DF4CFEF92FF927D
:101B80000F931F93CF93DF93EC017B01198218828F
:101B90001B821A821D821C82FB0101900020E9F742
:101BA00031978F01061B170BB8010E94510D81114F
:101BB00009C0CE01DF91CF911F910F91FF90EF905F
:101BC0000C94790D1D830C83B70188819981DF9175
:101BD000CF911F910F91FF90EF900C94322FFC0149
:101BE00080819181009711F00C94CF2D089585ED9F
:101BF0008093BC008091860390918703A091880315
:101C0000B09189030796A11DB11D23E0B695A79554
:101C1000979587952A95D1F72091BC0024FD03C0A4
:101C20001092840308954091860350918703609138
:101C3000880370918903452B462B472B69F3009746
:101C4000A105B10541F02AE22A95F1F700C00197FC
:101C5000A109B109E1CF809185030C947A066F92B6
:101C60007F928F929F92AF92BF92CF92DF92EF922C
:101C7000FF920F931F93CF93DF93CDB7DEB7E98821
:101C8000FA88FE017496D12CC12C712CAB88B12C32
:101C900080E1682E872D90E0CA14DB042CF52FE03C
:101CA000271510F14F0122E0820E911C6081718195
:101CB000FB0101900020E9F731978F01061B170BFC
:101CC0009C01200F311D462D4719213131050CF49F
:101CD000402F50E08E0D9F1D0E94392F700E8FEF08
:101CE000C81AD80AF401D6CF8E0D9F1DFC011082B0
:101CF000C701DF91CF911F910F91FF90EF90DF907F
:101D0000CF90BF90AF909F908F907F906F900895ED
:101D1000CF92DF92EF92FF920F931F93CF93DF93B7
:101D2000CDB7DEB760970FB6F894DEBF0FBECDBF5C
:101D3000188A1F862AE32F872CE330E040E050E02A
:101D40000E94E52C6B01B901CE0101960E94480B5F
:101D50008E01045F1F4F42E0BE016F5F7F4FC801DD
:101D60000E94C10BB601CE0101960E94480B7E0174
:101D700089E0E80EF11C42E0BE016F5F7F4FC701B2
:101D80000E94C10BFF92EF92CE010F969F938F930B
:101D90001F930F9383E08F938AE094E09F938F9338
:101DA0000E942F0E0FB6F894DEBF0FBECDBF8AE0A3
:101DB00094E060960FB6F894DEBF0FBECDBFDF9102
:101DC000CF911F910F91FF90EF90DF90CF900895EA
:101DD0008F929F92AF92BF92CF92DF92EF92FF923B
:101DE0000F931F93CF93DF93CDB7DEB760970FB6F6
:101DF000F894DEBF0FBECDBF188A1F862AE32F8757
:101E00002CE330E040E050E00E94E52C4B017901EA
:101E10002D30310514F02C503109B901CE01019655
:101E20000E94480B8E01045F1F4F42E0BE016F5FAE
:101E30007F4FC8010E94C10BB401CE0101960E94E0
:101E4000480B6E0199E0C90ED11C42E0BE016F5FE4
:101E50007F4FC6010E94C10B8CE0E816F10474F5B7
:101E600083E791E09F938F93DF92CF92CE010F96FD
:101E70009F938F931F930F9384E08F938AE094E056
:101E80009F938F930E942F0E0FB6F894DEBF0FBE64
:101E9000CDBF8AE094E060960FB6F894DEBF0FBE27
:101EA000CDBFDF91CF911F910F91FF90EF90DF9009
:101EB000CF90BF90AF909F908F9008958CE691E067
:101EC000D1CFCF92DF92EF92FF920F931F93CF93D8
:101ED000DF93CDB7DEB765970FB6F894DEBF0FBEC0
:101EE000CDBF8250803208F0DFC1E82FF0E0E55826
:101EF000F04F0C94042D9B0F011054111810471033
:101F000063106E107B10A91054118410B510541179
:101F1000BE10CB10D010DE10E310E8100A115111E2
:101F200054110F111811541121112A1135113E119C
:101F300054114C1147111D8A1C8A8FE28C8B6091C1
:101F4000B2037091B303CE0101960E94480B8E013B
:101F50000F5E1F4F42E0BE016F5F7F4FC8010E94BE
:101F6000C10B6091B0037091B103CE0101960E9444
:101F7000480B7E018EE0E80EF11C42E0BE016F5F6F
:101F80007F4FC7010E94C10B6091AE037091AF03F8
:101F9000CE0101960E94480B6E0199E0C90ED11C3A
:101FA00044E0BE016F5F7F4FC6010E94C10BDF920C
:101FB000CF92CE0144969F938F93FF92EF929F937F
:101FC0008F931F930F9385E08F938AE094E09F9304
:101FD0008F930E942F0E0FB6F894DEBF0FBECDBFB9
:101FE0008AE094E065960FB6F894DEBF0FBECDBFD1
:101FF000DF91CF911F910F91FF90EF90DF90CF90E5
:102000000895A0910804B09109042CE330E00E94E7
:102010000A2D0091060410910704012E000C220BDA
:10202000330B600F711F821F931F0E94E80ED8CFE1
:102030006091C3037091C4036D30710514F06C504E
:102040007109CE0101960E94480B8E01075F1F4F58
:1020500042E0BE016F5F7F4FC8010E94C10B8091BB
:10206000C3039091C4030C971CF480E791E002C075
:1020700089E691E09F938F931F930F9382E08F9354
:102080008AE094E09F938F930E942F0EA4CF6091DB
:10209000C5037091C6036D30710514F06C50710961
:1020A000CE0101960E94480B8E01075F1F4F42E050
:1020B000BE016F5F7F4FC8010E94C10B8091C503B5
:1020C0009091C603D0CF6091D0037091D103CE011F
:1020D00001960E94480B2BE731E00AC06091C703CC
:1020E0007091C803CE0101960E94480B22E831E0AE
:1020F0003F932F9340C06091C9037091CA03CE01F2
:1021000001960E94480B2BC000910401109105011B
:10211000B8010D30110514F06C507109CE01019613
:102120000E94480B7E0199E0E90EF11C42E0BE01DD
:102130006F5F7F4FC7010E94C10B80E791E00C30B9
:10214000110514F089E691E09F938F93FF92EF922F
:1021500095CF8091CD03882329F088EB91E09F9360
:102160008F934AC087E791E0FACF8BE891E09F9385
:102170008F9383E991E09F938F9380CF6091DA03EF
:102180007091DB036330710509F095C025EA31E0F9
:1021900087E791E0ADCF6091DC037091DD03F2CF72
:1021A0006091DE037091DF036330710579F3CE0136
:1021B00001960E94480B2CE631E09ACF6091E00333
:1021C0007091E103F1CF6091D2037091D3037FCF7F
:1021D0006091E2037091E303CE0101960E94480BE7
:1021E0008E01075F1F4F43E0BE016F5F7F4FC80145
:1021F0000E94C10B1F930F9381E08F938AE094E0BC
:102200009F938F930E942F0E0F900F900F900F901F
:102210000F90E6CE6091E4037091E503DDCF60910D
:10222000E6037091E7038091E8039091E903FDCE06
:102230006091EA037091EB038091EC039091ED03C0
:10224000F4CE6091F6037091F7038091F8039091BA
:10225000F903EBCE6091FA037091FB038091FC03CC
:102260009091FD030E94880EBBCE6091FE03709199
:10227000FF038091000490910104D7CE6091020485
:10228000709103048091040490910504EBCF609158
:10229000D8037091D90333CF6091D6037091D703DF
:1022A0002ECF10920A049CCE63E371E08AE094E0A2
:1022B0000E94322F95CECE0101960E94480B23E753
:1022C00031E016CF6F927F929F92AF92BF92CF92E2
:1022D000DF92EF92FF920F931F93CF93DF93CDB7CF
:1022E000DEB7A3970FB6F894DEBF0FBECDBFCE0109
:1022F00009960E947F096C85662309F4E4C06C305E
:1023000011F008F06C5070E0CE0101960E94480B6D
:102310008E01085E1F4F42E0BE016F5F7F4FC80114
:102320000E94C10BCE0109960E947F096D8570E065
:10233000CE0101960E94480B7E012BE1E20EF11CBA
:1023400042E0BE016F5F7F4FC7010E94C10BCE010B
:1023500009960E947F096E8570E0CE0101960E9469
:10236000480B6E013EE1C30ED11C42E0BE016F5F1F
:102370007F4FC6010E94C10B60E080E00E94550AB9
:10238000CE0109960E947F098C858C3008F09DC093
:102390008FE991E09F938F93DF92CF9286EA91E04D
:1023A0009F938F93FF92EF929F938F931F930F931F
:1023B00083EAE82E81E0F82EFF92EF9297E0992EC3
:1023C0009F920CE214E01F930F930E942F0E0E9425
:1023D000360BCE0109960E947F096B8570E0CE0115
:1023E00001960E94480B6E0181E2C80ED11C42E0AA
:1023F000BE016F5F7F4FC6010E94C10BCE010996DF
:102400000E947F09698570E06053784FCE01019684
:102410000E94480B3E012FE0620E711C44E0BE0199
:102420006F5F7F4FC3010E94C10BCE0109960E94CE
:102430007F098A858150990B26E0289FF001299F0A
:10244000F00D1124EB59FB4F608171815E0134E185
:10245000A30EB11CC5010E94322F61E080E00E94F2
:10246000550A82EA91E09F938F937F926F9288EA58
:1024700091E09F938F93BF92AF929F938F93DF9240
:10248000CF92FF92EF929F921F930F930E942F0E75
:102490000FB6F894DEBF0FBECDBF0E94360BA396D9
:1024A0000FB6F894DEBF0FBECDBFDF91CF911F9165
:1024B0000F91FF90EF90DF90CF90BF90AF909F90E3
:1024C0007F906F9008956CE01ECF88E991E062CF15
:1024D0001F93CF93DF93CDB7DEB761970FB6F89414
:1024E000DEBF0FBECDBF0E946102182F60E080E00A
:1024F0000E94550A0E944F0290914304E0914004CB
:10250000F0914104882349F186E0989FE00DF11D88
:102510001124319665917491CE0101960E94072C89
:102520000E948D0B8EE780933B048CE294E00E9426
:10253000360B88EE810F823020F01B3111F01D31F7
:1025400031F561E080E00E94550A84EA91E00E9442
:10255000360B812F0E94610F20C086E0989FE00D0E
:10256000F11D1124319665917491CE0101960E945E
:10257000072C0E948D0B0E946102182F81111BC035
:102580008FE780933B048CE294E00E94360B61E07D
:1025900080E00E94550A83E291E00E948D0B0E9428
:1025A000360B61960FB6F894DEBF0FBECDBFDF913C
:1025B000CF911F9108958CE294E00E94360BC1CF19
:1025C0004F925F926F927F928F929F92AF92BF9243
:1025D000CF92DF92EF92FF920F931F93CF93DF93EF
:1025E000CDB7DEB7EC970FB6F894DEBF0FBECDBF08
:1025F0000E94E50300917702109178022091790200
:1026000030917A02601B710B820B930B6431710560
:102610008105910508F4A0C00E94E503609377024C
:10262000709378028093790290937A0285E00E94F9
:10263000FA028C0186E00E94FA0277247394892BB7
:1026400031F081E0012B09F480E0782E719487E06D
:102650000E94FA02892B11F442E0742E88E00E9455
:10266000FA02892B11F433E0732E80E10E94FA0202
:10267000892B11F424E0722E0AE4E02E02E0F02E01
:102680000EE512E082E7882E82E0982E9EE1A92EC8
:1026900091E0B92E640166246394412C41102DC150
:1026A000F5018081871129C1442443945524539412
:1026B000F60181916F018515A9F0552009F41FC11C
:1026C000862D0E945E090E94E503F80160837183F4
:1026D00082839383F7016083718382839383F601FE
:1026E00031975082552061F10E94E503F801208165
:1026F000318142815381621B730B840B950B613DC9
:10270000774081059105E0F00E94E503F701208103
:10271000318142815381621B730B840B950B6B3F9C
:1027200071058105910560F08C2D881980680E94E3
:102730005E090E94E503F7016083718382839383BE
:102740006394F4E0EF0EF11C0C5F1F4F2FEFA21A01
:10275000B20A66E06612A2CF9091A00219160CF49C
:10276000E6C01092930280919302833819F580910C
:102770008E0281111FC08091CC0381113CC181E088
:102780008093CC0361E080E00E94550A8EE293E0E2
:102790000E941C0B6091CC038FE00E94230368EE23
:1027A00073E080E090E00E94B2030E94FD0B81E0A4
:1027B00080938E0210919302009132038EE3810F79
:1027C000843008F021C110928E020E94E503C0906F
:1027D0003303D0903403E0903503F09036036C1946
:1027E0007D098E099F096D3271408105910540F088
:1027F00010928D0210928C0210928A02109289021D
:102800000E94E503C0908502D0908602E090870286
:10281000F09088026C197D098E099F09653F71400F
:102820008105910508F44EC08091CC03882309F4FA
:1028300049C00E94E50360938502709386028093ED
:102840008702909388028090E6039090E703A0901F
:10285000E803B090E90381149104A104B10491F15B
:10286000C090EA03D090EB03E090EC03F090ED030E
:10287000C114D104E104F10429F140919602509170
:102880009702609198027091990280918B028C144A
:102890009D04AE04BF040CF0E7C0481559056A0555
:1028A0007B050CF4D7C04C155D056E057F050CF05B
:1028B000D1C0811107C061E08BE00E94230381E059
:1028C00080938B026091CC038FE00E942303609180
:1028D000CB038EE00E942303083008F013C2E02FE0
:1028E000F0E0EB58FB4E0C94042D3B15F8178319C0
:1028F000CF17F4239C2499163717512CD9CE0E9458
:10290000E503F8012081318142815381621B730B01
:10291000840B950B613D77408105910528F0862D4C
:10292000806C0E945E09DBCE862D8064FACF809198
:102930007B02E82FF0E0E656FD4F10819150909316
:10294000A0028F5F853008F04AC080937B0210930D
:102950009302112309F42ECF0E94E5036093330301
:102960007093340380933503909336030E94E503FC
:1029700060938F02709390028093910290939202E1
:1029800088E08093BE0460E083EB94E00E94D60868
:10299000123809F0E8CE80918E0281110BCF809120
:1029A000CB0381111FC081E08093CB0361E080E005
:1029B0000E94550A80E593E00E941C0B6091CB03B6
:1029C0008EE00E94230368EE73E080E090E00E94B6
:1029D000B2030E94FD0B81E080938E02C4CE109260
:1029E0007B02B5CF1092CB0361E080E00E94550AD4
:1029F0008FE393E0E1CF1092CC0361E080E00E948E
:102A0000550A8DE193E0C4CE133009F0DECE0023E9
:102A100019F0053009F0D9CE80918C0290918D0289
:102A2000019690938D0280938C0202970CF4CDCE88
:102A30008BE00E94FA0261E0892B09F060E08BE0F4
:102A40000E94230381E090918B02911180E080939A
:102A50008B02BBCE813009F035CF60E08BE00E9465
:102A6000230310928B022ECF481559056A057B056A
:102A70000CF01FCF18CF60E08CE00E94230360E0D1
:102A80008AE00E942303113881F481E080933203AD
:102A900083E00E9468120E94E50360938F027093A6
:102AA00090028093910290939202809193028130E0
:102AB00019F58091890290918A02019690938A0279
:102AC000809389020497C4F0CE0149960E947F0941
:102AD0008D8D8F3108F4EAC0CE0143960E947F09A4
:102AE0008E8990E00196909305018093040184E023
:102AF000809332030E94880ACE0143960E947F0988
:102B00008F8981115DC0CE0101960E947F098E815F
:102B1000811156C00E94E503AB01BC018091810286
:102B200090918202A0918302B0918402885B9141CE
:102B3000AF4FBF4F84179507A607B70708F040C0EF
:102B4000CE0101960E947F0986E0FE013196ADEA32
:102B5000B4E001900D928A95E1F78091B00490E085
:102B60002091C3033091C403821793074CF1209145
:102B7000C5033091C6032817390714F18091CD039E
:102B8000882309F49AC00E947002882309F495C032
:102B90008091B0048A50873008F08FC00E94880A64
:102BA00060E080E00E94550A8AEA91E00E94360BBC
:102BB00068EE73E080E090E00E94B2030E94880A11
:102BC0000E94E50300917D0210917E0220917F0218
:102BD00030918002601B710B820B930B693E734036
:102BE0008105910570F10E94E50360937D02709369
:102BF0007E0280937F02909380020E946211CE0138
:102C000043960E947F098E896CE3869F8001112480
:102C1000CE0101960E947F098D81800F912F911D19
:102C2000092E000CAA0BBB0B80939602909397027F
:102C3000A0939802B09399028091CB0381110E94D6
:102C4000930A0E94E503009133031091340320910D
:102C50003503309136036B017C01C01AD10AE20AB8
:102C6000F30AA091C703B091C80328EE33E00E9495
:102C70000A2D6C157D058E059F0538F41092BE0453
:102C800060E083EB94E00E94D6088091930285383F
:102C900031F580918E02811135C085E08093320339
:102CA0000E94880A81E080938E022CC0CE0101969A
:102CB0000E947F098C8190E016CF61E08CE00E9439
:102CC00023030E94E5036093810270938202809344
:102CD00083029093840283E0809332036FCF843821
:102CE00089F480918E0281110DC086E080933203B9
:102CF0000E94E50360938F0270939002809391028B
:102D000090939202EC960FB6F894DEBF0FBECDBF43
:102D1000DF91CF911F910F91FF90EF90DF90CF90B7
:102D2000BF90AF909F908F907F906F905F904F90EB
:102D300008950E94E50300917D0210917E0220918A
:102D40007F0230918002601B710B820B930B6D32FE
:102D500071408105910598F080910201882309F462
:102D600058C00E946211109202010E94E503609314
:102D70007D0270937E0280937F0290938002109177
:102D80009302123009F051C0CE01C1960E947F0912
:102D9000FEA8CE018B960E947F09EFA4CE018596F6
:102DA0000E947F0988A500E0883130F4CE014F965B
:102DB0000E947F090AA10F5FCE0149960E947F09F8
:102DC000DB8CCE0143960E947F09CC88CE01019610
:102DD0000E947F0989818FABC8AED9AE0AAFEBAE36
:102DE000FCAECE01C7960E94E9080E94E503C090A0
:102DF0008F02D0909002E0909102F09092026C19B4
:102E00007D098E099F09613177428105910530F571
:102E100029C060E082E00E94550A83EA91E00E94A6
:102E2000360B81E080930201A0CF1330A9F4CE01CC
:102E3000C1960E947F09FEA8CE018B960E947F0951
:102E4000EFA4CE0185960E947F09CE014F960E9485
:102E50007F090AA10150B0CF113039F61092320328
:102E60000E94880A143009F04DCF87E03FCF0E94BE
:102E7000E50300917D0210917E0220917F02309146
:102E80008002601B710B820B930B6D3271408105C8
:102E9000910598F080910201882309F458C00E949E
:102EA0006211109202010E94E50360937D0270930B
:102EB0007E0280937F029093800280919302823001
:102EC00009F051C0CE01C1960E947F090EA9CE0122
:102ED0008B960E947F098FA510E08C3330F4CE01D1
:102EE00085960E947F0919A51F5FCE014F960E940B
:102EF0007F09FAA0CE0149960E947F09EB8CCE0192
:102F000043960E947F09DC88CE0101960E947F09CA
:102F100089818FABD8AEE9AEFAAE1BAF0CAFCE0154
:102F2000C7960E94E9080E94E50300918F02109164
:102F300090022091910230919202601B710B820BE2
:102F4000930B613177428105910508F5DBCE60E096
:102F500085E00E94550A83EA91E00E94360B81E0E9
:102F600080930201A0CF833081F4CE01C1960E94EC
:102F70007F090EA9CE018B960E947F09CE0185960E
:102F80000E947F0919A51150B0CF813029F4109209
:102F900032030E94880AB6CE8430C9F3C4CF88E0D9
:102FA0008093BE0460E083EB94E00E94D60861E069
:102FB00080E00E94550A8BEB91E00E94360B0E9444
:102FC000E503AB01BC018091810290918202A09146
:102FD0008302B091840288579C4EAF4FBF4F481771
:102FE00059076A077B0708F48DCE0E94050C8ACE2C
:102FF0000E94E50300918F021091900220919102AE
:1030000030919202601B710B820B930B61337547F9
:1030100081059105D8F084E00E94FA02892B11F411
:103020000E94760980913D0490913E049093410462
:103030008093400480913F048093420410924304A3
:1030400010925804109232030E94880A0E94610272
:10305000813009F057C0CE0101960E947F098B8113
:1030600090E09093B3038093B203CE0101960E9447
:103070007F098A8190E09093B1038093B003CE01E1
:1030800001960E947F09898190E08053984F909328
:10309000AF038093AE03CE0101960E947F098C811D
:1030A00090E09093090480930804CE0101960E9459
:1030B0007F098D8190E090930704809306040E941D
:1030C0006102833049F10E946102883129F10E9436
:1030D0006102893109F10E9461028B31E9F00E949D
:1030E00061028C31C9F00E9461028D31A9F00E9409
:1030F00061028E3189F00E946102823079F48093FE
:103100007C020CC00E946102823009F4A4CF0E94AC
:1031100061028330A1F69FCF10927C02109193023E
:103120001438A1F480913D0490913E0490934104A1
:103130008093400480913F048093420410924304A2
:1031400010925804109232030E94880A0E944F0283
:10315000812F8F77823061F1833061F1113061F11D
:10316000143461F110E08DEF810F823008F0ADC0B2
:103170000E946102882321F1143011F10E944F0254
:10318000811161C082E0809332030E946102882332
:1031900009F4B8CD61E080E00E94550A8EE7809383
:1031A0002C0410922D048CE294E00E94360BAACDE0
:1031B00011E0D9CF12E0D7CF13E0D5CF14E0D3CFB1
:1031C0008091580481111AC080913D0490913E0471
:1031D000909341048093400480913F048093420483
:1031E0001092430484E00E94FA02892B11F40E9499
:1031F00076090E94880A1092320384CD8150809310
:10320000580490E0DC01AA0FBB1FAA0FBB1FA35CF0
:10321000BB4F19962D913C911A97309341042093FE
:103220004004880F991F880F991FFC01EB5BFB4F2F
:1032300080818093420417968C918093430482E0AE
:103240000E9468125FCD0E944F02882309F43BC0A0
:10325000509143048091400490914104409158045E
:103260004530E8F460914204242F30E0D901AA0FE0
:10327000BB1FAA0FBB1FA35CBB4F17965C9317978E
:10328000220F331F220F331FF901EB5BFB4F6083CB
:103290001A969C938E9319974F5F4093580426E09B
:1032A000529F800D911D1124FC013596E491E0930D
:1032B0004204FC013396859194919093410480934C
:1032C00040041092430483E0BBCF113051F480914D
:1032D0004304882309F416CD81508093430480E091
:1032E000AFCF123009F00ECD8091430420914204FB
:1032F0002150330B821713060CF004CD8F5F80939F
:10330000430481E09DCF0E946102F82EEEEFE80FAA
:10331000E03210F00C940A23F0E0EF56F64E0C94D5
:10332000042DB119BE1A0A23451B741BA01BC81B10
:10333000F51B2C1C0A23401C6F1C0A23871CE31C52
:10334000B51C111D3F1D671D9D1D3D220A23CE1D6D
:10335000831E0A23311FDF1F8D2039210A231022EB
:10336000E921123009F08DC080917C02823009F091
:103370005EC08091B2039091B303019680329105B3
:1033800014F081E090E09093B3038093B20300E0E7
:1033900010E080919302843421F0112311F40C94F5
:1033A0007A2361E081E00E94550A8F2D0E94610F0F
:1033B0000E948D0B0E94360B01E00E94E503C09035
:1033C0008F02D0909002E0909102F09092026C19DE
:1033D0007D098E099F096133754781059105D8F0F4
:1033E00084E00E94FA02892B11F40E9476098091F0
:1033F0003D0490913E049093410480934004809159
:103400003F04809342041092430410925804109297
:1034100032030E94880A002309F474CC81E080936F
:10342000320361E080E00E94550A80E2B8CE83302A
:1034300089F48091B0039091B10301968D3091058C
:1034400014F081E090E09093B1038093B00300E02A
:1034500010E09FCF00E010E0843009F09ACF809117
:10346000AE039091AF030196833068E0960714F0A5
:1034700084EE97E09093AF038093AE0300E010E0FA
:1034800088CF133009F03FC080917C02823089F4EC
:103490008091B2039091B30301971816190614F0A6
:1034A0008FE190E09093B3038093B20300E010E0CB
:1034B00070CF833089F48091B0039091B10301976C
:1034C0001816190614F08CE090E09093B1038093E5
:1034D000B00300E010E05DCF00E010E0843009F0C0
:1034E00058CF8091AE039091AF0301978230E8E00E
:1034F0009E0714F484EE97E09093AF038093AE039D
:1035000000E010E046CF113011F00C940E238091B2
:103510007C02823031F483E080937C0200E010E092
:1035200038CF833031F484E080937C0200E010E0F7
:1035300030CF843011F00C94122320910604309186
:1035400008044091B2035091B0038091AE03909172
:10355000AF03803DF7E09F0710F0805D97408983BF
:103560005A834B833C832D831E82CE0101960E9499
:10357000E90881E08093020100E00BCF123049F5A9
:1035800010917C02111110C08091080490910904DF
:1035900001968831910514F090E080E09093090441
:1035A0008093080400E0F5CE113011F00C9416233E
:1035B000809106049091070401968C33910514F0D4
:1035C00090E080E0909307048093060400E010E010
:1035D000E0CE133039F510917C0211110FC08091AB
:1035E000080490910904019797FF02C087E190E0D9
:1035F000909309048093080400E0CBCE113011F0C1
:103600000C941A238091060490910704019797FF68
:1036100002C08BE390E0909307048093060400E0DF
:1036200010E0B7CE113011F00C941E2310917C02E3
:10363000111106C081E080937C0200E010E0A9CE69
:10364000113011F00C9422232091060430910804CB
:103650004091B2035091B0038091AE039091AF03BB
:10366000803D67E0960710F0805D974089835A831C
:103670004B833C832D831E82CE0101960E94E90874
:1036800081E08093020100E084CE812F8F77823029
:1036900089F48091C3039091C40301968831910508
:1036A00014F090E080E09093C4038093C30301E0A2
:1036B00010E06FCE833081F48091C3039091C403F6
:1036C000019797FF02C087E190E09093C403809335
:1036D000C30301E010E05DCE113009F0B7C70E94CE
:1036E000FD0B01E011E055CE812F8F77823089F4F8
:1036F0008091C5039091C60301968831910514F01D
:1037000090E080E09093C6038093C50301E010E051
:1037100040CE833081F48091C5039091C603019718
:1037200097FF02C087E190E09093C6038093C503A2
:1037300001E010E02ECE113091F200E010E029CE31
:10374000812F8F77823061F48091D0039091D103E3
:1037500001969093D1038093D00301E010E019CE3D
:10376000833081F48091D0039091D103019797FF2A
:1037700002C084E690E09093D1038093D00301E0EF
:1037800010E007CE113009F4AACF00E010E001CE1E
:10379000812F8F77823089F48091C7039091C8037D
:1037A00001968D33910514F090E080E09093C8036A
:1037B0008093C70301E010E0ECCD833081F4809169
:1037C000C7039091C803019797FF02C08CE390E074
:1037D0009093C8038093C70301E010E0DACD113065
:1037E00009F47DCF00E010E0D4CD812F8F778230B7
:1037F00089F48091C9039091CA0301968F31910594
:1038000014F081E090E09093CA038093C90301E033
:1038100010E0BFCD833089F48091C9039091CA0331
:1038200001971816190614F08EE190E09093CA03E0
:103830008093C90301E010E0ACCD113009F00AC754
:103840000E94FD0B6091C9037091CA03772786E03F
:103850000E94020501E09DCD8EEF810F823050F471
:1038600081E09091CD03911180E08093CD0301E040
:1038700010E08FCD113009F432CF00E010E089CD97
:10388000812F8F77823089F4809104019091050116
:1038900001968831910514F084E090E09093050141
:1038A0008093040101E010E074CD833089F48091AD
:1038B00004019091050101978430910514F487E18A
:1038C00090E0909305018093040101E010E061CD48
:1038D00001E0113009F45DCD00E010E05ACD809197
:1038E0003D0490913E049093410480934004809164
:1038F0003F0480934204109243041092580484E0E1
:10390000809332030E94880A00E010E042CD812FAC
:103910008F77823089F48091DA039091DB030196EE
:103920008930910514F083E090E09093DB0380935D
:10393000DA0301E010E02DCD833089F48091DA03C1
:103940009091DB0301978330910514F488E090E0B7
:103950009093DB038093DA0301E010E01ACD11307D
:1039600009F4BDCE00E010E014CD812F8F778230B6
:1039700089F48091DE039091DF03019689309105EF
:1039800014F083E090E09093DF038093DE0301E086
:1039900010E0FFCC833089F48091DE039091DF0347
:1039A00001978330910514F488E090E09093DF0351
:1039B0008093DE0301E010E0ECCC113009F48FCEEF
:1039C00000E010E0E6CC812F8F77823089F480917F
:1039D000DC039091DD0301968930910514F083E0BA
:1039E00090E09093DD038093DC0301E010E0D1CC04
:1039F000833089F48091DC039091DD03019783305B
:103A0000910514F488E090E09093DD038093DC034B
:103A100001E010E0BECC113009F461CE00E010E00E
:103A2000B8CC812F8F77823089F48091E003909118
:103A3000E10301968930910514F083E090E09093C2
:103A4000E1038093E00301E010E0A3CC833089F42C
:103A50008091E0039091E10301978330910514F484
:103A600088E090E09093E1038093E00301E010E0B0
:103A700090CC113009F433CE00E010E08ACC812FD5
:103A80008F77823061F48091D2039091D3030196B5
:103A90009093D3038093D20301E010E07ACC83307B
:103AA00081F48091D2039091D303019797FF02C0D4
:103AB00084E690E09093D3038093D20301E010E07A
:103AC00068CC113009F40BCE00E010E062CC812FFD
:103AD0008F77823099F48091E2039091E30301960D
:103AE0008531910514F081E090E09093E303809399
:103AF000E2030E94600501E010E04BCC833099F4B2
:103B00008091E2039091E30301971816190614F0CF
:103B100084E190E09093E3038093E2030E946005C8
:103B200001E010E036CC113009F098C50E9476090A
:103B30000E94FD0B01E011E02CCC812F8F778230A9
:103B400099F48091E4039091E50301968531910504
:103B500014F081E090E09093E5038093E4030E94E9
:103B6000600501E010E015CC833099F48091E40306
:103B70009091E50301971816190614F084E190E07E
:103B80009093E5038093E4030E94600501E010E058
:103B900000CC113059F200E010E0FBCB123009F0FC
:103BA0004CC010917C02111122C08091E6039091CB
:103BB000E703A091E803B091E903AC01BD01445CC7
:103BC0005F4F6F4F7F4F77FD08C0403AE5E05E07DB
:103BD0006105710514F4DB01CA018093E60390933B
:103BE000E703A093E803B093E90300E0D2CB1130E0
:103BF00009F038C58091E6039091E703A091E803AE
:103C0000B091E903AC01BD014F5F5F4F6F4F7F4F34
:103C100077FD08C0403AF5E05F076105710514F4CF
:103C2000DB01CA018093E6039093E703A093E803C6
:103C3000B093E90300E010E0ACCB812F8F778330A5
:103C400009F04CC010917C02111122C08091E60352
:103C50009091E703A091E803B091E903AC01BD01A5
:103C60004C5351096109710977FD08C0403A25E0BC
:103C700052076105710514F4DB01CA018093E60364
:103C80009093E703A093E803B093E90300E081CBAE
:103C9000113009F0EBC48091E6039091E703A09105
:103CA000E803B091E903AC01BD014150510961093C
:103CB000710977FD08C0403AE5E05E0761057105CE
:103CC00014F4DB01CA018093E6039093E703A09309
:103CD000E803B093E90300E010E05BCB113009F09A
:103CE000C9C480917C02882309F4A4CC00E010E0D0
:103CF000813009F04ECB0E94FD0B81E080930201E0
:103D000000E011E046CB123009F04CC010917C026B
:103D1000111122C08091EA039091EB03A091EC0372
:103D2000B091ED03AC01BD01445C5F4F6F4F7F4F1D
:103D300077FD08C0403AF5E05F076105710514F4AE
:103D4000DB01CA018093EA039093EB03A093EC0399
:103D5000B093ED0300E01DCB113009F08FC48091CA
:103D6000EA039091EB03A091EC03B091ED03AC0159
:103D7000BD014F5F5F4F6F4F7F4F77FD08C0403AE7
:103D800025E052076105710514F4DB01CA01809337
:103D9000EA039093EB03A093EC03B093ED0300E0F0
:103DA00010E0F7CA812F8F77833009F04CC0109153
:103DB0007C02111122C08091EA039091EB03A09143
:103DC000EC03B091ED03AC01BD014C535109610905
:103DD000710977FD08C0403AE5E05E0761057105AD
:103DE00014F4DB01CA018093EA039093EB03A093E0
:103DF000EC03B093ED0300E0CCCA113009F042C4EB
:103E00008091EA039091EB03A091EC03B091ED0354
:103E1000AC01BD01415051096109710977FD08C02C
:103E2000403AF5E05F076105710514F4DB01CA0152
:103E30008093EA039093EB03A093EC03B093ED031C
:103E400000E010E0A6CA113009F020C480917C0285
:103E5000882309F4EFCB00E010E0813009F099CA23
:103E60004ACF123009F04CC010917C02111122C0CF
:103E70008091F6039091F703A091F803B091F903B4
:103E8000AC01BD01445C5F4F6F4F7F4F77FD08C0B1
:103E9000403A25E052076105710514F4DB01CA01BF
:103EA0008093F6039093F703A093F803B093F9037C
:103EB00000E06FCA113009F0EDC38091F6039091D4
:103EC000F703A091F803B091F903AC01BD014F5F76
:103ED0005F4F6F4F7F4F77FD08C0403AE5E05E07C8
:103EE0006105710514F4DB01CA018093F603909318
:103EF000F703A093F803B093F90300E010E049CA78
:103F0000812F8F77833009F04CC010917C02111102
:103F100022C08091F6039091F703A091F803B0912D
:103F2000F903AC01BD014C5351096109710977FDD9
:103F300008C0403AF5E05F076105710514F4DB0144
:103F4000CA018093F6039093F703A093F803B0930C
:103F5000F90300E01ECA113009F0A0C38091F603F6
:103F60009091F703A091F803B091F903AC01BD0162
:103F7000415051096109710977FD08C0403A25E0B7
:103F800052076105710514F4DB01CA018093F60341
:103F90009093F703A093F803B093F90300E010E0C7
:103FA000F8C9113009F07EC380917C02882309F49E
:103FB00041CB00E010E0813009F0EBC99CCE12301B
:103FC00009F04CC010917C02111122C08091FA03BB
:103FD0009091FB03A091FC03B091FD03AC01BD01E6
:103FE000445C5F4F6F4F7F4F77FD08C0403AE5E07C
:103FF0005E076105710514F4DB01CA018093FA03C1
:104000009093FB03A093FC03B093FD0300E0C1C9B0
:10401000113009F04BC38091FA039091FB03A091FA
:10402000FC03B091FD03AC01BD014B5F5F4F6F4FCF
:104030007F4F77FD08C0403AF5E05F0761057105E5
:1040400014F4DB01CA018093FA039093FB03A0935D
:10405000FC03B093FD0300E010E09BC9812F8F7734
:10406000833009F04CC010917C02111122C0809164
:10407000FA039091FB03A091FC03B091FD03AC0106
:10408000BD014C5351096109710977FD08C0403ADF
:1040900025E052076105710514F4DB01CA01809324
:1040A000FA039093FB03A093FC03B093FD0300E09D
:1040B00070C9113009F0FEC28091FA039091FB03A0
:1040C000A091FC03B091FD03AC01BD014550510925
:1040D0006109710977FD08C0403AE5E05E076105B6
:1040E000710514F4DB01CA018093FA039093FB037A
:1040F000A093FC03B093FD0300E010E04AC9113027
:1041000009F0DCC280917C02882309F493CA00E0A4
:1041100010E0813009F03DC9EECD123009F04CC0FD
:1041200010917C02111122C08091FE039091FF0337
:10413000A0910004B0910104AC01BD01445C5F4F4B
:104140006F4F7F4F77FD08C0403AF5E05F0761058C
:10415000710514F4DB01CA018093FE039093FF0301
:10416000A0930004B093010400E013C9113009F0DA
:10417000A9C28091FE039091FF03A0910004B09129
:104180000104AC01BD014F5F5F4F6F4F7F4F77FD63
:1041900008C0403A25E052076105710514F4DB01BF
:1041A000CA018093FE039093FF03A0930004B09391
:1041B000010400E010E0EDC8133009F04CC010918C
:1041C0007C02111122C08091FE039091FF03A09107
:1041D0000004B0910104AC01BD014C5351096109C7
:1041E000710977FD08C0403AE5E05E076105710599
:1041F00014F4DB01CA018093FE039093FF03A093A4
:104200000004B093010400E0C4C8113009F05EC29C
:104210008091FE039091FF03A0910004B0910104EE
:10422000AC01BD01415051096109710977FD08C018
:10423000403AF5E05F076105710514F4DB01CA013E
:104240008093FE039093FF03A0930004B0930104B6
:1042500000E010E09EC8113009F03CC280917C0261
:10426000882309F4E7C900E010E0813009F091C823
:1042700042CD123009F04CC010917C02111122C0C5
:104280008091020490910304A0910404B09105046C
:10429000AC01BD01445C5F4F6F4F7F4F77FD08C09D
:1042A000403A25E052076105710514F4DB01CA01AB
:1042B0008093020490930304A0930404B093050434
:1042C00000E067C8113009F009C2809102049091A2
:1042D0000304A0910404B0910504AC01BD014B5F3F
:1042E0005F4F6F4F7F4F77FD08C0403AE5E05E07B4
:1042F0006105710514F4DB01CA01809302049093F7
:104300000304A0930404B093050400E010E041C846
:10431000812F8F77833009F04DC010917C021111ED
:1043200022C08091020490910304A0910404B091F2
:104330000504AC01BD014C5351096109710977FDB8
:1043400008C0403AF5E05F076105710514F4DB0130
:10435000CA018093020490930304A0930404B093D1
:10436000050400E016C8113009F0BCC180910204B8
:1043700090910304A0910404B0910504AC01BD0127
:10438000455051096109710977FD08C0403A25E09F
:1043900052076105710514F4DB01CA018093020420
:1043A00090930304A0930404B093050400E010E08C
:1043B0000C94C919113009F099C180917C028823AD
:1043C00009F438C900E010E0813011F00C94C919EB
:1043D00092CC812F8F77823069F48091D8039091AD
:1043E000D90301969093D9038093D80301E010E09C
:1043F0000C94C919833069F48091D8039091D90342
:1044000001979093D9038093D80301E010E00C94B6
:10441000C919113009F463C900E010E00C94C919FE
:10442000812F8F77823069F48091D6039091D703E2
:1044300001969093D7038093D60301E010E00C948B
:10444000C919833099F48091D6039091D7030197CD
:10445000863E67E0960714F486EE97E09093D703C4
:104460008093D60301E010E00C94C919113009F4CF
:1044700036C900E010E00C94C919113809F0C2C027
:1044800064E271E084EB93E00E94322F84E690E0D6
:104490009093D1038093D00385E090E09093C40380
:1044A0008093C30386E190E09093C6038093C50395
:1044B00084E190E09093C8038093C7038EE090E07E
:1044C0009093CA038093C90321E030E03093CF0377
:1044D0002093CE038AE090E09093D3038093D2039D
:1044E0003093D5032093D40383E090E09093DB03D3
:1044F0008093DA039093DD038093DC039093E103D0
:104500008093E0039093DF038093DE033093E30313
:104510002093E20382E090E09093E5038093E4032C
:1045200087E394E0A0E0B0E08093E6039093E70394
:10453000A093E803B093E90387E691E0A0E0B0E040
:104540008093EA039093EB03A093EC03B093ED0305
:104550001092EE031092EF031092F0031092F10309
:104560001092F2031092F3031092F4031092F503E9
:104570008CE291E0A0E0B0E08093F6039093F70323
:10458000A093F803B093F90383E790E0A0E0B0E0D4
:104590008093FA039093FB03A093FC03B093FD0375
:1045A0004CEF53E060E070E04093FE035093FF0354
:1045B00060930004709301048093020490930304B9
:1045C000A0930404B09305041092CB031092CC0383
:1045D0001092CD038EEA90E09093D9038093D80394
:1045E00086EE97E09093D7038093D60361E081E055
:1045F0000E94550A8CEC91E00E94360B00E010E01E
:104600000C94C91981E0113C09F080E0182F00E0FA
:104610000C94C91900E010E00C94C91900E010E0F6
:104620000C94C91900E010E00C94C91900E010E0E6
:104630000C94C91900E010E00C94C91900E010E0D6
:104640000C94C91900E010E00C94C91900E010E0C6
:104650000C94C91900E010E00C94C91900E010E0B6
:104660000C94C91900E010E00C94C91900E010E0A6
:104670000C94C91900E010E00C94C91900E010E096
:104680000C94C91900E010E00C94C91900E010E086
:104690000C94C91900E010E00C94C91900E010E076
:1046A0000C94C91900E010E00C94C91900E010E066
:1046B0000C94C91900E010E00C94C91900E010E056
:1046C0000C94C91900E010E00C94C91900E010E046
:1046D0000C94C91900E010E00C94C91900E010E036
:1046E0000C94C91900E010E00C94C91900E010E026
:1046F0000C94C919002371F061E081E00E94550A11
:104700008F2D0E94610F0E948D0B0E94360B00E0DE
:104710000C94DD190E94E50380907D0290907E024A
:10472000A0907F02B0908002681979098A099B09DC
:104730006D3271408105910510F40C94DD19809162
:1047400002018823C9F061E081E00E94550A8F2DA3
:104750000E94610F0E948D0B0E94360B1092020185
:104760000E94E50360937D0270937E0280937F0236
:10477000909380020C94DD19F3E0FF1641F088EE6F
:104780008F0D823020F085EE8F0D8430A8F480915B
:104790007C0281110CC061E081E00E94550A88EF23
:1047A00092E00E941C0B81E080930201D9CF8130FE
:1047B000B1F761E084E0F1CF22E0F212D1CF809135
:1047C0007C02823039F461E081E00E94550A85EF75
:1047D00092E0E7CF833019F461E084E0F6CF8430D3
:1047E000B1F761E089E0F1CF60E080E00E94550A16
:1047F0008CE093E00E941C0B61E080E00E94550A6F
:10480000E0900401F09005016DE671E0FCE0EF1628
:10481000F10414F464E771E0CE0149960E94BE0DE4
:104820002DE0E216F1041CF06CE0E61AF1081C8A97
:104830001B8A1E8A1D8A188E1F8A4AE08E010F5F0E
:104840001F4FB801C7010E940E2CF80101900020F3
:10485000E9F731977F01E01AF10AB701CE014396DB
:104860000E94510D811160C0CE0143960E94790DC6
:104870006CED71E0C8010E94BE0DBE016D5E7F4F00
:10488000C8010E948B0DBE01675E7F4F0E948B0D99
:10489000FC01448155816081718183EB94E00E9429
:1048A000A402C8010E94EF0DCE0143960E94EF0DB5
:1048B000CE0149960E94EF0D61E08CE00E94230337
:1048C00068EE73E080E090E00E94B203F090040193
:1048D000CE0149960E947F09EB8CCE0143960E943F
:1048E0007F09DC88C8010E947F0989818093AD041B
:1048F000D092AE04E092AF04F092B0041092B104F2
:104900001092B2040E94050C80919302833011F042
:104910000C94821689E08093030170E060E086E1E8
:104920000E9402050C948216F88EEF8AB8018B89DA
:104930009C890E94322F9CCF61E08CE00E9423036F
:1049400061E08AE00E9423030E94E50300917D025A
:1049500010917E0220917F0230918002601B710BCA
:10496000820B930B693E73408105910570F10E94A3
:10497000E50360937D0270937E0280937F029093A3
:1049800080020E946211CE0143960E947F098E89A7
:104990002CE3829F80011124CE0101960E947F09A1
:1049A0008D81800F912F911D092E000CAA0BBB0B3E
:1049B0008093960290939702A0939802B0939902E5
:1049C0008091CB0381110E94930A0E94E50300911C
:1049D00033031091340320913503309136036B017A
:1049E0007C01C01AD10AE20AF30AA091C703B09170
:1049F000C80328EE33E00E940A2D6C157D058E0554
:104A00009F0538F41092BE0460E083EB94E00E94AE
:104A1000D60861E080E00E94550A8BEF92E00E9488
:104A20001C0B80919302853811F00C9482168091B2
:104A30008E0281110C94821610923203109295020C
:104A4000109294020C9450161F920F920FB60F9270
:104A500011242F933F938F939F93AF93BF93809194
:104A6000260390912703A0912803B0912903309148
:104A7000250323E0230F2D3758F50196A11DB11D05
:104A8000209325038093260390932703A093280364
:104A9000B093290380912A0390912B03A0912C03BA
:104AA000B0912D030196A11DB11D80932A0390930F
:104AB0002B03A0932C03B0932D03BF91AF919F9133
:104AC0008F913F912F910F900FBE0F901F901895CF
:104AD00026E8230F0296A11DB11DD2CF1F920F927F
:104AE0000FB60F9211242F933F934F935F936F93C1
:104AF0007F938F939F93AF93BF93EF93FF93E09137
:104B00003003F0913103309749F0A685B78585854C
:104B1000968D91FF14C09C918923A1F4FF91EF9190
:104B2000BF91AF919F918F917F916F915F914F91C5
:104B30003F912F910F900FBE0F901F9018959C9151
:104B4000892361F7A389B4899C91858980958923FC
:104B50008C93868997890197F1F7608D718DA68571
:104B6000B785558538E020E0CB010197F1F7822F1A
:104B700090E095958795282F4C91452309F0206862
:104B8000315091F7868D81FD209580912F0390E023
:104B900001968F73992730912E03381799F0A091C1
:104BA0002F03B0E0AB51BD4F2C9380932F03828D28
:104BB000938D0197F1F7A389B4898C919589892BFD
:104BC0008C93ACCF868D8160868FF1CF1F920F9230
:104BD0000FB60F9211242F933F934F935F936F93D0
:104BE0007F938F939F93AF93BF93EF93FF938091A6
:104BF000B900887F803609F44AC0F0F5883209F49C
:104C0000A7C018F5803109F49BC0B8F4882309F4D3
:104C1000F9C0883009F494C0FF91EF91BF91AF9132
:104C20009F918F917F916F915F914F913F912F91C4
:104C30000F900FBE0F901F901895883109F488C00F
:104C4000803251F78093820314C0803409F49DC0F0
:104C500040F48033B9F38833F9F68093820385EC0E
:104C6000B0C0803509F485C0883509F496C0883411
:104C700099F60E94F70DD0CF883909F48CC038F529
:104C8000883729F050F4883611F0803729F683E010
:104C9000809384031092E40257C0883809F47BC0E3
:104CA000803919F0803809F0B7CF8091E402803262
:104CB00008F071C0E091E40281E08E0F8093E4027D
:104CC0008091BB00F0E0EC53FD4F80833DC0803B02
:104CD00039F0E0F4803A09F479C0883A09F09CCFC1
:104CE00084E0809384031092C3021092C202E09188
:104CF0003A03F0913B0309958091C20281110FC0E4
:104D000081E08093C2021092A20209C0803C09F4A3
:104D1000A6CF883C09F4A3CF883B09F07DCFE09172
:104D2000C30281E08E0F8093C302F0E0EE55FD4F89
:104D300080818093BB009091C3028091C20229C000
:104D400080915F038093BB0085EC8093BC0064CFAF
:104D50009091810380918003981758F5E091810329
:104D600081E08E0F80938103F0E0E05AFC4F808158
:104D7000E9CFE091810381E08E0F809381038091E0
:104D8000BB00F0E0E05AFC4F80839091810380915A
:104D900080039817C8F285E8D8CFE091810381E0BD
:104DA0008E0F809381038091BB00F0E0E05AFC4FAE
:104DB00080838091830381115CCF81E080935E03C7
:104DC00084EA8093BC001092840326CF85EC809304
:104DD000BC00109284038091E402803230F4E091B0
:104DE000E402F0E0EC53FD4F10826091E40270E0C9
:104DF000E0913803F091390384EC92E00995109228
:104E0000E4020ACF1092820334CF10925C04109215
:104E10005B0488EE93E0A0E0B0E080935D049093A3
:104E20005E04A0935F04B09360042DE331E03093FF
:104E30005A04209359041092E8041092E7048093D6
:104E4000E9049093EA04A093EB04B093EC048BE59F
:104E500091E09093E6048093E5041092FC04109294
:104E6000FB041092FE041092FD04109200051092B3
:104E7000FF041092020510920105609103056E7FF8
:104E80006D7F609303056695617081E0682783E01C
:104E90000E94230361E083E00E945103E5E3F4E014
:104EA000E491E093F504E1E2F4E0E491F0E0EE0F48
:104EB000FF1FEC5EFB4F859194919093F7048093D4
:104EC000F60460E082E00E9451038091030581FDB9
:104ED00004C061E082E00E94230382E08093F10439
:104EE000E4E3F4E0E491E093F204E0E2F4E0E4913E
:104EF000F0E0EE0FFF1FE65FFB4F259134913093FA
:104F0000F4042093F30444EF51E060E070E0409338
:104F1000C5045093C6046093C7047093C8049AE014
:104F2000E4E1F1E0A3EDB4E001900D929A95E1F790
:104F30001092DD048093DE041092E3041092E404E6
:104F40001092B6041092B5042FE431E03093B4040B
:104F50002093B30497E29093B70490E19093BC043C
:104F60008093BD041092BE041092B2041092B1045A
:104F70001092B0041092AD04EFEFF3E081E08C30BA
:104F800051F09491823009F49F5F21E0280F31960F
:104F9000992309F44DC08093AE0481E08093AF045F
:104FA00069EE71E085E694E00E94BE0D6DEE71E061
:104FB0008BE694E00E94BE0D61EF71E081E794E022
:104FC0000E94BE0D65EF71E087E794E00E94BE0D80
:104FD00069EF71E08DE794E00E94BE0D6DEF71E026
:104FE00083E894E00E94BE0D61E072E089E894E0FD
:104FF0000E94BE0D65E072E08FE894E00E94BE0D55
:1050000069E072E085E994E00E94BE0D6DE072E017
:105010008BE994E00E94BE0D61E172E081EA94E0C8
:105020000E94BE0D65E172E087EA94E00C94BE0D2B
:10503000822FA5CFCF93DF9300D000D01F92CDB7A2
:10504000DEB7789484B5826084BD84B5816084BD08
:1050500085B5826085BD85B5816085BD80916E0016
:10506000816080936E001092810080918100826047
:105070008093810080918100816080938100809184
:1050800080008160809380008091B1008460809373
:10509000B1008091B00081608093B00080917A006F
:1050A000846080937A0080917A00826080937A0095
:1050B00080917A00816080937A0080917A00806884
:1050C00080937A001092C10061E08CE00E9451034D
:1050D00061E08AE00E94510361E08FE00E94510389
:1050E00061E08EE00E94510361E08BE00E94510379
:1050F00062E084E00E94510362E085E00E94510377
:1051000062E086E00E94510362E087E00E94510362
:1051100062E088E00E94510362E080E10E94510356
:105120000E94630642E550E070E060E084EB93E0AB
:105130000E94432C64E271E084EB93E00E94292FEB
:10514000892B09F4B6C064E271E084EB93E00E941D
:10515000322F84E690E09093D1038093D00385E0D2
:1051600090E09093C4038093C30386E190E0909312
:10517000C6038093C50384E190E09093C8038093B5
:10518000C7038EE090E09093CA038093C90321E0A7
:1051900030E03093CF032093CE038AE090E09093E9
:1051A000D3038093D2033093D5032093D40383E0B9
:1051B00090E09093DB038093DA039093DD03809378
:1051C000DC039093E1038093E0039093DF038093EB
:1051D000DE033093E3032093E20382E090E09093B8
:1051E000E5038093E40387E394E0A0E0B0E08093DC
:1051F000E6039093E703A093E803B093E90387E6FF
:1052000091E0A0E0B0E08093EA039093EB03A093D9
:10521000EC03B093ED031092EE031092EF031092A3
:10522000F0031092F1031092F2031092F303109224
:10523000F4031092F5038CE291E0A0E0B0E08093DB
:10524000F6039093F703A093F803B093F90383E771
:1052500090E0A0E0B0E08093FA039093FB03A0936A
:10526000FC03B093FD034CEF53E060E070E040932B
:10527000FE035093FF036093000470930104809336
:10528000020490930304A0930404B09305041092C5
:10529000CB031092CC031092CD038EEA90E0909352
:1052A000D9038093D80386EE97E09093D703809339
:1052B000D6030E9463061092B8048091BD04823028
:1052C00018F098E09093B8048093BB0462E370E018
:1052D00080E090E00E94B2036091BE0483EB94E012
:1052E0000E94D60868EE73E080E090E00E94B2036E
:1052F00060E383EB94E00E94250A0BE416E4C80106
:105300000197F1F760E383EB94E00E94250AC8015E
:105310000197F1F760E383EB94E00E94250A83E5AF
:1053200092E00197F1F760E283EB94E00E94250A96
:105330006091B804606240E083EB94E00E943E0A12
:1053400084E08093B90440E06CE083EB94E00E9439
:105350003E0A0E94880A82E0D82ED092BA0440E029
:1053600066E083EB94E00E943E0A40E062E083EB5B
:1053700094E00E943E0A8BE39FE10197F1F788E0F9
:105380008093BE0460E083EB94E00E94D60860E066
:1053900085E00E94550A89EF93E00E941C0B61E0B2
:1053A00080E00E94550A88EE93E00E941C0B60ED9D
:1053B00077E080E090E00E94B2030E94880A60E0FB
:1053C00080E00E94550A6091D6037091D7039E0138
:1053D0002F5F3F4F7901C9010E94480BFF92EF9266
:1053E00089E192E09F938F93DF920CE214E01F9388
:1053F0000F930E942F0E0E94360B61E080E00E9406
:10540000550A6091D8037091D903C7010E94480BD7
:10541000FF92EF9284E292E09F938F93DF921F932B
:105420000F930E942F0E0E94360B60ED77E080E014
:1054300090E00E94B2030E94880A60E083E00E942C
:10544000550A82E392E00E94360B85E00E94FA0240
:105450000FB6F894DEBF0FBECDBF892B09F005C192
:1054600061E080E00E94550A8DE392E00E94360BD5
:1054700081E08093370311E008E60E9463061093F1
:105480008A030093AC0310928B031092AD030E9429
:105490009B068111EDC010938A0310928B0310922A
:1054A000AD0360E089E594E00E94A7080E949B0696
:1054B00061E088E60E94820710923D0380933C03DE
:1054C00089E594E00E94600887FF0EC00E94880A68
:1054D0008AED93E00E941C0B60ED77E080E090E0A5
:1054E0000E94B2031093370388E00E94FA02892BCE
:1054F00009F40AC1109200051092FF041092FE04F4
:105500001092FD041092FC041092FB048DE991E0CE
:1055100090930205809301059091F104963108F073
:1055200047C02DEB30E03093FC042093FB042BE9C3
:1055300031E03093FE042093FD042CE231E03093FF
:1055400000052093FF042091680084E0983048F023
:1055500031E09E3008F430E081E001C0880F3A95D8
:10556000EAF7822B809368002DE630E0983050F007
:105570002BE630E09E3030F02CE630E0963110F033
:1055800030E020E03093F9042093F804292F30E034
:10559000983008F074C081E001C0880F9A95EAF74E
:1055A0008093FA0480910105909102050197F1F72B
:1055B0008091FF0490910005892B49F1E09130031F
:1055C000F091310334E0E53EF30709F1309739F00B
:1055D000A389B4899C918589809589238C93809136
:1055E00003058E7F8093030510922F0310922E03E4
:1055F00085EE94E09093310380933003E091F804BA
:10560000F091F90480819091FA04892B808364EFF2
:1056100071E080E090E00E94B20305EE14E0BB244C
:10562000B3941093C0040093BF04B092D70470E009
:1056300060E08CE00E9402050E94E5036B017C01A2
:105640000E94F103811128C00E94E5036C197D09B5
:105650008E099F09613D774081059105E8F460E07E
:1056600070E0CB010E94B203EBCF1092370303CF5F
:105670000E94880A81EE93E00E941C0BFECE9E30B1
:1056800040F42850310981E001C0880F2A95EAF7DB
:1056900087CF2E503109F7CF68EC70E080E090E0C2
:1056A0000E94B2031092E3048091DF04843069F019
:1056B000893059F00E94880A60E080E00E94550A13
:1056C00083ED93E00E941C0BACCF84EF91E0A0E04F
:1056D000B0E08093C5049093C604A093C704B09330
:1056E000C8046091C9037091CA03772786E00E94BD
:1056F000020562E070E089E00E94020568EC70E05B
:1057000080E090E00E94B2030E94880A0E94E503B4
:10571000609333037093340380933503909336037F
:1057200080913703882309F440C02FEA33E0309397
:105730003E0420933D0486E080933F04309341046F
:105740002093400480934204109243041092580422
:1057500086E00E94FA02892BF1F487E00E94FA02A7
:10576000892BC9F42FE733E030933E0420933D04A6
:1057700083E080933F04309341042093400480935E
:105780004204109243041092580481E08093320343
:1057900083E00E94681200E010E00E94E012011510
:1057A0001105D9F30E940000F8CF21E933E03093CE
:1057B0003E0420933D0485E0BFCFCF93DF93CDEA35
:1057C000D4E02697CE010E94EF0D24E0C536D20723
:1057D000C1F78BE591E09093E6048093E504809116
:1057E000300390913103855E944071F4E091F804A8
:1057F000F091F90490818091FA0480958923808347
:105800001092310310923003DF91CF910895FB0184
:10581000DC0105900D920020E1F70895BB274A3086
:1058200031F4992322F4BDE2909581959F4F0C9419
:105830001A2CBB27FB015527AA27880F991FAA1FDF
:10584000A41710F0A41B83955051B9F7A05DAA339B
:1058500008F0A95DA193009779F7B111B193119266
:10586000CB010C94332CDC01FC01672F7191772361
:10587000E1F7329704C07C916D9370836291AE170B
:10588000BF07C8F30895DC01CB01FC01F999FECFF5
:1058900006C0F2BDE1BDF89A319600B40D924150B8
:1058A0005040B8F70895DC01CB0103C02D910E9450
:1058B0005E2C41505040D0F70895262FF999FECF25
:1058C0001FBA92BD81BD20BD0FB6F894FA9AF99A1D
:1058D0000FBE019608952F923F924F925F926F9262
:1058E0007F928F929F92AF92BF92CF92DF92EF9270
:1058F000FF920F931F93CF93DF93CDB7DEB7CA1BF1
:10590000DB0B0FB6F894DEBF0FBECDBF09942A881B
:10591000398848885F846E847D848C849B84AA84C3
:10592000B984C884DF80EE80FD800C811B81AA8150
:10593000B981CE0FD11D0FB6F894DEBF0FBECDBF1B
:10594000ED010895A29FB001B39FC001A39F700D08
:10595000811D1124911DB29F700D811D1124911D77
:105960000895991B79E004C0991F961708F0961BBB
:10597000881F7A95C9F780950895AA1BBB1B51E132
:1059800007C0AA1FBB1FA617B70710F0A61BB70BAF
:10599000881F991F5A95A9F780959095BC01CD0154
:1059A000089597FB072E16F4009407D077FD09D0D1
:1059B0000E94BD2C07FC05D03EF4909581959F4F29
:1059C0000895709561957F4F0895052E97FB1EF4FD
:1059D00000940E94FC2C57FD07D00E94112D07FC5B
:1059E00003D04EF40C94FC2C5095409530952195A5
:1059F0003F4F4F4F5F4F08959095809570956195FB
:105A00007F4F8F4F9F4F0895EE0FFF1F0590F4912A
:105A1000E02D09940E94A22CB7FF0895821B930BDE
:105A20000895A1E21A2EAA1BBB1BFD010DC0AA1FDF
:105A3000BB1FEE1FFF1FA217B307E407F50720F0F7
:105A4000A21BB30BE40BF50B661F771F881F991F72
:105A50001A9469F760957095809590959B01AC01BB
:105A6000BD01CF0108950F931F93CF93DF93823031
:105A7000910510F482E090E0E0910605F0910705B1
:105A800030E020E0B0E0A0E0309799F42115310536
:105A900009F44AC0281B390B24303105D8F58A8116
:105AA0009B816115710589F1FB0193838283FE015E
:105AB00011C0408151810281138148175907E0F0DC
:105AC0004817590799F4109761F012960C931297A2
:105AD00013961C933296CF01DF91CF911F910F91B6
