:100000000C9471000C9499000C9499000C94990034
:100010000C9499000C9499000C9499000C949900FC
:100020000C9499000C9499000C9499000C949900EC
:100030000C9499000C9499000C9499000C949900DC
:100040000C949F070C9499000C946D070C9447072F
:100050000C9499000C9499000C9499000C949900BC
:100060000C94E9070C94990000000000240027007C
:100070002A0000000000250028002B0000000000DE
:1000800023002600290004040404040404040202DA
:100090000202020203030303030301020408102007
:1000A0004080010204081020010204081020000012
:1000B0000008000201000003040700000000000027
:1000C0000000204155544F204D4F4445204F464697
:1000D00000204155544F204D4F4445204F4E0000C5
:1000E0001B0911241FBECFEFD8E0DEBFCDBF23E038
:1000F000A4E1B2E001C01D92A03EB207E1F712E018
:10010000A0E0B1E0E8E2F3E202C005900D92A43174
:10011000B107D9F710E0C1E7D0E004C02197FE0194
:100120000E94860FC037D107C9F70E94A6090C9418
:1001300092110C94000008950895AF92BF92CF924F
:10014000DF92EF92FF920F931F93CF93DF936C0197
:100150007B018B01040F151FEB015E01AE18BF0878
:10016000C017D10759F06991D601ED91FC9101902A
:10017000F081E02DC6010995892B79F7C501DF9142
:10018000CF911F910F91FF90EF90DF90CF90BF9094
:10019000AF900895FC01448155816081718180EDAB
:1001A00093E00C949D00FC01538D448D252F30E08D
:1001B000842F90E0821B930B541710F0CF96089574
:1001C00001970895FC01918D828D981761F0A28DA1
:1001D000AE0FBF2FB11D5D968C91928D9F5F9F7367
:1001E000928F90E008958FEF9FEF0895FC01918D1D
:1001F000828D981731F0828DE80FF11D858D90E08A
:1002000008958FEF9FEF0895FC01918D228D892F26
:1002100090E0805C9F4F821B91098F73992708950E
:100220008DE093E00E94040121E0892B09F420E095
:10023000822F089580E090E0892B29F00E94100120
:1002400081110C9400000895FC01A48DA80FB92F12
:10025000B11DA35ABF4F2C91848D90E001968F73EE
:100260009927848FA689B7892C93A089B1898C910D
:10027000837080648C93938D848D981306C002885C
:10028000F389E02D80818F7D80830895EF92FF9226
:100290000F931F93CF93DF93EC0181E0888F9B8DA9
:1002A0008C8D98131AC0E889F989808185FF15C063
:1002B0009FB7F894EE89FF896083E889F989808186
:1002C0008370806480839FBF81E090E0DF91CF9155
:1002D0001F910F91FF90EF900895F62E0B8D10E077
:1002E0000F5F1F4F0F731127E02E8C8D8E110CC0E6
:1002F0000FB607FCFACFE889F989808185FFF5CF31
:10030000CE010E942401F1CFEB8DEC0FFD2FF11DEA
:10031000E35AFF4FF0829FB7F8940B8FEA89FB896D
:1003200080818062CFCFCF93DF93EC01888D8823CB
:10033000B9F0AA89BB89E889F9898C9185FD03C048
:10034000808186FD0DC00FB607FCF7CF8C9185FF2D
:10035000F2CF808185FFEDCFCE010E942401E9CF4D
:10036000DF91CF910895833081F028F4813099F0A6
:100370008230A9F008958730A9F08830C9F0843020
:10038000B1F4809180008F7D03C0809180008F77D1
:1003900080938000089584B58F7784BD089584B5D7
:1003A0008F7DFBCF8091B0008F778093B000089550
:1003B0008091B0008F7DF9CFCF93DF93282F30E06D
:1003C000F901E255FF4F8491F901E656FF4FD491B0
:1003D000F901EA57FF4FC491CC23A1F081110E948B
:1003E000B301EC2FF0E0EE0FFF1FE458FF4FA59193
:1003F000B491EC91ED2381E090E009F480E0DF918D
:10040000CF91089580E090E0FACF1F93CF93DF93D0
:10041000282F30E0F901E255FF4F8491F901E656AB
:10042000FF4FD491F901EA57FF4FC491CC23A9F0B3
:10043000162F81110E94B301EC2FF0E0EE0FFF1F89
:10044000EE58FF4FA591B4918FB7F894EC9111112C
:1004500008C0D095DE23DC938FBFDF91CF911F9131
:100460000895DE2BF8CFCF93DF9390E0FC01E656A2
:10047000FF4F24918A579F4FFC0184918823C9F034
:1004800090E0880F991FFC01E859FF4FA591B491A6
:10049000FC01EE58FF4FC591D49161110DC09FB77B
:1004A000F8948C91209582238C938881282328832B
:1004B0009FBFDF91CF910895623051F49FB7F894B8
:1004C0003C91822F809583238C93E8812E2BEFCF54
:1004D0008FB7F894EC912E2B2C938FBFEACF3FB7B8
:1004E000F8948091CB029091CC02A091CD02B09172
:1004F000CE0226B5A89B05C02F3F19F00196A11D7D
:10050000B11D3FBFBA2FA92F982F8827BC01CD015D
:10051000620F711D811D911D42E0660F771F881FBC
:10052000991F4A95D1F708958F929F92AF92BF92EB
:10053000CF92DF92EF92FF924B015C010E946F021B
:100540006B017C010E946F026C197D098E099F0965
:10055000683E734081059105A8F321E0821A910855
:10056000A108B10888EEC80E83E0D81EE11CF11C7A
:1005700081149104A104B10429F7FF90EF90DF905A
:10058000CF90BF90AF909F908F9008952FB7F89421
:100590006091C7027091C8028091C9029091CA020D
:1005A0002FBF0895089520915502260F3327331F3A
:1005B00021323105ECF420919E02FC0190E080E0B4
:1005C000243069F082E00895A09155022191AC0198
:1005D0004B5C5D4FA40FB52FB11D2C930196861770
:1005E00098F380915502680F6093550280E008955A
:1005F00081E0089510929E0281E080939D02109206
:10060000780261E082E10E94050261E083E10E94DC
:100610000502E9EBF0E080818E7F808380818D7F11
:10062000808388E48093B80085E48093BC000895BB
:10063000CF93DF9391E0909334028823B9F0C09177
:10064000B800D091BA008091BC008A7B8093BC0036
:1006500060E082E10E94050260E083E10E94050201
:100660000E94FA02D093BA00C093B800DF91CF91F4
:1006700008950895E091D6028091D502E81730F4EC
:10068000F0E0EC5EFD4F808190E008958FEF9FEFEA
:1006900008959091D6028091D5022FEF3FEF9817E1
:1006A00048F4E92FF0E0EC5EFD4F208130E09F5FE1
:1006B0009093D602C90108958091D5029091D602F7
:1006C000891B990B0895CF92DF92EF92FF920F93BF
:1006D0001F93CF93DF937C01CB018A012091A40269
:1006E000222389F0EB016B01C40ED51ECC15DD056C
:1006F00069F06991D701ED91FC910190F081E02DB5
:10070000C7010995F3CF642F0E94D302C801DF917E
:10071000CF911F910F91FF90EF90DF90CF900895B0
:10072000CF93DF931F92CDB7DEB769832091A402E8
:100730002223F9F02091D302203258F021E030E05A
:10074000FC013383228390E080E00F90DF91CF9112
:1007500008958091D402E82FF0E0EB55FD4F998188
:1007600090838F5F8093D4028093D30281E090E0E6
:10077000ECCF61E0CE0101960E94D302F7CFCF9279
:10078000DF92EF92FF920F931F93CF93DF93FC01C1
:10079000C48121E02093A402C093C5021092D40228
:1007A0001092D3028385682B81E093E00E9490032E
:1007B000D091D302D13208F092C00E946F026B0137
:1007C0007C0180919E02811165C082E080939E022F
:1007D00081E080939D028FEF80939C0210929B0298
:1007E000D0939A02A5EAB2E0EAE7F2E080E0D813FB
:1007F00085C01092790280917902CC0FC82BC093EA
:10080000790280917802813009F07CC010927802E0
:100810000E946F026B017C01809179028093BB0082
:100820008091A0029091A102A091A202B091A30296
:10083000892B8A2B8B2B99F00E946F020091A002CA
:100840001091A1022091A2023091A3026C197D099E
:100850008E099F090617170728073907E0F18091CD
:10086000BC0083FDD9CF85EC8093BC000E946F0251
:100870006B017C0180919E02823009F445C0809119
:100880009C028F3F61F180919C02803241F1809106
:100890009C0225C08091A0029091A102A091A20289
:1008A000B091A302892B8A2B8B2B09F48ACF0E944B
:1008B0006F020091A0021091A1022091A20230913A
:1008C000A3026C197D098E099F09061717072807CF
:1008D000390708F076CF80919F020E94180310928A
:1008E000D4021092D3021092A402DF91CF911F91F3
:1008F0000F91FF90EF90DF90CF9008959D9191938D
:100900008F5F75CF85EEB0CF8091A0029091A1024C
:10091000A091A202B091A302892B8A2B8B2B09F400
:10092000A9CF0E946F020091A0021091A102209114
:10093000A2023091A3026C197D098E099F09061746
:1009400017072807390708F095CFC5CF90E080E05A
:1009500008950F931F93CF93DF93EC0188810E943A
:10096000DC012C81892B41F5211108C081E08C83A9
:100970000E94C6026E837F83888799870E94C60281
:100980000E811F8128853985601B710B820B930BAB
:100990000A851B852C853D8506171707280739070B
:1009A00030F48D81811103C081E08D838A83DF91D2
:1009B000CF911F910F9108952223C9F38D81882330
:1009C00019F01D821C82F3CF81E08B83FBCFFB01EA
:1009D00001900020E9F73197AF01461B570BDC016E
:1009E000ED91FC910280F381E02D09940F931F9308
:1009F000CF93DF93EC0188819981009759F02A8188
:100A00003B812617370730F081E0DF91CF911F91AE
:100A10000F9108958B016F5F7F4F0E94C510009763
:100A200059F0998388831B830A832C813D81232B72
:100A300059F7FC011082E8CF80E0E7CFEF92FF92F8
:100A40000F931F93CF93DF936115710541F480E0FD
:100A5000DF91CF911F910F91FF90EF900895411575
:100A60005105B1F07B01EC010C811D81040F151FB4
:100A7000B8010E94F604882351F3288139818C81C2
:100A80009D81B701820F931F0E948B111D830C83E0
:100A900081E0DECFCF93DF93EC01888199810097CD
:100AA00011F00E943C10198218821D821C821B8248
:100AB0001A82DF91CF910895CF92DF92EF92FF9249
:100AC0000F931F93CF93DF93CDB7DEB762970FB627
:100AD000F894DEBF0FBECDBF8C01CB01F8011182AF
:100AE000108213821282158214824AE09E012F5FC7
:100AF0003F4F6901B9010E94F00EF60101900020FC
:100B0000E9F731977F01EC18FD08B701C8010E9491
:100B1000F604811112C0C8010E944A0562960FB600
:100B2000F894DEBF0FBECDBFDF91CF911F910F9123
:100B3000FF90EF90DF90CF900895F801F582E48266
:100B4000B601808191810E948B11E8CFCF93DF9312
:100B5000EC01FB0101900020E9F73197AF01461B42
:100B6000570B0E941E05811103C0CE010E944A0549
:100B7000CE01DF91CF910895CF93DF93EC01FB017C
:100B800044815581608171810E941E05811103C0DD
:100B9000CE010E944A05CE01DF91CF910895EF92D8
:100BA000FF920F931F93CF93DF93EC017B01198288
:100BB00018821B821A821D821C82FB010190002078
:100BC000E9F731978F01061B170BB8010E94F60455
:100BD000811109C0CE01DF91CF911F910F91FF903C
:100BE000EF900C944A051D830C83B701888199818D
:100BF000DF91CF911F910F91FF90EF900C948B118B
:100C0000CF93DF93EC016B307105A8F4FB01E55F36
:100C1000F94F0C94860F16061F0622062506280695
:100C20002B062E063106340637063A066AE471E0D2
:100C3000CE010E94CF05CE01DF91CF91089564E5EA
:100C400071E0F6CF63E571E0F3CF62E571E0F0CFDC
:100C500061E571E0EDCF60E571E0EACF6FE471E04E
:100C6000E7CF6EE471E0E4CF6DE471E0E1CF6CE4D6
:100C700071E0DECF6BE471E0DBCFFC01808191811C
:100C8000009711F00C943C1008950F931F93CF938D
:100C90008C01C62F0E94BF036C2F6460C8010E94A4
:100CA000BF036C2F6B7FC8010E94BF0383EC90E0F1
:100CB0000197F1F7CF911F910F9108950F931F9313
:100CC000CF93DF938C01D62FC42F607F642B0E94BB
:100CD000450680E1D89FB00111246C2BC801DF913B
:100CE000CF911F910F910C94450640E061E080ED9B
:100CF00093E00E945E068BE39FE10197F1F7089570
:100D00008091E8029091E902892BB1F00E94C6021D
:100D10006093EE027093EF028093F0029093F102E1
:100D200061E082E00E9405020E94750666E571E0BE
:100D300080ED93E00C94E70408958091E80290918F
:100D4000E9020197B1F00E94C6026093EA02709333
:100D5000EB028093EC029093ED0261E083E00E944D
:100D600005020E94750665E671E080ED93E00C9443
:100D7000E704089541E00E945E0681E090E0089556
:100D80000F931F93CF93DF938C01D0E0C0E0F80165
:100D9000EC0FFD1F6491662339F041E080ED93E094
:100DA0000E945E062196F3CFCE01DF91CF911F9175
:100DB0000F910895CF93DF93CDB7DEB728970FB685
:100DC000F894DEBF0FBECDBF98E0E0E1F1E0DE01B8
:100DD000119601900D929A95E1F79091D80396178C
:100DE00008F46FEF262F30E0220F331F41E050E070
:100DF0004C0F5D1F240F351FF9016081680F60687B
:100E000040E080ED93E028960FB6F894DEBF0FBE69
:100E1000CDBFDF91CF910C945E0685ED8093BC0031
:100E20008091A0029091A102A091A202B091A30290
:100E30000796A11DB11D23E0B695A79597958795B7
:100E40002A95D1F72091BC0024FD03C010929E0288
:100E500008954091A0025091A1026091A202709168
:100E6000A302452B462B472B69F30097A105B1053B
:100E700041F025E32A95F1F700000197A109B10996
:100E8000E1CF80919F020C9418030C942D0F1F92B8
:100E90000F920FB60F9211242F933F934F935F93AE
:100EA0006F937F938F939F93AF93BF93EF93FF9332
:100EB0008DE093E00E942401FF91EF91BF91AF91EB
:100EC0009F918F917F916F915F914F913F912F9162
:100ED0000F900FBE0F901F9018951F920F920FB694
:100EE0000F9211242F938F939F93EF93FF93E09191
:100EF0001D03F0911E038081E0912303F0912403F0
:100F000082FD1BC09081809126038F5F8F7320919B
:100F10002703821741F0E0912603F0E0E35FFC4FE6
:100F2000958F80932603FF91EF919F918F912F9141
:100F30000F900FBE0F901F9018958081F4CF1F92D5
:100F40000F920FB60F9211242F933F938F939F937D
:100F5000AF93BF938091C7029091C802A091C9023C
:100F6000B091CA023091C60223E0230F2D3758F505
:100F70000196A11DB11D2093C6028093C7029093D4
:100F8000C802A093C902B093CA028091CB0290918B
:100F9000CC02A091CD02B091CE020196A11DB11D4F
:100FA0008093CB029093CC02A093CD02B093CE025B
:100FB000BF91AF919F918F913F912F910F900FBE55
:100FC0000F901F90189526E8230F0296A11DB11DC2
:100FD000D2CF1F920F920FB60F9211242F933F93EF
:100FE0004F935F936F937F938F939F93AF93BF9331
:100FF000EF93FF938091B900887F803609F44AC04F
:10100000F0F5883209F4A7C018F5803109F49BC0C7
:10101000B8F4882309F4F9C0883009F494C0FF912A
:10102000EF91BF91AF919F918F917F916F915F9160
:101030004F913F912F910F900FBE0F901F901895D9
:10104000883109F488C0803251F780939C0214C023
:10105000803409F49DC040F48033B9F38833F9F645
:1010600080939C0285ECB0C0803509F485C088353A
:1010700009F496C0883499F60E940D07D0CF8839BC
:1010800009F48CC038F5883729F050F4883611F00F
:10109000803729F683E080939E021092770257C032
:1010A000883809F47BC0803919F0803809F0B7CF4F
:1010B00080917702803208F071C0E091770281E080
:1010C0008E0F809377028091BB00F0E0E95AFD4FCC
:1010D00080833DC0803B39F0E0F4803A09F479C068
:1010E000883A09F09CCF84E080939E0210925602C9
:1010F00010925502E091D102F091D20209958091AF
:10110000550281110FC081E0809355021092350283
:1011100009C0803C09F4A6CF883C09F4A3CF883BE2
:1011200009F07DCFE091560281E08E0F8093560248
:10113000F0E0EB5CFD4F80818093BB009091560204
:101140008091550229C0809179028093BB0085EC83
:101150008093BC0064CF90919B0280919A02981773
:1011600058F5E0919B0281E08E0F80939B02F0E0A6
:10117000E658FD4F8081E9CFE0919B0281E08E0F20
:1011800080939B028091BB00F0E0E658FD4F808386
:1011900090919B0280919A029817C8F285E8D8CF67
:1011A000E0919B0281E08E0F80939B028091BB00B7
:1011B000F0E0E658FD4F808380919D0281115CCF65
:1011C00081E08093780284EA8093BC0010929E02B2
:1011D00026CF85EC8093BC0010929E02809177020E
:1011E000803230F4E0917702F0E0E95AFD4F10824E
:1011F0006091770270E0E091CF02F091D00287E534
:1012000092E00995109277020ACF10929C0234CF97
:10121000CF93DF93BC018DE093E00E94E704EC01E3
:1012200068E471E08DE093E00E94E7048C0F9D1F5D
:10123000DF91CF910895CF92DF92EF92FF92CF93FB
:10124000DF93EDE0F3E01382128288EE93E0A0E0FA
:10125000B0E084839583A683B7832CE131E03183AA
:10126000208325EC30E03587248724EC30E0378775
:10127000268720EC30E0318B208B21EC30E0338B63
:10128000228B22EC30E0358B248B26EC30E0378B40
:10129000268B118E128E138E148EE1E0F3E01382F2
:1012A000128284839583A683B7838EE291E0918333
:1012B0008083E0EDF3E01382128280E491E0918379
:1012C000808387E2848384E1818782E0828713863A
:1012D000CDEBD3E019821A821B8288EBC82E8BE0FB
:1012E000D82EE12CF12CCA86DB86EC86FD86188A86
:1012F0001F868EE0888384E791E00E94080962E0FF
:1013000088810E94330280E891E00E940809CAEABD
:10131000D3E019821A821B82CA86DB86EC86FD86A0
:10132000188A1F868FE0888384E791E00E9408096D
:1013300062E088810E94330280E891E0DF91CF91E2
:10134000FF90EF90DF90CF900C940809CF93DF933C
:10135000CDB7DEB762970FB6F894DEBF0FBECDBF34
:10136000789484B5826084BD84B5816084BD85B580
:10137000826085BD85B5816085BD80916E0081608C
:1013800080936E0010928100809181008260809332
:101390008100809181008160809381008091800034
:1013A0008160809380008091B10084608093B1005F
:1013B0008091B00081608093B00080917A00846059
:1013C00080937A0080917A00826080937A00809185
:1013D0007A00816080937A0080917A00806880939F
:1013E0007A001092C100E0911D03F0911E0382E08B
:1013F0008083E0911903F0911A031082E0911B039E
:10140000F0911C038FEC808310922503E09121035F
:10141000F091220386E08083E0911F03F091200386
:10142000808180618083E0911F03F091200380819F
:1014300088608083E0911F03F091200380818068A1
:101440008083E0911F03F091200380818F7D808352
:1014500061E086E00E94330261E082E00E94330294
:1014600061E083E00E94330262E08EE00E9433027A
:1014700062E08FE00E94330262E084E00E94330267
:1014800062E089E00E94330262E08AE00E94330257
:1014900062E08BE00E94330262E08CE00E94330243
:1014A00062E08DE00E94330260E088E00E94330237
:1014B0008FEF93E00E94250F843509F028C382E066
:1014C00090E00E94250F90E09093E9028093E8025B
:1014D00083E090E00E94250F90E09093E7028093D4
:1014E000E60284E090E00E94250F90E090930901CD
:1014F000809308011092D6021092D5021092D40265
:101500001092D3020E94FA028BE990E09093D202EB
:101510008093D1028CE990E09093D0028093CF0227
:101520001092D5038091DA03823018F098E09093FE
:10153000D5038093D80362E370E080E090E00E94DE
:1015400094026091DB0380ED93E00E94BF0368EE9C
:1015500073E080E090E00E94940260E380ED93E00D
:101560000E9445060BE416E4C8010197F1F760E319
:1015700080ED93E00E944506C8010197F1F760E312
:1015800080ED93E00E94450683E592E00197F1F734
:1015900060E280ED93E00E9445066091D5036062B1
:1015A00040E080ED93E00E945E0684E08093D603E5
:1015B00040E06CE080ED93E00E945E060E947506BC
:1015C00082E08093D70340E066E080ED93E00E94E4
:1015D0005E0640E062E080ED93E00E945E068BE3F1
:1015E0009FE10197F1F788E08093DB0360E080EDF5
:1015F00093E00E94BF0340E060E480ED93E00E942E
:101600005E0600E011E058E0E52E51E0F52EF8010D
:1016100061918F0180ED93E00E94BA06E016F10619
:10162000B1F760E085E00E94DA066CEB71E080EDD6
:1016300093E00E94E70460ED77E080E090E00E9494
:1016400094020E94750660E080E00E94DA068091B4
:10165000E6029091E70260E971E0019711F065E917
:1016600071E0CE010D960E94CF0562EC71E0CE01D3
:1016700001960E94CF05BE01635F7F4FCE010196A8
:101680000E94BC050E94CA0068E471E080ED93E00E
:101690000E94E704CE0101960E943D0661E080E0D1
:1016A0000E94DA066091080170910901CE0101964D
:1016B0000E945C056FEC71E0CE0107960E94CF0599
:1016C000BE016F5F7F4FCE0107960E94BC056BED98
:1016D00071E00E94A6050E94CA0068E471E080EDF6
:1016E00093E00E94E704CE0107960E943D06CE01DA
:1016F00001960E943D0668EE73E080E090E00E9453
:1017000094028091E8029091E902892B09F024C2A9
:1017100081E08093F202CE010D960E943D0698E290
:10172000292E312C2CE3422E512C34E6632E712CC1
:1017300040E5842E912C8AE0E82EF12C8091F9026C
:1017400081110DC00E94C6026093F5027093F602EB
:101750008093F7029093F802F1E0F093F9020E946F
:10176000C6020091F5021091F6022091F702309125
:10177000F802601B710B820B930B653F7140810572
:101780009105A0F00E94C6026093F5027093F602E4
:101790008093F7029093F80286E00E94DC0161E0FA
:1017A000892B09F060E086E00E94050264E670E0A3
:1017B00080E090E00E9494021092F4021092F302F2
:1017C00089E00E94DC01892B31F484E190E0909360
:1017D000F4028093F3028AE00E94DC01892B21F459
:1017E0003092F4022092F3028BE00E94DC01892BFC
:1017F00021F45092F4024092F3028CE00E94DC014A
:10180000892B31F4E0E5F0E0F093F402E093F30289
:101810008DE00E94DC01892B21F47092F402609229
:10182000F30288E00E94DC018091F202882359F0E3
:101830000E94C60261367A4E8105910520F0109211
:10184000F2020E9480060E94C602AB01BC01809198
:10185000EE029091EF02A091F002B091F102885156
:101860009C4FAF4FBF4F84179507A607B70720F4CB
:1018700060E082E00E9405020E94C602AB01BC014A
:101880008091EA029091EB02A091EC02B091ED02FE
:1018900088579C4EAF4FBF4F84179507A607B707D1
:1018A00020F460E083E00E94050284E00E94DC01F5
:1018B000892B09F054C11092E9021092E80260E00D
:1018C00082E090E00E9445078DEB93E00E94A9041E
:1018D0008091BF03882309F492C11092C003109233
:1018E000BE031092BF030E9475060E94C602609359
:1018F000D7027093D8028093D9029093DA020E94A3
:10190000C6020091D7021091D8022091D9023091DD
:10191000DA02601B710B820B930B613177428105F8
:10192000910508F04EC060E080E00E94DA0660EEAB
:1019300071E080ED93E00E94E70461E083E00E94A3
:10194000DA066091080170910901CE0101960E94AA
:101950005C056EEE71E0CE0107960E94CF05BE01D8
:101960006F5F7F4FCE0107960E94BC0562EF71E06A
:101970000E94A6050E94CA00CE0107960E943D065D
:10198000CE0101960E943D068DEB93E00E94A904D2
:101990008091BF03882309F4EFC01092C003109216
:1019A000BE031092BF036091080184E090E00E94A2
:1019B00045070E9475066AEF71E080ED93E00E9492
:1019C000E7048AEA93E00E94A9048091AC0388238B
:1019D00009F431C11092AD031092AB031092AC0325
:1019E0008091E6029091E702019709F014C11092EC
:1019F000E7021092E60260E083E090E00E94450773
:101A00000E94750682EC90E00E94C00668EE73E0CA
:101A100080E090E00E9494028091F3029091F402A1
:101A20008436910544F08091E6029091E702019797
:101A300011F40E949D062091F3023091F4028091EE
:101A4000080190910901821793070CF400C180915D
:101A5000E6029091E702019709F0F9C08091E50252
:101A600081110DC00E94C6026093E1027093E202F0
:101A70008093E3029093E40291E09093E5020E9448
:101A8000C602AB01BC018091E1029091E202A091FB
:101A9000E302B091E402805D9A48AF4FBF4F8417D4
:101AA0009507A607B70740F48091E502882321F047
:101AB0000E9480061092E50260E080E00E94DA0653
:101AC0008091E5026AE971E0882311F06BEA71E028
:101AD00080ED93E00E94E704C090F302D090F402FE
:101AE000C601B7010E94720F5B0110E000E061E0E7
:101AF0000A151B050CF0AEC0802F0E94DA0660E0CC
:101B000080ED93E00E94BA060F5F1F4FF0CF01E017
:101B100010E01093E9020093E80261E082E090E0B7
:101B20000E9445071093E7020093E60261E083E01C
:101B300090E00E9445078AE090E09093090180932D
:101B400008016AE084E090E00E94450764E58FEFB9
:101B500093E00E944507CECC1092F202DCCD84E0E7
:101B60000E94DC018130910509F0AECE9093E9022C
:101B70008093E80261E0A4CE8091C0038823C9F07D
:101B80001092C0031092BE03809108019091090148
:101B9000449797FD2AC090930901809308010E9401
:101BA000C6026093D7027093D8028093D9029093B3
:101BB000DA028AEA93E00E94A9048091AD038823A7
:101BC00009F49DCE1092AD031092AB031092AC03BA
:101BD000809108019091090144968135910554F452
:101BE000909309018093080180CE90920901809220
:101BF0000801D5CF109209011092080176CE80918C
:101C0000C003882309F4DDCE1092C0031092BE03F6
:101C10000E948006D6CE81E090E09093E702809308
:101C2000E60261E083E090E00E9445070E947506AD
:101C300081ED90E0E9CE8091AD03882309F4ECCEEC
:101C40001092AD031092AB030E949D06E5CE109258
:101C5000E50215CF8AE00E94DA06B601CE010196B0
:101C60000E945C056EE072E0CE0107960E94CF05EF
:101C7000BE016F5F7F4FCE0107960E94BC0561E1F8
:101C800072E00E94A6050E94CA00CE0107960E943B
:101C90003D06CE0101960E943D068091E80290919A
:101CA000E902009709F076C00E94C602AB01BC01B0
:101CB0008091DD029091DE02A091DF02B091E002FE
:101CC00088539F4FAF4FBF4F84179507A607B7079D
:101CD00008F053C00E94C6026093DD027093DE02DA
:101CE0008093DF029093E0020091F3021091F402DE
:101CF000C801B7010E94720FCB012091DB02309125
:101D0000DC02260F371F2B303105D4F01092DC0295
:101D10001092DB0261E00E94DA06C80166EF7FEFF5
:101D20000E94720F665F7F4FCE0101960E940006EF
:101D3000CE0101960E94CA00CE0101960E943D0686
:101D40000091DB021091DC028091F3029091F40289
:101D5000B7010E94720F862F9FEF900F61E0890FED
:101D60000E94DA0660E080ED93E00E94BA060F5F01
:101D70001F4F1093DC020093DB0280E090E0892B80
:101D800009F4DCCC0E941001882309F4D4CC0E9411
:101D90000000D1CC019789F71092DC021092DB028F
:101DA0000091F3021091F402C801B7010E94720F72
:101DB000862F61E00E94DA06C80166EF7FEF0E947D
:101DC000720F665F7F4FCE0101960E940006CE0122
:101DD00001960E94CA00CE0101960E943D06CDCF19
:101DE000BB274A3031F4992322F4BDE290958195C6
:101DF0009F4F0C94FC0EBB27FB015527AA27880F89
:101E0000991FAA1FA41710F0A41B83955051B9F76E
:101E1000A05DAA3308F0A95DA193009779F7B111ED
:101E2000B1931192CB010C94150FDC01FC01672FCB
:101E300071917723E1F7329704C07C916D937083A1
:101E40006291AE17BF07C8F30895F999FECF92BD0E
:101E500081BDF89A992780B50895262FF999FECF6C
:101E60001FBA92BD81BD20BD0FB6F894FA9AF99AB7
:101E70000FBE019608952F923F924F925F926F92FC
:101E80007F928F929F92AF92BF92CF92DF92EF920A
:101E9000FF920F931F93CF93DF93CDB7DEB7CA1B8B
:101EA000DB0B0FB6F894DEBF0FBECDBF09942A88B6
:101EB000398848885F846E847D848C849B84AA845E
:101EC000B984C884DF80EE80FD800C811B81AA81EB
:101ED000B981CE0FD11D0FB6F894DEBF0FBECDBFB6
:101EE000ED01089597FB072E16F4009407D077FDB7
:101EF00009D00E948C0F07FC05D03EF49095819587
:101F00009F4F0895709561957F4F0895EE0FFF1FC5
:101F10000590F491E02D0994AA1BBB1B51E107C069
:101F2000AA1FBB1FA617B70710F0A61BB70B881F69
:101F3000991F5A95A9F780959095BC01CD010895F8
:101F40000F931F93CF93DF938230910510F482E0BB
:101F500090E0E091DE03F091DF0330E020E0B0E0BC
:101F6000A0E0309799F42115310509F44AC0281BE7
:101F7000390B24303105D8F58A819B8161157105B3
:101F800089F1FB0193838283FE0111C0408151815D
:101F90000281138148175907E0F04817590799F44F
:101FA000109761F012960C93129713961C93329629
:101FB000CF01DF91CF911F910F9108950093DE0320
:101FC0001093DF03F4CF2115310551F04217530769
:101FD00038F0A901DB019A01BD01DF01F801C1CF91
:101FE000EF01F9CF9093DF038093DE03CDCFFE01A5
:101FF000E20FF31F81939193225031093983288393
:10200000D7CF2091DC033091DD03232B41F42091C5
:102010000C0130910D013093DD032093DC032091FE
:102020000A0130910B012115310541F42DB73EB75E
:1020300040910E0150910F01241B350BE091DC0300
:10204000F091DD03E217F307A0F42E1B3F0B2817D6
:10205000390778F0AC014E5F5F4F2417350748F021
:102060004E0F5F1F5093DD034093DC0381939193E8
:102070009FCFF0E0E0E09CCFCF93DF930097E9F0B3
:10208000FC01329713821282A091DE03B091DF032C
:10209000ED0130E020E01097A1F420813181820F22
:1020A000931F2091DC033091DD032817390709F0D5
:1020B00061C0F093DD03E093DC03DF91CF910895DD
:1020C000EA01CE17DF07E8F54A815B819E014115E1
:1020D0005105B1F7E901FB83EA8349915991C40F96
:1020E000D51FEC17FD0761F4808191810296840F62
:1020F000951FE90199838883828193819B838A83D9
:10210000F0E0E0E012968D919C9113970097B9F55D
:102110002D913C911197CD010296820F931F209132
:10212000DC033091DD032817390739F6309751F574
:102130001092DF031092DE03B093DD03A093DC0363
:10214000BCCFD383C28340815181840F951FC817B0
:10215000D90761F44E5F5F4F88819981480F591FFD
:10216000518340838A819B8193838283211531052A
:1021700009F0B0CFF093DF03E093DE039ECFFD01C3
:10218000DC01C0CF13821282D7CFB0E0A0E0EBEC2D
:10219000F0E10C943D0F8C01009751F4CB010E94AB
:1021A000A00F8C01C801CDB7DEB7E0E10C94590F48
:1021B000FC01E60FF71F9C0122503109E217F307DB
:1021C00008F49DC0D901CD91DC911197C617D707AE
:1021D00098F0C530D10530F3CE01049786179707E4
:1021E00008F3C61BD70B2297C193D1936D937C93B1
:1021F000CF010E943C10D6CF5B01AC1ABD0A4C0146
:102200008C0E9D1EA091DE03B091DF03512C412C5A
:10221000F12CE12C109731F58091DC039091DD03D6
:102220008815990509F05CC04616570608F058C095
:1022300080910A0190910B01009741F48DB79EB7F0
:1022400040910E0150910F01841B950BE817F9077F
:1022500008F055C0F093DD03E093DC03F9017183CE
:102260006083A0CF8D919C91119712966C901297DC
:1022700013967C901397A815B90559F56C0142E0A7
:10228000C40ED11CCA14DB0420F1AC014A195B094D
:10229000DA011296159780F062827382518340832F
:1022A000D9016D937C93E114F10471F0D701139679
:1022B000FC93EE93129776CF22968C0F9D1FF90117
:1022C00091838083F301EFCFF093DF03E093DE038C
:1022D00069CF4816590608F42C017D01D3019ACF25
:1022E000CB010E94A00F7C01009749F0AE01B8011C
:1022F0000E948211C8010E943C10870153CF10E058
:1023000000E050CFFB01DC0102C001900D92415072
:102310005040D8F70895FB01DC0101900D92002098
:08232000E1F70895F894FFCFE6
:102328001F1F1F1F1F1F1F1F14000000E003800036
:1023380000004000140054000000000046019D0009
:10234800D30093010401E200F600000000009003AE
:102358006303A60439035C0349033A030000000041
:10236800BA069D00A604D2020D0A002020202020D3
:10237800202020202000204D4F544F5220535441FC
:10238800525445440020204D4F544F522053544F2F
:102398005045440053776974636820496E69740036
:1023A80053776974636820496E6974323232320037
:1023B8004F4E2020004F464620005741544552209A
:1023C8004C4556454C20202020200057415445526A
:1023D800204C4556454C204C4F5720005154524FE5
:1023E8004E004155544F204D4F4445203A20004C53
:1023F8004F57204C4556454C3A20002520202000B8
:10240800534554204C4F57204C4556454C003C20D2
:102418002000252020203E2020004C6F77204C658E
:1024280076656C2053746F7265642E2E2E003E3EC6
:04243800002520005B
:00000001FF
