:020000040000FA
:100000000C9462000C948A000C948A000C948A0070
:100010000C948A000C948A000C948A000C948A0038
:100020000C948A000C948A000C948A000C948A0028
:100030000C948A000C948A000C948A000C948A0018
:100040000C94A1040C948A000C946F040C94490441
:100050000C948A000C948A000C948A000C948A00F8
:100060000C948A000C948A000000000024002700F1
:100070002A0000000000250028002B0000000000DE
:1000800023002600290004040404040404040202DA
:100090000202020203030303030301020408102007
:1000A0004080010204081020010204081020000012
:1000B0000008000201000003040700000000000027
:1000C0000000250511241FBECFEFD8E0DEBFCDBF55
:1000D00022E0AEE5B1E001C01D92AF36B207E1F714
:1000E00011E0A0E0B1E0E0EDF5E102C005900D9275
:1000F000AE35B107D9F710E0C2E6D0E004C02197D1
:10010000FE010E94E00AC136D107C9F70E947905B5
:100110000C94E60A0C94000080916D0290916E029E
:100120008230910538F0880F991F880F991F059725
:100130000197F1F70895FC01538D448D252F30E090
:10014000842F90E0821B930B541710F0CF960895E4
:1001500001970895FC01918D828D981761F0A28D11
:10016000AE0FBF2FB11D5D968C91928D9F5F9F73D7
:10017000928F90E008958FEF9FEF0895FC01918D8D
:10018000828D981731F0828DE80FF11D858D90E0FA
:1001900008958FEF9FEF0895FC01918D228D892F97
:1001A00090E0805C9F4F821B91098F73992708957F
:1001B000FC01A48DA80FB92FB11DA35ABF4F2C91DC
:1001C000848D90E001968F739927848FA689B789D3
:1001D0002C93A089B1898C91837080648C93938DCA
:1001E000848D981306C00288F389E02D80818F7D6D
:1001F00080830895EF92FF920F931F93CF93DF9325
:10020000EC0181E0888F9B8D8C8D98131AC0E88952
:10021000F989808185FF15C09FB7F894EE89FF8921
:100220006083E889F98980818370806480839FBFBF
:1002300081E090E0DF91CF911F910F91FF90EF90BF
:100240000895F62E0B8D10E00F5F1F4F0F731127CF
:10025000E02E8C8D8E110CC00FB607FCFACFE8890A
:10026000F989808185FFF5CFCE010E94D800F1CFBA
:10027000EB8DEC0FFD2FF11DE35AFF4FF0829FB77E
:10028000F8940B8FEA89FB8980818062CFCFCF936E
:10029000DF93EC01888D8823B9F0AA89BB89E889AE
:1002A000F9898C9185FD03C0808186FD0DC00FB654
:1002B00007FCF7CF8C9185FFF2CF808185FFEDCFD2
:1002C000CE010E94D800E9CFDF91CF9108958FEA47
:1002D00091E00E94CC0021E0892B09F420E0822FDC
:1002E000089580E090E0892B29F00E946701811138
:1002F0000C9400000895AF92BF92CF92DF92EF92DC
:10030000FF920F931F93CF93DF936C017B018B01BF
:10031000040F151FEB015E01AE18BF08C017D1070F
:1003200059F06991D601ED91FC910190F081E02D99
:10033000C6010995892B79F7C501DF91CF911F91EE
:100340000F91FF90EF90DF90CF90BF90AF90089506
:10035000833081F028F4813099F08230A9F008953B
:100360008730A9F08830C9F08430B1F480918000E2
:100370008F7D03C0809180008F77809380000895E7
:1003800084B58F7784BD089584B58F7DFBCF809130
:10039000B0008F778093B00008958091B0008F7D7A
:1003A000F9CFCF93DF93282F30E0F901E255FF4FCB
:1003B0008491F901E656FF4FD491F901EA57FF4FB6
:1003C000C491CC23A1F081110E94A801EC2FF0E090
:1003D000EE0FFF1FE458FF4FA591B491EC91ED2370
:1003E00081E090E009F480E0DF91CF91089580E012
:1003F00090E0FACF1F93CF93DF93282F30E0F901DD
:10040000E255FF4F8491F901E656FF4FD491F9016F
:10041000EA57FF4FC491CC23A9F0162F81110E94F7
:10042000A801EC2FF0E0EE0FFF1FEE58FF4FA59153
:10043000B4918FB7F894EC91111108C0D095DE23D8
:10044000DC938FBFDF91CF911F910895DE2BF8CF02
:10045000CF93DF9390E0FC01E656FF4F24918A573B
:100460009F4FFC0184918823C9F090E0880F991F69
:10047000FC01E859FF4FA591B491FC01EE58FF4FE4
:10048000C591D49161110DC09FB7F8948C912095BE
:1004900082238C938881282328839FBFDF91CF916B
:1004A0000895623051F49FB7F8943C91822F809563
:1004B00083238C93E8812E2BEFCF8FB7F894EC91A8
:1004C0002E2B2C938FBFEACFCF93DF93CAE6D2E0D7
:1004D00061E089810E9428020E948C0060E088818E
:1004E0000E9428020E948C0060E089810E942802FC
:1004F000DF91CF910C948C000F931F93CF93DF93D8
:10050000D82FC8E061E080916A020E9428020E9410
:100510008C000D2F10E060E0D0FF61E080916B0255
:100520000E9428020E948C0060E080916A020E9472
:1005300028020E948C0015950795D02FC15011F705
:1005400061E080916A020E94280260E080916B0263
:100550000E9428020E948C0060E080916A020E9442
:1005600028020E948C0080916B020E94D101C82F4A
:10057000811105C061E080916B020E9428020E94F7
:100580008C0061E080916A020E9428020E948C0027
:1005900081E0C11101C080E0DF91CF911F910F91E7
:1005A000089561E080916B020E9428020C948C00F7
:1005B0000F931F93CF93DF938C010E94D10280E4AD
:1005C0000E947C020E9464020E94D10280EC0E9480
:1005D0007C02E8010C5F1F4F89910E947C02C017CA
:1005E000D107D1F70E9464020E94D10280916C026F
:1005F0008F7080580E947C02DF91CF911F910F91E4
:100600000C946402CF93DF9300D000D0CDB7DEB757
:1006100019821A821B821C82CE0101960E94D80286
:100620000F900F900F900F90DF91CF9108953FB7EB
:10063000F8948091630190916401A0916501B0915B
:10064000660126B5A89B05C02F3F19F00196A11D94
:10065000B11D3FBFBA2FA92F982F8827BC01CD010C
:10066000620F711D811D911D42E0660F771F881F6B
:10067000991F4A95D1F708958F929F92AF92BF929A
:10068000CF92DF92EF92FF920E9417034B015C0121
:1006900088EEC82E83E0D82EE12CF12C0E9417039F
:1006A000681979098A099B09683E7340810591059B
:1006B000A8F321E0C21AD108E108F10888EE880EFB
:1006C00083E0981EA11CB11CC114D104E104F10403
:1006D00029F7FF90EF90DF90CF90BF90AF909F9061
:1006E0008F9008952FB7F89460915F017091600129
:1006F00080916101909162012FBF089580919D01C9
:1007000090919E01892BA1F0109288010E947203A2
:100710006093940170939501809396019093970153
:1007200061E087E00E94FA0161E080E10C94FA0147
:10073000089580919D0190919E01019771F00E9412
:100740007203609390017093910180939201909352
:10075000930161E086E00C94FA0108950F931F93D2
:10076000CF93DF93EC0188810E94D1012C81892BEA
:1007700041F5211108C081E08C830E9472036E83D1
:100780007F83888799870E9472030E811F81288545
:100790003985601B710B820B930B0A851B852C8599
:1007A0003D85061717072807390730F48D81811119
:1007B00003C081E08D838A83DF91CF911F910F91D8
:1007C00008952223C9F38D81882319F01D821C828C
:1007D000F3CF81E08B83FBCFDF92EF92FF920F93F9
:1007E0001F93CF93DF9300D000D0CDB7DEB7009733
:1007F000A9F419821A821B828FE38C83CE010196A1
:100800000E94D8020F900F900F900F90DF91CF9120
:100810001F910F91FF90EF90DF9008959C0197FF3B
:1008200004C022273327281B390B492F441F442794
:10083000441FFE0131967E0183E0E81AF1080AE0C8
:1008400010E080E4D82EC901B8010E94B80A582FE0
:10085000811109C02115310531F41382442369F057
:10086000D38240E00AC0845E9E4FDC018C9183837A
:10087000511103C02115310589F3C901B8010E9446
:10088000B80A9B013197EE16FF06E9F6B7CF0C9434
:10089000AA0A1F920F920FB60F9211242F933F9323
:1008A0004F935F936F937F938F939F93AF93BF9378
:1008B000EF93FF938FEA91E00E94D800FF91EF91B0
:1008C000BF91AF919F918F917F916F915F914F9168
:1008D0003F912F910F900FBE0F901F9018951F9270
:1008E0000F920FB60F9211242F938F939F93EF9334
:1008F000FF93E091BF01F091C0018081E091C501BB
:10090000F091C60182FD1BC090818091C8018F5F6C
:100910008F732091C901821741F0E091C801F0E086
:10092000E155FE4F958F8093C801FF91EF919F9104
:100930008F912F910F900FBE0F901F90189580816F
:10094000F4CF1F920F920FB60F9211242F933F9363
:100950008F939F93AF93BF9380915F0190916001BC
:10096000A0916101B091620130915E0123E0230FFB
:100970002D3758F50196A11DB11D20935E0180937E
:100980005F0190936001A0936101B0936201809137
:10099000630190916401A0916501B0916601019697
:1009A000A11DB11D8093630190936401A093650123
:1009B000B0936601BF91AF919F918F913F912F911D
:1009C0000F900FBE0F901F90189526E8230F0296E8
:1009D000A11DB11DD2CFCF93DF93FC010190002068
:1009E000E9F73197AF01481B590BBC018FEA91E041
:1009F0000E947B01EC0142E050E06EE371E08FEA7F
:100A000091E00E947B018C0F9D1FDF91CF91089593
:100A1000CF93DF93EC0119821A821B8288EB9BE053
:100A2000A0E0B0E08A879B87AC87BD87688381E4BC
:100A300091E00E94EB0462E088810E9428028DE42C
:100A400091E0DF91CF910C94EB04CF93DF93EFEA29
:100A5000F1E01382128288EE93E0A0E0B0E084839C
:100A60009583A683B78380E391E09183808385ECAF
:100A700090E09587848784EC90E09787868780EC68
:100A800090E0918B808B81EC90E0938B828B82EC59
:100A900090E0958B848B86EC90E0978B868B118E03
:100AA000128E138E148ECAE6D2E083E0888384E02F
:100AB000898384E690E09C838B8360E083E00E94DE
:100AC000280260E089810E94280260E088810E94FB
:100AD000FA0160E089810E94FA016EE08BE592E004
:100AE0000E9408056FE08CE492E0DF91CF910C94B6
:100AF0000805CF93DF93CDB7DEB728970FB6F894EC
:100B0000DEBF0FBECDBF789484B5826084BD84B54E
:100B1000816084BD85B5826085BD85B5816085BDF8
:100B200080916E00816080936E00109281008091B0
:100B30008100826080938100809181008160809338
:100B40008100809180008160809380008091B1005D
:100B500084608093B1008091B00081608093B00088
:100B600080917A00846080937A0080917A0082601C
:100B700080937A0080917A00816080937A008091DE
:100B80007A00806880937A001092C1008FE0809391
:100B90006C028091060190910701A0910801B0912B
:100BA000090189839A83AB83BC83CE0101960E949D
:100BB000D8020E943C0361E081E10E94280261E0CA
:100BC00087E00E94280261E086E00E94280262E03D
:100BD0008EE00E94280262E08FE00E94280262E01C
:100BE00085E00E94280262E089E00E94280262E01B
:100BF0008AE00E94280262E08BE00E94280262E004
:100C00008CE00E94280262E08DE00E94280262E0EF
:100C100088E00E94280261E080E10E9428028FEFB4
:100C200093E00E94A20A843509F0F0C082E090E0CF
:100C30000E94A20A90E090939E0180939D0183E020
:100C400090E00E94A20A90E090938F0180938E0121
:100C500084E090E00E94A20A90E0909305018093C6
:100C6000040180919D0190919E01892B09F0F3C0B0
:100C700081E08093980180910A0190910B01A091ED
:100C80000C01B0910D018D839E83AF83B887409096
:100C90000E0150900F01609010017090110190E5CD
:100CA000292E312CDD24D39488E0C82E8091A70111
:100CB00081110CC00E9472036093A3017093A40180
:100CC0008093A5019093A601D092A7010E94720380
:100CD0000091A3011091A4012091A5013091A601DA
:100CE000601B710B820B930B653F71408105910571
:100CF000A0F00E9472036093A3017093A4018093FB
:100D0000A5019093A60181E10E94D10161E0892BA8
:100D100009F060E081E10E94FA010E947203AB01D8
:100D2000BC0180919F019091A001A091A101B0917F
:100D3000A2018C599F4FAF4FBF4F84179507A6074D
:100D4000B70708F0B7C080919D0190919E01892B53
:100D500009F0B0C080919C018111ACC00E94720367
:100D600060939F017093A0018093A1019093A201D1
:100D700089E691E00E94D802809167019091680114
:100D80008330910509F06AC0C092690110926A012E
:100D900001969093680180936701089744F0109240
:100DA0006901D0926A0110926801109267010E9455
:100DB0007203AB01BC0180917E0190917F01A091F3
:100DC0008001B09181018C599F4FAF4FBF4F841765
:100DD0009507A607B70708F059C0809188018823B6
:100DE00009F454C00E94720360937E0170937F01E6
:100DF000809380019093810180917D01882309F483
:100E000081C20E94020310927D0154C001E010E0F3
:100E100010939E0100939D0161E082E090E00E94AA
:100E2000470410938F0100938E0161E083E090E00E
:100E30000E9447048AE090E09093050180930401AA
:100E40006AE084E090E00E94470464E58FEF93E05D
:100E50000E94470406CF109298010DCF843091056F
:100E600034F420916A01220F20936A0191CF8630D9
:100E700091052CF420916901220F2093690186309D
:100E8000910509F085CFD092690182CF80919A01B6
:100E900090919B016AE070E00E94CC0A6E5E7E4FEA
:100EA000FB01208120936B01FC01EE5EFE4F8081EF
:100EB00080936C0110929B0110929A0189E00E942C
:100EC000D101892B31F4E4E1F0E0F0939B01E09350
:100ED0009A018AE00E94D101892B31F488E290E0E6
:100EE00090939B0180939A018BE00E94D101892B02
:100EF00031F4ACE3B0E0B0939B01A0939A018CE095
:100F00000E94D101892B21F430929B0120929A01F9
:100F10008DE00E94D101892B31F4E4E6F0E0F093FA
:100F20009B01E0939A0188E00E94D101892B09F08E
:100F300000C2D092990180919801882359F00E94B3
:100F40007203613375478105910520F01092980175
:100F50000E947E030E947203AB01BC018091940148
:100F600090919501A0919601B091970188519C4F65
:100F7000AF4FBF4F84179507A607B70740F460E04F
:100F800087E00E94FA0160E080E10E94FA010E947D
:100F90007203AB01BC018091900190919101A091ED
:100FA0009201B09193018053984FAF4FBF4F841778
:100FB0009507A607B70720F460E086E00E94FA01D3
:100FC00085E00E94D101892B09F0B6C110929E01E3
:100FD00010929D0160E082E090E00E9447048BE562
:100FE00092E00E94AE0300915D02002309F40AC260
:100FF00010925E0210925C0210925D028091750167
:1010000081110CC00E947203609371017093720190
:101010008093730190937401D09275010E947203C2
:1010200060936D0170936E0180936F0190937001D6
:1010300010E00E94720380906D0190906E01A0906C
:101040006F01B0907001681979098A099B096131B3
:1010500077428105910508F045C00E947203AB01FB
:10106000BC018091710190917201A0917301B091C6
:101070007401845D9E4FAF4FBF4F84179507A6073D
:10108000B70798F40E947203609371017093720124
:101090008093730190937401111163C180910401D5
:1010A000909105010E94EC03102F8BE592E00E94C5
:1010B000AE0380915D02882309F457C110925E024D
:1010C00010925C0210925D026091040184E090E055
:1010D0000E94470480910401909105010E94EC0355
:1010E0000E943C038CE492E00E94AE0380914E0289
:1010F000882309F4A7C110924F0210924D0210925A
:101100004E0280918E0190918F01019709F086C166
:1011100010928F0110928E0160E083E090E00E94B7
:10112000470449825A826B827C82CE0101960E94DA
:10113000D8020E943C0300919A0110919B01E0901B
:101140009D01F0909E01043611050CF487C1809139
:101150008E0190918F01019709F080C1E114F10493
:1011600009F07CC180919C0181110CC00E94720326
:1011700060938A0170938B0180938C0190938D0111
:10118000D0929C010E94720380908A0190908B0102
:10119000A0908C01B0908D01A501940128553E4985
:1011A0004F4F5F4F261737074807590740F4809184
:1011B0009C01882321F061E080E10E94FA010E94F5
:1011C0007203A0E38A0EA5E79A1EA11CB11C861625
:1011D0009706A806B90640F480919C01882321F067
:1011E0000E94990310929C01809104019091050145
:1011F000081719070CF035C180918E0190918F016D
:10120000019709F02EC1B1E0EB16F10409F029C1F4
:101210008091890181110CC00E94720360938A0140
:1012200070938B0180938C0190938D01D0928901F2
:101230000E947203AB01BC0180918A0190918B01E5
:10124000A0918C01B0918D01805D9A48AF4FBF4F46
:1012500084179507A607B70740F480918901882372
:1012600021F00E947E0310928901E114F104A1F49F
:10127000809199018111F8C08091880181110CC081
:101280000E947203609384017093850180938601AC
:1012900090938701D09288010E947203AB01BC0138
:1012A0008091840190918501A0918601B091870180
:1012B000805A9541AF4FBF4F84179507A607B707D0
:1012C00028F48091880181110E949903E1E0EE16D3
:1012D000F10409F009C180918901209182013091C6
:1012E00083010217130709F4C2C08111C3C0C801EA
:1012F0000E94EC031093830100938201C8010E94B5
:10130000EC03E5C080919A0190919B016AE070E046
:101310000E94CC0A6E5E7E4FDB012C9120936B0104
:10132000FC01EE5EFE4F808180936C01D0927D01C6
:10133000C1CD10929901FFCD85E00E94D10181308D
:10134000910509F04CCE90939E0180939D0161E040
:1013500082E090E00E94470460E080E10E94FA0190
:101360003ECE0E94020310E0A0CE80915E02882350
:10137000C9F010925E0210925C028091040190917B
:101380000501449797FD34C09093050180930401B3
:101390000E94720360936D0170936E0180936F01E0
:1013A000909370018CE492E00E94AE0380914F0212
:1013B000882309F43ECE10924F0210924D021092F3
:1013C0004E0280910401909105014496813591056A
:1013D000A4F490930501809304010E94720360932A
:1013E0006D0170936E0180936F019093700121CE17
:1013F0003092050120920401CBCF1092050110928A
:101400000401EBCF80915E02882309F46BCE109229
:101410005E0210925C020E947E0364CE81E090E046
:1014200090938F0180938E0161E083E090E00E94B1
:1014300047048D819E81AF81B88589839A83AB8370
:10144000BC8373CE80914F02882309F474CE10922E
:101450004F0210924D020E9499036DCE10929C0192
:1014600091CE10928901E4CE1092880115CF882385
:1014700009F444CF0E947203AB01BC0180917E014C
:1014800090917F01A0918001B0918101845D9E4F78
:10149000AF4FBF4F84179507A607B707C0F40E9448
:1014A000720360937E0170937F018093800190931B
:1014B000810180917D01811106C0C8010E94EC0369
:1014C000D0927D0104C00E94020310927D0180E051
:1014D00090E0892B09F4EACB0E946701882309F484
:1014E000E1CB0E940000DBCBEF2889F780919C01C3
:1014F000882369F30E947203AB01BC0180917E01D5
:1015000090917F01A0918001B0918101845D9E4FF7
:10151000AF4FBF4F84179507A607B707C0F60E94C5
:10152000720360937E0170937F018093800190939A
:10153000810180917D018111C6CF80E091E00E9400
:10154000D802BECFF999FECF92BD81BDF89A9927F6
:1015500080B50895262FF999FECF1FBA92BD81BD9F
:1015600020BD0FB6F894FA9AF99A0FBE0196089525
:10157000AA1BBB1B51E107C0AA1FBB1FA617B707B9
:1015800010F0A61BB70B881F991F5A95A9F78095D5
:101590009095BC01CD01089597FB072E16F4009499
:1015A00007D077FD09D00E94B80A07FC05D03EF4A9
:1015B000909581959F4F0895709561957F4F0895FF
:1015C000EE0FFF1F0590F491E02D0994F894FFCFE2
:1015D000713E38381400FFFFFFFF77F83F3777F888
:1015E0003F713F065B4F666D7D077F6F3F065B4F28
:1015F000666D7D077F6F777C395E79710000000032
:10160000FA007B019B004701CC00AA00BE000D0A36
:101610000053776974636820496E69740053776971
:0E16200074636820496E697432323232000001
:107E0000112484B714BE81FFF0D085E080938100F7
:107E100082E08093C00088E18093C10086E0809377
:107E2000C20080E18093C4008EE0C9D0259A86E02C
:107E300020E33CEF91E0309385002093840096BBD3
:107E4000B09BFECF1D9AA8958150A9F7CC24DD24C4
:107E500088248394B5E0AB2EA1E19A2EF3E0BF2EE7
:107E6000A2D0813461F49FD0082FAFD0023811F036
:107E7000013811F484E001C083E08DD089C08234E0
:107E800011F484E103C0853419F485E0A6D080C0E4
:107E9000853579F488D0E82EFF2485D0082F10E0AE
:107EA000102F00270E291F29000F111F8ED06801E7
:107EB0006FC0863521F484E090D080E0DECF843638
:107EC00009F040C070D06FD0082F6DD080E0C81688
:107ED00080E7D80618F4F601B7BEE895C0E0D1E017
:107EE00062D089930C17E1F7F0E0CF16F0E7DF06D8
:107EF00018F0F601B7BEE89568D007B600FCFDCFD4
:107F0000A601A0E0B1E02C9130E011968C91119780
:107F100090E0982F8827822B932B1296FA010C0160
:107F200087BEE89511244E5F5F4FF1E0A038BF0790
:107F300051F7F601A7BEE89507B600FCFDCF97BE46
:107F4000E89526C08437B1F42ED02DD0F82E2BD052
:107F50003CD0F601EF2C8F010F5F1F4F84911BD097
:107F6000EA94F801C1F70894C11CD11CFA94CF0C13
:107F7000D11C0EC0853739F428D08EE10CD085E9AC
:107F80000AD08FE07ACF813511F488E018D01DD067
:107F900080E101D065CF982F8091C00085FFFCCF94
:107FA0009093C60008958091C00087FFFCCF809118
:107FB000C00084FD01C0A8958091C6000895E0E648
:107FC000F0E098E1908380830895EDDF803219F02E
:107FD00088E0F5DFFFCF84E1DECF1F93182FE3DFCA
:107FE0001150E9F7F2DF1F91089580E0E8DFEE27F6
:047FF000FF270994CA
:027FFE00040479
:00000001FF
