:1000000045C069C068C067C066C065C064C063C0E1
:1000100062C01DC460C0E9C3C3C35DC05CC05BC037
:100020005AC059C058C000000000370034003100E9
:1000300000000000380035003200000000003600EB
:100040003300300004040404040404040202020225
:100050000202030303030303020203010204081064
:1000600020408001020408102001020408102040F2
:1000700080400000000000000000000405070000B0
:1000800000000000000000000000A60411241FBEB4
:10009000CFE5D4E0DEBFCDBF21E0AEEBB0E001C0E4
:1000A0001D92AE3CB207E1F710E0A0E6B0E0E4E557
:1000B000F3E102C005900D92AE3BB107D9F710E015
:1000C000C6E4D0E003C02197FE013CD9C534D10776
:1000D000D1F788D43DC994CFFC01538D448D252F91
:1000E00030E0842F90E0821B930B541710F0CF96D2
:1000F000089501970895FC01918D828D981761F004
:10010000A28DAE0FBF2FB11D5D968C91928D9F5F1A
:100110009F73928F90E008958FEF9FEF0895FC01F9
:10012000918D828D981731F0828DE80FF11D858DAC
:1001300090E008958FEF9FEF0895FC01918D228D3F
:10014000892F90E0805C9F4F821B91098F739927C4
:100150000895FC01A48DA80FB92FB11DA35ABF4F5C
:100160002C91848D90E001968F739927848FA689B6
:10017000B7892C93A089B1898C9180648C93938DDD
:10018000848D981306C00288F389E02D80818F7DCD
:1001900080830895EF92FF920F931F93CF93DF9385
:1001A000EC0181E0888F9B8D8C8D981316C0E889B7
:1001B000F989808185FF11C0EE89FF896083E88914
:1001C000F98980818064808381E090E0DF91CF9124
:1001D0001F910F91FF90EF900895F62E0B8D10E078
:1001E0000F5F1F4F0F731127E02E8C8D8E110BC0E8
:1001F0000FB607FCFACFE889F989808185FFF5CF32
:10020000CE01A7DFF2CFEB8DEC0FFD2FF11DE35AEE
:10021000FF4FF0820B8FEA89FB8980818062D3CF08
:10022000CF93DF93EC01888D8823B1F0AA89BB8935
:10023000E889F9898C9185FD03C0808186FD0CC019
:100240000FB607FCF7CF8C9185FFF2CF808185FF39
:10025000EDCFCE017EDFEACFDF91CF9108958EE022
:1002600091E06BDF21E0892B09F420E0822F0895D3
:1002700080E090E0892B19F0F2DF8111C1CE089562
:10028000AF92BF92CF92DF92EF92FF920F931F93A4
:10029000CF93DF936C017B018B01040F151FEB01E2
:1002A0005E01AE18BF08C017D10759F06991D60199
:1002B000ED91FC910190F081E02DC6010995892B0B
:1002C00079F7C501DF91CF911F910F91FF90EF90CA
:1002D000DF90CF90BF90AF900895853041F0873088
:1002E00049F0843051F48FB58F778FBD08958FB565
:1002F0008F7DFBCF85B58F7D85BD0895CF93DF932F
:10030000282F30E0F901EE58FF4F8491F901E55AAA
:10031000FF4FD491F901EC5BFF4FC491CC2399F0CE
:100320008111DBDFEC2FF0E0EE0FFF1FE65CFF4FEB
:10033000A591B491EC91ED2381E090E009F480E087
:10034000DF91CF91089580E090E0FACF1F93CF9393
:10035000DF93282F30E0F901EE58FF4F8491F90127
:10036000E55AFF4FD491F901EC5BFF4FC491CC23C8
:10037000A1F0162F8111B1DFEC2FF0E0EE0FFF1F7F
:10038000E05DFF4FA591B4918FB7F894EC911111F6
:1003900008C0D095DE23DC938FBFDF91CF911F91F2
:1003A0000895DE2BF8CFCF93DF9390E0FC01E55A60
:1003B000FF4F24918C5B9F4FFC0184918823C9F0EF
:1003C00090E0880F991FFC01EA5DFF4FA591B49161
:1003D000FC01E05DFF4FC591D49161110DC09FB745
:1003E000F8948C91209582238C93888128232883EC
:1003F0009FBFDF91CF910895623051F49FB7F89479
:100400003C91822F809583238C93E8812E2BEFCF14
:100410008FB7F894EC912E2B2C938FBFEACF8230BC
:10042000910538F0880F991F880F991F059701973C
:10043000F1F708958091CC019091CD01F0CFCF9349
:10044000DF93C9ECD1E061E08981ADDFF3DF60E0EB
:100450008881A9DFEFDF60E08981A5DFDF91CF919F
:10046000E9CF0F931F93CF93DF93D82FC8E061E0BC
:100470008091C90198DFDEDF0D2F10E060E0D0FF32
:1004800061E08091CA018FDFD5DF60E08091C90112
:100490008ADFD0DF15950795D02FC15041F761E075
:1004A0008091C90180DF60E08091CA017CDFC2DFFA
:1004B00060E08091C90177DFBDDF8091CA011EDF56
:1004C000C82F811104C061E08091CA016CDFB2DFE6
:1004D00061E08091C90167DFADDF81E0C11101C03A
:1004E00080E0DF91CF911F910F91089561E080919D
:1004F000CA0159DF9FCF0F931F93CF93DF938C01D6
:10050000F5DF80E4AEDF9BDFF1DF80ECAADFE801FE
:100510000C5F1F4F8991A5DFC017D107D9F78FDF77
:10052000E5DF8091CB018F7080589BDFDF91CF9109
:100530001F910F9184CFCF93DF9300D000D0CDB720
:10054000DEB719821A821B821C82CE010196D3DF8C
:100550000F900F900F900F90DF91CF9108953FB7BC
:10056000F8948091C3009091C400A091C500B0910F
:10057000C60022B708B600FE05C02F3F19F001964D
:10058000A11DB11D3FBFBA2FA92F982F8827BC01ED
:10059000CD01620F711D811D911D42E0660F771F15
:1005A000881F991F4A95D1F708958F929F92AF9215
:1005B000BF92CF92DF92EF92FF92D1DF4B015C01AD
:1005C00088EEC82E83E0D82EE12CF12CC8DF681904
:1005D00079098A099B09683E734081059105B0F34A
:1005E00021E0C21AD108E108F10888EE880E83E004
:1005F000981EA11CB11CC114D104E104F10431F70F
:10060000FF90EF90DF90CF90BF90AF909F908F9032
:1006100008952FB7F8946091BF007091C000809149
:10062000C1009091C2002FBF08958091FD008823E2
:1006300089F01092E800EDDF6093F4007093F5000C
:100640008093F6009093F70061E087E07FDE61E041
:1006500080E17CCE08958091FD00813061F0D9DF8A
:100660006093F0007093F1008093F2009093F30098
:1006700061E086E06BCE08950F931F93CF93DF93D5
:10068000EC0188813BDE2C81892B31F5211107C0DB
:1006900081E08C83BEDF6E837F8388879987B9DF93
:1006A0000E811F8128853985601B710B820B930B8E
:1006B0000A851B852C853D850617170728073907EE
:1006C00030F48D81811103C081E08D838A83DF91B5
:1006D000CF911F910F9108952223C9F38D81882313
:1006E00019F01D821C82F3CF81E08B83FBCFDF9258
:1006F000EF92FF920F931F93CF93DF9300D000D020
:10070000CDB7DEB70097A1F419821A821B828FE35E
:100710008C83CE010196EFDE0F900F900F900F901B
:10072000DF91CF911F910F91FF90EF90DF9008958F
:100730009C0197FF04C022273327281B390B492F20
:10074000441F4427441FFE0131967E0183E0E81ACE
:10075000F1080AE010E080E4D82EC901B801CBD539
:10076000582F811109C02115310531F4138244231A
:1007700069F0D38240E00AC084589F4FDC018C911D
:100780008383511103C02115310589F3C901B801D3
:10079000B2D59B013197EE16FF06F9F6BACF9EC58A
:1007A0001F920F920FB60F9211242F933F934F93E6
:1007B0005F936F937F938F939F93AF93BF93EF93C9
:1007C000FF938EE091E0C5DCFF91EF91BF91AF9177
:1007D0009F918F917F916F915F914F913F912F9159
:1007E0000F900FBE0F901F9018951F920F920FB68B
:1007F0000F9211242F938F939F93EF93FF93E09188
:100800001E01F0911F018081E0912401F0912501EA
:1008100082FD1BC09081809127018F5F8F73209193
:100820002801821741F0E0912701F0E0E25FFE4FDE
:10083000958F80932701FF91EF919F918F912F9139
:100840000F900FBE0F901F9018958081F4CF1F92CC
:100850000F920FB60F9211242F933F938F939F9374
:10086000AF93BF938091BF009091C000A091C10051
:10087000B091C2003091BE0023E0230F2D3768F104
:1008800026E8230F0296A11DB11D2093BE00809380
:10089000BF009093C000A093C100B093C2008091AC
:1008A000C3009091C400A091C500B091C60001960C
:1008B000A11DB11D8093C3009093C400A093C500F7
:1008C000B093C600BF91AF919F918F913F912F91AF
:1008D0000F900FBE0F901F9018950196A11DB11D8E
:1008E000D4CFCF93DF93FC0101900020E9F731973B
:1008F000AF01481B590BBC018EE091E0C1DCEC015B
:1009000042E050E06EE970E08EE091E0B9DC8C0FDF
:100910009D1FDF91CF910895CF93DF93EC01198252
:100920001A821B8288EB9BE0A0E0B0E08A879B875D
:10093000AC87BD87688381EA90E0D3DF62E088817D
:1009400032DD8DEA90E0DF91CF91CBCFCF93DF9373
:10095000EEE0F1E01382128288EE93E0A0E0B0E0D6
:1009600084839583A683B78380E990E09183808315
:1009700080E490E09587848729E230E037872687F6
:100980002BE230E0318B208B2AE230E0338B228B5C
:10099000958B848B8CE290E0978B868B118E128ED8
:1009A000138E148EC9ECD1E083E0888384E08983C0
:1009B00084E690E09C838B8360E083E0F4DC60E07D
:1009C0008981F1DC60E08881C1DC60E08981BEDC86
:1009D0006EE08AEB91E0A0DF6FE08BEA91E0DF91BF
:1009E000CF919ACFCF93DF9300D000D0CDB7DEB7B1
:1009F000789483B7836083BF89B7816089BF82E0C1
:100A00008EBD8EB581608EBD8FB581608FBD85B581
:100A1000846085BD85B5806485BD87E886B91AB8D0
:100A20008FE08093CB018091660090916700A09148
:100A30006800B091690089839A83AB83BC83CE013F
:100A4000019659DDB2DD61E081E1ADDC61E087E076
:100A5000AADC61E086E0A7DC62E08EE0A4DC62E074
:100A60008FE0A1DC62E085E09EDC62E089E09BDC57
:100A700062E08AE098DC62E08BE095DC62E08CE08A
:100A800092DC62E08DE08FDC62E088E08CDC61E08B
:100A900080E189DC8FEF93E019D4843509F0D1C06F
:100AA00082E090E013D48093FD0083E090E00ED4C8
:100AB00090E09093EF008093EE0084E090E006D405
:100AC00090E090936500809364008091FD00811117
:100AD000D8C081E08093F80080906A0090906B000D
:100AE000A0906C00B0906D0040906E0050906F0030
:100AF00060907000709071003324339480910601EF
:100B000081110BC086DD6093020170930301809315
:100B1000040190930501309206017BDD00910201F2
:100B2000109103012091040130910501601B710BAC
:100B3000820B930B653F71408105910588F069DD5B
:100B40006093020170930301809304019093050167
:100B500081E1D4DB61E0892B09F060E081E1F6DB23
:100B600058DDAB01BC018091FE009091FF00A09187
:100B70000001B09101018C599F4FAF4FBF4F8417B7
:100B80009507A607B70708F0AAC08091FD0081115C
:100B9000A6C08091FC008111A2C03BDD6093FE00E5
:100BA0007093FF00809300019093010189EC90E025
:100BB000A2DC8091C7009091C8008330910509F0B4
:100BC00063C0E8E0E093C9001092CA0001969093D8
:100BD000C8008093C700089744F01092C900309273
:100BE000CA001092C8001092C70013DDAB01BC010F
:100BF0008091DE009091DF00A091E000B091E100D3
:100C00008C599F4FAF4FBF4F84179507A607B70763
:100C100008F052C08091E800882309F44DC0F9DC47
:100C20006093DE007093DF008093E0009093E1001A
:100C30008091DD00882309F446C27DDC1092DD003E
:100C40004EC081E08093FD0061E082E090E0A7DD8E
:100C500081E090E09093EF008093EE0061E083E00C
:100C600090E09DDD8AE090E09093650080936400C1
:100C70006AE084E090E093DD64E58FEF93E08FDD40
:100C800024CF1092F80028CF8430910534F42091BD
:100C9000CA00220F2093CA0099CF863091052CF408
:100CA0002091C900220F2093C9008630910509F0D8
:100CB0008DCF3092C9008ACF8091FA009091FB00CD
:100CC0006AE070E02CD36E587F4FFB0120812093A7
:100CD000CB00FC01EE58FF4F80818093CC00109236
:100CE000FB001092FA0089E009DB892B31F484E1E2
:100CF00090E09093FB008093FA008AE0FFDA892B62
:100D000031F4E8E2F0E0F093FB00E093FA008BE0CE
:100D1000F5DA892B31F48CE390E09093FB0080931B
:100D2000FA008CE0EBDA892B31F4E0E5F0E0F093A7
:100D3000FB00E093FA008DE0E1DA892B31F484E6E0
:100D400090E09093FB008093FA0088E0D7DA892B3B
:100D500009F0CFC13092F9008091F800882349F062
:100D600058DC613375478105910518F01092F80041
:100D70005CDC4FDCAB01BC018091F4009091F5008C
:100D8000A091F600B091F70088519C4FAF4FBF4F34
:100D900084179507A607B70730F460E087E0D6DA36
:100DA00060E080E1D3DA35DCAB01BC018091F0007A
:100DB0009091F100A091F200B091F3008053984F10
:100DC000AF4FBF4F84179507A607B70718F460E029
:100DD00086E0BCDA85E092DA892B09F08DC11092A9
:100DE000FD0060E082E090E0DADC8AEB91E044DC38
:100DF0000091BC01002309F4D9C11092BD011092E9
:100E0000BB011092BC018091D50081110BC001DCA7
:100E10006093D1007093D2008093D3009093D4005C
:100E20003092D500F6DB6093CD007093CE008093B6
:100E3000CF009093D00010E0ECDBC090CD00D090BC
:100E4000CE00E090CF00F090D0006C197D098E09A3
:100E50009F09613177428105910508F03EC0D9DBD9
:100E6000AB01BC018091D1009091D200A091D30040
:100E7000B091D400845D9E4FAF4FBF4F841795074C
:100E8000A607B70788F4C5DB6093D1007093D20042
:100E90008093D3009093D40011113DC180916400E0
:100EA0009091650024DC102F8AEB91E0E5DB8091C6
:100EB000BC01882309F432C11092BD011092BB011C
:100EC0001092BC016091640084E090E068DC809145
:100ED0006400909165000BDC68DB8BEA91E0CCDB71
:100EE0008091AD01882309F47BC11092AE0110926C
:100EF000AC011092AD018091EE009091EF0001974E
:100F000009F05FC11092EF001092EE0060E083E004
:100F100090E045DC49825A826B827C82CE01019648
:100F2000EADA43DB0091FA001091FB002090FD000B
:100F3000043611050CF45FC18091EE009091EF0032
:100F4000019709F058C1211056C18091FC00811110
:100F50000BC05FDB6093EA007093EB008093EC00C2
:100F60009093ED003092FC0054DBC090EA00D090EA
:100F7000EB00E090EC00F090ED00A7019601285501
:100F80003E494F4F5F4F261737074807590738F438
:100F90008091FC00882319F061E080E1D7D939DB2A
:100FA000F0E3CF0EF5E7DF1EE11CF11CC616D706F5
:100FB000E806F90638F48091FC00882319F04BDB31
:100FC0001092FC0080916400909165000817190749
:100FD0000CF014C18091EE009091EF00019709F0A0
:100FE0000DC121E022120AC18091E90081110BC0DC
:100FF00010DB6093EA007093EB008093EC00909319
:10100000ED002092E90005DBAB01BC018091EA0014
:101010009091EB00A091EC00B091ED00805D9A48BA
:10102000AF4FBF4F84179507A607B70738F48091D5
:10103000E900882319F0F9DA1092E900211013C0B1
:101040008091F9008111DDC08091E80081110BC011
:10105000E0DA6093E4007093E5008093E6009093FB
:10106000E7003092E800D5DAAB01BC018091E400E2
:101070009091E500A091E600B091E700805A95417B
:10108000AF4FBF4F84179507A607B70720F480918D
:10109000E8008111E0DA81E02812EDC08091E900DA
:1010A0002091E2003091E3000217130709F4ACC06D
:1010B0008111ADC0C8011BDB1093E3000093E20077
:1010C000C80115DBCDC08091FA009091FB006AE069
:1010D00070E025D16E587F4FFB0120812093CB001B
:1010E000FC01EE58FF4F80818093CC003092DD00F0
:1010F000F6CD1092F90030CE85E000D9019709F0C5
:1011000074CE3092FD0061E082E090E048DB60E068
:1011100080E11CD96ACE0FDA10E0C6CE8091BD0105
:101120008823C1F01092BD011092BB018091640030
:1011300090916500449797FD31C09093650080932E
:10114000640067DA6093CD007093CE008093CF0087
:101150009093D0008BEA91E08FDA8091AE018823E2
:1011600009F46ACE1092AE011092AC011092AD015A
:1011700080916400909165004496813591058CF4CE
:10118000909365008093640044DA6093CD0070937F
:10119000CE008093CF009093D0004ECE80E590E0BB
:1011A000CCCF1092650010926400EECF8091BD010B
:1011B000882309F492CE1092BD011092BB0135DA5A
:1011C0008CCEE1E0F0E0F093EF00E093EE0061E020
:1011D00083E090E0E4DA89829A82AB82BC829ECE80
:1011E0008091AE01882309F49DCE1092AE01109239
:1011F000AC0131DA97CE1092FC00B6CE1092E90025
:1012000002CF1092E8002FCF882309F459CF01DADA
:10121000AB01BC018091DE009091DF00A091E00065
:10122000B091E100845D9E4FAF4FBF4F841795078B
:10123000A607B707A8F4EDD96093DE007093DF002E
:101240008093E0009093E1008091DD00811105C062
:10125000C8014DDA3092DD0003C06DD91092DD0077
:10126000E0E0F0E0EF2B09F449CCF9D7882309F44A
:1012700043CCC6D641CC2110F3CF8091FC0088230B
:1012800079F3C7D9AB01BC018091DE009091DF00FA
:10129000A091E000B091E100845D9E4FAF4FBF4F41
:1012A00084179507A607B707D8F6B3D96093DE0071
:1012B0007093DF008093E0009093E1008091DD0067
:1012C0008111CBCF80E690E016D9C4CFE199FECF53
:1012D0009FBB8EBBE09A99278DB30895262FE19985
:1012E000FECF9FBB8EBB2DBB0FB6F894E29AE19A5E
:1012F0000FBE01960895AA1BBB1B51E107C0AA1F90
:10130000BB1FA617B70710F0A61BB70B881F991FA6
:101310005A95A9F780959095BC01CD01089597FB4A
:10132000072E16F4009406D077FD08D0E4DF07FC02
:1013300005D03EF4909581959F4F089570956195E5
:101340007F4F0895EE0FFF1F0590F491E02D099453
:04135000F894FFCF3F
:10135400713E38381400FFFFFFFF77F83F3777F806
:101364003F713F065B4F666D7D077F6F3F065B4FA6
:10137400666D7D077F6F777C395E797100000000B0
:10138400CA0040016C0010019D007B008F000D0A13
:101394000053776974636820496E697400537769F0
:0E13A40074636820496E697432323232000080
:00000001FF
