:020000040000FA
:100000000C9461000C9489000C9489000C94890074
:100010000C9489000C9489000C9489000C9489003C
:100020000C9489000C9489000C9489000C9489002C
:100030000C9489000C9489000C9489000C9489001C
:100040000C9499040C9489000C9489000C948900F8
:100050000C9489000C9489000C9489000C948900FC
:100060000C94E3040C9489000000000800020100D5
:1000700000030407000000000000000057454C4347
:100080004F4D450000000000250028002B00000017
:100090000000240027002A000404040404040404CB
:1000A0000202020202020303030303030102040823
:1000B00010204080010204081020010204081020D2
:1000C000020611241FBECFEFD8E0DEBFCDBF11E086
:1000D000A0E0B1E0EAEAF1E102C005900D92A2379A
:1000E000B107D9F722E0A2E7B1E001C01D92A23822
:1000F000B207E1F710E0C1E6D0E004C02197FE01AD
:100100000E94AE08C036D107C9F70E9422060C949F
:10011000D3080C94000090E0FC01E455FF4F2491BB
:1001200088569F4FFC018491882399F090E0880FB6
:10013000991FFC01E257FF4FA591B491FC01EC57C8
:10014000FF4F859194918FB7F894EC91E22BEC934B
:100150008FBF089508950895AF92BF92CF92DF9216
:10016000EF92FF920F931F93CF93DF936C017B016C
:100170008B01040F151FEB015E01AE18BF08C017FD
:10018000D10759F06991D601ED91FC910190F08170
:10019000E02DC6010995892B79F7C501DF91CF9133
:1001A0001F910F91FF90EF90DF90CF90BF90AF9095
:1001B000089590E0FC01E859FF4F2491FC01E455BB
:1001C000FF4F3491FC01E856FF4FE491EE23C9F054
:1001D000222339F0233001F1A8F4213019F1223023
:1001E00029F1F0E0EE0FFF1FEC57FF4FA591B491FE
:1001F0008FB7F894EC91611126C030953E233C9363
:100200008FBF08952730A9F02830C9F0243049F76E
:10021000809180008F7D03C0809180008F778093D4
:100220008000DFCF84B58F7784BDDBCF84B58F7D31
:10023000FBCF8091B0008F778093B000D2CF8091B8
:10024000B0008F7DF9CF3E2BDACF3FB7F894809185
:10025000290290912A02A0912B02B0912C0226B57E
:10026000A89B05C02F3F19F00196A11DB11D3FBFEE
:10027000BA2FA92F982F8827BC01CD01620F711DBD
:10028000811D911D42E0660F771F881F991F4A95B7
:10029000D1F708958F929F92AF92BF92CF92DF9243
:1002A000EF92FF924B015C010E9425016B017C01E2
:1002B0000E9425016C197D098E099F09683E7340D3
:1002C00081059105A8F321E0821A9108A108B108DF
:1002D00088EEC80E83E0D81EE11CF11C8114910445
:1002E000A104B10429F7FF90EF90DF90CF90BF9069
:1002F000AF909F908F9008952091DA01260F3327B9
:10030000331F21323105ECF42091FE01FC0190E015
:1003100080E0243069F082E00895A091DA01219113
:10032000AC0146545E4FA40FB52FB11D2C9301961E
:10033000861798F38091DA01680F6093DA0180E004
:10034000089581E008951092FE0181E080930002FB
:100350001092FF0161E082E10E94D90061E083E137
:100360000E94D900E9EBF0E080818E7F808380815C
:100370008D7F808388E48093B80085E48093BC00FF
:100380000895CF93DF9391E09093B9018823B9F05A
:10039000C091B800D091BA008091BC008A7B809354
:1003A000BC0060E082E10E94D90060E083E10E942D
:1003B000D9000E94A301D093BA00C093B800DF9186
:1003C000CF9108950895E091350280913402E817A5
:1003D00030F4F0E0EC56FE4F808190E008958FEF0E
:1003E0009FEF089590913502809134022FEF3FEFF7
:1003F000981748F4E92FF0E0EC56FE4F208130E0EA
:100400009F5F90933502C9010895809134029091C5
:100410003502891B990B0895CF92DF92EF92FF92DC
:100420000F931F93CF93DF937C01CB018A0120911F
:100430009301222389F0EB016B01C40ED51ECC156C
:10044000DD0569F06991D701ED91FC910190F08192
:10045000E02DC7010995F3CF642F0E947C01C801EC
:10046000DF91CF911F910F91FF90EF90DF90CF9090
:100470000895CF93DF931F92CDB7DEB769832091A4
:1004800093012223F9F020913202203258F021E02A
:1004900030E0FC013383228390E080E00F90DF9115
:1004A000CF91089580913302E82FF0E0ED58FE4F90
:1004B000998190838F5F809333028093320281E031
:1004C00090E0ECCF61E0CE0101960E947C01F7CF75
:1004D000CF92DF92EF92FF920F931F93CF93DF9310
:1004E000FC01C48121E020939301C093720110921A
:1004F0003302109232028385682B8AE692E00E94D2
:100500003902D0913202D13208F092C00E94250106
:100510006B017C018091FE01811165C082E08093B6
:10052000FE0181E0809300028FEF8093FD01109225
:100530002202D0932102A3E7B1E0E1E0F2E080E003
:10054000D81385C01092230280912302CC0FC82BB0
:10055000C09323028091FF01813009F07CC010928A
:10056000FF010E9425016B017C0180912302809391
:10057000BB008091B5019091B601A091B701B091F7
:10058000B801892B8A2B8B2B99F00E9425010091B1
:10059000B5011091B6012091B7013091B8016C19E5
:1005A0007D098E099F090617170728073907E0F10B
:1005B0008091BC0083FDD9CF85EC8093BC000E9464
:1005C00025016B017C018091FE01823009F445C058
:1005D0008091FD018F3F61F18091FD01803241F1F9
:1005E0008091FD0125C08091B5019091B601A09147
:1005F000B701B091B801892B8A2B8B2B09F48ACFD4
:100600000E9425010091B5011091B6012091B7011A
:100610003091B8016C197D098E099F0906171707DB
:100620002807390708F076CF8091B4010E94C101F4
:10063000109233021092320210929301DF91CF9107
:100640001F910F91FF90EF90DF90CF9008959D91B3
:1006500091938F5F75CF85EEB0CF8091B50190916A
:10066000B601A091B701B091B801892B8A2B8B2BD1
:1006700009F4A9CF0E9425010091B5011091B6019E
:100680002091B7013091B8016C197D098E099F093D
:10069000061717072807390708F095CFC5CF089523
:1006A00090E080E00895CF93DF93009759F461E3E1
:1006B00071E082E692E00E94BD0882E692E0DF915E
:1006C000CF91089520E097FF07C02DE220936202AA
:1006D00091958195910921E0803137E293071CF5CE
:1006E000883E33E093070CF532E0843691052CF414
:1006F00031E08A3091050CF430E0230FE22FF0E076
:10070000ED59FD4F1082CAE0D0E0E22FF0E0EE5943
:10071000FD4FBE010E948608805D8083CB01215081
:10072000009799F7CACF34E0E8CF33E0E6CF0097DF
:1007300069F0FC0101900020E9F73197AF01481BF7
:10074000590BBC0186E792E00C94AC0090E080E08D
:100750000895AF92BF92CF92DF92EF92FF920F93E4
:100760001F93CF93DF93CDB7DEB76E0180E1C80E44
:10077000D11C92E0A92EB12C10E004E1F6016081B9
:10078000718182E0C80ED11CFB0101900020E9F7C5
:1007900031977F01E61AF70A812F90E09C012E0D18
:1007A000311D402F411B253131050CF44E2D50E0F9
:1007B000835B9D4F0E94C4081E0DAA94AB2829F0AC
:1007C000AA24A394B12C1431C8F2E12FF0E0E35B2A
:1007D000FD4F10828DE492E0DF91CF911F910F9138
:1007E000FF90EF90DF90CF90BF90AF90089585ED90
:1007F0008093BC008091B5019091B601A091B701A2
:10080000B091B8010796A11DB11D23E0B695A7953B
:10081000979587952A95D1F72091BC0024FD03C0B8
:100820001092FE0108954091B5015091B60160917A
:10083000B7017091B801452B462B472B69F3009700
:10084000A105B10541F02AE22A95F1F700C0019710
:10085000A109B109E1CF8091B4010C94C1010F93BA
:100860001F93CF938C01C62F0E9468026C2F646087
:10087000C8010E9468026C2F6B7FC8010E94680249
:1008800083EC90E00197F1F7CF911F910F910895BC
:100890000F931F93CF93DF938C01D62FC42F607FCC
:1008A000642B0E942F0480E1D89FB00111246C2B8F
:1008B000C801DF91CF911F910F910C942F04CF931A
:1008C000DF93CDB7DEB728970FB6F894DEBF0FBE23
:1008D000CDBF98E0E0E0F1E0DE01119601900D92CD
:1008E0009A95E1F790917E02961710F46FEF690FD9
:1008F000262F30E0220F331F41E050E04C0F5D1FE8
:10090000240F351FF9016081680F606840E086E7B9
:1009100092E028960FB6F894DEBF0FBECDBFDF91F0
:10092000CF910C94480441E00E94480481E090E09B
:1009300008951F920F920FB60F9211242F933F9399
:100940008F939F93AF93BF9380912502909126023E
:10095000A0912702B09128023091240223E0230FB6
:100960002D3758F50196A11DB11D209324028093C7
:10097000250290932602A0932702B093280280912B
:10098000290290912A02A0912B02B0912C0201968B
:10099000A11DB11D8093290290932A02A0932B02DE
:1009A000B0932C02BF91AF919F918F913F912F9166
:1009B0000F900FBE0F901F90189526E8230F0296F8
:1009C000A11DB11DD2CF1F920F920FB60F9211240D
:1009D0002F933F934F935F936F937F938F939F9347
:1009E000AF93BF93EF93FF938091B900887F8036D8
:1009F00009F44AC0F0F5883209F4A7C018F580312F
:100A000009F49BC0B8F4882309F4F9C0883009F4CC
:100A100094C0FF91EF91BF91AF919F918F917F9182
:100A20006F915F914F913F912F910F900FBE0F905B
:100A30001F901895883109F488C0803251F780934F
:100A4000FD0114C0803409F49DC040F48033B9F333
:100A50008833F9F68093FD0185ECB0C0803509F448
:100A600085C0883509F496C0883499F60E94F7034A
:100A7000D0CF883909F48CC038F5883729F050F484
:100A8000883611F0803729F683E08093FE011092BA
:100A9000FC0157C0883809F47BC0803919F08038D0
:100AA00009F0B7CF8091FC01803208F071C0E0916D
:100AB000FC0181E08E0F8093FC018091BB00F0E08F
:100AC000E452FE4F80833DC0803B39F0E0F4803A31
:100AD00009F479C0883A09F09CCF84E08093FE0144
:100AE0001092DB011092DA01E0913002F0913102B4
:100AF00009958091DA0181110FC081E08093DA01BC
:100B00001092BA0109C0803C09F4A6CF883C09F4D0
:100B1000A3CF883B09F07DCFE091DB0181E08E0F10
:100B20008093DB01F0E0E654FE4F80818093BB00B0
:100B30009091DB018091DA0129C08091230280939A
:100B4000BB0085EC8093BC0064CF90912202809121
:100B50002102981758F5E091220281E08E0F8093D0
:100B60002202F0E0EF5FFD4F8081E9CFE0912202A9
:100B700081E08E0F809322028091BB00F0E0EF5F56
:100B8000FD4F808390912202809121029817C8F234
:100B900085E8D8CFE091220281E08E0F8093220277
:100BA0008091BB00F0E0EF5FFD4F808380910002F9
:100BB00081115CCF81E08093FF0184EA8093BC00C7
:100BC0001092FE0126CF85EC8093BC001092FE01AE
:100BD0008091FC01803230F4E091FC01F0E0E452BD
:100BE000FE4F10826091FC0170E0E0912E02F091C6
:100BF0002F028CED91E009951092FC010ACF109222
:100C0000FD0134CFEAE6F2E01382128288EE93E02F
:100C1000A0E0B0E084839583A683B78387E191E069
:100C200091838083E6E7F2E01382128289E291E009
:100C30009183808387E2848384E1818784E0828753
:100C400013860895789484B5826084BD84B58160EC
:100C500084BD85B5826085BD85B5816085BD809187
:100C60006E00816080936E001092810080918100FF
:100C700082608093810080918100816080938100F7
:100C8000809180008160809380008091B1008460B9
:100C90008093B1008091B00081608093B00080911A
:100CA0007A00846080937A0080917A0082608093D9
:100CB0007A0080917A00816080937A0080917A0036
:100CC000806880937A001092C100CFB7F894809129
:100CD0002D02811124C0E2EAF0E08491E6EBF0E01D
:100CE0009491E82FF0E0EE0FFF1FE257FF4FA59120
:100CF000B491EC91E92321F461E08AE00E94D900EB
:100D00008AE00E948B008CB580618CBD8CB58064BC
:100D10008CBD8DE00E948B008BE00E948B00809147
:100D20002D028F5F80932D02CFBF82E00E948B0047
:100D300083E00E948B0084E00E948B0085E00E948B
:100D40008B0086E00E948B0087E00E948B0061E0B0
:100D500082E00E94D90061E083E00E94D90061E056
:100D600084E00E94D90061E085E00E94D90061E042
:100D700086E00E94D90061E087E00E94D9001092CD
:100D800035021092340210923302109232020E9405
:100D9000A3018AEA90E090933102809330028BEABB
:100DA00090E090932F0280932E0210927B0280910C
:100DB0008002823018F098E090937B0280937E024C
:100DC00062E370E080E090E00E944A01609181025D
:100DD00086E792E00E94680268EE73E080E090E0AF
:100DE0000E944A0160E386E792E00E942F04CBE470
:100DF000D6E4CE010197F1F760E386E792E00E9426
:100E00002F042197F1F760E386E792E00E942F0418
:100E100083E592E00197F1F760E286E792E00E94B5
:100E20002F0460917B02606240E086E792E00E94BE
:100E3000480484E080937C0240E06CE086E792E026
:100E40000E94480440E061E086E792E00E94480486
:100E5000CBE3DFE1CE010197F1F782E080937D02E1
:100E600040E066E086E792E00E94480440E062E0ED
:100E700086E792E00E9448042197F1F788E080938A
:100E8000810260E086E792E00E94680260E085E00F
:100E90000E945F04CCE7D0E0FE01649121966623B6
:100EA00031F041E086E792E00E944804F5CF64E625
:100EB00070E080E090E00E944A0140E061E086E757
:100EC00092E00E9448048BE39FE10197F1F747E12C
:100ED00050E070E060E086E392E00E945E0868E027
:100EE00071E086E392E00E94B408892B61F168E02A
:100EF00071E086E392E00E94BD088CE190E090935F
:100F00004202809341022AE130E030934402209370
:100F1000430229E130E0309346022093450290934A
:100F200048028093470290934A028093490290932B
:100F30004C0280934B0247E150E070E060E086E3B2
:100F400092E00E946E0881E4482E81E0582E92E0E3
:100F5000392ECDE4D2E029E4622E21E0722E31E573
:100F6000832E31E0932E09E511E041E6E42E41E0C5
:100F7000F42E59E6C52E51E0D52E60E0A62E60E095
:100F8000B62E60E080E00E945F0483E391E00E945F
:100F9000970361E080E00E945F048091410290919C
:100FA00042020E9453039F938F935F924F923F920E
:100FB000DF93CF930E94A9030E94970361E08BE027
:100FC0000E945F0480914302909144020E94530367
:100FD0009F938F937F926F923F92DF93CF930E9464
:100FE000A9030E94970362E080E00E945F04809161
:100FF0004502909146020E9453039F938F939F92C4
:101000008F923F92DF93CF930E94A9030E94970390
:1010100062E08BE00E945F04809147029091480259
:101020000E9453039F938F931F930F933F92DF93DD
:10103000CF930E94A9030E94970363E080E00E947F
:101040005F048091490290914A020E9453039F934A
:101050008F93FF92EF923F92DF93CF930E94A90369
:10106000EDB7FEB7B3960FB6F894FEBF0FBEEDBF57
:101070000E94970363E08BE00E945F0480914B0223
:1010800090914C020E9453039F938F93DF92CF92D3
:101090003F92DF93CF930E94A9030E9497038DB7DD
:1010A0009EB707960FB6F8949EBF0FBE8DBFA114D2
:1010B000B10409F466CF0E94000063CFDC01CB01CC
:1010C000FC01F999FECF06C0F2BDE1BDF89A319658
:1010D00000B40D9241505040B8F70895DC01CB01A7
:1010E00003C02D910E94790841505040D0F70895D7
:1010F000262FF999FECF1FBA92BD81BD20BD0FB634
:10110000F894FA9AF99A0FBE0196089597FB072E64
:1011100016F4009407D077FD09D00E949A0807FCC6
:1011200005D03EF4909581959F4F089570956195F7
:101130007F4F0895AA1BBB1B51E107C0AA1FBB1F0D
:10114000A617B70710F0A61BB70B881F991F5A9553
:10115000A9F780959095BC01CD010895EE0FFF1F72
:101160000590F491E02D0994FB01DC018D91019033
:1011700080190110D9F3990B0895FB01DC0101904E
:101180000D920020E1F70895FB01DC014150504031
:1011900048F001900D920020C9F701C01D92415006
:1011A0005040E0F70895F894FFCF0000400014008D
:1011B000540044727965722056312E3000000000D0
:1011C0000039020C025003E2010502F201E30100C2
:1011D0000000009304AC0050034F03300053554A05
:1011E00041484854524F4E494353004452592031CC
:1011F0003A200044525920323A20004452592033B8
:101200003A200044525920343A20004452592035A3
:0C1210003A200044525920363A200000D9
:107E0000112484B714BE81FFF0D085E080938100F7
:107E100082E08093C00088E18093C10086E0809377
:107E2000C20080E18093C4008EE0C9D0259A86E02C
:107E300020E33CEF91E0309385002093840096BBD3
:107E4000B09BFECF1D9AA8958150A9F7CC24DD24C4
:107E500088248394B5E0AB2EA1E19A2EF3E0BF2EE7
:107E6000A2D0813461F49FD0082FAFD0023811F036
:107E7000013811F484E001C083E08DD089C08234E0
:107E800011F484E103C0853419F485E0A6D080C0E4
:107E9000853579F488D0E82EFF2485D0082F10E0AE
:107EA000102F00270E291F29000F111F8ED06801E7
:107EB0006FC0863521F484E090D080E0DECF843638
:107EC00009F040C070D06FD0082F6DD080E0C81688
:107ED00080E7D80618F4F601B7BEE895C0E0D1E017
:107EE00062D089930C17E1F7F0E0CF16F0E7DF06D8
:107EF00018F0F601B7BEE89568D007B600FCFDCFD4
:107F0000A601A0E0B1E02C9130E011968C91119780
:107F100090E0982F8827822B932B1296FA010C0160
:107F200087BEE89511244E5F5F4FF1E0A038BF0790
:107F300051F7F601A7BEE89507B600FCFDCF97BE46
:107F4000E89526C08437B1F42ED02DD0F82E2BD052
:107F50003CD0F601EF2C8F010F5F1F4F84911BD097
:107F6000EA94F801C1F70894C11CD11CFA94CF0C13
:107F7000D11C0EC0853739F428D08EE10CD085E9AC
:107F80000AD08FE07ACF813511F488E018D01DD067
:107F900080E101D065CF982F8091C00085FFFCCF94
:107FA0009093C60008958091C00087FFFCCF809118
:107FB000C00084FD01C0A8958091C6000895E0E648
:107FC000F0E098E1908380830895EDDF803219F02E
:107FD00088E0F5DFFFCF84E1DECF1F93182FE3DFCA
:107FE0001150E9F7F2DF1F91089580E0E8DFEE27F6
:047FF000FF270994CA
:027FFE00040479
:00000001FF
