:100000000C9411020C9439020C9439020C947F1850
:100010000C947F180C947F180C9439020C943902BC
:100020000C9439020C9439020C9439020C94390264
:100030000C9439020C9439020C9439020C94390254
:100040000C9435180C9439020C9439020C94390232
:100050000C9439020C9439020C9439020C94390234
:100060000C94F7180C94390245564520534F4E47CF
:10007000204E6F2E0045564520534F4E4720544981
:100080004D45004D4F5220534F4E47204E6F2E008E
:100090004D4F5220534F4E472054494D4500504C30
:1000A00041590053454C4543542054494D45005057
:1000B0004C5952204556452044555200504C5952F7
:1000C00020455645204F4E2054494D00504C595222
:1000D000204D4F522044555200504C5952204D4F04
:1000E00052204F4E2054494D004C49474854204F10
:1000F00046462054494D45004C49474854204F4EF0
:100100002054494D450050414E4348414E47414DD2
:100110002054494D4500414C41524D204F4E2F4FE8
:1001200046460011900000000013830000000012FA
:100130007500000000146800000000009C01000031
:1001400000534F4E472053455454494E47000EA389
:10015000000000000F9E00000000009C0100000055
:10016000504C41592044454D4F005343484F4F4C4C
:10017000205A4F4E4500564F4C554D4500534F4E5B
:100180004720434F554E5400454E442054494D4559
:100190000053544152542054494D45004241434B71
:1001A000005345542054494D450053455420444183
:1001B00054450053455420594541520005910100D2
:1001C00000000688010000000D60014E01030B765F
:1001D000010000000C6A01000000009C010000000A
:1001E000434C4F434B2053455454494E47004558C8
:1001F00049540052455345542053455454494E47A1
:10020000001AD9000000001BCC000000001CBC003C
:100210000000001DAF00000000009C010000005025
:100220004C415945522053455454494E470017F804
:100230000000000018E900000000009C0100000020
:100240004C49474854532053455454494E470005A0
:100250009101000000068801000000097D010000F6
:10026000000B76010000000C6A010000000D600127
:100270004E0103104101230105071601000000088B
:100280000601000000009C0100000042454C4C208B
:1002900053455454494E470002AA0100000003A1EF
:1002A00001000000009C010000005345542044411F
:1002B00054452054494D45001FB30100000000EE95
:1002C0000100000020454E544552205041535357E1
:1002D0004F524420001640022E0203191F02010251
:1002E0000501AA029802031EE001BC010600EE010E
:1002F00000000001AA02980203048B024F020A16B2
:1003000040022E0203191F0201020515F30100002D
:100310000000EE01000000455252203033004552EB
:100320005220303200455252203031004445564F61
:1003300054494F4E414C20434C4F434B0051545273
:100340004F4E0000000000240027002A000000009B
:10035000090003020000040508000000000000007E
:100360000000000020200020200020504C41594572
:1003700052204D4F4445204F4E2000202052554ED4
:100380004E494E472044454D4F20200020415554B2
:100390004F204C49474854204F46462000204155A5
:1003A000544F204C49474854204F4E2020002041B4
:1003B00055544F20504C4159204F46462020002094
:1003C000204155544F20504C4159204F4E20200081
:1003D0001F1C1F1E1F1E1F1F1E1F1E0000000023AC
:1003E000002600290000000000250028002B000442
:1003F00004040404040404020202020202030303CC
:1004000003030302020301020408102040800102DA
:100410000408102001020408102040804000161A31
:10042000D32C11241FBECFEFD8E0DEBFCDBF12E02A
:10043000A0E0B1E0E6E2F2E602C005900D92A03E37
:10044000B107D9F725E0A0EEB2E001C01D92AC3CA7
:10045000B207E1F712E0C0E1D2E004C02197FE014B
:100460000E94E42ECF30D107C9F70E942B1B0C94B9
:1004700006310C94000080910705E0910405F0918D
:10048000050596E0899FE00DF11D11243596E49154
:1004900081E0E11101C080E00895982F2091560479
:1004A00081E0213208F043C0809132048111FCCFF9
:1004B0008091550432E030933204909331049FEFE1
:1004C0009093300410922F0420932E04A5E3B4E0FF
:1004D000EEE0F4E090E0291331C010920D04909109
:1004E0000D04880F892B80930D0480910C048130BA
:1004F00049F510920C0480910D048093BB0080910B
:10050000BC0083FDF8CF85EC8093BC008091320461
:100510008230E1F3809130048F3FB1F0809130045C
:100520008032A1F080913004803391F084E0109209
:100530003404109256041092330408953D9131937F
:100540009F5FC9CF85EEE0CF80E0F1CF82E0EFCFB3
:1005500083E0EDCFE1E0F5E086810380F481E02DDA
:1005600096E0899FE00DF11D11248491089508956E
:1005700008956091720590917105492F50E0809126
:100580007305282F30E0E0EDF3E081E0861730F4CA
:100590007491270F311D8F5F3196F8CF633020F0B3
:1005A000937011F42F5F3F4F6DE671E0469FC001DD
:1005B000479F900D569F900D112405964D5F5F4FFC
:1005C0005695479556954795840F951F820F931F13
:1005D00067E070E00E94BC2E0895AF92BF92CF9268
:1005E000DF92EF92FF920F931F93CF93DF936C01F3
:1005F0007B018B01040F151FEB015E01AE18BF08D4
:10060000C017D10759F06991D601ED91FC91019085
:10061000F081E02DC6010995892B79F7C501DF919D
:10062000CF911F910F91FF90EF90DF90CF90BF90EF
:10063000AF900895843081F028F48230E9F083305F
:10064000F9F00895883071F0893091F08530B9F46F
:10065000809180008F7D03C0809180008F77809390
:10066000800008958091B0008F778093B000089546
:100670008091B0008F7DF9CF84B58F7784BD0895C8
:1006800084B58F7DFBCFCF93DF93282F30E0F90126
:10069000E35BFC4F8491F901EA5FFB4FD491F901D0
:1006A000E151FC4FC491CC23A1F081110E941A03A7
:1006B000EC2FF0E0EE0FFF1FE552FC4FA591B49137
:1006C000EC91ED2381E090E009F480E0DF91CF919F
:1006D000089580E090E0FACF1F93CF93DF93282F07
:1006E00030E0F901E35BFC4F8491F901EA5FFB4FD5
:1006F000D491F901E151FC4FC491CC23A9F0162FFC
:1007000081110E941A03EC2FF0E0EE0FFF1FEB5156
:10071000FC4FA591B4918FB7F894EC91111108C0DA
:10072000D095DE23DC938FBFDF91CF911F91089589
:10073000DE2BF8CF1092EB031092EA0310923404F0
:10074000109256041092320481E08093310410928A
:100750000C0461E082E10E946C0361E083E10E948D
:100760006C03E9EBF0E080818E7F808380818D7F58
:10077000808388E48093B80085E48093BC0087EB95
:1007800092E09093E9038093E80388EB92E09093E2
:10079000E7038093E6030895CF93DF9390E0FC0195
:1007A000EA5FFB4F249181519C4FFC018491882387
:1007B000C9F090E0880F991FFC01ED5BFC4FA591FB
:1007C000B491FC01EB51FC4FC591D49161110DC066
:1007D0009FB7F8948C91209582238C93888128234D
:1007E00028839FBFDF91CF910895623051F49FB766
:1007F000F8943C91822F809583238C93E8812E2B53
:10080000EFCF8FB7F894EC912E2B2C938FBFEACFBC
:100810008130910539F0880F991F880F991F05972E
:100820000197F1F708953FB7F89480918303909171
:100830008403A0918503B091860326B5A89B05C0CB
:100840002F3F19F00196A11DB11D3FBFBA2FA92F4F
:10085000982F8827BC01CD01620F711D811D911D4C
:1008600042E0660F771F881F991F4A95D1F70895B8
:100870008F929F92AF92BF92CF92DF92EF92FF92B0
:100880006B017C010E9413044B015C01C114D10473
:10089000E104F104B9F00E941304681979098A0986
:1008A0009B09683E73408105910580F321E0C21ADF
:1008B000D108E108F10888EE880E83E0981EA11C9B
:1008C000B11CE4CFFF90EF90DF90CF90BF90AF903E
:1008D0009F908F9008952FB7F89460917F03709147
:1008E000800380918103909182032FBF08950F931D
:1008F0001F938091830590918405DC01ED91FC911B
:100900000084F185E02D0995892B09F4D7C060E0BA
:1009100070E0CB010E9438042091A10580918305ED
:1009200090918405DC01ED91FC910284F385E02D2A
:1009300021110BC0099580938D058E37D1F68091DA
:10094000A1058F5F8093A105D4CF09959091A10552
:10095000E92FF0E0ED57FA4F82879230B9F09930E5
:10096000D9F09130A9F48F3F99F01092A10581E060
:100970008093A3051092A6051092A5058093A70564
:100980001092A80580E01F910F910895863069F7B5
:100990009F5F9093A105ADCF8F3E39F720918F05D2
:1009A00080918E05280F3327331FE0919005C901F0
:1009B0008E0F911D20919105280F392F311D4091E7
:1009C000920550E0240F351F8091930590E06091CF
:1009D000940570E0762F6627F09195056F0F711DD5
:1009E000280F391F3195219531096217730709F0D6
:1009F000BCCF1092A105E13419F41092A8052FC0C4
:100A0000E093A405542F4427840F951F9093A605C7
:100A10008093A505EA53E63108F046C0F0E0ED5EAC
:100A2000FA4F0C94E42E400548055205290552055D
:100A3000320550055405520552055205520552051E
:100A400052055205520554055205520552055205EC
:100A5000520585E08093A30581E08093A7058091EE
:100A6000A70591CF80FF02C089E0F4CF81FF02C0CB
:100A700084E0F0CF83709927892B89F38AE0EACF4D
:100A800080FF02C087E0E6CF81FFE9CF82E0E2CFBE
:100A900080FF02C088E0DECF81FFE1CF83E0DACFC4
:100AA00086E0D8CF8BE0D6CF81E08093A30510926B
:100AB000A6051092A5058093A7059FCF8091A80554
:100AC000882369F20E946B040091850510918605C8
:100AD0002091870530918805601B710B820B930B69
:100AE0000091890510918A0520918B0530918C0524
:100AF000601771078207930708F4B1CF1092A10520
:100B00001092A3051092A6051092A50581E036CF9C
:100B100080939A05272F30E070939C0560939D0584
:100B20004091990590919805490F5527551F840FBD
:100B3000952F911D40919B05840F911D820F931F4E
:100B4000680F792F711D71956195710970939E05DC
:100B500060939F05442361F08091A805882341F0AC
:100B600060E070E0CB010E9438040E947704F4CF6B
:100B70008091830590918405DC01ED91FC910280C8
:100B8000F381E02D4AE050E067E975E009950E94A5
:100B90006B04609385057093860580938705909319
:100BA000880580919B0591E0811101C090E09093B0
:100BB000A805811106C06AE070E080E090E00C9426
:100BC00038040895782F8FE00C948805CF93C82FB0
:100BD00061E08CE00E946C036C2F82E00E94E205D1
:100BE00064EF71E080E090E0CF910C9438040895B8
:100BF00020917C0330917D032817390771F490917F
:100C00007B0380917A03981741F0E0917B03F0E039
:100C1000E65CFC4F808190E008958FEF9FEF089590
:100C20000895EF92FF920F931F93CF93DF93DC0110
:100C30005C96ED90FC905D97E114F10479F481E00D
:100C400090E013969C938E93129790E080E0DF9152
:100C5000CF911F910F91FF90EF9008955196ED91D4
:100C6000FC91529750968C915097982F90950FB772
:100C70005E962C915E97122F127021FD6095F8946C
:100C80002081112319F1282B2083E7012197F1F707
:100C900028E0462F50E0308160FF1AC0382B3083A7
:100CA000E7012197F1F7BA0175956795215089F70A
:100CB000112381F08081892380830FBF5C968D9101
:100CC0009C910197F1F781E090E0C1CF2923DCCF1F
:100CD0003923E5CF9081892BEFCF20917C03309190
:100CE0007D032817390771F480917A0320917B03E3
:100CF00090E0805C9F4F821B910960E470E00E944D
:100D0000D02E089590E080E0089520917C033091EA
:100D10007D0328173907B9F490917B0380917A03FA
:100D2000981789F0E0917B03F0E0E65CFC4F80814E
:100D300020917B0330E02F5F3F4F2F7333272093A9
:100D40007B0390E008958FEF9FEF08951F93CF935B
:100D5000DF93EA01122FDC0111968D919C91DC0149
:100D6000ED91FC910280F381E02D0995C817D90718
:100D700029F4812F0E944D0291E0811190E0892F8A
:100D8000DF91CF911F910895CF93DF93EC018B8179
:100D90008823A1F0888191E09093330480935504D7
:100DA000109234041092560481E00E944D0291E0AA
:100DB000811190E0892FDF91CF9108950E949A03CD
:100DC00081E08B83CE010E94C406982F8111E2CF6F
:100DD000F1CF85ED8093BC008091BC0084FDFCCFF9
:100DE00010923204089520911703260F3327331FE2
:100DF00021323105ECF420913204FC0190E080E0D6
:100E0000243069F082E00895A09117032191AC018C
:100E100049505D4FA40FB52FB11D2C930196861735
:100E200098F380911703680F6093170380E008958B
:100E300081E00895E091EB038091EA03E81730F434
:100E4000F0E0E451FC4F808190E008958FEF9FEF38
:100E500008959091EB038091EA032FEF3FEF9817ED
:100E600048F4E92FF0E0E451FC4F208130E09F5F2F
:100E70009093EB03C90108958091EA039091EB03ED
:100E8000891B990B0895CF92DF92EF92FF920F93F7
:100E90001F93CF93DF937C01CB018A012091330410
:100EA000222389F0EB016B01C40ED51ECC15DD05A4
:100EB00069F06991D701ED91FC910190F081E02DED
:100EC000C7010995F3CF642F0E94F306C801DF9193
:100ED000CF911F910F91FF90EF90DF90CF900895E9
:100EE000CF93DF931F92CDB7DEB769832091330490
:100EF0002223F9F020915604203258F021E030E00E
:100F0000FC013383228390E080E00F90DF91CF914A
:100F1000089580913404E82FF0E0EB5CFB4F998159
:100F200090838F5F809334048093560481E090E037
:100F3000ECCF61E0CE0101960E94F306F7CFFC01F1
:100F4000248131E03093330420935504109234040B
:100F5000109256048385682B8DE195E00E947007FE
:100F600081E00C944D020F931F93CF938C01C62FF9
:100F70000E949F076C2F6460C8010E949F0781E058
:100F800090E00E9408046C2F6B7FC8010E949F07AD
:100F900082E390E0CF911F910F910C9408040F937E
:100FA0001F93CF93DF938C01D62FC42F607F642BC8
:100FB0000E94B30780E1D89FB00111246C2BC801B7
:100FC000DF91CF911F910F910C94B307CF93DF93D3
:100FD000CDB7DEB728970FB6F894DEBF0FBECDBFF2
:100FE00098E0E3E1F1E0DE01119601900D929A950F
:100FF000E1F790917F05961708F46FEF262F30E008
:10100000220F331F41E050E04C0F5D1F240F351FAE
:10101000F9016081680F606840E087E795E02896F5
:101020000FB6F894DEBF0FBECDBFDF91CF910C9409
:10103000CF0741E00E94CF0781E090E008950F9331
:101040001F93CF93DF938C01D0E0C0E0F801EC0F49
:10105000FD1F6491662339F041E087E795E00E9427
:10106000CF072196F3CFCE01DF91CF911F910F9142
:10107000089540E061E087E795E00E94CF0780EDAA
:1010800097E00C94080490E080E008952091BE035E
:10109000253009F090F49091F602E92FF0E0E85441
:1010A000FC4F80832F5F2093BE039F5F953018F421
:1010B0009093F60208951092F602089560E08CE095
:1010C0000E946C0370E060E086E10C9488050F9349
:1010D0001F9380919B0490919C04A0919D04B091DA
:1010E0009E044091C3035091C4036091C503709165
:1010F000C603481759076A077B071CF100919F0434
:101100001091A0042091A1043091A204800F911F9E
:10111000A21FB31F84179507A607B70794F0012BEA
:10112000022B032B71F08091C003811150C081E02C
:101130008093C00385E08093D9031F910F910C9495
:1011400039088091A3049091A404A091A504B091C2
:10115000A604481759076A077B07ECF00091A7041B
:101160001091A8042091A9043091AA04800F911F26
:10117000A21FB31F84179507A607B70764F0012BBA
:10118000022B032B41F08091BF03811120C081E02D
:101190008093BF03CFCF8091D9038530C1F4809174
:1011A000BF03813021F08091C003813081F460E081
:1011B0008CE00E946C0360E08AE00E946C03109255
:1011C000C0031092BF030E9439081092D9031F91E7
:1011D0000F9108952F923F924F925F926F927F925C
:1011E0008F929F92AF92BF92CF92DF92EF92FF9237
:1011F0000F931F93CF93DF936C013B017A0110E0B3
:1012000000E05524539444244A9485EE382E95ECFE
:10121000292E809132048111FCCFD60114968D9134
:101220009C91E701C01BD10B8C179D0708F4EC01C2
:10123000F60190818C2FC13208F080E25092320486
:1012400041E097012C1B3D0B0217130708F440E007
:10125000409331044092300410922F042FEF280F56
:1012600020932E0450920D0420910D04990F922B7F
:1012700090930D0490910C049130E9F510920C04B8
:1012800090910D049093BB009091BC0093FDF8CF1A
:101290002092BC00909132049130E1F390912F04A0
:1012A000981710F480912F04AEE0B4E0ECEEF3E078
:1012B00090E0981323C01092EB039093EA039C17DD
:1012C0001D06D1F54301800E911E5401C5018819F8
:1012D00099098C179D07B0F4D60111968D919C91B8
:1012E000DC01ED91FC910284F385E02D0995F50177
:1012F00081935F01EBCF3092BC00CCCF2D91219335
:101300009F5FD7CF0C0F1D1F0E151F0508F481CF4F
:1013100081E0DF91CF911F910F91FF90EF90DF90CF
:10132000CF90BF90AF909F908F907F906F905F9085
:101330004F903F902F90089580E0EBCF0F931F9335
:10134000CF93DF93CDB7DEB728970FB6F894DEBF03
:101350000FBECDBFDC018E010F5F1F4F86E0F8018D
:1013600011928A95E9F715963C9115972AE0832FFB
:10137000622F0E94B02E982F880F890F880F830F3D
:101380008A8314963C911497832F0E94B02E982F35
:10139000880F890F880F830F8B8313963C911397C7
:1013A000832F0E94B02E982F880F890F880F830FEC
:1013B0008C8312963C911297832F0E94B02E982F07
:1013C000880F890F880F830F8E8311963C91119798
:1013D000832F0E94B02E982F880F890F880F830FBC
:1013E0008F833C91832F0E94B02E982F880F890FF6
:1013F000880F830F88878091E4039091E503FC01B7
:10140000248135812830310580F0208131E030930E
:10141000330420935504109234041092560421E0B2
:1014200048E050E0B8010E94A60628960FB6F8944E
:10143000DEBF0FBECDBFDF91CF911F910F910895F9
:10144000EF92FF920F931F93CF93DF9300D000D0C2
:1014500000D01F92CDB7DEB78C011982E090E40373
:10146000F090E503D70114968D919C911597892BE7
:10147000E9F08C9191E0909333048093550410929D
:1014800034041092560420E041E050E0BE016F5F4A
:101490007F4FC7010E94A606882341F047E050E035
:1014A000BE016F5F7F4FC7010E94EA08E981EF77B5
:1014B000FA81FB804D815E818F81282F30E094E09E
:1014C000359527959A95E1F7922F990F990F291B3A
:1014D000220F280FD8012C93852F90E024E09595BA
:1014E00087952A95E1F7982F990F990F891B880FF7
:1014F000850F11968C931197642F70E034E07595E9
:1015000067953A95E1F7862F880F880F681B660F5D
:10151000640F12966C9312974F2D50E064E055952E
:1015200047956A95E1F7842F880F880F481B440F71
:101530004F0D13964C9313972F2F30E074E0359591
:1015400027957A95E1F7822F880F880F281B220FA5
:101550002F0F14962C9314978E2F90E0F4E095950E
:101560008795FA95E1F7982F990F990F891B880FA6
:101570008E0F15968C93C80127960FB6F894DEBF90
:101580000FBECDBFDF91CF911F910F91FF90EF90D4
:101590000895CF93DF93EC0188819981009711F032
:1015A0000E948D2F198218821D821C821B821A8232
:1015B000DF91CF9108958F929F92AF92BF920F9338
:1015C0001F93CF93DF93CDB7DEB7A1970FB6F894F3
:1015D000DEBF0FBECDBF19A2423008F44AE08E0133
:1015E0000F5D1F4F842E912CB12CA12CA5019401CD
:1015F0000E946F2EE62FB901CA01EA3044F5E05D82
:10160000D801EE938D01232B242B252B79F790E025
:1016100080E0109769F0FD0101900020E9F7319713
:10162000AF014A1B5B0BBD0187E795E00E94ED020D
:10163000A1960FB6F894DEBF0FBECDBFDF91CF915C
:101640001F910F91BF90AF909F908F900895E95C8C
:10165000D7CFCF92DF92EF92FF926C01990FEE08F5
:10166000FF08F7FE16C041E06DE287E795E00E94B3
:10167000CF0766277727CB016C197D098E099F0953
:101680004AE00E94DB0A0196FF90EF90DF90CF9036
:1016900008954AE0C701B601FF90EF90DF90CF9028
:1016A0000C94DB0A009769F0FC0101900020E9F737
:1016B0003197AF01481B590BBC0187E795E00C94AB
:1016C000ED0290E080E008950F931F93CF93DF9396
:1016D000EC01CB01009759F466EF71E0CE010E9456
:1016E000F030CE01DF91CF911F910F91089520E04E
:1016F00077FF06C02DE2288391958195910921E01D
:10170000803137E293070CF5883E33E09307FCF411
:1017100032E0843691052CF431E08A3091050CF4E6
:1017200030E0230FFE01E20FF11D11820AE010E00C
:10173000FE01E20FF11DB8010E94D02E805D808372
:10174000CB0121500097A1F7CCCF34E0EACF33E0B2
:10175000E8CFCF93DF93BC01EC0109900020E9F7BB
:101760002197C81BD90BC03108F580EF94E00E9487
:10177000F03080E18C1BEFEDF4E090E020E2AF016F
:101780004F5D54404817590714F42193F8CF815204
:101790009B4FFC0110826FED74E080EF94E00E949B
:1017A000DC3080EF94E0DF91CF91089541E150E08B
:1017B00080EF94E00E94F730F4CF0F931F93CF9304
:1017C000DF93EC018B01FB0101900020E9F73197D9
:1017D000E61BF70BE03128F5E41718F54E1B4131F5
:1017E00008F040E1EFEDF4E050E080E39F012F5D71
:1017F00034402417350714F48193F8CF41525B4FDE
:10180000FA0110826FED74E0CE010E94F030B80151
:10181000CE010E94DC30CE01DF91CF911F910F915C
:10182000089550E04F5F5F4FB801CE010E94F7303E
:10183000F2CF4DE650E070E060E08DE594E00C946E
:10184000EE2D0F931F93CF93DF93EC018881998145
:10185000009759F02A813B812617370730F081E045
:10186000DF91CF911F910F9108958B016F5F7F4F93
:101870000E941630009759F0998388831B830A834E
:101880002C813D81232B59F7FC011082E8CF80E0A9
:10189000E7CFEF92FF920F931F93CF93DF93EC016B
:1018A000FB01E080F180E114F10411F10481158164
:1018B00001151105A9F08C819D81080F191FB80130
:1018C000CE010E94210C882399F0288139818C81D6
:1018D0009D81B701820F931F0E94F0301D830C83FE
:1018E000CE01DF91CF911F910F91FF90EF9008955E
:1018F000CE010E94C90AF4CFEF92FF920F931F937B
:10190000CF93DF93EC017B01198218821B821A822C
:101910001D821C82FB0101900020E9F731978F01A5
:10192000061B170BB8010E94210C811109C0CE01C2
:10193000DF91CF911F910F91FF90EF900C94C90A06
:101940001D830C83B70188819981DF91CF911F910D
:101950000F91FF90EF900C94F0306F927F928F92E6
:101960009F92AF92BF92CF92DF92EF92FF920F932E
:101970001F93CF93DF93CDB7DEB7E988FA88FE01D6
:101980007496D12CC12C712CAB88B12C80E1682EBF
:10199000872D90E0CA14DB042CF52FE0271510F1F9
:1019A0004F0122E0820E911C60817181FB01019048
:1019B0000020E9F731978F01061B170B9C01200FC0
:1019C000311D462D4719213131050CF4402F50E0CF
:1019D0008E0D9F1D0E94F730700E8FEFC81AD80A27
:1019E000F401D6CF8E0D9F1DFC011082C701DF913F
:1019F000CF911F910F91FF90EF90DF90CF90BF900C
:101A0000AF909F908F907F906F900895CF92DF92CC
:101A1000EF92FF920F931F93CF93DF93CDB7DEB773
:101A200060970FB6F894DEBF0FBECDBF188A1F8631
:101A30002AE32F872CE330E040E050E00E94062E9E
:101A40006B01B901CE0101960E94640B8E01045F07
:101A50001F4F42E0BE016F5F7F4FC8010E94DD0B48
:101A6000B601CE0101960E94640B7E0189E0E80E6A
:101A7000F11C42E0BE016F5F7F4FC7010E94DD0B8A
:101A8000FF92EF92CE010F969F938F931F930F9328
:101A900083E08F938EEC94E09F938F930E94AD0C24
:101AA0000FB6F894DEBF0FBECDBF8EEC94E060960B
:101AB0000FB6F894DEBF0FBECDBFDF91CF911F915F
:101AC0000F91FF90EF90DF90CF9008958F929F92AB
:101AD000AF92BF92CF92DF92EF92FF920F931F933C
:101AE000CF93DF93CDB7DEB760970FB6F894DEBF24
:101AF0000FBECDBF188A1F862AE32F872CE330E064
:101B000040E050E00E94062E4B0179012D30310556
:101B100014F02C503109B901CE0101960E94640BDA
:101B20008E01045F1F4F42E0BE016F5F7F4FC8010F
:101B30000E94DD0BB401CE0101960E94640B6E0180
:101B400099E0C90ED11C42E0BE016F5F7F4FC60114
:101B50000E94DD0B8CE0E816F10474F588EB91E04F
:101B60009F938F93DF92CF92CE010F969F938F9387
:101B70001F930F9384E08F938EEC94E09F938F9349
:101B80000E94AD0C0FB6F894DEBF0FBECDBF8EEC39
:101B900094E060960FB6F894DEBF0FBECDBFDF9124
:101BA000CF911F910F91FF90EF90DF90CF90BF905A
:101BB000AF909F908F90089581EB91E0D1CFCF921D
:101BC000DF92EF92FF920F931F93CF93DF93CDB7E6
:101BD000DEB765970FB6F894DEBF0FBECDBF82505B
:101BE0008F3108F001C2E82FF0E0E750F24F0C947B
:101BF000E42E180E6E0EF40F950EC10EB10FD70F16
:101C0000E00EF40FEC0E160FF40FF10E220FF40F8E
:101C10002B0F3A0F480F6A0FF10FF40F6F0F780F69
:101C2000F40F810F8A0F950F9E0FF40FAC0FA70FC3
:101C30001D8A1C8A8FE28C8B60915B0470915C041E
:101C4000CE0101960E94640B8E010F5E1F4F42E091
:101C5000BE016F5F7F4FC8010E94DD0B6091590488
:101C600070915A04CE0101960E94640B7E018EE0B1
:101C7000E80EF11C42E0BE016F5F7F4FC7010E947A
:101C8000DD0B6091570470915804CE0101960E94BB
:101C9000640B6E0199E0C90ED11C44E0BE016F5F78
:101CA0007F4FC6010E94DD0BDF92CF92CE0144969A
:101CB0009F938F93FF92EF929F938F931F930F9316
:101CC00085E08F938EEC94E09F938F930E94AD0CF0
:101CD0000FB6F894DEBF0FBECDBF16C0A091CC04E6
:101CE000B091CD042CE330E00E94EA2E0091CA04AA
:101CF0001091CB04012E000C220B330B600F711FCF
:101D0000821F931F0E94660D8EEC94E065960FB6BD
:101D1000F894DEBF0FBECDBFDF91CF911F910F9121
:101D2000FF90EF90DF90CF90089560916C047091D8
:101D30006D046D30710514F06C507109CE0101967F
:101D40000E94640B8E01075F1F4F42E0BE016F5F70
:101D50007F4FC8010E94DD0B80916C0490916D044F
:101D60000C975CF585EB91E09F938F931F930F93F6
:101D700082E08F938EEC94E09F938F930E94AD0C42
:101D8000A7CF60916E0470916F046D30710514F0EF
:101D90006C507109CE0101960E94640B8E01075FA1
:101DA0001F4F42E0BE016F5F7F4FC8010E94DD0BF5
:101DB00080916E0490916F04D3CF8EEA91E0D4CFDE
:101DC000609177047091780461157105C1F1CE01BD
:101DD00001960E94640B30C060917204709173048C
:101DE000F6CF0091070110910801B8010D301105DF
:101DF00014F06C507109CE0101960E94640B7E01B3
:101E000099E0E90EF11C42E0BE016F5F7F4FC70110
:101E10000E94DD0B85EB91E00C30110514F08EEA89
:101E200091E09F938F93FF92EF92A2CF80917604DF
:101E3000882329F08EE492E09F938F933DC08CEB32
:101E400091E0FACF80EC91E09F938F9388EC91E042
:101E50009F938F938DCF60917F0470918004633046
:101E6000710509F0C8C02AED31E08CEB91E03F9399
:101E70002F93EECF609183047091840463307105D9
:101E800091F3CE0101960E94640B21EB31E0EFCF7C
:101E90006091870470918804CE0101960E94640BC2
:101EA0008E01075F1F4F43E0BE016F5F7F4FC80188
:101EB0000E94DD0B1F930F9381E08F938EEC94E0D3
:101EC0009F938F930E94AD0C0F900F900F900F90E7
:101ED0000F901ACF6091890470918A04DDCF6091D0
:101EE0008B0470918C0480918D0490918E040ACFA4
:101EF00060918F047091900480919104909192046C
:101F000001CF60919B0470919C0480919D049091FD
:101F10009E04F8CE60919F047091A0048091A1046A
:101F20009091A2040E94060DEFCE6091A3047091DF
:101F3000A4048091A5049091A604E4CE6091A70426
:101F40007091A8048091A9049091AA04EBCF6091AC
:101F50007D0470917E043BCF60917B0470917C0482
:101F600036CFE0910501F0910601DF01A555BB4F89
:101F70008C91811119C08CEB91E09F938F938BE62C
:101F800092E09F938F93EE0FFF1FE25BFE4F8181E4
:101F90008F9380818F9383E08F938EEC94E09F9357
:101FA0008F930E94AD0C94CE8EE492E0E6CFE09148
:101FB0000301F0910401DF01AD53BB4F8C918111FE
:101FC0000DC08CEB91E09F938F938BE692E09F93F3
:101FD0008F93EE0FFF1FE05CFE4FD9CF8EE492E0AF
:101FE000F2CF1092CE0490CE6AE371E08EEC94E0D2
:101FF0000E94F03089CECE0101960E94640B28EB3E
:1020000031E035CF6F927F929F92AF92BF92CF9285
:10201000DF92EF92FF920F931F93CF93DF93CDB791
:10202000DEB7A3970FB6F894DEBF0FBECDBFCE01CB
:1020300009960E94200A6C85662309F4E4C06C307E
:1020400011F008F06C5070E0CE0101960E94640B14
:102050008E01085E1F4F42E0BE016F5F7F4FC801D7
:102060000E94DD0BCE0109960E94200A6D8570E06A
:10207000CE0101960E94640B7E012BE1E20EF11C61
:1020800042E0BE016F5F7F4FC7010E94DD0BCE01B2
:1020900009960E94200A6E8570E0CE0101960E948A
:1020A000640B6E013EE1C30ED11C42E0BE016F5FC6
:1020B0007F4FC6010E94DD0B60E080E00E94E607D2
:1020C000CE0109960E94200A8C858C3008F09DC0B4
:1020D00084ED91E09F938F93DF92CF928BED91E00F
:1020E0009F938F93FF92EF929F938F931F930F93E2
:1020F00088EDE82E81E0F82EFF92EF9297E0992E7E
:102100009F9200EF14E01F930F930E94AD0C0E946A
:10211000520BCE0109960E94200A6B8570E0CE0119
:1021200001960E94640B6E0181E2C80ED11C42E050
:10213000BE016F5F7F4FC6010E94DD0BCE01099685
:102140000E94200A698570E06053784FCE010196A5
:102150000E94640B3E012FE0620E711C44E0BE0140
:102160006F5F7F4FC3010E94DD0BCE0109960E9475
:10217000200A8A858150990B26E0289FF001299F2B
:10218000F00D1124E75DFA4F608171815E0134E149
:10219000A30EB11CC5010E94F03061E080E00E94F6
:1021A000E60787ED91E09F938F937F926F928DED7D
:1021B00091E09F938F93BF92AF929F938F93DF9203
:1021C000CF92FF92EF929F921F930F930E94AD0CBC
:1021D0000FB6F894DEBF0FBECDBF0E94520BA39680
:1021E0000FB6F894DEBF0FBECDBFDF91CF911F9128
:1021F0000F91FF90EF90DF90CF90BF90AF909F90A6
:102200007F906F9008956CE01ECF8DEC91E062CFCF
:10221000CF92DF92EF92FF92E091C203E93058F53E
:10222000F0E0EA5EFE4E84E00C94E42E1F114011B3
:102230005111621173118611BF1125124C120E94A7
:102240004303892BC1F00E944A2D23E130E040E096
:1022500050E00E94062E6F5F7F4F8F4F9F4F80E0B0
:102260000E94E20568EE73E080E090E00E9438048E
:1022700081E08093C203FF90EF90DF90CF900895AC
:102280000E944303892BB9F36091740581E00E9499
:10229000E20568EE73E080E090E00E94380482E09E
:1022A000E8CF0E944303892B31F3609172058FE2DE
:1022B0000E94E20568EE73E080E090E00E9438043E
:1022C00083E0D7CF0E944303892BA9F26091730565
:1022D00080E30E94E20568EE73E080E090E00E94F7
:1022E000380484E0C6CF0E944303892B21F20E9468
:1022F000B90261E0680F81E30E94E20568EE73E0D5
:1023000080E090E00E94380485E0B3CF0E94430350
:10231000892B09F4B0CF80917405E82FF0E0E254E6
:10232000FB4F90819923E1F085508730C8F480916C
:10233000710590E08053984F20917B0430917C048C
:102340002817390779F480917205609173058E5CC6
:102350000E94E20568EE73E080E090E00E9438049D
:1023600086E087CF2150310928173907C9F78091B6
:1023700072058C30A9F76091730582E3E9CF0E9462
:102380004303892B09F477CF20917F043091800497
:102390008091740590E02817390721F42330310526
:1023A00009F043C02091830430918404A901445F63
:1023B0005F4F8417950721F42330310509F042C09F
:1023C000C0907704D0907804C114D10409F453CF9D
:1023D0000D2C000CEE08FF0861E070E080E090E05A
:1023E00082E0C816D104E104F10474F00E944A2D81
:1023F000A701960121503109410951090E94062E79
:102400006F5F7F4F8F4F9F4F82E10E94880568EE7C
:1024100073E080E090E00E9438048091790490910C
:102420007A04892B69F087E024CF6091870482E0E9
:102430000E94E20568EE73E080E090E00E943804BC
:1024400088E017CF60918904F2CF0E944303892B63
:1024500009F411CFC0907904D0907A040D2C000CAF
:10246000EE08FF0861E070E080E090E082E0C816CE
:10247000D104E104F10474F00E944A2DA7019601F1
:1024800021503109410951090E94062E6F5F7F4F8B
:102490008F4F9F4F86E0CCCF0E944303892B09F4D6
:1024A000EACE1092C2030E9439081092D9030E940A
:1024B0006B046093DF037093E0038093E1039093D8
:1024C000E20360E08CE0FF90EF90DF90CF900C94FF
:1024D0006C031F93CF93DF93CDB7DEB761970FB631
:1024E000F894DEBF0FBECDBF0E94AA02182F60E095
:1024F00080E00E94E6070E943B0290910705E09170
:102500000405F0910505882349F186E0989FE00DC8
:10251000F11D1124319665917491CE0101960E94AE
:10252000A22D0E94A90B8EE78093FF0480EF94E018
:102530000E94520B89EE810F823020F01A3111F087
:102540001C3131F561E080E00E94E60789ED91E001
:102550000E94520B812F0E94DF0D20C086E0989FC1
:10256000E00DF11D1124319665917491CE01019613
:102570000E94A22D0E94A90B0E94AA02182F81116D
:102580001BC08FE78093FF0480EF94E00E94520B02
:1025900061E080E00E94E60785E291E00E94A90BDD
:1025A0000E94520B61960FB6F894DEBF0FBECDBFEE
:1025B000DF91CF911F91089580EF94E00E94520B1C
:1025C000C1CF4F925F926F927F928F929F92AF9204
:1025D000BF92CF92DF92EF92FF920F931F93CF9310
:1025E000DF93CDB7DEB72E970FB6F894DEBF0FBEE0
:1025F000CDBF80E480937C0080917A0080648093DA
:102600007A0080917A0086FDFCCF809178006091FD
:102610007900762F682F072E000C880B990B611517
:1026200071058105910511F00E94992D61E08CE002
:102630000E94CC0361E08AE00E94CC0361E08FE05D
:102640000E94CC0361E08EE00E94CC0361E08BE04D
:102650000E94CC0362E084E00E94CC0362E085E04B
:102660000E94CC0362E086E00E94CC0362E087E037
:102670000E94CC0362E088E00E94CC0362E080E12B
:102680000E94CC030E949A034DE650E070E060E0A7
:102690008DE594E00E94DE2D6BE271E08DE594E023
:1026A0000E94E730892B09F4E9C06BE271E08DE507
:1026B00094E00E94F03084E690E090937804809358
:1026C000770490937A048093790485E090E0909366
:1026D0006D0480936C0486E190E090936F04809386
:1026E0006E0484E190E09093710480937004909361
:1026F00073048093720483E090E09093800480934D
:102700007F04909382048093810490938604809345
:102710008504909384048093830481E090E09093F7
:1027200088048093870482E090E090938A048093E9
:10273000890487E394E0A0E0B0E080938B04909359
:102740008C04A0938D04B0938E0487E691E0A0E002
:10275000B0E080938F0490939004A0939104B09381
:102760009204109293041092940410929504109283
:102770009604109297041092980410929904109263
:102780009A048CE291E0A0E0B0E080939B049093E7
:102790009C04A0939D04B0939E0483E790E0A0E086
:1027A000B0E080939F049093A004A093A104B09301
:1027B000A2044CEF53E060E070E04093A304509318
:1027C000A4046093A5047093A6048093A704909337
:1027D000A804A093A904B093AA04109274041092C0
:1027E0007504109276041092AB041092AC0410920F
:1027F000AD041092AE041092AF0481E08093B00457
:102800008093B1048093B2048093B3048093B404A2
:102810008093B5048093B6048093B7048093B80482
:102820008093B9048093BA048093BB048093BC0462
:102830008093BD048093BE048093BF048093C00442
:102840008093C1041092C2041092C3048093C40404
:102850001092C5048093C6041092C7048093C804E4
:102860001092C9048BE391E090937E0480937D04E1
:1028700086EE97E090937C0480937B040E949A03F9
:1028800010927C0580918105823018F098E0909339
:102890007C0580937F0562E370E080E090E00E9419
:1028A00038046091820587E795E00E949F0768EEF3
:1028B00073E080E090E00E94380460E387E795E0F1
:1028C0000E94B30784E991E10E94080460E387E76E
:1028D00095E00E94B30784E991E10E94080460E357
:1028E00087E795E00E94B30786E990E00E9408041C
:1028F00060E287E795E00E94B30760917C05606223
:1029000040E087E795E00E94CF0784E080937D0553
:1029100040E06CE087E795E00E94CF070E9439080D
:10292000A2E0FA2EF0927E0540E066E087E795E0AF
:102930000E94CF0740E062E087E795E00E94CF0762
:1029400080ED97E00E94080488E08093820560E0B3
:1029500087E795E00E949F0760E085E00E94E60718
:102960008DE393E00E941F0861E080E00E94E6078B
:102970008CE293E00E941F0860ED77E080E090E039
:102980000E9438040E94390860E080E00E94E60757
:1029900060917B0470917C046E0129E0C20ED11C11
:1029A000C6010E94640BDF92CF928FED91E09F935E
:1029B0008F93FF9200EF14E01F930F930E94AD0CD2
:1029C0000E94520B61E080E00E94E60760917D0466
:1029D00070917E04C6010E94640BDF92CF928AEE52
:1029E00091E09F938F93FF921F930F930E94AD0CE2
:1029F0000E94520B60ED77E080E090E00E94380486
:102A00000E94390860E083E00E94E60788EF91E0C9
:102A10000E94520B85E00E9443030FB6F894DEBF7C
:102A20000FBECDBF892BF1F561E080E00E94E60783
:102A300083E092E00E94520B81E08093F50278E6F9
:102A4000E72EEDE1AE2EE5E0BE2EF0E28F2E912CCA
:102A5000FF24F3948091E4039091E503009711F033
:102A60000E948D2F86E090E00E94F12E8C01FC01E7
:102A7000E082B282A1821382958284829093E503E0
:102A80008093E4030E949A03F801F382C8010E9434
:102A9000C40681110AC00E94390885E293E00E94B1
:102AA0001F08D8CF1092F502CACF1E868091E4038A
:102AB0009091E503FC0124813581232B89F020814D
:102AC000F09233042093550410923404109256046B
:102AD00021E041E050E0BE01625F7F4F0E94A60608
:102AE00041E050E09E012F5F3F4F5901B9018091B5
:102AF000E4039091E5030E94EA08898190E0880F41
:102B0000892F881F990B892B79F00E9439088EE153
:102B100093E00E941F0860ED77E080E090E00E9463
:102B2000380481E08093F5021092C4051092C30529
:102B30001092C2051092C1051092C0051092BF05F7
:102B40008DE991E09093C6058093C5058091B50508
:102B5000873108F04BC02DEB30E03093C005209357
:102B6000BF052BE931E03093C2052093C1052CE26B
:102B700031E03093C4052093C3052091680094E0B0
:102B8000883054F091E08E303CF092E0843124F0B3
:102B900091E0863109F490E0922B909368002DE645
:102BA00030E0883074F08E300CF47DC084313CF01D
:102BB00086310CF478C030E020E0863111F42CE648
:102BC00030E03093BD052093BC0588300CF06EC01A
:102BD00091E001C0990F8A95EAF7892F8093BE058D
:102BE0008091C5059091C6050197F1F78091C305C5
:102BF0009091C405892B49F1E0917C03F0917D030C
:102C000035E0E93AF30709F1309739F0A389B4893F
:102C10009C918589809589238C938091C7058E7FAF
:102C20008093C70510927A0310927B0389EA95E09E
:102C300090937D0380937C03E091BC05F091BD05EA
:102C400080819091BE05892B808364EF71E080E0E4
:102C500090E00E94380409EA15E0FF24F3941093F1
:102C6000840500938305F0929B0570E060E08CE0A2
:102C70000E9488050E946B042B013C010E9477048E
:102C8000811122C00E946B04641975098609970995
:102C9000613D774081059105B8F460E070E0CB01BB
:102CA0000E943804EBCF2BE630E08BCF8E3014F44B
:102CB00088508ECF863114F48E508ACF863111F42D
:102CC00080E48CCF80E08ACF68EC70E080E090E018
:102CD0000E9438041092A7058091A305843069F002
:102CE000893059F00E94390860E080E00E94E607D0
:102CF00087E193E00E941F08B2CF84EF91E0A0E04B
:102D0000B0E08093890590938A05A0938B05B093DA
:102D10008C056091720470917304772786E00E949D
:102D2000880562E070E089E00E94880568EC70E048
:102D300080E090E00E9438040E9439080E946B04F1
:102D40006093DF037093E0038093E1039093E203C9
:102D50008091F502882309F426C123EF32E03093F5
:102D600002052093010586E0809303053093050555
:102D700020930405809306051092070510921C0508
:102D800086E00E944303892B09F0EEC087E00E9491
:102D90004303892B09F0E8C060917D0470917E04A3
:102DA000072E000C880B990B20917B0430917C043A
:102DB000032E000C440B550B260F371F481F591FBD
:102DC0000E94A02E20E137E240E050E00E94062E53
:102DD0007093F4026093F3020E94390888E0F501D1
:102DE00011928A95E9F710E000E028EE622E23E0C8
:102DF000722E34E6532E4AE0442E50EF852E54E0D6
:102E0000952E85E00E944303892B69F40F5F1F4FC5
:102E10000430110510F010E000E06CE271E080E099
:102E200090E00E94380486E00E944303892BC9F495
:102E30009801220F331FF501E20FF31F808191816A
:102E400001968A30910514F090E080E02A0D3B1D38
:102E5000F901918380836CE271E080E090E00E9450
:102E6000380487E00E944303892BC1F49801220FA4
:102E7000331FF501E20FF31F80819181019797FFC6
:102E800002C089E090E02A0D3B1DF9019183808307
:102E90006CE271E080E090E00E94380488E00E94DB
:102EA0004303892B09F460C089819A81869D700152
:102EB000879DF00C969DF00C11242B813C81529E35
:102EC000C001539E900D1124E80EF91E2D813E8104
:102ED000429EC001439E900D1124E80EF91E8F8181
:102EE0009885E80EF91EF092F202E092F10260E09D
:102EF00080E00E94E60784EC92E00E941F08809127
:102F0000F3029091F402E816F90609F054C028EB98
:102F100032E0309302052093010582E0809303059F
:102F2000309305052093040580930605109207054C
:102F300010921C0581E08093D90383E00E946912FE
:102F40000E946B046093DF037093E0038093E103BE
:102F50009093E2030E946B046093DB037093DC03A5
:102F60008093DD039093DE0385E00E944303892B69
:102F700009F471C01092CB032E960FB6F894DEBF01
:102F80000FBECDBFDF91CF911F910F91FF90EF90BA
:102F9000DF90CF90BF90AF909F908F907F906F9079
:102FA0005F904F90089525ED32E030930205209315
:102FB000010585E0D9CE0E946B042091C7033091B2
:102FC000C8034091C9035091CA03621B730B840B61
:102FD000950B6D3271408105910508F412CF8091F7
:102FE000020161E0882359F184E00E94E607B701FD
:102FF000C6010E94640B44E0B60180EE92E00E949C
:10300000DD0B80EE92E09F938F9381E08F939F92F0
:103010008F920E94AD0C0E94520B109202010F90F1
:103020000F900F900F900F900E946B046093C70356
:103030007093C8038093C9039093CA03E2CE84E0DF
:10304000800F0E94E60789ED91E00E94520B81E01B
:1030500080930201E9CF88E00E944303892B09F0A5
:1030600089CF81E08093CB0387CF1F920F920FB659
:103070000F9211242F933F938F939F93AF93BF93FE
:1030800080917F0390918003A0918103B09182038E
:1030900030917E0323E0230F2D3768F126E8230FBC
:1030A0000296A11DB11D20937E0380937F03909310
:1030B0008003A0938103B093820380918303909156
:1030C0008403A0918503B09186030196A11DB11DD3
:1030D0008093830390938403A0938503B093860326
:1030E000BF91AF919F918F913F912F910F900FBE04
:1030F0000F901F9018950196A11DB11DD4CF1F925E
:103100000F920FB60F9211242F933F934F935F931B
:103110006F937F938F939F93AF93BF93EF93FF939F
:10312000E0917C03F0917D03309749F0A685B78547
:103130008585968D91FF14C09C918923A1F4FF9100
:10314000EF91BF91AF919F918F917F916F915F911F
:103150004F913F912F910F900FBE0F901F90189598
:103160009C91892361F7A389B4899C918589809575
:1031700089238C93868997890197F1F7608D718DEA
:10318000A685B785558538E020E0CB010197F1F79A
:10319000822F90E095958795282F4C91452309F033
:1031A0002068315091F7868D81FD209580917A03BA
:1031B00090E001968F73992730917B03381799F02F
:1031C000A0917A03B0E0A65CBC4F2C9380937A0365
:1031D000828D938D0197F1F7A389B4898C9195899C
:1031E000892B8C93ACCF868D8160868FF1CF1F9217
:1031F0000F920FB60F9211242F933F934F935F932B
:103200006F937F938F939F93AF93BF93EF93FF93AE
:103210008091B900887F803609F44AC0F0F5883281
:1032200009F4A7C018F5803109F49BC0B8F48823CD
:1032300009F4F9C0883009F494C0FF91EF91BF916F
:10324000AF919F918F917F916F915F914F913F913E
:103250002F910F900FBE0F901F901895883109F491
:1032600088C0803251F78093300414C0803409F450
:103270009DC040F48033B9F38833F9F6809330046D
:1032800085ECB0C0803509F485C0883509F496C056
:10329000883499F60E94E906D0CF883909F48CC0A9
:1032A00038F5883729F050F4883611F0803729F640
:1032B00083E0809332041092390357C0883809F4B0
:1032C0007BC0803919F0803809F0B7CF809139037D
:1032D000803208F071C0E091390381E08E0F809355
:1032E00039038091BB00F0E0E75EFC4F80833DC076
:1032F000803B39F0E0F4803A09F479C0883A09F06B
:103300009CCF84E08093320410921803109217032C
:10331000E091E803F091E903099580911703811189
:103320000FC081E0809317031092F70209C0803C20
:1033300009F4A6CF883C09F4A3CF883B09F07DCFE0
:10334000E091180381E08E0F80931803F0E0E950BC
:10335000FD4F80818093BB009091180380911703EB
:1033600029C080910D048093BB0085EC8093BC0044
:1033700064CF90912F0480912E04981758F5E09116
:103380002F0481E08E0F80932F04F0E0E25FFB4F6B
:103390008081E9CFE0912F0481E08E0F80932F048C
:1033A0008091BB00F0E0E25FFB4F808390912F049F
:1033B00080912E049817C8F285E8D8CFE0912F04A9
:1033C00081E08E0F80932F048091BB00F0E0E25FDC
:1033D000FB4F80838091310481115CCF81E0809329
:1033E0000C0484EA8093BC001092320426CF85EC52
:1033F0008093BC001092320480913903803230F403
:10340000E0913903F0E0E75EFC4F108260913903F0
:1034100070E0E091E603F091E70389E193E009951C
:10342000109239030ACF1092300434CF1092200545
:1034300010921F0588EE93E0A0E0B0E08093210594
:1034400090932205A0932305B093240522E831E050
:1034500030931E0520931D051092AC051092AB050C
:103460008093AD059093AE05A093AF05B093B005E2
:1034700080EA91E09093AA058093A9051092C00577
:103480001092BF051092C2051092C1051092C4059A
:103490001092C3051092C6051092C5056091C7052C
:1034A0006E7F6D7F6093C7056695617081E06827C8
:1034B00083E00E946C0361E083E00E94CC03E9E0BA
:1034C000F4E0E491E093B905E2EFF3E0E491F0E099
:1034D000EE0FFF1FEB51FC4F859194919093BB052C
:1034E0008093BA0560E082E00E94CC038091C7051A
:1034F00081FD04C061E082E00E946C0382E0809361
:10350000B505E8E0F4E0E491E093B605E1EFF3E01F
:10351000E491F0E0EE0FFF1FE552FC4F259134914E
:103520003093B8052093B70544EF51E060E070E0B8
:103530004093890550938A0560938B0570938C05A1
:103540009AE0EBE1F1E0A7E9B5E001900D929A95E0
:10355000E1F71092A1058093A2051092A7051092A1
:10356000A80510927A051092790524E931E030938C
:1035700078052093770597E290937B0590E19093EF
:103580008005809381051092820510927605109235
:1035900075051092740510927105E0EDF3E081E07D
:1035A0008C3051F09491823009F49F5F21E0280F14
:1035B0003196992309F44DC08093720581E0809380
:1035C000730560E172E089E295E00E947C0C64E1A1
:1035D00072E08FE295E00E947C0C68E172E085E386
:1035E00095E00E947C0C6CE172E08BE395E00E9418
:1035F0007C0C60E272E081E495E00E947C0C64E265
:1036000072E087E495E00E947C0C68E272E08DE451
:1036100095E00E947C0C6CE272E083E595E00E94EC
:103620007C0C60E372E089E595E00E947C0C64E329
:1036300072E08FE595E00E947C0C68E372E085E61D
:1036400095E00E947C0C6CE372E08BE695E00C94B4
:103650007C0C822FA5CFCF93DF93CDB7DEB7AC978D
:103660000FB6F894DEBF0FBECDBF789484B58360EB
:1036700084BD85B5836085BD80916E008160809337
:103680006E0082E080938100809181008160809350
:103690008100809180008160809380008091B100E2
:1036A00084608093B1008091B00081608093B0000D
:1036B00087E880937A001092C1000E94E1129E0177
:1036C0002F5F3F4F3CA72BA743E7242E312C412CE3
:1036D000512C0E946B04C090B403D090B503E090CD
:1036E000B603F090B7036C197D098E099F09643108
:1036F00071058105910508F49FC00E946B046093D9
:10370000B4037093B5038093B6039093B70385E039
:103710000E9443037C0186E00E94430301E0892B61
:1037200021F0EF2809F400E0019587E00E944303AF
:10373000892B09F402E088E00E944303892B09F4F5
:1037400003E080E10E944303892B09F404E087E849
:10375000C82E83E0D82E9BE9E92E93E0F92E26E2CD
:10376000822E21E0922E3FEAA32E33E0B32E11E009
:10377000712C711034C1D4018C91801330C1772425
:10378000739466246394F50181915F018615B1F00D
:10379000662009F426C1812F0E9446080E946B040E
:1037A000D7016D937D938D939C931397F60160835E
:1037B000718382839383F50131976082662079F16A
:1037C0000E946B04F7012081318142815381621B89
:1037D000730B840B950B613D774081059105F8F0E3
:1037E0000E946B04D6012D913D914D915C91621B1D
:1037F000730B840B950B6B3F71058105910578F078
:103800008A2DEFEAF3E08E1B80680E9446080E9432
:103810006B04D6016D937D938D939C9313971F5FDB
:10382000B4E0CB0ED11CE4E0EE0EF11CFFEF8F1ADA
:103830009F0A163009F09DCF9091BE0319160CF423
:10384000E8C01092E3038091E303833819F5809177
:10385000DA0381111FC08091750481113EC181E09E
:103860008093750461E080E00E94E6078DE993E0B3
:103870000E941F08609175048FE00E946C0368EE3F
:1038800073E080E090E00E9438040E94190C81E00F
:103890008093DA031091E3030091D9038EE3810F43
:1038A000843008F023C11092DA030E946B048090E8
:1038B000DF039090E003A090E103B090E203681969
:1038C00079098A099B096D3271408105910540F0A3
:1038D0001092D8031092D7031092D5031092D403FC
:1038E0000E946B048090D0039090D103A090D203EB
:1038F000B090D303681979098A099B09653F714023
:103900008105910508F44EC080917504882309F45F
:1039100049C00E946B046093D0037093D1038093DD
:10392000D2039093D30380908B0490908C04A0904A
:103930008D04B0908E0481149104A104B10491F11E
:1039400040918F0450919004609191047091920481
:10395000411551056105710529F18091C3039091CD
:10396000C403A091C503B091C6032091D603841669
:103970009506A606B7060CF0E9C088159905AA05B4
:10398000BB050CF4D9C084179507A607B7070CF040
:10399000D3C0211107C061E08BE00E946C0381E07D
:1039A0008093D603609175048FE00E946C03609150
:1039B00074048EE00E946C03023009F49BC508F089
:1039C000CCC0002309F456C1013009F407C480E0DB
:1039D00090E0892B09F47DCE0E9400007ACE612C04
:1039E000D2CE0E946B04D7012D913D914D915C91F7
:1039F000621B730B840B950B613D7740810591052C
:103A000028F0812F806C0E944608D5CE812F8064DB
:103A1000FACF8091BD03E82FF0E0E854FC4F10810D
:103A200091509093BE038F5F853008F04AC0809319
:103A3000BD031093E303112309F42CCF0E946B0400
:103A40006093DF037093E0038093E1039093E203BC
:103A50000E946B046093DB037093DC038093DD03AF
:103A60009093DE0388E08093820560E087E795E02D
:103A70000E949F07123809F0E6CE8091DA03811187
:103A800009CF8091740481111FC081E08093740478
:103A900061E080E00E94E6078FEB93E00E941F0840
:103AA000609174048EE00E946C0368EE73E080E025
:103AB00090E00E9438040E94190C81E08093DA03A0
:103AC000C2CE1092BD03B5CF1092740461E080E0C5
:103AD0000E94E6078EEA93E0E1CF1092750461E060
:103AE00080E00E94E6078CE893E0C2CE133009F034
:103AF000DCCE002319F0053009F0D7CE8091D70332
:103B00009091D80301969093D8038093D70302979E
:103B10000CF4CBCE8BE00E94430361E0892B09F0CB
:103B200060E08BE00E946C0381E09091D6039111DC
:103B300080E08093D603B9CE213009F033CF60E026
:103B40008BE00E946C031092D6032CCF8815990548
:103B5000AA05BB050CF01DCF16CF043009F454C2E2
:103B600008F41BC2053009F032CF61E08CE00E94FE
:103B70006C0361E08AE00E946C030E946B04C090B9
:103B8000C703D090C803E090C903F090CA036C1932
:103B90007D098E099F09693E73408105910570F189
:103BA0000E946B046093C7037093C8038093C9039A
:103BB0009093CA030E940210CE0101960E94200A2F
:103BC000EC803CE3E39E70011124CE0143960E94F9
:103BD000200A8F898E0D9F2D911D092E000CAA0B96
:103BE000BB0B8093C3039093C403A093C503B0930E
:103BF000C6038091740481110E9467080E946B04BF
:103C00000091DF031091E0032091E1033091E20382
:103C10006B017C01C01AD10AE20AF30AA091700478
:103C2000B091710428EE33E00E94EA2E6C157D05F8
:103C30008E059F0538F41092820560E087E795E0D5
:103C40000E949F0761E080E00E94E6078AE693E019
:103C50000E941F088091E303853809F0B8CE809157
:103C6000DA038111B4CE1092D9031092C0031092DE
:103C7000BF035AC160E08CE00E946C0360E08AE000
:103C80000E946C03113881F481E08093D90383E0B2
:103C90000E9469120E946B046093DB037093DC0343
:103CA0008093DD039093DE038091E303813019F567
:103CB0008091D4039091D50301969093D50380937E
:103CC000D4030497C4F0CE0101960E94200A8D818E
:103CD0008F3108F42FC1CE0143960E94200A8E89AD
:103CE00090E00196909308018093070184E080930F
:103CF000D9030E943908CE0101960E94200A8D81C5
:103D0000811163C0CE0143960E94200A888D8111E3
:103D10005CC00E946B04AB01BC018091CC0390910C
:103D2000CD03A091CE03B091CF03885B9141AF4FFB
:103D3000BF4F84179507A607B70708F046C0CE0106
:103D400001960E94200A86E0FE013196A1E7B5E0C7
:103D500001900D928A95E1F78091740590E0FC0145
:103D6000E555FB4F2081222381F120916C04309195
:103D70006D04821793074CF120916E0430916F040B
:103D80002817390714F180917604882309F4D9C0E3
:103D90000E94B902882309F4D4C0809174058A5026
:103DA000873008F0CEC00E94390860E080E00E94B1
:103DB000E60780E492E00E94520B68EE73E080E038
:103DC00090E00E9438040E9439088091E303823019
:103DD000D1F58091CB038823B1F10E946B04685523
:103DE0007541814091096093CC037093CD0380931A
:103DF000CE039093CF03CE0101960E94200A8D81BD
:103E00008E3108F0B0C0CE0143960E94200AFE8891
:103E1000CE0149960E94200AEB8CCE014F960E945B
:103E2000200AD8A0CE0185960E94200A8DA1898300
:103E3000DA82EB82FC828DE18D8387E38E83CE0173
:103E400001960E949E090E946B04C090C703D09007
:103E5000C803E090C903F090CA036C197D098E096C
:103E60009F09693E73408105910570F10E946B04C2
:103E70006093C7037093C8038093C9039093CA03E8
:103E80000E940210CE0101960E94200AEC80BCE341
:103E9000EB9E70011124CE0143960E94200A8F8967
:103EA0008E0D9F2D911D092E000CAA0BBB0B80932C
:103EB000C3039093C403A093C503B093C60380913A
:103EC000740481110E9467080E946B040091DF0353
:103ED0001091E0032091E1033091E2036B017C013A
:103EE000C01AD10AE20AF30AA0917004B0917104D9
:103EF00028EE33E00E94EA2E6C157D058E059F05A5
:103F000038F41092820560E087E795E00E949F07F1
:103F10008091E303853809F05ACD8091DA0381114D
:103F200056CD85E08093D9030E94390881E08093C3
:103F3000DA034DCDCE0149960E94200A8C8D90E087
:103F4000D1CE61E08CE00E946C030E946B04609310
:103F5000CC037093CD038093CE039093CF0383E083
:103F60008093D90330CFCE0143960E94200AFE8869
:103F7000CE0149960E94200AEB8CCE014F960E94FA
:103F8000200AD8A0CE0185960E94200A8DA189839F
:103F9000DA82EB82FC828BE34FCF88E0809382054C
:103FA00060E087E795E00E949F0761E080E00E9463
:103FB000E60781E592E00E94520B0E946B04AB0180
:103FC000BC018091CC039091CD03A091CE03B09120
:103FD000CF0388579C4EAF4FBF4F481759076A070A
:103FE0007B0710F00E9408118091E303843409F0EC
:103FF000EECC8091CB03882309F4E9CC70E060E03B
:1040000086E10E948805E3CC60E080E00E94E6073C
:104010008BE793E00E941F0861E080E00E94E607C2
:10402000E0900701F090080162EB71E0ECE0EE1621
:10403000F10414F469EB71E0CE0143960E947C0C0C
:10404000FDE0EF16F1041CF02CE0E21AF1081A8EE4
:10405000198E1C8E1B8E1E8E1D8E4AE0BE016F5F58
:104060007F4FC7010E94A92DEBA5FCA50190002060
:10407000E9F731977F018BA59CA5E81AF90AB701EA
:10408000CE0149960E94210C811190C0CE01499623
:104090000E94C90A62E672E0CE0101960E947C0C81
:1040A000BE01675E7F4FCE0101960E94490CBE01A2
:1040B0006D5E7F4F0E94490CDC0114964D915C911E
:1040C00015976D917C9187E795E00E94ED028981BB
:1040D0009A810E948D2F898D9A8D0E948D2F8B89B8
:1040E0009C890E948D2F61E08CE00E946C03F0900F
:1040F0000701CE0101960E94200AEB80CE01439673
:104100000E94200ADC88CE0149960E94200A898DEF
:1041100080937105D0927205E0927305F092740558
:1041200010927505109276050E9408118091E303A4
:10413000843041F488E08093C20370E060E086E15F
:104140000E9488058091E3038F778230C9F58091C2
:1041500072049091730401968F31910514F08AE0F6
:1041600090E090937304809372040E94190C0E9453
:10417000390861E080E00E94E6078FE692E00E9445
:10418000520B80917204909173040E94290B6091EC
:10419000720470917304772786E00E94880564E6B4
:1041A00070E080E090E00E94380411CCFE8EED8E2D
:1041B000BE016F5F7F4F898D9A8D0E94F0306ACF6C
:1041C000833009F004CC80917204909173040197BC
:1041D0008A30910534F68EE190E0C3CF0E946B04E3
:1041E000C090DB03D090DC03E090DD03F090DE03B1
:1041F0006C197D098E099F09613375478105910509
:10420000D8F084E00E944303892B11F40E945E08D9
:104210008091010590910205909305058093040516
:1042200080910305809306051092070510921C05E6
:104230001092D9030E9439080E94AA02813009F025
:1042400057C0CE0101960E94200A8B8190E0909386
:104250005C0480935B04CE0101960E94200A8A814F
:1042600090E090935A0480935904CE0101960E94E5
:10427000200A898190E08053984F9093580480934E
:104280005704CE0101960E94200A8C8190E0909301
:10429000CD048093CC04CE0101960E94200A8D812A
:1042A00090E09093CB048093CA040E94AA028330CA
:1042B00049F10E94AA02873129F10E94AA0288319D
:1042C00009F10E94AA028A31E9F00E94AA028B3108
:1042D000C9F00E94AA028C31A9F00E94AA028D3175
:1042E00089F00E94AA02823079F48093C1030CC045
:1042F0000E94AA02823009F4A4CF0E94AA0283304D
:10430000A1F69FCF1092C1031091E3031438A1F4DA
:104310008091010590910205909305058093040515
:1043200080910305809306051092070510921C05E5
:104330001092D9030E9439080E943B02812F8F7787
:10434000823061F1833061F1113061F1143461F137
:1043500010E08DEF810F823008F0AEC00E94AA02FB
:10436000882321F1143011F10E943B02811161C0B8
:1043700082E08093D9030E94AA02882309F427CB04
:1043800061E080E00E94E6078EE78093F0041092DF
:10439000F10480EF94E00E94520B19CB11E0D9CFC9
:1043A00012E0D7CF13E0D5CF14E0D3CF80911C0516
:1043B00081111AC080910105909102059093050525
:1043C00080930405809103058093060510920705EC
:1043D00084E00E944303892B11F40E945E080E942E
:1043E00039081092D903F3CA815080931C0590E0DC
:1043F000DC01AA0FBB1FAA0FBB1FAF5FBA4F1996F4
:104400002D913C911A973093050520930405880F50
:10441000991F880F991FFC01E75FFA4F80818093F5
:10442000060517968C918093070582E00E94691219
:10443000CECA0E943B02882309F43CC03091070594
:10444000609104057091050520911C052530E8F464
:1044500040910605822F90E0DC01AA0FBB1FAA0F36
:10446000BB1FAF5FBA4F17963C931797880F991FE2
:10447000880F991F875F9A4FFC0140831A967C939F
:104480006E9319972F5F20931C05CB01F6E03F9F99
:10449000800D911D1124FC013596E491E0930605F1
:1044A000FC013396859194919093050580930405C2
:1044B0001092070583E0BACF113051F480910705BF
:1044C000882309F484CA81508093070580E0AECF29
:1044D000123009F07CCA8091070520910605215011
:1044E000330B821713060CF072CA8F5F8093070597
:1044F00081E09CCF0E94AA02F82EEEEFE80FEF3188
:1045000010F00C94E52BF0E0E857FD4D0C94E42EF0
:10451000A722B623E52B3A246924792AB02A9524C8
:10452000E52BBD24F424E52B08253725E52B4F2565
:104530007D25AB25E125EA2AE52B1226C726E52BAA
:1045400075272328D1287D29E52B4F2A2B2A1230C5
:1045500009F08DC08091C103823009F05EC0809166
:104560005B0490915C0401968032910514F081E027
:1045700090E090935C0480935B0410E000E08091F5
:10458000E303843421F0002311F40C94592C61E0EE
:1045900081E00E94E6078F2D0E94DF0D0E94A90B8B
:1045A0000E94520B11E00E946B048090DB039090FC
:1045B000DC03A090DD03B090DE03681979098A0955
:1045C0009B096133754781059105D8F084E00E940D
:1045D0004303892B11F40E945E088091010590919C
:1045E000020590930505809304058091030580934F
:1045F00006051092070510921C051092D9030E941F
:104600003908112309F4E3C981E08093D90361E0FB
:1046100080E00E94E60780E2B8CE833089F4809182
:10462000590490915A0401968D30910514F081E05F
:1046300090E090935A048093590410E000E09FCFDB
:1046400010E000E0843009F09ACF809157049091F7
:1046500058040196833028E0920714F084EE97E026
:10466000909358048093570410E000E088CF1330F3
:1046700009F03FC08091C103823089F480915B04CE
:1046800090915C0401971816190614F08FE190E0E0
:1046900090935C0480935B0410E000E070CF833063
:1046A00089F48091590490915A04019718161906BB
:1046B00014F08CE090E090935A048093590410E039
:1046C00000E05DCF10E000E0843009F058CF809129
:1046D0005704909158040197843E37E0930714F4EF
:1046E00082E098E0909358048093570410E000E033
:1046F00046CF113011F00C94E92B8091C103823028
:1047000031F483E08093C10310E000E038CF8330C0
:1047100031F484E08093C10310E000E030CF10E07A
:1047200000E0843009F02BCF2091CA043091CC04F2
:1047300040915B0450915904809157049091580422
:10474000803D67E0960710F0805D974089835A832B
:104750004B833C832D831E82CE0101960E949E09CD
:1047600081E08093020101E010E009CF123049F5A9
:104770000091C103011110C08091CC049091CD042F
:1047800001968831910514F090E080E09093CD047B
:104790008093CC0410E0F3CE013011F00C94ED2B9B
:1047A0008091CA049091CB0401968C33910514F04A
:1047B00090E080E09093CB048093CA0410E000E086
:1047C000DECE133031F50091C10301110FC080918D
:1047D000CC049091CD04019797FF02C087E190E04F
:1047E0009093CD048093CC0410E0C9CE013009F041
:1047F000F8C78091CA049091CB04019797FF02C03B
:104800008BE390E09093CB048093CA0410E000E027
:10481000B6CE113009F0E9C70091C103011106C0FD
:1048200081E08093C10310E000E0A9CE013009F0DF
:10483000E0C72091CA043091CC0440915B045091B0
:1048400059048091570490915804803DA7E09A073D
:1048500010F0805D974089835A834B833C832D837E
:104860001E82CE0101960E949E0981E08093020182
:1048700010E085CE812F8F77823089F480916C048F
:1048800090916D0401968831910514F090E080E0DC
:1048900090936D0480936C0411E000E070CE83303F
:1048A00081F480916C0490916D04019797FF02C090
:1048B00087E190E090936D0480936C0411E000E038
:1048C0005ECE113009F099C70E94190C11E001E089
:1048D00056CE812F8F77823089F480916E0490912B
:1048E0006F0401968831910514F090E080E0909378
:1048F0006F0480936E0411E000E041CE833081F4B8
:1049000080916E0490916F04019797FF02C087E138
:1049100090E090936F0480936E0411E000E02FCE3E
:10492000113091F210E000E02ACE812F8F77823093
:1049300061F48091770490917804019690937804C3
:104940008093770411E000E01ACE833081F48091E7
:10495000770490917804019797FF02C084E690E075
:10496000909378048093770411E000E008CE113032
:1049700009F4AACF10E000E002CE812F8F778230B9
:1049800089F4809172049091730401968F3191059E
:1049900014F081E090E0909373048093720411E02E
:1049A00000E0EDCD833089F480917204909173041E
:1049B00001971816190614F08EE190E09093730495
:1049C0008093720411E000E0DACD113009F019C7CC
:1049D0000E94190C6091720470917304772786E02D
:1049E0000E94880501E0CBCD8EEF810F823050F41C
:1049F00081E090917604911180E08093760411E03B
:104A000000E0BDCD113009F45FCF10E000E0B7CD7C
:104A1000812F8F77823089F480910701909108016E
:104A200001968831910514F084E090E0909308019C
:104A30008093070111E000E0A2CD833089F48091DA
:104A400007019091080101978430910514F487E1E2
:104A500090E0909308018093070111E000E08FCD72
:104A600001E0113009F48BCD10E000E088CD809199
:104A700001059091020590930505809304058091AE
:104A80000305809306051092070510921C0584E02B
:104A90008093D9030E94390810E000E070CD812F87
:104AA0008F77823089F480917F0490918004019601
:104AB0008930910514F083E090E090938004809316
:104AC0007F0411E000E05BCD833089F480917F04A6
:104AD0009091800401978330910514F488E090E070
:104AE0009093800480937F0411E000E048CD113062
:104AF00009F4EACE10E000E042CD812F8F778230BA
:104B000089F4809183049091840401968930910501
:104B100014F083E090E0909384048093830411E088
:104B200000E02DCD833089F480918304909184043A
:104B300001978330910514F488E090E09093840409
:104B40008093830411E000E01ACD113009F4BCCE4B
:104B500010E000E014CD812F8F77823099F480919E
:104B600087049091880401968531910514F081E0C5
:104B700090E090938804809387040E94E60511E0FA
:104B800000E0FDCC833099F48091870490918804F3
:104B900001971816190614F084E190E090938804A8
:104BA000809387040E94E60511E000E0E8CC113014
:104BB00009F02BC60E945E080E94190C11E001E06A
:104BC000DECC812F8F77823099F480918904909187
:104BD0008A0401968531910514F081E090E090936C
:104BE0008A04809389040E94E60511E000E0C7CCA6
:104BF000833099F48091890490918A040197181662
:104C0000190614F084E190E090938A04809389045B
:104C10000E94E60511E000E0B2CC113059F210E03C
:104C200000E0ADCC123009F04CC00091C10301117D
:104C300022C080918B0490918C04A0918D04B0913E
:104C40008E04AC01BD01445C5F4F6F4F7F4F77FD19
:104C500008C0403AE5E05E076105710514F4DB0128
:104C6000CA0180938B0490938C04A0938D04B0931D
:104C70008E0410E084CC013009F0CBC580918B0408
:104C800090918C04A0918D04B0918E04AC01BD0173
:104C90004F5F5F4F6F4F7F4F77FD08C0403AF5E0A1
:104CA0005F076105710514F4DB01CA0180938B0471
:104CB00090938C04A0938D04B0938E0410E000E0D8
:104CC0005ECC812F8F77833009F04CC00091C103F7
:104CD000011122C080918B0490918C04A0918D04CD
:104CE000B0918E04AC01BD014C53510961097109A9
:104CF00077FD08C0403A25E052076105710514F4BC
:104D0000DB01CA0180938B0490938C04A0938D04E3
:104D1000B0938E0410E033CC013009F07EC5809151
:104D20008B0490918C04A0918D04B0918E04AC0101
:104D3000BD01415051096109710977FD08C0403A30
:104D400035E053076105710514F4DB01CA01809356
:104D50008B0490938C04A0938D04B0938E0410E088
:104D600000E00DCC113009F05CC58091C1038823AF
:104D700009F456CD10E000E0813009F000CC0E942B
:104D8000190C81E08093020110E001E0F8CB1230B1
:104D900009F04CC00091C103011122C080918F0421
:104DA00090919004A0919104B0919204AC01BD0146
:104DB000445C5F4F6F4F7F4F77FD08C0403AE5E09E
:104DC0005E076105710514F4DB01CA0180938F044D
:104DD00090939004A0939104B093920410E0CFCBF1
:104DE000013009F022C580918F0490919004A09128
:104DF0009104B0919204AC01BD014F5F5F4F6F4FC2
:104E00007F4F77FD08C0403AF5E05F076105710507
:104E100014F4DB01CA0180938F0490939004A09353
:104E20009104B093920410E000E0A9CB812F8F771A
:104E3000833009F04CC00091C103011122C0809160
:104E40008F0490919004A0919104B0919204AC01D0
:104E5000BD014C5351096109710977FD08C0403A01
:104E600025E052076105710514F4DB01CA01809346
:104E70008F0490939004A0939104B093920410E057
:104E80007ECB013009F0D5C480918F0490919004BD
:104E9000A0919104B0919204AC01BD01415051091F
:104EA0006109710977FD08C0403A35E05307610593
:104EB000710514F4DB01CA0180938F049093900470
:104EC000A0939104B093920410E000E058CB11300D
:104ED00009F0B3C48091C103882309F4A1CC10E088
:104EE00000E0813009F04BCB4ACF123009F04CC0C2
:104EF0000091C103011122C080919B0490919C04F8
:104F0000A0919D04B0919E04AC01BD01445C5F4F33
:104F10006F4F7F4F77FD08C0403AE5E05E076105BF
:104F2000710514F4DB01CA0180939B0490939C04E7
:104F3000A0939D04B0939E0410E021CB013009F0B2
:104F400080C480919B0490919C04A0919D04B09199
:104F50009E04AC01BD014F5F5F4F6F4F7F4F77FDE8
:104F600008C0403AF5E05F076105710514F4DB0104
:104F7000CA0180939B0490939C04A0939D04B093DA
:104F80009E0410E000E0FBCA812F8F77833009F088
:104F90004CC00091C103011122C080919B049091EB
:104FA0009C04A0919D04B0919E04AC01BD014C53A2
:104FB00051096109710977FD08C0403A25E052079F
:104FC0006105710514F4DB01CA0180939B04909381
:104FD0009C04A0939D04B0939E0410E0D0CA0130BD
:104FE00009F033C480919B0490919C04A0919D048E
:104FF000B0919E04AC01BD01415051096109710994
:1050000077FD08C0403A35E053076105710514F497
:10501000DB01CA0180939B0490939C04A0939D04A0
:10502000B0939E0410E000E0AACA113009F011C448
:105030008091C103882309F4F3CB10E000E08130B4
:1050400009F09DCA9CCE123009F04CC00091C103FA
:10505000011122C080919F049091A004A091A1040D
:10506000B091A204AC01BD01445C5F4F6F4F7F4F14
:1050700077FD08C0403AE5E05E076105710514F46C
:10508000DB01CA0180939F049093A004A093A10424
:10509000B093A20410E073CA013009F0DEC380911E
:1050A0009F049091A004A091A104B091A204AC012E
:1050B000BD014B5F5F4F6F4F7F4F77FD08C0403A98
:1050C000F5E05F076105710514F4DB01CA01809307
:1050D0009F049093A004A093A104B093A20410E0B5
:1050E00000E04DCA812F8F77833009F04CC00091CA
:1050F000C103011122C080919F049091A004A0914E
:10510000A104B091A204AC01BD014C535109610945
:10511000710977FD08C0403A25E052076105710525
:1051200014F4DB01CA0180939F049093A004A09320
:10513000A104B093A20410E022CA013009F091C387
:1051400080919F049091A004A091A104B091A20429
:10515000AC01BD01455051096109710977FD08C0D5
:10516000403A35E053076105710514F4DB01CA01CB
:1051700080939F049093A004A093A104B093A204F1
:1051800010E000E0FCC9113009F06FC38091C10349
:10519000882309F445CB10E000E0813009F0EFC925
:1051A000EECD123009F04CC00091C103011122C0B4
:1051B0008091A3049091A404A091A504B091A604A9
:1051C000AC01BD01445C5F4F6F4F7F4F77FD08C05E
:1051D000403AE5E05E076105710514F4DB01CA01A0
:1051E0008093A3049093A404A093A504B093A60471
:1051F00010E0C5C9013009F03CC38091A30490912F
:10520000A404A091A504B091A604AC01BD014F5F18
:105210005F4F6F4F7F4F77FD08C0403AF5E05F0763
:105220006105710514F4DB01CA018093A304909316
:10523000A404A093A504B093A60410E000E09FC9C5
:10524000133009F04CC00091C103011122C08091BC
:10525000A3049091A404A091A504B091A604AC016C
:10526000BD014C5351096109710977FD08C0403AED
:1052700025E052076105710514F4DB01CA01809332
:10528000A3049093A404A093A504B093A60410E0F3
:1052900076C9013009F0F1C28091A3049091A40471
:1052A000A091A504B091A604AC01BD0141505109E3
:1052B0006109710977FD08C0403A35E0530761057F
:1052C000710514F4DB01CA018093A3049093A40434
:1052D000A093A504B093A60410E000E050C91130DB
:1052E00009F0CFC28091C103882309F499CA10E064
:1052F00000E0813009F043C942CD123009F04CC0C2
:105300000091C103011122C08091A7049091A804CB
:10531000A091A904B091AA04AC01BD01445C5F4F07
:105320006F4F7F4F77FD08C0403AE5E05E076105AB
:10533000710514F4DB01CA018093A7049093A804BB
:10534000A093A904B093AA0410E019C9013009F090
:105350009CC28091A7049091A804A091A904B09147
:10536000AA04AC01BD014B5F5F4F6F4F7F4F77FDCC
:1053700008C0403AF5E05F076105710514F4DB01F0
:10538000CA018093A7049093A804A093A904B093A2
:10539000AA0410E000E0F3C8812F8F77833009F072
:1053A0004CC00091C103011122C08091A7049091CB
:1053B000A804A091A904B091AA04AC01BD014C536A
:1053C00051096109710977FD08C0403A25E052078B
:1053D0006105710514F4DB01CA018093A704909361
:1053E000A804A093A904B093AA0410E0C8C801308F
:1053F00009F04FC28091A7049091A804A091A9043C
:10540000B091AA04AC01BD0145505109610971096F
:1054100077FD08C0403A35E053076105710514F483
:10542000DB01CA018093A7049093A804A093A90468
:10543000B093AA0410E000E0A2C8113009F02DC218
:105440008091C103882309F4EBC910E000E08130AA
:1054500009F095C894CC812F8F77823061F48091C8
:105460007D0490917E04019690937E0480937D0448
:1054700011E000E084C8833061F480917D04909154
:105480007E04019790937E0480937D0411E000E0F8
:1054900076C8113009F418CA10E000E070C8812FF6
:1054A0008F77823061F480917B0490917C04019627
:1054B00090937C0480937B0411E000E060C883300B
:1054C00091F480917B0490917C040197863E67E083
:1054D000960714F486EE97E090937C0480937B0407
:1054E00011E000E04CC8113009F4EEC910E000E012
:1054F00046C8812F8F77823089F480910501909181
:10550000060101968831910514F090E080E09093B7
:1055100006018093050111E000E031C8833081F479
:105520008091050190910601019797FF02C087E1E4
:1055300090E0909306018093050111E000E01FC800
:10554000113009F0AEC1E0910501F0910601E55579
:10555000FB4F8081812780830E94190C00E00FC8D7
:10556000812F8F77823091F4809103019091040113
:1055700001968730910514F090E080E0909304014B
:105580008093030111E000E00C94BF22833089F482
:105590008091030190910401019797FF02C086E07A
:1055A00090E0909304018093030111E000E00C94DB
:1055B000BF22113009F079C1E0910301F09104019B
:1055C000E555FB4F8081812780830E94190C00E004
:1055D0000C94BF22113809F0F1C06BE271E08DE547
:1055E00094E00E94F03084E690E0909378048093F9
:1055F000770490937A048093790485E090E0909307
:105600006D0480936C0486E190E090936F04809326
:105610006E0484E190E09093710480937004909301
:1056200073048093720483E090E0909380048093ED
:105630007F049093820480938104909386048093E6
:105640008504909384048093830481E090E0909398
:1056500088048093870482E090E090938A0480938A
:10566000890487E394E0A0E0B0E080938B049093FA
:105670008C04A0938D04B0938E0487E691E0A0E0A3
:10568000B0E080938F0490939004A0939104B09322
:105690009204109293041092940410929504109224
:1056A0009604109297041092980410929904109204
:1056B0009A048CE291E0A0E0B0E080939B04909388
:1056C0009C04A0939D04B0939E0420929F0430926A
:1056D000A0044092A1045092A2048CEF93E0A0E0B9
:1056E000B0E08093A3049093A404A093A504B09386
:1056F000A6042092A7043092A8044092A9045092D4
:10570000AA041092740410927504109276041092F8
:10571000AB041092AC041092AD041092AE0410923F
:10572000AF0481E08093B0048093B1048093B2040D
:105730008093B3048093B4048093B5048093B6043B
:105740008093B7048093B8048093B9048093BA041B
:105750008093BB048093BC048093BD048093BE04FB
:105760008093BF048093C0048093C1041092C2044C
:105770001092C3048093C4041092C5048093C6049D
:105780001092C7048093C8041092C9048BE391E07F
:1057900090937E0480937D0486EE97E090937C0442
:1057A00080937B0461E081E00E94E60789E792E054
:1057B0000E94520B10E000E00C94BF2201E0113C6B
:1057C00009F000E010E00C94BF2210E000E00C941F
:1057D000BF2210E000E00C94BF2210E000E00C9427
:1057E000BF2210E000E00C94BF2210E000E00C9417
:1057F000BF2210E000E00C94BF2210E000E00C9407
:10580000BF2210E000E00C94BF2210E000E00C94F6
:10581000BF2210E000E00C94BF2210E000E00C94E6
:10582000BF2210E000E00C94BF2210E000E00C94D6
:10583000BF2210E000E00C94BF2210E000E00C94C6
:10584000BF2210E000E00C94BF2210E000E00C94B6
:10585000BF2210E000E00C94BF2210E000E00C94A6
:10586000BF2210E000E00C94BF2210E000E00C9496
:10587000BF2210E000E00C94BF2210E000E00C9486
:10588000BF2210E000E00C94BF2210E000E00C9476
:10589000BF2210E000E00C94BF2210E000E00C9466
:1058A000BF2211E000E00C94BF2211E000E00C9454
:1058B000BF22112371F061E081E00E94E6078F2D85
:1058C0000E94DF0D0E94A90B0E94520B10E00C9465
:1058D000D3220E946B048090C7039090C803A090CD
:1058E000C903B090CA03681979098A099B096D3206
:1058F00071408105910510F40C94D322809102012E
:105900008823C9F061E081E00E94E6078F2D0E94A4
:10591000DF0D0E94A90B0E94520B109202010E94FF
:105920006B046093C7037093C8038093C90390937B
:10593000CA030C94D322B3E0FB1641F089EE8F0D1D
:10594000823020F086EE8F0D8430A8F48091C10360
:1059500081110CC061E081E00E94E60787E693E0D8
:105960000E941F0881E080930201D9CF8130B1F7F6
:1059700061E084E0F1CFE2E0FE12D1CF8091C1037B
:10598000823039F461E081E00E94E60784E693E02A
:10599000E7CF833019F461E084E0F6CF8430B1F7CB
:1059A00061E089E0F1CFCF93DF93C1E7D5E026979F
:1059B000888199810E948D2F25E0C932D207B9F7DD
:1059C00080EA91E09093AA058093A90580917C03D9
:1059D00090917D03895A954071F4E091BC05F09156
:1059E000BD0590818091BE058095892380831092AA
:1059F0007D0310927C03DF91CF9108958F929F9247
:105A0000AF92BF92CF92DF92EF92FF92CF93DF934C
:105A1000EC01688179818A819B816115710581051D
:105A2000910521F464E279ED8BE597E02DE133EF08
:105A300041E050E00E94062E49015A019B01AC0151
:105A4000A7EAB1E40E94252E6B017C01ACEEB4EF15
:105A5000A50194010E94332EC60ED71EE81EF91E22
:105A6000F7FE06C081E0C81AD108E10880E8F80A0C
:105A7000C882D982EA82FB82C701B6019F77DF9193
:105A8000CF91FF90EF90DF90CF90BF90AF909F901D
:105A90008F9008958F929F92AF92BF92CF92DF9294
:105AA000EF92FF926091090170910A0180910B01C0
:105AB00090910C01611571058105910521F464E255
:105AC00079ED8BE597E02DE133EF41E050E00E9466
:105AD000062E49015A019B01AC01A7EAB1E40E94DC
