:020000040000FA
:100000000C94FC010C9424020C9424020C94D51141
:100010000C94D5110C94D5110C9424020C94240248
:100020000C9424020C9424020C9424020C942402B8
:100030000C9424020C9424020C9424020C942402A8
:100040000C948B110C9424020C9424020C94240222
:100050000C9424020C9424020C9424020C94240288
:100060000C944D120C94240245564520534F4E4794
:10007000204E6F2E0045564520534F4E4720544981
:100080004D45004D4F5220534F4E47204E6F2E008E
:100090004D4F5220534F4E472054494D4500504C30
:1000A00041590053454C4543542054494D45005057
:1000B0004C5952204556452044555200504C5952F7
:1000C00020455645204F4E2054494D00504C595222
:1000D000204D4F522044555200504C5952204D4F04
:1000E00052204F4E2054494D004C49474854204F10
:1000F00046462054494D45004C49474854204F4EF0
:100100002054494D45000F9000000000118300006D
:100110000000107500000000126800000000007F61
:1001200001000000534F4E472053455454494E4759
:10013000000CA3000000000D9E00000000007F01E5
:10014000000000504C41592044454D4F0053434856
:100150004F4F4C205A4F4E4500564F4C554D450081
:10016000534F4E4720434F554E5400454E44205464
:10017000494D450053544152542054494D45004285
:1001800041434B005345542054494D450053455479
:100190002044415445005345542059454152005391
:1001A00045542053455249414C000574010000005C
:1001B000066B010000000B430131010309590100E6
:1001C00000000A4D01000000007F01000000434CC8
:1001D0004F434B2053455454494E470045584954CA
:1001E0000052455345542053455454494E47001836
:1001F000D90000000019CC000000001ABC0000006B
:10020000001BAF00000000007F01000000504C41C7
:100210005945522053455454494E470015F80000A3
:10022000000016E900000000007F010000004C49BA
:10023000474854532053455454494E4700057401D0
:10024000000000066B0100000007600100000009CB
:1002500059010000000A4D010000000B430131016B
:10026000030E2401060105007F0100000042454CF9
:100270004C2053455454494E4700028D0100000064
:10028000038401000000007F01000000534554205A
:10029000444154452054494D4500000000002400CD
:1002A00027002A00000000090003020000040508DE
:1002B00000000000000000000000001E9F01000080
:1002C000001D960100000000DC01000000142E0259
:1002D0001C0203170D02EF0105018C027A02031CB8
:1002E000CE01AA010600DC01000000018C027A02A6
:1002F00003046D023D0208142E021C0203170D02B6
:10030000EF010513E10100000000DC0100000045E1
:100310005252203033004552522030320045525262
:10032000203031004445564F54494F4E414C2043F4
:100330004C4F434B005154524F4E00202000202080
:100340000020504C41594552204D4F4445204F4EBE
:100350002000202052554E4E494E472044454D4FD7
:10036000202000204155544F204C49474854204FED
:1003700046462000204155544F204C4947485420C0
:100380004F4E202000204155544F20504C415920C1
:100390004F464620200020204155544F20504C41CC
:1003A00059204F4E2020001F1C1F1E1F1E1F1F1EE6
:1003B0001F1E00000000230026002900000000008E
:1003C000250028002B000404040404040404020291
:1003D00002020202030303030303020203010204F5
:1003E00008102040800102040810200102040810B7
:1003F000204080406C13FF2811241FBECFEFD8E0AF
:10040000DEBFCDBF12E0A0E0B1E0EEE5FAE502C04C
:1004100005900D92AE34B107D9F725E0AEE4B2E015
:1004200001C01D92A430B207E1F711E0CBEFD1E09B
:1004300004C02197FE010E94002BCA3FD107C9F7D3
:100440000E9481140C94222D0C94000080913F0492
:10045000E0913C04F0913D0496E0899FE00DF11D90
:1004600011243596E49181E0E11101C080E0089506
:100470002091AD0381E0213208F044C080918903CE
:100480008111FCCF8091AC0392E09093890391E0BD
:10049000909388039FEF9093870310928603209395
:1004A0008503ACE8B3E0E5E6F3E090E0291331C062
:1004B0001092640390916403880F892B80936403E6
:1004C00080916303813049F5109263038091640346
:1004D0008093BB008091BC0083FDF8CF85EC8093B6
:1004E000BC00809189038230E1F3809187038F3FC4
:1004F000B1F0809187038032A1F08091870380332F
:1005000091F084E010928B031092AD0310928A0355
:1005100008953D9131939F5FC9CF85EEE0CF80E094
:10052000F1CF82E0EFCF83E0EDCFE9E3F4E0868125
:100530000380F481E02D96E0899FE00DF11D1124E8
:1005400084910895089508956091AA049091A90452
:10055000492F50E08091AB04282F30E0E7EAF3E028
:1005600081E0861730F47491270F311D8F5F31962B
:10057000F8CF633020F0937011F42F5F3F4F6DE69A
:1005800071E0469FC001479F900D569F900D11242A
:1005900005964D5F5F4F5695479556954795840F45
:1005A000951F820F931F67E070E00E94D82A08957C
:1005B000AF92BF92CF92DF92EF92FF920F931F9371
:1005C000CF93DF936C017B018B01040F151FEB01AF
:1005D0005E01AE18BF08C017D10759F06991D60166
:1005E000ED91FC910190F081E02DC6010995892BD8
:1005F00079F7C501DF91CF911F910F91FF90EF9097
:10060000DF90CF90BF90AF900895843081F028F4B0
:100610008230E9F08330F9F00895883071F0893044
:1006200091F08530B9F4809180008F7D03C0809176
:1006300080008F778093800008958091B0008F773D
:100640008093B00008958091B0008F7DF9CF84B57C
:100650008F7784BD089584B58F7DFBCFCF93DF93D3
:10066000282F30E0F901EC55FD4F8491F901E35258
:10067000FC4FD491F901EA53FC4FC491CC23A1F073
:1006800081110E940503EC2FF0E0EE0FFF1FEE54E6
:10069000FC4FA591B491EC91ED2381E090E009F439
:1006A00080E0DF91CF91089580E090E0FACF1F9332
:1006B000CF93DF93282F30E0F901EC55FD4F849163
:1006C000F901E352FC4FD491F901EA53FC4FC49174
:1006D000CC23A9F0162F81110E940503EC2FF0E026
:1006E000EE0FFF1FE454FC4FA591B4918FB7F8941F
:1006F000EC91111108C0D095DE23DC938FBFDF9100
:10070000CF911F910895DE2BF8CF109242031092E3
:10071000410310928B031092AD031092890381E084
:10072000809388031092630361E082E10E94570383
:1007300061E083E10E945703E9EBF0E080818E7F66
:10074000808380818D7F808388E48093B80085E4F6
:100750008093BC0082EA92E09093400380933F0331
:1007600083EA92E090933E0380933D030895CF93F4
:10077000DF9390E0FC01E352FC4F24918A539C4F9D
:10078000FC0184918823C9F090E0880F991FFC0137
:10079000E656FD4FA591B491FC01E454FC4FC59180
:1007A000D49161110DC09FB7F8948C91209582234C
:1007B0008C938881282328839FBFDF91CF91089550
:1007C000623051F49FB7F8943C91822F8095832337
:1007D0008C93E8812E2BEFCF8FB7F894EC912E2BD2
:1007E0002C938FBFEACF8130910539F0880F991F84
:1007F000880F991F05970197F1F708953FB7F8946F
:100800008091D7029091D802A091D902B091DA02DA
:1008100026B5A89B05C02F3F19F00196A11DB11D5B
:100820003FBFBA2FA92F982F8827BC01CD01620F97
:10083000711D811D911D42E0660F771F881F991F52
:100840004A95D1F708958F929F92AF92BF92CF921F
:10085000DF92EF92FF926B017C010E94FE034B013D
:100860005C01C114D104E104F104B9F00E94FE035B
:10087000681979098A099B09683E734081059105C9
:1008800080F321E0C21AD108E108F10888EE880E51
:1008900083E0981EA11CB11CE4CFFF90EF90DF9085
:1008A000CF90BF90AF909F908F9008952FB7F894FE
:1008B0006091D3027091D4028091D5029091D602BA
:1008C0002FBF08950F931F938091BB049091BC0498
:1008D000DC01ED91FC910084F185E02D0995892BD7
:1008E00009F4D7C060E070E0CB010E94230420919E
:1008F000D9048091BB049091BC04DC01ED91FC9182
:100900000284F385E02D21110BC009958093C50465
:100910008E37D1F68091D9048F5F8093D904D4CFDC
:1009200009959091D904E92FF0E0E554FB4F8287B7
:100930009230B9F09930D9F09130A9F48F3F99F005
:100940001092D90481E08093DB041092DE041092AF
:10095000DD048093DF041092E00480E01F910F918A
:100960000895863069F79F5F9093D904ADCF8F3E8D
:1009700039F72091C7048091C604280F3327331F0D
:10098000E091C804C9018E0F911D2091C904280F60
:10099000392F311D4091CA0450E0240F351F80913A
:1009A000CB0490E06091CC0470E0762F6627F09144
:1009B000CD046F0F711D280F391F31952195310915
:1009C0006217730709F0BCCF1092D904E13419F40F
:1009D0001092E0042FC0E093DC04542F4427840FCE
:1009E000951F9093DE048093DD04EA53E63108F00E
:1009F00046C0F0E0E250FB4F0C94002B2B05330572
:100A00003D0514053D051D053B053F053D053D051F
:100A10003D053D053D053D053D053D053F053D05C4
:100A20003D053D053D053D0585E08093DB0481E006
:100A30008093DF048091DF0491CF80FF02C089E0C2
:100A4000F4CF81FF02C084E0F0CF83709927892B17
:100A500089F38AE0EACF80FF02C087E0E6CF81FF1A
:100A6000E9CF82E0E2CF80FF02C088E0DECF81FFE5
:100A7000E1CF83E0DACF86E0D8CF8BE0D6CF81E03C
:100A80008093DB041092DE041092DD048093DF0477
:100A90009FCF8091E004882369F20E945604009160
:100AA000BD041091BE042091BF043091C004601BAE
:100AB000710B820B930B0091C1041091C204209121
:100AC000C3043091C404601771078207930708F4C8
:100AD000B1CF1092D9041092DB041092DE04109270
:100AE000DD0481E036CF8093D204272F30E070936D
:100AF000D4046093D5044091D1049091D004490F5F
:100B00005527551F840F952F911D4091D304840FB5
:100B1000911D820F931F680F792F711D719561953B
:100B200071097093D6046093D704442361F08091D7
:100B3000E004882341F060E070E0CB010E942304D0
:100B40000E946204F4CF8091BB049091BC04DC014C
:100B5000ED91FC910280F381E02D4AE050E06FECD2
:100B600074E009950E9456046093BD047093BE041E
:100B70008093BF049093C0048091D30491E08111CD
:100B800001C090E09093E004811106C06AE070E03B
:100B900080E090E00C9423040895782F8FE00C946B
:100BA0007305CF93C82F61E08CE00E9457036C2F30
:100BB00082E00E94CD0564EF71E080E090E0CF918B
:100BC0000C94230408952091DD023091DE02281751
:100BD000390771F49091DB028091DC02981741F0A3
:100BE000E091DB02F0E0EE56FD4F808190E0089549
:100BF0008FEF9FEF08950895EF92FF920F931F9349
:100C0000CF93DF93DC015C96ED90FC905D97E1144F
:100C1000F10479F481E090E013969C938E931297FF
:100C200090E080E0DF91CF911F910F91FF90EF90C6
:100C300008955196ED91FC91529750968C91509752
:100C4000982F90950FB75E962C915E97122F127089
:100C500021FD6095F8942081112319F1282B208320
:100C6000E7012197F1F728E0462F50E0308160FF3F
:100C70001AC0382B3083E7012197F1F7BA01759537
:100C80006795215089F7112381F080818923808322
:100C90000FBF5C968D919C910197F1F781E090E0F8
:100CA000C1CF2923DCCF3923E5CF9081892BEFCF2A
:100CB0002091DD023091DE022817390771F480910E
:100CC000DC022091DB0290E0805C9F4F821B910947
:100CD00060E470E00E94EC2A089590E080E00895BE
:100CE0002091DD023091DE0228173907B9F4909186
:100CF000DB028091DC02981789F0E091DB02F0E0E2
:100D0000EE56FD4F80812091DB0230E02F5F3F4F98
:100D10002F7333272093DB0290E008958FEF9FEF2E
:100D2000089585ED8093BC008091BC0084FDFCCFCC
:100D300010928903089520916F02260F3327331FE5
:100D400021323105ECF420918903FC0190E080E030
:100D5000243069F082E00895A0916F022191AC01E6
:100D6000415B5D4FA40FB52FB11D2C9301968617E3
:100D700098F380916F02680F60936F0280E008958E
:100D800081E00895E091420380914103E81730F437
:100D9000F0E0ED5BFC4F808190E008958FEF9FEFD6
:100DA000089590914203809141032FEF3FEF9817F0
:100DB00048F4E92FF0E0ED5BFC4F208130E09F5FCD
:100DC00090934203C9010895809141039091420399
:100DD000891B990B0895CF92DF92EF92FF920F93A8
:100DE0001F93CF93DF937C01CB018A0120918A036B
:100DF000222389F0EB016B01C40ED51ECC15DD0555
:100E000069F06991D701ED91FC910190F081E02D9D
:100E1000C7010995F3CF642F0E949B06C801DF919B
:100E2000CF911F910F91FF90EF90DF90CF90089599
:100E3000CF93DF931F92CDB7DEB7698320918A03EA
:100E40002223F9F02091AD03203258F021E030E068
:100E5000FC013383228390E080E00F90DF91CF91FB
:100E6000089580918B03E82FF0E0E457FC4F9981BF
:100E700090838F5F80938B038093AD0381E090E03C
:100E8000ECCF61E0CE0101960E949B06F7CFFC01FA
:100E9000248131E030938A032093AC0310928B03BA
:100EA0001092AD038385682B85E594E00E941807B6
:100EB0000C9438020F931F93CF938C01C62F0E947E
:100EC00047076C2F6460C8010E94470781E090E0EB
:100ED0000E94F3036C2F6B7FC8010E94470782E3D7
:100EE00090E0CF911F910F910C94F3030F931F93F8
:100EF000CF93DF938C01D62FC42F607F642B0E9489
:100F00005A0780E1D89FB00111246C2BC801DF91F2
:100F1000CF911F910F910C945A07CF93DF93CDB7C8
:100F2000DEB728970FB6F894DEBF0FBECDBF98E0AE
:100F3000EFE0F1E0DE01119601900D929A95E1F754
:100F40009091B704961708F46FEF262F30E0220F28
:100F5000331F41E050E04C0F5D1F240F351FF90196
:100F60006081680F606840E08FEA94E028960FB6D1
:100F7000F894DEBF0FBECDBFDF91CF910C94760702
:100F800040E061E08FEA94E00E94760780ED97E010
:100F90000C94F30341E00E94760781E090E008950D
:100FA0000F931F93CF93DF938C01D0E0C0E0F80143
:100FB000EC0FFD1F6491662339F041E08FEA94E065
:100FC0000E9476072196F3CFCE01DF91CF911F913A
:100FD0000F9108951F93CF93DF93EC0181E08093ED
:100FE0008A0388E68093AC0310928B031092AD03C2
:100FF00060E085E594E00E9418072D811AE0822FB9
:10100000612F0E94CC2A682F660F680F660F620F4F
:1010100085E594E00E9418072C81822F612F0E94A1
:10102000CC2A682F660F680F660F620F85E594E083
:101030000E9418072B81822F612F0E94CC2A682FD3
:10104000660F680F660F620F85E594E00E9418072F
:1010500060E085E594E00E9418072A81822F612FC5
:101060000E94CC2A682F660F680F660F620F85E515
:1010700094E00E9418072981822F612F0E94CC2AB8
:10108000682F660F680F660F620F85E594E00E9477
:1010900018072881822F612F0E94CC2A682F660FA3
:1010A000680F660F620F85E594E00E941807DF91D4
:1010B000CF911F910C94380290E080E00895209128
:1010C0001703253009F090F490914E02E92FF0E0DB
:1010D000EF5EFC4F80832F5F209317039F5F953057
:1010E00018F490934E02089510924E02089560E015
:1010F0008CE00E94570370E060E086E10C94730579
:101100000F931F938091F2039091F303A091F40346
:10111000B091F50340911C0350911D0360911E0393
:1011200070911F03481759076A077B071CF100914C
:10113000F6031091F7032091F8033091F903800F23
:10114000911FA21FB31F84179507A607B70794F036
:10115000012B022B032B71F080911903811150C0D8
:1011600081E08093190385E0809332031F910F91F2
:101170000C94C0078091FA039091FB03A091FC03AB
:10118000B091FD03481759076A077B07ECF00091FF
:10119000FE031091FF032091000430910104800FA1
:1011A000911FA21FB31F84179507A607B70764F006
:1011B000012B022B032B41F080911803811120C0D9
:1011C00081E080931803CFCF809132038530C1F442
:1011D00080911803813021F080911903813081F4CE
:1011E00060E08CE00E94570360E08AE00E945703B1
:1011F00010921903109218030E94C0071092320334
:101200001F910F910895909189039111FCCF282F80
:1012100091E090938903909388033FEF3093870385
:1012200010928603380F3093850390936403909156
:101230006403906D9093640390916303913019F56A
:1012400010926303909164039093BB009091BC0053
:1012500093FDF8CF95EC9093BC0090918903913069
:10126000E1F390918603981710F420918603A5E688
:10127000B3E0E3E4F3E080E0821307C0109242039E
:1012800080934103089595EEE6CF9D9191938F5FF2
:10129000F3CFCF92DF92FF920F931F93CF93DF9301
:1012A0006C0181E080938A0388E68093AC031092FE
:1012B0008B031092AD0360E085E594E00E9418076F
:1012C0000E94380287E090E00E94030985E594E0DF
:1012D0000E94D1068F77282F30E094E0359527952E
:1012E0009A95E1F7922F990F990FC22FC91BCC0F36
:1012F000C80F85E594E00E94D1069C0144E0359535
:1013000027954A95E1F72F703327922F990F990F60
:10131000D22FD91BDD0FD80F85E594E00E94D106AE
:101320009C0154E0359527955A95E1F72F703327A6
:10133000922F990F990F122F191B110F180F85E576
:1013400094E00E94D10685E594E00E94D1069C01BC
:1013500064E0359527956A95E1F72F703327922F32
:10136000990F990F022F091B000F080F85E594E0D4
:101370000E94D1069C0174E0359527957A95E1F796
:101380002F703327922F990F990FF22EF91AFF0C15
:10139000F80E85E594E00E94D1069C01E4E03595C5
:1013A0002795EA95E1F72F703327922F990F990F20
:1013B000291B220F820FF6018083F182028313839F
:1013C000D483C583C601DF91CF911F910F91FF9008
:1013D000DF90CF900895CF93DF93EC0188819981BE
:1013E000009711F00E94A92B198218821D821C827D
:1013F0001B821A82DF91CF9108958F929F92AF92B4
:10140000BF920F931F93CF93DF93CDB7DEB7A19712
:101410000FB6F894DEBF0FBECDBF19A2423008F45C
:101420004AE08E010F5D1F4F842E912CB12CA12C10
:10143000A50194010E949B2AE62FB901CA01EA3056
:1014400044F5E05DD801EE938D01232B242B252B51
:1014500079F790E080E0109769F0FD01019000209D
:10146000E9F73197AF014A1B5B0BBD018FEA94E0AE
:101470000E94D802A1960FB6F894DEBF0FBECDBF72
:10148000DF91CF911F910F91BF90AF909F908F9060
:101490000895E95CD7CFCF92DF92EF92FF926C0173
:1014A000990FEE08FF08F7FE16C041E06DE28FEAE3
:1014B00094E00E94760766277727CB016C197D0997
:1014C0008E099F094AE00E94FD090196FF90EF9066
:1014D000DF90CF9008954AE0C701B601FF90EF90EA
:1014E000DF90CF900C94FD09009769F0FC0101900A
:1014F0000020E9F73197AF01481B590BBC018FEA77
:1015000094E00C94D80290E080E008950F931F932C
:10151000CF93DF93EC01CB01009759F46BEE71E0B0
:10152000CE010E940C2DCE01DF91CF911F910F9122
:10153000089520E077FF06C02DE2288391958195DC
:10154000910921E0803137E293070CF5883E33E0C2
:101550009307FCF432E0843691052CF431E08A30B4
:1015600091050CF430E0230FFE01E20FF11D118212
:101570000AE010E0FE01E20FF11DB8010E94EC2A22
:10158000805D8083CB0121500097A1F7CCCF34E060
:10159000EACF33E0E8CFCF93DF93BC01EC010990B1
:1015A0000020E9F72197C81BD90BC03108F588E264
:1015B00094E00E940C2D80E18C1BE7E1F4E090E0C8
:1015C00020E2AF01475154404817590714F42193C2
:1015D000F8CF895E9B4FFC01108267E174E088E2DE
:1015E00094E00E94F82C88E294E0DF91CF91089576
:1015F00041E150E088E294E00E94132DF4CF0F9374
:101600001F93CF93DF93EC018B01FB01019000202E
:10161000E9F73197E61BF70BE03128F5E41718F5E9
:101620004E1B413108F040E1E7E1F4E050E080E397
:101630009F01275134402417350714F48193F8CFC4
:10164000495E5B4FFA01108267E174E0CE010E94AF
:101650000C2DB801CE010E94F82CCE01DF91CF9164
:101660001F910F91089550E04F5F5F4FB801CE0179
:101670000E94132DF2CF4EE450E070E060E084EB66
:1016800093E00C941A2A0F931F93CF93DF93EC01EE
:1016900088819981009759F02A813B812617370765
:1016A00030F081E0DF91CF911F910F9108958B0170
:1016B0006F5F7F4F0E94322C009759F09983888387
:1016C0001B830A832C813D81232B59F7FC01108257
:1016D000E8CF80E0E7CFEF92FF920F931F93CF9375
:1016E000DF93EC01FB01E080F180E114F10411F1E2
:1016F0000481158101151105A9F08C819D81080FC8
:10170000191FB801CE010E94430B882399F028814C
:1017100039818C819D81B701820F931F0E940C2D0E
:101720001D830C83CE01DF91CF911F910F91FF900C
:10173000EF900895CE010E94EB09F4CFEF92FF9253
:101740000F931F93CF93DF93EC017B0119821882D3
:101750001B821A821D821C82FB0101900020E9F786
:1017600031978F01061B170BB8010E94430B8111A3
:1017700009C0CE01DF91CF911F910F91FF90EF90A3
:101780000C94EB091D830C83B70188819981DF914B
:10179000CF911F910F91FF90EF900C940C2D6F92B1
:1017A0007F928F929F92AF92BF92CF92DF92EF92F1
:1017B000FF920F931F93CF93DF93CDB7DEB7E988E6
:1017C000FA88FE017496D12CC12C712CAB88B12CF7
:1017D00080E1682E872D90E0CA14DB042CF52FE001
:1017E000271510F14F0122E0820E911C608171815A
:1017F000FB0101900020E9F731978F01061B170BC1
:101800009C01200F311D462D4719213131050CF463
:10181000402F50E08E0D9F1D0E94132D700E8FEFF4
:10182000C81AD80AF401D6CF8E0D9F1DFC01108274
:10183000C701DF91CF911F910F91FF90EF90DF9043
:10184000CF90BF90AF909F908F907F906F900895B2
:10185000CF92DF92EF92FF920F931F93CF93DF937C
:10186000CDB7DEB760970FB6F894DEBF0FBECDBF21
:10187000188A1F862AE32F872CE330E040E050E0EF
:101880000E94322A6B01B901CE0101960E94860A9C
:101890008E01045F1F4F42E0BE016F5F7F4FC801A2
:1018A0000E94FF0AB601CE0101960E94860A7E01BF
:1018B00089E0E80EF11C42E0BE016F5F7F4FC70177
:1018C0000E94FF0AFF92EF92CE010F969F938F9393
:1018D0001F930F9383E08F9386E094E09F938F9301
:1018E0000E94CF0B0FB6F894DEBF0FBECDBF86E0CF
:1018F00094E060960FB6F894DEBF0FBECDBFDF91C7
:10190000CF911F910F91FF90EF90DF90CF900895AE
:101910008F929F92AF92BF92CF92DF92EF92FF92FF
:101920000F931F93CF93DF93CDB7DEB760970FB6BA
:10193000F894DEBF0FBECDBF188A1F862AE32F871B
:101940002CE330E040E050E00E94322A4B01790164
:101950002D30310514F02C503109B901CE0101961A
:101960000E94860A8E01045F1F4F42E0BE016F5F36
:101970007F4FC8010E94FF0AB401CE0101960E9468
:10198000860A6E0199E0C90ED11C42E0BE016F5F6C
:101990007F4FC6010E94FF0A8CE0E816F10474F53F
:1019A00086E791E09F938F93DF92CF92CE010F96BF
:1019B0009F938F931F930F9384E08F9386E094E01F
:1019C0009F938F930E94CF0B0FB6F894DEBF0FBE8C
:1019D000CDBF86E094E060960FB6F894DEBF0FBEF0
:1019E000CDBFDF91CF911F910F91FF90EF90DF90CE
:1019F000CF90BF90AF909F908F9008958FE691E029
:101A0000D1CFCF92DF92EF92FF920F931F93CF939C
:101A1000DF93CDB7DEB765970FB6F894DEBF0FBE84
:101A2000CDBF82508D3108F0C2C1E82FF0E0E55EF5
:101A3000F24F0C94002B380D9E0DD70EB50DE40D12
:101A4000000ED70E0D0E3B0ED70E160E470ED70EFC
:101A5000500E5D0E6B0E8D0ED40ED70E920E9B0E99
:101A6000D70EA40EAD0EB80EC10ED70ECF0ECA0EF5
:101A70001D8A1C8A8FE28C8B6091B2037091B30334
:101A8000CE0101960E94860A8E010F5E1F4F42E032
:101A9000BE016F5F7F4FC8010E94FF0A6091B003D3
:101AA0007091B103CE0101960E94860A7E018EE0FC
:101AB000E80EF11C42E0BE016F5F7F4FC7010E943C
:101AC000FF0A6091AE037091AF03CE0101960E94B0
:101AD000860A6E0199E0C90ED11C44E0BE016F5F19
:101AE0007F4FC6010E94FF0ADF92CF92CE0144963B
:101AF0009F938F93FF92EF929F938F931F930F93D8
:101B000085E08F9386E094E09F938F930E94CF0BA4
:101B10000FB6F894DEBF0FBECDBF86E094E06596A9
:101B20000FB6F894DEBF0FBECDBFDF91CF911F91EE
:101B30000F91FF90EF90DF90CF900895A091040453
:101B4000B09105042CE330E00E94062B00910204C2
:101B500010910304012E000C220B330B600F711F38
:101B6000821F931F0E94880CD8CF6091C30370918D
:101B7000C4036D30710514F06C507109CE010196EB
:101B80000E94860A8E01075F1F4F42E0BE016F5F11
:101B90007F4FC8010E94FF0A8091C3039091C40344
:101BA0000C971CF483E791E002C08CE691E09F93D0
:101BB0008F931F930F9382E08F9386E094E09F931F
:101BC0008F930E94CF0BA4CF6091C5037091C60381
:101BD0006D30710514F06C507109CE0101960E94B0
:101BE000860A8E01075F1F4F42E0BE016F5F7F4F85
:101BF000C8010E94FF0A8091C5039091C603D0CF0F
:101C00006091CE037091CF03CE0101960E94860AA7
:101C10002EE731E03F932F9340C06091C90370914C
:101C2000CA03CE0101960E94860A2BC000910301CF
:101C300010910401B8010D30110514F06C507109B8
:101C4000CE0101960E94860A7E0199E0E90EF11C00
:101C500042E0BE016F5F7F4FC7010E94FF0A83E72A
:101C600091E00C30110514F08CE691E09F938F9376
:101C7000FF92EF92A0CF8091CD03882329F083E1DA
:101C800092E09F938F933BC08AE791E0FACF85E87B
:101C900091E09F938F938DE891E09F938F938BCFEB
:101CA0006091D6037091D7036330710509F086C047
:101CB0002FE931E08AE791E0ADCF6091DA037091CE
:101CC000DB0363307105A1F3CE0101960E94860A01
:101CD0002FE631E09FCF6091DE037091DF03CE01EC
:101CE00001960E94860A8E01075F1F4F43E0BE01E6
:101CF0006F5F7F4FC8010E94FF0A1F930F9381E01F
:101D00008F9386E094E09F938F930E94CF0B0F9068
:101D10000F900F900F900F9000CF6091E0037091A3
:101D2000E103DDCF6091E2037091E3038091E4036E
:101D30009091E50317CF6091E6037091E7038091DE
:101D4000E8039091E9030ECF6091F2037091F303E1
:101D50008091F4039091F50305CF6091F6037091A3
:101D6000F7038091F8039091F9030E94280CD5CED7
:101D70006091FA037091FB038091FC039091FD0345
:101D8000F1CE6091FE037091FF0380910004909169
:101D90000104EBCF6091D4037091D50342CF6091E1
:101DA000D2037091D3033DCF10920604B6CE66E302
:101DB00071E086E094E00E940C2DAFCECE0101963A
:101DC0000E94860A26E731E025CF6F927F929F928C
:101DD000AF92BF92CF92DF92EF92FF920F931F9339
:101DE000CF93DF93CDB7DEB7A3970FB6F894DEBFDE
:101DF0000FBECDBFCE0109960E9449096C856623AE
:101E000009F4E4C06C3011F008F06C5070E0CE01C1
:101E100001960E94860A8E01085E1F4F42E0BE01B5
:101E20006F5F7F4FC8010E94FF0ACE0109960E9492
:101E300049096D8570E0CE0101960E94860A7E01F7
:101E40002BE1E20EF11C42E0BE016F5F7F4FC70144
:101E50000E94FF0ACE0109960E9449096E8570E032
:101E6000CE0101960E94860A6E013EE1C30ED11C8E
:101E700042E0BE016F5F7F4FC6010E94FF0A60E033
:101E800080E00E948D07CE0109960E9449098C8549
:101E90008C3008F09DC089E991E09F938F93DF9289
:101EA000CF9280EA91E09F938F93FF92EF929F935E
:101EB0008F931F930F938DE9E82E81E0F82EFF9208
:101EC000EF9297E0992E9F9208E214E01F930F93F0
:101ED0000E94CF0B0E94740ACE0109960E94490904
:101EE0006B8570E0CE0101960E94860A6E0181E248
:101EF000C80ED11C42E0BE016F5F7F4FC6010E9439
:101F0000FF0ACE0109960E944909698570E0605375
:101F1000784FCE0101960E94860A3E012FE0620EA4
:101F2000711C44E0BE016F5F7F4FC3010E94FF0A36
:101F3000CE0109960E9449098A858150990B26E0B5
:101F4000289FF001299FF00D1124EF59FB4F60816C
:101F500071815E0134E1A30EB11CC5010E940C2DFC
:101F600061E080E00E948D078CE991E09F938F9360
:101F70007F926F9282EA91E09F938F93BF92AF928C
:101F80009F938F93DF92CF92FF92EF929F921F9336
:101F90000F930E94CF0B0FB6F894DEBF0FBECDBFDC
:101FA0000E94740AA3960FB6F894DEBF0FBECDBF91
:101FB000DF91CF911F910F91FF90EF90DF90CF9025
:101FC000BF90AF909F907F906F9008956CE01ECF70
:101FD00082E991E062CFCF92DF92EF92FF92E0919F
:101FE0001B03E93008F5F0E0E850F04F0C94002BAB
:101FF000011019102B103D104F1064109910EC10A7
:10200000F41084E00E942E03892B71F070E060E0F0
:1020100082E10E94730568EE73E080E090E00E9428
:10202000230481E080931B03FF90EF90DF90CF901B
:10203000089584E00E942E03892BB1F36091AC04D3
:1020400081E00E94CD0568EE73E080E090E00E94A0
:10205000230482E0E7CF84E00E942E03892B21F342
:102060006091AA048FE20E94CD0568EE73E080E0E3
:1020700090E00E94230483E0D5CF84E00E942E03E9
:10208000892B91F26091AB0480E30E94CD0568EE4C
:1020900073E080E090E00E94230484E0C3CF84E0FA
:1020A0000E942E03892B09F4BFCF0E94A40261E095
:1020B000680F81E30E94CD0568EE73E080E090E058
:1020C0000E94230485E0AECF84E00E942E03892B7A
:1020D00009F4AACF8091AC04863019F08D7F883046
:1020E000C9F48091A90490E08053984F2091D203C5
:1020F0003091D3032817390779F48091AA046091AD
:10210000AB048E5C0E94CD0568EE73E080E090E049
:102110000E94230486E086CF215031092817390711
:10212000C9F78091AA048C30A9F76091AB0482E3CF
:10213000E9CF84E00E942E03892B09F475CF20910A
:10214000D6033091D7038091AC0490E0281739076B
:1021500019F423303105A9F52091DA033091DB031E
:10216000A901445F5F4F84179507C1F1C090CE036A
:10217000D090CF030D2C000CEE08FF0861E070E05A
:1021800080E090E082E0C816D104E104F10474F02C
:102190000E947629A7019601215031094109510970
:1021A0000E94322A6F5F7F4F8F4F9F4F82E10E94C4
:1021B000730568EE73E080E090E00E94230487E0FE
:1021C00031CF6091DE0382E00E94CD0568EE73E0BE
:1021D00080E090E00E94230488E024CF2330310582
:1021E00029F26091E003EFCF84E00E942E03892B57
:1021F00009F41ACF10921B030E94C00710923203F9
:102200000E945604609338037093390380933A0315
:1022100090933B0360E08CE0FF90EF90DF90CF90D5
:102220000C9457031F93CF93DF93CDB7DEB761971D
:102230000FB6F894DEBF0FBECDBF0E949502182FD7
:1022400060E080E00E948D070E94260290913F048A
:10225000E0913C04F0913D04882349F186E0989F89
:10226000E00DF11D1124319665917491CE01019616
:102270000E94CE290E94CB0A8EE78093370488E221
:1022800094E00E94740A8BEE810F61E0823020F0AE
:10229000812F8D7F883131F580E00E948D078EE996
:1022A00091E00E94740A812F0E94010D20C086E0F7
:1022B000989FE00DF11D1124319665917491CE0126
:1022C00001960E94CE290E94CB0A0E949502182FE7
:1022D00081111BC08FE78093370488E294E00E944D
:1022E000740A61E080E00E948D0781E291E00E9423
:1022F000CB0A0E94740A61960FB6F894DEBF0FBE37
:10230000CDBFDF91CF911F91089588E294E00E94A4
:10231000740A61E0C1CF1F920F920FB60F92112481
:102320002F933F938F939F93AF93BF938091D3024B
:102330009091D402A091D502B091D6023091D202F0
:1023400023E0230F2D3768F126E8230F0296A11D05
:10235000B11D2093D2028093D3029093D402A09314
:10236000D502B093D6028091D7029091D802A09165
:10237000D902B091DA020196A11DB11D8093D70256
:102380009093D802A093D902B093DA02BF91AF9193
:102390009F918F913F912F910F900FBE0F901F90A3
:1023A00018950196A11DB11DD4CF1F920F920FB6A3
:1023B0000F9211242F933F934F935F936F937F93CB
:1023C0008F939F93AF93BF93EF93FF93E091DD02C1
:1023D000F091DE02309749F0A685B7858585968D08
:1023E00091FF14C09C918923A1F4FF91EF91BF91BB
:1023F000AF919F918F917F916F915F914F913F919D
:102400002F910F900FBE0F901F9018959C918923CC
:1024100061F7A389B4899C918589809589238C93E0
:10242000868997890197F1F7608D718DA685B785AB
:10243000558538E020E0CB010197F1F7822F90E03D
:1024400095958795282F4C91452309F020683150A8
:1024500091F7868D81FD20958091DC0290E00196B8
:102460008F7399273091DB02381799F0A091DC0225
:10247000B0E0AE56BD4F2C938093DC02828D938DDD
:102480000197F1F7A389B4898C919589892B8C9355
:10249000ACCF868D8160868FF1CF1F920F920FB6E1
:1024A0000F9211242F933F934F935F936F937F93DA
:1024B0008F939F93AF93BF93EF93FF938091B90056
:1024C000887F803609F44AC0F0F5883209F4A7C045
:1024D00018F5803109F49BC0B8F4882309F4F9C0D9
:1024E000883009F494C0FF91EF91BF91AF919F9113
:1024F0008F917F916F915F914F913F912F910F90AD
:102500000FBE0F901F901895883109F488C0803253
:1025100051F78093870314C0803409F49DC040F4C0
:102520008033B9F38833F9F68093870385ECB0C024
:10253000803509F485C0883509F496C0883499F649
:102540000E949106D0CF883909F48CC038F58837BD
:1025500029F050F4883611F0803729F683E0809313
:1025600089031092910257C0883809F47BC08039E2
:1025700019F0803809F0B7CF80919102803208F0CD
:1025800071C0E091910281E08E0F80939102809161
:10259000BB00F0E0EF58FD4F80833DC0803B39F039
:1025A000E0F4803A09F479C0883A09F09CCF84E0DD
:1025B000809389031092700210926F02E0913F03A2
:1025C000F0914003099580916F0281110FC081E065
:1025D00080936F0210924F0209C0803C09F4A6CF8D
:1025E000883C09F4A3CF883B09F07DCFE0917002CD
:1025F00081E08E0F80937002F0E0E15BFD4F8081FF
:102600008093BB009091700280916F0229C08091ED
:1026100064038093BB0085EC8093BC0064CF9091F1
:10262000860380918503981758F5E091860381E031
:102630008E0F80938603F0E0EB59FC4F8081E9CF49
:10264000E091860381E08E0F809386038091BB002A
:10265000F0E0EB59FC4F80839091860380918503D5
:102660009817C8F285E8D8CFE091860381E08E0FF5
:10267000809386038091BB00F0E0EB59FC4F808390
:102680008091880381115CCF81E08093630384EAA9
:102690008093BC001092890326CF85EC8093BC0008
:1026A0001092890380919102803230F4E09191027E
:1026B000F0E0EF58FD4F10826091910270E0E091E0
:1026C0003D03F0913E0381E792E00995109291025B
:1026D0000ACF1092870334CF1092580410925704F7
:1026E00088EE93E0A0E0B0E08093590490935A0400
:1026F000A0935B04B0935C0420E431E03093560473
:10270000209355041092E4041092E3048093E504AE
:102710009093E604A093E704B093E8048EE591E07B
:102720009093E2048093E1041092F8041092F7046D
:102730001092FA041092F9041092FC041092FB0417
:102740001092FE041092FD046091FF046E7F6D7F75
:102750006093FF046695617081E0682783E00E94C2
:10276000570361E083E00E94B703E0EEF3E0E491F9
:10277000E093F104E9ECF3E0E491F0E0EE0FFF1FE9
:10278000E454FC4F859194919093F3048093F20468
:1027900060E082E00E94B7038091FF0481FD04C0E5
:1027A00061E082E00E94570382E08093ED04EFED48
:1027B000F3E0E491E093EE04E8ECF3E0E491F0E080
:1027C000EE0FFF1FEE54FC4F259134913093F0042F
:1027D0002093EF0444EF51E060E070E04093C104C7
:1027E0005093C2046093C3047093C4049AE0E7E179
:1027F000F1E0AFECB4E001900D929A95E1F7109200
:10280000D9048093DA041092DF041092E00410924D
:10281000B2041092B10422E531E03093B004209369
:10282000AF0497E29093B30490E19093B80480933F
:10283000B9041092BA041092AE041092AD04109232
:10284000AC041092A904E7EAF3E081E08C3051F087
:102850009491823009F49F5F21E0280F31969923EB
:1028600009F44DC08093AA0481E08093AB0464EA2C
:1028700071E081E694E00E949E0B68EA71E087E6D1
:1028800094E00E949E0B6CEA71E08DE694E00E9459
:102890009E0B60EB71E083E794E00E949E0B64EB7B
:1028A00071E089E794E00E949E0B68EB71E08FE78E
:1028B00094E00E949E0B6CEB71E085E894E00E942E
:1028C0009E0B60EC71E08BE894E00E949E0B64EC40
:1028D00071E081E994E00E949E0B68EC71E087E969
:1028E00094E00E949E0B6CEC71E08DE994E00E94F4
:1028F0009E0B60ED71E083EA94E00C949E0B822FB6
:10290000A5CFCF93DF93CDB7DEB7AA970FB6F894D4
:10291000DEBF0FBECDBF789484B5836084BD85B51E
:10292000836085BD80916E00816080936E0082E03F
:1029300080938100809181008160809381008091EB
:1029400080008160809380008091B10084608093DA
:10295000B1008091B00081608093B00087E88093DF
:102960007A001092C10080E480937C0080917A000C
:10297000806480937A0080917A0086FDFCCF8091FC
:10298000780060917900762F682F072E000C880B55
:10299000990B611571058105910511F00E94C529FA
:1029A00061E08CE00E94B70361E08AE00E94B70317
:1029B00061E08FE00E94B70361E08EE00E94B70300
:1029C00061E08BE00E94B70362E084E00E94B703FD
:1029D00062E085E00E94B70362E086E00E94B703F0
:1029E00062E087E00E94B70362E088E00E94B703DC
:1029F00062E080E10E94B7030E9485034EE450E04C
:102A000070E060E084EB93E00E940A2A67E271E0E4
:102A100084EB93E00E94032D892B09F4AAC067E29E
:102A200071E084EB93E00E940C2D84E690E090939B
:102A3000CF038093CE039093D1038093D00385E09E
:102A400090E09093C4038093C30386E190E0909359
:102A5000C6038093C50384E190E09093C8038093FC
:102A6000C7039093CA038093C90383E090E09093D7
:102A7000D7038093D6039093D9038093D803909380
:102A8000DD038093DC039093DB038093DA0381E022
:102A900090E09093DF038093DE0382E090E09093D8
:102AA000E1038093E00387E394E0A0E0B0E080934B
:102AB000E2039093E303A093E403B093E50387E676
:102AC00091E0A0E0B0E08093E6039093E703A09349
:102AD000E803B093E9031092EA031092EB0310921B
:102AE000EC031092ED031092EE031092EF0310929C
:102AF000F0031092F1038CE291E0A0E0B0E080934B
:102B0000F2039093F303A093F403B093F50383E7E8
:102B100090E0A0E0B0E08093F6039093F703A093D9
:102B2000F803B093F9034CEF53E060E070E040939A
:102B3000FA035093FB036093FC037093FD038093AF
:102B4000FE039093FF03A0930004B093010410923E
:102B5000CB031092CC031092CD038CEC90E09093B9
:102B6000D5038093D40386EE97E09093D3038093AC
:102B7000D2030E9485031092B4048091B90482307C
:102B800018F098E09093B4048093B70462E370E087
:102B900080E090E00E9423046091BA048FEA94E000
:102BA0000E94470768EE73E080E090E00E942304F3
:102BB00060E38FEA94E00E945A0784E991E10E9461
:102BC000F30360E38FEA94E00E945A0784E991E1FD
:102BD0000E94F30360E38FEA94E00E945A0786E9BB
:102BE00090E00E94F30360E28FEA94E00E945A07AB
:102BF0006091B404606240E08FEA94E00E9476073E
:102C000084E08093B50440E06CE08FEA94E00E9499
:102C100076070E94C00762E0D62ED092B60440E04C
:102C200066E08FEA94E00E94760740E062E08FEA77
:102C300094E00E94760780ED97E00E94F30388E01D
:102C40008093BA0460E08FEA94E00E94470760E056
:102C500085E00E948D0785E393E00E94D00761E044
:102C600080E00E948D0784E293E00E94D00760ED2F
:102C700077E080E090E00E9423040E94C00760E0BB
:102C800080E00E948D076091D2037091D3039E0172
:102C90002F5F3F4F3901C9010E94860A7F926F92D0
:102CA00084ED91E09F938F93DF9208E214E01F93ED
:102CB0000F930E94CF0B0E94740A61E080E00E9493
:102CC0008D076091D4037091D503C3010E94860AD9
:102CD0007F926F928FED91E09F938F93DF921F937E
:102CE0000F930E94CF0B0E94740A60ED77E080E0A2
:102CF00090E00E9423040E94C00760E083E00E94ED
:102D00008D078DEE91E00E94740A85E00E942E03EB
:102D10000FB6F894DEBF0FBECDBF892B09F006C1F8
:102D200061E080E00E948D0788EF91E00E94740AC4
:102D300081E08093DF0211E008E60E948503109392
:102D40008A030093AC0310928B031092AD030E9490
:102D50003802F82E8111EDC010938A0310928B0374
:102D60001092AD0360E085E594E00E9418070E9490
:102D7000380281E090E00E94030985E594E00E941A
:102D8000D10687FF0EC00E94C00786E193E00E9433
:102D9000D00760ED77E080E090E00E94230410937C
:102DA000DF0288E00E942E03892B09F412C11092E1
:102DB000FC041092FB041092FA041092F904109291
:102DC000F8041092F7048DE991E09093FE0480934B
:102DD000FD048091ED04873108F04BC02DEB30E00D
:102DE0003093F8042093F7042BE931E03093FA0490
:102DF0002093F9042CE231E03093FC042093FB048F
:102E00002091680094E0883054F091E08E303CF0DE
:102E100092E0843124F091E0863109F490E0922B25
:102E2000909368002DE630E0883074F08E300CF41A
:102E300087C084313CF086310CF482C030E020E061
:102E4000863111F42CE630E03093F5042093F4043D
:102E500088300CF078C0FF24F39401C0FF0C8A95F1
:102E6000EAF7F092F6048091FD049091FE04019738
:102E7000F1F78091FB049091FC04892B49F1E091DA
:102E8000DD02F091DE02B4E0E13EFB0709F130978C
:102E900039F0A389B4899C918589809589238C9385
:102EA0008091FF048E7F8093FF041092DC021092C9
:102EB000DB0281EE94E09093DE028093DD02E091EC
:102EC000F404F091F50480819091F604892B8083BD
:102ED00064EF71E080E090E00E94230401EE14E0D2
:102EE000DD24D3941093BC040093BB04D092D3048C
:102EF00070E060E08CE00E9473050E9456044B0174
:102F00005C010E94620481112CC00E945604681961
:102F100079098A099B09613D77408105910508F58A
:102F200060E070E0CB010E942304EBCF1092DF023F
:102F300002CF0E94C0078DE193E00E94D007FDCE32
:102F40002BE630E081CF8E3014F4885084CF863168
:102F500014F48E5080CF863109F083CF50E4F52EE3
:102F600080CF68EC70E080E090E00E942304109233
:102F7000DF048091DB04843069F0893059F00E94CD
:102F8000C00760E080E00E948D078FE093E00E9420
:102F9000D007A8CF84EF91E0A0E0B0E08093C10417
:102FA0009093C204A093C304B093C4046091C90376
:102FB0007091CA03772786E00E94730562E070E093
:102FC00089E00E94730568EC70E080E090E00E9468
:102FD00023040E94C0070E94560460933803709334
:102FE000390380933A0390933B038091DF02882357
:102FF00009F4C7C12BEE32E030933A042093390430
:1030000086E080933B0430933D0420933C048093FE
:103010003E0410923F041092540486E00E942E0356
:10302000892BF1F487E00E942E03892BC9F42BEB46
:1030300032E030933A042093390483E080933B04D8
:1030400030933D0420933C0480933E0410923F044F
:103050001092540481E08093320383E00E941211A5
:1030600085E00E942E03892B09F493C1109224035A
:1030700044E6242E312C0E945604C0900D03D090BB
:103080000E03E0900F03F09010036C197D098E0978
:103090009F09643171058105910508F49FC00E9464
:1030A000560460930D0370930E0380930F03909367
:1030B000100385E00E942E037C0186E00E942E030F
:1030C00001E0892B21F0EF2809F400E0019587E069
:1030D0000E942E03892B09F402E088E00E942E034F
:1030E000892B09F403E080E10E942E03892B09F467
:1030F00004E080EEC82E82E0D82E94EFE92E92E014
:10310000F92E22E2822E21E0922E38E0A32E33E027
:10311000B32E11E0412C411046C1D4018C91801393
:1031200042C14424439455245394F50181915F0195
:103130008515B1F0552009F438C1812F0E945F0830
:103140000E945604D7016D937D938D939C931397A2
:10315000F6016083718382839383F50131975082F6
:10316000552079F10E945604F70120813181428176
:103170005381621B730B840B950B613D7740810576
:103180009105F8F00E945604D6012D913D914D9184
:103190005C91621B730B840B950B6B3F7105810572
:1031A000910578F08A2DE8E0F3E08E1B80680E949C
:1031B0005F080E945604D6016D937D938D939C9376
:1031C00013971F5FB4E0CB0ED11CE4E0EE0EF11CB0
:1031D000FFEF8F1A9F0A163009F09DCF90911703C9
:1031E00019160CF4FAC010923C0380913C0383380A
:1031F00019F58091330381111FC08091CC03811197
:1032000050C181E08093CC0361E080E00E948D0793
:1032100084E793E00E94D0076091CC038FE00E9486
:10322000570368EE73E080E090E00E9423040E9460
:103230003B0B81E08093330310913C0300913203F8
:103240008EE3810F843008F035C1109233030E9461
:1032500056048090380390903903A0903A03B090C0
:103260003B03681979098A099B096D327140810510
:10327000910540F0109231031092300310922E030A
:1032800010922D030E9456048090290390902A03E7
:10329000A0902B03B0902C03681979098A099B0927
:1032A000653F71408105910508F44EC08091CC03C3
:1032B000882309F449C00E9456046093290370933F
:1032C0002A0380932B0390932C038090E203909029
:1032D000E303A090E403B090E50381149104A104FA
:1032E000B10491F14091E6035091E7036091E80346
:1032F0007091E903411551056105710529F180912E
:103300001C0390911D03A0911E03B0911F032091F7
:103310002F0384169506A606B7060CF0FBC0881589
:103320009905AA05BB050CF4EBC084179507A60701
:10333000B7070CF0E5C0211107C061E08BE00E94E7
:10334000570381E080932F036091CC038FE00E94AC
:1033500057036091CB038EE00E945703023009F4BB
:103360008FC508F0DEC0002309F467C1013009F4FD
:1033700000C480E090E0892B09F47DCE0E9400001B
:1033800077CE2DEC32E030933A042093390485E077
:1033900038CE88E00E942E03892B09F067CE81E0A9
:1033A0008093240365CE512CC0CE0E945604D701D1
:1033B0002D913D914D915C91621B730B840B950B8C
:1033C000613D77408105910528F0812F806C0E9436
:1033D0005F08C3CE812F8064FACF80911603E82F57
:1033E000F0E0EF5EFC4F10819150909317038F5FD8
:1033F000853008F04AC08093160310933C031123D4
:1034000009F41ACF0E94560460933803709339036D
:1034100080933A0390933B030E94560460933403D5
:1034200070933503809336039093370388E080933D
:10343000BA0460E08FEA94E00E944707123809F06E
:10344000D4CE809133038111F7CE8091CB038111CB
:103450001FC081E08093CB0361E080E00E948D0774
:1034600086E993E00E94D0076091CB038EE00E9432
:10347000570368EE73E080E090E00E9423040E940E
:103480003B0B81E080933303B0CE10921603B5CF8F
:103490001092CB0361E080E00E948D0785E893E005
:1034A000E1CF1092CC0361E080E00E948D0783E6BB
:1034B00093E0B0CE133009F0CACE002319F00530E6
:1034C00009F0C5CE8091300390913103019690931D
:1034D00031038093300302970CF4B9CE8BE00E9445
:1034E0002E0361E0892B09F060E08BE00E94570316
:1034F00081E090912F03911180E080932F03A7CE5C
:10350000213009F021CF60E08BE00E945703109238
:103510002F031ACF88159905AA05BB050CF00BCF10
:1035200004CF043009F445C208F40CC2053009F098
:1035300020CF61E08CE00E94570361E08AE00E94A6
:1035400057030E945604C0902003D0902103E090BE
:103550002203F09023036C197D098E099F09693EAF
:1035600073408105910568F10E9456046093200321
:103570007093210380932203909323030E94E50E0E
:10358000C3010E944909EC803CE3E39E70011124D1
:10359000CE0143960E9449098F898E0D9F2D911D62
:1035A000092E000CAA0BBB0B80931C0390931D03E8
:1035B000A0931E03B0931F038091CB0381110E943F
:1035C00080080E945604009138031091390320911D
:1035D0003A0330913B036B017C01C01AD10AE20A25
:1035E000F30AA091C703B091C80328EE33E00E940C
:1035F000062B6C157D058E059F0538F41092BA04D4
:1036000060E08FEA94E00E94470761E080E00E945A
:103610008D0781E493E00E94D00780913C038538B8
:1036200009F0A7CE809133038111A3CE109232030B
:1036300010921903109218034CC160E08CE00E94B4
:10364000570360E08AE00E945703113881F481E05B
:103650008093320383E00E9412110E94560460930B
:10366000340370933503809336039093370380912E
:103670003C03813011F580912D0390912E0301962A
:1036800090932E0380932D030497BCF0C3010E94F6
:1036900049098D818F3108F422C1CE0143960E94E1
:1036A00049098E8990E0019690930401809303016B
:1036B00084E0809332030E94C007C3010E9449093D
:1036C0008D8181115AC0CE0143960E944909888D8F
:1036D000811153C00E945604AB01BC0180912503A7
:1036E00090912603A0912703B0912803885B914114
:1036F000AF4FBF4F84179507A607B707F0F5C30173
:103700000E94490986E0F301A9EAB4E001900D9214
:103710008A95E1F78091AC0490E02091C303309149
:10372000C403821793074CF12091C5033091C6035F
:103730002817390714F18091CD03882309F4D6C0E6
:103740000E94A402882309F4D1C08091AC048A505D
:10375000873008F0CBC00E94C00760E080E00E9484
:103760008D0785E092E00E94740A68EE73E080E0C5
:1037700090E00E9423040E94C00780913C038230A5
:10378000C1F5809124038823A1F10E945604685555
:1037900075418140910960932503709326038093BE
:1037A000270390932803C3010E9449098D818E311C
:1037B00008F0AEC0CE0143960E944909FE88CE01B2
:1037C00049960E944909EB8CCE014F960E94490907
:1037D000D8A0CE0185960E9449098DA18983DA82FD
:1037E000EB82FC828DE18D8387E38E83C3010E948F
:1037F000EA070E945604C0902003D0902103E09075
:103800002203F09023036C197D098E099F09693EFC
:1038100073408105910568F10E945604609320036E
:103820007093210380932203909323030E94E50E5B
:10383000C3010E944909EC80BCE3EB9E7001112496
:10384000CE0143960E9449098F898E0D9F2D911DAF
:10385000092E000CAA0BBB0B80931C0390931D0335
:10386000A0931E03B0931F038091CB0381110E948C
:1038700080080E945604009138031091390320916A
:103880003A0330913B036B017C01C01AD10AE20A72
:10389000F30AA091C703B091C80328EE33E00E9459
:1038A000062B6C157D058E059F0538F41092BA0421
:1038B00060E08FEA94E00E94470780913C038538DE
:1038C00009F057CD80913303811153CD85E080936A
:1038D00032030E94C00781E0809333034ACDCE01BA
:1038E00049960E9449098C8D90E0DECE61E08CE023
:1038F0000E9457030E945604609325037093260389
:10390000809327039093280383E08093320333CF7F
:10391000CE0143960E944909FE88CE0149960E9435
:103920004909EB8CCE014F960E944909D8A0CE01DF
:1039300085960E9449098DA18983DA82EB82FC82F7
:103940008BE351CF88E08093BA0460E08FEA94E083
:103950000E94470761E080E00E948D0786E192E0C7
:103960000E94740A0E945604AB01BC018091250399
:1039700090912603A0912703B091280388579C4E6D
:10398000AF4FBF4F481759076A077B0710F00E94D7
:10399000EB0F80913C03843409F0EBCC809124033D
:1039A000882309F4E6CC70E060E086E10E947305AC
:1039B000E0CC60E080E00E948D0782E593E00E9409
:1039C000D00761E080E00E948D07E0900301F09055
:1039D000040160E771E0ECE0EE16F10414F467E72F
:1039E00071E0CE0143960E949E0BFDE0EF16F104BC
:1039F0001CF02CE0E21AF1081A8E198E1C8E1B8E18
:103A00001E8E1D8E4AE0B301C7010E94D529F30125
:103A100001900020E9F731977F01E618F708B70118
:103A2000CE0149960E94430B81118DC0CE0149966B
:103A30000E94EB0967E272E0C3010E949E0BBE0187
:103A4000675E7F4FC3010E946B0BBE016D5E7F4FAF
:103A50000E946B0BDC0114964D915C9115976D9152
:103A60007C918FEA94E00E94D80289819A810E9419
:103A7000A92B898D9A8D0E94A92B8B899C890E94E4
:103A8000A92B61E08CE00E945703F0900301C30171
:103A90000E944909EB80CE0143960E944909DC88C7
:103AA000CE0149960E944909898D8093A904D0923C
:103AB000AA04E092AB04F092AC041092AD04109210
:103AC000AE040E94EB0F80913C03833041F488E008
:103AD00080931B0370E060E086E10E947305809193
:103AE0003C038F778230B9F58091C9039091CA0366
:103AF00001968F31910514F08AE090E09093CA030B
:103B00008093C9030E943B0B0E94C00761E080E0E4
:103B10000E948D0784E392E00E94740A8091C90399
:103B20009091CA030E944B0A6091C9037091CA0325
:103B3000772786E00E94730564E670E080E090E0FD
:103B40000E94230416CCFE8EED8EB301898D9A8DD2
:103B50000E940C2D6FCF833009F00BCC8091C903EC
:103B60009091CA0301978A30910544F68EE190E066
:103B7000C5CF0E945604C0903403D0903503E09026
:103B80003603F09037036C197D098E099F09613364
:103B9000754781059105D8F084E00E942E03892B9A
:103BA00011F40E9477088091390490913A0490931F
:103BB0003D0480933C0480913B0480933E0410922A
:103BC0003F0410925404109232030E94C0070E94D6
:103BD0009502813009F052C0C3010E9449098B81CE
:103BE00090E09093B3038093B203C3010E9449090C
:103BF0008A8190E09093B1038093B003C3010E9447
:103C00004909898190E08053984F9093AF03809346
:103C1000AE03C3010E9449098C8190E09093050492
:103C200080930404C3010E9449098D8190E0909320
:103C30000304809302040E949502833049F10E949C
:103C40009502853129F10E949502863109F10E9481
:103C500095028831E9F00E9495028931C9F00E94ED
:103C600095028A31A9F00E9495028B3189F00E9459
:103C70009502823079F480931A030CC00E94950259
:103C8000823009F4A9CF0E9495028330A1F6A4CF17
:103C900010921A0310913C031438A1F48091390456
:103CA00090913A0490933D0480933C0480913B04AE
:103CB00080933E0410923F041092540410923203F9
:103CC0000E94C0070E942602812F8F77823061F107
:103CD000833061F1113061F1143461F110E08DEF46
:103CE000810F823008F0AEC00E949502882321F136
:103CF000143011F10E942602811161C082E080938C
:103D000032030E949502882309F433CB61E080E0FE
:103D10000E948D078EE7809328041092290488E280
:103D200094E00E94740A25CB11E0D9CF12E0D7CFDE
:103D300013E0D5CF14E0D3CF8091540481111AC081
:103D40008091390490913A0490933D0480933C040F
:103D500080913B0480933E0410923F0484E00E94D3
:103D60002E03892B11F40E9477080E94C00710923D
:103D70003203FFCA81508093540490E0DC01AA0F03
:103D8000BB1FAA0FBB1FA75CBB4F19962D913C917F
:103D90001A9730933D0420933C04880F991F880F95
:103DA000991FFC01EF5BFB4F808180933E041796C7
:103DB0008C9180933F0482E00E941211DACA0E9423
:103DC0002602882309F43CC030913F0460913C04F2
:103DD00070913D04209154042530E8F440913E0454
:103DE000822F90E0DC01AA0FBB1FAA0FBB1FA75CAC
:103DF000BB4F17963C931797880F991F880F991FF1
:103E00008F5B9B4FFC0140831A967C936E931997AE
:103E10002F5F20935404CB01F6E03F9F800D911D4E
:103E20001124FC013596E491E0933E04FC013396A5
:103E30008591949190933D0480933C0410923F04AB
:103E400083E0BACF113051F480913F04882309F404
:103E500090CA815080933F0480E0AECF123009F0C9
:103E600088CA80913F0420913E042150330B821771
:103E700013060CF07ECA8F5F80933F0481E09CCFD5
:103E80000E949502D82EEEEFE80FED3110F00C9461
:103E90001528F0E0E25BF04E0C94002B6B1F7620AF
:103EA0001528F8202A21582115288221BC211528FF
:103EB000D121032215281B224B227B22B422522718
:103EC0001528E7229C2315284A24F824A6255226E3
:103ED000152826270027123009F08EC080911A037A
:103EE000823009F05FC08091B2039091B3030196D4
:103EF0008032910514F081E090E09093B3038093B9
:103F0000B203E12C10E080913C03843421F01123B2
:103F100011F40C94852861E081E00E948D078D2DBD
:103F20000E94010D0E94CB0A0E94740AEE24E394C1
:103F30000E9456048090340390903503A09036037D
:103F4000B0903703681979098A099B09613375476D
:103F500081059105D8F084E00E942E03892B11F48D
:103F60000E9477088091390490913A0490933D041F
:103F700080933C0480913B0480933E0410923F0464
:103F800010925404109232030E94C007EE2009F4EC
:103F9000F0C981E08093320361E080E00E948D07E8
:103FA00080E2B9CE833089F48091B0039091B1035F
:103FB00001968D30910514F081E090E09093B1036B
:103FC0008093B003E12C10E09ECFE12C10E0843010
:103FD00009F099CF8091AE039091AF0301968330A1
:103FE00028E0920714F084EE97E09093AF0380935B
:103FF000AE03E12C10E087CF133009F03FC0809171
:104000001A03823089F48091B2039091B30301972F
:104010001816190614F08FE190E09093B303809383
:10402000B203E12C10E06FCF833089F48091B003AC
:104030009091B10301971816190614F08CE090E0E6
:104040009093B1038093B003E12C10E05CCFE12C9E
:1040500010E0843009F057CF8091AE039091AF0308
:104060000197843E37E0930714F482E098E0909340
:10407000AF038093AE03E12C10E045CF113009F07F
:10408000D8C780911A03823031F483E080931A03F9
:10409000E12C10E038CF833031F484E080931A03B0
:1040A000E12C10E030CF843009F0C7C72091020422
:1040B000309104044091B2035091B0038091AE035B
:1040C0009091AF03803D67E0960710F0805D9740C8
:1040D00089835A834B833C832D831E82C3010E94B4
:1040E000EA0781E080930201E12C0DCF123041F507
:1040F00010911A03111110C08091040490910504CD
:1041000001968831910514F090E080E090930504C9
:1041100080930404E12CF7CE113009F092C780910E
:1041200002049091030401968C33910514F090E001
:1041300080E09093030480930204E12C10E0E3CE2E
:10414000133031F510911A0311110FC0809104043E
:1041500090910504019797FF02C087E190E090934A
:10416000050480930404E12CCECE113009F06DC714
:104170008091020490910304019797FF02C08BE3A2
:1041800090E09093030480930204E12C10E0BBCEF6
:10419000113009F05EC710911A03111106C081E0B9
:1041A00080931A03E12C10E0AECE113009F055C710
:1041B00020910204309104044091B2035091B00365
:1041C0008091AE039091AF03803DA7E09A0710F075
:1041D000805D974089835A834B833C832D831E8265
:1041E000C3010E94EA0781E080930201E12C8BCE9B
:1041F000812F8F77823091F48091C3039091C40313
:1042000001968831910514F090E080E09093C4030A
:104210008093C303EE24E39410E075CE833089F4D9
:104220008091C3039091C403019797FF02C087E177
:1042300090E09093C4038093C303EE24E39410E0D2
:1042400062CE113009F00DC70E943B0BEE24E394BF
:1042500011E059CE812F8F77823091F48091C50380
:104260009091C60301968831910514F090E080E0AA
:104270009093C6038093C503EE24E39410E043CEED
:10428000833089F48091C5039091C603019797FF0D
:1042900002C087E190E09093C6038093C503EE24AB
:1042A000E39410E030CE113079F2E12C10E02BCE07
:1042B000812F8F77823069F48091CE039091CF0364
:1042C00001969093CF038093CE03EE24E39410E005
:1042D0001ACE833089F48091CE039091CF03019759
:1042E00097FF02C084E690E09093CF038093CE03C3
:1042F000EE24E39410E007CE113009F4A5CFE12CB1
:1043000010E001CE812F8F77823091F48091C90324
:104310009091CA0301968F31910514F081E090E0ED
:104320009093CA038093C903EE24E39410E0EBCD8D
:10433000833091F48091C9039091CA0301971816B4
:10434000190614F08EE190E09093CA038093C9039C
:10435000EE24E39410E0D7CD113009F086C60E9418
:104360003B0B6091C9037091CA03772786E00E94D6
:104370007305EE24E394C7CD8EEF810F823058F49D
:1043800081E09091CD03911180E08093CD03EE24E4
:10439000E39410E0B8CD113009F456CFE12C10E0D1
:1043A000B2CD812F8F77823091F48091030190916B
:1043B000040101968831910514F084E090E0909317
:1043C000040180930301EE24E39410E09CCD83303C
:1043D00091F480910301909104010197843091053B
:1043E00014F487E190E09093040180930301EE249C
:1043F000E39410E088CDEE24E394113009F483CDEA
:10440000E12C10E080CD8091390490913A04909392
:104410003D0480933C0480913B0480933E041092C1
:104420003F041092540484E0809332030E94C0073A
:10443000E12C10E068CD812F8F77823091F480914C
:10444000D6039091D70301968930910514F083E04B
:1044500090E09093D7038093D603EE24E39410E08A
:1044600052CD833091F48091D6039091D703019778
:104470008330910514F488E090E09093D703809303
:10448000D603EE24E39410E03ECD113009F4DCCEE7
:10449000E12C10E038CD812F8F77823091F480911C
:1044A000DA039091DB0301968930910514F083E0E3
:1044B00090E09093DB038093DA03EE24E39410E022
:1044C00022CD833091F48091DA039091DB03019740
:1044D0008330910514F488E090E09093DB0380939F
:1044E000DA03EE24E39410E00ECD113009F4ACCEE3
:1044F000E12C10E008CD812F8F778230A1F48091DC
:10450000DE039091DF0301968531910514F081E07F
:1045100090E09093DF038093DE030E94D105EE24A8
:10452000E39410E0F0CC8330A1F48091DE0390910D
:10453000DF0301971816190614F084E190E09093B8
:10454000DF038093DE030E94D105EE24E39410E0A4
:10455000DACC113009F08DC50E9477080E943B0B20
:10456000EE24E39411E0CFCC812F8F778230A1F439
:104570008091E0039091E10301968531910514F05B
:1045800081E090E09093E1038093E0030E94D105E5
:10459000EE24E39410E0B7CC8330A1F48091E003E3
:1045A0009091E10301971816190614F084E190E048
:1045B0009093E1038093E0030E94D105EE24E394FD
:1045C00010E0A1CC113041F2E12C10E09CCC123073
:1045D00009F04CC010911A03111122C08091E2031E
:1045E0009091E303A091E403B091E503AC01BD0118
:1045F000445C5F4F6F4F7F4F77FD08C0403AE5E066
:104600005E076105710514F4DB01CA018093E203C2
:104610009093E303A093E403B093E503E12C73CC00
:10462000113009F02AC58091E2039091E303A09133
:10463000E403B091E503AC01BD014F5F5F4F6F4FE5
:104640007F4F77FD08C0403AF5E05F0761057105CF
:1046500014F4DB01CA018093E2039093E303A09377
:10466000E403B093E503E12C10E04DCC812F8F776C
:10467000833009F04CC010911A03111122C08091AF
:10468000E2039091E303A091E403B091E503AC0150
:10469000BD014C5351096109710977FD08C0403AC9
:1046A00025E052076105710514F4DB01CA0180930E
:1046B000E2039093E303A093E403B093E503E12CBA
:1046C00022CC113009F0DDC48091E2039091E30324
:1046D000A091E403B091E503AC01BD014150510943
:1046E0006109710977FD08C0403A35E0530761055B
:1046F000710514F4DB01CA018093E2039093E30394
:10470000A093E403B093E503E12C10E0FCCB11305F
:1047100009F0BBC480911A03882309F440CDE12C31
:1047200010E0813009F0EFCB0E943B0B81E08093D9
:104730000201E12C11E0E7CB123009F04CC01091DE
:104740001A03111122C08091E6039091E703A09112
:10475000E803B091E903AC01BD01445C5F4F6F4FCA
:104760007F4F77FD08C0403AE5E05E0761057105BF
:1047700014F4DB01CA018093E6039093E703A0934E
:10478000E803B093E903E12CBECB113009F081C4FA
:104790008091E6039091E703A091E803B091E903CB
:1047A000AC01BD014F5F5F4F6F4F7F4F77FD08C07A
:1047B000403AF5E05F076105710514F4DB01CA01B9
:1047C0008093E6039093E703A093E803B093E90393
:1047D000E12C10E098CB812F8F77833009F04CC00B
:1047E00010911A03111122C08091E6039091E70302
:1047F000A091E803B091E903AC01BD014C5351090C
:104800006109710977FD08C0403A25E0520761054A
:10481000710514F4DB01CA018093E6039093E7036A
:10482000A093E803B093E903E12C6DCB113009F0BC
:1048300034C48091E6039091E703A091E803B0911E
:10484000E903AC01BD01415051096109710977FDCE
:1048500008C0403A35E053076105710514F4DB01E7
:10486000CA018093E6039093E703A093E803B09313
:10487000E903E12C10E047CB113009F012C480911C
:104880001A03882309F48BCCE12C10E0813009F065
:104890003ACB4ACF123009F04CC010911A031111D3
:1048A00022C08091F2039091F303A091F403B091A0
:1048B000F503AC01BD01445C5F4F6F4F7F4F77FD47
:1048C00008C0403AE5E05E076105710514F4DB01BC
:1048D000CA018093F2039093F303A093F403B0937F
:1048E000F503E12C10CB113009F0DFC38091F20306
:1048F0009091F303A091F403B091F503AC01BD01D5
:104900004F5F5F4F6F4F7F4F77FD08C0403AF5E034
:104910005F076105710514F4DB01CA018093F2039E
:104920009093F303A093F403B093F503E12C10E00C
:10493000EACA812F8F77833009F04CC010911A0397
:10494000111122C08091F2039091F303A091F4031E
:10495000B091F503AC01BD014C53510961097109D6
:1049600077FD08C0403A25E052076105710514F44F
:10497000DB01CA018093F2039093F303A093F40345
:10498000B093F503E12CBFCA113009F092C38091B6
:10499000F2039091F303A091F403B091F503AC01FD
:1049A000BD01415051096109710977FD08C0403AC4
:1049B00035E053076105710514F4DB01CA018093EA
:1049C000F2039093F303A093F403B093F503E12C67
:1049D00010E099CA113009F070C380911A0388233E
:1049E00009F4DDCBE12C10E0813009F08CCA9CCEBB
:1049F000123009F04CC010911A03111122C080919D
:104A0000F6039091F703A091F803B091F903AC017C
:104A1000BD01445C5F4F6F4F7F4F77FD08C0403A48
:104A2000E5E05E076105710514F4DB01CA018093BE
:104A3000F6039093F703A093F803B093F903E12CE6
:104A400062CA113009F03DC38091F6039091F703DB
:104A5000A091F803B091F903AC01BD014B5F5F4F2A
:104A60006F4F7F4F77FD08C0403AF5E05F07610563
:104A7000710514F4DB01CA018093F6039093F703E8
:104A8000A093F803B093F903E12C10E03CCA812F06
:104A90008F77833009F04CC010911A03111122C096
:104AA0008091F6039091F703A091F803B091F90378
:104AB000AC01BD014C5351096109710977FD08C072
:104AC000403A25E052076105710514F4DB01CA0183
:104AD0008093F6039093F703A093F803B093F90340
:104AE000E12C11CA113009F0F0C28091F6039091C7
:104AF000F703A091F803B091F903AC01BD01455053
:104B000051096109710977FD08C0403A35E0530742
:104B10006105710514F4DB01CA018093F6039093DB
:104B2000F703A093F803B093F903E12C10E0EBC96D
:104B3000113009F0CEC280911A03882309F42FCBDB
:104B4000E12C10E0813009F0DEC9EECD123009F021
:104B50004CC010911A03111122C08091FA03909158
:104B6000FB03A091FC03B091FD03AC01BD01445CCB
:104B70005F4F6F4F7F4F77FD08C0403AE5E05E071B
:104B80006105710514F4DB01CA018093FA03909367
:104B9000FB03A093FC03B093FD03E12CB4C91130D7
:104BA00009F09BC28091FA039091FB03A091FC0352
:104BB000B091FD03AC01BD014F5F5F4F6F4F7F4F61
:104BC00077FD08C0403AF5E05F076105710514F410
:104BD000DB01CA018093FA039093FB03A093FC03CB
:104BE000B093FD03E12C10E08EC9133009F04CC0E6
:104BF00010911A03111122C08091FA039091FB03C6
:104C0000A091FC03B091FD03AC01BD014C535109CF
:104C10006109710977FD08C0403A25E05207610536
:104C2000710514F4DB01CA018093FA039093FB032E
:104C3000A093FC03B093FD03E12C65C9113009F08A
:104C400050C28091FA039091FB03A091FC03B091B4
:104C5000FD03AC01BD01415051096109710977FDA6
:104C600008C0403A35E053076105710514F4DB01D3
:104C7000CA018093FA039093FB03A093FC03B093C3
:104C8000FD03E12C10E03FC9113009F02EC28091E4
:104C90001A03882309F483CAE12C10E0813009F05B
:104CA00032C942CD123009F04CC010911A031111D3
:104CB00022C08091FE039091FF03A0910004B09167
:104CC0000104AC01BD01445C5F4F6F4F7F4F77FD26
:104CD00008C0403AE5E05E076105710514F4DB01A8
:104CE000CA018093FE039093FF03A0930004B09346
:104CF0000104E12C08C9113009F0FBC18091FE03C9
:104D00009091FF03A0910004B0910104AC01BD019A
:104D10004B5F5F4F6F4F7F4F77FD08C0403AF5E024
:104D20005F076105710514F4DB01CA018093FE037E
:104D30009093FF03A0930004B0930104E12C10E0D2
:104D4000E2C8812F8F77833009F04CC010911A038D
:104D5000111122C08091FE039091FF03A0910004E5
:104D6000B0910104AC01BD014C53510961097109B5
:104D700077FD08C0403A25E052076105710514F43B
:104D8000DB01CA018093FE039093FF03A09300040C
:104D9000B0930104E12CB7C8113009F0AEC1809185
:104DA000FE039091FF03A0910004B0910104AC01B7
:104DB000BD01455051096109710977FD08C0403AAC
:104DC00035E053076105710514F4DB01CA018093D6
:104DD000FE039093FF03A0930004B0930104E12C21
:104DE00010E091C8113009F08CC180911A0388231A
:104DF00009F4D5C9E12C10E0813009F084C894CCC5
:104E0000812F8F77823069F48091D4039091D503FC
:104E100001969093D5038093D403EE24E39410E09D
:104E200072C8833069F48091D4039091D5030197BF
:104E30009093D5038093D403EE24E39410E063C8E9
:104E4000113009F401CAE12C10E05DC8812F8F7781
:104E5000823069F48091D2039091D30301969093AC
:104E6000D3038093D203EE24E39410E04CC8833044
:104E700099F48091D2039091D3030197863E67E025
:104E8000960714F486EE97E09093D3038093D203B1
:104E9000EE24E39410E037C8113009F4D5C9E12CB1
:104EA00010E031C8113809F0B8C067E271E084EB56
:104EB00093E00E940C2D3092CF032092CE033092CB
:104EC000D1032092D00385E090E09093C4038093B7
:104ED000C30386E190E09093C6038093C50384E109
:104EE00090E09093C8038093C7039093CA03809384
:104EF000C90383E090E09093D7038093D603909307
:104F0000D9038093D8039093DD038093DC039093BF
:104F1000DB038093DA0381E090E09093DF038093DA
:104F2000DE0382E090E09093E1038093E00387E367
:104F300094E0A0E0B0E08093E2039093E303A093B9
:104F4000E403B093E50387E691E0A0E0B0E080934E
:104F5000E6039093E703A093E803B093E90310926C
:104F6000EA031092EB031092EC031092ED031092FF
:104F7000EE031092EF031092F0031092F1038CE213
:104F800091E0A0E0B0E08093F2039093F303A0934C
:104F9000F403B093F50383E790E0A0E0B0E08093E2
:104FA000F6039093F703A093F803B093F9038CEF03
:104FB00093E0A0E0B0E08093FA039093FB03A0930A
:104FC000FC03B093FD0383E790E0A0E0B0E08093A2
:104FD000FE039093FF03A0930004B093010410928A
:104FE000CB031092CC031092CD038CEC90E0909305
:104FF000D5038093D40386EE97E09093D3038093F8
:10500000D20361E081E00E948D078EE392E00E946E
:10501000740AE12C10E00C94831F81E0113C09F02C
:1050200080E0182FE12C0C94831FE12C10E00C94ED
:10503000831FE12C10E00C94831FE12C10E00C94F2
:10504000831FE12C10E00C94831FE12C10E00C94E2
:10505000831FE12C10E00C94831FE12C10E00C94D2
:10506000831FE12C10E00C94831FE12C10E00C94C2
:10507000831FE12C10E00C94831FE12C10E00C94B2
:10508000831FE12C10E00C94831FE12C10E00C94A2
:10509000831FE12C10E00C94831FE12C10E00C9492
:1050A000831FE12C10E00C94831FE12C10E00C9482
:1050B000831FE12C10E00C94831FE12C10E00C9472
:1050C000831FE12C10E00C94831FE12C10E00C9462
:1050D000831FE12C10E00C94831FE12C10E00C9452
:1050E000831FE12C10E00C94831FE12C10E00C9442
:1050F000831FE12C10E00C94831FE12C10E00C9432
:10510000831FE12C10E00C94831FEE2071F061E00E
:1051100081E00E948D078D2D0E94010D0E94CB0A17
:105120000E94740AE12C0C94981F0E9456048090EF
:10513000200390902103A0902203B09023036819CC
:1051400079098A099B096D3271408105910510F436
:105150000C94981F809102018823C9F061E081E0DE
:105160000E948D078D2D0E94010D0E94CB0A0E9486
:10517000740A109202010E945604609320037093F7
:10518000210380932203909323030C94981FB3E090
:10519000DB1641F08BEE8D0D823020F088EE8D0D08
:1051A0008430A8F480911A0381110CC061E081E081
:1051B0000E948D078EE393E00E94D00781E08093E8
:1051C0000201D9CF8130B1F761E084E0F1CFE2E0B4
:1051D000DE12D1CF80911A03823039F461E081E090
:1051E0000E948D078BE393E0E7CF833019F461E0F1
:1051F00084E0F6CF8430B1F761E089E0F1CFCF935E
:10520000DF93C9EAD4E02697888199810E94A92B6F
:1052100024E0C136D207B9F78EE591E09093E2041D
:105220008093E1048091DD029091DE02815E9440E2
:1052300071F4E091F404F091F50490818091F6040A
:105240008095892380831092DE021092DD02DF9127
:10525000CF9108958F929F92AF92BF92CF92DF929B
:10526000EF92FF92CF93DF93EC01688179818A817D
:105270009B81611571058105910521F464E279ED49
:105280008BE597E02DE133EF41E050E00E94322AB8
:1052900049015A019B01AC01A7EAB1E40E94512ADD
:1052A0006B017C01ACEEB4EFA50194010E945F2A72
:1052B000C60ED71EE81EF91EF7FE06C081E0C81A0A
:1052C000D108E10880E8F80AC882D982EA82FB8224
:1052D000C701B6019F77DF91CF91FF90EF90DF90EC
:1052E000CF90BF90AF909F908F9008958F929F9294
:1052F000AF92BF92CF92DF92EF92FF926091050141
:105300007091060180910701909108016115710566
:105310008105910521F464E279ED8BE597E02DE1BB
:1053200033EF41E050E00E94322A49015A019B01CB
:10533000AC01A7EAB1E40E94512A6B017C01ACEEFA
:10534000B4EFA50194010E945F2AC60ED71EE81E85
:10535000F91EF7FE06C081E0C81AD108E10880E80E
:10536000F80AC0920501D0920601E0920701F0927E
:105370000801C701B6019F77FF90EF90DF90CF90B3
:10538000BF90AF909F908F900895609305017093A8
:10539000060180930701909308010895FB01DC0149
:1053A00005900D920020E1F70895BB274A3031F4B3
:1053B000992322F4BDE2909581959F4F0C94E129A9
:1053C000BB27FB015527AA27880F991FAA1FA417DF
:1053D00010F0A41B83955051B9F7A05DAA3308F0D3
:1053E000A95DA193009779F7B111B1931192CB0107
:1053F0000C94FA29DC01FC01672F71917723E1F706
:10540000329704C07C916D9370836291AE17BF0791
:10541000C8F30895DC01CB01FC01F999FECF06C069
:10542000F2BDE1BDF89A319600B40D924150504062
:10543000B8F70895DC01CB0103C02D910E94252A05
:1054400041505040D0F70895262FF999FECF1FBA4A
:1054500092BD81BD20BD0FB6F894FA9AF99A0FBE9D
:1054600001960895052E97FB1EF400940E94492A88
:1054700057FD07D00E949B2A07FC03D04EF40C94E2
:10548000492A50954095309521953F4F4F4F5F4F9A
:10549000089590958095709561957F4F8F4F9F4FA0
:1054A00008950E94BD2AA59F900DB49F900DA49FC2
:1054B000800D911D11240895B7FF0C94512A0E946C
:1054C000512A821B930B08952F923F924F925F9225
:1054D0006F927F928F929F92AF92BF92CF92DF9204
:1054E000EF92FF920F931F93CF93DF93CDB7DEB769
:1054F000CA1BDB0B0FB6F894DEBF0FBECDBF0994FD
:105500002A88398848885F846E847D848C849B8453
:10551000AA84B984C884DF80EE80FD800C811B8161
:10552000AA81B981CE0FD11D0FB6F894DEBF0FBE90
:10553000CDBFED010895A1E21A2EAA1BBB1BFD01F0
:105540000DC0AA1FBB1FEE1FFF1FA217B307E40762
:10555000F50720F0A21BB30BE40BF50B661F771FBA
:10556000881F991F1A9469F760957095809590959A
:105570009B01AC01BD01CF010895A29FB001B39F73
:10558000C001A39F700D811D1124911DB29F700D4C
:10559000811D1124911D0895991B79E004C0991F64
:1055A000961708F0961B881F7A95C9F7809508957D
:1055B000AA1BBB1B51E107C0AA1FBB1FA617B70739
:1055C00010F0A61BB70B881F991F5A95A9F7809555
:1055D0009095BC01CD01089597FB072E16F4009419
:1055E00007D077FD09D00E94D82A07FC05D03EF4E9
:1055F000909581959F4F0895709561957F4F08957F
:10560000EE0FFF1F0590F491E02D09940E94BD2A32
:10561000B7FF0895821B930B08950F931F93CF93A9
:10562000DF938230910510F482E090E0E091020572
:10563000F091030530E020E0B0E0A0E0309799F46D
:105640002115310509F44AC0281B390B24303105D6
:10565000D8F58A819B816115710589F1FB019383DE
:105660008283FE0111C0408151810281138148175C
:105670005907E0F04817590799F4109761F012960E
:105680000C93129713961C933296CF01DF91CF9112
:105690001F910F9108950093020510930305F4CF15
:1056A0002115310551F04217530738F0A901DB01EC
:1056B0009A01BD01DF01F801C1CFEF01F9CF90934D
:1056C000030580930205CDCFFE01E20FF31F819306
:1056D00091932250310939832883D7CF2091000537
:1056E00030910105232B41F420910B0130910C01E5
:1056F00030930105209300052091090130910A01A2
:105700002115310541F42DB73EB740910D0150915F
:105710000E01241B350BE0910005F0910105E21705
:10572000F307A0F42E1B3F0B2817390778F0AC01C4
:105730004E5F5F4F2417350748F04E0F5F1F5093A1
:10574000010540930005819391939FCFF0E0E0E045
:105750009CCFCF93DF930097E9F0FC01329713823F
:105760001282A0910205B0910305ED0130E020E026
:105770001097A1F420813181820F931F20910005A1
:10578000309101052817390709F061C0F093010530
:10579000E0930005DF91CF910895EA01CE17DF076E
:1057A000E8F54A815B819E0141155105B1F7E90198
:1057B000FB83EA8349915991C40FD51FEC17FD076C
:1057C00061F4808191810296840F951FE90199838C
:1057D0008883828193819B838A83F0E0E0E0129644
:1057E0008D919C9113970097B9F52D913C9111974C
:1057F000CD010296820F931F209100053091010583
:105800002817390739F6309751F510920305109291
:105810000205B0930105A0930005BCCFD383C283DA
:1058200040815181840F951FC817D90761F44E5FDD
:105830005F4F88819981480F591F518340838A8126
:105840009B81938382832115310509F0B0CFF093BA
:105850000305E09302059ECFFD01DC01C0CF13825A
:105860001282D7CFB0E0A0E0E8E3FCE20C94662A15
:105870008C01009751F4CB010E940D2B8C01C801C3
:10588000CDB7DEB7E0E10C94822AFC01E60FF71FEA
:105890009C0122503109E217F30708F49DC0D90199
:1058A000CD91DC911197C617D70798F0C530D10577
:1058B00030F3CE0104978617970708F3C61BD70B62
:1058C0002297C193D1936D937C93CF010E94A92B12
:1058D000D6CF5B01AC1ABD0A4C018C0E9D1EA09167
:1058E0000205B0910305512C412CF12CE12C1097AD
:1058F00031F580910005909101058815990509F011
:105900005CC04616570608F058C080910901909176
:105910000A01009741F48DB79EB740910D01509157
:105920000E01841B950BE817F90708F055C0F0939A
:105930000105E0930005F90171836083A0CF8D918B
:105940009C91119712966C90129713967C901397D6
:10595000A815B90559F56C0142E0C40ED11CCA1452
:10596000DB0420F1AC014A195B09DA0112961597A4
:1059700080F06282738251834083D9016D937C935E
:10598000E114F10471F0D7011396FC93EE93129792
:1059900076CF22968C0F9D1FF90191838083F301AE
:1059A000EFCFF0930305E093020569CF481659063F
:1059B00008F42C017D01D3019ACFCB010E940D2B5D
:1059C0007C01009749F0AE01B8010E94EF2CC8019C
:1059D0000E94A92B870153CF10E000E050CFFB01BC
:1059E000DC0102C001900D9241505040D8F708955B
:1059F000FB01DC010D900020E9F7119701900D9259
:105A00000020E1F70895FB01DC018D9101908019E0
:105A10000110D9F3990B0895FB01DC0101900D925F
:105A20000020E1F70895FB01DC014150504048F0AF
:105A300001900D920020C9F701C01D9241505040C5
:105A4000E0F7089511E0CBEFD1E004C0FE010E9421
:105A5000002B2196CC3FD107C9F7F894FFCF030163
:105A60000105000100000000000405800000004066
:105A700000140054007EFF06000100000000EF004B
:105A800000010203044368616E7442656C6C205629
:105A9000332E31002D2D2D2D2D0000000000180774
:105AA000EB065C08FB05E406D106C2060000000018
:105AB000CA07D8025C08E20500000000FC05D80215
:105AC0005C08FB0558067006E3053A303020504D5F
:105AD000003A303020414D004F46460020536F6E53
