:020000040000FA
:100000000C94FC010C9424020C9424020C94E7122E
:100010000C94E7120C94E7120C9424020C94240222
:100020000C9424020C9424020C9424020C942402B8
:100030000C9424020C9424020C9424020C942402A8
:100040000C949D120C9424020C9424020C9424020F
:100050000C9424020C9424020C9424020C94240288
:100060000C945F130C94240245564520534F4E4781
:10007000204E6F2E0045564520534F4E4720544981
:100080004D45004D4F5220534F4E47204E6F2E008E
:100090004D4F5220534F4E472054494D4500504C30
:1000A00041590053454C4543542054494D45005057
:1000B0004C5952204556452044555200504C5952F7
:1000C00020455645204F4E2054494D00504C595222
:1000D000204D4F522044555200504C5952204D4F04
:1000E00052204F4E2054494D004C49474854204F10
:1000F00046462054494D45004C49474854204F4EF0
:100100002054494D45000F9000000000118300006D
:100110000000107500000000126800000000007F61
:1001200001000000534F4E472053455454494E4759
:10013000000CA3000000000D9E00000000007F01E5
:10014000000000504C41592044454D4F0053434856
:100150004F4F4C205A4F4E4500564F4C554D450081
:10016000534F4E4720434F554E5400454E44205464
:10017000494D450053544152542054494D45004285
:1001800041434B005345542054494D450053455479
:100190002044415445005345542059454152005391
:1001A00045542053455249414C000574010000005C
:1001B000066B010000000B430131010309590100E6
:1001C00000000A4D01000000007F01000000434CC8
:1001D0004F434B2053455454494E470045584954CA
:1001E0000052455345542053455454494E47001836
:1001F000D90000000019CC000000001ABC0000006B
:10020000001BAF00000000007F01000000504C41C7
:100210005945522053455454494E470015F80000A3
:10022000000016E900000000007F010000004C49BA
:10023000474854532053455454494E4700057401D0
:10024000000000066B0100000007600100000009CB
:1002500059010000000A4D010000000B430131016B
:10026000030E2401060105007F0100000042454CF9
:100270004C2053455454494E4700028D0100000064
:10028000038401000000007F01000000534554205A
:10029000444154452054494D4500000000002400CD
:1002A00027002A00000000090003020000040508DE
:1002B00000000000000000000000001E9F01000080
:1002C000001D960100000000DC01000000142E0259
:1002D0001C0203170D02EF0105018C027A02031CB8
:1002E000CE01AA010600DC01000000018C027A02A6
:1002F00003046D023D0208142E021C0203170D02B6
:10030000EF010513E10100000000DC0100000045E1
:100310005252203033004552522030320045525262
:10032000203031004445564F54494F4E414C2043F4
:100330004C4F434B005154524F4E00202000202080
:100340000020504C41594552204D4F4445204F4EBE
:100350002000202052554E4E494E472044454D4FD7
:10036000202000204155544F204C49474854204FED
:1003700046462000204155544F204C4947485420C0
:100380004F4E202000204155544F20504C415920C1
:100390004F464620200020204155544F20504C41CC
:1003A00059204F4E2020001F1C1F1E1F1E1F1F1EE6
:1003B0001F1E00000000230026002900000000008E
:1003C000250028002B000404040404040404020291
:1003D00002020202030303030303020203010204F5
:1003E00008102040800102040810200102040810B7
:1003F000204080407E144E2A11241FBECFEFD8E04B
:10040000DEBFCDBF12E0A0E0B1E0ECEFFCE502C042
:1004100005900D92AE34B107D9F725E0AEE4B2E015
:1004200001C01D92A630B207E1F711E0CBEFD1E099
:1004300004C02197FE010E944F2CCA3FD107C9F783
:100440000E9493150C94712E0C940000809141042D
:10045000E0913E04F0913F0496E0899FE00DF11D8C
:1004600011243596E49181E0E11101C080E0089506
:10047000982F2091AF0381E0213208F043C0809192
:100480008B038111FCCF8091AE0332E030938B035C
:1004900090938A039FEF909389031092880320938F
:1004A0008703AEE8B3E0E7E6F3E090E0291331C05C
:1004B0001092660390916603880F892B80936603E0
:1004C00080916503813049F5109265038091660340
:1004D0008093BB008091BC0083FDF8CF85EC8093B6
:1004E000BC0080918B038230E1F3809189038F3FC0
:1004F000B1F0809189038032A1F08091890380332B
:1005000091F084E010928D031092AF0310928C034F
:1005100008953D9131939F5FC9CF85EEE0CF80E094
:10052000F1CF82E0EFCF83E0EDCFEBE3F4E0868123
:100530000380F481E02D96E0899FE00DF11D1124E8
:1005400084910895089508956091AC049091AB044E
:10055000492F50E08091AD04282F30E0E7EAF3E026
:1005600081E0861730F47491270F311D8F5F31962B
:10057000F8CF633020F0937011F42F5F3F4F6DE69A
:1005800071E0469FC001479F900D569F900D11242A
:1005900005964D5F5F4F5695479556954795840F45
:1005A000951F820F931F67E070E00E94272C08952B
:1005B000AF92BF92CF92DF92EF92FF920F931F9371
:1005C000CF93DF936C017B018B01040F151FEB01AF
:1005D0005E01AE18BF08C017D10759F06991D60166
:1005E000ED91FC910190F081E02DC6010995892BD8
:1005F00079F7C501DF91CF911F910F91FF90EF9097
:10060000DF90CF90BF90AF900895843081F028F4B0
:100610008230E9F08330F9F00895883071F0893044
:1006200091F08530B9F4809180008F7D03C0809176
:1006300080008F778093800008958091B0008F773D
:100640008093B00008958091B0008F7DF9CF84B57C
:100650008F7784BD089584B58F7DFBCFCF93DF93D3
:10066000282F30E0F901EC55FD4F8491F901E35258
:10067000FC4FD491F901EA53FC4FC491CC23A1F073
:1006800081110E940503EC2FF0E0EE0FFF1FEE54E6
:10069000FC4FA591B491EC91ED2381E090E009F439
:1006A00080E0DF91CF91089580E090E0FACF1F9332
:1006B000CF93DF93282F30E0F901EC55FD4F849163
:1006C000F901E352FC4FD491F901EA53FC4FC49174
:1006D000CC23A9F0162F81110E940503EC2FF0E026
:1006E000EE0FFF1FE454FC4FA591B4918FB7F8941F
:1006F000EC91111108C0D095DE23DC938FBFDF9100
:10070000CF911F910895DE2BF8CF109244031092E1
:10071000430310928D031092AF0310928B0381E07C
:1007200080938A031092650361E082E10E9457037F
:1007300061E083E10E945703E9EBF0E080818E7F66
:10074000808380818D7F808388E48093B80085E4F6
:100750008093BC0082EA92E090934203809341032D
:1007600083EA92E09093400380933F030895CF93F0
:10077000DF9390E0FC01E352FC4F24918A539C4F9D
:10078000FC0184918823C9F090E0880F991FFC0137
:10079000E656FD4FA591B491FC01E454FC4FC59180
:1007A000D49161110DC09FB7F8948C91209582234C
:1007B0008C938881282328839FBFDF91CF91089550
:1007C000623051F49FB7F8943C91822F8095832337
:1007D0008C93E8812E2BEFCF8FB7F894EC912E2BD2
:1007E0002C938FBFEACF8130910539F0880F991F84
:1007F000880F991F05970197F1F708953FB7F8946F
:100800008091D7029091D802A091D902B091DA02DA
:1008100026B5A89B05C02F3F19F00196A11DB11D5B
:100820003FBFBA2FA92F982F8827BC01CD01620F97
:10083000711D811D911D42E0660F771F881F991F52
:100840004A95D1F708958F929F92AF92BF92CF921F
:10085000DF92EF92FF926B017C010E94FE034B013D
:100860005C01C114D104E104F104B9F00E94FE035B
:10087000681979098A099B09683E734081059105C9
:1008800080F321E0C21AD108E108F10888EE880E51
:1008900083E0981EA11CB11CE4CFFF90EF90DF9085
:1008A000CF90BF90AF909F908F9008952FB7F894FE
:1008B0006091D3027091D4028091D5029091D602BA
:1008C0002FBF08950F931F938091BD049091BE0494
:1008D000DC01ED91FC910084F185E02D0995892BD7
:1008E00009F4D7C060E070E0CB010E94230420919E
:1008F000DB048091BD049091BE04DC01ED91FC917C
:100900000284F385E02D21110BC009958093C70463
:100910008E37D1F68091DB048F5F8093DB04D4CFD8
:1009200009959091DB04E92FF0E0E354FB4F8287B7
:100930009230B9F09930D9F09130A9F48F3F99F005
:100940001092DB0481E08093DD041092E0041092A9
:10095000DF048093E1041092E20480E01F910F9184
:100960000895863069F79F5F9093DB04ADCF8F3E8B
:1009700039F72091C9048091C804280F3327331F09
:10098000E091CA04C9018E0F911D2091CB04280F5C
:10099000392F311D4091CC0450E0240F351F809138
:1009A000CD0490E06091CE0470E0762F6627F09140
:1009B000CF046F0F711D280F391F31952195310913
:1009C0006217730709F0BCCF1092DB04E13419F40D
:1009D0001092E2042FC0E093DE04542F4427840FCA
:1009E000951F9093E0048093DF04EA53E63108F00A
:1009F00046C0F0E0E250FB4F0C944F2C2B05330522
:100A00003D0514053D051D053B053F053D053D051F
:100A10003D053D053D053D053D053D053F053D05C4
:100A20003D053D053D053D0585E08093DD0481E004
:100A30008093E1048091E10491CF80FF02C089E0BE
:100A4000F4CF81FF02C084E0F0CF83709927892B17
:100A500089F38AE0EACF80FF02C087E0E6CF81FF1A
:100A6000E9CF82E0E2CF80FF02C088E0DECF81FFE5
:100A7000E1CF83E0DACF86E0D8CF8BE0D6CF81E03C
:100A80008093DD041092E0041092DF048093E1046F
:100A90009FCF8091E204882369F20E94560400915E
:100AA000BF041091C0042091C1043091C204601BA6
:100AB000710B820B930B0091C3041091C40420911D
:100AC000C5043091C604601771078207930708F4C4
:100AD000B1CF1092DB041092DD041092E00410926A
:100AE000DF0481E036CF8093D404272F30E0709369
:100AF000D6046093D7044091D3049091D204490F57
:100B00005527551F840F952F911D4091D504840FB3
:100B1000911D820F931F680F792F711D719561953B
:100B200071097093D8046093D904442361F08091D3
:100B3000E204882341F060E070E0CB010E942304CE
:100B40000E946204F4CF8091BD049091BE04DC0148
:100B5000ED91FC910280F381E02D4AE050E061EDDF
:100B600074E009950E9456046093BF047093C0041A
:100B70008093C1049093C2048091D50491E08111C7
:100B800001C090E09093E204811106C06AE070E039
:100B900080E090E00C9423040895782F8FE00C946B
:100BA0007305CF93C82F61E08CE00E9457036C2F30
:100BB00082E00E94CD0564EF71E080E090E0CF918B
:100BC0000C94230408952091DD023091DE02281751
:100BD000390771F49091DB028091DC02981741F0A3
:100BE000E091DB02F0E0EE56FD4F808190E0089549
:100BF0008FEF9FEF08950895EF92FF920F931F9349
:100C0000CF93DF93DC015C96ED90FC905D97E1144F
:100C1000F10479F481E090E013969C938E931297FF
:100C200090E080E0DF91CF911F910F91FF90EF90C6
:100C300008955196ED91FC91529750968C91509752
:100C4000982F90950FB75E962C915E97122F127089
:100C500021FD6095F8942081112319F1282B208320
:100C6000E7012197F1F728E0462F50E0308160FF3F
:100C70001AC0382B3083E7012197F1F7BA01759537
:100C80006795215089F7112381F080818923808322
:100C90000FBF5C968D919C910197F1F781E090E0F8
:100CA000C1CF2923DCCF3923E5CF9081892BEFCF2A
:100CB0002091DD023091DE022817390771F480910E
:100CC000DC022091DB0290E0805C9F4F821B910947
:100CD00060E470E00E943B2C089590E080E008956D
:100CE0002091DD023091DE0228173907B9F4909186
:100CF000DB028091DC02981789F0E091DB02F0E0E2
:100D0000EE56FD4F80812091DB0230E02F5F3F4F98
:100D10002F7333272093DB0290E008958FEF9FEF2E
:100D200008951F93CF93DF93EA01122FDC011196F0
:100D30008D919C91DC01ED91FC910280F381E02D7D
:100D40000995C817D90729F4812F0E94380291E02C
:100D5000811190E0892FDF91CF911F910895CF935A
:100D6000DF93EC018B818823A1F0888191E090933F
:100D70008C038093AE0310928D031092AF0381E039
:100D80000E94380291E0811190E0892FDF91CF918C
:100D900008950E94850381E08B83CE010E94AF06F7
:100DA000982F8111E2CFF1CF85ED8093BC00809127
:100DB000BC0084FDFCCF10928B03089520916F023C
:100DC000260F3327331F21323105ECF420918B039A
:100DD000FC0190E080E0243069F082E00895A09169
:100DE0006F022191AC01415B5D4FA40FB52FB11D86
:100DF0002C930196861798F380916F02680F609389
:100E00006F0280E0089581E00895E09144038091AD
:100E10004303E81730F4F0E0EB5BFC4F808190E097
:100E200008958FEF9FEF08959091440380914303BD
:100E30002FEF3FEF981748F4E92FF0E0EB5BFC4F02
:100E4000208130E09F5F90934403C9010895809111
:100E5000430390914403891B990B0895CF92DF922D
:100E6000EF92FF920F931F93CF93DF937C01CB01FF
:100E70008A0120918C03222389F0EB016B01C40EBF
:100E8000D51ECC15DD0569F06991D701ED91FC9176
:100E90000190F081E02DC7010995F3CF642F0E94E6
:100EA000DE06C801DF91CF911F910F91FF90EF9067
:100EB000DF90CF900895CF93DF931F92CDB7DEB729
:100EC000698320918C032223F9F02091AF03203213
:100ED00058F021E030E0FC013383228390E080E091
:100EE0000F90DF91CF91089580918D03E82FF0E06E
:100EF000E257FC4F998190838F5F80938D0380939D
:100F0000AF0381E090E0ECCF61E0CE0101960E945A
:100F1000DE06F7CFFC01248131E030938C0320936F
:100F2000AE0310928D031092AF038385682B87E583
:100F300094E00E945B0781E00C9438020F931F93AA
:100F4000CF938C01C62F0E948A076C2F6460C80162
:100F50000E948A0781E090E00E94F3036C2F6B7F70
:100F6000C8010E948A0782E390E0CF911F910F9100
:100F70000C94F3030F931F93CF93DF938C01D62F21
:100F8000C42F607F642B0E949E0780E1D89FB00130
:100F900011246C2BC801DF91CF911F910F910C94FC
:100FA0009E07CF93DF93CDB7DEB728970FB6F8949F
:100FB000DEBF0FBECDBF98E0EFE0F1E0DE0111969D
:100FC00001900D929A95E1F79091B904961708F463
:100FD0006FEF262F30E0220F331F41E050E04C0F1F
:100FE0005D1F240F351FF9016081680F606840E0C4
:100FF00081EB94E028960FB6F894DEBF0FBECDBF0C
:10100000DF91CF910C94BA0740E061E081EB94E06E
:101010000E94BA0780ED97E00C94F30341E00E9430
:10102000BA0781E090E008950F931F93CF93DF9369
:101030008C01D0E0C0E0F801EC0FFD1F6491662345
:1010400039F041E081EB94E00E94BA072196F3CF9A
:10105000CE01DF91CF911F910F91089590E080E034
:10106000089520911703253009F090F490914E02D5
:10107000E92FF0E0EF5EFC4F80832F5F2093170392
:101080009F5F953018F490934E02089510924E028F
:10109000089560E08CE00E94570370E060E086E114
:1010A0000C9473050E94260280913C03982F9F7731
:1010B000923041F0933041F0813041F0843441F07E
:1010C00080E0089581E0089582E0089583E0089526
:1010D00084E008950F931F938091F4039091F5039A
:1010E000A091F603B091F70340911C0350911D03AA
:1010F00060911E0370911F03481759076A077B0709
:101100001CF10091F8031091F9032091FA0330913A
:10111000FB03800F911FA21FB31F84179507A6071B
:10112000B70794F0012B022B032B71F08091190368
:10113000811150C081E08093190385E080933203D0
:101140001F910F910C9404088091FC039091FD0372
:10115000A091FE03B091FF03481759076A077B0768
:10116000ECF00091000410910104209102043091F0
:101170000304800F911FA21FB31F84179507A607B2
:10118000B70764F0012B022B032B41F08091180369
:10119000811120C081E080931803CFCF809132036A
:1011A0008530C1F480911803813021F080911903BA
:1011B000813081F460E08CE00E94570360E08AE0B7
:1011C0000E94570310921903109218030E940408FA
:1011D000109232031F910F9108952F923F924F92D8
:1011E0005F926F927F928F929F92AF92BF92CF92B7
:1011F000DF92EF92FF920F931F93CF93DF936C01D7
:101200003B017A0110E000E05524539444244A94B1
:1012100085EE382E95EC292E80918B038111FCCF21
:10122000D60114968D919C91E701C01BD10B8C17B0
:101230009D0708F4EC01F60190818C2FC13208F073
:1012400080E250928B0341E097012C1B3D0B02176B
:10125000130708F440E040938A03409289031092F8
:1012600088032FEF280F2093870350926603209165
:101270006603990F922B90936603909165039130CA
:10128000E9F510926503909166039093BB009091ED
:10129000BC0093FDF8CF2092BC0090918B0391305D
:1012A000E1F390918803981710F480918803A7E6E2
:1012B000B3E0E5E4F3E090E0981323C01092440318
:1012C000909343039C171D06D1F54301800E911E98
:1012D0005401C501881999098C179D07B0F4D601EE
:1012E00011968D919C91DC01ED91FC910284F38526
:1012F000E02D0995F50181935F01EBCF3092BC00A1
:10130000CCCF2D9121939F5FD7CF0C0F1D1F0E15B2
:101310001F0508F481CF81E0DF91CF911F910F91DC
:10132000FF90EF90DF90CF90BF90AF909F908F9005
:101330007F906F905F904F903F902F90089580E046
:10134000EBCF0F931F93CF93DF93CDB7DEB72897E3
:101350000FB6F894DEBF0FBECDBFDC018E010F5F6C
:101360001F4F86E0F80111928A95E9F715963C9196
:1013700015972AE0832F622F0E941B2C982F880F2D
:10138000890F880F830F8A8314963C911497832FBB
:101390000E941B2C982F880F890F880F830F8B8337
:1013A00013963C911397832F0E941B2C982F880F24
:1013B000890F880F830F8C8312963C911297832F8D
:1013C0000E941B2C982F880F890F880F830F8E8304
:1013D00011963C911197832F0E941B2C982F880FF8
:1013E000890F880F830F8F833C91832F0E941B2CC2
:1013F000982F880F890F880F830F888780913D036E
:1014000090913E03FC01248135812830310580F024
:10141000208131E030938C032093AE0310928D0332
:101420001092AF0321E048E050E0B8010E9491061D
:1014300028960FB6F894DEBF0FBECDBFDF91CF91D7
:101440001F910F910895EF92FF920F931F93CF93E7
:10145000DF9300D000D000D01F92CDB7DEB78C0153
:101460001982E0903D03F0903E03D70114968D91D0
:101470009C911597892BE9F08C9191E090938C03C6
:101480008093AE0310928D031092AF0320E041E0F1
:1014900050E0BE016F5F7F4FC7010E949106882315
:1014A00041F047E050E0BE016F5F7F4FC7010E94EF
:1014B000ED08E981EF77FA81FB804D815E818F81B4
:1014C000282F30E094E0359527959A95E1F7922FF3
:1014D000990F990F291B220F280FD8012C93852FC4
:1014E00090E024E0959587952A95E1F7982F990F3C
:1014F000990F891B880F850F11968C931197642F74
:1015000070E034E0759567953A95E1F7862F880F7E
:10151000880F681B660F640F12966C9312974F2DFD
:1015200050E064E0559547956A95E1F7842F880F60
:10153000880F481B440F4F0D13964C9313972F2F72
:1015400030E074E0359527957A95E1F7822F880F82
:10155000880F281B220F2F0F14962C9314978E2F71
:1015600090E0F4E095958795FA95E1F7982F990F1B
:10157000990F891B880F8E0F15968C93C80127969B
:101580000FB6F894DEBF0FBECDBFDF91CF911F9194
:101590000F91FF90EF900895CF93DF93EC01888136
:1015A0009981009711F00E94F82C198218821D82EF
:1015B0001C821B821A82DF91CF9108958F929F9295
:1015C000AF92BF920F931F93CF93DF93CDB7DEB748
:1015D000A1970FB6F894DEBF0FBECDBF19A242305F
:1015E00008F44AE08E010F5D1F4F842E912CB12C20
:1015F000A12CA50194010E94EA2BE62FB901CA0192
:10160000EA3044F5E05DD801EE938D01232B242BC5
:10161000252B79F790E080E0109769F0FD010190AB
:101620000020E9F73197AF014A1B5B0BBD0181EB4D
:1016300094E00E94D802A1960FB6F894DEBF0FBEC8
:10164000CDBFDF91CF911F910F91BF90AF909F9031
:101650008F900895E95CD7CFCF92DF92EF92FF92FF
:101660006C01990FEE08FF08F7FE16C041E06DE22D
:1016700081EB94E00E94BA0766277727CB016C19AB
:101680007D098E099F094AE00E94DE0A0196FF90BB
:10169000EF90DF90CF9008954AE0C701B601FF9028
:1016A000EF90DF90CF900C94DE0A009769F0FC0178
:1016B00001900020E9F73197AF01481B590BBC019D
:1016C00081EB94E00C94D80290E080E008950F93B1
:1016D0001F93CF93DF93EC01CB01009759F46BEE8E
:1016E00071E0CE010E945B2ECE01DF91CF911F9160
:1016F0000F91089520E077FF06C02DE22883919591
:101700008195910921E0803137E293070CF5883EFD
:1017100033E09307FCF432E0843691052CF431E099
:101720008A3091050CF430E0230FFE01E20FF11D29
:1017300011820AE010E0FE01E20FF11DB8010E94E3
:101740003B2C805D8083CB0121500097A1F7CCCF4B
:1017500034E0EACF33E0E8CFCF93DF93BC01EC0174
:1017600009900020E9F72197C81BD90BC03108F573
:101770008AE294E00E945B2E80E18C1BE9E1F4E0B8
:1017800090E020E2AF01495154404817590714F442
:101790002193F8CF875E9B4FFC01108269E174E0D2
:1017A0008AE294E00E94472E8AE294E0DF91CF9192
:1017B000089541E150E08AE294E00E94622EF4CF65
:1017C0000F931F93CF93DF93EC018B01FB010190EB
:1017D0000020E9F73197E61BF70BE03128F5E41715
:1017E00018F54E1B413108F040E1E9E1F4E050E02A
:1017F00080E39F01295134402417350714F4819365
:10180000F8CF475E5B4FFA01108269E174E0CE01C8
:101810000E945B2EB801CE010E94472ECE01DF91BF
:10182000CF911F910F91089550E04F5F5F4FB80126
:10183000CE010E94622EF2CF4EE450E070E060E0F4
:1018400086EB93E00C94692B0F931F93CF93DF9358
:10185000EC0188819981009759F02A813B812617F4
:10186000370730F081E0DF91CF911F910F910895FC
:101870008B016F5F7F4F0E94812D009759F09983F4
:1018800088831B830A832C813D81232B59F7FC011C
:101890001082E8CF80E0E7CFEF92FF920F931F9383
:1018A000CF93DF93EC01FB01E080F180E114F104C0
:1018B00011F10481158101151105A9F08C819D811B
:1018C000080F191FB801CE010E94240C882399F03B
:1018D000288139818C819D81B701820F931F0E94DD
:1018E0005B2E1D830C83CE01DF91CF911F910F9151
:1018F000FF90EF900895CE010E94CC0AF4CFEF92B2
:10190000FF920F931F93CF93DF93EC017B0119821A
:1019100018821B821A821D821C82FB01019000200A
:10192000E9F731978F01061B170BB8010E94240CB1
:10193000811109C0CE01DF91CF911F910F91FF90CE
:10194000EF900C94CC0A1D830C83B7018881998198
:10195000DF91CF911F910F91FF90EF900C945B2E30
:101960006F927F928F929F92AF92BF92CF92DF92AF
:10197000EF92FF920F931F93CF93DF93CDB7DEB714
:10198000E988FA88FE017496D12CC12C712CAB88A1
:10199000B12C80E1682E872D90E0CA14DB042CF571
:1019A0002FE0271510F14F0122E0820E911C60817B
:1019B0007181FB0101900020E9F731978F01061B2F
:1019C000170B9C01200F311D462D47192131310580
:1019D0000CF4402F50E08E0D9F1D0E94622E700E61
:1019E0008FEFC81AD80AF401D6CF8E0D9F1DFC01C7
:1019F0001082C701DF91CF911F910F91FF90EF905F
:101A0000DF90CF90BF90AF909F908F907F906F901E
:101A10000895CF92DF92EF92FF920F931F93CF938F
:101A2000DF93CDB7DEB760970FB6F894DEBF0FBE79
:101A3000CDBF188A1F862AE32F872CE330E040E0D1
:101A400050E00E94812B6B01B901CE0101960E94EA
:101A5000670B8E01045F1F4F42E0BE016F5F7F4F37
:101A6000C8010E94E00BB601CE0101960E94670BEF
:101A70007E0189E0E80EF11C42E0BE016F5F7F4FFE
:101A8000C7010E94E00BFF92EF92CE010F969F9349
:101A90008F931F930F9383E08F9388E094E09F933D
:101AA0008F930E94B00C0FB6F894DEBF0FBECDBF6F
:101AB00088E094E060960FB6F894DEBF0FBECDBF0D
:101AC000DF91CF911F910F91FF90EF90DF90CF901A
:101AD00008958F929F92AF92BF92CF92DF92EF9232
:101AE000FF920F931F93CF93DF93CDB7DEB760972D
:101AF0000FB6F894DEBF0FBECDBF188A1F862AE34B
:101B00002F872CE330E040E050E00E94812B4B0116
:101B100079012D30310514F02C503109B901CE0175
:101B200001960E94670B8E01045F1F4F42E0BE01C9
:101B30006F5F7F4FC8010E94E00BB401CE01019698
:101B40000E94670B6E0199E0C90ED11C42E0BE01F4
:101B50006F5F7F4FC6010E94E00B8CE0E816F10436
:101B600074F586E791E09F938F93DF92CF92CE0139
:101B70000F969F938F931F930F9384E08F9388E02A
:101B800094E09F938F930E94B00C0FB6F894DEBF41
:101B90000FBECDBF88E094E060960FB6F894DEBF2C
:101BA0000FBECDBFDF91CF911F910F91FF90EF90AE
:101BB000DF90CF90BF90AF909F908F9008958FE669
:101BC00091E0D1CFCF92DF92EF92FF920F931F93CC
:101BD000CF93DF93CDB7DEB765970FB6F894DEBF2E
:101BE0000FBECDBF82508D3108F0C2C1E82FF0E0AA
:101BF000E450F24F0C944F2C190E7F0EB80F960E36
:101C0000C50EE10EB80FEE0E1C0FB80FF70E280F21
:101C1000B80F310F3E0F4C0F6E0FB50FB80F730F8B
:101C20007C0FB80F850F8E0F990FA20FB80FB00F52
:101C3000AB0F1D8A1C8A8FE28C8B6091B40370916C
:101C4000B503CE0101960E94670B8E010F5E1F4FF8
:101C500042E0BE016F5F7F4FC8010E94E00B6091C0
:101C6000B2037091B303CE0101960E94670B7E010F
:101C70008EE0E80EF11C42E0BE016F5F7F4FC701AE
:101C80000E94E00B6091B0037091B103CE01019608
:101C90000E94670B6E0199E0C90ED11C44E0BE01A1
:101CA0006F5F7F4FC6010E94E00BDF92CF92CE01A3
:101CB00044969F938F93FF92EF929F938F931F93DE
:101CC0000F9385E08F9388E094E09F938F930E9419
:101CD000B00C0FB6F894DEBF0FBECDBF88E094E025
:101CE00065960FB6F894DEBF0FBECDBFDF91CF91E2
:101CF0001F910F91FF90EF90DF90CF900895A091EA
:101D00000604B09107042CE330E00E94552C0091AA
:101D1000040410910504012E000C220B330B600FFC
:101D2000711F821F931F0E94690DD8CF6091C50358
:101D30007091C6036D30710514F06C507109CE01BD
:101D400001960E94670B8E01075F1F4F42E0BE01A4
:101D50006F5F7F4FC8010E94E00B8091C503909197
:101D6000C6030C971CF483E791E002C08CE691E077
:101D70009F938F931F930F9382E08F9388E094E05B
:101D80009F938F930E94B00CA4CF6091C703709172
:101D9000C8036D30710514F06C507109CE010196C5
:101DA0000E94670B8E01075F1F4F42E0BE016F5F0D
:101DB0007F4FC8010E94E00B8091C7039091C80338
:101DC000D0CF6091D0037091D103CE0101960E94D3
:101DD000670B2EE731E03F932F9340C06091CB0318
:101DE0007091CC03CE0101960E94670B2BC000912D
:101DF000030110910401B8010D30110514F06C506D
:101E00007109CE0101960E94670B7E0199E0E90EEF
:101E1000F11C42E0BE016F5F7F4FC7010E94E00BE3
:101E200083E791E00C30110514F08CE691E09F936C
:101E30008F93FF92EF92A0CF8091CF03882329F058
:101E400083E192E09F938F933BC08AE791E0FACFC2
:101E500085E891E09F938F938DE891E09F938F9316
:101E60008BCF6091D8037091D9036330710509F06D
:101E700086C02FE931E08AE791E0ADCF6091DC03C5
:101E80007091DD0363307105A1F3CE0101960E94CC
:101E9000670B2FE631E09FCF6091E0037091E10383
:101EA000CE0101960E94670B8E01075F1F4F43E032
:101EB000BE016F5F7F4FC8010E94E00B1F930F931D
:101EC00081E08F9388E094E09F938F930E94B00C01
:101ED0000F900F900F900F900F9000CF6091E20342
:101EE0007091E303DDCF6091E4037091E50380918D
:101EF000E6039091E70317CF6091E8037091E9033F
:101F00008091EA039091EB030ECF6091F4037091FE
:101F1000F5038091F6039091F70305CF6091F803E4
:101F20007091F9038091FA039091FB030E94090DCF
:101F3000D5CE6091FC037091FD038091FE039091DA
:101F4000FF03F1CE609100047091010480910204BE
:101F500090910304EBCF6091D6037091D70342CFE9
:101F60006091D4037091D5033DCF10920804B6CE92
:101F700066E371E088E094E00E945B2EAFCECE0174
:101F800001960E94670B26E731E025CF6F927F9282
:101F90009F92AF92BF92CF92DF92EF92FF920F93F8
:101FA0001F93CF93DF93CDB7DEB7A3970FB6F89407
:101FB000DEBF0FBECDBFCE0109960E94230A6C85FD
:101FC000662309F4E4C06C3011F008F06C5070E046
:101FD000CE0101960E94670B8E01085E1F4F42E002
:101FE000BE016F5F7F4FC8010E94E00BCE010996D2
:101FF0000E94230A6D8570E0CE0101960E94670B56
:102000007E012BE1E20EF11C42E0BE016F5F7F4FCB
:10201000C7010E94E00BCE0109960E94230A6E853B
:1020200070E0CE0101960E94670B6E013EE1C30E87
:10203000D11C42E0BE016F5F7F4FC6010E94E00BE2
:1020400060E080E00E94D107CE0109960E94230A39
:102050008C858C3008F09DC089E991E09F938F9327
:10206000DF92CF9280EA91E09F938F93FF92EF925D
:102070009F938F931F930F938DE9E82E81E0F82EA5
:10208000FF92EF9297E0992E9F920AE214E01F933D
:102090000F930E94B00C0E94550BCE0109960E942E
:1020A000230A6B8570E0CE0101960E94670B6E01DA
:1020B00081E2C80ED11C42E0BE016F5F7F4FC601B6
:1020C0000E94E00BCE0109960E94230A698570E008
:1020D0006053784FCE0101960E94670B3E012FE0BE
:1020E000620E711C44E0BE016F5F7F4FC3010E940E
:1020F000E00BCE0109960E94230A8A858150990B34
:1021000026E0289FF001299FF00D1124ED59FB4F87
:10211000608171815E0134E1A30EB11CC5010E9492
:102120005B2E61E080E00E94D1078CE991E09F93F3
:102130008F937F926F9282EA91E09F938F93BF92E9
:10214000AF929F938F93DF92CF92FF92EF929F92E5
:102150001F930F930E94B00C0FB6F894DEBF0FBE12
:10216000CDBF0E94550BA3960FB6F894DEBF0FBEED
:10217000CDBFDF91CF911F910F91FF90EF90DF9036
:10218000CF90BF90AF909F907F906F9008956CE03C
:102190001ECF82E991E062CFCF92DF92EF92FF9261
:1021A000E0911B03E93058F5F0E0E652FF4E84E081
:1021B0000C944F2CE31004111511261137114A11FC
:1021C0007E11E01107120E942E03892BC1F00E949C
:1021D000C52A23E130E040E050E00E94812B6F5F90
:1021E0007F4F8F4F9F4F80E00E94CD0568EE73E0D8
:1021F00080E090E00E94230481E080931B03FF9025
:10220000EF90DF90CF9008950E942E03892BB9F3B1
:102210006091AE0481E00E94CD0568EE73E080E03D
:1022200090E00E94230482E0E8CF0E942E03892BD5
:1022300031F36091AC048FE20E94CD0568EE73E04B
:1022400080E090E00E94230483E0D7CF0E942E0319
:10225000892BA9F26091AD0480E30E94CD0568EE60
:1022600073E080E090E00E94230484E0C6CF0E94E7
:102270002E03892B21F20E94A40261E0680F81E302
:102280000E94CD0568EE73E080E090E00E94230498
:1022900085E0B3CF0E942E03892B09F4B0CF809143
:1022A000AE04863019F08D7F8830C9F48091AB047C
:1022B00090E08053984F2091D4033091D503281794
:1022C000390779F48091AC046091AD048E5C0E9472
:1022D000CD0568EE73E080E090E00E94230486E084
:1022E0008CCF2150310928173907C9F78091AC04E8
:1022F0008C30A9F76091AD0482E3E9CF0E942E03F0
:10230000892B09F47CCF2091D8033091D903809197
:10231000AE0490E02817390719F423303105D9F5B8
:102320002091DC033091DD03A901445F5F4F8417E6
:102330009507E9F1C090D003D090D1030D2C000C8B
:10234000EE08FF0861E070E080E090E082E0C816EF
:10235000D104E104F10474F00E94C52AA70196019A
:1023600021503109410951090E94812B6F5F7F4F34
:102370008F4F9F4F82E10E94730568EE73E080E00B
:1023800090E00E9423048091D2039091D303892B83
:10239000A9F488E032CF6091E00382E00E94CD058D
:1023A00068EE73E080E090E00E942304F2CF2330D7
:1023B000310509F4BFCF6091E203EFCF87E01DCF75
:1023C0000E942E03892B09F41ACFC090D203D0901B
:1023D000D3030D2C000CEE08FF0861E070E080E0F4
:1023E00090E082E0C816D104E104F10474F00E9488
:1023F000C52AA701960121503109410951090E94BE
:10240000812B6F5F7F4F8F4F9F4F86E0C7CF0E941A
:102410002E03892B09F4F3CE10921B030E940408AB
:10242000109232030E94560460933803709339036C
:1024300080933A0390933B0360E08CE0FF90EF9031
:10244000DF90CF900C9457031F93CF93DF93CDB7BA
:10245000DEB761970FB6F894DEBF0FBECDBF0E9406
:102460009502182F60E080E00E94D1070E942602AA
:1024700090914104E0913E04F0913F04882349F19A
:1024800086E0989FE00DF11D1124319665917491BD
:10249000CE0101960E941D2B0E94AC0B8EE780930B
:1024A00039048AE294E00E94550B8BEE810F61E0C3
:1024B000823020F0812F8D7F883131F580E00E94BD
:1024C000D1078EE991E00E94550B812F0E94E20D09
:1024D00020C086E0989FE00DF11D11243196659192
:1024E0007491CE0101960E941D2B0E94AC0B0E949C
:1024F0009502182F81111BC08FE7809339048AE25F
:1025000094E00E94550B61E080E00E94D10781E2D7
:1025100091E00E94AC0B0E94550B61960FB6F894A7
:10252000DEBF0FBECDBFDF91CF911F9108958AE22C
:1025300094E00E94550B61E0C1CF1F920F920FB63D
:102540000F9211242F933F938F939F93AF93BF9339
:102550008091D3029091D402A091D502B091D6027D
:102560003091D20223E0230F2D3768F126E8230FA4
:102570000296A11DB11D2093D2028093D3029093A5
:10258000D402A093D502B093D6028091D702909145
:10259000D802A091D902B091DA020196A11DB11D15
:1025A0008093D7029093D802A093D902B093DA0215
:1025B000BF91AF919F918F913F912F910F900FBE3F
:1025C0000F901F9018950196A11DB11DD4CF1F9299
:1025D0000F920FB60F9211242F933F934F935F9357
:1025E0006F937F938F939F93AF93BF93EF93FF93DB
:1025F000E091DD02F091DE02309749F0A685B785C3
:102600008585968D91FF14C09C918923A1F4FF913B
:10261000EF91BF91AF919F918F917F916F915F915A
:102620004F913F912F910F900FBE0F901F901895D3
:102630009C91892361F7A389B4899C9185898095B0
:1026400089238C93868997890197F1F7608D718D25
:10265000A685B785558538E020E0CB010197F1F7D5
:10266000822F90E095958795282F4C91452309F06E
:102670002068315091F7868D81FD20958091DC0294
:1026800090E001968F7399273091DB02381799F00B
:10269000A091DC02B0E0AE56BD4F2C938093DC02DB
:1026A000828D938D0197F1F7A389B4898C919589D7
:1026B000892B8C93ACCF868D8160868FF1CF1F9252
:1026C0000F920FB60F9211242F933F934F935F9366
:1026D0006F937F938F939F93AF93BF93EF93FF93EA
:1026E0008091B900887F803609F44AC0F0F58832BD
:1026F00009F4A7C018F5803109F49BC0B8F4882309
:1027000009F4F9C0883009F494C0FF91EF91BF91AA
:10271000AF919F918F917F916F915F914F913F9179
:102720002F910F900FBE0F901F901895883109F4CC
:1027300088C0803251F78093890314C0803409F433
:102740009DC040F48033B9F38833F9F68093890350
:1027500085ECB0C0803509F485C0883509F496C091
:10276000883499F60E94D406D0CF883909F48CC0F9
:1027700038F5883729F050F4883611F0803729F67B
:1027800083E080938B031092910257C0883809F43C
:102790007BC0803919F0803809F0B7CF8091910261
:1027A000803208F071C0E091910281E08E0F809339
:1027B00091028091BB00F0E0EF58FD4F80833DC057
:1027C000803B39F0E0F4803A09F479C0883A09F0A6
:1027D0009CCF84E080938B031092700210926F0262
:1027E000E0914103F0914203099580916F028111BC
:1027F0000FC081E080936F0210924F0209C0803CAD
:1028000009F4A6CF883C09F4A3CF883B09F07DCF1B
:10281000E091700281E08E0F80937002F0E0E15B46
:10282000FD4F80818093BB009091700280916F0278
:1028300029C0809166038093BB0085EC8093BC0027
:1028400064CF9091880380918703981758F5E091A1
:10285000880381E08E0F80938803F0E0E959FC4FF4
:102860008081E9CFE091880381E08E0F8093880317
:102870008091BB00F0E0E959FC4F80839091880380
:10288000809187039817C8F285E8D8CFE091880334
:1028900081E08E0F809388038091BB00F0E0E959BE
:1028A000FC4F808380918A0381115CCF81E080930B
:1028B000650384EA8093BC0010928B0326CF85ECDD
:1028C0008093BC0010928B0380919102803230F48F
:1028D000E0919102F0E0EF58FD4F1082609191027B
:1028E00070E0E0913F03F091400381E792E00995A9
:1028F000109291020ACF1092890334CF10925A0499
:102900001092590488EE93E0A0E0B0E080935B045D
:1029100090935C04A0935D04B0935E0420E431E0E6
:1029200030935804209357041092E6041092E50463
:102930008093E7049093E804A093E904B093EA0439
:102940008EE591E09093E4048093E3041092FA04FE
:102950001092F9041092FC041092FB041092FE04F1
:102960001092FD04109200051092FF046091010581
:102970006E7F6D7F609301056695617081E06827C9
:1029800083E00E94570361E083E00E94B703E0EE1A
:10299000F3E0E491E093F304E9ECF3E0E491F0E098
:1029A000EE0FFF1FE454FC4F859194919093F50432
:1029B0008093F40460E082E00E94B70380910105F7
:1029C00081FD04C061E082E00E94570382E08093B1
:1029D000EF04EFEDF3E0E491E093F004E8ECF3E0D2
:1029E000E491F0E0EE0FFF1FEE54FC4F259134917F
:1029F0003093F2042093F10444EF51E060E070E082
:102A00004093C3045093C4046093C5047093C604F8
:102A10009AE0E7E1F1E0A1EDB4E001900D929A9522
:102A2000E1F71092DB048093DC041092E104109231
:102A3000E2041092B4041092B30422E531E0309322
:102A4000B2042093B10497E29093B50490E190937F
:102A5000BA048093BB041092BC041092B00410928C
:102A6000AF041092AE041092AB04E7EAF3E081E009
:102A70008C3051F09491823009F49F5F21E0280F4F
:102A80003196992309F44DC08093AC0481E0809382
:102A9000AD0464EA71E083E694E00E947F0C68EA8A
:102AA00071E089E694E00E947F0C6CEA71E08FE6A9
:102AB00094E00E947F0C60EB71E085E794E00E9457
:102AC0007F0C64EB71E08BE794E00E947F0C68EB75
:102AD00071E081E894E00E947F0C6CEB71E087E884
:102AE00094E00E947F0C60EC71E08DE894E00E941D
:102AF0007F0C64EC71E083E994E00E947F0C68EC49
:102B000071E089E994E00E947F0C6CEC71E08FE940
:102B100094E00E947F0C60ED71E085EA94E00C94F3
:102B20007F0C822FA5CFCF93DF93CDB7DEB7AD97C4
:102B30000FB6F894DEBF0FBECDBF789484B5836026
:102B400084BD85B5836085BD80916E008160809372
:102B50006E0082E08093810080918100816080938B
:102B60008100809180008160809380008091B1001D
:102B700084608093B1008091B00081608093B00048
:102B800087E880937A001092C10080E480937C00F3
:102B900080917A00806480937A0080917A0086FD2B
:102BA000FCCF8091780060917900762F682F072EF6
:102BB000000C880B990B611571058105910511F0C9
:102BC0000E94142B61E08CE00E94B70361E08AE070
:102BD0000E94B70361E08FE00E94B70361E08EE0DE
:102BE0000E94B70361E08BE00E94B70362E084E0DB
:102BF0000E94B70362E085E00E94B70362E086E0CE
:102C00000E94B70362E087E00E94B70362E088E0B9
:102C10000E94B70362E080E10E94B7030E9485032F
:102C20004EE450E070E060E086EB93E00E94592BA8
:102C300067E271E086EB93E00E94522E892B09F443
:102C4000AAC067E271E086EB93E00E945B2E84E607
:102C500090E09093D1038093D0039093D30380931B
:102C6000D20385E090E09093C6038093C50386E18C
:102C700090E09093C8038093C70384E190E0909321
:102C8000CA038093C9039093CC038093CB0383E062
:102C900090E09093D9038093D8039093DB038093C3
:102CA000DA039093DF038093DE039093DD03809338
:102CB000DC0381E090E09093E1038093E00382E005
:102CC00090E09093E3038093E20387E394E0A0E035
:102CD000B0E08093E4039093E503A093E603B09300
:102CE000E70387E691E0A0E0B0E08093E8039093EB
:102CF000E903A093EA03B093EB031092EC03109264
:102D0000ED031092EE031092EF031092F003109275
:102D1000F1031092F2031092F3038CE291E0A0E031
:102D2000B0E08093F4039093F503A093F603B0937F
:102D3000F70383E790E0A0E0B0E08093F80390937E
:102D4000F903A093FA03B093FB034CEF53E060E068
:102D500070E04093FC035093FD036093FE03709377
:102D6000FF038093000490930104A0930204B093A6
:102D700003041092CD031092CE031092CF038BE385
:102D800091E09093D7038093D60386EE97E09093DB
:102D9000D5038093D4030E9485031092B6048091DA
:102DA000BB04823018F098E09093B6048093B90485
:102DB00062E370E080E090E00E9423046091BC0434
:102DC00081EB94E00E948A0768EE73E080E090E077
:102DD0000E94230460E381EB94E00E949E0784E953
:102DE00091E10E94F30360E381EB94E00E949E076F
:102DF00084E991E10E94F30360E381EB94E00E9497
:102E00009E0786E990E00E94F30360E281EB94E084
:102E10000E949E076091B604606240E081EB94E0FE
:102E20000E94BA0784E08093B70440E06CE081EB35
:102E300094E00E94BA070E94040872E0D72ED09254
:102E4000B80440E066E081EB94E00E94BA0740E0FD
:102E500062E081EB94E00E94BA0780ED97E00E9467
:102E6000F30388E08093BC0460E081EB94E00E946F
:102E70008A0760E085E00E94D10785E393E00E9425
:102E8000140861E080E00E94D10784E293E00E9490
:102E9000140860ED77E080E090E00E9423040E9437
:102EA000040860E080E00E94D1076091D403709133
:102EB000D5039E012F5F3F4F3DA72CA7C9010E945C
:102EC000670B81E090E08C0F9D1F9F938F9384EDA3
:102ED00091E09F938F93DF920AE214E01F930F9388
:102EE0000E94B00C0E94550B61E080E00E94D10767
:102EF0006091D6037091D703CE0101960E94670BB3
:102F0000A1E0B0E0AC0FBD1FBF93AF938FED91E098
:102F10009F938F93DF921F930F930E94B00C0E9498
:102F2000550B60ED77E080E090E00E9423040E9462
:102F3000040860E083E00E94D1078DEE91E00E94DA
:102F4000550B85E00E942E030FB6F894DEBF0FBE2E
:102F5000CDBF892B09F042C061E080E00E94D1071B
:102F600088EF91E00E94550B81E08093DF0208E634
:102F700057E5A52E54E0B52E60E2862E912C11E087
:102F800080913D0390913E03009711F00E94F82C30
:102F900086E090E00E945C2C7C01DC010C93129690
:102FA000BC92AE92119713961C92139715969C9211
:102FB0008E92149790933E0380933D030E94850365
:102FC000F7011383C7010E94AF0681110AC00E9456
:102FD00004088DE193E00E941408D2CF1092DF0222
:102FE000C6CF1BA680913D0390913E03DC01149651
:102FF0002D913C911597232B89F02C9110938C03E4
:103000002093AE0310928D031092AF0321E041E0B4
:1030100050E0BE01655D7F4F0E94910641E050E0A7
:10302000BE016D5E7F4F80913D0390913E030E94F3
:10303000ED088B8990E0880F892F881F990B892BC9
:1030400079F00E94040886E193E00E94140860ED84
:1030500077E080E090E00E94230481E08093DF022B
:1030600088E00E942E03892B09F408C11092FE0407
:103070001092FD041092FC041092FB041092FA04CA
:103080001092F9048DE991E0909300058093FF047C
:103090008091EF04873108F04BC02DEB30E0309386
:1030A000FA042093F9042BE931E03093FC042093D7
:1030B000FB042CE231E03093FE042093FD042091C8
:1030C000680094E0883054F091E08E303CF092E05B
:1030D000843124F091E0863109F490E0922B9093B2
:1030E00068002DE630E0883074F08E300CF47DC03E
:1030F00084313CF086310CF478C030E020E0863139
:1031000011F42CE630E03093F7042093F604883075
:103110000CF06EC091E001C0990F8A95EAF7892FF3
:103120008093F8048091FF04909100050197F1F7D6
:103130008091FD049091FE04892B49F1E091DD021C
:10314000F091DE02B4E0E33EFB0709F1309739F07D
:10315000A389B4899C918589809589238C938091DA
:1031600001058E7F809301051092DC021092DB0234
:1031700083EE94E09093DE028093DD02E091F6040A
:10318000F091F70480819091F804892B808364EF9B
:1031900071E080E090E00E94230403EE14E0DD245F
:1031A000D3941093BE040093BD04D092D50470E074
:1031B00060E08CE00E9473050E9456044B015C01A4
:1031C0000E946204811122C00E9456046819790984
:1031D0008A099B09613D774081059105B8F460E05B
:1031E00070E0CB010E942304EBCF2BE630E08BCFC5
:1031F0008E3014F488508ECF863114F48E508ACFDE
:10320000863111F080E08CCF80E48ACF68EC70E0EA
:1032100080E090E00E9423041092E1048091DD049C
:10322000843069F0893059F00E94040860E080E041
:103230000E94D1078FE093E00E941408B2CF84EF80
:1032400091E0A0E0B0E08093C3049093C404A09305
:10325000C504B093C6046091CB037091CC0377276B
:1032600086E00E94730562E070E089E00E947305C9
:1032700068EC70E080E090E00E9423040E94040863
:103280000E945604609338037093390380933A0385
:1032900090933B038091DF02882309F4C2C12BEE97
:1032A00032E030933C0420933B0486E080933D045D
:1032B00030933F0420933E048093400410924104D5
:1032C0001092560486E00E942E03892BF1F487E0C9
:1032D0000E942E03892BC9F42BEB32E030933C047F
:1032E00020933B0483E080933D0430933F0420937C
:1032F0003E0480934004109241041092560481E0F1
:103300008093320383E00E94241285E00E942E0302
:10331000892B09F48EC110922403772473940E94A0
:103320005604C0900D03D0900E03E0900F03F09070
:1033300010036C197D098E099F096431710581059F
:10334000910508F49FC00E94560460930D0370938A
:103350000E0380930F039093100385E00E942E03C9
:103360007C0186E00E942E0301E0892B21F0EF28EA
:1033700009F400E0019587E00E942E03892B09F4EF
:1033800002E088E00E942E03892B09F403E080E12B
:103390000E942E03892B09F404E080EEC82E82E0FF
:1033A000D82E94EFE92E92E0F92E22E2822E21E02F
:1033B000922E38E0A32E33E0B32E11E0312C3110E1
:1033C00042C1D4018C9180133EC1332433944424F0
:1033D0004394F50181915F018415B1F0442009F413
:1033E00034C1812F0E9431080E945604D7016D9389
:1033F0007D938D939C931397F601608371838283F1
:103400009383F50131974082442079F10E9456045C
:10341000F7012081318142815381621B730B840B40
:10342000950B613D774081059105F8F00E945604A7
:10343000D6012D913D914D915C91621B730B840BD4
:10344000950B6B3F71058105910578F08A2DE8E0B9
:10345000F3E08E1B80680E9431080E945604D6015A
:103460006D937D938D939C9313971F5FB4E0CB0E68
:10347000D11CE4E0EE0EF11CFFEF8F1A9F0A16300C
:1034800009F09DCF9091170319160CF4F6C0109215
:103490003C0380913C03833801F580913303811113
:1034A0001CC08091CE03811149C17092CE0361E0AE
:1034B0000E94D10784E793E00E9414086091CE0334
:1034C0008FE00E94570368EE73E080E090E00E9476
:1034D00023040E941C0C7092330310913C03009152
:1034E00032038EE3810F843008F031C11092330330
:1034F0000E9456048090380390903903A0903A03BC
:10350000B0903B03681979098A099B096D327140B3
:103510008105910540F01092310310923003109212
:103520002E0310922D030E94560480902903909040
:103530002A03A0902B03B0902C03681979098A09FB
:103540009B09653F71408105910508F44DC080914C
:10355000CE03882309F448C00E94560460932903CF
:1035600070932A0380932B0390932C038090E403A1
:103570009090E503A090E603B090E70381149104D6
:10358000A104B10489F14091E8035091E9036091ED
:10359000EA037091EB03411551056105710521F1B5
:1035A00080911C0390911D03A0911E03B0911F03F5
:1035B00020912F0384169506A606B7060CF0F7C0D7
:1035C00088159905AA05BB050CF4E7C08417950773
:1035D000A607B7070CF0E1C0211106C061E08BE03F
:1035E0000E94570370922F036091CE038FE00E94D8
:1035F00057036091CD038EE00E945703023009F417
:1036000090C508F0DBC0002309F465C1013009F45E
:103610000EC480E090E0892B09F481CE0E94000066
:103620007CCE2DEC32E030933C0420933B0485E0CB
:103630003DCE88E00E942E03892B09F06CCE81E0FC
:10364000809324036ACE412CC4CE0E945604D70135
:103650002D913D914D915C91621B730B840B950BE9
:10366000613D77408105910528F0812F806C0E9493
:103670003108C7CE812F8064FACF80911603E82FDE
:10368000F0E0EF5EFC4F10819150909317038F5F35
:10369000853008F047C08093160310933C03112334
:1036A00009F41BCF0E9456046093380370933903CA
:1036B00080933A0390933B030E9456046093340333
:1036C00070933503809336039093370388E080939B
:1036D000BC0460E081EB94E00E948A07123809F094
:1036E000D8CE809133038111F8CE8091CD03811122
:1036F0001CC07092CD0361E00E94D10786E993E07F
:103700000E9414086091CD038EE00E94570368EE7A
:1037100073E080E090E00E9423040E941C0C7092F1
:103720003303B7CE10921603B8CF1092CD0361E0E9
:1037300080E00E94D10785E893E0E2CF1092CE03AB
:1037400061E080E00E94D10783E693E0B5CE1330BC
:1037500009F0CECE002319F0053009F0C9CE8091D2
:10376000300390913103019690933103809330039D
:1037700002970CF4BDCE8BE00E942E0361E0892BF2
:1037800009F060E08BE00E94570381E090912F03E5
:10379000911180E080932F03ABCE213009F024CF2C
:1037A00060E08BE00E94570310922F031DCF881515
:1037B0009905AA05BB050CF00FCF08CF043009F41A
:1037C0004CC208F413C2053009F023CF61E08CE04D
:1037D0000E94570361E08AE00E9457030E9456044A
:1037E000C0902003D0902103E0902203F0902303A7
:1037F0006C197D098E099F09693E73408105910509
:1038000070F10E945604609320037093210380930B
:103810002203909323030E94C60FCE0101960E94BB
:10382000230AEC803CE3E39E70011124CE01439611
:103830000E94230A8F898E0D9F2D911D092E000C49
:10384000AA0BBB0B80931C0390931D03A0931E0334
:10385000B0931F038091CD0381110E946A080E94DA
:103860005604009138031091390320913A033091A6
:103870003B036B017C01C01AD10AE20AF30AA09152
:10388000C903B091CA0328EE33E00E94552C6C1591
:103890007D058E059F0538F41092BC0460E081EB35
:1038A00094E00E948A0761E080E00E94D10781E4F1
:1038B00093E00E94140880913C03853809F0A9CE5A
:1038C000809133038111A5CE109232031092190317
:1038D0001092180353C160E08CE00E94570360E02F
:1038E0008AE00E945703113879F47092320383E022
:1038F0000E9424120E94560460933403709335038F
:10390000809336039093370380913C03813019F5FF
:1039100080912D0390912E03019690932E03809316
:103920002D030497C4F0CE0101960E94230A8D81D5
:103930008F3108F428C1CE0143960E94230A8E8954
:1039400090E00196909304018093030184E08093BA
:1039500032030E940408CE0101960E94230A8D8141
:1039600081115DC0CE0143960E94230A888D81118A
:1039700056C00E945604AB01BC0180912503909172
:103980002603A0912703B0912803885B9141AF4F94
:10399000BF4F84179507A607B70708F040C0CE01B0
:1039A00001960E94230A86E0FE013196ABEAB4E05C
:1039B00001900D928A95E1F78091AE0490E02091FC
:1039C000C5033091C603821793074CF12091C703BA
:1039D0003091C8032817390714F18091CF03882349
:1039E00009F4D8C00E94A402882309F4D3C08091AE
:1039F000AE048A50873008F0CDC00E94040860E011
:103A000080E00E94D10785E092E00E94550B68EEAD
:103A100073E080E090E00E9423040E9404088091FB
:103A20003C038230D1F5809124038823B1F10E94B8
:103A30005604685575418140910960932503709340
:103A400026038093270390932803CE0101960E94BA
:103A5000230A8D818E3108F0AFC0CE0143960E94BB
:103A6000230AFE88CE0149960E94230AEB8CCE01E0
:103A70004F960E94230AD8A0CE0185960E94230A61
:103A80008DA18983DA82EB82FC828DE18D8387E3CD
:103A90008E83CE0101960E94A1090E945604C09017
:103AA0002003D0902103E0902203F09023036C19AF
:103AB0007D098E099F09693E73408105910570F16A
:103AC0000E94560460932003709321038093220385
:103AD000909323030E94C60FCE0101960E94230AF1
:103AE000EC80BCE3EB9E70011124CE0143960E9452
:103AF000230A8F898E0D9F2D911D092E000CAA0B74
:103B0000BB0B80931C0390931D03A0931E03B093E3
:103B10001F038091CD0381110E946A080E94560400
:103B2000009138031091390320913A0330913B03FF
:103B30006B017C01C01AD10AE20AF30AA091C90301
:103B4000B091CA0328EE33E00E94552C6C157D0518
:103B50008E059F0538F41092BC0460E081EB94E080
:103B60000E948A0780913C03853809F052CD8091EC
:103B7000330381114ECD85E0809332030E94040807
:103B80007092330346CDCE0149960E94230A8C8D54
:103B900090E0D8CE61E08CE00E9457030E9456046A
:103BA0006093250370932603809327039093280343
:103BB00083E08093320331CFCE0143960E94230AE3
:103BC000FE88CE0149960E94230AEB8CCE014F96C7
:103BD0000E94230AD8A0CE0185960E94230A8DA1B7
:103BE0008983DA82EB82FC828BE350CF88E080937A
:103BF000BC0460E081EB94E00E948A0761E080E011
:103C00000E94D10786E192E00E94550B0E94560463
:103C1000AB01BC018091250390912603A09127035D
:103C2000B091280388579C4EAF4FBF4F4817590794
:103C30006A077B0710F00E94CC1080913C0384340B
:103C400009F0E7CC80912403882309F4E2CC70E0EA
:103C500060E086E10E947305DCCC60E080E00E94B9
:103C6000D10782E593E00E94140861E080E00E94A1
:103C7000D107E0900301F090040160E771E0ECE00F
:103C8000EE16F10414F467E771E0CE0143960E944A
:103C90007F0CFDE0EF16F1041CF02CE0E21AF108B5
:103CA0001A8E198E1C8E1B8E1E8E1D8E4AE0BE0132
:103CB0006F5F7F4FC7010E94242BECA5FDA50190EB
:103CC0000020E9F731977F018CA59DA5E81AF90A34
:103CD000B701CE0149960E94240C811190C0CE01FB
:103CE00049960E94CC0A67E272E0CE0101960E94DA
:103CF0007F0CBE01675E7F4FCE0101960E944C0C87
:103D0000BE016D5E7F4F0E944C0CDC0114964D91FC
:103D10005C9115976D917C9181EB94E00E94D802A3
:103D200089819A810E94F82C898D9A8D0E94F82CA5
:103D30008B899C890E94F82C61E08CE00E945703DB
:103D4000F0900301CE0101960E94230AEB80CE0180
:103D500043960E94230ADC88CE0149960E94230ADA
:103D6000898D8093AB04D092AC04E092AD04F092C4
:103D7000AE041092AF041092B0040E94CC10809157
:103D80003C03843041F488E080931B0370E060E0E2
:103D900086E10E94730580913C038F778230C9F5DC
:103DA0008091CB039091CC0301968F31910514F053
:103DB0008AE090E09093CC038093CB030E941C0C8C
:103DC0000E94040861E080E00E94D10784E392E051
:103DD0000E94550B8091CB039091CC030E942C0B39
:103DE0006091CB037091CC03772786E00E94730526
:103DF00064E670E080E090E00E9423040ACCFE8E2E
:103E0000ED8EBE016F5F7F4F898D9A8D0E945B2E74
:103E10006ACF833009F0FDCB8091CB039091CC0326
:103E200001978A30910534F68EE190E0C3CF0E946D
:103E30005604C0903403D0903503E0903603F090E0
:103E400037036C197D098E099F0961337547810518
:103E50009105D8F084E00E942E03892B11F40E9472
:103E6000490880913B0490913C0490933F048093D7
:103E70003E0480913D0480934004109241041092CE
:103E80005604109232030E9404080E949502813069
:103E900009F057C0CE0101960E94230A8B8190E061
:103EA0009093B5038093B403CE0101960E94230A38
:103EB0008A8190E09093B3038093B203CE01019680
:103EC0000E94230A898190E08053984F9093B10318
:103ED0008093B003CE0101960E94230A8C8190E06A
:103EE0009093070480930604CE0101960E94230A52
:103EF0008D8190E090930504809304040E949502C4
:103F0000833049F10E949502853129F10E94950282
:103F1000863109F10E9495028831E9F00E949502EC
:103F20008931C9F00E9495028A31A9F00E94950258
:103F30008B3189F00E949502823079F480931A03C4
:103F40000CC00E949502823009F4A4CF0E94950211
:103F50008330A1F69FCF10921A0380913C038438DE
:103F6000A1F480913B0490913C0490933F04809392
:103F70003E0480913D0480934004109241041092CD
:103F80005604109232030E9404080E945208182F0F
:103F90008DEF810F823008F0A6C00E949502882321
:103FA000E1F01430D1F00E942602811159C082E064
:103FB000809332030E949502882309F42ACB61E0A2
:103FC00080E00E94D1078EE780932A0410922B0490
:103FD0008AE294E00E94550B1CCB8091560481111B
:103FE0001AC080913B0490913C0490933F048093CD
:103FF0003E0480913D04809340041092410484E08B
:104000000E942E03892B11F40E9449080E94040883
:1040100010923203FECA81508093560490E0DC0176
:10402000AA0FBB1FAA0FBB1FA55CBB4F19962D91F2
:104030003C911A9730933F0420933E04880F991FB8
:10404000880F991FFC01ED5BFB4F8081809340043A
:1040500017968C918093410482E00E942412D9CA61
:104060000E942602882309F43CC0309141046091EB
:104070003E0470913F04209156042530E8F44091AD
:104080004004822F90E0DC01AA0FBB1FAA0FBB1FC8
:10409000A55CBB4F17963C931797880F991F880F05
:1040A000991F8D5B9B4FFC0140831A967C936E9306
:1040B00019972F5F20935604CB01F6E03F9F800DA8
:1040C000911D1124FC013596E491E0934004FC011C
:1040D00033968591949190933F0480933E0410927F
:1040E000410483E0BACF113051F480914104882318
:1040F00009F48FCA81508093410480E0AECF123022
:1041000009F087CA80914104209140042150330B6B
:10411000821713060CF07DCA8F5F8093410481E003
:104120009CCF0E949502D82EEEEFE80FED3110F0F3
:104130000C946529F0E0E156FF4D0C944F2CBC2007
:10414000C621652947227922A7226529D1220B237E
:1041500065292023522365296A239A23CA2303242D
:10416000A02865293624EA24652998254626F426C0
:10417000A027652974284E28123009F08DC080913F
:104180001A03823009F05EC08091B4039091B503A8
:1041900001968032910514F081E090E09093B50390
:1041A0008093B403E12C10E080913C03843421F02F
:1041B000112311F40C94D52961E081E00E94D1070C
:1041C0008D2D0E94E20D0E94AC0B0E94550BEE2437
:1041D000E3940E9456048090340390903503A0909D
:1041E0003603B0903703681979098A099B0961334E
:1041F000754781059105D8F084E00E942E03892B34
:1042000011F40E94490880913B0490913C049093E2
:104210003F0480933E0480913D04809340041092BB
:10422000410410925604109232030E940408EE20BA
:1042300009F4EFC97092320361E080E00E94D10777
:1042400080E2C2CE833089F48091B2039091B303AF
:1042500001968D30910514F081E090E09093B303C6
:104260008093B203E12C10E09FCFE12C10E084306A
:1042700009F09ACF8091B0039091B10301968330F9
:1042800028E0920714F084EE97E09093B1038093B6
:10429000B003E12C10E088CF133009F03FC08091CB
:1042A0001A03823089F48091B4039091B503019789
:1042B0001816190614F08FE190E09093B5038093DF
:1042C000B403E12C10E070CF833089F48091B20305
:1042D0009091B30301971816190614F08CE090E042
:1042E0009093B3038093B203E12C10E05DCFE12CF7
:1042F00010E0843009F058CF8091B0039091B10361
:104300000197843E37E0930714F482E098E090939D
:10431000B1038093B003E12C10E046CF113009F0D7
:10432000D8C780911A03823031F483E080931A0356
:10433000E12C10E039CF833031F484E080931A030C
:10434000E12C10E031CF843009F0C7C7209104047C
:10435000309106044091B4035091B2038091B003B0
:104360009091B103803D67E0960710F0805D974023
:1043700089835A834B833C832D831E82CE01019611
:104380000E94A10970920201E12C0ECF123041F57A
:1043900010911A03111110C0809106049091070426
:1043A00001968831910514F090E080E09093070425
:1043B00080930604E12CF8CE113009F092C7809169
:1043C00004049091050401968C33910514F090E05B
:1043D00080E09093050480930404E12C10E0E4CE87
:1043E000133031F510911A0311110FC0809106049A
:1043F00090910704019797FF02C087E190E09093A6
:10440000070480930604E12CCFCE113009F06DC76C
:104410008091040490910504019797FF02C08BE3FB
:1044200090E09093050480930404E12C10E0BCCE4E
:10443000113009F05EC710911A03111105C0709276
:104440001A03E12C10E0B0CE113009F056C72091CC
:104450000404309106044091B4035091B20380915A
:10446000B0039091B103803DA7E09A0710F0805D02
:10447000974089835A834B833C832D831E82CE01D0
:1044800001960E94A10970920201E12C8DCE812F2C
:104490008F77823091F48091C5039091C603019685
:1044A0008831910514F090E080E09093C6038093EA
:1044B000C503EE24E39410E077CE833089F4809135
:1044C000C5039091C603019797FF02C087E190E072
:1044D0009093C6038093C503EE24E39410E064CE6A
:1044E000113009F00EC70E941C0CEE24E39411E079
:1044F0005BCE812F8F77823091F48091C7039091AA
:10450000C80301968831910514F090E080E0909303
:10451000C8038093C703EE24E39410E045CE8330B4
:1045200089F48091C7039091C803019797FF02C057
:1045300087E190E09093C8038093C703EE24E3944F
:1045400010E032CE113079F2E12C10E02DCE812F27
:104550008F77823069F48091D0039091D1030196D6
:104560009093D1038093D003EE24E39410E01CCE0B
:10457000833089F48091D0039091D103019797FF04
:1045800002C084E690E09093D1038093D003EE24A0
:10459000E39410E009CE113009F4A5CFE12C10E02E
:1045A00003CE812F8F77823091F48091CB0390914D
:1045B000CC0301968F31910514F081E090E0909347
:1045C000CC038093CB03EE24E39410E0EDCD833055
:1045D00091F48091CB039091CC03019718161906A2
:1045E00014F08EE190E09093CC038093CB03EE2403
:1045F000E39410E0D9CD113009F087C60E941C0C5D
:104600006091CB037091CC03772786E00E947305FD
:10461000EE24E394C9CD8EEF810F823058F481E00F
:104620009091CF03911180E08093CF03EE24E39427
:1046300010E0BACD113009F456CFE12C10E0B4CD22
:10464000812F8F77823091F4809103019091040142
:1046500001968831910514F084E090E09093040174
:1046600080930301EE24E39410E09ECD833091F417
:10467000809103019091040101978430910514F415
:1046800087E190E09093040180930301EE24E3948A
:1046900010E08ACDEE24E394113009F485CDE12CAD
:1046A00010E082CD80913B0490913C0490933F04B4
:1046B00080933E0480913D04809340041092410415
:1046C0001092560484E0809332030E940408E12C87
:1046D00010E06ACD812F8F77823091F48091D803DA
:1046E0009091D90301968930910514F083E090E010
:1046F0009093D9038093D803EE24E39410E054CD33
:10470000833091F48091D8039091D903019783303D
:10471000910514F488E090E09093D9038093D80336
:10472000EE24E39410E040CD113009F4DCCEE12C0E
:1047300010E03ACD812F8F77823091F48091DC03A5
:104740009091DD0301968930910514F083E090E0AB
:104750009093DD038093DC03EE24E39410E024CDFA
:10476000833091F48091DC039091DD0301978330D5
:10477000910514F488E090E09093DD038093DC03CE
:10478000EE24E39410E010CD113009F4ACCEE12C0E
:1047900010E00ACD812F8F778230A1F48091E00361
:1047A0009091E10301968531910514F081E090E04C
:1047B0009093E1038093E0030E94D105EE24E394FB
:1047C00010E0F2CC8330A1F48091E0039091E103FA
:1047D00001971816190614F084E190E09093E10314
:1047E0008093E0030E94D105EE24E39410E0DCCC3A
:1047F000113009F08EC50E9449080E941C0CEE245D
:10480000E39411E0D1CC812F8F778230A1F4809195
:10481000E2039091E30301968531910514F081E064
:1048200090E09093E3038093E2030E94D105EE248D
:10483000E39410E0B9CC8330A1F48091E20390912D
:10484000E30301971816190614F084E190E09093A1
:10485000E3038093E2030E94D105EE24E39410E089
:10486000A3CC113041F2E12C10E09ECC123009F0C3
:104870004CC010911A03111122C08091E403909151
:10488000E503A091E603B091E703AC01BD01445CF0
:104890005F4F6F4F7F4F77FD08C0403AE5E05E07FE
:1048A0006105710514F4DB01CA018093E403909360
:1048B000E503A093E603B093E703E12C75CC113038
:1048C00009F02BC58091E4039091E503A091E603E4
:1048D000B091E703AC01BD014F5F5F4F6F4F7F4F5A
:1048E00077FD08C0403AF5E05F076105710514F4F3
:1048F000DB01CA018093E4039093E503A093E603F0
:10490000B093E703E12C10E04FCC812F8F778330F9
:1049100009F04CC010911A03111122C08091E403D8
:104920009091E503A091E603B091E703AC01BD01CE
:104930004C5351096109710977FD08C0403A25E0DF
:1049400052076105710514F4DB01CA018093E40389
:104950009093E503A093E603B093E703E12C24CC06
:10496000113009F0DEC48091E4039091E503A09139
:10497000E603B091E703AC01BD0141505109610963
:10498000710977FD08C0403A35E0530761057105AC
:1049900014F4DB01CA018093E4039093E503A09330
:1049A000E603B093E703E12C10E0FECB113009F0F1
:1049B000BCC480911A03882309F441CDE12C10E096
:1049C000813009F0F1CB0E941C0C70920201E12CA5
:1049D00011E0EACB123009F04CC010911A0311110A
:1049E00022C08091E8039091E903A091EA03B0917D
:1049F000EB03AC01BD01445C5F4F6F4F7F4F77FD10
:104A000008C0403AE5E05E076105710514F4DB017A
:104A1000CA018093E8039093E903A093EA03B0935B
:104A2000EB03E12CC1CB113009F083C48091E80382
:104A30009091E903A091EA03B091EB03AC01BD01B1
:104A40004F5F5F4F6F4F7F4F77FD08C0403AF5E0F3
:104A50005F076105710514F4DB01CA018093E80367
:104A60009093E903A093EA03B093EB03E12C10E0E9
:104A70009BCB812F8F77833009F04CC010911A03A4
:104A8000111122C08091E8039091E903A091EA03FB
:104A9000B091EB03AC01BD014C535109610971099F
:104AA00077FD08C0403A25E052076105710514F40E
:104AB000DB01CA018093E8039093E903A093EA0322
:104AC000B093EB03E12C70CB113009F036C4809128
:104AD000E8039091E903A091EA03B091EB03AC01E4
:104AE000BD01415051096109710977FD08C0403A83
:104AF00035E053076105710514F4DB01CA018093A9
:104B0000E8039093E903A093EA03B093EB03E12C4D
:104B100010E04ACB113009F014C480911A038823A5
:104B200009F48DCCE12C10E0813009F03DCB4BCF66
:104B3000123009F04CC010911A03111122C080915B
:104B4000F4039091F503A091F603B091F703AC0143
:104B5000BD01445C5F4F6F4F7F4F77FD08C0403A07
:104B6000E5E05E076105710514F4DB01CA0180937D
:104B7000F4039093F503A093F603B093F703E12CAD
:104B800013CB113009F0E1C38091F4039091F50348
:104B9000A091F603B091F703AC01BD014F5F5F4FE9
:104BA0006F4F7F4F77FD08C0403AF5E05F07610522
:104BB000710514F4DB01CA018093F4039093F503AB
:104BC000A093F603B093F703E12C10E0EDCA812F18
:104BD0008F77833009F04CC010911A03111122C055
:104BE0008091F4039091F503A091F603B091F7033F
:104BF000AC01BD014C5351096109710977FD08C031
:104C0000403A25E052076105710514F4DB01CA0141
:104C10008093F4039093F503A093F603B093F70306
:104C2000E12CC2CA113009F094C38091F403909131
:104C3000F503A091F603B091F703AC01BD0141501B
:104C400051096109710977FD08C0403A35E0530701
:104C50006105710514F4DB01CA018093F40390939C
:104C6000F503A093F603B093F703E12C10E09CCA80
:104C7000113009F072C380911A03882309F4DFCB45
:104C8000E12C10E0813009F08FCA9DCE123009F07E
:104C90004CC010911A03111122C08091F803909119
:104CA000F903A091FA03B091FB03AC01BD01445C90
:104CB0005F4F6F4F7F4F77FD08C0403AE5E05E07DA
:104CC0006105710514F4DB01CA018093F803909328
:104CD000F903A093FA03B093FB03E12C65CA1130EA
:104CE00009F03FC38091F8039091F903A091FA0372
:104CF000B091FB03AC01BD014B5F5F4F6F4F7F4F26
:104D000077FD08C0403AF5E05F076105710514F4CE
:104D1000DB01CA018093F8039093F903A093FA038F
:104D2000B093FB03E12C10E03FCA812F8F778330D3
:104D300009F04CC010911A03111122C08091F803A0
:104D40009091F903A091FA03B091FB03AC01BD016E
:104D50004C5351096109710977FD08C0403A25E0BB
:104D600052076105710514F4DB01CA018093F80351
:104D70009093F903A093FA03B093FB03E12C14CAB8
:104D8000113009F0F2C28091F8039091F903A091DB
:104D9000FA03B091FB03AC01BD0145505109610913
:104DA000710977FD08C0403A35E053076105710588
:104DB00014F4DB01CA018093F8039093F903A093E4
:104DC000FA03B093FB03E12C10E0EEC9113009F0B7
:104DD000D0C280911A03882309F431CBE12C10E072
:104DE000813009F0E1C9EFCD123009F04CC01091CB
:104DF0001A03111122C08091FC039091FD03A09130
:104E0000FE03B091FF03AC01BD01445C5F4F6F4FE7
:104E10007F4F77FD08C0403AE5E05E076105710508
:104E200014F4DB01CA018093FC039093FD03A0936B
:104E3000FE03B093FF03E12CB7C9113009F09DC206
:104E40008091FC039091FD03A091FE03B091FF03BC
:104E5000AC01BD014F5F5F4F6F4F7F4F77FD08C0C3
:104E6000403AF5E05F076105710514F4DB01CA0102
:104E70008093FC039093FD03A093FE03B093FF0384
:104E8000E12C10E091C9133009F04CC010911A03C5
:104E9000111122C08091FC039091FD03A091FE03AB
:104EA000B091FF03AC01BD014C5351096109710977
:104EB00077FD08C0403A25E052076105710514F4FA
:104EC000DB01CA018093FC039093FD03A093FE03D2
:104ED000B093FF03E12C68C9113009F052C28091F0
:104EE000FC039091FD03A091FE03B091FF03AC0180
:104EF000BD01415051096109710977FD08C0403A6F
:104F000035E053076105710514F4DB01CA01809394
:104F1000FC039093FD03A093FE03B093FF03E12CE9
:104F200010E042C9113009F030C280911A03882381
:104F300009F485CAE12C10E0813009F035C943CD70
:104F4000123009F04CC010911A03111122C0809147
:104F5000000490910104A0910204B0910304AC01FB
:104F6000BD01445C5F4F6F4F7F4F77FD08C0403AF3
:104F7000E5E05E076105710514F4DB01CA01809369
:104F8000000490930104A0930204B0930304E12C65
:104F90000BC9113009F0FDC180910004909101040A
:104FA000A0910204B0910304AC01BD014B5F5F4FBF
:104FB0006F4F7F4F77FD08C0403AF5E05F0761050E
:104FC000710514F4DB01CA0180930004909301047D
:104FD000A0930204B0930304E12C10E0E5C8812FF4
:104FE0008F77833009F04CC010911A03111122C041
:104FF0008091000490910104A0910204B0910304F7
:10500000AC01BD014C5351096109710977FD08C01C
:10501000403A25E052076105710514F4DB01CA012D
:105020008093000490930104A0930204B0930304BE
:10503000E12CBAC8113009F0B0C180910004909100
:105040000104A0910204B0910304AC01BD014550DC
:1050500051096109710977FD08C0403A35E05307ED
:105060006105710514F4DB01CA018093000490937B
:105070000104A0930204B0930304E12C10E094C84F
:10508000113009F08EC180911A03882309F4D7C921
:10509000E12C10E0813009F087C895CC812F8F7703
:1050A000823069F48091D6039091D7030196909352
:1050B000D7038093D603EE24E39410E075C88330C1
:1050C00069F48091D6039091D70301979093D70309
:1050D0008093D603EE24E39410E066C8113009F4FF
:1050E00002CAE12C10E060C8812F8F77823069F40A
:1050F0008091D4039091D50301969093D50380932A
:10510000D403EE24E39410E04FC8833099F48091E7
:10511000D4039091D5030197863E67E0960714F477
:1051200086EE97E09093D5038093D403EE24E39426
:1051300010E03AC8113009F4D6C9E12C10E034C8A7
:10514000113809F0BAC067E271E086EB93E00E9483
:105150005B2E84E690E09093D1038093D0039093EC
:10516000D3038093D20385E090E09093C6038093AD
:10517000C50386E190E09093C8038093C70384E160
:1051800090E09093CA038093C9039093CC038093DB
:10519000CB0383E090E09093D9038093D80390935E
:1051A000DB038093DA039093DF038093DE03909315
:1051B000DD038093DC0381E090E09093E103809332
:1051C000E00382E090E09093E3038093E20387E3BF
:1051D00094E0A0E0B0E08093E4039093E503A09313
:1051E000E603B093E70387E691E0A0E0B0E08093A8
:1051F000E8039093E903A093EA03B093EB031092C2
:10520000EC031092ED031092EE031092EF03109254
:10521000F0031092F1031092F2031092F3038CE268
:1052200091E0A0E0B0E08093F4039093F503A093A5
:10523000F603B093F70383E790E0A0E0B0E080933B
:10524000F8039093F903A093FA03B093FB038CEF58
:1052500093E0A0E0B0E08093FC039093FD03A09363
:10526000FE03B093FF0383E790E0A0E0B0E08093FB
:10527000000490930104A0930204B09303041092DD
:10528000CD031092CE031092CF038BE391E0909365
:10529000D7038093D60386EE97E09093D50380934F
:1052A000D40361E081E00E94D1078EE392E00E9486
:1052B000550BE12C10E00C94D42081E0113C09F056
:1052C00080E0182FE12C0C94D420E12C10E00C94F9
:1052D000D420E12C10E00C94D420E12C10E00C94AC
:1052E000D420E12C10E00C94D420E12C10E00C949C
:1052F000D420E12C10E00C94D420E12C10E00C948C
:10530000D420E12C10E00C94D420E12C10E00C947B
:10531000D420E12C10E00C94D420E12C10E00C946B
:10532000D420E12C10E00C94D420E12C10E00C945B
:10533000D420E12C10E00C94D420E12C10E00C944B
:10534000D420E12C10E00C94D420E12C10E00C943B
:10535000D420E12C10E00C94D420E12C10E00C942B
:10536000D420E12C10E00C94D420E12C10E00C941B
:10537000D420E12C10E00C94D420E12C10E00C940B
:10538000D420E12C10E00C94D420E12C10E00C94FB
:10539000D420E12C10E00C94D420E12C10E00C94EB
:1053A000D420E12C10E00C94D420EE2071F061E0C8
:1053B00081E00E94D1078D2D0E94E20D0E94AC0B6E
:1053C0000E94550BE12C0C94E9200E945604809019
:1053D000200390902103A0902203B090230368192A
:1053E00079098A099B096D3271408105910510F494
:1053F0000C94E920809102018823C9F061E081E0EA
:105400000E94D1078D2D0E94E20D0E94AC0B0E94DC
:10541000550B109202010E94560460932003709372
:10542000210380932203909323030C94E920B3E09B
:10543000DB1641F08BEE8D0D823020F088EE8D0D65
:105440008430A0F480911A0381110BC061E081E0E7
:105450000E94D1078EE393E00E941408709202012B
:10546000DACF8130B9F761E084E0F2CFE2E0DE121A
:10547000D2CF80911A03823039F461E081E00E943A
:10548000D1078BE393E0E8CF833019F461E084E047
:10549000F6CF8430B1F761E089E0F1CFCF93DF93AD
:1054A000CBEAD4E02697888199810E94F82C24E0E9
:1054B000C336D207B9F78EE591E09093E404809368
:1054C000E3048091DD029091DE02835E944071F4EA
:1054D000E091F604F091F70490818091F8048095B2
:1054E000892380831092DE021092DD02DF91CF913A
:1054F00008958F929F92AF92BF92CF92DF92EF92D8
:10550000FF92CF93DF93EC01688179818A819B813F
:10551000611571058105910521F464E279ED8BE552
:1055200097E02DE133EF41E050E00E94812B4901EB
:105530005A019B01AC01A7EAB1E40E94A02B6B01C8
:105540007C01ACEEB4EFA50194010E94AE2BC60E17
:10555000D71EE81EF91EF7FE06C081E0C81AD10862
:10556000E10880E8F80AC882D982EA82FB82C70192
:10557000B6019F77DF91CF91FF90EF90DF90CF90B2
:10558000BF90AF909F908F9008958F929F92AF920F
:10559000BF92CF92DF92EF92FF92609105017091DE
:1055A000060180910701909108016115710581053F
:1055B000910521F464E279ED8BE597E02DE133EF7D
:1055C00041E050E00E94812B49015A019B01AC014E
:1055D000A7EAB1E40E94A02B6B017C01ACEEB4EF12
:1055E000A50194010E94AE2BC60ED71EE81EF91E1F
:1055F000F7FE06C081E0C81AD108E10880E8F80A81
:10560000C0920501D0920601E0920701F0920801D4
:10561000C701B6019F77FF90EF90DF90CF90BF90CA
:10562000AF909F908F90089560930501709306014D
:1056300080930701909308010895FB01DC01059018
:105640000D920020E1F70895BB274A3031F49923E9
:1056500022F4BDE2909581959F4F0C94302BBB278F
:10566000FB015527AA27880F991FAA1FA41710F01E
:10567000A41B83955051B9F7A05DAA3308F0A95D2A
:10568000A193009779F7B111B1931192CB010C94CA
:10569000492BDC01FC01672F71917723E1F73297E9
:1056A00004C07C916D9370836291AE17BF07C8F3FD
:1056B0000895DC01CB01FC01F999FECF06C0F2BDD3
:1056C000E1BDF89A319600B40D9241505040B8F7C0
:1056D0000895DC01CB0103C02D910E94742B415031
:1056E0005040D0F70895262FF999FECF1FBA92BDEA
:1056F00081BD20BD0FB6F894FA9AF99A0FBE0196B3
:105700000895052E97FB1EF400940E94982B57FDD8
:1057100007D00E94EA2B07FC03D04EF40C94982B80
:1057200050954095309521953F4F4F4F5F4F0895CD
:1057300090958095709561957F4F8F4F9F4F0895FD
:105740000E940C2CA59F900DB49F900DA49F800DDE
:10575000911D11240895B7FF0C94A02B0E94A02B3B
:10576000821B930B08952F923F924F925F926F92FC
:105770007F928F929F92AF92BF92CF92DF92EF92E1
:10578000FF920F931F93CF93DF93CDB7DEB7CA1B62
:10579000DB0B0FB6F894DEBF0FBECDBF09942A888D
:1057A000398848885F846E847D848C849B84AA8435
:1057B000B984C884DF80EE80FD800C811B81AA81C2
:1057C000B981CE0FD11D0FB6F894DEBF0FBECDBF8D
:1057D000ED010895A1E21A2EAA1BBB1BFD010DC00D
:1057E000AA1FBB1FEE1FFF1FA217B307E407F50791
:1057F00020F0A21BB30BE40BF50B661F771F881F6D
:10580000991F1A9469F760957095809590959B0102
:10581000AC01BD01CF010895A29FB001B39FC001AB
:10582000A39F700D811D1124911DB29F700D811DCC
:105830001124911D0895991B79E004C0991F9617B2
:1058400008F0961B881F7A95C9F780950895AA1BC2
:10585000BB1B51E107C0AA1FBB1FA617B70710F05B
:10586000A61BB70B881F991F5A95A9F7809590958D
:10587000BC01CD01089597FB072E16F4009407D0C4
:1058800077FD09D00E94272C07FC05D03EF49095A7
:1058900081959F4F0895709561957F4F0895EE0F04
:1058A000FF1F0590F491E02D09940E940C2CB7FF86
:1058B0000895821B930B08950F931F93CF93DF934B
:1058C0008230910510F482E090E0E0910405F091BF
:1058D000050530E020E0B0E0A0E0309799F4211514
:1058E000310509F44AC0281B390B24303105D8F59D
:1058F0008A819B816115710589F1FB019383828304
:10590000FE0111C04081518102811381481759075E
:10591000E0F04817590799F4109761F012960C932C
:10592000129713961C933296CF01DF91CF911F915E
:105930000F9108950093040510930505F4CF2115E8
:10594000310551F04217530738F0A901DB019A01E4
:10595000BD01DF01F801C1CFEF01F9CF909305053B
:1059600080930405CDCFFE01E20FF31F8193919345
:105970002250310939832883D7CF209102053091F5
:105980000305232B41F420910B0130910C0130933E
:105990000305209302052091090130910A01211588
:1059A000310541F42DB73EB740910D0150910E01E4
:1059B000241B350BE0910205F0910305E217F30774
:1059C000A0F42E1B3F0B2817390778F0AC014E5F6F
:1059D0005F4F2417350748F04E0F5F1F50930305A4
:1059E00040930205819391939FCFF0E0E0E09CCF3C
:1059F000CF93DF930097E9F0FC0132971382128274
:105A0000A0910405B0910505ED0130E020E010976C
:105A1000A1F420813181820F931F209102053091E2
:105A200003052817390709F061C0F0930305E093D7
:105A30000205DF91CF910895EA01CE17DF07E8F55F
:105A40004A815B819E0141155105B1F7E901FB8354
:105A5000EA8349915991C40FD51FEC17FD0761F4F2
:105A6000808191810296840F951FE9019983888333
:105A7000828193819B838A83F0E0E0E012968D918E
:105A80009C9113970097B9F52D913C911197CD01F9
:105A90000296820F931F209102053091030528176B
:105AA000390739F6309751F5109205051092040523
:105AB000B0930305A0930205BCCFD383C28340817A
:105AC0005181840F951FC817D90761F44E5F5F4F4E
:105AD00088819981480F591F518340838A819B8116
