:100000000C9439020C9461020C9461020C948F12CE
:100010000C948F120C948F120C9461020C94610258
:100020000C9461020C9461020C9461020C946102C4
:100030000C9461020C9461020C9461020C946102B4
:100040000C9445120C9461020C9461020C946102B0
:100050000C9461020C9461020C9461020C94610294
:100060000C9407130C946102534F4E4720434F5595
:100070004E540045564520534F4E47203220544998
:100080004D45004D4F5220534F4E4720322054498A
:100090004D450045564520534F4E472031204E6F69
:1000A0002E0045564520534F4E4720312054494D90
:1000B00045004D4F5220534F4E472031204E6F2E5A
:1000C000004D4F5220534F4E4720312054494D454B
:1000D00000504C41590053454C4543542054494D20
:1000E0004500504C59522045564520445552002C4D
:1000F00067020000002D5E020000000059020000AF
:1001000000504C595220455645204F4E2054494DE1
:1001100000504C5952204D4F5220445552002867F0
:1001200002000000295E02000000005902000000E9
:10013000504C5952204D4F52204F4E2054494D00A3
:10014000246702000000255E020000000059020042
:1001500000004C494748542032204F46462054491D
:100160004D4500216702000000225E0200000000F1
:1001700059020000004C494748542032204F4E207D
:1001800054494D45001E67020000001F5E0200003A
:10019000000059020000004C494748542031204FCC
:1001A00046462054494D45001B67020000001C5E76
:1001B000020000000059020000004C49474854204A
:1001C00031204F4E2054494D450011C10000000020
:1001D00016B20000000013A20000000017930000F8
:1001E0000000128300000000147300000000156876
:1001F00000000000005902000000534F4E472053FA
:10020000455454494E47000ED6000000000FD1005F
:10021000000000005902000000504C4159204445A4
:100220004D4F00564F4C554D45004241434B4C49B4
:100230004748542044555200534C4F47414D2043AA
:100240004F554E5400454E442054494D450053549B
:100250004152542054494D45004241434B005345BF
:1002600054204D494E530053455420485253005397
:100270004554205945415200534554204D4F4E544A
:1002800048005345542044415445004558495400C2
:1002900052455345542053455454494E4700273046
:1002A000011E01032A11010000002B0101EF0003D0
:1002B0002EE200000000005902000000504C41599D
:1002C00045522053455454494E47001ABA01A801DB
:1002D000031D97018501032075016301032352016A
:1002E0004001030059020000004C49474854532084
:1002F00053455454494E4700084E0200000009453A
:10030000020000000A38020000000B2A0200000070
:100310000C23020000000D190207020310FA01CAA3
:10032000010800590200000042454C4C205345543E
:1003300054494E4700028202000000037802000088
:1003400000046F02000000056702000000065E0264
:10035000000000005902000000534554204441545D
:10036000452054494D450000000000240027002A84
:100370000000000008000201000003040700000064
:1003800000000000004552522030330045525220F8
:10039000303200455252203031005154524F4E00FD
:1003A00057454C434F4D450020504C415945522034
:1003B0004D4F4445204F4E2000202052554E4E496F
:1003C0004E472044454D4F202000204155544F209A
:1003D0004C49474854204F46462000204155544F31
:1003E000204C49474854204F4E202000204155546E
:1003F0004F20504C4159204F46462020002020419C
:1004000055544F20504C4159204F4E2020000000A1
:10041000000023002600290000000000250028001D
:100420002B00040404040404040402020202020275
:1004300003030303030301020408102040800102A8
:100440000408102001020408102001590335030696
:10045000072803F8020819E902CB020519BC029E1D
:100460000205189002000000008B02000000261414
:10047000F82411241FBECFEFD8E0DEBFCDBF24E0AB
:10048000A4E1B2E001C01D92A23CB207E1F712E084
:10049000A0E0B1E0E0EEF0E502C005900D92A431DD
:1004A000B107D9F712E0C8E3D2E004C02197FE01FA
:1004B0000E940B26C733D107C9F70E9430150C9450
:1004C00063280C94000080915704E0915404F0914B
:1004D000550496E0899FE00DF11D11243596E491B5
:1004E00081E0E11101C080E00895E1E5F4E086815A
:1004F0000380F481E02D96E0899FE00DF11D112429
:100500008491089508950895AF92BF92CF92DF929B
:10051000EF92FF920F931F93CF93DF936C017B01B8
:100520008B01040F151FEB015E01AE18BF08C01749
:10053000D10759F06991D601ED91FC910190F081BC
:10054000E02DC6010995892B79F7C501DF91CF917F
:100550001F910F91FF90EF90DF90CF90BF90AF90E1
:100560000895833081F028F4813099F08230A9F029
:1005700008958730A9F08830C9F08430B1F48091B3
:1005800080008F7D03C0809180008F7780938000F2
:10059000089584B58F7784BD089584B58F7DFBCF92
:1005A0008091B0008F778093B00008958091B00063
:1005B0008F7DF9CFCF93DF93282F30E0F901EF58EB
:1005C000FC4F8491F901EA5CFB4FD491F901EE5D97
:1005D000FB4FC491CC23A1F081110E94B102EC2FFA
:1005E000F0E0EE0FFF1FE25FFB4FA591B491EC919D
:1005F000ED2381E090E009F480E0DF91CF91089550
:1006000080E090E0FACF1F93CF93DF93282F30E064
:10061000F901EF58FC4F8491F901EA5CFB4FD4914A
:10062000F901EE5DFB4FC491CC23A9F0162F811187
:100630000E94B102EC2FF0E0EE0FFF1FE85EFB4FCF
:10064000A591B4918FB7F894EC91111108C0D09591
:10065000DE23DC938FBFDF91CF911F910895DE2BB6
:10066000F8CFCF93DF9390E0FC01EA5CFB4F24913D
:100670008E5D9B4FFC0184918823C9F090E0880F28
:10068000991FFC01E959FC4FA591B491FC01E85E6A
:10069000FB4FC591D49161110DC09FB7F8948C9117
:1006A000209582238C938881282328839FBFDF9104
:1006B000CF910895623051F49FB7F8943C91822F06
:1006C000809583238C93E8812E2BEFCF8FB7F894FE
:1006D000EC912E2B2C938FBFEACF3FB7F8948091EB
:1006E0009E0290919F02A091A002B091A10226B516
:1006F000A89B05C02F3F19F00196A11DB11D3FBF5A
:10070000BA2FA92F982F8827BC01CD01620F711D28
:10071000811D911D42E0660F771F881F991F4A9522
:10072000D1F708958F929F92AF92BF92CF92DF92AE
:10073000EF92FF926B017C010E946D034B015C0103
:10074000C114D104E104F104B9F00E946D036819E9
:1007500079098A099B09683E73408105910580F3F8
:1007600021E0C21AD108E108F10888EE880E83E082
:10077000981EA11CB11CE4CFFF90EF90DF90CF90AA
:10078000BF90AF909F908F9008952FB7F89460918D
:100790009A0270919B0280919C0290919D022FBFC2
:1007A00008950F931F938091790490917A04DC014E
:1007B000ED91FC910084F185E02D0995892B09F4D8
:1007C000D7C060E070E0CB010E94920320919704B3
:1007D0008091790490917A04DC01ED91FC9102847E
:1007E000F385E02D21110BC00995809383048E378A
:1007F000D1F6809197048F5F80939704D4CF0995A9
:1008000090919704E92FF0E0E758FB4F82879230F0
:10081000B9F09930D9F09130A9F48F3F99F0109246
:10082000970481E08093990410929C0410929B0499
:1008300080939D0410929E0480E01F910F91089573
:10084000863069F79F5F90939704ADCF8F3E39F75D
:100850002091850480918404280F3327331FE09171
:100860008604C9018E0F911D20918704280F392F0E
:10087000311D4091880450E0240F351F8091890478
:1008800090E060918A0470E0762F6627F0918B04E7
:100890006F0F711D280F391F31952195310962178E
:1008A000730709F0BCCF10929704E13419F4109249
:1008B0009E042FC0E0939A04542F4427840F951F61
:1008C00090939C0480939B04EA53E63108F046C061
:1008D000F0E0E359FB4F0C940B269A04A204AC04FD
:1008E0008304AC048C04AA04AE04AC04AC04AC04D1
:1008F000AC04AC04AC04AC04AC04AE04AC04AC0476
:10090000AC04AC04AC0485E08093990481E080934E
:100910009D0480919D0491CF80FF02C089E0F4CFB7
:1009200081FF02C084E0F0CF83709927892B89F37F
:100930008AE0EACF80FF02C087E0E6CF81FFE9CFFF
:1009400082E0E2CF80FF02C088E0DECF81FFE1CF0E
:1009500083E0DACF86E0D8CF8BE0D6CF81E08093FA
:10096000990410929C0410929B0480939D049FCF45
:1009700080919E04882369F20E94C50300917B0444
:1009800010917C0420917D0430917E04601B710BDA
:10099000820B930B00917F041091800420918104BD
:1009A00030918204601771078207930708F4B1CF72
:1009B000109297041092990410929C0410929B0438
:1009C00081E036CF80939004272F30E0709392041B
:1009D0006093930440918F0490918E04490F5527A2
:1009E000551F840F952F911D40919104840F911DE7
:1009F000820F931F680F792F711D71956195710991
:100A00007093940460939504442361F080919E0454
:100A1000882341F060E070E0CB010E9492030E94C5
:100A2000D103F4CF8091790490917A04DC01ED91A7
:100A3000FC910280F381E02D4AE050E06DE874E023
:100A400009950E94C50360937B0470937C04809396
:100A50007D0490937E048091910491E0811101C006
:100A600090E090939E04811106C06AE070E080E0FF
:100A700090E00C949203089508952091A40230917F
:100A8000A5022817390771F49091A2028091A30260
:100A9000981741F0E091A202F0E0E75AFD4F808103
:100AA00090E008958FEF9FEF08950895EF92FF92E1
:100AB0000F931F93CF93DF93DC015C96ED90FC9036
:100AC0005D97E114F10479F481E090E013969C9332
:100AD0008E93129790E080E0DF91CF911F910F915C
:100AE000FF90EF9008955196ED91FC91529750969A
:100AF0008C915097982F90950FB75E962C915E979A
:100B0000122F127021FD6095F8942081112319F1A4
:100B1000282B2083E7012197F1F728E0462F50E0AA
:100B2000308160FF1AC0382B3083E7012197F1F73D
:100B3000BA0175956795215089F7112381F080815D
:100B4000892380830FBF5C968D919C910197F1F76B
:100B500081E090E0C1CF2923DCCF3923E5CF90811C
:100B6000892BEFCF2091A4023091A50228173907D5
:100B700071F48091A3022091A20290E0805C9F4FCB
:100B8000821B910960E470E00E94D825089590E0EE
:100B900080E008952091A4023091A502281739071A
:100BA000B9F49091A2028091A302981789F0E09184
:100BB000A202F0E0E75AFD4F80812091A20230E0CE
:100BC0002F5F3F4F2F7333272093A20290E00895A9
:100BD0008FEF9FEF089520913602260F3327331FA2
:100BE00021323105ECF420914903FC0190E080E0D2
:100BF000243069F082E00895A09136022191AC0181
:100C00004A5E5D4FA40FB52FB11D2C930196861738
:100C100098F380913602680F6093360280E0089561
:100C200081E008951092490381E080934803109277
:100C3000230361E082E10E94030361E083E10E94FB
:100C40000303E9EBF0E080818E7F808380818D7FDC
:100C5000808388E48093B80085E48093BC00089585
:100C6000109202031092010310925003109272032B
:100C70000E94120682E892E0909300038093FF02A4
:100C800083E892E09093FE028093FD020895CF9353
:100C9000DF9391E0909315028823B9F0C091B800DA
:100CA000D091BA008091BC008A7B8093BC0060E048
:100CB00082E10E94030360E083E10E9403030E943B
:100CC0001206D093BA00C093B800DF91CF91089577
:100CD000CF92DF92EF92FF920F931F93CF93DF9308
:100CE000D091720381E0D13208F09CC0C0917103B1
:100CF0000E946D036B017C018091490381116CC0DE
:100D000082E08093490381E0809348038FEF8093D2
:100D1000470310924603D0934503A1E5B3E0E5E213
:100D2000F3E080E0D8138DC0109224038091240357
:100D3000CC0FC82BC093240380912303813009F08A
:100D400084C0109223030E946D036B017C0180918B
:100D500024038093BB0080914B0390914C03A0919E
:100D60004D03B0914E03892B8A2B8B2BA1F00E944F
:100D70006D0300914B0310914C0320914D03309172
:100D80004E036C197D098E099F090617170728075E
:100D9000390708F442C08091BC0083FDD8CF85ECB0
:100DA0008093BC000E946D036B017C01809149031C
:100DB000823009F44CC0809147038F3F09F469C029
:100DC00080914703803209F466C0809147038033E5
:100DD00009F463C084E026C080914B0390914C03DA
:100DE000A0914D03B0914E03892B8A2B8B2B09F4D4
:100DF00083CF0E946D0300914B0310914C0320910F
:100E00004D0330914E036C197D098E099F09061719
:100E100017072807390708F06FCF80914A030E940F
:100E2000470685E0109250031092720310924F0310
:100E3000DF91CF911F910F91FF90EF90DF90CF90B6
:100E400008959D9191938F5F6DCF85EEA9CF80918D
:100E50004B0390914C03A0914D03B0914E03892B0D
:100E60008A2B8B2B09F4A2CF0E946D0300914B03B8
:100E700010914C0320914D0330914E036C197D0964
:100E80008E099F09061717072807390708F08ECF24
:100E9000C4CF80E0C7CF82E0C5CF83E0C3CFCF927D
:100EA000DF92EF92FF920F931F93CF93DF93D82F90
:100EB000C62F613208F098C00E946D036B017C015F
:100EC0008091490381116BC081E080934903809335
:100ED00048039FEF90934703109246039C0F909313
:100EE00045038093240380912403DD0FD82BD093F6
:100EF000240380912303813009F078C010922303EA
:100F00000E946D036B017C01809124038093BB00E0
:100F100080914B0390914C03A0914D03B0914E03EF
:100F2000892B8A2B8B2BA1F00E946D0300914B0320
:100F300010914C0320914D0330914E036C197D09A3
:100F40008E099F09061717072807390708F448C0B4
:100F50008091BC0083FDD8CF85EC8093BC000E94BB
:100F60006D036B017C0180914903813009F440C01D
:100F7000809146038C1710F4C0914603E5E2F3E03C
:100F8000A3E0B3E080E08C1355C08C2FDF91CF91AC
:100F90001F910F91FF90EF90DF90CF900895809177
:100FA0004B0390914C03A0914D03B0914E03892BBC
:100FB0008A2B8B2B09F484CF0E946D0300914B0385
:100FC00010914C0320914D0330914E036C197D0913
:100FD0008E099F09061717072807390708F070CFF1
:100FE00080914A030E944706C0E0CFCF85EEB5CF7F
:100FF00080914B0390914C03A0914D03B0914E030F
:10100000892B8A2B8B2B09F4AECF0E946D030091A4
:101010004B0310914C0320914D0330914E036C19FA
:101020007D098E099F09061717072807390708F059
:101030009ACFD6CF91919D938F5FA5CFE091020378
:1010400080910103E81730F4F0E0ED5FFC4F808100
:1010500090E008958FEF9FEF0895909102038091A3
:1010600001032FEF3FEF981748F4E92FF0E0ED5F11
:10107000FC4F208130E09F5F90930203C9010895E7
:101080008091010390910203891B990B0895CF92DF
:10109000DF92EF92FF920F931F93CF93DF937C0128
:1010A000CB018A0120914F03222389F0EB016B01D0
:1010B000C40ED51ECC15DD0569F06991D701ED91FF
:1010C000FC910190F081E02DC7010995F3CF642FC9
:1010D0000E94EB05C801DF91CF911F910F91FF9006
:1010E000EF90DF90CF900895CF93DF931F92CDB70D
:1010F000DEB7698320914F032223F9F02091720318
:10110000203258F021E030E0FC013383228390E06C
:1011100080E00F90DF91CF91089580915003E82FE8
:10112000F0E0EF5AFC4F998190838F5F80935003DA
:101130008093720381E090E0ECCF61E0CE010196F4
:101140000E94EB05F7CFFC01248131E030934F037F
:101150002093710310925003109272038385682BC1
:101160008DEF93E00E9474080C9468061F93CF9350
:10117000DF93EC0181E080934F0388E68093710355
:10118000109250031092720360E08DEF93E00E9482
:1011900074082D811AE0822F612F0E94CC25682FC0
:1011A000660F680F660F620F8DEF93E00E94740860
:1011B0002C81822F612F0E94CC25682F660F680F2B
:1011C000660F620F8DEF93E00E9474082B81822FCF
:1011D000612F0E94CC25682F660F680F660F620F83
:1011E0008DEF93E00E94740860E08DEF93E00E9421
:1011F00074082A81822F612F0E94CC25682F660FE8
:10120000680F660F620F8DEF93E00E9474082981CA
:10121000822F612F0E94CC25682F660F680F660F02
:10122000620F8DEF93E00E9474082881822F612F56
:101230000E94CC25682F660F680F660F620F8DEF36
:1012400093E00E947408DF91CF911F910C9468067F
:1012500090E080E008952091DD02253009F090F4BF
:1012600090911402E92FF0E0E952FD4F80832F5F47
:101270002093DD029F5F953018F490931402089537
:10128000109214020895CF92DF92FF920F931F9352
:10129000CF93DF936C0181E080934F0388E68093C6
:1012A0007103109250031092720360E08DEF93E08F
:1012B0000E9474080E94680667E088E60E944F0753
:1012C00010920203809301038DEF93E00E942D089A
:1012D0008F77282F30E094E0359527959A95E1F7A0
:1012E000922F990F990FC22FC91BCC0FC80F8DEFEA
:1012F00093E00E942D089C0144E0359527954A957E
:10130000E1F72F703327922F990F990FD22FD91B06
:10131000DD0FD80F8DEF93E00E942D089C0154E063
:10132000359527955A95E1F72F703327922F990F0E
:10133000990F122F191B110F180F8DEF93E00E94B8
:101340002D088DEF93E00E942D089C0164E03595F7
:1013500027956A95E1F72F703327922F990F990FF0
:10136000022F091B000F080F8DEF93E00E942D083C
:101370009C0174E0359527957A95E1F72F70332716
:10138000922F990F990FF22EF91AFF0CF80E8DEF8C
:1013900093E00E942D089C01E4E035952795EA959D
:1013A000E1F72F703327922F990F990F291B220FE6
:1013B000820FF6018083F18202831383D483C58375
:1013C000C601DF91CF911F910F91FF90DF90CF90D9
:1013D00008950F931F93CF938C01C62F0E94A308EB
:1013E0006C2F6460C8010E94A3086C2F6B7FC8013A
:1013F0000E94A30883EC90E00197F1F7CF911F9131
:101400000F9108950F931F93CF93DF938C01D62FE5
:10141000C42F607F642B0E94E90980E1D89FB0014E
:1014200011246C2BC801DF91CF911F910F910C9467
:10143000E909CF93DF93CDB7DEB728970FB6F894BD
:10144000DEBF0FBECDBF98E0EBE0F1E0DE0111960C
:1014500001900D929A95E1F790917504961708F412
:101460006FEF262F30E0220F331F41E050E04C0F8A
:101470005D1F240F351FF9016081680F606840E02F
:101480008DE694E028960FB6F894DEBF0FBECDBF70
:10149000DF91CF910C94020A40E061E08DE694E088
:1014A0000E94020A8BE39FE10197F1F708950F93E1
:1014B0001F938091B6039091B703A091B803B091A8
:1014C000B9034091E2025091E3026091E40270910D
:1014D000E502481759076A077B071CF10091BA0318
:1014E0001091BB032091BC033091BD03800F911F6D
:1014F000A21FB31F84179507A607B70794F0012B07
:10150000022B032B71F08091E102811150C081E028
:101510008093E10285E08093EE021F910F910C947D
:101520004C0A8091BE039091BF03A091C003B0917B
:10153000C103481759076A077B07ECF00091C20303
:101540001091C3032091C4033091C503800F911FF4
:10155000A21FB31F84179507A607B70764F0012BD6
:10156000022B032B41F08091E002811120C081E029
:101570008093E002CFCF8091EE028530C1F480915C
:10158000E002813021F08091E102813081F460E05D
:101590008EE00E94030360E08DE00E94030310923E
:1015A000E1021092E0020E944C0A1092EE021F919A
:1015B0000F91089541E00E94020A81E090E00895B1
:1015C0000F931F93CF93DF938C01D0E0C0E0F8011D
:1015D000EC0FFD1F6491662339F041E08DE694E045
:1015E0000E94020A2196F3CFCE01DF91CF911F9185
:1015F0000F910895009769F0FC0101900020E9F730
:101600003197AF01481B590BBC018DE694E00C9457
:10161000840290E080E008950F931F93CF93DF93AF
:10162000EC01CB01009759F468E671E0CE010E940D
:101630004D28CE01DF91CF911F910F91089520E0A9
:1016400077FF06C02DE2288391958195910921E0CD
:10165000803137E293070CF5883E33E09307FCF4C2
:1016600032E0843691052CF431E08A3091050CF497
:1016700030E0230FFE01E20FF11D11820AE010E0BD
:10168000FE01E20FF11DB8010E94D825805D808324
:10169000CB0121500097A1F7CCCF34E0EACF33E063
:1016A000E8CFCF93DF93BC01EC0109900020E9F76C
:1016B0002197C81BD90BC03108F58CEE93E00E942E
:1016C0004D2880E18C1BEBEDF3E090E020E2AF01D0
:1016D0004B5D53404817590714F42193F8CF8552B6
:1016E0009C4FFC0110826BED73E08CEE93E00E9446
:1016F00039288CEE93E0DF91CF91089541E150E0DD
:101700008CEE93E00E945428F4CF0F931F93CF9355
:10171000DF93EC018B01FB0101900020E9F7319789
:10172000E61BF70BE03128F5E41718F54E1B4131A5
:1017300008F040E1EBEDF3E050E080E39F012B5D2A
:1017400033402417350714F48193F8CF45525C4F8A
:10175000FA0110826BED73E0CE010E944D28B801B2
:10176000CE010E943928CE01DF91CF911F910F91B8
:10177000089550E04F5F5F4FB801CE010E9454289A
:10178000F2CF4DE450E070E060E089E793E00C9424
:101790006E25CF93DF93EC01809102018230D9F165
:1017A00028F4813021F1DF91CF910895833009F43D
:1017B00045C08930C1F785E00E94DA02892B99F390
:1017C00081E0809302010E944C0A1092EE020E9476
:1017D000C5036093F8027093F9028093FA02909324
:1017E000FB0260E08EE0DF91CF910C94030385E073
:1017F0000E94DA02892BB9F270E060E082E10E9477
:10180000E20468EE73E080E090E00E94920382E0E0
:1018100080930201C8CF85E00E94DA02892B19F279
:10182000BE01772771608FE00E94E20468EE73E0EA
:1018300080E090E00E94920383E0EACF85E00E947E
:10184000DA02892B09F4AFCF80919A0390919B0320
:101850008C179D0739F46091A2037091A30303973D
:1018600009F043C080919C0390919D038C179D07C4
:1018700061F5C330D10549F16091980370919903E6
:10188000772774608FE00E94E20480919803909122
:10189000990301969093990380939803209196035E
:1018A000309197032817390734F481E090E0909342
:1018B0009903809398030E94C10B68EE73E080E067
:1018C00090E00E94920389E0A3CF80919E039091C3
:1018D0009F039C01245F3F4F2C173D0761F4039742
:1018E00051F06091A4037091A503772772608FE097
:1018F0000E94E204E2CF8091A0039091A1039C0199
:10190000245F3F4F2C173D0719F4039709F0B4CF1C
:10191000609192037091930382E10E94E2048091AE
:101920009203909193030196909393038093920373
:101930002091940330919503281739070CF0BBCF01
:1019400081E090E09093930380939203B4CF0F9340
:101950001F93CF93DF93EC0188819981009759F011
:101960002A813B812617370730F081E0DF91CF9144
:101970001F910F9108958B016F5F7F4F0E94732716
:10198000009759F0998388831B830A832C813D81BA
:10199000232B59F7FC011082E8CF80E0E7CFCF93EB
:1019A000DF93EC0188819981009711F00E94EA266B
:1019B000198218821D821C821B821A82DF91CF91AC
:1019C0000895EF92FF920F931F93CF93DF93EC0153
:1019D000FB01E080F180E114F10411F10481158133
:1019E00001151105A9F08C819D81080F191FB801FF
:1019F000CE010E94A70C882399F0288139818C811F
:101A00009D81B701820F931F0E944D281D830C8377
:101A1000CE01DF91CF911F910F91FF90EF9008952C
:101A2000CE010E94CF0CF4CFEF92FF920F931F9341
:101A3000CF93DF93EC017B01198218821B821A82FB
:101A40001D821C82FB0101900020E9F731978F0174
:101A5000061B170BB8010E94A70C811109C0CE010B
:101A6000DF91CF911F910F91FF90EF900C94CF0CCD
:101A70001D830C83B70188819981DF91CF911F91DC
:101A80000F91FF90EF900C944D28FC018081918183
:101A9000009711F00C94EA26089585ED8093BC0020
:101AA00080914B0390914C03A0914D03B0914E0354
:101AB0000796A11DB11D23E0B695A795979587952B
:101AC0002A95D1F72091BC0024FD03C01092490350
:101AD000089540914B0350914C0360914D037091D8
:101AE0004E03452B462B472B69F30097A105B10503
:101AF00041F025E32A95F1F700000197A109B1090A
:101B0000E1CF80914A030C9447066F927F928F92A7
:101B10009F92AF92BF92CF92DF92EF92FF920F937C
:101B20001F93CF93DF93CDB7DEB7E988FA88FE0124
:101B30007496D12CC12C712CAB88B12C80E1682E0D
:101B4000872D90E0CA14DB042CF52FE0271510F147
:101B50004F0122E0820E911C60817181FB01019096
:101B60000020E9F731978F01061B170B9C01200F0E
:101B7000311D462D4719213131050CF4402F50E01D
:101B80008E0D9F1D0E945428700E8FEFC81AD80A20
:101B9000F401D6CF8E0D9F1DFC011082C701DF918D
:101BA000CF911F910F91FF90EF90DF90CF90BF905A
:101BB000AF909F908F907F906F900895CF92DF921B
:101BC000EF92FF920F931F93CF93DF93CDB7DEB7C2
:101BD00060970FB6F894DEBF0FBECDBF188A1F8680
:101BE0002AE32F872CE330E040E050E00E94EC2510
:101BF0006B01B901CE0101960E940C0B8E01045FAE
:101C00001F4F42E0BE016F5F7F4FC8010E94850BEE
:101C1000B601CE0101960E940C0B7E0189E0E80E10
:101C2000F11C42E0BE016F5F7F4FC7010E94850B30
:101C3000FF92EF92CE010F969F938F931F930F9376
:101C400083E08F938AEC93E09F938F930E94850D9E
:101C50000FB6F894DEBF0FBECDBF8AEC93E060965E
:101C60000FB6F894DEBF0FBECDBFDF91CF911F91AD
:101C70000F91FF90EF90DF90CF9008958F929F92F9
:101C8000AF92BF92CF92DF92EF92FF920F931F938A
:101C9000CF93DF93CDB7DEB760970FB6F894DEBF72
:101CA0000FBECDBF188A1F862AE32F872CE330E0B2
:101CB00040E050E00E94EC254B0179012D303105C8
:101CC00014F02C503109B901CE0101960E940C0B81
:101CD0008E01045F1F4F42E0BE016F5F7F4FC8015E
:101CE0000E94850BB401CE0101960E940C0B6E017F
:101CF00099E0C90ED11C42E0BE016F5F7F4FC60163
:101D00000E94850B8CE0E816F10474F584E791E0FD
:101D10009F938F93DF92CF92CE010F969F938F93D5
:101D20001F930F9384E08F938AEC93E09F938F939C
:101D30000E94850D0FB6F894DEBF0FBECDBF8AECB2
:101D400093E060960FB6F894DEBF0FBECDBFDF9173
:101D5000CF911F910F91FF90EF90DF90CF90BF90A8
:101D6000AF909F908F9008958DE691E0D1CFCF9264
:101D7000DF92EF92FF920F931F93CF93DF93CDB734
:101D8000DEB765970FB6F894DEBF0FBECDBF8250A9
:101D90008D3208F0EAC1E82FF0E0EF52F14F0C94D9
:101DA0000B26FE0EFE0EFE0E640F640FB5107B0FA9
:101DB000AA0FC60FD10FDE0FB510F60F1B10B5100E
:101DC000241031103610441049104E106310B21018
:101DD000B5106810681068107110711071107A10C9
:101DE0007A107A10831083108310B5108C108C1029
:101DF0008C109510A010A010A010A9101D8A1C8A8C
:101E00008FE28C8B6091770370917803CE010196FD
:101E10000E940C0B8E010F5E1F4F42E0BE016F5FF0
:101E20007F4FC8010E94850B609175037091760306
:101E3000CE0101960E940C0B7E018EE0E80EF11C93
:101E400042E0BE016F5F7F4FC7010E94850B60912A
:101E5000730370917403CE0101960E940C0B6E0106
:101E600099E0C90ED11C44E0BE016F5F7F4FC601EF
:101E70000E94850BDF92CF92CE0144969F938F9361
:101E8000FF92EF929F938F931F930F9385E08F9311
:101E90008AEC93E09F938F930E94850D0FB6F89480
:101EA000DEBF0FBECDBF8AEC93E065960FB6F89407
:101EB000DEBF0FBECDBFDF91CF911F910F91FF907D
:101EC000EF90DF90CF900895A091C803B091C9031F
:101ED0002CE330E00E9411260091C6031091C70345
:101EE000012E000C220B330B600F711F821F931FFA
:101EF0000E943E0ED8CF60918803709189036D30A7
:101F0000710514F06C507109CE0101960E940C0B02
:101F10008E01075F1F4F42E0BE016F5F7F4FC80118
:101F20000E94850B80918803909189030C971CF483
:101F300081E791E002C08AE691E09F938F931F931F
:101F40000F9382E08F938AEC93E09F938F930E948C
:101F5000850DA4CF60918A0370918B036D3071055C
:101F600014F06C507109CE0101960E940C0B8E0189
:101F7000075F1F4F42E0BE016F5F7F4FC8010E94A5
:101F8000850B80918A0390918B03D0CF609194034D
:101F900070919503CE0101960E940C0B2CE731E065
:101FA0000AC060918C0370918D03CE0101960E944E
:101FB0000C0B23E831E03F932F9343C060918E03D5
:101FC00070918F03CE0101960E940C0B9F938F930B
:101FD00081E08F938AEC93E09F938F930E94850D0D
:101FE0000F900F900F900F900F905DCF0091030115
:101FF00010910401B8010D30110514F06C507109F5
:10200000CE0101960E940C0B7E0199E0E90EF11CB5
:1020100042E0BE016F5F7F4FC7010E94850B81E7E1
:1020200091E00C30110514F08AE691E09F938F93B4
:10203000FF92EF9286CF8CE891E09F938F9384E993
:1020400091E09F938F937DCF60919A0370919B0352
:102050006330710509F090C026EA31E088E791E02D
:10206000AACF60919C0370919D03F2CF60919E0373
:1020700070919F036330710579F3CE0101960E9440
:102080000C0B2DE631E097CF6091A0037091A10376
:10209000F1CF60919603709197037CCF6091A2037A
:1020A0007091A303CE0101960E940C0B8E01075F75
:1020B0001F4F43E0BE016F5F7F4FC8010E94850B39
:1020C0001F930F9385CF6091A4037091A503EACF6E
:1020D0006091A6037091A7038091A8039091A90332
:1020E00007CF6091AA037091AB038091AC039091EC
:1020F000AD03FECE6091AE037091AF038091B0034B
:102100009091B103F5CE6091B2037091B3038091C9
:10211000B4039091B503ECCE6091B6037091B70310
:102120008091B8039091B903E3CE6091BA037091A6
:10213000BB038091BC039091BD030E94DE0DB3CE22
:102140006091BE037091BF038091C0039091C10361
:10215000CFCE6091C2037091C3038091C40390916C
:10216000C503EBCF1092CA039ECE62E371E08AEC06
:1021700093E00E944D2897CECE0101960E940C0B51
:1021800024E731E018CF6F927F929F92AF92BF9277
:10219000CF92DF92EF92FF920F931F93CF93DF9333
:1021A000CDB7DEB7A3970FB6F894DEBF0FBECDBF95
:1021B000CE0109960E9443096C85662309F4E4C0A8
:1021C0006C3011F008F06C5070E0CE0101960E9466
:1021D0000C0B8E01085E1F4F42E0BE016F5F7F4F08
:1021E000C8010E94850BCE0109960E9443096D85A6
:1021F00070E0CE0101960E940C0B7E012BE1E20EF5
:10220000F11C42E0BE016F5F7F4FC7010E94850B4A
:10221000CE0109960E9443096E8570E0CE010196B9
:102220000E940C0B6E013EE1C30ED11C42E0BE01C8
:102230006F5F7F4FC6010E94850B60E080E00E94C7
:10224000190ACE0109960E9443098C858C3008F04A
:102250009DC080EA91E09F938F93DF92CF9287EAAF
:1022600091E09F938F93FF92EF929F938F931F9391
:102270000F9384EAE82E81E0F82EFF92EF9297E028
:10228000992E9F920CEE13E01F930F930E94850DE1
:102290000E94FA0ACE0109960E9443096B8570E0FC
:1022A000CE0101960E940C0B6E0181E2C80ED11C7A
:1022B00042E0BE016F5F7F4FC6010E94850BCE01D9
:1022C00009960E944309698570E06053784FCE01FA
:1022D00001960E940C0B3E012FE0620E711C44E03F
:1022E000BE016F5F7F4FC3010E94850BCE0109962F
:1022F0000E9443098A858150990B26E0289FF001AE
:10230000299FF00D1124E75FFB4F608171815E0111
:1023100034E1A30EB11CC5010E944D2861E080E0AC
:102320000E94190A83EA91E09F938F937F926F92A4
:1023300089EA91E09F938F93BF92AF929F938F937F
:10234000DF92CF92FF92EF929F921F930F930E9482
:10235000850D0FB6F894DEBF0FBECDBF0E94FA0AFE
:10236000A3960FB6F894DEBF0FBECDBFDF91CF911D
:102370001F910F91FF90EF90DF90CF90BF90AF90A3
:102380009F907F906F9008956CE01ECF89E991E057
:1023900062CF1F93CF93DF93CDB7DEB761970FB6B0
:1023A000F894DEBF0FBECDBF0E947502182F60E00B
:1023B00080E00E94190A0E94630290915704E09104
:1023C0005404F0915504882369F186E0989FE00D4C
:1023D000F11D1124319665917491CE0101960E94F0
:1023E00022250E94510B8EE78093FB038CEE93E035
:1023F0000E94FA0A1A3151F01D3141F0103231F0C9
:10240000812F8B7F833211F01B3231F561E080E048
:102410000E94190A85EA91E00E94FA0A812F0E941F
:10242000B70E20C086E0989FE00DF11D1124319673
:1024300065917491CE0101960E9422250E94510B54
:102440000E947502182F81111BC08FE78093FB0338
:102450008CEE93E00E94FA0A61E080E00E94190A83
:102460008DE191E00E94510B0E94FA0A61960FB62D
:10247000F894DEBF0FBECDBFDF91CF911F910895BD
:102480008CEE93E00E94FA0AC1CF1F920F920FB612
:102490000F9211242F933F938F939F93AF93BF93EA
:1024A00080919A0290919B02A0919C02B0919D0212
:1024B0003091990223E0230F2D3758F50196A11D85
:1024C000B11D2093990280939A0290939B02A0934E
:1024D0009C02B0939D0280919E0290919F02A091D8
:1024E000A002B091A1020196A11DB11D80939E0290
:1024F00090939F02A093A002B093A102BF91AF91CD
:102500009F918F913F912F910F900FBE0F901F9031
:10251000189526E8230F0296A11DB11DD2CF1F9258
:102520000F920FB60F9211242F933F934F935F9307
:102530006F937F938F939F93AF93BF93EF93FF938B
:10254000E091A402F091A502309749F0A685B785E5
:102550008585968D91FF14C09C918923A1F4FF91EC
:10256000EF91BF91AF919F918F917F916F915F910B
:102570004F913F912F910F900FBE0F901F90189584
:102580009C91892361F7A389B4899C918589809561
:1025900089238C93868997890197F1F7608D718DD6
:1025A000A685B785558538E020E0CB010197F1F786
:1025B000822F90E095958795282F4C91452309F01F
:1025C0002068315091F7868D81FD20958091A3027E
:1025D00090E001968F7399273091A202381799F0F5
:1025E000A091A302B0E0A75ABD4F2C938093A30201
:1025F000828D938D0197F1F7A389B4898C91958988
:10260000892B8C93ACCF868D8160868FF1CF1F9202
:102610000F920FB60F9211242F933F934F935F9316
:102620006F937F938F939F93AF93BF93EF93FF939A
:102630008091B900887F803609F44AC0F0F588326D
:1026400009F4A7C018F5803109F49BC0B8F48823B9
:1026500009F4F9C0883009F494C0FF91EF91BF915B
:10266000AF919F918F917F916F915F914F913F912A
:102670002F910F900FBE0F901F901895883109F47D
:1026800088C0803251F78093470314C0803409F426
:102690009DC040F48033B9F38833F9F68093470343
:1026A00085ECB0C0803509F485C0883509F496C042
:1026B000883499F60E944D0DD0CF883909F48CC02A
:1026C00038F5883729F050F4883611F0803729F62C
:1026D00083E0809349031092580257C0883809F468
:1026E0007BC0803919F0803809F0B7CF809158024B
:1026F000803208F071C0E091580281E08E0F809323
:1027000058028091BB00F0E0E85CFD4F80833DC043
:10271000803B39F0E0F4803A09F479C0883A09F056
:102720009CCF84E0809349031092370210923602C6
:10273000E091FF02F091000309958091360281112A
:102740000FC081E0809336021092160209C0803CCF
:1027500009F4A6CF883C09F4A3CF883B09F07DCFCC
:10276000E091370281E08E0F80933702F0E0EA5E5D
:10277000FD4F80818093BB0090913702809136029B
:1027800029C0809124038093BB0085EC8093BC001A
:1027900064CF9091460380914503981758F5E091D6
:1027A000460381E08E0F80934603F0E0EB5DFC4F23
:1027B0008081E9CFE091460381E08E0F809346034C
:1027C0008091BB00F0E0EB5DFC4F8083909146036D
:1027D000809145039817C8F285E8D8CFE091460369
:1027E00081E08E0F809346038091BB00F0E0EB5DAB
:1027F000FC4F80838091480381115CCF81E08093FE
:10280000230384EA8093BC001092490326CF85EC11
:102810008093BC001092490380915802803230F4BA
:10282000E0915802F0E0E85CFD4F108260915802A0
:1028300070E0E091FD02F091FE0288E392E00995DC
:10284000109258020ACF1092470334CF109200041E
:102850001092FF0388EE93E0A0E0B0E080930104C3
:1028600090930204A0930304B09304042CE331E09A
:102870003093FE032093FD031092A2041092A10452
:102880008093A3049093A404A093A504B093A604FA
:102890008AE591E09093A00480939F041092B6047F
:1028A0001092B5041092B8041092B7041092BA04B2
:1028B0001092B9041092BC041092BB046091BD0444
:1028C0006E7F6D7F6093BD046695617081E06827BF
:1028D00083E00E94030361E083E00E943103E9E3A7
:1028E000F4E0E491E093AF04E5E2F4E0E491F0E099
:1028F000EE0FFF1FE85EFB4F859194919093B1041A
:102900008093B00460E082E00E9431038091BD04B6
:1029100081FD04C061E082E00E94030382E08093B5
:10292000AB04E8E3F4E0E491E093AC04E4E2F4E027
:10293000E491F0E0EE0FFF1FE25FFB4F2591349131
:102940003093AE042093AD0444EF51E060E070E0BA
:1029500040937F04509380046093810470938204B9
:102960009AE0E3E1F1E0ADE8B4E001900D929A95D0
:10297000E1F7109297048093980410929D041092AE
:102980009E041092700410926F042EE431E0309394
:102990006E0420936D0497E29093710490E19093FC
:1029A000760480937704109278042AE434E030931C
:1029B00052042093510486E08093530430935504CD
:1029C00020935404809356041092570410926C0480
:1029D0006BEA71E089E094E00E94140D6FEA71E007
:1029E0008FE094E00E94140D63EB71E085E194E0C8
:1029F0000E94140D67EB71E08BE194E00E94140DCE
:102A00006BEB71E081E294E00E94140D6FEB71E0DA
:102A100087E294E00E94140D63EC71E08DE294E093
:102A20000E94140D67EC71E083E394E00E94140DA2
:102A30006BEC71E089E394E00E94140D6FEC71E09F
:102A40008FE394E00E94140D63ED71E085E494E05F
:102A50000E94140D67ED71E08BE494E00C94140D6A
:102A6000CF93DF93CDB7DEB7A0970FB6F894DEBF54
:102A70000FBECDBF789484B5826084BD84B581607B
:102A800084BD85B5826085BD85B5816085BD809139
:102A90006E00816080936E001092810080918100B1
:102AA00082608093810080918100816080938100A9
:102AB000809180008160809380008091B10084606B
:102AC0008093B1008091B00081608093B0008091CC
:102AD0007A00846080937A0080917A00826080938B
:102AE0007A0080917A00816080937A0080917A00E8
:102AF000806880937A001092C10061E08EE00E94AD
:102B0000310361E08DE00E94310361E080E10E94C9
:102B1000310361E08FE00E94310361E08AE00E94AE
:102B2000310361E08BE00E94310361E08CE00E94A0
:102B3000310362E085E00E94310362E086E00E949A
:102B4000310362E087E00E94310362E088E00E9486
:102B5000310362E089E00E9431030E9430060E9446
:102B600030061092720480917704823018F098E059
:102B7000909372048093750462E370E080E090E0CB
:102B80000E949203609178048DE694E00E94A3086D
:102B900068EE73E080E090E00E94920360E38DE6CF
:102BA00094E00E94E9090BE416E4C8010197F1F7EB
:102BB00060E38DE694E00E94E909C8010197F1F70E
:102BC00060E38DE694E00E94E90983E592E00197D5
:102BD000F1F760E28DE694E00E94E90960917204E9
:102BE000606240E08DE694E00E94020A84E08093F7
:102BF000730440E06CE08DE694E00E94020A0E94BB
:102C00004C0A82E08093740440E066E08DE694E034
:102C10000E94020A40E062E08DE694E00E94020A0F
:102C20008BE39FE10197F1F788E08093780460E0FF
:102C30008DE694E00E94A30860E085E00E94190AF6
:102C400080EA93E00E94E00A61E086E00E94190AAF
:102C50008AE993E00E94E00A60ED77E080E090E08E
:102C60000E9492030E944C0A60E083E00E94190ACD
:102C70008BED91E00E94FA0A4DE450E070E060E0D4
:102C800089E793E00E945E2563E271E089E793E0C3
:102C90000E944428892B09F494C063E271E089E71B
:102CA00093E00E944D2882E390E0909395038093F7
:102CB000940385E090E0909389038093880386E1F4
:102CC00090E090938B0380938A0384E190E090934B
:102CD0008D0380938C038EE090E090938F0380931C
:102CE0008E0321E030E030939303209392038AE037
:102CF00090E09093970380939603309399032093E9
:102D0000980383E090E090939B0380939A039093C1
:102D10009D0380939C039093A1038093A0039093C1
:102D20009F0380939E033093A3032093A20382E02A
:102D300090E09093A5038093A4031092A6031092B1
:102D4000A7031092A8031092A9031092AA0310924D
:102D5000AB031092AC031092AD031092AE0310922D
:102D6000AF031092B0031092B1031092B20310920D
:102D7000B3031092B4031092B5031092B6031092ED
:102D8000B7031092B8031092B9031092BA031092CD
:102D9000BB031092BC031092BD031092BE031092AD
:102DA000BF031092C0031092C1031092C20310928D
:102DB000C3031092C4031092C503109290031092A3
:102DC000910311E008E60E94300610934F03009330
:102DD000710310925003109272030E9468068111D1
:102DE000EAC010934F03109250031092720360E0F8
:102DF0008DEF93E00E9474080E94680661E088E607
:102E00000E944F0710920203809301038DEF93E01D
:102E10000E942D0887FF0CC00E944C0A8CE893E0AA
:102E20000E94E00A60ED77E080E090E00E9492036B
:102E30000E944C0A89E00E94DA02892B09F405C13C
:102E40001092BA041092B9041092B8041092B70408
:102E50001092B6041092B5048DE991E09093BC04F1
:102E60008093BB049091AB04963108F047C02DEBE2
:102E700030E03093B6042093B5042BE931E0309371
:102E8000B8042093B7042CE231E03093BA042093C5
:102E9000B9042091680084E0983048F031E09E3019
:102EA00008F430E081E001C0880F3A95EAF7822B00
:102EB000809368002DE630E0983050F02BE630E04B
:102EC0009E3030F02CE630E0963110F030E020E01B
:102ED0003093B3042093B204292F30E0983008F0E7
:102EE00071C081E001C0880F9A95EAF78093B4041D
:102EF0008091BB049091BC040197F1F78091B904D3
:102F00009091BA04892B49F1E091A402F091A502B5
:102F100024E0EF39F20709F1309739F0A389B48939
:102F20009C918589809589238C938091BD048E7FA7
:102F30008093BD041092A3021092A2028FE994E044
:102F40009093A5028093A402E091B204F091B3049F
:102F500080819091B404892B808364EF71E080E0DC
:102F600090E00E9492030FE914E0BB24B394109305
:102F70007A0400937904B092910470E060E08CE0F0
:102F80000E94E2040E94C5036B017C010E94D103F0
:102F9000811125C00E94C5036C197D098E099F0906
:102FA000613D774081059105D0F460E070E0CB0190
:102FB0000E949203EBCF0E944C0A83E993E00E94A7
:102FC000E00A01CF9E3040F42850310981E001C071
:102FD000880F2A95EAF78ACF2E503109F7CF68EC8F
:102FE00070E080E090E00E94920310929D04809136
:102FF0009904843059F0893049F060E080E00E9403
:10300000190A85E893E00E94E00AB1CF84EF91E0CD
:10301000A0E0B0E080937F0490938004A0938104AB
:10302000B093820460918E0370918F03772786E0BE
:103030000E94E20462E070E089E00E94E20468EC31
:1030400070E080E090E00E9492030E944C0A0E948F
:10305000C5036093F8027093F9028093FA0290938B
:10306000FB0246E1242E312CCE01019698A38F8FCE
:10307000772473940E94C503C090D302D090D402E9
:10308000E090D502F090D6026C197D098E099F0957
:10309000643171058105910508F497C00E94C5034C
:1030A0006093D3027093D4028093D5029093D6029A
:1030B00086E00E94DA027C0187E00E94DA0201E0E9
:1030C000892B21F0EF2809F400E0019588E00E94A7
:1030D000DA02892B09F402E089E00E94DA02892BE6
:1030E00009F403E086EAC82E82E0D82E9AEBE92E96
:1030F00092E0F92E2EE1822E21E0922E3EECA32EBC
:1031000032E0B32E11E0612C611050C1F4018081D6
:1031100080134CC16624639444244394F501819147
:103120005F018415A9F0442009F442C1812F0E9457
:103130002B090E94C503F701608371838283938307
:10314000F6016083718382839383F5013197408216
:10315000442071F10E94C503F70120813181428131
:103160005381621B730B840B950B693B7B4081057C
:103170009105F0F00E94C503F60120813181428162
:103180005381621B730B840B950B6B3F710581059B
:10319000910570F08A2D2EEC32E0821B80680E942F
:1031A0002B090E94C503F601608371838283938398
:1031B0001F5FF4E0CF0ED11C24E0E20EF11C3FEFC4
:1031C000831A930A163009F09FCF9091DD021916E9
:1031D0000CF406C11092FC028091FC02833801F5C8
:1031E0008091F30281111CC080919103811159C11A
:1031F0007092910361E00E94190A8BED93E00E94A6
:10320000E00A6091910380E10E94030368EE73E09D
:1032100080E090E00E9492030E94C10B7092F30242
:103220001091FC028EE3810F833010F41092F302B0
:103230000E94C5038090EF029090F002A090F102EE
:10324000B090F202681979098A099B09693E7340B6
:103250008105910508F48BC00E94C5036093EF02BD
:103260007093F0028093F1029093F20280919103A7
:10327000882309F47CC08090A6039090A703A090B7
:10328000A803B090A90381149104A104B10489F1A9
:103290004091AA035091AB036091AC037091AD03D0
:1032A000411551056105710521F18091E20290916E
:1032B000E302A091E402B091E5022091DF028416BE
:1032C0009506A606B7060CF0FFC088159905AA0555
:1032D000BB050CF4EFC084179507A607B7070CF0E1
:1032E000E9C0211106C061E08AE00E9403037092E8
:1032F000DF028090AE039090AF03A090B003B09037
:10330000B10381149104A104B10489F14091B20385
:103310005091B3036091B4037091B5034115510509
:103320006105710521F18091E2029091E302A09183
:10333000E402B091E5022091DE0284169506A6060D
:10334000B7060CF0D2C088159905AA05BB050CF488
:10335000C2C084179507A607B7070CF0BCC021119F
:1033600006C061E08BE00E9403037092DE02609170
:10337000910380E10E940303609190038FE00E941B
:1033800003038091EE02823009F498C308F0B4C0C0
:10339000882309F43FC1813009F444C280E090E001
:1033A000892B09F467CE0E94000062CE412CB6CE74
:1033B0000E94C503F7012081318142815381621B44
:1033C000730B840B950B693B7B408105910528F0BD
:1033D000812F806C0E942B09B8CE812F8064FACF98
:1033E0008091DC02E82FF0E0E952FD4F108191500E
:1033F0009093DD028F5F853008F047C08093DC0238
:103400001093FC02112309F40BCF0E94C5036093B3
:10341000F8027093F9028093FA029093FB020E94E3
:10342000C5036093F4027093F5028093F6029093C3
:10343000F70288E08093780460E08DE694E00E94D3
:10344000A308123809F0C8CE8091F3028111E8CEAA
:103450008091900381111CC07092900361E00E94E2
:10346000190A8DEF93E00E94E00A609190038FE0CB
:103470000E94030368EE73E080E090E00E949203F4
:103480000E94C10B7092F302A7CE1092DC02B8CF5B
:103490001092900361E080E00E94190A8CEE93E0A4
:1034A000E2CF1092910361E080E00E94190A8AEC59
:1034B00093E0A5CE213009F01CCF60E08AE00E94A5
:1034C00003031092DF0215CF88159905AA05BB05E5
:1034D0000CF007CF00CF213009F049CF60E08BE03E
:1034E0000E9403031092DE0242CF88159905AA05B7
:1034F000BB050CF034CF2DCF843011F40C945F2435
:1035000008F461C1853009F049CF61E08EE00E9486
:10351000030361E08DE00E9403030E94C503C09095
:10352000E602D090E702E090E802F090E9026C1920
:103530007D098E099F09693E73408105910570F1EF
:103540000E94C5036093E6027093E7028093E8024D
:103550009093E9020E94C310CE0101960E94430994
:10356000EC802CE3E29E70011124CE0143960E9470
:1035700043098F898E0D9F2D911D092E000CAA0BDA
:10358000BB0B8093E2029093E302A093E402B0931A
:10359000E5028091900381110E94570A0E94C503A1
:1035A0000091F8021091F9022091FA023091FB0289
:1035B0006B017C01C01AD10AE20AF30AA0918C03C4
:1035C000B0918D0328EE33E00E9411266C157D0525
:1035D0008E059F0538F41092780460E08DE694E043
:1035E0000E94A30861E080E00E94190A88EA93E043
:1035F0000E94E00A8091FC02843809F0CFCE8091CD
:10360000F3028111CBCE1092EE021092E1021092E1
:10361000E002D4C060E08EE00E94030360E08DE031
:103620000E940303113879F47092EE0283E00E9445
:10363000C9110E94C5036093F4027093F502809350
:10364000F6029093F702CE0101960E9443098D8104
:10365000811143C0CE0143960E944309888D811198
:103660003CC00E94C503AB01BC018091EA0290916D
:10367000EB02A091EC02B091ED02885B9141AF4F5B
:10368000BF4F84179507A607B70738F5CE010196F7
:103690000E9443098C8190E0209188033091890336
:1036A00082179307D4F020918A0330918B03281757
:1036B00039079CF061E08EE00E9403030E94C5037D
:1036C0006093EA027093EB028093EC029093ED0218
:1036D00083E08093EE020E944C0A0E94C503C090D2
:1036E000E602D090E702E090E802F090E9026C195F
:1036F0007D098E099F09693E73408105910570F12E
:103700000E94C5036093E6027093E7028093E8028B
:103710009093E9020E94C310CE0101960E944309D2
:10372000EC802CE3E29E70011124CE0143960E94AE
:1037300043098F898E0D9F2D911D092E000CAA0B18
:10374000BB0B8093E2029093E302A093E402B09358
:10375000E5028091900381110E94570A0E94C503DF
:103760000091F8021091F9022091FA023091FB02C7
:103770006B017C01C01AD10AE20AF30AA0918C0302
:10378000B0918D0328EE33E00E9411266C157D0563
:103790008E059F0538F41092780460E08DE694E081
:1037A0000E94A3088091FC02843809F0F7CD809133
:1037B000F3028111F3CD85E08093EE020E944C0A62
:1037C0007092F302EBCD88E08093780460E08DE6A0
:1037D00094E00E94A30861E080E00E94190A86EE4E
:1037E00091E00E94FA0A0E94C503AB01BC018091DE
:1037F000EA029091EB02A091EC02B091ED028857A1
:103800009C4EAF4FBF4F481759076A077B0708F414
:10381000C5CDCE0101960E9443098C8190E00E94A3
:10382000C90BBCCD0E94C5038090F4029090F502B4
:10383000A090F602B090F702681979098A099B09ED
:103840006131774281059105A0F0809151049091FA
:1038500052049093550480935404809153048093B0
:1038600056041092570410926C041092EE020E94BB
:103870004C0A0E9475028130A1F5CE0101960E948A
:1038800043098B8190E09093780380937703CE0176
:1038900001960E9443098A8190E090937603809379
:1038A0007503CE0101960E944309898190E08053FF
:1038B000984F9093740380937303CE0101960E94F6
:1038C00043098C8190E09093C9038093C803CE0193
:1038D00001960E9443098D8190E09093C7038093E5
:1038E000C6031438A1F4809151049091520490932E
:1038F000550480935404809153048093560410928D
:10390000570410926C041092EE020E944C0A0E941E
:103910006302812F8F77823061F1833061F1113042
:1039200061F1143461F110E08DEF810F823008F005
:10393000A7C00E947502882321F1143011F10E9462
:10394000630281115AC082E08093EE020E947502E8
:10395000882309F423CD61E080E00E94190A8EE7F4
:103960008093EC031092ED038CEE93E00E94FA0A30
:1039700015CD11E0D9CF12E0D7CF13E0D5CF14E0A9
:10398000D3CF80916C04811113C080915104909128
:10399000520490935504809354048091530480936F
:1039A0005604109257040E944C0A1092EE02F6CC74
:1039B000815080936C0490E0DC01AA0FBB1FAA0F1A
:1039C000BB1FAF5ABB4F19962D913C911A9730935C
:1039D000550420935404880F991F880F991FFC01E8
:1039E000E75AFB4F80818093560417968C91809301
:1039F000570482E00E94C911D1CC0E94630288233F
:103A000009F43CC0309157046091540470915504FE
:103A100020916C042530E8F440915604822F90E008
:103A2000DC01AA0FBB1FAA0FBB1FAF5ABB4F1796D3
:103A30003C931797880F991F880F991F875A9B4FA0
:103A4000FC0140831A967C936E9319972F5F209305
:103A50006C04CB01F6E03F9F800D911D1124FC0109
:103A60003596E491E0935604FC0133968591949148
:103A700090935504809354041092570483E0BACF76
:103A8000113051F480915704882309F487CC815078
:103A90008093570480E0AECF123009F07FCC809144
:103AA0005704209156042150330B821713060CF053
:103AB00075CC8F5F8093570481E09CCF0E94750284
:103AC000D82EEE24E394113009F0E12CEEEFED0D49
:103AD000ED3208F005C2F0E0E059F24E0C940B26EE
:103AE0009D1DC71DE81D1F1E5C1E701F901EB51E6C
:103AF000D41EEE1E0E1F701F3C1F5B1F701FA21FE7
:103B0000E41FC31F0520262041206220B923701F17
:103B1000701F8320C220701FF7203621701F6B2179
:103B2000AA21701FDF211E22701F701F53229222B4
:103B3000C722701F062345237A23812F8F77823077
:103B4000C1F48091770390917803019680329105BA
:103B500014F081E090E0909378038093770361E024
:103B600081E00E94190A8D2D0E94B70E0E94510B10
:103B70009BC6833009F04DC0809177039091780304
:103B80000197181619063CF38FE190E0E4CF812FDE
:103B90008F77823079F48091750390917603019646
:103BA0008D30910514F081E090E09093760380933E
:103BB0007503D5CF833009F061C080917503909172
:103BC000760301971816190684F38CE090E0EDCF88
:103BD000812F8F77823081F48091730390917403E9
:103BE00001968330F8E09F0714F081E090E0909315
:103BF000740380937303B3CF833059F480917303BC
:103C0000909174030197181619068CF384EE97E0CF
:103C1000EECF113009F051C62091C6033091C80390
:103C200040917703509175038091730390917403D1
:103C3000803D67E09607A8F1805D974032C0812FF4
:103C40008F77823079F48091C8039091C9030196EF
:103C50008831910514F090E080E09093C90380933F
:103C6000C8037DCF833051F48091C8039091C9037C
:103C7000019797FFF2CF87E190E0EFCF113009F085
:103C80001CC62091C6033091C80340917703509120
:103C900075038091730390917403803DE7E09E0764
:103CA00058F689835A834B833C832D831E82CE0131
:103CB00001960E94B60853CF812F8F77823079F416
:103CC0008091C6039091C70301968C33910514F03F
:103CD00090E080E09093C7038093C60340CF833089
:103CE00051F48091C6039091C703019797FFF2CFDB
:103CF0008BE390E0EFCF113009F0DFC52091C603D0
:103D00003091C803409177035091750380917303FC
:103D100090917403803DF7E09F0708F08DCFC1CFED
:103D2000812F8F77823079F4809188039091890375
:103D300001968831910514F090E080E0909389031A
:103D4000809388030CCF833051F480918803909145
:103D50008903019797FFF2CF87E190E0EFCF113011
:103D600009F0ABC50E94C10BFACE812F8F7782304C
:103D700079F480918A0390918B03019688319105A3
:103D800014F090E080E090938B0380938A03E7CE59
:103D9000833029F780918A0390918B03019797FFD5
:103DA000F2CF87E190E0EFCF812F8F77823051F40F
:103DB000809194039091950301969093950380933D
:103DC0009403CDCE833059F680919403909195035E
:103DD000019797FFF2CF84E690E0EFCF812F8F77A6
:103DE000823079F480918C0390918D0301968D330C
:103DF000910514F090E080E090938D0380938C0304
:103E0000AECE833009F0ABCF80918C0390918D03BF
:103E1000019797FFF1CF8CE390E0EECF812F8F7762
:103E2000823079F480918E0390918F0301968F31C7
:103E3000910514F081E090E090938F0380938E03BE
:103E40008ECE833059F480918E0390918F03019729
:103E5000181619068CF38EE190E0EECF113009F0C0
:103E60002CC50E94C10B60918E0370918F03772740
:103E700086E00E94E20473CE1F77123079F48091BD
:103E800003019091040101968831910514F084E0BA
:103E900090E0909304018093030161CE133001F50B
:103EA00080910301909104010197843091058CF772
:103EB00087E190E0EECF809151049091520490936D
:103EC00055048093540480915304809356041092B7
:103ED000570410926C0484E08093EE020E944C0A16
:103EE0000E94C5038090F4029090F502A090F60223
:103EF000B090F702681979098A099B096131774204
:103F000081059105A0F08091510490915204909305
:103F10005504809354048091530480935604109266
:103F2000570410926C041092EE020E944C0AEE208C
:103F300009F434CA7092EE0261E080E00E94190A2E
:103F400080E20ECD812F8F77823079F480919A03B1
:103F500090919B0301968930910514F083E090E0E5
:103F600090939B0380939A03FACD833009F0F7CEA8
:103F700080919A0390919B0301978330910584F778
:103F800088E090E0EDCF812F8F77823079F48091B7
:103F90009E0390919F0301968930910514F083E070
:103FA00090E090939F0380939E03D9CD833009F0D6
:103FB000D6CE80919E0390919F0301978330910507
:103FC00084F788E090E0EDCF812F8F77823079F40D
:103FD00080919C0390919D0301968930910514F086
:103FE00083E090E090939D0380939C03B8CD833051
:103FF00009F0B5CE80919C0390919D030197833089
:10400000910584F788E090E0EDCF812F8F778230A3
:1040100079F48091A0039091A103019689309105D4
:1040200014F083E090E09093A1038093A00397CDD8
:10403000833009F094CE8091A0039091A103019761
:104040008330910584F788E090E0EDCF812F8F7762
:10405000823051F48091960390919703019690934A
:104060009703809396037BCD833009F078CE8091BF
:10407000960390919703019797FFF1CF84E690E024
:10408000EECF812F8F77823079F48091A2039091C7
:10409000A30301968531910514F081E090E090939F
:1040A000A3038093A2035BCD833009F058CE8091A7
:1040B000A2039091A30301971816190684F384E1D3
:1040C00090E0EDCF812F8F77823079F48091A40337
:1040D0009091A50301968531910514F081E090E05F
:1040E0009093A5038093A4033ACD833009F037CE93
:1040F0008091A4039091A50301971816190684F3E3
:1041000084E190E0EDCF812F8F778230C9F48091E8
:10411000A6039091A703A091A803B091A903AC01B5
:10412000BD01445C5F4F6F4F7F4F77FD22C0403A27
:1041300025E0520761057105E4F4DB01CA0119C0ED
:10414000833009F00CCE8091A6039091A703A09133
:10415000A803B091A903AC01BD014C5351096109F9
:10416000710977FD06C0403A35E0530761057105D6
:1041700024F38093A6039093A703A093A803B0937E
:10418000A903EDCC812F8F778230B9F48091A603FB
:104190009091A703A091A803B091A903AC01BD0120
:1041A0004F5F5F4F6F4F7F4F77FDE3CF403AE5E0C2
:1041B0005E0761057105ECF6C0CF833009F0CFCD05
:1041C0008091A6039091A703A091A803B091A903A1
:1041D000AC01BD01415051096109710977FDC9CF99
:1041E000403AF5E05F07610571051CF6A6CF812F07
:1041F0008F778230C9F48091AA039091AB03A0918C
:10420000AC03B091AD03AC01BD01445C5F4F6F4F97
:104210007F4F77FD22C0403A25E0520761057105C6
:10422000E4F4DB01CA0119C0833009F098CD809114
:10423000AA039091AB03A091AC03B091AD03AC0184
:10424000BD014C5351096109710977FD06C0403A1F
:1042500035E053076105710524F38093AA03909319
:10426000AB03A093AC03B093AD0379CC812F8F77D0
:104270008230B9F48091AA039091AB03A091AC0372
:10428000B091AD03AC01BD014F5F5F4F6F4F7F4FEA
:1042900077FDE3CF403AE5E05E0761057105ECF696
:1042A000C0CF833009F05BCD8091AA039091AB031E
:1042B000A091AC03B091AD03AC01BD0141505109D7
:1042C0006109710977FDC9CF403AF5E05F076105E3
:1042D00071051CF6A6CF812F8F778230C9F48091AB
:1042E000AE039091AF03A091B003B091B103AC01C4
:1042F000BD01445C5F4F6F4F7F4F77FD22C0403A56
:1043000025E0520761057105E4F4DB01CA0119C01B
:10431000833009F024CD8091AE039091AF03A0913A
:10432000B003B091B103AC01BD014C535109610917
:10433000710977FD06C0403A35E053076105710504
:1043400024F38093AE039093AF03A093B003B09394
:10435000B10305CC812F8F778230B9F48091AE0301
:104360009091AF03A091B003B091B103AC01BD0136
:104370004F5F5F4F6F4F7F4F77FDE3CF403AE5E0F0
:104380005E0761057105ECF6C0CF833009F0E7CC1C
:104390008091AE039091AF03A091B003B091B103AF
:1043A000AC01BD01415051096109710977FDC9CFC7
:1043B000403AF5E05F07610571051CF6A6CF812F35
:1043C0008F778230C9F48091B2039091B303A091AA
:1043D000B403B091B503AC01BD01445C5F4F6F4FB6
:1043E0007F4F77FD22C0403A25E0520761057105F5
:1043F000E4F4DB01CA0119C0833009F0B0CC80912C
:10440000B2039091B303A091B403B091B503AC0192
:10441000BD014C5351096109710977FD06C0403A4D
:1044200035E053076105710524F38093B20390933F
:10443000B303A093B403B093B50391CB812F8F77CF
:104440008230B9F48091B2039091B303A091B40388
:10445000B091B503AC01BD014F5F5F4F6F4F7F4F10
:1044600077FDE3CF403AE5E05E0761057105ECF6C4
:10447000C0CF833009F073CC8091B2039091B30325
:10448000A091B403B091B503AC01BD0141505109F5
:104490006109710977FDC9CF403AF5E05F07610511
:1044A00071051CF6A6CF812F8F778230C9F48091D9
:1044B000B6039091B703A091B803B091B903AC01D2
:1044C000BD01445C5F4F6F4F7F4F77FD22C0403A84
:1044D00025E0520761057105E4F4DB01CA0119C04A
:1044E000833009F03CCC8091B6039091B703A09142
:1044F000B803B091B903AC01BD014C535109610936
:10450000710977FD06C0403A35E053076105710532
:1045100024F38093B6039093B703A093B803B093AA
:10452000B9031DCB812F8F778230B9F48091B60308
:104530009091B703A091B803B091B903AC01BD014C
:104540004F5F5F4F6F4F7F4F77FDE3CF403AE5E01E
:104550005E0761057105ECF6C0CF833009F0FFCB33
:104560008091B6039091B703A091B803B091B903BD
:10457000AC01BD01415051096109710977FDC9CFF5
:10458000403AF5E05F07610571051CF6A6CF812F63
:104590008F778230C9F48091BA039091BB03A091C8
:1045A000BC03B091BD03AC01BD014B5F5F4F6F4FCA
:1045B0007F4F77FD22C0403A25E052076105710523
:1045C000E4F4DB01CA0119C0833009F0C8CB809143
:1045D000BA039091BB03A091BC03B091BD03AC01A1
:1045E000BD01455051096109710977FD06C0403A86
:1045F00035E053076105710524F38093BA03909366
:10460000BB03A093BC03B093BD03A9CA812F8F77CE
:104610008230C9F48091BE039091BF03A091C00382
:10462000B091C103AC01BD01445C5F4F6F4F7F4F40
:1046300077FD22C0403AE5E05E0761057105E4F4CC
:10464000DB01CA0119C0833009F089CB8091BE0318
:104650009091BF03A091C003B091C103AC01BD0113
:104660004C5351096109710977FD06C0403AF5E0E4
:104670005F076105710524F38093BE039093BF0328
:10468000A093C003B093C1036ACA812F8F77823091
:10469000B9F48091BE039091BF03A091C003B09183
:1046A000C103AC01BD014F5F5F4F6F4F7F4F77FD7F
:1046B000E3CF403A25E0520761057105ECF6C0CF23
:1046C000833009F04CCB8091BE039091BF03A09141
:1046D000C003B091C103AC01BD0141505109610952
:1046E000710977FDC9CF403A35E05307610571057F
:1046F0001CF6A6CF812F8F778230C9F48091C20338
:104700009091C303A091C403B091C503AC01BD0156
:104710004B5F5F4F6F4F7F4F77FD22C0403AE5E020
:104720005E0761057105E4F4DB01CA0119C083303D
:1047300009F015CB8091C2039091C303A091C403EB
:10474000B091C503AC01BD01455051096109710922
:1047500077FD06C0403AF5E05F076105710524F377
:104760008093C2039093C303A093C403B093C50383
:10477000F6C9113809F09BC063E271E089E793E064
:104780000E944D2822E330E0309395032093940358
:1047900085E090E0909389038093880330928B03A7
:1047A00020928A03E4E1F0E0F0938D03E0938C0320
:1047B0002EE030E030938F0320938E0321E030E031
:1047C00030939303209392038AE090E090939703B1
:1047D00080939603309399032093980383E090E0AD
:1047E00090939B0380939A0390939D0380939C03E3
:1047F0009093A1038093A00390939F0380939E03C3
:104800003093A3032093A20382E090E09093A5034A
:104810008093A4031092A6031092A7031092A803FA
:104820001092A9031092AA031092AB031092AC034A
:104830001092AD031092AE031092AF031092B0032A
:104840001092B1031092B2031092B3031092B4030A
:104850001092B5031092B6031092B7031092B803EA
:104860001092B9031092BA031092BB031092BC03CA
:104870001092BD031092BE031092BF031092C003AA
:104880001092C1031092C2031092C3031092C4038A
:104890001092C503109290031092910361E081E0A1
:1048A0000E94190A87EF91E00E94FA0A19CB113C85
:1048B00009F016CBEE24E39413CBE12C11CB60E08E
:1048C00080E00E94190A89EB93E00E94E00A61E00F
:1048D00080E00E94190AE0900301F09004016CE06E
:1048E000E616F1040CF477C06EE671E0CE01439653
:1048F0000E94140D8DE0E816F1041CF09CE0E91A0A
:10490000F1081A8E198E1C8E1B8E1E8E1D8E4AE08B
:10491000BE016F5F7F4FC7010E942925EF8DF8A16F
:1049200001900020E9F731977F012F8D38A1E21A1D
:10493000F30AB701CE0149960E94A70C81114EC01F
:10494000CE0149960E94CF0C67E072E0CE0101963D
:104950000E94140DBE01675E7F4FCE0101960E943A
:10496000E10CBE016D5E7F4F0E94E10CFC014481B1
:104970005581608171818DE694E00E948402CE01B0
:1049800001960E94450DCE0149960E94450DCE012B
:1049900043960E94450D61E08EE00E94030368EE9D
:1049A00073E080E090E00E94920380910301909177
:1049B00004010E94C90B8091FC02833011F00C9419
:1049C000CE1989E08093020170E060E086E10E94E8
:1049D000E2040C94CE1965E771E088CFFE8EED8E6F
:1049E000BE016F5F7F4F898D9A8D0E944D28ACCF9D
:1049F000CF93DF93C1E5D4E02697CE010E94450D09
:104A000024E0C930D207C1F78AE591E09093A00471
:104A100080939F048091A4029091A5028F599440A5
:104A200071F4E091B204F091B30490818091B404E8
:104A30008095892380831092A5021092A402DF91B1
:104A4000CF910895FB01DC0105900D920020E1F764
:104A50000895BB274A3031F4992322F4BDE29095A2
:104A600081959F4F0C943525BB27FB015527AA271D
:104A7000880F991FAA1FA41710F0A41B83955051EB
:104A8000B9F7A05DAA3308F0A95DA193009779F763
:104A9000B111B1931192CB010C944E25DC01FC01B4
:104AA000672F71917723E1F7329704C07C916D9362
:104AB00070836291AE17BF07C8F30895DC01CB0184
:104AC000FC01F999FECF06C0F2BDE1BDF89A31961E
:104AD00000B40D9241505040B8F70895DC01CB016D
:104AE00003C02D910E94792541505040D0F7089580
:104AF000262FF999FECF1FBA92BD81BD20BD0FB6FA
:104B0000F894FA9AF99A0FBE019608952F923F925F
:104B10004F925F926F927F928F929F92AF92BF92CD
:104B2000CF92DF92EF92FF920F931F93CF93DF9379
:104B3000CDB7DEB7CA1BDB0B0FB6F894DEBF0FBED6
:104B4000CDBF09942A88398848885F846E847D8423
:104B50008C849B84AA84B984C884DF80EE80FD8025
:104B60000C811B81AA81B981CE0FD11D0FB6F8949B
:104B7000DEBF0FBECDBFED010895A29FB001B39F70
:104B8000C001A39F700D811D1124911DB29F700D56
:104B9000811D1124911D0895991B79E004C0991F6E
:104BA000961708F0961B881F7A95C9F78095089587
:104BB00097FB072E16F4009407D077FD09D00E94CA
:104BC000182607FC05D03EF4909581959F4F0895D7
:104BD000709561957F4F0895052E97FB1EF4009404
:104BE0000E94032657FD07D00E942C2607FC03D005
:104BF0004EF40C94032650954095309521953F4FE7
:104C00004F4F5F4F089590958095709561957F4FB8
:104C10008F4F9F4F0895EE0FFF1F0590F491E02DE9
:104C200009940E94BD25B7FF0895821B930B089538
:104C3000AA1BBB1B51E107C0AA1FBB1FA617B707C2
:104C400010F0A61BB70B881F991F5A95A9F78095DE
:104C50009095BC01CD010895A1E21A2EAA1BBB1BA1
:104C6000FD010DC0AA1FBB1FEE1FFF1FA217B30738
:104C7000E407F50720F0A21BB30BE40BF50B661F4E
:104C8000771F881F991F1A9469F760957095809512
:104C900090959B01AC01BD01CF0108950F931F9327
:104CA000CF93DF938230910510F482E090E0E091A1
:104CB000C004F091C10430E020E0B0E0A0E0309703
:104CC00099F42115310509F44AC0281B390B243009
:104CD0003105D8F58A819B816115710589F1FB0148
:104CE00093838283FE0111C040815181028113812F
:104CF00048175907E0F04817590799F4109761F0E1
:104D000012960C93129713961C933296CF01DF9153
:104D1000CF911F910F9108950093C0041093C10487
:104D2000F4CF2115310551F04217530738F0A9018E
:104D3000DB019A01BD01DF01F801C1CFEF01F9CF1D
:104D40009093C1048093C004CDCFFE01E20FF31F06
:104D5000819391932250310939832883D7CF2091B1
:104D6000BE043091BF04232B41F420910701309100
:104D700008013093BF042093BE04209105013091B7
:104D800006012115310541F42DB73EB740910901C7
:104D900050910A01241B350BE091BE04F091BF0431
:104DA000E217F307A0F42E1B3F0B2817390778F002
:104DB000AC014E5F5F4F2417350748F04E0F5F1F61
:104DC0005093BF044093BE04819391939FCFF0E032
:104DD000E0E09CCFCF93DF930097E9F0FC0132979E
:104DE00013821282A091C004B091C104ED0130E0A1
:104DF00020E01097A1F420813181820F931F209130
:104E0000BE043091BF042817390709F061C0F09340
:104E1000BF04E093BE04DF91CF910895EA01CE175D
:104E2000DF07E8F54A815B819E0141155105B1F725
:104E3000E901FB83EA8349915991C40FD51FEC170F
:104E4000FD0761F4808191810296840F951FE9012D
:104E500099838883828193819B838A83F0E0E0E059
:104E600012968D919C9113970097B9F52D913C91D5
:104E70001197CD010296820F931F2091BE043091AD
:104E8000BF042817390739F6309751F51092C1043D
:104E90001092C004B093BF04A093BE04BCCFD383D0
:104EA000C28340815181840F951FC817D90761F4CF
:104EB0004E5F5F4F88819981480F591F518340830E
:104EC0008A819B81938382832115310509F0B0CFBC
:104ED000F093C104E093C0049ECFFD01DC01C0CF7C
:104EE00013821282D7CFB0E0A0E0E9E7F7E20C949A
:104EF00088258C01009751F4CB010E944E268C012D
:104F0000C801CDB7DEB7E0E10C94A425FC01E60FA3
:104F1000F71F9C0122503109E217F30708F49DC0E6
:104F2000D901CD91DC911197C617D70798F0C530FC
:104F3000D10530F3CE0104978617970708F3C61BF7
:104F4000D70B2297C193D1936D937C93CF010E948D
:104F5000EA26D6CF5B01AC1ABD0A4C018C0E9D1E11
:104F6000A091C004B091C104512C412CF12CE12C32
:104F7000109731F58091BE049091BF048815990572
:104F800009F05CC04616570608F058C0809105012C
:104F900090910601009741F48DB79EB740910901A9
:104FA00050910A01841B950BE817F90708F055C0CA
:104FB000F093BF04E093BE04F90171836083A0CF36
:104FC0008D919C91119712966C90129713967C90EC
:104FD0001397A815B90559F56C0142E0C40ED11C10
:104FE000CA14DB0420F1AC014A195B09DA011296FC
:104FF000159780F06282738251834083D9016D934B
:105000007C93E114F10471F0D7011396FC93EE93B5
:10501000129776CF22968C0F9D1FF9019183808382
:10502000F301EFCFF093C104E093C00469CF4816B9
:10503000590608F42C017D01D3019ACFCB010E94BF
:105040004E267C01009749F0AE01B8010E9430283D
:10505000C8010E94EA26870153CF10E000E050CF3C
:10506000FB01DC0102C001900D9241505040D8F785
:105070000895FB01DC010D900020E9F711970190E4
:105080000D920020E1F70895FB01DC018D91019064
:1050900080190110D9F3990B0895FB01DC010190EF
:1050A0000D920020E1F70895FB01DC0141505040D2
:1050B00048F001900D920020C9F701C01D924150A7
:1050C0005040E0F7089512E0C8E3D2E004C0FE01CA
:1050D0000E940B262196C933D107C9F7F894FFCF58
:1050E00003010105000000C204800000004000141C
:1050F0000054007EFF06000100000000EF000001E8
:105100000203044368616E7442656C6C2056322E53
:1051100031002D2D2D2D2D000000000074084708B2
:105120002809550540082D081E0800000000DA0A6D
:10513000840228093C050000000056058402280965
:105140005505B205CA053D0530003A303020504DB6
:10515000003A303020414D004F46460020536F6EDC
:10516000677300205365636F6E6473002044656D40
:105170006F203E00506C61790020504D20202000AF
:1051800020414D202020003A002D004A616E00464B
:105190006562004D617200417072004D6179004A94
:1051A000756E004A756C0041756700536570004F5D
:1051B0006374004E6F7600446563004C6F616469F0
:1051C0006E672E2E2E004348414E5420504C4159BC
:1051D000494E472E2E2E0044656661756C7473200F
:1051E0006C6F616465640044454D4F2054494D45E2
:0451F000203A200041
:00000001FF
