:020000040000FA
:100000000C941B020C9443020C9443020C94EB1FBF
:100010000C94EB1F0C94EB1F0C9443020C944302C2
:100020000C9443020C9443020C9443020C9443023C
:100030000C9443020C9443020C9443020C9443022C
:100040000C94A11F0C9443020C9443020C944302A1
:100050000C9443020C9443020C9443020C9443020C
:100060000C9463200C944302534F4E4720434F554A
:100070004E540045564520534F4E47203220544998
:100080004D45004D4F5220534F4E4720322054498A
:100090004D450045564520534F4E472031204E6F69
:1000A0002E0045564520534F4E4720312054494D90
:1000B00045004D4F5220534F4E472031204E6F2E5A
:1000C000004D4F5220534F4E4720312054494D454B
:1000D00000504C41590053454C4543542054494D20
:1000E0004500504C59522045564520445552002653
:1000F0001E02000000271502000000001002000090
:1001000000504C595220455645204F4E2054494DE1
:1001100000504C5952204D4F522044555200221E3F
:100120000200000023150200000000100200000081
:10013000504C5952204D4F52204F4E2054494D00A3
:100140001E1E020000001F15020000000010020029
:1001500000004C49474854204F46462054494D45DD
:10016000001B1E020000001C15020000000010020F
:100170000000004C49474854204F4E2054494D45FB
:100180000011C10000000016B20000000013A20020
:10019000000000179300000000128300000000140C
:1001A000730000000015680000000000100200004D
:1001B00000534F4E472053455454494E47000ED6E6
:1001C000000000000FD1000000000010020000003D
:1001D000504C41592044454D4F00564F4C554D45CC
:1001E000004241434B4C4947485420445552005328
:1001F0004C4F47414D20434F554E5400454E4420EF
:1002000054494D450053544152542054494D4500E2
:100210004241434B00534554204D494E53005345F2
:1002200054204852530053455420594541520053DD
:100230004554204D4F4E544800534554204441549A
:1002400045004558495400524553455420534554A0
:1002500054494E47002130011E01032411010000C2
:1002600000250101EF000328E20000000000100259
:10027000000000504C415945522053455454494EBA
:1002800047001A73016101031D5201400103001070
:10029000020000004C4947485453205345545449E8
:1002A0004E470008050200000009FC010000000A9A
:1002B000EF010000000BE1010000000CDA0100007A
:1002C000000DD001BE010310B10181010800100230
:1002D00000000042454C4C2053455454494E4700C1
:1002E000023902000000032F020000000426020071
:1002F0000000051E020000000615020000000010AC
:100300000200000053455420444154452054494DB7
:10031000450020504C41594552204D4F4445204FF7
:100320004E2000202052554E4E494E472044454D08
:100330004F202000204155544F204C49474854201D
:100340004F46462000204155544F204C49474854C1
:10035000204F4E202000204155544F20504C4159F1
:10036000204F464620200020204155544F20504C1D
:100370004159204F4E20200000000000240027009B
:100380002A0000000008000201000003040700002A
:100390000000000000001994028202031973025544
:1003A0000205010403E0020600420200000001040D
:1003B00003E0020607D302A3020819940282020393
:1003C000197302550205184702000000004202009E
:1003D0000000455252203033004552522030320046
:1003E000455252203031005154524F4E0057454C27
:1003F000434F4D4500000000002300260029000067
:10040000000000250028002B000404040404040458
:1004100004020202020202030303030303010204B3
:100420000810204080010204081020010204081076
:1004300020008221AC2511241FBECFEFD8E0DEBF03
:10044000CDBF12E0A0E0B1E0E6EBF3E502C005901D
:100450000D92A632B107D9F724E0A6E2B2E001C0BE
:100460001D92AB3DB207E1F712E0CAE1D2E004C051
:100470002197FE010E949827C931D107C9F70E9430
:1004800079220C94CE290C94000080911C04E091F8
:100490001904F0911A0496E0899FE00DF11D1124D2
:1004A0003596E49181E0E11101C080E00895E6E134
:1004B000F4E086810380F481E02D96E0899FE00DD1
:1004C000F11D11248491089508950895AF92BF926B
:1004D000CF92DF92EF92FF920F931F93CF93DF9310
:1004E0006C017B018B01040F151FEB015E01AE183F
:1004F000BF08C017D10759F06991D601ED91FC9161
:100500000190F081E02DC6010995892B79F7C5018D
:10051000DF91CF911F910F91FF90EF90DF90CF90DF
:10052000BF90AF900895833081F028F4813099F026
:100530008230A9F008958730A9F08830C9F084305E
:10054000B1F4809180008F7D03C0809180008F770F
:1005500080938000089584B58F7784BD089584B515
:100560008F7DFBCF8091B0008F778093B00008958E
:100570008091B0008F7DF9CFCF93DF93282F30E0AB
:10058000F901EE57FC4F8491F901E35EFB4FD491E2
:10059000F901E75FFB4FC491CC23A1F081110E94C8
:1005A0009302EC2FF0E0EE0FFF1FEB50FC4FA591F4
:1005B000B491EC91ED2381E090E009F480E0DF91CB
:1005C000CF91089580E090E0FACF1F93CF93DF930F
:1005D000282F30E0F901EE57FC4F8491F901E35EDA
:1005E000FB4FD491F901E75FFB4FC491CC23A9F0F5
:1005F000162F81110E949302EC2FF0E0EE0FFF1FE7
:10060000E150FC4FA591B4918FB7F894EC91111182
:1006100008C0D095DE23DC938FBFDF91CF911F916F
:100620000895DE2BF8CFCF93DF9390E0FC01E35EDB
:10063000FB4F2491875F9B4FFC0184918823C9F075
:1006400090E0880F991FFC01E858FC4FA591B491E8
:10065000FC01E150FC4FC591D49161110DC09FB7D1
:10066000F8948C91209582238C9388812823288369
:100670009FBFDF91CF910895623051F49FB7F894F6
:100680003C91822F809583238C93E8812E2BEFCF92
:100690008FB7F894EC912E2B2C938FBFEACF3FB7F6
:1006A000F8948091090390910A03A0910B03B091F3
:1006B0000C0326B5A89B05C02F3F19F00196A11D7C
:1006C000B11D3FBFBA2FA92F982F8827BC01CD019C
:1006D000620F711D811D911D42E0660F771F881FFB
:1006E000991F4A95D1F708958F929F92AF92BF922A
:1006F000CF92DF92EF92FF926B017C010E944F0339
:100700004B015C01C114D104E104F104B9F00E9471
:100710004F03681979098A099B09683E734081056E
:10072000910580F321E0C21AD108E108F10888EEB2
:10073000880E83E0981EA11CB11CE4CFFF90EF90BF
:10074000DF90CF90BF90AF909F908F9008952FB77C
:10075000F8946091050370910603809107039091CE
:1007600008032FBF08950F931F93809192049091D7
:100770009304DC01ED91FC910084F185E02D099555
:10078000892B09F4D7C060E070E0CB010E947403AC
:100790002091B0048091920490919304DC01ED913A
:1007A000FC910284F385E02D21110BC00995809303
:1007B0009C048E37D1F68091B0048F5F8093B00493
:1007C000D4CF09959091B004E92FF0E0EE56FB4F9D
:1007D00082879230B9F09930D9F09130A9F48F3FE7
:1007E00099F01092B00481E08093B2041092B504A5
:1007F0001092B4048093B6041092B70480E01F9165
:100800000F910895863069F79F5F9093B004ADCF44
:100810008F3E39F720919E0480919D04280F332745
:10082000331FE0919F04C9018E0F911D2091A004F8
:10083000280F392F311D4091A10450E0240F351F9E
:100840008091A20490E06091A30470E0762F662767
:10085000F091A4046F0F711D280F391F3195219558
:1008600031096217730709F0BCCF1092B004E1346C
:1008700019F41092B7042FC0E093B304542F442707
:10088000840F951F9093B5048093B404EA53E63126
:1008900008F046C0F0E0E15BFB4F0C9498277C0425
:1008A00084048E0465048E046E048C0490048E040B
:1008B0008E048E048E048E048E048E048E049004A6
:1008C0008E048E048E048E048E0485E08093B20420
:1008D00081E08093B6048091B60491CF80FF02C07E
:1008E00089E0F4CF81FF02C084E0F0CF83709927C4
:1008F000892B89F38AE0EACF80FF02C087E0E6CF48
:1009000081FFE9CF82E0E2CF80FF02C088E0DECF46
:1009100081FFE1CF83E0DACF86E0D8CF8BE0D6CF7E
:1009200081E08093B2041092B5041092B4048093D5
:10093000B6049FCF8091B704882369F20E94A70371
:10094000009194041091950420919604309197049D
:10095000601B710B820B930B00919804109199040A
:1009600020919A0430919B046017710782079307C6
:1009700008F4B1CF1092B0041092B2041092B504F2
:100980001092B40481E036CF8093A904272F30E081
:100990007093AB046093AC044091A8049091A704B9
:1009A000490F5527551F840F952F911D4091AA047B
:1009B000840F911D820F931F680F792F711D719500
:1009C000619571097093AD046093AE04442361F0A6
:1009D0008091B704882341F060E070E0CB010E9471
:1009E00074030E94B303F4CF809192049091930416
:1009F000DC01ED91FC910280F381E02D4AE050E0B2
:100A000066EA74E009950E94A703609394047093CA
:100A1000950480939604909397048091AA0491E0A2
:100A2000811101C090E09093B704811106C06AE083
:100A300070E080E090E00C94740308950895209194
:100A40000F03309110032817390771F490910D03AB
:100A500080910E03981741F0E0910D03F0E0EC5304
:100A6000FD4F808190E008958FEF9FEF08950895E6
:100A7000EF92FF920F931F93CF93DF93DC015C966D
:100A8000ED90FC905D97E114F10479F481E090E041
:100A900013969C938E93129790E080E0DF91CF9114
:100AA0001F910F91FF90EF9008955196ED91FC9159
:100AB000529750968C915097982F90950FB75E96BD
:100AC0002C915E97122F127021FD6095F894208171
:100AD000112319F1282B2083E7012197F1F728E052
:100AE000462F50E0308160FF1AC0382B3083E70179
:100AF0002197F1F7BA0175956795215089F7112370
:100B000081F08081892380830FBF5C968D919C91B9
:100B10000197F1F781E090E0C1CF2923DCCF3923A1
:100B2000E5CF9081892BEFCF20910F0330911003F7
:100B30002817390771F480910E0320910D0390E07E
:100B4000805C9F4F821B910960E470E00E948427C3
:100B5000089590E080E0089520910F0330911003F4
:100B600028173907B9F490910D0380910E03981757
:100B700089F0E0910D03F0E0EC53FD4F808120916E
:100B80000D0330E02F5F3F4F2F73332720930D036A
:100B900090E008958FEF9FEF08952091A102260F16
:100BA0003327331F21323105ECF420916203FC011D
:100BB00090E080E0243069F082E00895A091A102E5
:100BC0002191AC014F575D4FA40FB52FB11D2C9350
:100BD0000196861798F38091A102680F6093A10295
:100BE00080E0089581E008951092620381E080938F
:100BF000610310923C0361E082E10E94E50261E042
:100C000083E10E94E502E9EBF0E080818E7F808342
:100C100080818D7F808388E48093B80085E4809311
:100C2000BC00089510921B0310921A0310926903DE
:100C300010928B030E94F40584E692E090931903CE
:100C40008093180385E692E0909317038093160330
:100C50000895CF93DF9391E0909380028823B9F0B9
:100C6000C091B800D091BA008091BC008A7B80937B
:100C7000BC0060E082E10E94E50260E083E10E9446
:100C8000E5020E94F405D093BA00C093B800DF914A
:100C9000CF910895CF92DF92EF92FF920F931F931F
:100CA000CF93DF93D0918B0381E0D13208F09CC0C9
:100CB000C0918A030E944F036B017C018091620303
:100CC00081116CC082E08093620381E080936103B4
:100CD0008FEF8093600310925F03D0935E03AAE6C8
:100CE000B3E0EEE3F3E080E0D8138DC010923D0353
:100CF00080913D03CC0FC82BC0933D0380913C03F2
:100D0000813009F084C010923C030E944F036B01B4
:100D10007C0180913D038093BB008091640390919E
:100D20006503A0916603B0916703892B8A2B8B2BF7
:100D3000A1F00E944F03009164031091650320917C
:100D40006603309167036C197D098E099F090617A8
:100D500017072807390708F442C08091BC0083FDBB
:100D6000D8CF85EC8093BC000E944F036B017C01BF
:100D700080916203823009F44CC0809160038F3F00
:100D800009F469C080916003803209F466C08091E3
:100D90006003803309F463C084E026C0809164035B
:100DA00090916503A0916603B0916703892B8A2B0C
:100DB0008B2B09F483CF0E944F03009164031091A1
:100DC000650320916603309167036C197D098E09D4
:100DD0009F09061717072807390708F06FCF80917A
:100DE00063030E94290685E01092690310928B0329
:100DF00010926803DF91CF911F910F91FF90EF90B8
:100E0000DF90CF9008959D9191938F5F6DCF85EE88
:100E1000A9CF8091640390916503A0916603B0917E
:100E20006703892B8A2B8B2B09F4A2CF0E944F03D7
:100E3000009164031091650320916603309167036C
:100E40006C197D098E099F090617170728073907AE
:100E500008F08ECFC4CF80E0C7CF82E0C5CF83E05B
:100E6000C3CFCF92DF92EF92FF920F931F93CF9356
:100E7000DF93D82FC62F613208F098C00E944F032D
:100E80006B017C018091620381116BC081E08093D2
:100E90006203809361039FEF9093600310925F035E
:100EA0009C0F90935E0380933D0380913D03DD0F83
:100EB000D82BD0933D0380913C03813009F078C05A
:100EC00010923C030E944F036B017C0180913D0313
:100ED0008093BB008091640390916503A0916603A9
:100EE000B0916703892B8A2B8B2BA1F00E944F03B3
:100EF00000916403109165032091660330916703AC
:100F00006C197D098E099F090617170728073907ED
:100F100008F448C08091BC0083FDD8CF85EC809355
:100F2000BC000E944F036B017C0180916203813001
:100F300009F440C080915F038C1710F4C0915F03E7
:100F4000EEE3F3E0ACE1B3E080E08C1355C08C2F0E
:100F5000DF91CF911F910F91FF90EF90DF90CF9095
:100F600008958091640390916503A0916603B09108
:100F70006703892B8A2B8B2B09F484CF0E944F03A4
:100F8000009164031091650320916603309167031B
:100F90006C197D098E099F0906171707280739075D
:100FA00008F070CF809163030E942906C0E0CFCF84
:100FB00085EEB5CF8091640390916503A09166039F
:100FC000B0916703892B8A2B8B2B09F4AECF0E943B
:100FD0004F030091640310916503209166033091E3
:100FE00067036C197D098E099F09061717072807E3
:100FF000390708F09ACFD6CF91919D938F5FA5CFF7
:10100000E0911B0380911A03E81730F4F0E0E45EEE
:10101000FC4F808190E008958FEF9FEF08959091AD
:101020001B0380911A032FEF3FEF981748F4E92F25
:10103000F0E0E45EFC4F208130E09F5F90931B0363
:10104000C901089580911A0390911B03891B990B84
:101050000895CF92DF92EF92FF920F931F93CF9359
:10106000DF937C01CB018A0120916803222389F060
:10107000EB016B01C40ED51ECC15DD0569F069913D
:10108000D701ED91FC910190F081E02DC701099508
:10109000F3CF642F0E94CD05C801DF91CF911F913E
:1010A0000F91FF90EF90DF90CF900895CF93DF9353
:1010B0001F92CDB7DEB76983209168032223F9F030
:1010C00020918B03203258F021E030E0FC01338383
:1010D000228390E080E00F90DF91CF91089580917E
:1010E0006903E82FF0E0E659FC4F998190838F5F08
:1010F0008093690380938B0381E090E0ECCF61E003
:10110000CE0101960E94CD05F7CFFC01248131E08C
:101110003093680320938A031092690310928B0323
:101120008385682B82E394E00E9456080C944A065B
:101130001F93CF93DF93EC0181E08093680388E6EF
:1011400080938A031092690310928B0360E082E31C
:1011500094E00E9456082D811AE0822F612F0E9490
:101160007827682F660F680F660F620F82E394E09E
:101170000E9456082C81822F612F0E947827682FA9
:10118000660F680F660F620F82E394E00E945608B4
:101190002B81822F612F0E947827682F660F680F9E
:1011A000660F620F82E394E00E94560860E082E3DB
:1011B00094E00E9456082A81822F612F0E9478278E
:1011C000682F660F680F660F620F82E394E00E943B
:1011D00056082981822F612F0E947827682F660F79
:1011E000680F660F620F82E394E00E945608288120
:1011F000822F612F0E947827682F660F680F660F75
:10120000620F82E394E00E945608DF91CF911F9114
:101210000C944A0690E080E0089520917F022530EA
:1012200009F090F490917E02E92FF0E0E758FD4F2D
:1012300080832F5F20937F029F5F953018F49093F7
:101240007E02089510927E020895CF92DF92FF925F
:101250000F931F93CF93DF936C0181E0809368031A
:1012600088E680938A031092690310928B0360E0F2
:1012700082E394E00E9456080E944A0667E088E6EE
:101280000E94310710921B0380931A0382E394E0BB
:101290000E940F088F77282F30E094E0359527952E
:1012A0009A95E1F7922F990F990FC22FC91BCC0F76
:1012B000C80F82E394E00E940F089C0144E035953A
:1012C00027954A95E1F72F703327922F990F990FA1
:1012D000D22FD91BDD0FD80F82E394E00E940F08B4
:1012E0009C0154E0359527955A95E1F72F703327E7
:1012F000922F990F990F122F191B110F180F82E3BC
:1013000094E00E940F0882E394E00E940F089C0181
:1013100064E0359527956A95E1F72F703327922F72
:10132000990F990F022F091B000F080F82E394E019
:101330000E940F089C0174E0359527957A95E1F796
:101340002F703327922F990F990FF22EF91AFF0C55
:10135000F80E82E394E00E940F089C01E4E03595CA
:101360002795EA95E1F72F703327922F990F990F60
:10137000291B220F820FF6018083F18202831383DF
:10138000D483C583C601DF91CF911F910F91FF9048
:10139000DF90CF9008950F931F93CF938C01C62FAA
:1013A0000E9485086C2F6460C8010E9485086C2F1C
:1013B0006B7FC8010E94850883EC90E00197F1F7EC
:1013C000CF911F910F9108950F931F93CF93DF93A8
:1013D0008C01D62FC42F607F642B0E94CB0980E143
:1013E000D89FB00111246C2BC801DF91CF911F91C0
:1013F0000F910C94CB09CF93DF93CDB7DEB728972D
:101400000FB6F894DEBF0FBECDBF98E0E0E1F1E08B
:10141000DE01119601900D929A95E1F790918E045C
:10142000961708F46FEF262F30E0220F331F41E0AC
:1014300050E04C0F5D1F240F351FF9016081680FCC
:10144000606840E086E894E028960FB6F894DEBF26
:101450000FBECDBFDF91CF910C94E40940E061E075
:1014600086E894E00E94E4098BE39FE10197F1F79D
:1014700008950F931F938091CF039091D003A09173
:10148000D103B091D20340917402509175026091E2
:10149000760270917702481759076A077B071CF19B
:1014A0000091D3031091D4032091D5033091D6033A
:1014B000800F911FA21FB31F84179507A607B707B8
:1014C00094F0012B022B032B71F080917302811198
:1014D00050C081E08093730285E0809378021F9171
:1014E0000F910C942E0A8091D7039091D803A0916C
:1014F000D903B091DA03481759076A077B07ECF064
:101500000091DB031091DC032091DD033091DE03B9
:10151000800F911FA21FB31F84179507A607B70757
:1015200064F0012B022B032B41F080917202811198
:1015300020C081E080937202CFCF80917802853005
:10154000C1F480917202813021F080917302813068
:1015500081F460E08EE00E94E50260E08DE00E9490
:10156000E50210927302109272020E942E0A1092EB
:1015700078021F910F91089541E00E94E40981E0F3
:1015800090E008950F931F93CF93DF938C01D0E0E9
:10159000C0E0F801EC0FFD1F6491662339F041E0D3
:1015A00086E894E00E94E4092196F3CFCE01DF9112
:1015B000CF911F910F910895009769F0FC01019060
:1015C0000020E9F73197AF01481B590BBC0186E8B1
:1015D00094E00C94660290E080E008950F931F93CE
:1015E000CF93DF93EC01CB01009759F46DE671E0E6
:1015F000CE010E94B829CE01DF91CF911F910F91AA
:10160000089520E077FF06C02DE22883919581950B
:10161000910921E0803137E293070CF5883E33E0F1
:101620009307FCF432E0843691052CF431E08A30E3
:1016300091050CF430E0230FFE01E20FF11D118241
:101640000AE010E0FE01E20FF11DB8010E948427BC
:10165000805D8083CB0121500097A1F7CCCF34E08F
:10166000EACF33E0E8CFCF93DF93BC01EC010990E0
:101670000020E9F72197C81BD90BC03108F585E098
:1016800094E00E94B82980E18C1BE4EFF3E090E045
:1016900020E2AF01445F53404817590714F42193E7
:1016A000F8CF8C509C4FFC01108264EF73E085E012
:1016B00094E00E94A42985E094E0DF91CF91089501
:1016C00041E150E085E094E00E94BF29F4CF0F9300
:1016D0001F93CF93DF93EC018B01FB01019000205E
:1016E000E9F73197E61BF70BE03128F5E41718F519
:1016F0004E1B413108F040E1E4EFF3E050E080E3BD
:101700009F01245F33402417350714F48193F8CFE9
:101710004C505C4FFA01108264EF73E0CE010E94DE
:10172000B829B801CE010E94A429CE01DF91CF9142
:101730001F910F91089550E04F5F5F4FB801CE01A8
:101740000E94BF29F2CF4DE450E070E060E082E9F2
:1017500093E00C94C626CF93DF93EC0180910301B4
:101760008230D9F128F4813021F1DF91CF910895B1
:10177000833009F445C08930C1F785E00E94BC027E
:10178000892B99F381E0809303010E942E0A109225
:1017900078020E94A7036093110370931203809351
:1017A00013039093140360E08EE0DF91CF910C94CB
:1017B000E50285E00E94BC02892BB9F270E060E08E
:1017C00082E10E94C40468EE73E080E090E00E9431
:1017D000740382E080930301C8CF85E00E94BC02BD
:1017E000892B19F2BE01772771608FE00E94C40433
:1017F00068EE73E080E090E00E94740383E0EACF3B
:1018000085E00E94BC02892B09F4AFCF8091B3031D
:101810009091B4038C179D0739F46091BB037091CC
:10182000BC03039709F043C08091B5039091B603C0
:101830008C179D0761F5C330D10549F16091B10363
:101840007091B203772774608FE00E94C404809186
:10185000B1039091B20301969093B2038093B103C8
:101860002091AF033091B0032817390734F481E099
:1018700090E09093B2038093B1030E94A30B68EEB3
:1018800073E080E090E00E94740389E0A3CF809130
:10189000B7039091B8039C01245F3F4F2C173D077D
:1018A00061F4039751F06091BD037091BE037727F7
:1018B00072608FE00E94C404E2CF8091B9039091DE
:1018C000BA039C01245F3F4F2C173D0719F403977F
:1018D00009F0B4CF6091AB037091AC0382E10E9438
:1018E000C4048091AB039091AC0301969093AC0338
:1018F0008093AB032091AD033091AE0328173907D5
:101900000CF0BBCF81E090E09093AC038093AB03ED
:10191000B4CF0F931F93CF93DF93EC01888199810C
:10192000009759F02A813B812617370730F081E074
:10193000DF91CF911F910F9108958B016F5F7F4FC2
:101940000E94DE28009759F0998388831B830A83BD
:101950002C813D81232B59F7FC011082E8CF80E0D8
:10196000E7CFCF93DF93EC0188819981009711F045
:101970000E945528198218821D821C821B821A829D
:10198000DF91CF910895EF92FF920F931F93CF9322
:10199000DF93EC01FB01E080F180E114F10411F12F
:1019A0000481158101151105A9F08C819D81080F15
:1019B000191FB801CE010E94890C882399F0288153
:1019C00039818C819D81B701820F931F0E94B829B4
:1019D0001D830C83CE01DF91CF911F910F91FF905A
:1019E000EF900895CE010E94B10CF4CFEF92FF92D8
:1019F0000F931F93CF93DF93EC017B011982188221
:101A00001B821A821D821C82FB0101900020E9F7D3
:101A100031978F01061B170BB8010E94890C8111A9
:101A200009C0CE01DF91CF911F910F91FF90EF90F0
:101A30000C94B10C1D830C83B70188819981DF91CF
:101A4000CF911F910F91FF90EF900C94B829FC015A
:101A500080819181009711F00C945528089585EDAF
:101A60008093BC008091640390916503A09166030C
:101A7000B09167030796A11DB11D23E0B695A79508
:101A8000979587952A95D1F72091BC0024FD03C036
:101A90001092620308954091640350916503609130
:101AA000660370916703452B462B472B69F300971C
:101AB000A105B10541F025E32A95F1F70000019752
:101AC000A109B109E1CF809163030C9429066F92BB
:101AD0007F928F929F92AF92BF92CF92DF92EF92BE
:101AE000FF920F931F93CF93DF93CDB7DEB7E988B3
:101AF000FA88FE017496D12CC12C712CAB88B12CC4
:101B000080E1682E872D90E0CA14DB042CF52FE0CD
:101B1000271510F14F0122E0820E911C6081718126
:101B2000FB0101900020E9F731978F01061B170B8D
:101B30009C01200F311D462D4719213131050CF430
:101B4000402F50E08E0D9F1D0E94BF29700E8FEF19
:101B5000C81AD80AF401D6CF8E0D9F1DFC01108241
:101B6000C701DF91CF911F910F91FF90EF90DF9010
:101B7000CF90BF90AF909F908F907F906F9008957F
:101B8000CF92DF92EF92FF920F931F93CF93DF9349
:101B9000CDB7DEB760970FB6F894DEBF0FBECDBFEE
:101BA000188A1F862AE32F872CE330E040E050E0BC
:101BB0000E94DE266B01B901CE0101960E94EE0A59
:101BC0008E01045F1F4F42E0BE016F5F7F4FC8016F
:101BD0000E94670BB601CE0101960E94EE0A7E01BB
:101BE00089E0E80EF11C42E0BE016F5F7F4FC70144
:101BF0000E94670BFF92EF92CE010F969F938F93F7
:101C00001F930F9383E08F9383EE93E09F938F93C3
:101C10000E94670D0FB6F894DEBF0FBECDBF83EEF6
:101C200093E060960FB6F894DEBF0FBECDBFDF9194
:101C3000CF911F910F91FF90EF90DF90CF9008957B
:101C40008F929F92AF92BF92CF92DF92EF92FF92CC
:101C50000F931F93CF93DF93CDB7DEB760970FB687
:101C6000F894DEBF0FBECDBF188A1F862AE32F87E8
:101C70002CE330E040E050E00E94DE264B01790189
:101C80002D30310514F02C503109B901CE010196E7
:101C90000E94EE0A8E01045F1F4F42E0BE016F5F9B
:101CA0007F4FC8010E94670BB401CE0101960E94CC
:101CB000EE0A6E0199E0C90ED11C42E0BE016F5FD1
:101CC0007F4FC6010E94670B8CE0E816F10474F5A3
:101CD00089E791E09F938F93DF92CF92CE010F9689
:101CE0009F938F931F930F9384E08F9383EE93E0E2
:101CF0009F938F930E94670D0FB6F894DEBF0FBEBF
:101D0000CDBF83EE93E060960FB6F894DEBF0FBEB2
:101D1000CDBFDF91CF911F910F91FF90EF90DF909A
:101D2000CF90BF90AF909F908F90089582E791E001
:101D3000D1CFCF92DF92EF92FF920F931F93CF9369
:101D4000DF93CDB7DEB765970FB6F894DEBF0FBE51
:101D5000CDBF8250873208F0D2C1E82FF0E0ED54B9
:101D6000F14F0C949827DA0EDA0EDA0E400F400F7E
:101D70007F10570F860FA20FAD0FBA0F7F10D20F33
:101D8000F70F7F1000100D101210201025102A10D0
:101D90003F107C107F104410441044104D104D1023
:101DA0004D107F105610561056105F106A106A10B2
:101DB0006A1073101D8A1C8A8FE28C8B60919003CD
:101DC00070919103CE0101960E94EE0A8E010F5E82
:101DD0001F4F42E0BE016F5F7F4FC8010E94670B3B
:101DE00060918E0370918F03CE0101960E94EE0ADE
:101DF0007E018EE0E80EF11C42E0BE016F5F7F4F76
:101E0000C7010E94670B60918C0370918D03CE0116
:101E100001960E94EE0A6E0199E0C90ED11C44E0C1
:101E2000BE016F5F7F4FC6010E94670BDF92CF92AA
:101E3000CE0144969F938F93FF92EF929F938F933F
:101E40001F930F9385E08F9383EE93E09F938F937F
:101E50000E94670D0FB6F894DEBF0FBECDBF83EEB4
:101E600093E065960FB6F894DEBF0FBECDBFDF914D
:101E7000CF911F910F91FF90EF90DF90CF90089539
:101E8000A091E103B091E2032CE330E00E949E2791
:101E90000091DF031091E003012E000C220B330BA5
:101EA000600F711F821F931F0E94200ED8CF609178
:101EB000A1037091A2036D30710514F06C5071098B
:101EC000CE0101960E94EE0A8E01075F1F4F42E08D
:101ED000BE016F5F7F4FC8010E94670B8091A10315
:101EE0009091A2030C971CF486E791E002C08FE664
:101EF00091E09F938F931F930F9382E08F9383EED4
:101F000093E09F938F930E94670DA4CF6091A303EA
:101F10007091A4036D30710514F06C507109CE01FD
:101F200001960E94EE0A8E01075F1F4F42E0BE013C
:101F30006F5F7F4FC8010E94670B8091A303909150
:101F4000A403D0CF6091AD037091AE03CE01019692
:101F50000E94EE0A21E831E00AC06091A503709169
:101F6000A603CE0101960E94EE0A28E831E03F93D5
:101F70002F9343C06091A7037091A803CE010196EF
:101F80000E94EE0A9F938F9381E08F9383EE93E0FC
:101F90009F938F930E94670D0F900F900F900F905B
:101FA0000F905DCF0091040110910501B8010D3033
:101FB000110514F06C507109CE0101960E94EE0AD1
:101FC0007E0199E0E90EF11C42E0BE016F5F7F4F98
:101FD000C7010E94670B86E791E00C30110514F0F1
:101FE0008FE691E09F938F93FF92EF9286CF81E9E6
:101FF00091E09F938F9389E991E09F938F937DCF99
:102000006091B3037091B4036330710509F07EC031
:102010002BEA31E08DE791E0AACF6091B503709192
:10202000B603F2CF6091B7037091B80363307105C6
:1020300079F3CE0101960E94EE0A22E731E097CFB4
:102040006091B9037091BA03F1CF6091AF037091C1
:10205000B0037CCF6091BB037091BC03CE010196AD
:102060000E94EE0A8E01075F1F4F43E0BE016F5FC3
:102070007F4FC8010E94670B1F930F9385CF60911C
:10208000BD037091BE03EACF6091BF037091C0039E
:102090008091C1039091C20307CF6091C3037091F7
:1020A000C4038091C5039091C603FECE6091CF0317
:1020B0007091D0038091D1039091D203F5CE6091BD
:1020C000D3037091D4038091D5039091D6030E94DD
:1020D000C00DC5CE6091D7037091D8038091D9030C
:1020E0009091DA03E1CE6091DB037091DC03809183
:1020F000DD039091DE03EBCF1092E303B0CE67E3F4
:1021000071E083EE93E00E94B829A9CECE0101963A
:102110000E94EE0A29E731E02ACF6F927F929F92C8
:10212000AF92BF92CF92DF92EF92FF920F931F93E5
:10213000CF93DF93CDB7DEB7A3970FB6F894DEBF8A
:102140000FBECDBFCE0109960E9425096C8566237E
:1021500009F4E4C06C3011F008F06C5070E0CE016E
:1021600001960E94EE0A8E01085E1F4F42E0BE01FA
:102170006F5F7F4FC8010E94670BCE0109960E94D6
:1021800025096D8570E0CE0101960E94EE0A7E0160
:102190002BE1E20EF11C42E0BE016F5F7F4FC701F1
:1021A0000E94670BCE0109960E9425096E8570E09A
:1021B000CE0101960E94EE0A6E013EE1C30ED11CD3
:1021C00042E0BE016F5F7F4FC6010E94670B60E077
:1021D00080E00E94FB09CE0109960E9425098C85AA
:1021E0008C3008F09DC085EA91E09F938F93DF9239
:1021F000CF928CEA91E09F938F93FF92EF929F93FF
:102200008F931F930F9389EAE82E81E0F82EFF92B7
:10221000EF9297E0992E9F9205E014E01F930F93A1
:102220000E94670D0E94DC0ACE0109960E942509D2
:102230006B8570E0CE0101960E94EE0A6E0181E28C
:10224000C80ED11C42E0BE016F5F7F4FC6010E94E5
:10225000670BCE0109960E942509698570E06053DD
:10226000784FCE0101960E94EE0A3E012FE0620EE9
:10227000711C44E0BE016F5F7F4FC3010E94670B7A
:10228000CE0109960E9425098A858150990B26E086
:10229000289FF001299FF00D1124E25CFB4F608123
:1022A00071815E0134E1A30EB11CC5010E94B82901
:1022B00061E080E00E94FB0988EA91E09F938F93A0
:1022C0007F926F928EEA91E09F938F93BF92AF922D
:1022D0009F938F93DF92CF92FF92EF929F921F93E3
:1022E0000F930E94670D0FB6F894DEBF0FBECDBFEF
:1022F0000E94DC0AA3960FB6F894DEBF0FBECDBFD6
:10230000DF91CF911F910F91FF90EF90DF90CF90D1
:10231000BF90AF909F907F906F9008956CE01ECF1C
:102320008EE991E062CF1F93CF93DF93CDB7DEB7F5
:1023300061970FB6F894DEBF0FBECDBF0E94570263
:10234000182F60E080E00E94FB090E9445029091F6
:102350001C04E0911904F0911A04882349F186E0E5
:10236000989FE00DF11D1124319665917491CE0175
:1023700001960E947A260E94330B8EE78093140404
:1023800085E094E00E94DC0A1A3131F01D3121F021
:10239000812F8B7F813231F561E080E00E94FB0963
:1023A0008AEA91E00E94DC0A812F0E94990E20C0E7
:1023B00086E0989FE00DF11D11243196659174918E
:1023C000CE0101960E947A260E94330B0E9457028A
:1023D000182F81111BC08FE78093140485E094E0CF
:1023E0000E94DC0A61E080E00E94FB0987E291E044
:1023F0000E94330B0E94DC0A61960FB6F894DEBF90
:102400000FBECDBFDF91CF911F91089585E094E07D
:102410000E94DC0AC1CF4F925F926F927F928F929F
:102420009F92AF92BF92CF92DF92EF92FF920F9363
:102430001F93CF93DF93CDB7DEB7EC970FB6F89429
:10244000DEBF0FBECDBF0E94A703009153021091C3
:1024500054022091550230915602601B710B820B81
:10246000930B643171058105910508F499C00E94B0
:10247000A703609353027093540280935502909384
:10248000560286E00E94BC028C0187E00E94BC02DA
:1024900077247394892B31F081E0012B09F480E0DB
:1024A000782E719488E00E94BC02892B11F432E0EE
:1024B000732E89E00E94BC02892B11F423E0722E56
:1024C00006E2E02E02E0F02E0AE312E08EE4882E0F
:1024D00082E0982E92E2A92E91E0B92E6401662442
:1024E0006394412C411070C1F501808187116CC14A
:1024F0004424439455245394F60181916F0185152A
:10250000A9F0552009F462C1862D0E940D090E9490
:10251000A703F8016083718382839383F70160834B
:10252000718382839383F60131975082552061F144
:102530000E94A703F8012081318142815381621BEF
:10254000730B840B950B613D774081059105E0F09D
:102550000E94A703F7012081318142815381621BD0
:10256000730B840B950B6B3F71058105910560F032
:102570008C2D881980680E940D090E94A703F7011D
:1025800060837183828393836394F4E0EF0EF11C84
:102590000C5F1F4F2FEFA21AB20A66E06612A2CF9D
:1025A00090917F0219160CF429C11092710280914A
:1025B0007102833819F580916C0281111FC08091DE
:1025C000AA0381117FC181E08093AA0361E080E0CA
:1025D0000E94FB0985E493E00E94C20A6091AA036D
:1025E00080E10E94E50268EE73E080E090E00E94E6
:1025F00074030E94A30B81E080936C02109171021E
:10260000009178028EE3810F833008F064C110924C
:102610006C020E94A703C0901103D0901203E090B7
:102620001303F09014036C197D098E099F09653F0F
:1026300071408105910560F010926B0210926A0260
:102640001092680210926702109266021092650260
:102650000E94A703C0906102D0906202E0906302E2
:10266000F09064026C197D098E099F09693E7340E0
:102670008105910508F48DC00E94A7036093610253
:102680007093620280936302909364028091AA0324
:10269000882309F47EC08090BF039090C003A0906F
:1026A000C103B090C20381149104A104B10491F15B
:1026B000C090C303D090C403E090C503F090C6035C
:1026C000C114D104E104F10429F140917402509144
:1026D00075026091760270917702809169028C1484
:1026E0009D04AE04BF040CF026C1481559056A05C7
:1026F0007B050CF416C14C155D056E057F050CF0CD
:1027000010C1811107C061E08BE00E94E50281E009
:10271000809369028090C7039090C803A090C9037A
:10272000B090CA0381149104A104B10491F1C09046
:10273000CB03D090CC03E090CD03F090CE03C11436
:10274000D104E104F10429F1409174025091750221
:102750006091760270917702809158028C149D04EA
:10276000AE04BF040CF0F8C0481559056A057B0596
:102770000CF4E8C04C155D056E057F050CF0E2C059
:10278000811107C061E08CE00E94E50281E0809346
:1027900058026091AA0380E10E94E5026091A903BA
:1027A0008FE00E94E502083008F0F2C1E02FF0E06F
:1027B000E452FC4E0C949827B31442178D1813174B
:1027C000811E111FDF157D16512C96CE0E94A70386
:1027D000F8012081318142815381621B730B840B8C
:1027E000950B613D77408105910528F0862D806C21
:1027F0000E940D0998CE862D8064FACF80915702F1
:10280000E82FF0E0E758FD4F1081915090937F0240
:102810008F5F853008F04AC0809357021093710291
:10282000112309F4EBCE0E94A70360931103709368
:10283000120380931303909314030E94A7036093E1
:102840006D0270936E0280936F029093700288E025
:102850008093910460E086E894E00E948508123835
:1028600009F0A5CE80916C028111C8CE8091A90398
:1028700081111FC081E08093A90361E080E00E9484
:10288000FB0987E693E00E94C20A6091A9038FE0EA
:102890000E94E50268EE73E080E090E00E9474031D
:1028A0000E94A30B81E080936C0281CE10925702AC
:1028B000B5CF1092A90361E080E00E94FB0986E594
:1028C00093E0E1CF1092AA0361E080E00E94FB094F
:1028D00084E393E081CE133009F09BCE002319F0FE
:1028E000053009F096CE80916A0290916B020196B4
:1028F00090936B0280936A0202970CF48ACE8BE06D
:102900000E94BC0261E0892B09F060E08BE00E942C
:10291000E50281E090916902911180E08093690263
:1029200078CE813009F0F6CE60E08BE00E94E502BF
:1029300010926902EFCE481559056A057B050CF027
:10294000E0CED9CE813009F024CF60E08CE00E9447
:10295000E502109258021DCF481559056A057B05FE
:102960000CF00ECF07CF60E08EE00E94E50260E041
:102970008DE00E94E502113881F481E080937802B5
:1029800083E00E9493110E94A70360936D027093ED
:102990006E0280936F029093700280917102813079
:1029A00001F5809167029091680201969093680208
:1029B000809367020497ACF00E9422262CE030E05E
:1029C00040E050E00E94DE266A5F7F4F8F4F9F4FAE
:1029D000709305016093040184E0809378020E9463
:1029E0002E0ACE0143960E9425098F89811143C08A
:1029F000CE0101960E9425098E8181113CC00E9462
:102A0000A703AB01BC0180915D0290915E02A09191
:102A10005F02B0916002885B9141AF4FBF4F841756
:102A20009507A607B70738F5CE0101960E9425093C
:102A30008C8190E02091A1033091A203821793072B
:102A4000D4F02091A3033091A403281739079CF0F8
:102A500061E08EE00E94E5020E94A70360935D02A0
:102A600070935E0280935F029093600283E0809394
:102A700078020E942E0A0E94A70300915902109129
:102A80005A0220915B0230915C02601B710B820B39
:102A9000930B693E73408105910570F10E94A70375
:102AA0006093590270935A0280935B0290935C0288
:102AB0000E948D10CE0143960E9425098E896CE3F9
:102AC000869F80011124CE0101960E9425098D81E7
:102AD000800F912F911D092E000CAA0BBB0B809328
:102AE000740290937502A0937602B093770280915E
:102AF000A90381110E94390A0E94A70300911103C2
:102B00001091120320911303309114036B017C0187
:102B1000C01AD10AE20AF30AA091A503B091A60354
:102B200028EE33E00E949E276C157D058E059F05DB
:102B300038F41092910460E086E894E00E948508E1
:102B400080917102823089F48091650290916602D1
:102B5000019690936602809365020297CCF085E01F
:102B6000809378020E942E0A13C0843889F48091E1
:102B70006C0281110DC086E0809378020E94A70349
:102B800060936D0270936E0280936F029093700257
:102B9000EC960FB6F894DEBF0FBECDBFDF91CF919C
:102BA0001F910F91FF90EF90DF90CF90BF90AF906B
:102BB0009F908F907F906F905F904F9008950E94AC
:102BC000A7030091590210915A0220915B023091A3
:102BD0005C02601B710B820B930B6D32714081059F
:102BE000910598F080910201882309F458C00E9451
:102BF0008D10109202010E94A703609359027093F6
:102C00005A0280935B0290935C0210917102123021
:102C100009F051C0CE01C1960E942509FEA8CE013F
:102C20008B960E942509EFA4CE0185960E94250966
:102C300088A500E0883130F4CE014F960E94250926
:102C40000AA10F5FCE0149960E942509DB8CCE01B7
:102C500043960E942509CC88CE0101960E94250941
:102C600089818FABC8AED9AE0AAFEBAEFCAECE0158
:102C7000C7960E9498080E94A703C0906D02D0904A
:102C80006E02E0906F02F09070026C197D098E095F
:102C90009F09613177428105910530F529C060E0D7
:102CA00082E00E94FB0989EA91E00E94DC0A81E04F
:102CB00080930201A0CF1330A9F4CE01C1960E94E7
:102CC0002509FEA8CE018B960E942509EFA4CE010E
:102CD00085960E942509CE014F960E9425090AA1DA
:102CE0000150B0CF113039F6109278020E942E0AAE
:102CF000143009F04DCF87E03FCF0E94A703009129
:102D0000590210915A0220915B0230915C02601BC3
:102D1000710B820B930B6D3271408105910598F018
:102D200080910201882309F458C00E948D101092EE
:102D300002010E94A7036093590270935A02809384
:102D40005B0290935C0280917102823009F051C065
:102D5000CE01C1960E9425090EA9CE018B960E9434
:102D600025098FA510E08C3330F4CE0185960E94A2
:102D7000250919A51F5FCE014F960E942509FAA0CB
:102D8000CE0149960E942509EB8CCE0143960E9404
:102D90002509DC88CE0101960E94250989818FAB27
:102DA000D8AEE9AEFAAE1BAF0CAFCE01C7960E940B
:102DB00098080E94A70300916D0210916E02209165
:102DC0006F0230917002601B710B820B930B6131AB
:102DD00077428105910508F5DBCE60E085E00E9431
:102DE000FB0989EA91E00E94DC0A81E080930201FC
:102DF000A0CF833081F4CE01C1960E9425090EA98F
:102E0000CE018B960E942509CE0185960E94250948
:102E100019A51150B0CF813019F410927802A2CECA
:102E20008430D9F3C6CF88E08093910460E086E8CF
:102E300094E00E94850861E080E00E94FB0980EB3D
:102E400091E00E94DC0A0E94A703AB01BC018091C3
:102E50005D0290915E02A0915F02B091600288577E
:102E60009C4EAF4FBF4F481759076A077B0708F4BE
:102E70008FCECE0101960E9425098C8190E00E94A0
:102E8000AB0B86CE0E94A703C0906D02D0906E025D
:102E9000E0906F02F09070026C197D098E099F0915
:102EA0006131774281059105A0F0809116049091DF
:102EB000170490931A048093190480911804809346
:102EC0001B0410921C0410923104109278020E948C
:102ED0002E0A0E9457028130A1F5CE0101960E9470
:102EE00025098B8190E09093910380939003CE010C
:102EF00001960E9425098A8190E090938F03809328
:102F00008E03CE0101960E942509898190E08053AD
:102F1000984F90938D0380938C03CE0101960E946D
:102F200025098C8190E09093E2038093E103CE0128
:102F300001960E9425098D8190E09093E003809393
:102F4000DF031438A1F48091160490911704909334
:102F50001A04809319048091180480931B04109222
:102F60001C0410923104109278020E942E0A0E94D2
:102F70004502812F8F77823061F1833061F111300A
:102F800061F1143461F110E08DEF810F823008F0AF
:102F9000A6C00E945702882321F1143011F10E942B
:102FA000450281115AC082E0809378020E94570244
:102FB000882309F4EDCD61E080E00E94FB098EE7F3
:102FC000809305041092060485E094E00E94DC0AD8
:102FD000DFCD11E0D9CF12E0D7CF13E0D5CF14E089
:102FE000D3CF80913104811113C080911604909148
:102FF000170490931A048093190480911804809305
:103000001B0410921C040E942E0A10927802C0CD5C
:1030100081508093310490E0DC01AA0FBB1FAA0FFE
:10302000BB1FAA5EBB4F19962D913C911A97309306
:103030001A0420931904880F991F880F991FFC0107
:10304000E25EFB4F808180931B0417968C918093E6
:103050001C0482E00E9493119BCD0E9445028823AC
:1030600009F43BC050911C048091190490911A04FA
:10307000409131044530E8F460911B04242F30E086
:10308000D901AA0FBB1FAA0FBB1FAA5EBB4F179681
:103090005C931797220F331F220F331FF901E25E53
:1030A000FB4F60831A969C938E9319974F5F4093C2
:1030B000310426E0529F800D911D1124FC013596AC
:1030C000E491E0931B04FC013396859194919093D5
:1030D0001A048093190410921C0483E0BBCF1130B2
:1030E00051F480911C04882309F452CD81508093BF
:1030F0001C0480E0AFCF123009F04ACD80911C044F
:1031000020911B042150330B821713060CF040CD85
:103110008F5F80931C0481E09DCF0E945702F82EA0
:1031200001E0113009F000E0EEEFEF0DE73208F0BA
:10313000FFC1F0E0E256F74E0C949827C518EF183F
:10314000101947198419981AB819DD19FC19161A9B
:10315000361A981A641A831A981ACB1A0D1BEC1A8D
:103160002E1B4F1B6A1B8B1BDA1D981A981AAC1B5F
:10317000E31B981A181C4F1C981A981A841CBB1C25
:10318000F01C981A2F1D661D9B1D812F8F77823092
:10319000C1F4809190039091910301968032910542
:1031A00014F081E090E0909391038093900361E0AC
:1031B00081E00E94FB098F2D0E94990E0E94330B23
:1031C00096C5833009F04DC0809190039091910392
:1031D0000197181619063CF38FE190E0E4CF812F98
:1031E0008F77823079F480918E0390918F030196CE
:1031F0008D30910514F081E090E090938F038093DF
:103200008E03D5CF833009F061C080918E039091F9
:103210008F0301971816190684F38CE090E0EDCF28
:10322000812F8F77823081F480918C0390918D0370
:1032300001968330F8E09F0714F081E090E09093CE
:103240008D0380938C03B3CF833059F480918C032A
:1032500090918D030197181619068CF384EE97E070
:10326000EECF113009F04BC52091DF033091E1031F
:103270004091900350918E0380918C0390918D0327
:10328000803D67E09607A8F1805D974032C0812FAE
:103290008F77823079F48091E1039091E203019677
:1032A0008831910514F090E080E09093E2038093E0
:1032B000E1037DCF833051F48091E1039091E203EB
:1032C000019797FFF2CF87E190E0EFCF113009F03F
:1032D00016C52091DF033091E10340919003509196
:1032E0008E0380918C0390918D03803DE7E09E07D3
:1032F00058F689835A834B833C832D831E82CE01EB
:1033000001960E94980853CF812F8F77823079F4ED
:103310008091DF039091E00301968C33910514F0C6
:1033200090E080E09093E0038093DF0340CF833010
:1033300051F48091DF039091E003019797FFF2CF62
:103340008BE390E0EFCF113009F0D9C42091DF0377
:103350003091E1034091900350918E0380918C0352
:1033600090918D03803DF7E09F0708F08DCFC1CF8E
:10337000812F8F77823079F48091A1039091A203FD
:1033800001968831910514F090E080E09093A203BB
:103390008093A1030CCF833051F48091A1039091CD
:1033A000A203019797FFF2CF87E190E0EFCF1130B2
:1033B00009F0A5C40E94A30BFACE812F8F7782302B
:1033C00079F48091A3039091A4030196883191052B
:1033D00014F090E080E09093A4038093A303E7CEE1
:1033E000833029F78091A3039091A403019797FF5D
:1033F000F2CF87E190E0EFCF812F8F77823051F4C9
:103400008091AD039091AE0301969093AE038093AB
:10341000AD03CDCE833059F68091AD039091AE03CC
:10342000019797FFF2CF84E690E0EFCF812F8F775F
:10343000823079F48091A5039091A60301968D3393
:10344000910514F090E080E09093A6038093A5038B
:10345000AECE833009F0ABCF8091A5039091A60347
:10346000019797FFF1CF8CE390E0EECF812F8F771C
:10347000823079F48091A7039091A80301968F314F
:10348000910514F081E090E09093A8038093A70346
:103490008ECE833059F48091A7039091A8030197B1
:1034A000181619068CF38EE190E0EECF113009F07A
:1034B00026C40E94A30B6091A7037091A8037727ED
:1034C00086E00E94C40473CE1F77123079F4809195
:1034D00004019091050101968831910514F084E072
:1034E00090E0909305018093040161CE133001F5C3
:1034F00080910401909105010197843091058CF72A
:1035000087E190E0EECF809116049091170490939C
:103510001A04809319048091180480931B0410925C
:103520001C041092310484E0809378020E942E0AD9
:103530000E94A703C0906D02D0906E02E0906F02CF
:10354000F09070026C197D098E099F0961337547EF
:1035500081059105A0F08091160490911704909335
:103560001A04809319048091180480931B0410920C
:103570001C0410923104109278020E942E0A00233B
:1035800009F406CB81E08093780261E080E00E943C
:10359000FB0980E215CD812F8F77823079F48091FD
:1035A000B3039091B40301968930910514F083E040
:1035B00090E09093B4038093B303F9CD833009F086
:1035C000F6CE8091B3039091B403019783309105B7
:1035D00084F788E090E0EDCF812F8F77823079F407
:1035E0008091B7039091B80301968930910514F04A
:1035F00083E090E09093B8038093B703D8CD8330F5
:1036000009F0D5CE8091B7039091B803019783302C
:10361000910584F788E090E0EDCF812F8F7782309D
:1036200079F48091B5039091B603019689309105A4
:1036300014F083E090E09093B6038093B503B7CD88
:10364000833009F0B4CE8091B5039091B603019711
:103650008330910584F788E090E0EDCF812F8F775C
:10366000823079F48091B9039091BA030196893040
:10367000910514F083E090E09093BA038093B9032E
:1036800096CD833009F093CE8091B9039091BA031F
:1036900001978330910584F788E090E0EDCF812F8A
:1036A0008F77823051F48091AF039091B0030196EF
:1036B0009093B0038093AF037ACD833009F077CE37
:1036C0008091AF039091B003019797FFF1CF84E60B
:1036D00090E0EECF812F8F77823079F48091BB0319
:1036E0009091BC0301968531910514F081E090E042
:1036F0009093BC038093BB035ACD833009F057CE1F
:103700008091BB039091BC0301971816190684F3AE
:1037100084E190E0EDCF812F8F77823079F4809132
:10372000BD039091BE0301968531910514F081E0AF
:1037300090E09093BE038093BD0339CD833009F0B0
:1037400036CE8091BD039091BE03019718161906DD
:1037500084F384E190E0EDCF812F8F778230B9F44C
:103760008091BF039091C003A091C103B091C203A7
:10377000AC01BD01445C5F4F6F4F7F4F77FD3DC093
:10378000403A25E0520761057105BCF519C0833048
:1037900009F00DCE8091BF039091C003A091C103A9
:1037A000B091C203AC01BD014C53510961097109CB
:1037B00077FD23C0403AE5E05E0761057105ECF452
:1037C000DB01CA011AC0812F8F778230F9F4809112
:1037D000BF039091C003A091C103B091C203AC019B
:1037E000BD014F5F5F4F6F4F7F4F77FD06C0403A7F
:1037F000F5E05F07610571051CF38093BF039093AB
:10380000C003A093C103B093C203D1CC833009F0AD
:10381000CECD8091BF039091C003A091C103B09120
:10382000C203AC01BD014150510961097109A6CF24
:10383000812F8F778230B9F48091C3039091C403B4
:10384000A091C503B091C603AC01BD01445C5F4FBC
:103850006F4F7F4F77FD3DC0403AE5E05E07610561
:103860007105BCF519C0833009F0A1CD8091C30367
:103870009091C403A091C503B091C603AC01BD01F2
:103880004C5351096109710977FD23C0403AF5E0B5
:103890005F0761057105ECF4DB01CA011AC0812FD5
:1038A0008F778230F9F48091C3039091C403A09183
:1038B000C503B091C603AC01BD014F5F5F4F6F4FB1
:1038C0007F4F77FD06C0403A25E05207610571053C
:1038D0001CF38093C3039093C403A093C503B093D8
:1038E000C60365CC833009F062CD8091C30390910B
:1038F000C403A091C503B091C603AC01BD01415002
:10390000510961097109A6CF812F8F778230B9F4EF
:103910008091CF039091D003A091D103B091D203B5
:10392000AC01BD01445C5F4F6F4F7F4F77FD3DC0E1
:10393000403AF5E05F0761057105BCF519C08330B9
:1039400009F035CD8091CF039091D003A091D103A0
:10395000B091D203AC01BD014C5351096109710909
:1039600077FD23C0403A25E0520761057105ECF46C
:10397000DB01CA011AC0812F8F778230F9F4809160
:10398000CF039091D003A091D103B091D203AC01A9
:10399000BD014F5F5F4F6F4F7F4F77FD06C0403ACD
:1039A000E5E05E07610571051CF38093CF039093FA
:1039B000D003A093D103B093D203F9CB833009F0A5
:1039C000F6CC8091CF039091D003A091D103B09118
:1039D000D203AC01BD014150510961097109A6CF63
:1039E000812F8F778230C9F48091D3039091D403D3
:1039F000A091D503B091D603AC01BD014B5F5F4FE1
:103A00006F4F7F4F77FD22C0403A25E05207610596
:103A10007105E4F4DB01CA0119C0833009F0C7CC99
:103A20008091D3039091D403A091D503B091D60394
:103A3000AC01BD01455051096109710977FD06C00E
:103A4000403AE5E05E076105710524F38093D303F6
:103A50009093D403A093D503B093D603A8CB812F22
:103A60008F778230B9F48091D7039091D803A091D9
:103A7000D903B091DA03AC01BD01445C5F4F6F4FD5
:103A80007F4F77FD3DC0403AF5E05F076105710566
:103A9000BCF519C0833009F08ACC8091D70390918E
:103AA000D803A091D903B091DA03AC01BD014C5306
:103AB00051096109710977FD23C0403A25E0520799
:103AC00061057105ECF4DB01CA011AC0812F8F7703
:103AD0008230F9F48091D7039091D803A091D90353
:103AE000B091DA03AC01BD014F5F5F4F6F4F7F4F65
:103AF00077FD06C0403AE5E05E07610571051CF3FD
:103B00008093D7039093D803A093D903B093DA039B
:103B10004ECB833009F04BCC8091D7039091D803E2
:103B2000A091D903B091DA03AC01BD014150510914
:103B300061097109A6CF812F8F778230C9F48091F6
:103B4000DB039091DC03A091DD03B091DE03AC01B7
:103B5000BD014B5F5F4F6F4F7F4F77FD22C0403AF3
:103B600025E0520761057105E4F4DB01CA0119C0C3
:103B7000833009F01CCC8091DB039091DC03A09191
:103B8000DD03B091DE03AC01BD014550510961096F
:103B9000710977FD06C0403AE5E05E0761057105F1
:103BA00024F38093DB039093DC03A093DD03B093B5
:103BB000DE03FDCA113809F09DC068E271E082E9B8
:103BC00093E00E94B82982E390E09093AE03809343
:103BD000AD0385E090E09093A2038093A10386E17A
:103BE00090E09093A4038093A30384E190E09093EA
:103BF000A6038093A5038EE090E09093A8038093A2
:103C0000A70321E030E03093AC032093AB038AE0BC
:103C100090E09093B0038093AF033093B20320936E
:103C2000B10383E090E09093B4038093B303909347
:103C3000B6038093B5039093BA038093B90390932E
:103C4000B8038093B7033093BC032093BB0382E097
:103C500090E09093BE038093BD031092BF03109237
:103C6000C0031092C1031092C2031092C3031092BA
:103C7000C4031092C5031092C6031092C70310929A
:103C8000C8031092C9031092CA031092CB0310927A
:103C9000CC031092CD031092CE031092CF0310925A
:103CA000D0031092D1031092D2031092D30310923A
:103CB000D4031092D5031092D6031092D70310921A
:103CC000D8031092D9031092DA031092DB031092FA
:103CD000DC031092DD031092DE031092A903109210
:103CE000AA0361E081E00E94FB0981EC91E00E945F
:103CF000DC0A1ECC113C09F01BCC01E019CC00E021
:103D000017CC60E080E00E94FB0983E293E00E9410
:103D1000C20A61E080E00E94FB09E0900401F0909B
:103D2000050163E771E02CE0E216F10414F46AE7A0
:103D300071E0CE0149960E94F60C6DE0E616F104A2
:103D40001CF08CE0E81AF1081C8A1B8A1E8A1D8A66
:103D5000188E1F8A4AE08E010F5F1F4FB801C701FE
:103D60000E948126F80101900020E9F731977F0138
:103D7000E01AF10AB701CE0143960E94890C811125
:103D800048C0CE0143960E94B10C61ED71E0C801BC
:103D90000E94F60CBE016D5E7F4FC8010E94C30CED
:103DA000BE01675E7F4F0E94C30CFC0144815581B8
:103DB0006081718186E894E00E946602C8010E94D9
:103DC000270DCE0143960E94270DCE0149960E94F1
:103DD000270D61E08EE00E94E50268EE73E080E06E
:103DE00090E00E94740380910401909105010E946B
:103DF000AB0B80917102833011F00C94C81589E0EF
:103E00008093030170E060E086E10E94C4040C949A
:103E1000C815F88EEF8AB8018B899C890E94B82951
:103E2000B4CF61E08EE00E94E50261E08DE00E9487
:103E3000E5020E94A7030091590210915A022091B5
:103E40005B0230915C02601B710B820B930B693E2D
:103E500073408105910570F10E94A7036093590298
:103E600070935A0280935B0290935C020E948D10C3
:103E7000CE0143960E9425098E892CE3829F800102
:103E80001124CE0101960E9425098D81800F912F6A
:103E9000911D092E000CAA0BBB0B8093740290930A
:103EA0007502A0937602B09377028091A9038111E5
:103EB0000E94390A0E94A703009111031091120376
:103EC00020911303309114036B017C01C01AD10AB5
:103ED000E20AF30AA091A503B091A60328EE33E00D
:103EE0000E949E276C157D058E059F0538F4109263
:103EF000910460E086E894E00E94850861E080E03B
:103F00000E94FB0982E193E00E94C20A8091710243
:103F1000823011F00C94C815809165029091660270
:103F200001969093660280936502029714F40C94B4
:103F3000C8151092780210927302109272020C94BB
:103F4000B2151F920F920FB60F9211242F933F9329
:103F50008F939F93AF93BF93809105039091060336
:103F6000A0910703B09108033091040323E0230FCD
:103F70002D3758F50196A11DB11D209304038093A0
:103F8000050390930603A0930703B0930803809161
:103F9000090390910A03A0910B03B0910C030196C1
:103FA000A11DB11D8093090390930A03A0930B03F5
:103FB000B0930C03BF91AF919F918F913F912F913F
:103FC0000F900FBE0F901F90189526E8230F0296B2
:103FD000A11DB11DD2CF1F920F920FB60F921124C7
:103FE0002F933F934F935F936F937F938F939F9301
:103FF000AF93BF93EF93FF93E0910F03F091100302
:10400000309749F0A685B7858585968D91FF14C0B8
:104010009C918923A1F4FF91EF91BF91AF919F9162
:104020008F917F916F915F914F913F912F910F9061
:104030000FBE0F901F9018959C91892361F7A3895B
:10404000B4899C918589809589238C9386899789E9
:104050000197F1F7608D718DA685B785558538E09C
:1040600020E0CB010197F1F7822F90E0959587959D
:10407000282F4C91452309F02068315091F7868D07
:1040800081FD209580910E0390E001968F73992712
:1040900030910D03381799F0A0910E03B0E0AC53A6
:1040A000BD4F2C9380930E03828D938D0197F1F772
:1040B000A389B4898C919589892B8C93ACCF868DFB
:1040C0008160868FF1CF1F920F920FB60F9211244D
:1040D0002F933F934F935F936F937F938F939F9310
:1040E000AF93BF93EF93FF938091B900887F8036A1
:1040F00009F44AC0F0F5883209F4A7C018F58031F8
:1041000009F49BC0B8F4882309F4F9C0883009F495
:1041100094C0FF91EF91BF91AF919F918F917F914B
:104120006F915F914F913F912F910F900FBE0F9024
:104130001F901895883109F488C0803251F7809318
:10414000600314C0803409F49DC040F48033B9F397
:104150008833F9F68093600385ECB0C0803509F4AC
:1041600085C0883509F496C0883499F60E942F0DD1
:10417000D0CF883909F48CC038F5883729F050F44D
:10418000883611F0803729F683E08093620310921D
:10419000C30257C0883809F47BC0803919F08038D1
:1041A00009F0B7CF8091C302803208F071C0E0916E
:1041B000C30281E08E0F8093C3028091BB00F0E0C8
:1041C000ED55FD4F80833DC0803B39F0E0F4803AEF
:1041D00009F479C0883A09F09CCF84E080936203A7
:1041E0001092A2021092A102E0911803F09119031B
:1041F00009958091A10281110FC081E08093A102F5
:104200001092810209C0803C09F4A6CF883C09F4D1
:10421000A3CF883B09F07DCFE091A20281E08E0F11
:104220008093A202F0E0EF57FD4F80818093BB00A6
:104230009091A2028091A10229C080913D038093B8
:10424000BB0085EC8093BC0064CF90915F038091AC
:104250005E03981758F5E0915F0381E08E0F80931D
:104260005F03F0E0E25CFC4F8081E9CFE0915F0307
:1042700081E08E0F80935F038091BB00F0E0E25CF1
:10428000FC4F808390915F0380915E039817C8F282
:1042900085E8D8CFE0915F0381E08E0F80935F03C4
:1042A0008091BB00F0E0E25CFC4F80838091610371
:1042B00081115CCF81E080933C0384EA8093BC0051
:1042C0001092620326CF85EC8093BC0010926203AB
:1042D0008091C302803230F4E091C302F0E0ED55EA
:1042E000FD4F10826091C30270E0E0911603F091DF
:1042F000170383EA92E009951092C3020ACF109245
:10430000600334CF109235041092340488EE93E0A9
:10431000A0E0B0E08093360490933704A093380473
:10432000B093390421E431E0309333042093320414
:104330001092BB041092BA048093BC049093BD0405
:10434000A093BE04B093BF048FE591E09093B904AD
:104350008093B8041092CF041092CE041092D1042E
:104360001092D0041092D3041092D2041092D5046B
:104370001092D4046091D6046E7F6D7F6093D60452
:104380006695617081E0682783E00E94E50261E044
:1043900083E00E941303E0E2F4E0E491E093C804B8
:1043A000ECE0F4E0E491F0E0EE0FFF1FE150FC4F91
:1043B000859194919093CA048093C90460E082E04F
:1043C0000E9413038091D60481FD04C061E082E065
:1043D0000E94E50282E08093C404EFE1F4E0E491FE
:1043E000E093C504EBE0F4E0E491F0E0EE0FFF1F92
:1043F000EB50FC4F259134913093C7042093C604B1
:1044000044EF51E060E070E04093980450939904C9
:1044100060939A0470939B049AE0E8E1F1E0A6EAC5
:10442000B4E001900D929A95E1F71092B004809358
:10443000B1041092B6041092B7041092890410923D
:10444000880423E531E0309387042093860497E2C3
:1044500090938A0490E190938F048093900410923B
:1044600091046EED71E08EE394E00E94F60C62EE32
:1044700071E084E494E00E94F60C66EE71E08AE458
:1044800094E00E94F60C6AEE71E080E594E00E94F0
:10449000F60C6EEE71E086E594E00E94F60C62EF99
:1044A00071E08CE594E00E94F60C66EF71E082E624
:1044B00094E00E94F60C6AEF71E088E694E00E94B6
:1044C000F60C6EEF71E08EE694E00E94F60C62E06E
:1044D00072E084E794E00E94F60C66E072E08AE7FE
:1044E00094E00E94F60C6AE072E080E894E00C949C
:1044F000F60C789484B5826084BD84B5816084BDF7
:1045000085B5826085BD85B5816085BD80916E0071
:10451000816080936E0010928100809181008260A2
:1045200080938100809181008160809381008091DF
:1045300080008160809380008091B10084608093CE
:10454000B1008091B00081608093B00080917A00CA
:10455000846080937A0080917A00826080937A00F0
:1045600080917A00816080937A0080917A008068DF
:1045700080937A001092C10061E08EE00E941303E4
:1045800061E08DE00E94130361E080E10E9413036B
:1045900061E08FE00E94130361E08BE00E9413034F
:1045A00061E08CE00E94130361E08DE00E94130340
:1045B00062E085E00E94130362E086E00E9413033C
:1045C00062E087E00E94130362E088E00E94130328
:1045D00062E089E00E9413030E9412060E94120604
:1045E00010928B0480919004823018F098E09093A0
:1045F0008B0480938E0462E370E080E090E00E9480
:1046000074036091910486E894E00E94850868EE46
:1046100073E080E090E00E94740360E386E894E039
:104620000E94CB09CBE4D6E4CE010197F1F760E319
:1046300086E894E00E94CB092197F1F760E386E8D1
:1046400094E00E94CB0983E592E00197F1F760E2E4
:1046500086E894E00E94CB0960918B04606240E0A0
:1046600086E894E00E94E40984E080938C0440E0B2
:104670006CE086E894E00E94E4090E942E0A82E041
:1046800080938D0440E066E086E894E00E94E409AF
:1046900040E062E086E894E00E94E4098BE39FE159
:1046A0000197F1F788E08093910460E086E894E058
:1046B0000E94850860E085E00E94FB098DEE93E092
:1046C0000E94C20A61E086E00E94FB0987EE93E047
:1046D0000E94C20A60ED77E080E090E00E947403DF
:1046E0000E942E0A60E083E00E94FB098EE092E0C7
:1046F0000E94DC0A4DE450E070E060E082E993E063
:104700000E94B62668E271E082E993E00E94AF2938
:10471000892B09F494C068E271E082E993E00E9479
:10472000B82982E390E09093AE038093AD0385E0D7
:1047300090E09093A2038093A10386E190E0909390
:10474000A4038093A30384E190E09093A603809355
:10475000A5038EE090E09093A8038093A70321E047
:1047600030E03093AC032093AB038AE090E0909369
:10477000B0038093AF033093B2032093B10383E07F
:1047800090E09093B4038093B3039093B603809327
:10479000B5039093BA038093B9039093B8038093C1
:1047A000B7033093BC032093BB0382E090E0909367
:1047B000BE038093BD031092BF031092C0031092FA
:1047C000C1031092C2031092C3031092C40310924B
:1047D000C5031092C6031092C7031092C80310922B
:1047E000C9031092CA031092CB031092CC0310920B
:1047F000CD031092CE031092CF031092D0031092EB
:10480000D1031092D2031092D3031092D4031092CA
:10481000D5031092D6031092D7031092D8031092AA
:10482000D9031092DA031092DB031092DC0310928A
:10483000DD031092DE031092A9031092AA0386E012
:104840000E94BC02892B09F006C161E080E00E9451
:10485000FB0989E192E00E94DC0A81E08093150364
:10486000C1E0D8E60E941206C0936803D0938A0381
:104870001092690310928B030E944A068111EEC0C8
:10488000C09368031092690310928B0360E082E387
:1048900094E00E9456080E944A0661E088E60E9461
:1048A000310710921B0380931A0382E394E00E9465
:1048B0000F0887FF0EC00E942E0A89ED93E00E9428
:1048C000C20A60ED77E080E090E00E947403C0933C
:1048D00015030E942E0A89E00E94BC02892B09F46C
:1048E00007C11092D3041092D2041092D1041092F6
:1048F000D0041092CF041092CE048DE991E09093F1
:10490000D5048093D4049091C404963108F047C034
:104910002DEB30E03093CF042093CE042BE931E02F
:104920003093D1042093D0042CE231E03093D304AF
:104930002093D2042091680084E0983048F031E060
:104940009E3008F430E081E001C0880F3A95EAF724
:10495000822B809368002DE630E0983050F02BE6F3
:1049600030E09E3030F02CE630E0963110F030E050
:1049700020E03093CC042093CB04292F30E09830F2
:1049800008F073C081E001C0880F9A95EAF7809320
:10499000CD048091D4049091D5040197F1F78091D2
:1049A000D2049091D304892B49F1E0910F03F09147
:1049B000100324E0E83BF20709F1309739F0A389AE
:1049C000B4899C918589809589238C938091D604A4
:1049D0008E7F8093D60410920E0310920D0388EB05
:1049E00094E09093100380930F03E091CB04F09137
:1049F000CC0480819091CD04892B808364EF71E099
:104A000080E090E00E947403C8EBD4E011E0D09302
:104A10009304C09392041093AA0470E060E08CE0C9
:104A20000E94C4040E94A7036B017C010E94B3038F
:104A3000811128C00E94A7036C197D098E099F0966
:104A4000613D774081059105E8F460E070E0CB01BD
:104A50000E947403EBCF1092150302CF0E942E0A1E
:104A600080EE93E00E94C20AFDCE9E3040F42850B2
:104A7000310981E001C0880F2A95EAF788CF2E50CE
:104A80003109F7CF68EC70E080E090E00E94740399
:104A90001092B6048091B204843059F0893049F004
:104AA00060E080E00E94FB0982ED93E00E94C20A70
:104AB000AECF84EF91E0A0E0B0E0809398049093B3
:104AC0009904A0939A04B0939B046091A7037091FA
:104AD000A803772786E00E94C40462E070E089E0C2
:104AE0000E94C40468EC70E080E090E00E947403CF
:104AF0000E942E0A0E94A703609311037093120371
:104B00008093130390931403809115038823E1F09D
:104B10002EEA33E0309317042093160486E0809346
:104B2000180430931A042093190480931B041092E4
:104B30001C0410923104C0E0D0E00E940B122097B8
:104B4000E1F30E940000F9CF26E933E03093170427
:104B50002093160484E0E3CFCF93DF93C6E8D4E03C
:104B60002697CE010E94270D24E0CE33D207C1F74D
:104B70008FE591E09093B9048093B80480910F037E
:104B800090911003885B944071F4E091CB04F09114
:104B9000CC0490818091CD048095892380831092EC
:104BA000100310920F03DF91CF9108958F929F927F
:104BB000AF92BF92CF92DF92EF92FF92CF93DF93AB
:104BC000EC01688179818A819B816115710581057C
:104BD000910521F464E279ED8BE597E02DE133EF67
:104BE00041E050E00E94DE2649015A019B01AC01E0
:104BF000A7EAB1E40E94FD266B017C01ACEEB4EFA4
:104C0000A50194010E940B27C60ED71EE81EF91EAF
:104C1000F7FE06C081E0C81AD108E10880E8F80A6A
:104C2000C882D982EA82FB82C701B6019F77DF91F1
:104C3000CF91FF90EF90DF90CF90BF90AF909F907B
:104C40008F9008958F929F92AF92BF92CF92DF92F2
:104C5000EF92FF9260910601709107018091080127
:104C600090910901611571058105910521F464E2B6
:104C700079ED8BE597E02DE133EF41E050E00E94C4
:104C8000DE2649015A019B01AC01A7EAB1E40E946A
:104C9000FD266B017C01ACEEB4EFA50194010E94EE
:104CA0000B27C60ED71EE81EF91EF7FE06C081E0D0
:104CB000C81AD108E10880E8F80AC0920601D0922B
:104CC0000701E0920801F0920901C701B6019F7740
:104CD000FF90EF90DF90CF90BF90AF909F908F901C
:104CE00008956093060170930701809308019093E3
:104CF00009010895FB01DC0105900D920020E1F708
:104D00000895BB274A3031F4992322F4BDE29095EF
:104D100081959F4F0C948D26BB27FB015527AA2711
:104D2000880F991FAA1FA41710F0A41B8395505138
:104D3000B9F7A05DAA3308F0A95DA193009779F7B0
:104D4000B111B1931192CB010C94A626DC01FC01A8
:104D5000672F71917723E1F7329704C07C916D93AF
:104D600070836291AE17BF07C8F30895DC01CB01D1
:104D7000FC01F999FECF06C0F2BDE1BDF89A31966B
:104D800000B40D9241505040B8F70895DC01CB01BA
:104D900003C02D910E94D12641505040D0F7089574
:104DA000262FF999FECF1FBA92BD81BD20BD0FB647
:104DB000F894FA9AF99A0FBE01960895052E97FB7A
:104DC0001EF400940E94F52657FD07D00E94472745
:104DD00007FC03D04EF40C94F52650954095309581
:104DE00021953F4F4F4F5F4F089590958095709557
:104DF00061957F4F8F4F9F4F08950E946927A59F10
:104E0000900DB49F900DA49F800D911D11240895C5
:104E1000B7FF0C94FD260E94FD26821B930B08957C
:104E20002F923F924F925F926F927F928F929F92BA
:104E3000AF92BF92CF92DF92EF92FF920F931F93A8
:104E4000CF93DF93CDB7DEB7CA1BDB0B0FB6F89459
:104E5000DEBF0FBECDBF09942A88398848885F8499
:104E60006E847D848C849B84AA84B984C884DF800A
:104E7000EE80FD800C811B81AA81B981CE0FD11DEE
:104E80000FB6F894DEBF0FBECDBFED010895A1E2CD
:104E90001A2EAA1BBB1BFD010DC0AA1FBB1FEE1FB4
:104EA000FF1FA217B307E407F50720F0A21BB30BFF
:104EB000E40BF50B661F771F881F991F1A9469F77B
:104EC00060957095809590959B01AC01BD01CF01D7
:104ED0000895A29FB001B39FC001A39F700D811DD3
:104EE0001124911DB29F700D811D1124911D0895F3
:104EF000991B79E004C0991F961708F0961B881F2C
:104F00007A95C9F78095089597FB072E16F40094BB
:104F100007D077FD09D00E94A52707FC05D03EF4F5
:104F2000909581959F4F0895709561957F4F089555
:104F3000EE0FFF1F0590F491E02D09940E94692760
:104F4000B7FF0895821B930B0895AA1BBB1B51E169
:104F500007C0AA1FBB1FA617B70710F0A61BB70BE9
:104F6000881F991F5A95A9F780959095BC01CD018E
:104F700008950F931F93CF93DF938230910510F420
:104F800082E090E0E091D904F091DA0430E020E092
:104F9000B0E0A0E0309799F42115310509F44AC03A
:104FA000281B390B24303105D8F58A819B81611586
:104FB000710589F1FB0193838283FE0111C0408159
:104FC00051810281138148175907E0F048175907AA
:104FD00099F4109761F012960C93129713961C9304
:104FE0003296CF01DF91CF911F910F9108950093D9
:104FF000D9041093DA04F4CF2115310551F042178A
:10500000530738F0A901DB019A01BD01DF01F80166
:10501000C1CFEF01F9CF9093DA048093D904CDCFBB
:10502000FE01E20FF31F81939193225031093983DE
:105030002883D7CF2091D7043091D804232B41F473
:1050400020910C0130910D013093D8042093D704A6
:1050500020910A0130910B012115310541F42DB742
:105060003EB740910E0150910F01241B350BE0918A
:10507000D704F091D804E217F307A0F42E1B3F0BDE
:105080002817390778F0AC014E5F5F4F24173507BA
:1050900048F04E0F5F1F5093D8044093D70481937C
:1050A00091939FCFF0E0E0E09CCFCF93DF93009708
:1050B000E9F0FC01329713821282A091D904B091D9
:1050C000DA04ED0130E020E01097A1F42081318175
:1050D000820F931F2091D7043091D80428173907E5
:1050E00009F061C0F093D804E093D704DF91CF9129
:1050F0000895EA01CE17DF07E8F54A815B819E013A
:1051000041155105B1F7E901FB83EA8349915991B2
:10511000C40FD51FEC17FD0761F4808191810296C1
:10512000840F951FE90199838883828193819B83F2
:105130008A83F0E0E0E012968D919C91139700979E
:10514000B9F52D913C911197CD010296820F931FD5
:105150002091D7043091D8042817390739F63097B1
:1051600051F51092DA041092D904B093D804A093A8
:10517000D704BCCFD383C28340815181840F951F54
:10518000C817D90761F44E5F5F4F88819981480F36
:10519000591F518340838A819B8193838283211588
:1051A000310509F0B0CFF093DA04E093D9049ECF33
:1051B000FD01DC01C0CF13821282D7CFB0E0A0E0A6
:1051C000E4EEF8E20C9412278C01009751F4CB0125
:1051D0000E94B9278C01C801CDB7DEB7E0E10C947D
:1051E0002E27FC01E60FF71F9C0122503109E21720
:1051F000F30708F49DC0D901CD91DC911197C61732
:10520000D70798F0C530D10530F3CE010497861743
:10521000970708F3C61BD70B2297C193D1936D93C1
:105220007C93CF010E945528D6CF5B01AC1ABD0AF2
:105230004C018C0E9D1EA091D904B091DA04512C22
:10524000412CF12CE12C109731F58091D7049091ED
:10525000D8048815990509F05CC04616570608F071
:1052600058C080910A0190910B01009741F48DB7CD
:105270009EB740910E0150910F01841B950BE817CA
:10528000F90708F055C0F093D804E093D704F9016A
:1052900071836083A0CF8D919C91119712966C9031
:1052A000129713967C901397A815B90559F56C01C0
:1052B00042E0C40ED11CCA14DB0420F1AC014A192F
:1052C0005B09DA011296159780F06282738251832E
:1052D0004083D9016D937C93E114F10471F0D701FF
:1052E0001396FC93EE93129776CF22968C0F9D1F08
:1052F000F90191838083F301EFCFF093DA04E09317
:10530000D90469CF4816590608F42C017D01D30150
:105310009ACFCB010E94B9277C01009749F0AE01DA
:10532000B8010E949B29C8010E945528870153CFCC
:1053300010E000E050CFFB01DC0102C001900D92B3
:1053400041505040D8F70895FB01DC010D9000203A
:10535000E9F7119701900D920020E1F70895FB0104
:10536000DC018D91019080190110D9F3990B0895FA
:10537000FB01DC0101900D920020E1F70895FB0193
:10538000DC014150504048F001900D920020C9F7D7
:1053900001C01D9241505040E0F7089512E0CAE16B
:1053A000D2E004C0FE010E9498272196CB31D1079C
:1053B000C9F7F894FFCF03010101050001000000C7
:1053C0000000DB04800000004000140054007EFF59
:1053D00006000100000000EF000102030400436822
:1053E000616E7442656C6C2056322E31002D2D2D6D
:1053F0002D2D0000000000560829080A0937052253
:10540000080F08000800000000BC0A66020A091E16
:105410000500000000380566020A0937059405AC4E
:10542000051F0530003A303020504D003A30302012
:10543000414D004F46460020536F6E677300205366
:1054400065636F6E6473002044656D6F203E00508D
:105450006C61790020504D2020200020414D2020FB
:1054600020003A002D004348414E5420504C4159F1
:10547000494E472E2E2E0044656661756C7473206C
:105480006C6F616465640044454D4F2054494D453F
:10549000203A20004A616E00466562004D6172004C
:1054A000417072004D6179004A756E004A756C005A
:1054B00041756700536570004F6374004E6F76004E
:1054C000446563004C6F6164696E672E2E2E005335
:0C54D000657276696365204D6F646500AD
:107E0000112484B714BE81FFF0D085E080938100F7
:107E100082E08093C00088E18093C10086E0809377
:107E2000C20080E18093C4008EE0C9D0259A86E02C
:107E300020E33CEF91E0309385002093840096BBD3
:107E4000B09BFECF1D9AA8958150A9F7CC24DD24C4
:107E500088248394B5E0AB2EA1E19A2EF3E0BF2EE7
:107E6000A2D0813461F49FD0082FAFD0023811F036
:107E7000013811F484E001C083E08DD089C08234E0
:107E800011F484E103C0853419F485E0A6D080C0E4
:107E9000853579F488D0E82EFF2485D0082F10E0AE
:107EA000102F00270E291F29000F111F8ED06801E7
:107EB0006FC0863521F484E090D080E0DECF843638
:107EC00009F040C070D06FD0082F6DD080E0C81688
:107ED00080E7D80618F4F601B7BEE895C0E0D1E017
:107EE00062D089930C17E1F7F0E0CF16F0E7DF06D8
:107EF00018F0F601B7BEE89568D007B600FCFDCFD4
:107F0000A601A0E0B1E02C9130E011968C91119780
:107F100090E0982F8827822B932B1296FA010C0160
:107F200087BEE89511244E5F5F4FF1E0A038BF0790
:107F300051F7F601A7BEE89507B600FCFDCF97BE46
:107F4000E89526C08437B1F42ED02DD0F82E2BD052
:107F50003CD0F601EF2C8F010F5F1F4F84911BD097
:107F6000EA94F801C1F70894C11CD11CFA94CF0C13
:107F7000D11C0EC0853739F428D08EE10CD085E9AC
:107F80000AD08FE07ACF813511F488E018D01DD067
:107F900080E101D065CF982F8091C00085FFFCCF94
:107FA0009093C60008958091C00087FFFCCF809118
:107FB000C00084FD01C0A8958091C6000895E0E648
:107FC000F0E098E1908380830895EDDF803219F02E
:107FD00088E0F5DFFFCF84E1DECF1F93182FE3DFCA
:107FE0001150E9F7F2DF1F91089580E0E8DFEE27F6
:047FF000FF270994CA
:027FFE00040479
:00000001FF
