:020000040000FA
:100000000C9463000C948B000C948B000C94B20540
:100010000C94B2050C94B2050C948B000C948B00DC
:100020000C948B000C948B000C948B000C948B0024
:100030000C948B000C948B000C948B000C948B0014
:100040000C944D040C948B000C941B040C94F5033D
:100050000C948B000C948B000C948B000C948B00F4
:100060000C9497040C948B000000000024002700DF
:100070002A0000000008000201000003040700003D
:1000800000000000000000000000230026002900FE
:1000900000000000250028002B00040404040404D0
:1000A0000404020202020202030303030303010227
:1000B00004081020408001020408102001020408F6
:1000C00010202A06B30811241FBECFEFD8E0DEBFF0
:1000D000CDBF11E0A0E0B1E0E8E5F2E102C005909B
:1000E0000D92A033B107D9F722E0A0E3B1E001C03F
:1000F0001D92A43BB207E1F710E0C2E6D0E004C0D5
:100100002197FE010E941909C136D107C9F70E9443
:10011000E8060C941F090C940000AF92BF92CF9296
:10012000DF92EF92FF920F931F93CF93DF936C01B7
:100130007B018B01040F151FEB015E01AE18BF0898
:10014000C017D10759F06991D601ED91FC9101904A
:10015000F081E02DC6010995892B79F7C501DF9162
:10016000CF911F910F91FF90EF90DF90CF90BF90B4
:10017000AF900895FC01538D448D252F30E0842FDE
:1001800090E0821B930B541710F0CF9608950197BF
:100190000895FC01918D828D981761F0A28DAE0FAC
:1001A000BF2FB11D5D968C91928D9F5F9F73928F33
:1001B00090E008958FEF9FEF0895FC01918D828D5F
:1001C000981731F0828DE80FF11D858D90E008952C
:1001D0008FEF9FEF0895FC01918D228D892F90E084
:1001E000805C9F4F821B91098F739927089584EF3C
:1001F00091E00E94EB0021E0892B09F420E0822F9E
:10020000089580E090E0892B29F00E94F700811189
:100210000C9400000895FC01A48DA80FB92FB11D06
:10022000A35ABF4F2C91848D90E001968F7399272C
:10023000848FA689B7892C93A089B1898C9183700A
:1002400080648C93938D848D981306C00288F38903
:10025000E02D80818F7D80830895EF92FF920F9330
:100260001F93CF93DF93EC0181E0888F9B8D8C8D62
:1002700098131AC0E889F989808185FF15C09FB756
:10028000F894EE89FF896083E889F9898081837019
:10029000806480839FBF81E090E0DF91CF911F91C8
:1002A0000F91FF90EF900895F62E0B8D10E00F5FE9
:1002B0001F4F0F731127E02E8C8D8E110CC00FB6BF
:1002C00007FCFACFE889F989808185FFF5CFCE0157
:1002D0000E940B01F1CFEB8DEC0FFD2FF11DE35AC6
:1002E000FF4FF0829FB7F8940B8FEA89FB898081DA
:1002F0008062CFCFCF93DF93EC01888D8823B9F054
:10030000AA89BB89E889F9898C9185FD03C0808120
:1003100086FD0DC00FB607FCF7CF8C9185FFF2CF9D
:10032000808185FFEDCFCE010E940B01E9CFDF91E7
:10033000CF91089590E0FC01EE58FF4F2491FC010D
:10034000E255FF4F3491FC01E656FF4FE491EE2356
:10035000C9F0222339F0233001F1A8F4213019F13A
:10036000223029F1F0E0EE0FFF1FE057FF4FA5917B
:10037000B4918FB7F894EC91611126C030953E236B
:100380003C938FBF08952730A9F02830C9F024305E
:1003900049F7809180008F7D03C0809180008F7726
:1003A00080938000DFCF84B58F7784BDDBCF84B5A9
:1003B0008F7DFBCF8091B0008F778093B000D2CF3C
:1003C0008091B0008F7DF9CF3E2BDACFCF93DF93B2
:1003D00090E0FC01E255FF4F249186569F4FFC01AF
:1003E00084918823D1F090E0880F991FFC01E8598F
:1003F000FF4FA591B491FC01E057FF4FC591D491F7
:1004000061110EC09FB7F8948C91E22FE0958E2376
:100410008C932881E223E8839FBFDF91CF910895D9
:100420008FB7F894EC91E22BEC938FBFF6CF3FB7E8
:10043000F8948091E6019091E701A091E801B091D4
:10044000E90126B5A89B05C02F3F19F00196A11D13
:10045000B11D3FBFBA2FA92F982F8827BC01CD010E
:10046000620F711D811D911D42E0660F771F881F6D
:10047000991F4A95D1F708958F929F92AF92BF929C
:10048000CF92DF92EF92FF920E9417024B015C0124
:1004900088EEC82E83E0D82EE12CF12C0E941702A2
:1004A000681979098A099B09683E7340810591059D
:1004B000A8F321E0C21AD108E108F10888EE880EFD
:1004C00083E0981EA11CB11CC114D104E104F10405
:1004D00029F7FF90EF90DF90CF90BF90AF909F9063
:1004E0008F90089520919701260F3327331F2132D3
:1004F0003105ECF42091BB01FC0190E080E0243058
:1005000069F082E00895A09197012191AC014958CA
:100510005E4FA40FB52FB11D2C930196861798F34B
:1005200080919701680F6093970180E0089581E0C2
:10053000089508958FEF9FEF08958FEF9FEF08952F
:100540008091700190E09195819591090895CF93E4
:10055000DF93CB01EA01642F0E947202CE01DF918A
:10056000CF910895CF93DF931F92CDB7DEB7698304
:1005700061E0CE0101960E94720281E090E00F904E
:10058000DF91CF9108952091EC013091ED01281772
:10059000390771F49091EA018091EB01981741F0CD
:1005A000E091EA01F0E0E05DFE4F808190E0089587
:1005B0008FEF9FEF0895EF92FF920F931F93CF93CA
:1005C000DF93DC015C96ED90FC905D97E114F10403
:1005D00079F481E090E013969C938E93129790E0CB
:1005E00080E0DF91CF911F910F91FF90EF900895E0
:1005F0005196ED91FC91529750968C915097982F6F
:1006000090950FB75E962C915E97122F127021FD78
:100610006095F8942081112319F1282B2083E7019C
:100620002197F1F728E0462F50E0308160FF1AC093
:10063000382B3083E7012197F1F7BA01759567955B
:10064000215089F7112381F08081892380830FBF96
:100650005C968D919C910197F1F781E090E0C1CF7C
:100660002923DCCF3923E5CF9081892BEFCF20914F
:10067000EC013091ED012817390771F48091EB01FD
:100680002091EA0190E0805C9F4F821B910960E419
:1006900070E00E94CF08089590E080E008952091D6
:1006A000EC013091ED0128173907B9F49091EA0176
:1006B0008091EB01981789F0E091EA01F0E0E05DAC
:1006C000FE4F80812091EA0130E02F5F3F4F2F7372
:1006D00033272093EA0190E008958FEF9FEF08956C
:1006E00090E080E00895FC0101900020E9F7319747
:1006F000AF01481B590BBC0184EF91E00C948D00B5
:100700001F93CF93DF9385ED8093BC00809173019D
:1007100090917401A0917501B09176010796A11D89
:10072000B11D23E0B695A795979587952A95D1F7A2
:100730002091BC0024FD03C01092BB0152C0409127
:100740007301509174016091750170917601452B90
:10075000462B472B69F30097A105B10541F025E32E
:100760002A95F1F700000197A109B109E1CF809125
:100770007201C1E0C0937101882399F1D091B80052
:100780001091BA008091BC008A7B8093BC0060E02D
:1007900082E10E949A0160E083E10E949A01109236
:1007A000BB01C093BD011092BC0161E082E10E94D7
:1007B0009A0161E083E10E949A018091B9008E7FE5
:1007C0008093B9008091B9008D7F8093B90088E44F
:1007D0008093B80085E48093BC001093BA00D09356
:1007E000B800DF91CF911F9108951F920F920FB61D
:1007F0000F9211242F933F934F935F936F937F93A7
:100800008F939F93AF93BF93EF93FF9384EF91E008
:100810000E940B01FF91EF91BF91AF919F918F913A
:100820007F916F915F914F913F912F910F900FBEEC
:100830000F901F9018951F920F920FB60F921124D0
:100840002F938F939F93EF93FF93E0910402F09186
:1008500005028081E0910A02F0910B0282FD1BC02B
:10086000908180910D028F5F8F7320910E0282170D
:1008700041F0E0910D02F0E0EC50FE4F958F809337
:100880000D02FF91EF919F918F912F910F900FBECD
:100890000F901F9018958081F4CF1F920F920FB682
:1008A0000F9211242F933F938F939F93AF93BF93F6
:1008B0008091E2019091E301A091E401B091E50102
:1008C0003091E10123E0230F2D3758F50196A11D4A
:1008D000B11D2093E1018093E2019093E301A09385
:1008E000E401B093E5018091E6019091E701A091C8
:1008F000E801B091E9010196A11DB11D8093E601C7
:100900009093E701A093E801B093E901BF91AF9103
:100910009F918F913F912F910F900FBE0F901F903D
:10092000189526E8230F0296A11DB11DD2CF1F9264
:100930000F920FB60F9211242F933F934F935F9313
:100940006F937F938F939F93AF93BF93EF93FF9397
:100950008091B900887F803609F44AC0F0F588326A
:1009600009F4A5C018F5803109F499C0B8F48823BA
:1009700009F4F5C0883009F492C0FF91EF91BF915E
:10098000AF919F918F917F916F915F914F913F9127
:100990002F910F900FBE0F901F901895883109F47A
:1009A00086C0803251F78093BA0114C0803409F4B4
:1009B0009BC040F48033B9F38833F9F68093BA01D1
:1009C00085ECAEC0803509F483C0883509F494C045
:1009D000883499F60E948003D0CF883909F48AC000
:1009E00038F5883729F050F4883611F0803729F629
:1009F00083E08093BB011092B90155C0883809F497
:100A000079C0803919F0803809F0B7CF8091B901E9
:100A1000803208F06FC0E091B90181E08E0F8093C1
:100A2000B9018091BB00F0E0E756FE4F80833BC0E8
:100A3000803B39F0D0F4803A09F477C0883A09F065
:100A40009CCF84E08093BB01109298011092970193
:100A5000F0E0E0E009958091970181110FC081E0FD
:100A6000809397011092770109C0803C09F4A8CFC8
:100A7000883C09F4A5CF883B09F07FCFE09198012D
:100A800081E08E0F80939801F0E0E958FE4F80815D
:100A90008093BB00909198018091970129C080912B
:100AA000E0018093BB0085EC8093BC0066CF909101
:100AB000DF018091DE01981758F5E091DF0181E0B8
:100AC0008E0F8093DF01F0E0E254FE4F8081E9CF8A
:100AD000E091DF0181E08E0F8093DF018091BB0008
:100AE000F0E0E254FE4F80839091DF018091DE01BF
:100AF0009817C8F285E8D8CFE091DF0181E08E0F2A
:100B00008093DF018091BB00F0E0E254FE4F8083D0
:100B10008091BD0181115ECF81E08093BC0184EAA8
:100B20008093BC001092BB0128CF85EC8093BC0061
:100B30001092BB018091B901803230F4E091B9018B
:100B4000F0E0E756FE4F10826091B90170E089E94C
:100B500091E0F0E0E0E009951092B9010ECF10921B
:100B6000BA0138CF1F920F920FB60F9211242F9314
:100B70003F934F935F936F937F938F939F93AF9325
:100B8000BF93EF93FF93E091EC01F091ED0130976B
:100B900049F0A685B7858585968D91FF14C09C91F7
:100BA0008923A1F4FF91EF91BF91AF919F918F9114
:100BB0007F916F915F914F913F912F910F900FBE59
:100BC0000F901F9018959C91892361F7A389B48990
:100BD0009C918589809589238C9386899789019733
:100BE000F1F7608D718DA685B785558538E020E0D9
:100BF000CB010197F1F7822F90E095958795282FEB
:100C00004C91452309F02068315091F7868D81FD84
:100C100020958091EB0190E001968F739927309198
:100C2000EA01381799F0A091EB01B0E0A05DBE4F4A
:100C30002C938093EB01828D938D0197F1F7A3891B
:100C4000B4898C919589892B8C93ACCF868D8160EA
:100C5000868FF1CF1092F7011092F60188EE93E0A3
:100C6000A0E0B0E08093F8019093F901A093FA011D
:100C7000B093FB0126E031E03093F5012093F401BD
:100C800025EC30E0309301022093000224EC30E0A8
:100C9000309303022093020220EC30E030930502EF
:100CA0002093040221EC30E03093070220930602E7
:100CB00022EC30E0309309022093080226EC30E069
:100CC00030930B0220930A0210920D0210920E0232
:100CD00010920F0210921002109298021092970236
:100CE0008093990290939A02A0939B02B0939C02E6
:100CF00088E191E090939602809395021092AC0265
:100D00001092AB021092AE021092AD021092B0029D
:100D10001092AF021092B2021092B1026091B3022F
:100D20006E7F6D7F6093B3026695617081E0682786
:100D300087E00E949A0161E087E00E94E601E5EB0E
:100D4000F0E0E491E093A502E1EAF0E0E491F0E064
:100D5000EE0FFF1FE057FF4F859194919093A702EC
:100D60008093A60260E086E00E94E6018091B302D3
:100D700081FD04C061E086E00E949A0186E08093D4
:100D8000A102E4EBF0E0E491E093A202E0EAF0E0FB
:100D9000E491F0E0EE0FFF1FEA57FF4F8591949129
:100DA0009093A4028093A30282E090E09093920239
:100DB0008093910283E090E0909394028093930259
:100DC00061E082E00E94E60160E083E00C94E601CD
:100DD000CF93DF93CDB7DEB7A1970FB6F894DEBF00
:100DE0000FBECDBF789484B5826084BD84B5816028
:100DF00084BD85B5826085BD85B5816085BD8091E6
:100E00006E00816080936E0010928100809181005D
:100E10008260809381008091810081608093810055
:100E2000809180008160809380008091B100846017
:100E30008093B1008091B00081608093B000809178
:100E40007A00846080937A0080917A008260809337
:100E50007A0080917A00816080937A0080917A0094
:100E6000806880937A001092C100E0910402F091B2
:100E7000050282E08083E0910002F091010210827D
:100E8000E0910202F09103028FEC808310920C0239
:100E9000E0910802F091090286E08083E091060269
:100EA000F0910702808180618083E0910602F091D9
:100EB0000702808188608083E0910602F09107023A
:100EC000808180688083E0910602F0910702808132
:100ED0008F7D80831092B0021092AF021092AE020A
:100EE0001092AD021092AC021092AB028DE991E02B
:100EF0009093B2028093B1029091A102963108F0D2
:100F000047C02DEB30E03093AC022093AB022BE9CD
:100F100031E03093AE022093AD022CE231E0309309
:100F2000B0022093AF022091680084E0983048F02E
:100F300031E09E3008F430E081E001C0880F3A953E
:100F4000EAF7822B809368002DE630E0983050F06D
:100F50002BE630E09E3030F02CE630E0963110F099
:100F600030E020E03093A9022093A802292F30E03E
:100F7000983008F0CBC081E001C0880F9A95EAF75D
:100F80008093AA028091B1029091B2020197F1F789
:100F90008091AF029091B002892B49F1E091EC0170
:100FA000F091ED0182E0E539F80709F1309739F069
:100FB000A389B4899C918589809589238C9380919C
:100FC000B3028E7F8093B3021092EB011092EA017C
:100FD00085E992E09093ED018093EC01E091A80205
:100FE000F091A90280819091AA02892B808361E00F
:100FF00088E00E94E60161E088E00E949A0186E2B2
:1010000091E00E9473038CE291E00E9473030E94BE
:101010003C0288248A94912C9AE0492E512C612C10
:10102000712C20E0222E20E0322E3BEFA32EBB2499
:10103000BA948091F2019091F301B4010E94CF081B
:101040006093EE018093EF0161E088E00E949A01D5
:1010500044E050E06EEE71E085E992E00E948D0080
:10106000C090F201D090F3010D2C000CEE08FF08A7
:10107000F7FE59C06DE284EF91E00E942D01222716
:101080003327A9012C193D094E095F0919A28E01C8
:101090000F5D1F4FCA01B901A30192010E94E3082D
:1010A000605DF80162938F012115310541055105FD
:1010B00089F70115110519F0C8010E9473038CE22C
:1010C00091E00E9473030E943C022091F201309152
:1010D000F301243B3105ECF1B0920101A092000133
:1010E0008091000190910101820F931F9093F30171
:1010F0008093F2012114310409F49BCF0E94F70080
:10110000882309F496CF0E94000093CF9E3040F4CC
:101110002850310981E001C0880F2A95EAF730CFC5
:101120002E503109F7CFA701960119A28E010F5D4C
:101130001F4FCA01B901A30192010E94E308605D3B
:10114000F80162938F01211531054105510589F799
:10115000B0CF1216130624F285E090E090930101BF
:1011600080930001BDCF88E191E090939602809337
:1011700095028091EC019091ED018559924071F4B6
:10118000E091A802F091A90290818091AA02809535
:10119000892380831092ED011092EC01089597FB52
:1011A000072E16F4009407D077FD09D00E94050998
:1011B00007FC05D03EF4909581959F4F089570955A
:1011C00061957F4F0895A1E21A2EAA1BBB1BFD015A
:1011D0000DC0AA1FBB1FEE1FFF1FA217B307E40716
:1011E000F50720F0A21BB30BE40BF50B661F771F6E
:1011F000881F991F1A9469F760957095809590954E
:101200009B01AC01BD01CF010895AA1BBB1B51E19D
:1012100007C0AA1FBB1FA617B70710F0A61BB70B66
:10122000881F991F5A95A9F780959095BC01CD010B
:101230000895EE0FFF1F0590F491E02D099410E042
:10124000C2E6D0E004C0FE010E9419092196C3360F
:10125000D107C9F7F894FFCF0100000000002D016D
:101260008D00BA007A01EB00C900DD00000000002B
:10127000DB028D007003990237034F03C3025374DE
:08128000617274000D0A000008
:107E0000112484B714BE81FFF0D085E080938100F7
:107E100082E08093C00088E18093C10086E0809377
:107E2000C20080E18093C4008EE0C9D0259A86E02C
:107E300020E33CEF91E0309385002093840096BBD3
:107E4000B09BFECF1D9AA8958150A9F7CC24DD24C4
:107E500088248394B5E0AB2EA1E19A2EF3E0BF2EE7
:107E6000A2D0813461F49FD0082FAFD0023811F036
:107E7000013811F484E001C083E08DD089C08234E0
:107E800011F484E103C0853419F485E0A6D080C0E4
:107E9000853579F488D0E82EFF2485D0082F10E0AE
:107EA000102F00270E291F29000F111F8ED06801E7
:107EB0006FC0863521F484E090D080E0DECF843638
:107EC00009F040C070D06FD0082F6DD080E0C81688
:107ED00080E7D80618F4F601B7BEE895C0E0D1E017
:107EE00062D089930C17E1F7F0E0CF16F0E7DF06D8
:107EF00018F0F601B7BEE89568D007B600FCFDCFD4
:107F0000A601A0E0B1E02C9130E011968C91119780
:107F100090E0982F8827822B932B1296FA010C0160
:107F200087BEE89511244E5F5F4FF1E0A038BF0790
:107F300051F7F601A7BEE89507B600FCFDCF97BE46
:107F4000E89526C08437B1F42ED02DD0F82E2BD052
:107F50003CD0F601EF2C8F010F5F1F4F84911BD097
:107F6000EA94F801C1F70894C11CD11CFA94CF0C13
:107F7000D11C0EC0853739F428D08EE10CD085E9AC
:107F80000AD08FE07ACF813511F488E018D01DD067
:107F900080E101D065CF982F8091C00085FFFCCF94
:107FA0009093C60008958091C00087FFFCCF809118
:107FB000C00084FD01C0A8958091C6000895E0E648
:107FC000F0E098E1908380830895EDDF803219F02E
:107FD00088E0F5DFFFCF84E1DECF1F93182FE3DFCA
:107FE0001150E9F7F2DF1F91089580E0E8DFEE27F6
:047FF000FF270994CA
:027FFE00040479
:00000001FF
