:100000000C9463000C948B000C948B000C94ED0505
:100010000C94ED050C94ED050C948B000C948B0066
:100020000C948B000C948B000C948B000C948B0024
:100030000C948B000C948B000C948B000C948B0014
:100040000C9488040C948B000C9456040C9430048B
:100050000C948B000C948B000C948B000C948B00F4
:100060000C94D2040C948B000000000024002700A4
:100070002A0000000008000201000003040700003D
:1000800000000000000000000000230026002900FE
:1000900000000000250028002B00040404040404D0
:1000A0000404020202020202030303030303010227
:1000B00004081020408001020408102001020408F6
:1000C000102065066C0911241FBECFEFD8E0DEBFFB
:1000D000CDBF11E0A0E0B1E0EAECF3E102C0059091
:1000E0000D92AE32B107D9F722E0AEE2B1E001C025
:1000F0001D92A03BB207E1F710E0C2E6D0E004C0D9
:100100002197FE010E94D209C136D107C9F70E948A
:1001100010070C94D8090C940000AF92BF92CF92B4
:10012000DF92EF92FF920F931F93CF93DF936C01B7
:100130007B018B01040F151FEB015E01AE18BF0898
:10014000C017D10759F06991D601ED91FC9101904A
:10015000F081E02DC6010995892B79F7C501DF9162
:10016000CF911F910F91FF90EF90DF90CF90BF90B4
:10017000AF900895FC01538D448D252F30E0842FDE
:1001800090E0821B930B541710F0CF9608950197BF
:100190000895FC01918D828D981761F0A28DAE0FAC
:1001A000BF2FB11D5D968C91928D9F5F9F73928F33
:1001B00090E008958FEF9FEF0895FC01918D828D5F
:1001C000981731F0828DE80FF11D858D90E008952C
:1001D0008FEF9FEF0895FC01918D228D892F90E084
:1001E000805C9F4F821B91098F739927089584EF3C
:1001F00091E00E94EB0021E0892B09F420E0822F9E
:10020000089580E090E0892B29F00E94F700811189
:100210000C9400000895FC01A48DA80FB92FB11D06
:10022000A35ABF4F2C91848D90E001968F7399272C
:10023000848FA689B7892C93A089B1898C9183700A
:1002400080648C93938D848D981306C00288F38903
:10025000E02D80818F7D80830895EF92FF920F9330
:100260001F93CF93DF93EC0181E0888F9B8D8C8D62
:1002700098131AC0E889F989808185FF15C09FB756
:10028000F894EE89FF896083E889F9898081837019
:10029000806480839FBF81E090E0DF91CF911F91C8
:1002A0000F91FF90EF900895F62E0B8D10E00F5FE9
:1002B0001F4F0F731127E02E8C8D8E110CC00FB6BF
:1002C00007FCFACFE889F989808185FFF5CFCE0157
:1002D0000E940B01F1CFEB8DEC0FFD2FF11DE35AC6
:1002E000FF4FF0829FB7F8940B8FEA89FB898081DA
:1002F0008062CFCFCF93DF93EC01888D8823B9F054
:10030000AA89BB89E889F9898C9185FD03C0808120
:1003100086FD0DC00FB607FCF7CF8C9185FFF2CF9D
:10032000808185FFEDCFCE010E940B01E9CFDF91E7
:10033000CF910895833081F028F4813099F0823094
:10034000A9F008958730A9F08830C9F08430B1F45D
:10035000809180008F7D03C0809180008F77809393
:100360008000089584B58F7784BD089584B58F7D0E
:10037000FBCF8091B0008F778093B000089580917B
:10038000B0008F7DF9CFCF93DF93282F30E0F901B4
:10039000EE58FF4F8491F901E255FF4FD491F901D6
:1003A000E656FF4FC491CC23A1F081110E949A011F
:1003B000EC2FF0E0EE0FFF1FEA57FF4FA591B4912D
:1003C000EC91ED2381E090E009F480E0DF91CF91A2
:1003D000089580E090E0FACF1F93CF93DF93282F0A
:1003E00030E0F901EE58FF4F8491F901E255FF4FDB
:1003F000D491F901E656FF4FC491CC23A9F0162FF2
:1004000081110E949A01EC2FF0E0EE0FFF1FE057E0
:10041000FF4FA591B4918FB7F894EC91111108C0DA
:10042000D095DE23DC938FBFDF91CF911F9108958C
:10043000DE2BF8CFCF93DF9390E0FC01E255FF4F26
:10044000249186569F4FFC0184918823C9F090E047
:10045000880F991FFC01E859FF4FA591B491FC0149
:10046000E057FF4FC591D49161110DC09FB7F8942B
:100470008C91209582238C938881282328839FBF89
:10048000DF91CF910895623051F49FB7F8943C9179
:10049000822F809583238C93E8812E2BEFCF8FB70B
:1004A000F894EC912E2B2C938FBFEACF3FB7F894A2
:1004B0008091E4019091E501A091E601B091E701FE
:1004C00026B5A89B05C02F3F19F00196A11DB11DAF
:1004D0003FBFBA2FA92F982F8827BC01CD01620FEB
:1004E000711D811D911D42E0660F771F881F991FA6
:1004F0004A95D1F708958F929F92AF92BF92CF9273
:10050000DF92EF92FF924B015C010E9456026B0159
:100510007C010E9456026C197D098E099F09683E74
:10052000734081059105A8F321E0821A9108A10882
:10053000B10888EEC80E83E0D81EE11CF11C8114BE
:100540009104A104B10429F7FF90EF90DF90CF90C0
:10055000BF90AF909F908F90089520919501260FA6
:100560003327331F21323105ECF42091B901FC010E
:1005700090E080E0243069F082E00895A091950138
:100580002191AC014B585E4FA40FB52FB11D2C9398
:100590000196861798F380919501680F60939501F5
:1005A00080E0089581E0089508958FEF9FEF08950A
:1005B0008FEF9FEF089580916E0190E09195819566
:1005C00091090895CF93DF93CB01EA01642F0E9434
:1005D000AD02CE01DF91CF910895CF93DF931F92AB
:1005E000CDB7DEB7698361E0CE0101960E94AD020E
:1005F00081E090E00F90DF91CF9108952091EA0182
:100600003091EB012817390771F49091E80180913E
:10061000E901981741F0E091E801F0E0E25DFE4F5A
:10062000808190E008958FEF9FEF0895EF92FF9201
:100630000F931F93CF93DF93DC015C96ED90FC90BA
:100640005D97E114F10479F481E090E013969C93B6
:100650008E93129790E080E0DF91CF911F910F91E0
:10066000FF90EF9008955196ED91FC91529750961E
:100670008C915097982F90950FB75E962C915E971E
:10068000122F127021FD6095F8942081112319F129
:10069000282B2083E7012197F1F728E0462F50E02F
:1006A000308160FF1AC0382B3083E7012197F1F7C2
:1006B000BA0175956795215089F7112381F08081E2
:1006C000892380830FBF5C968D919C910197F1F7F0
:1006D00081E090E0C1CF2923DCCF3923E5CF9081A1
:1006E000892BEFCF2091EA013091EB0128173907D0
:1006F00071F48091E9012091E80190E0805C9F4FC6
:10070000821B910960E470E00E948809089590E0DE
:1007100080E008952091EA013091EB012817390714
:10072000B9F49091E8018091E901981789F0E0917E
:10073000E801F0E0E25DFE4F80812091E80130E0C9
:100740002F5F3F4F2F7333272093E80190E00895E8
:100750008FEF9FEF089590E080E00895FC010190F5
:100760000020E9F73197AF01481B590BBC0184EF1A
:1007700091E00C948D001F93CF93DF9385ED8093D0
:10078000BC008091710190917201A0917301B091B0
:1007900074010796A11DB11D23E0B695A795979505
:1007A00087952A95D1F72091BC0024FD03C01092B3
:1007B000B90152C040917101509172016091730171
:1007C00070917401452B462B472B69F30097A105C7
:1007D000B10541F025E32A95F1F700000197A10941
:1007E000B109E1CF80917001C1E0C0936F0188230E
:1007F00099F1D091B8001091BA008091BC008A7B29
:100800008093BC0060E082E10E94EC0160E083E143
:100810000E94EC011092B901C093BB011092BA0181
:1008200061E082E10E94EC0161E083E10E94EC0161
:100830008091B9008E7F8093B9008091B9008D7F3F
:100840008093B90088E48093B80085E48093BC006D
:100850001093BA00D093B800DF91CF911F91089503
:100860001F920F920FB60F9211242F933F934F9325
:100870005F936F937F938F939F93AF93BF93EF9308
:10088000FF9384EF91E00E940B01FF91EF91BF91E4
:10089000AF919F918F917F916F915F914F913F9118
:1008A0002F910F900FBE0F901F9018951F920F92CF
:1008B0000FB60F9211242F938F939F93EF93FF9373
:1008C000E0910402F09105028081E0910A02F0912A
:1008D0000B0282FD1BC0908180910D028F5F8F7390
:1008E00020910E02821741F0E0910D02F0E0EC50F1
:1008F000FE4F958F80930D02FF91EF919F918F9105
:100900002F910F900FBE0F901F9018958081F4CFFC
:100910001F920F920FB60F9211242F933F938F9334
:100920009F93AF93BF938091E0019091E101A091DB
:10093000E201B091E3013091DF0123E0230F2D3775
:1009400058F50196A11DB11D2093DF018093E001B0
:100950009093E101A093E201B093E3018091E4015F
:100960009091E501A091E601B091E7010196A11DEA
:10097000B11D8093E4019093E501A093E601B0934B
:10098000E701BF91AF919F918F913F912F910F9070
:100990000FBE0F901F90189526E8230F0296A11DF9
:1009A000B11DD2CF1F920F920FB60F9211242F9329
:1009B0003F934F935F936F937F938F939F93AF93E7
:1009C000BF93EF93FF938091B900887F803609F43D
:1009D0004AC0F0F5883209F4A5C018F5803109F451
:1009E00099C0B8F4882309F4F5C0883009F492C09E
:1009F000FF91EF91BF91AF919F918F917F916F91F7
:100A00005F914F913F912F910F900FBE0F901F90CC
:100A10001895883109F486C0803251F78093B80167
:100A200014C0803409F49BC040F48033B9F3883398
:100A3000F9F68093B80185ECAEC0803509F483C027
:100A4000883509F494C0883499F60E94BB03D0CF4E
:100A5000883909F48AC038F5883729F050F4883687
:100A600011F0803729F683E08093B9011092B70125
:100A700055C0883809F479C0803919F0803809F0F8
:100A8000B7CF8091B701803208F06FC0E091B70115
:100A900081E08E0F8093B7018091BB00F0E0E956B2
:100AA000FE4F80833BC0803B39F0D0F4803A09F49C
:100AB00077C0883A09F09CCF84E08093B901109206
:100AC000960110929501F0E0E0E009958091950182
:100AD00081110FC081E0809395011092750109C0CA
:100AE000803C09F4A8CF883C09F4A5CF883B09F0E5
:100AF0007FCFE091960181E08E0F80939601F0E028
:100B0000EB58FE4F80818093BB00909196018091BD
:100B1000950129C08091DE018093BB0085EC809314
:100B2000BC0066CF9091DD018091DC01981758F5EB
:100B3000E091DD0181E08E0F8093DD01F0E0E4546F
:100B4000FE4F8081E9CFE091DD0181E08E0F80933F
:100B5000DD018091BB00F0E0E454FE4F8083909172
:100B6000DD018091DC019817C8F285E8D8CFE091CB
:100B7000DD0181E08E0F8093DD018091BB00F0E00C
:100B8000E454FE4F80838091BB0181115ECF81E0F0
:100B90008093BA0184EA8093BC001092B90128CFF7
:100BA00085EC8093BC001092B9018091B70180322E
:100BB00030F4E091B701F0E0E956FE4F1082609109
:100BC000B70170E087E991E0F0E0E0E0099510926C
:100BD000B7010ECF1092B80138CF1F920F920FB607
:100BE0000F9211242F933F934F935F936F937F93B3
:100BF0008F939F93AF93BF93EF93FF93E091EA019D
:100C0000F091EB01309749F0A685B7858585968DE3
:100C100091FF14C09C918923A1F4FF91EF91BF91A2
:100C2000AF919F918F917F916F915F914F913F9184
:100C30002F910F900FBE0F901F9018959C918923B4
:100C400061F7A389B4899C918589809589238C93C8
:100C5000868997890197F1F7608D718DA685B78593
:100C6000558538E020E0CB010197F1F7822F90E025
:100C700095958795282F4C91452309F02068315090
:100C800091F7868D81FD20958091E90190E0019694
:100C90008F7399273091E801381799F0A091E901F5
:100CA000B0E0A25DBE4F2C938093E901828D938DBD
:100CB0000197F1F7A389B4898C919589892B8C933D
:100CC000ACCF868D8160868FF1CF1092F7011092A4
:100CD000F60188EE93E0A0E0B0E08093F8019093F5
:100CE000F901A093FA01B093FB0124E031E03093C5
:100CF000F5012093F40125EC30E0309301022093BC
:100D0000000224EC30E0309303022093020220EC36
:100D100030E0309305022093040221EC30E0309360
:100D200007022093060222EC30E030930902209360
:100D3000080226EC30E030930B0220930A02109256
:100D40000D0210920E0210920F02109210021092D9
:100D50009402109293028093950290939602A0932E
:100D60009702B093980286E191E09093920280936B
:100D700091021092A8021092A7021092AA02109259
:100D8000A9021092AC021092AB021092AE02109225
:100D9000AD026091AF026E7F6D7F6093AF0266958A
:100DA000617081E0682782E00E94EC0161E082E0EE
:100DB0000E941A02E0EBF0E0E491E093A102ECE97A
:100DC000F0E0E491F0E0EE0FFF1FE057FF4F859158
:100DD00094919093A3028093A20260E084E00E9429
:100DE0001A028091AF0281FD04C061E084E00E949C
:100DF000EC0184E080939D02E2EBF0E0E491E0936B
:100E00009E02EEE9F0E0E491F0E0EE0FFF1FEA57FA
:100E1000FF4F859194919093A00280939F02089533
:100E2000CF93DF93CDB7DEB7A1970FB6F894DEBFAF
:100E30000FBECDBF789484B5826084BD84B58160D7
:100E400084BD85B5826085BD85B5816085BD809195
:100E50006E00816080936E0010928100809181000D
:100E60008260809381008091810081608093810005
:100E7000809180008160809380008091B1008460C7
:100E80008093B1008091B00081608093B000809128
:100E90007A00846080937A0080917A0082608093E7
:100EA0007A0080917A00816080937A0080917A0044
:100EB000806880937A001092C10062E089E00E940D
:100EC0001A0262E08AE00E941A0262E08BE00E944D
:100ED0001A0262E08CE00E941A0262E08DE00E9439
:100EE0001A0262E08EE00E941A0262E08FE00E9425
:100EF0001A0262E080E10E941A0262E081E10E942F
:100F00001A0262E082E10E941A0262E088E00E9416
:100F10001A02E0910402F091050282E08083E091E0
:100F20000002F09101021082E0910202F0910302AE
:100F30008FEC808310920C02E0910802F09109027C
:100F400086E08083E0910602F09107028081806153
:100F50008083E0910602F09107028081886080839F
:100F6000E0910602F0910702808180688083E09121
:100F70000602F091070280818F7D80831092AC027F
:100F80001092AB021092AA021092A9021092A8022B
:100F90001092A7028DE991E09093AE028093AD028A
:100FA00090919D02963108F047C02DEB30E03093D0
:100FB000A8022093A7022BE931E03093AA022093E4
:100FC000A9022CE231E03093AC022093AB022091D5
:100FD000680084E0983048F031E09E3008F430E05A
:100FE00081E001C0880F3A95EAF7822B8093680070
:100FF0002DE630E0983050F02BE630E09E3030F0B7
:101000002CE630E0963110F030E020E03093A5027D
:101010002093A402292F30E0983008F035C181E0F8
:1010200001C0880F9A95EAF78093A6028091AD02DD
:101030009091AE020197F1F78091AB029091AC02D2
:10104000892B49F1E091EA01F091EB0182E0E1396D
:10105000F80709F1309739F0A389B4899C91858903
:10106000809589238C938091AF028E7F8093AF020D
:101070001092E9011092E80181E992E09093EB016E
:101080008093EA01E091A402F091A5028081909101
:10109000A602892B808361E083E00E941A0261E04E
:1010A00083E00E94EC0184E291E00E94AE038AE2B8
:1010B00091E00E94AE0368EE73E080E090E00E9451
:1010C0007B023AE0432E512C612C712C86E4282EB1
:1010D000312C90E5892E912CAA24A394B12C89E07F
:1010E0000E94C301892B31F4EAE0F0E0F093F301B0
:1010F000E093F2018AE00E94C301892B31F484E17C
:1011000090E09093F3018093F2018BE00E94C30181
:10111000892B31F4EEE1F0E0F093F301E093F2017A
:101120008CE00E94C301892B31F488E290E0909317
:10113000F3018093F2018DE00E94C301892B31F409
:10114000E2E3F0E0F093F301E093F2018EE00E941D
:10115000C301892B31F48CE390E09093F3018093E9
:10116000F2018FE00E94C301892B21F43092F30138
:101170002092F20180E10E94C301892B21F4909218
:10118000F3018092F20181E10E94C301892B31F4C5
:10119000EAE5F0E0F093F301E093F20182E10E94CE
:1011A000C301892B31F484E690E09093F30180939E
:1011B000F20188E00E94C301892B09F072C0B0924D
:1011C000F101A092F00164E670E080E090E00E94FE
:1011D0007B02C090F201D090F301C092EC018091AB
:1011E000F0018093ED0184E68093EF010D2C000C5B
:1011F000EE08FF08F7FE5AC06DE284EF91E00E940E
:101200002D0122273327A9012C193D094E095F0919
:1012100019A28E010F5D1F4FCA01B901A3019201EE
:101220000E949C09605DF80162938F0121153105D0
:101230004105510589F70115110519F0C8010E94F2
:10124000AE038AE291E00E94AE0361E083E00E9477
:10125000EC0144E050E06CEE71E081E992E00E9424
:101260008D0064E873E080E090E00E947B0280E003
:1012700090E0892B09F433CF0E94F700882309F40A
:1012800025CF0E94000022CF9E3040F42850310923
:1012900081E001C0880F2A95EAF7C6CE2E503109A9
:1012A000F7CF1092F1011092F0018DCFA7019601B6
:1012B00019A28E010F5D1F4FCA01B901A30192014E
:1012C0000E949C09605DF80162938F012115310530
:1012D0004105510589F7AFCF86E191E090939202E5
:1012E000809391028091EA019091EB0181599240A3
:1012F00071F4E091A402F091A50290818091A60280
:101300008095892380831092EB011092EA01089561
:1013100097FB072E16F4009407D077FD09D00E94A2
:10132000BE0907FC05D03EF4909581959F4F089526
:10133000709561957F4F0895A1E21A2EAA1BBB1BE1
:10134000FD010DC0AA1FBB1FEE1FFF1FA217B30791
:10135000E407F50720F0A21BB30BE40BF50B661FA7
:10136000771F881F991F1A9469F76095709580956B
:1013700090959B01AC01BD01CF010895AA1BBB1B39
:1013800051E107C0AA1FBB1FA617B70710F0A61B85
:10139000B70B881F991F5A95A9F780959095BC01A6
:1013A000CD010895EE0FFF1F0590F491E02D0994F3
:1013B00010E0C2E6D0E004C0FE010E94D2092196EE
:0A13C000C336D107C9F7F894FFCF38
:1013CA00000000002D018D00BA007A01EB00C9006F
:1013DA00DD000000000016038D00AB03D402720387
:0E13EA008A03FE025374617274000D0A000043
:00000001FF
